{
  "contractName": "ArenaTicketConsumableResolver",
  "abi": [
    {
      "inputs": [
        {
          "internalType": "address",
          "name": "gameTokenAddress",
          "type": "address"
        },
        {
          "internalType": "address",
          "name": "battleSystemAddress",
          "type": "address"
        },
        {
          "internalType": "address",
          "name": "consumableAddress",
          "type": "address"
        }
      ],
      "stateMutability": "nonpayable",
      "type": "constructor"
    },
    {
      "anonymous": false,
      "inputs": [
        {
          "indexed": true,
          "internalType": "address",
          "name": "previousOwner",
          "type": "address"
        },
        {
          "indexed": true,
          "internalType": "address",
          "name": "newOwner",
          "type": "address"
        }
      ],
      "name": "OwnershipTransferred",
      "type": "event"
    },
    {
      "inputs": [],
      "name": "owner",
      "outputs": [
        {
          "internalType": "address",
          "name": "",
          "type": "address"
        }
      ],
      "stateMutability": "view",
      "type": "function",
      "constant": true
    },
    {
      "inputs": [],
      "name": "renounceOwnership",
      "outputs": [],
      "stateMutability": "nonpayable",
      "type": "function"
    },
    {
      "inputs": [
        {
          "internalType": "address",
          "name": "newOwner",
          "type": "address"
        }
      ],
      "name": "transferOwnership",
      "outputs": [],
      "stateMutability": "nonpayable",
      "type": "function"
    },
    {
      "inputs": [
        {
          "internalType": "uint256",
          "name": "_token",
          "type": "uint256"
        },
        {
          "components": [
            {
              "internalType": "uint256",
              "name": "id",
              "type": "uint256"
            },
            {
              "internalType": "uint8",
              "name": "percXPGain",
              "type": "uint8"
            },
            {
              "internalType": "uint8",
              "name": "maxXPGain",
              "type": "uint8"
            },
            {
              "internalType": "bool",
              "name": "generateArenaTicket",
              "type": "bool"
            },
            {
              "internalType": "bool",
              "name": "generateEquipment",
              "type": "bool"
            }
          ],
          "internalType": "struct SharedStructs.Consumable",
          "name": "_consumable",
          "type": "tuple"
        },
        {
          "internalType": "address",
          "name": "caller",
          "type": "address"
        }
      ],
      "name": "resolve",
      "outputs": [],
      "stateMutability": "nonpayable",
      "type": "function"
    }
  ],
  "bytecode": "0x60806040523480156200001157600080fd5b5060405162000daf38038062000daf833981810160405281019062000037919062000259565b620000576200004b6200012360201b60201c565b6200012b60201b60201c565b82600160006101000a81548173ffffffffffffffffffffffffffffffffffffffff021916908373ffffffffffffffffffffffffffffffffffffffff16021790555081600260006101000a81548173ffffffffffffffffffffffffffffffffffffffff021916908373ffffffffffffffffffffffffffffffffffffffff16021790555080600360006101000a81548173ffffffffffffffffffffffffffffffffffffffff021916908373ffffffffffffffffffffffffffffffffffffffff160217905550505050620002b5565b600033905090565b60008060009054906101000a900473ffffffffffffffffffffffffffffffffffffffff169050816000806101000a81548173ffffffffffffffffffffffffffffffffffffffff021916908373ffffffffffffffffffffffffffffffffffffffff1602179055508173ffffffffffffffffffffffffffffffffffffffff168173ffffffffffffffffffffffffffffffffffffffff167f8be0079c531659141344cd1fd0a4f28419497f9722a3daafe3b4186f6b6457e060405160405180910390a35050565b600080fd5b600073ffffffffffffffffffffffffffffffffffffffff82169050919050565b60006200022182620001f4565b9050919050565b620002338162000214565b81146200023f57600080fd5b50565b600081519050620002538162000228565b92915050565b600080600060608486031215620002755762000274620001ef565b5b6000620002858682870162000242565b9350506020620002988682870162000242565b9250506040620002ab8682870162000242565b9150509250925092565b610aea80620002c56000396000f3fe608060405234801561001057600080fd5b506004361061004c5760003560e01c8063715018a6146100515780638da5cb5b1461005b578063c302f10114610079578063f2fde38b14610095575b600080fd5b6100596100b1565b005b610063610139565b60405161007091906105a1565b60405180910390f35b610093600480360381019061008e91906107bb565b610162565b005b6100af60048036038101906100aa919061080e565b61039c565b005b6100b9610494565b73ffffffffffffffffffffffffffffffffffffffff166100d7610139565b73ffffffffffffffffffffffffffffffffffffffff161461012d576040517f08c379a000000000000000000000000000000000000000000000000000000000815260040161012490610898565b60405180910390fd5b610137600061049c565b565b60008060009054906101000a900473ffffffffffffffffffffffffffffffffffffffff16905090565b600360009054906101000a900473ffffffffffffffffffffffffffffffffffffffff1673ffffffffffffffffffffffffffffffffffffffff163373ffffffffffffffffffffffffffffffffffffffff16146101f2576040517f08c379a00000000000000000000000000000000000000000000000000000000081526004016101e99061092a565b60405180910390fd5b600160009054906101000a900473ffffffffffffffffffffffffffffffffffffffff1673ffffffffffffffffffffffffffffffffffffffff16636352211e846040518263ffffffff1660e01b815260040161024d9190610959565b60206040518083038186803b15801561026557600080fd5b505afa158015610279573d6000803e3d6000fd5b505050506040513d601f19601f8201168201806040525081019061029d9190610989565b73ffffffffffffffffffffffffffffffffffffffff168173ffffffffffffffffffffffffffffffffffffffff161461030a576040517f08c379a000000000000000000000000000000000000000000000000000000000815260040161030190610a02565b60405180910390fd5b600260009054906101000a900473ffffffffffffffffffffffffffffffffffffffff1673ffffffffffffffffffffffffffffffffffffffff16633b11c0e5846040518263ffffffff1660e01b81526004016103659190610959565b600060405180830381600087803b15801561037f57600080fd5b505af1158015610393573d6000803e3d6000fd5b50505050505050565b6103a4610494565b73ffffffffffffffffffffffffffffffffffffffff166103c2610139565b73ffffffffffffffffffffffffffffffffffffffff1614610418576040517f08c379a000000000000000000000000000000000000000000000000000000000815260040161040f90610898565b60405180910390fd5b600073ffffffffffffffffffffffffffffffffffffffff168173ffffffffffffffffffffffffffffffffffffffff161415610488576040517f08c379a000000000000000000000000000000000000000000000000000000000815260040161047f90610a94565b60405180910390fd5b6104918161049c565b50565b600033905090565b60008060009054906101000a900473ffffffffffffffffffffffffffffffffffffffff169050816000806101000a81548173ffffffffffffffffffffffffffffffffffffffff021916908373ffffffffffffffffffffffffffffffffffffffff1602179055508173ffffffffffffffffffffffffffffffffffffffff168173ffffffffffffffffffffffffffffffffffffffff167f8be0079c531659141344cd1fd0a4f28419497f9722a3daafe3b4186f6b6457e060405160405180910390a35050565b600073ffffffffffffffffffffffffffffffffffffffff82169050919050565b600061058b82610560565b9050919050565b61059b81610580565b82525050565b60006020820190506105b66000830184610592565b92915050565b6000604051905090565b600080fd5b6000819050919050565b6105de816105cb565b81146105e957600080fd5b50565b6000813590506105fb816105d5565b92915050565b600080fd5b6000601f19601f8301169050919050565b7f4e487b7100000000000000000000000000000000000000000000000000000000600052604160045260246000fd5b61064f82610606565b810181811067ffffffffffffffff8211171561066e5761066d610617565b5b80604052505050565b60006106816105bc565b905061068d8282610646565b919050565b600060ff82169050919050565b6106a881610692565b81146106b357600080fd5b50565b6000813590506106c58161069f565b92915050565b60008115159050919050565b6106e0816106cb565b81146106eb57600080fd5b50565b6000813590506106fd816106d7565b92915050565b600060a0828403121561071957610718610601565b5b61072360a0610677565b90506000610733848285016105ec565b6000830152506020610747848285016106b6565b602083015250604061075b848285016106b6565b604083015250606061076f848285016106ee565b6060830152506080610783848285016106ee565b60808301525092915050565b61079881610580565b81146107a357600080fd5b50565b6000813590506107b58161078f565b92915050565b600080600060e084860312156107d4576107d36105c6565b5b60006107e2868287016105ec565b93505060206107f386828701610703565b92505060c0610804868287016107a6565b9150509250925092565b600060208284031215610824576108236105c6565b5b6000610832848285016107a6565b91505092915050565b600082825260208201905092915050565b7f4f776e61626c653a2063616c6c6572206973206e6f7420746865206f776e6572600082015250565b600061088260208361083b565b915061088d8261084c565b602082019050919050565b600060208201905081810360008301526108b181610875565b9050919050565b7f4f6e6c7920636f6e73756d61626c6520636f6e74726163742063616e2063616c60008201527f6c2074686973206d6574686f6400000000000000000000000000000000000000602082015250565b6000610914602d8361083b565b915061091f826108b8565b604082019050919050565b6000602082019050818103600083015261094381610907565b9050919050565b610953816105cb565b82525050565b600060208201905061096e600083018461094a565b92915050565b6000815190506109838161078f565b92915050565b60006020828403121561099f5761099e6105c6565b5b60006109ad84828501610974565b91505092915050565b7f4f6e6c79206865726f206f776e65722063616e20616464205850000000000000600082015250565b60006109ec601a8361083b565b91506109f7826109b6565b602082019050919050565b60006020820190508181036000830152610a1b816109df565b9050919050565b7f4f776e61626c653a206e6577206f776e657220697320746865207a65726f206160008201527f6464726573730000000000000000000000000000000000000000000000000000602082015250565b6000610a7e60268361083b565b9150610a8982610a22565b604082019050919050565b60006020820190508181036000830152610aad81610a71565b905091905056fea264697066735822122089ef72171cdcd9de983a3d78d8ca8ca8e5276ede0d23751e3f08014f2164854164736f6c63430008090033",
  "immutableReferences": {},
  "source": "// SPDX-License-Identifier: MIT\npragma solidity 0.8.9;\n\nimport \"../../node_modules/@openzeppelin/contracts/access/Ownable.sol\";\nimport \"../BattleSystem.sol\";\nimport \"../interfaces/IConsumableResolver.sol\";\n\ncontract ArenaTicketConsumableResolver is Ownable, IConsumableResolver {\n    address private _gameTokenAddress;\n    address private _battleSystemAddress;\n    address private _consumableAddress;\n\n    constructor(\n        address gameTokenAddress,\n        address battleSystemAddress,\n        address consumableAddress\n    ) {\n        _gameTokenAddress = gameTokenAddress;\n        _battleSystemAddress = battleSystemAddress;\n        _consumableAddress = consumableAddress;\n    }\n\n    function resolve(\n        uint256 _token,\n        SharedStructs.Consumable memory _consumable,\n        address caller\n    ) external {\n        require(\n            msg.sender == _consumableAddress,\n            \"Only consumable contract can call this method\"\n        );\n\n        require(\n            caller == GameToken(_gameTokenAddress).ownerOf(_token),\n            \"Only hero owner can add XP\"\n        );\n\n        BattleSystem(_battleSystemAddress).freeWin(_token);\n    }\n}\n",
  "sourcePath": "/home/rfaita/game/nft-game/contract/contracts/resolvers/ArenaTicketConsumableResolver.sol",
  "compiler": {
    "name": "solc",
    "version": "0.8.9+commit.e5eed63a.Emscripten.clang"
  },
  "schemaVersion": "3.4.7",
  "updatedAt": "2022-05-02T19:53:09.289Z",
  "networkType": "ethereum",
  "devdoc": {
    "kind": "dev",
    "methods": {
      "owner()": {
        "details": "Returns the address of the current owner."
      },
      "renounceOwnership()": {
        "details": "Leaves the contract without owner. It will not be possible to call `onlyOwner` functions anymore. Can only be called by the current owner. NOTE: Renouncing ownership will leave the contract without an owner, thereby removing any functionality that is only available to the owner."
      },
      "transferOwnership(address)": {
        "details": "Transfers ownership of the contract to a new account (`newOwner`). Can only be called by the current owner."
      }
    },
    "version": 1
  },
  "userdoc": {
    "kind": "user",
    "methods": {},
    "version": 1
  }
}