{
  "contractName": "BattleSystem",
  "abi": [
    {
      "inputs": [
        {
          "internalType": "address",
          "name": "gameTokenAddress",
          "type": "address"
        }
      ],
      "stateMutability": "nonpayable",
      "type": "constructor"
    },
    {
      "anonymous": false,
      "inputs": [
        {
          "indexed": true,
          "internalType": "address",
          "name": "owner",
          "type": "address"
        },
        {
          "indexed": true,
          "internalType": "uint256",
          "name": "aHeroId",
          "type": "uint256"
        },
        {
          "indexed": true,
          "internalType": "uint256",
          "name": "dHeroId",
          "type": "uint256"
        },
        {
          "indexed": false,
          "internalType": "uint8",
          "name": "points",
          "type": "uint8"
        },
        {
          "indexed": false,
          "internalType": "uint256",
          "name": "date",
          "type": "uint256"
        },
        {
          "indexed": false,
          "internalType": "string",
          "name": "tokenURI",
          "type": "string"
        }
      ],
      "name": "BattleEnd",
      "type": "event"
    },
    {
      "anonymous": false,
      "inputs": [
        {
          "indexed": true,
          "internalType": "address",
          "name": "previousOwner",
          "type": "address"
        },
        {
          "indexed": true,
          "internalType": "address",
          "name": "newOwner",
          "type": "address"
        }
      ],
      "name": "OwnershipTransferred",
      "type": "event"
    },
    {
      "inputs": [],
      "name": "owner",
      "outputs": [
        {
          "internalType": "address",
          "name": "",
          "type": "address"
        }
      ],
      "stateMutability": "view",
      "type": "function",
      "constant": true
    },
    {
      "inputs": [],
      "name": "renounceOwnership",
      "outputs": [],
      "stateMutability": "nonpayable",
      "type": "function"
    },
    {
      "inputs": [
        {
          "internalType": "address",
          "name": "newOwner",
          "type": "address"
        }
      ],
      "name": "transferOwnership",
      "outputs": [],
      "stateMutability": "nonpayable",
      "type": "function"
    },
    {
      "inputs": [
        {
          "internalType": "address",
          "name": "_newConsumableAddress",
          "type": "address"
        }
      ],
      "name": "setConsumableAddress",
      "outputs": [],
      "stateMutability": "nonpayable",
      "type": "function"
    },
    {
      "inputs": [
        {
          "internalType": "uint256",
          "name": "_aHeroId",
          "type": "uint256"
        }
      ],
      "name": "battle",
      "outputs": [],
      "stateMutability": "nonpayable",
      "type": "function"
    },
    {
      "inputs": [
        {
          "internalType": "uint256",
          "name": "initialDate",
          "type": "uint256"
        },
        {
          "internalType": "uint256",
          "name": "endDate",
          "type": "uint256"
        }
      ],
      "name": "getTop5",
      "outputs": [
        {
          "components": [
            {
              "internalType": "uint256",
              "name": "heroId",
              "type": "uint256"
            },
            {
              "internalType": "uint32",
              "name": "points",
              "type": "uint32"
            }
          ],
          "internalType": "struct BattleSystem.Rank[]",
          "name": "",
          "type": "tuple[]"
        }
      ],
      "stateMutability": "view",
      "type": "function",
      "constant": true
    },
    {
      "inputs": [
        {
          "internalType": "uint256",
          "name": "initialDate",
          "type": "uint256"
        },
        {
          "internalType": "uint256",
          "name": "endDate",
          "type": "uint256"
        }
      ],
      "name": "getRank",
      "outputs": [
        {
          "components": [
            {
              "internalType": "uint256",
              "name": "heroId",
              "type": "uint256"
            },
            {
              "internalType": "uint32",
              "name": "points",
              "type": "uint32"
            }
          ],
          "internalType": "struct BattleSystem.Rank[]",
          "name": "",
          "type": "tuple[]"
        }
      ],
      "stateMutability": "view",
      "type": "function",
      "constant": true
    },
    {
      "inputs": [
        {
          "internalType": "uint256",
          "name": "_heroId",
          "type": "uint256"
        }
      ],
      "name": "getBattles",
      "outputs": [
        {
          "components": [
            {
              "internalType": "uint256",
              "name": "aHeroId",
              "type": "uint256"
            },
            {
              "internalType": "uint256",
              "name": "dHeroId",
              "type": "uint256"
            },
            {
              "internalType": "uint8",
              "name": "points",
              "type": "uint8"
            },
            {
              "internalType": "uint256",
              "name": "date",
              "type": "uint256"
            },
            {
              "internalType": "string",
              "name": "tokenURI",
              "type": "string"
            }
          ],
          "internalType": "struct BattleSystem.BattleDTO[]",
          "name": "",
          "type": "tuple[]"
        }
      ],
      "stateMutability": "view",
      "type": "function",
      "constant": true
    }
  ],
  "bytecode": "0x60806040523480156200001157600080fd5b5060405162003070380380620030708339818101604052810190620000379190620001d5565b620000576200004b6200009f60201b60201c565b620000a760201b60201c565b80600160006101000a81548173ffffffffffffffffffffffffffffffffffffffff021916908373ffffffffffffffffffffffffffffffffffffffff1602179055505062000207565b600033905090565b60008060009054906101000a900473ffffffffffffffffffffffffffffffffffffffff169050816000806101000a81548173ffffffffffffffffffffffffffffffffffffffff021916908373ffffffffffffffffffffffffffffffffffffffff1602179055508173ffffffffffffffffffffffffffffffffffffffff168173ffffffffffffffffffffffffffffffffffffffff167f8be0079c531659141344cd1fd0a4f28419497f9722a3daafe3b4186f6b6457e060405160405180910390a35050565b600080fd5b600073ffffffffffffffffffffffffffffffffffffffff82169050919050565b60006200019d8262000170565b9050919050565b620001af8162000190565b8114620001bb57600080fd5b50565b600081519050620001cf81620001a4565b92915050565b600060208284031215620001ee57620001ed6200016b565b5b6000620001fe84828501620001be565b91505092915050565b612e5980620002176000396000f3fe608060405234801561001057600080fd5b50600436106100885760003560e01c8063867e5ef51161005b578063867e5ef5146100ff5780638da5cb5b1461012f5780639cf44cc71461014d578063f2fde38b1461017d57610088565b806347e7d47d1461008d57806357e10ace146100a95780635d6de796146100d9578063715018a6146100f5575b600080fd5b6100a760048036038101906100a29190611ebf565b610199565b005b6100c360048036038101906100be9190611f22565b610259565b6040516100d0919061206e565b60405180910390f35b6100f360048036038101906100ee9190612090565b6104c7565b005b6100fd610c4b565b005b61011960048036038101906101149190612090565b610cd3565b60405161012691906122aa565b60405180910390f35b610137610f0a565b60405161014491906122db565b60405180910390f35b61016760048036038101906101629190611f22565b610f33565b604051610174919061206e565b60405180910390f35b61019760048036038101906101929190611ebf565b611611565b005b6101a1611709565b73ffffffffffffffffffffffffffffffffffffffff166101bf610f0a565b73ffffffffffffffffffffffffffffffffffffffff1614610215576040517f08c379a000000000000000000000000000000000000000000000000000000000815260040161020c90612353565b60405180910390fd5b80600260006101000a81548173ffffffffffffffffffffffffffffffffffffffff021916908373ffffffffffffffffffffffffffffffffffffffff16021790555050565b60606000600160009054906101000a900473ffffffffffffffffffffffffffffffffffffffff1673ffffffffffffffffffffffffffffffffffffffff16638302adfb6040518163ffffffff1660e01b815260040160206040518083038186803b1580156102c557600080fd5b505afa1580156102d9573d6000803e3d6000fd5b505050506040513d601f19601f820116820180604052508101906102fd9190612388565b905060008167ffffffffffffffff81111561031b5761031a6123b5565b5b60405190808252806020026020018201604052801561035457816020015b610341611dfb565b8152602001906001900390816103395790505b50905060005b828110156104bb576000805b600360008481526020019081526020016000208054905081101561046d576003600084815260200190815260200160002081815481106103a9576103a86123e4565b5b90600052602060002090600402016003015488111580156104005750866003600085815260200190815260200160002082815481106103eb576103ea6123e4565b5b90600052602060002090600402016003015411155b1561045a5760036000848152602001908152602001600020818154811061042a576104296123e4565b5b906000526020600020906004020160020160009054906101000a900460ff1660ff16826104579190612442565b91505b80806104659061247c565b915050610366565b5060405180604001604052808381526020018263ffffffff1681525083838151811061049c5761049b6123e4565b5b60200260200101819052505080806104b39061247c565b91505061035a565b50809250505092915050565b600160009054906101000a900473ffffffffffffffffffffffffffffffffffffffff1673ffffffffffffffffffffffffffffffffffffffff16636352211e826040518263ffffffff1660e01b815260040161052291906124d4565b60206040518083038186803b15801561053a57600080fd5b505afa15801561054e573d6000803e3d6000fd5b505050506040513d601f19601f820116820180604052508101906105729190612504565b73ffffffffffffffffffffffffffffffffffffffff163373ffffffffffffffffffffffffffffffffffffffff16146105df576040517f08c379a00000000000000000000000000000000000000000000000000000000081526004016105d69061257d565b60405180910390fd5b6000600160009054906101000a900473ffffffffffffffffffffffffffffffffffffffff1673ffffffffffffffffffffffffffffffffffffffff166321d80111836040518263ffffffff1660e01b815260040161063c91906124d4565b60006040518083038186803b15801561065457600080fd5b505afa158015610668573d6000803e3d6000fd5b505050506040513d6000823e3d601f19601f820116820180604052508101906106919190612826565b9050600082826101200151600160009054906101000a900473ffffffffffffffffffffffffffffffffffffffff1673ffffffffffffffffffffffffffffffffffffffff16638302adfb6040518163ffffffff1660e01b815260040160206040518083038186803b15801561070457600080fd5b505afa158015610718573d6000803e3d6000fd5b505050506040513d601f19601f8201168201806040525081019061073c9190612388565b610746919061286f565b610750919061286f565b90506000819050600061080e838360018060009054906101000a900473ffffffffffffffffffffffffffffffffffffffff1673ffffffffffffffffffffffffffffffffffffffff16638302adfb6040518163ffffffff1660e01b815260040160206040518083038186803b1580156107c757600080fd5b505afa1580156107db573d6000803e3d6000fd5b505050506040513d601f19601f820116820180604052508101906107ff9190612388565b61080991906128c5565b611711565b9050808261081c919061286f565b915060008186146108365761083384848885611839565b90505b6003600087815260200190815260200160002060405180608001604052808881526020018481526020018360ff168152602001428152509080600181540180825580915050600190039060005260206000209060040201600090919091909150600082015181600001556020820151816001015560408201518160020160006101000a81548160ff021916908360ff1602179055506060820151816003015550506000600360008881526020019081526020016000206001600360008a81526020019081526020016000208054905061090f91906128c5565b815481106109205761091f6123e4565b5b906000526020600020906004020160405180608001604052908160008201548152602001600182015481526020016002820160009054906101000a900460ff1660ff1660ff1681526020016003820154815250509050600160009054906101000a900473ffffffffffffffffffffffffffffffffffffffff1673ffffffffffffffffffffffffffffffffffffffff1663484a20328860016040518363ffffffff1660e01b81526004016109d4929190612916565b600060405180830381600087803b1580156109ee57600080fd5b505af1158015610a02573d6000803e3d6000fd5b505050508160ff1685610a15919061286f565b94508287610a23919061286f565b84610a2e919061286f565b9350600073ffffffffffffffffffffffffffffffffffffffff16600260009054906101000a900473ffffffffffffffffffffffffffffffffffffffff1673ffffffffffffffffffffffffffffffffffffffff1614158015610a9657506000816040015160ff16115b15610b2b57600260009054906101000a900473ffffffffffffffffffffffffffffffffffffffff1673ffffffffffffffffffffffffffffffffffffffff166394bf804d88336040518363ffffffff1660e01b8152600401610af892919061293f565b600060405180830381600087803b158015610b1257600080fd5b505af1158015610b26573d6000803e3d6000fd5b505050505b806020015181600001513373ffffffffffffffffffffffffffffffffffffffff167fe72551baf647f778ed07037580644e505b4d7cde9e7917f0a89c30f13fb8aca284604001518560600151600160009054906101000a900473ffffffffffffffffffffffffffffffffffffffff1673ffffffffffffffffffffffffffffffffffffffff1663c87b56dd88602001516040518263ffffffff1660e01b8152600401610bd691906124d4565b60006040518083038186803b158015610bee57600080fd5b505afa158015610c02573d6000803e3d6000fd5b505050506040513d6000823e3d601f19601f82011682018060405250810190610c2b9190612968565b604051610c3a939291906129f9565b60405180910390a450505050505050565b610c53611709565b73ffffffffffffffffffffffffffffffffffffffff16610c71610f0a565b73ffffffffffffffffffffffffffffffffffffffff1614610cc7576040517f08c379a0000000000000000000000000000000000000000000000000000000008152600401610cbe90612353565b60405180910390fd5b610cd16000611be9565b565b60606000600360008481526020019081526020016000208054905067ffffffffffffffff811115610d0757610d066123b5565b5b604051908082528060200260200182016040528015610d4057816020015b610d2d611e1b565b815260200190600190039081610d255790505b50905060005b6003600085815260200190815260200160002080549050811015610f00576000600360008681526020019081526020016000208281548110610d8b57610d8a6123e4565b5b906000526020600020906004020160405180608001604052908160008201548152602001600182015481526020016002820160009054906101000a900460ff1660ff1660ff16815260200160038201548152505090506040518060a001604052808260000151815260200182602001518152602001826040015160ff16815260200182606001518152602001600160009054906101000a900473ffffffffffffffffffffffffffffffffffffffff1673ffffffffffffffffffffffffffffffffffffffff1663c87b56dd84602001516040518263ffffffff1660e01b8152600401610e7691906124d4565b60006040518083038186803b158015610e8e57600080fd5b505afa158015610ea2573d6000803e3d6000fd5b505050506040513d6000823e3d601f19601f82011682018060405250810190610ecb9190612968565b815250838381518110610ee157610ee06123e4565b5b6020026020010181905250508080610ef89061247c565b915050610d46565b5080915050919050565b60008060009054906101000a900473ffffffffffffffffffffffffffffffffffffffff16905090565b60606000610f418484610259565b90506000600567ffffffffffffffff811115610f6057610f5f6123b5565b5b604051908082528060200260200182016040528015610f9957816020015b610f86611dfb565b815260200190600190039081610f7e5790505b509050604051806040016040528060008152602001600063ffffffff1681525081600081518110610fcd57610fcc6123e4565b5b6020026020010181905250604051806040016040528060008152602001600063ffffffff1681525081600181518110611009576110086123e4565b5b6020026020010181905250604051806040016040528060008152602001600063ffffffff1681525081600281518110611045576110446123e4565b5b6020026020010181905250604051806040016040528060008152602001600063ffffffff1681525081600381518110611081576110806123e4565b5b6020026020010181905250604051806040016040528060008152602001600063ffffffff16815250816004815181106110bd576110bc6123e4565b5b602002602001018190525060005b825181101561160557816000815181106110e8576110e76123e4565b5b60200260200101516020015163ffffffff1683828151811061110d5761110c6123e4565b5b60200260200101516020015163ffffffff1611156112505781600381518110611139576111386123e4565b5b602002602001015182600481518110611155576111546123e4565b5b602002602001018190525081600281518110611174576111736123e4565b5b6020026020010151826003815181106111905761118f6123e4565b5b6020026020010181905250816001815181106111af576111ae6123e4565b5b6020026020010151826002815181106111cb576111ca6123e4565b5b6020026020010181905250816000815181106111ea576111e96123e4565b5b602002602001015182600181518110611206576112056123e4565b5b6020026020010181905250828181518110611224576112236123e4565b5b6020026020010151826000815181106112405761123f6123e4565b5b60200260200101819052506115f2565b81600181518110611264576112636123e4565b5b60200260200101516020015163ffffffff16838281518110611289576112886123e4565b5b60200260200101516020015163ffffffff16111561139157816003815181106112b5576112b46123e4565b5b6020026020010151826004815181106112d1576112d06123e4565b5b6020026020010181905250816002815181106112f0576112ef6123e4565b5b60200260200101518260038151811061130c5761130b6123e4565b5b60200260200101819052508160018151811061132b5761132a6123e4565b5b602002602001015182600281518110611347576113466123e4565b5b6020026020010181905250828181518110611365576113646123e4565b5b602002602001015182600181518110611381576113806123e4565b5b60200260200101819052506115f1565b816002815181106113a5576113a46123e4565b5b60200260200101516020015163ffffffff168382815181106113ca576113c96123e4565b5b60200260200101516020015163ffffffff16111561149757816003815181106113f6576113f56123e4565b5b602002602001015182600481518110611412576114116123e4565b5b602002602001018190525081600281518110611431576114306123e4565b5b60200260200101518260038151811061144d5761144c6123e4565b5b602002602001018190525082818151811061146b5761146a6123e4565b5b602002602001015182600281518110611487576114866123e4565b5b60200260200101819052506115f0565b816003815181106114ab576114aa6123e4565b5b60200260200101516020015163ffffffff168382815181106114d0576114cf6123e4565b5b60200260200101516020015163ffffffff16111561156257816003815181106114fc576114fb6123e4565b5b602002602001015182600481518110611518576115176123e4565b5b6020026020010181905250828181518110611536576115356123e4565b5b602002602001015182600381518110611552576115516123e4565b5b60200260200101819052506115ef565b81600481518110611576576115756123e4565b5b60200260200101516020015163ffffffff1683828151811061159b5761159a6123e4565b5b60200260200101516020015163ffffffff1611156115ee578281815181106115c6576115c56123e4565b5b6020026020010151826004815181106115e2576115e16123e4565b5b60200260200101819052505b5b5b5b5b80806115fd9061247c565b9150506110cb565b50809250505092915050565b611619611709565b73ffffffffffffffffffffffffffffffffffffffff16611637610f0a565b73ffffffffffffffffffffffffffffffffffffffff161461168d576040517f08c379a000000000000000000000000000000000000000000000000000000000815260040161168490612353565b60405180910390fd5b600073ffffffffffffffffffffffffffffffffffffffff168173ffffffffffffffffffffffffffffffffffffffff1614156116fd576040517f08c379a00000000000000000000000000000000000000000000000000000000081526004016116f490612aa9565b60405180910390fd5b61170681611be9565b50565b600033905090565b6000804342336040516020016117279190612b11565b6040516020818303038152906040528051906020012060001c61174a9190612b5b565b45424160405160200161175d9190612bc7565b6040516020818303038152906040528051906020012060001c6117809190612b5b565b8789444261178e919061286f565b611798919061286f565b6117a2919061286f565b6117ac919061286f565b6117b6919061286f565b6117c0919061286f565b6117ca919061286f565b6040516020016117da9190612c03565b6040516020818303038152906040528051906020012060001c9050600183611802919061286f565b60018461180f919061286f565b8261181a9190612b5b565b6118249190612c1e565b8161182f91906128c5565b9150509392505050565b600080600160009054906101000a900473ffffffffffffffffffffffffffffffffffffffff1673ffffffffffffffffffffffffffffffffffffffff166321d80111856040518263ffffffff1660e01b815260040161189791906124d4565b60006040518083038186803b1580156118af57600080fd5b505afa1580156118c3573d6000803e3d6000fd5b505050506040513d6000823e3d601f19601f820116820180604052508101906118ec9190612826565b90506000600160009054906101000a900473ffffffffffffffffffffffffffffffffffffffff1673ffffffffffffffffffffffffffffffffffffffff166321d80111856040518263ffffffff1660e01b815260040161194b91906124d4565b60006040518083038186803b15801561196357600080fd5b505afa158015611977573d6000803e3d6000fd5b505050506040513d6000823e3d601f19601f820116820180604052508101906119a09190612826565b905060006119ad83611cad565b60ff16886119bb919061286f565b97506119c682611cad565b60ff16876119d4919061286f565b96506119df82611cad565b60ff166119eb84611cad565b60ff1614611a13576119fc82611cad565b60ff16611a0884611cad565b60ff16119050611a25565b6000611a2189896001611711565b1490505b6000611a3084611cbb565b90506000611a3d84611cbb565b90505b60008260010b138015611a56575060008160010b135b15611b8d578161ffff168a611a6b919061286f565b99508061ffff1689611a7d919061286f565b985060006001611a8f8c8c6064611711565b611a99919061286f565b9050808b611aa7919061286f565b9a506000611ab68c8c89611ce8565b90508061ffff168b611ac8919061286f565b9a506000611ad78d8d89611ce8565b90508061ffff168d611ae9919061286f565b9c508515611b3d5760008560010b1315611b0c578184611b099190612c85565b93505b60008460010b1315611b3857611b228888611d87565b8310611b37578085611b349190612c85565b94505b5b611b85565b60008460010b1315611b58578085611b559190612c85565b94505b60008560010b1315611b8457611b6e8789611d87565b8310611b83578184611b809190612c85565b93505b5b5b505050611a40565b60008260010b13611b9f576000611bda565b60008560e001518560e00151611bb59190612d08565b60000b13611bc4576001611bd9565b8460e001518460e00151611bd89190612d7d565b5b5b95505050505050949350505050565b60008060009054906101000a900473ffffffffffffffffffffffffffffffffffffffff169050816000806101000a81548173ffffffffffffffffffffffffffffffffffffffff021916908373ffffffffffffffffffffffffffffffffffffffff1602179055508173ffffffffffffffffffffffffffffffffffffffff168173ffffffffffffffffffffffffffffffffffffffff167f8be0079c531659141344cd1fd0a4f28419497f9722a3daafe3b4186f6b6457e060405160405180910390a35050565b60008160a001519050919050565b60006002611cc883611dd1565b611cd29190612db1565b6008611cde9190612dec565b60ff169050919050565b6000611cf382611ddf565b60ff1684611d01919061286f565b9350611d0c82611ded565b60ff1683611d1a919061286f565b925060006001611d2c86866064611711565b611d36919061286f565b905060006002611d4585611ded565b611d4f9190612db1565b90508060ff16821115611d63576001611d66565b60025b611d6f85611ddf565b611d799190612db1565b60ff16925050509392505050565b6000806005611d9584611cad565b611d9e86611cad565b611da89190612d7d565b611db29190612db1565b905060328160ff1610611dc457603290505b8060ff1691505092915050565b600081608001519050919050565b600081606001519050919050565b60008160c001519050919050565b604051806040016040528060008152602001600063ffffffff1681525090565b6040518060a001604052806000815260200160008152602001600060ff16815260200160008152602001606081525090565b6000604051905090565b600080fd5b600080fd5b600073ffffffffffffffffffffffffffffffffffffffff82169050919050565b6000611e8c82611e61565b9050919050565b611e9c81611e81565b8114611ea757600080fd5b50565b600081359050611eb981611e93565b92915050565b600060208284031215611ed557611ed4611e57565b5b6000611ee384828501611eaa565b91505092915050565b6000819050919050565b611eff81611eec565b8114611f0a57600080fd5b50565b600081359050611f1c81611ef6565b92915050565b60008060408385031215611f3957611f38611e57565b5b6000611f4785828601611f0d565b9250506020611f5885828601611f0d565b9150509250929050565b600081519050919050565b600082825260208201905092915050565b6000819050602082019050919050565b611f9781611eec565b82525050565b600063ffffffff82169050919050565b611fb681611f9d565b82525050565b604082016000820151611fd26000850182611f8e565b506020820151611fe56020850182611fad565b50505050565b6000611ff78383611fbc565b60408301905092915050565b6000602082019050919050565b600061201b82611f62565b6120258185611f6d565b935061203083611f7e565b8060005b838110156120615781516120488882611feb565b975061205383612003565b925050600181019050612034565b5085935050505092915050565b600060208201905081810360008301526120888184612010565b905092915050565b6000602082840312156120a6576120a5611e57565b5b60006120b484828501611f0d565b91505092915050565b600081519050919050565b600082825260208201905092915050565b6000819050602082019050919050565b600060ff82169050919050565b6120ff816120e9565b82525050565b600081519050919050565b600082825260208201905092915050565b60005b8381101561213f578082015181840152602081019050612124565b8381111561214e576000848401525b50505050565b6000601f19601f8301169050919050565b600061217082612105565b61217a8185612110565b935061218a818560208601612121565b61219381612154565b840191505092915050565b600060a0830160008301516121b66000860182611f8e565b5060208301516121c96020860182611f8e565b5060408301516121dc60408601826120f6565b5060608301516121ef6060860182611f8e565b50608083015184820360808601526122078282612165565b9150508091505092915050565b6000612220838361219e565b905092915050565b6000602082019050919050565b6000612240826120bd565b61224a81856120c8565b93508360208202850161225c856120d9565b8060005b8581101561229857848403895281516122798582612214565b945061228483612228565b925060208a01995050600181019050612260565b50829750879550505050505092915050565b600060208201905081810360008301526122c48184612235565b905092915050565b6122d581611e81565b82525050565b60006020820190506122f060008301846122cc565b92915050565b600082825260208201905092915050565b7f4f776e61626c653a2063616c6c6572206973206e6f7420746865206f776e6572600082015250565b600061233d6020836122f6565b915061234882612307565b602082019050919050565b6000602082019050818103600083015261236c81612330565b9050919050565b60008151905061238281611ef6565b92915050565b60006020828403121561239e5761239d611e57565b5b60006123ac84828501612373565b91505092915050565b7f4e487b7100000000000000000000000000000000000000000000000000000000600052604160045260246000fd5b7f4e487b7100000000000000000000000000000000000000000000000000000000600052603260045260246000fd5b7f4e487b7100000000000000000000000000000000000000000000000000000000600052601160045260246000fd5b600061244d82611f9d565b915061245883611f9d565b92508263ffffffff0382111561247157612470612413565b5b828201905092915050565b600061248782611eec565b91507fffffffffffffffffffffffffffffffffffffffffffffffffffffffffffffffff8214156124ba576124b9612413565b5b600182019050919050565b6124ce81611eec565b82525050565b60006020820190506124e960008301846124c5565b92915050565b6000815190506124fe81611e93565b92915050565b60006020828403121561251a57612519611e57565b5b6000612528848285016124ef565b91505092915050565b7f4e6f74206f776e6572206f662061747461636b65720000000000000000000000600082015250565b60006125676015836122f6565b915061257282612531565b602082019050919050565b600060208201905081810360008301526125968161255a565b9050919050565b600080fd5b6125ab82612154565b810181811067ffffffffffffffff821117156125ca576125c96123b5565b5b80604052505050565b60006125dd611e4d565b90506125e982826125a2565b919050565b600080fd5b600080fd5b600080fd5b600067ffffffffffffffff821115612618576126176123b5565b5b61262182612154565b9050602081019050919050565b600061264161263c846125fd565b6125d3565b90508281526020810184848401111561265d5761265c6125f8565b5b612668848285612121565b509392505050565b600082601f830112612685576126846125f3565b5b815161269584826020860161262e565b91505092915050565b600481106126ab57600080fd5b50565b6000815190506126bd8161269e565b92915050565b600481106126d057600080fd5b50565b6000815190506126e2816126c3565b92915050565b6126f1816120e9565b81146126fc57600080fd5b50565b60008151905061270e816126e8565b92915050565b6000610140828403121561272b5761272a61259d565b5b6127366101406125d3565b9050600082015167ffffffffffffffff811115612756576127556125ee565b5b61276284828501612670565b6000830152506020612776848285016126ae565b602083015250604061278a848285016126d3565b604083015250606061279e848285016126ff565b60608301525060806127b2848285016126ff565b60808301525060a06127c6848285016126ff565b60a08301525060c06127da848285016126ff565b60c08301525060e06127ee848285016126ff565b60e083015250610100612803848285016126ff565b6101008301525061012061281984828501612373565b6101208301525092915050565b60006020828403121561283c5761283b611e57565b5b600082015167ffffffffffffffff81111561285a57612859611e5c565b5b61286684828501612714565b91505092915050565b600061287a82611eec565b915061288583611eec565b9250827fffffffffffffffffffffffffffffffffffffffffffffffffffffffffffffffff038211156128ba576128b9612413565b5b828201905092915050565b60006128d082611eec565b91506128db83611eec565b9250828210156128ee576128ed612413565b5b828203905092915050565b600061ffff82169050919050565b612910816128f9565b82525050565b600060408201905061292b60008301856124c5565b6129386020830184612907565b9392505050565b600060408201905061295460008301856124c5565b61296160208301846122cc565b9392505050565b60006020828403121561297e5761297d611e57565b5b600082015167ffffffffffffffff81111561299c5761299b611e5c565b5b6129a884828501612670565b91505092915050565b6129ba816120e9565b82525050565b60006129cb82612105565b6129d581856122f6565b93506129e5818560208601612121565b6129ee81612154565b840191505092915050565b6000606082019050612a0e60008301866129b1565b612a1b60208301856124c5565b8181036040830152612a2d81846129c0565b9050949350505050565b7f4f776e61626c653a206e6577206f776e657220697320746865207a65726f206160008201527f6464726573730000000000000000000000000000000000000000000000000000602082015250565b6000612a936026836122f6565b9150612a9e82612a37565b604082019050919050565b60006020820190508181036000830152612ac281612a86565b9050919050565b60008160601b9050919050565b6000612ae182612ac9565b9050919050565b6000612af382612ad6565b9050919050565b612b0b612b0682611e81565b612ae8565b82525050565b6000612b1d8284612afa565b60148201915081905092915050565b7f4e487b7100000000000000000000000000000000000000000000000000000000600052601260045260246000fd5b6000612b6682611eec565b9150612b7183611eec565b925082612b8157612b80612b2c565b5b828204905092915050565b6000612b9782611e61565b9050919050565b6000612ba982612ad6565b9050919050565b612bc1612bbc82612b8c565b612b9e565b82525050565b6000612bd38284612bb0565b60148201915081905092915050565b6000819050919050565b612bfd612bf882611eec565b612be2565b82525050565b6000612c0f8284612bec565b60208201915081905092915050565b6000612c2982611eec565b9150612c3483611eec565b9250817fffffffffffffffffffffffffffffffffffffffffffffffffffffffffffffffff0483118215151615612c6d57612c6c612413565b5b828202905092915050565b60008160010b9050919050565b6000612c9082612c78565b9150612c9b83612c78565b9250827fffffffffffffffffffffffffffffffffffffffffffffffffffffffffffff800001821260008412151615612cd657612cd5612413565b5b82617fff018213600084121615612cf057612cef612413565b5b828203905092915050565b60008160000b9050919050565b6000612d1382612cfb565b9150612d1e83612cfb565b9250827fffffffffffffffffffffffffffffffffffffffffffffffffffffffffffffff8001821260008412151615612d5957612d58612413565b5b82607f018213600084121615612d7257612d71612413565b5b828203905092915050565b6000612d88826120e9565b9150612d93836120e9565b925082821015612da657612da5612413565b5b828203905092915050565b6000612dbc826120e9565b9150612dc7836120e9565b92508160ff0483118215151615612de157612de0612413565b5b828202905092915050565b6000612df7826120e9565b9150612e02836120e9565b92508260ff03821115612e1857612e17612413565b5b82820190509291505056fea264697066735822122075b6595cd09edf876e295076fa7dae047e5c83531bc11a7c9f95e6ebcba604bf64736f6c63430008090033",
  "immutableReferences": {},
  "source": "// SPDX-License-Identifier: MIT\npragma solidity 0.8.9;\n\nimport \"../node_modules/@openzeppelin/contracts/access/Ownable.sol\";\nimport \"./GameToken.sol\";\nimport \"./interfaces/IConsumable.sol\";\n\ncontract BattleSystem is Ownable {\n    event BattleEnd(\n        address indexed owner,\n        uint256 indexed aHeroId,\n        uint256 indexed dHeroId,\n        uint8 points,\n        uint256 date,\n        string tokenURI\n    );\n\n    address private _gameTokenAddress;\n    address private _consumableAddress;\n\n    struct Battle {\n        uint256 aHeroId;\n        uint256 dHeroId;\n        uint8 points;\n        uint256 date;\n    }\n\n    struct BattleDTO {\n        uint256 aHeroId;\n        uint256 dHeroId;\n        uint8 points;\n        uint256 date;\n        string tokenURI;\n    }\n\n    struct Rank {\n        uint256 heroId;\n        uint32 points;\n    }\n\n    mapping(uint256 => Battle[]) private _battles;\n\n    constructor(address gameTokenAddress) {\n        _gameTokenAddress = gameTokenAddress;\n    }\n\n    function setConsumableAddress(address _newConsumableAddress)\n        external\n        onlyOwner\n    {\n        _consumableAddress = _newConsumableAddress;\n    }\n\n    function battle(uint256 _aHeroId) external {\n        require(\n            msg.sender == GameToken(_gameTokenAddress).ownerOf(_aHeroId),\n            \"Not owner of attacker\"\n        );\n\n        GameToken.Hero memory aHero = GameToken(_gameTokenAddress).getHero(\n            _aHeroId\n        );\n\n        uint256 seed1 = GameToken(_gameTokenAddress).getNextHeroId() +\n            aHero.currXP +\n            _aHeroId;\n        uint256 seed2 = seed1;\n\n        uint256 _bHeroId = rand(\n            seed1,\n            seed2,\n            GameToken(_gameTokenAddress).getNextHeroId() - 1\n        );\n\n        seed2 += _bHeroId;\n\n        uint8 points = 0;\n        if (_aHeroId != _bHeroId) {\n            //hero auto lose versus himself\n            points = combat(seed1, seed2, _aHeroId, _bHeroId);\n        }\n\n        _battles[_aHeroId].push(\n            Battle(_aHeroId, _bHeroId, points, block.timestamp)\n        );\n\n        Battle memory b = _battles[_aHeroId][_battles[_aHeroId].length - 1];\n\n        GameToken(_gameTokenAddress).levelUp(_aHeroId, uint16(1));\n\n        seed1 += points;\n        seed2 += (_aHeroId + _bHeroId);\n\n        if (_consumableAddress != address(0) && b.points > 0) {\n            IConsumable(_consumableAddress).mint(_aHeroId, msg.sender);\n        }\n\n        emit BattleEnd(\n            msg.sender,\n            b.aHeroId,\n            b.dHeroId,\n            b.points,\n            b.date,\n            GameToken(_gameTokenAddress).tokenURI(b.dHeroId)\n        );\n    }\n\n    function combat(\n        uint256 seed1,\n        uint256 seed2,\n        uint256 _aHeroId,\n        uint256 _bHeroId\n    ) internal view returns (uint8) {\n        GameToken.Hero memory aHero = GameToken(_gameTokenAddress).getHero(\n            _aHeroId\n        );\n\n        GameToken.Hero memory bHero = GameToken(_gameTokenAddress).getHero(\n            _bHeroId\n        );\n\n        bool aHighDex;\n\n        seed1 += getDex(aHero);\n        seed2 += getDex(bHero);\n\n        if (getDex(aHero) != getDex(bHero)) {\n            aHighDex = getDex(aHero) > getDex(bHero);\n        } else {\n            aHighDex = (rand(seed1, seed2, 1) == 0);\n        }\n\n        int16 aHP = getHP(aHero);\n        int16 bHP = getHP(bHero);\n\n        while (aHP > 0 && bHP > 0) {\n            seed1 += uint16(aHP);\n            seed2 += uint16(bHP);\n            uint256 dodgeRandom = rand(seed1, seed2, 100) + 1;\n\n            seed1 += dodgeRandom;\n            int16 aDmg = getDmg(seed1, seed2, aHero);\n\n            seed2 += uint16(aDmg);\n            int16 bDmg = getDmg(seed1, seed2, bHero);\n\n            seed1 += uint16(bDmg);\n            if (aHighDex) {\n                if (aHP > 0) {\n                    bHP -= aDmg;\n                }\n                if (bHP > 0) {\n                    if (dodgeRandom >= getDodgeChance(aHero, bHero)) {\n                        aHP -= bDmg;\n                    }\n                }\n            } else {\n                if (bHP > 0) {\n                    aHP -= bDmg;\n                }\n                if (aHP > 0) {\n                    if (dodgeRandom >= getDodgeChance(bHero, aHero)) {\n                        bHP -= aDmg;\n                    }\n                }\n            }\n        }\n\n        return\n            aHP > 0\n                ? (\n                    int8(bHero.level) - int8(aHero.level) > 0\n                        ? bHero.level - aHero.level\n                        : 1\n                )\n                : 0;\n    }\n\n    function getDex(GameToken.Hero memory _hero) internal pure returns (uint8) {\n        return _hero.dex;\n    }\n\n    function getStr(GameToken.Hero memory _hero) internal pure returns (uint8) {\n        return _hero.str;\n    }\n\n    function getCon(GameToken.Hero memory _hero) internal pure returns (uint8) {\n        return _hero.con;\n    }\n\n    function getWis(GameToken.Hero memory _hero) internal pure returns (uint8) {\n        return _hero.wis;\n    }\n\n    function getHP(GameToken.Hero memory _hero) internal pure returns (int16) {\n        return int16(uint16(8 + (getCon(_hero) * 2)));\n    }\n\n    function getDodgeChance(\n        GameToken.Hero memory _aHero,\n        GameToken.Hero memory _bHero\n    ) internal pure returns (uint256) {\n        uint8 dodgeChance = (getDex(_aHero) - getDex(_bHero)) * 5;\n        if (dodgeChance >= 50) {\n            dodgeChance = 50;\n        }\n\n        return uint256(dodgeChance);\n    }\n\n    function getDmg(\n        uint256 seed1,\n        uint256 seed2,\n        GameToken.Hero memory _hero\n    ) internal view returns (int16) {\n        seed1 += getStr(_hero);\n        seed2 += getWis(_hero);\n\n        uint256 critRandom = rand(seed1, seed2, 100) + 1;\n\n        uint8 critChance = getWis(_hero) * 2;\n\n        return\n            int16(\n                uint16(\n                    getStr(_hero) * (critRandom <= uint256(critChance) ? 2 : 1)\n                )\n            );\n    }\n\n    function getTop5(uint256 initialDate, uint256 endDate)\n        external\n        view\n        returns (Rank[] memory)\n    {\n        Rank[] memory rank = getRank(initialDate, endDate);\n\n        Rank[] memory ret = new Rank[](5);\n\n        ret[0] = Rank(0, 0);\n        ret[1] = Rank(0, 0);\n        ret[2] = Rank(0, 0);\n        ret[3] = Rank(0, 0);\n        ret[4] = Rank(0, 0);\n        for (uint256 index = 0; index < rank.length; index++) {\n            if (rank[index].points > ret[0].points) {\n                ret[4] = ret[3];\n                ret[3] = ret[2];\n                ret[2] = ret[1];\n                ret[1] = ret[0];\n                ret[0] = rank[index];\n            } else if (rank[index].points > ret[1].points) {\n                ret[4] = ret[3];\n                ret[3] = ret[2];\n                ret[2] = ret[1];\n                ret[1] = rank[index];\n            } else if (rank[index].points > ret[2].points) {\n                ret[4] = ret[3];\n                ret[3] = ret[2];\n                ret[2] = rank[index];\n            } else if (rank[index].points > ret[3].points) {\n                ret[4] = ret[3];\n                ret[3] = rank[index];\n            } else if (rank[index].points > ret[4].points) {\n                ret[4] = rank[index];\n            }\n        }\n\n        return ret;\n    }\n\n    function getRank(uint256 initialDate, uint256 endDate)\n        public\n        view\n        returns (Rank[] memory)\n    {\n        uint256 heroSize = GameToken(_gameTokenAddress).getNextHeroId();\n\n        Rank[] memory ret = new Rank[](heroSize);\n\n        for (uint256 heroId = 0; heroId < heroSize; heroId++) {\n            uint32 points = 0;\n\n            for (uint256 j = 0; j < _battles[heroId].length; j++) {\n                if (\n                    initialDate <= _battles[heroId][j].date &&\n                    _battles[heroId][j].date <= endDate\n                ) {\n                    points += _battles[heroId][j].points;\n                }\n            }\n\n            ret[heroId] = Rank(heroId, points);\n        }\n\n        return ret;\n    }\n\n    function getBattles(uint256 _heroId)\n        external\n        view\n        returns (BattleDTO[] memory)\n    {\n        BattleDTO[] memory ret = new BattleDTO[](_battles[_heroId].length);\n\n        for (uint256 index = 0; index < _battles[_heroId].length; index++) {\n            Battle memory b = _battles[_heroId][index];\n            ret[index] = BattleDTO(\n                b.aHeroId,\n                b.dHeroId,\n                b.points,\n                b.date,\n                GameToken(_gameTokenAddress).tokenURI(b.dHeroId)\n            );\n        }\n\n        return ret;\n    }\n\n    function rand(\n        uint256 seed1,\n        uint256 seed2,\n        uint256 limit\n    ) private view returns (uint256) {\n        uint256 seed = uint256(\n            keccak256(\n                abi.encodePacked(\n                    block.timestamp +\n                        block.difficulty +\n                        seed1 +\n                        seed2 +\n                        ((\n                            uint256(keccak256(abi.encodePacked(block.coinbase)))\n                        ) / (block.timestamp)) +\n                        block.gaslimit +\n                        ((uint256(keccak256(abi.encodePacked(msg.sender)))) /\n                            (block.timestamp)) +\n                        block.number\n                )\n            )\n        );\n\n        return (seed - ((seed / (limit + 1)) * (limit + 1)));\n    }\n}\n",
  "sourcePath": "/home/rfaita/game/nft-game/contract/contracts/BattleSystem.sol",
  "compiler": {
    "name": "solc",
    "version": "0.8.9+commit.e5eed63a.Emscripten.clang"
  },
  "schemaVersion": "3.4.4",
  "updatedAt": "2021-12-29T18:27:38.517Z",
  "networkType": "ethereum",
  "devdoc": {
    "kind": "dev",
    "methods": {
      "owner()": {
        "details": "Returns the address of the current owner."
      },
      "renounceOwnership()": {
        "details": "Leaves the contract without owner. It will not be possible to call `onlyOwner` functions anymore. Can only be called by the current owner. NOTE: Renouncing ownership will leave the contract without an owner, thereby removing any functionality that is only available to the owner."
      },
      "transferOwnership(address)": {
        "details": "Transfers ownership of the contract to a new account (`newOwner`). Can only be called by the current owner."
      }
    },
    "version": 1
  },
  "userdoc": {
    "kind": "user",
    "methods": {},
    "version": 1
  }
}