{
  "contractName": "BattleSystem",
  "abi": [
    {
      "inputs": [
        {
          "internalType": "address",
          "name": "gameTokenAddress",
          "type": "address"
        }
      ],
      "stateMutability": "nonpayable",
      "type": "constructor"
    },
    {
      "anonymous": false,
      "inputs": [
        {
          "indexed": true,
          "internalType": "address",
          "name": "owner",
          "type": "address"
        },
        {
          "indexed": true,
          "internalType": "uint256",
          "name": "aHeroId",
          "type": "uint256"
        },
        {
          "indexed": true,
          "internalType": "uint256",
          "name": "dHeroId",
          "type": "uint256"
        },
        {
          "indexed": false,
          "internalType": "uint8",
          "name": "points",
          "type": "uint8"
        },
        {
          "indexed": false,
          "internalType": "uint256",
          "name": "date",
          "type": "uint256"
        },
        {
          "indexed": false,
          "internalType": "string",
          "name": "tokenURI",
          "type": "string"
        }
      ],
      "name": "BattleEnd",
      "type": "event"
    },
    {
      "anonymous": false,
      "inputs": [
        {
          "indexed": true,
          "internalType": "address",
          "name": "previousOwner",
          "type": "address"
        },
        {
          "indexed": true,
          "internalType": "address",
          "name": "newOwner",
          "type": "address"
        }
      ],
      "name": "OwnershipTransferred",
      "type": "event"
    },
    {
      "inputs": [],
      "name": "owner",
      "outputs": [
        {
          "internalType": "address",
          "name": "",
          "type": "address"
        }
      ],
      "stateMutability": "view",
      "type": "function",
      "constant": true
    },
    {
      "inputs": [],
      "name": "renounceOwnership",
      "outputs": [],
      "stateMutability": "nonpayable",
      "type": "function"
    },
    {
      "inputs": [
        {
          "internalType": "address",
          "name": "newOwner",
          "type": "address"
        }
      ],
      "name": "transferOwnership",
      "outputs": [],
      "stateMutability": "nonpayable",
      "type": "function"
    },
    {
      "inputs": [
        {
          "internalType": "address",
          "name": "_newConsumableAddress",
          "type": "address"
        }
      ],
      "name": "setConsumableAddress",
      "outputs": [],
      "stateMutability": "nonpayable",
      "type": "function"
    },
    {
      "inputs": [
        {
          "internalType": "uint256",
          "name": "_aHeroId",
          "type": "uint256"
        }
      ],
      "name": "battle",
      "outputs": [],
      "stateMutability": "nonpayable",
      "type": "function"
    },
    {
      "inputs": [
        {
          "internalType": "uint256",
          "name": "initialDate",
          "type": "uint256"
        },
        {
          "internalType": "uint256",
          "name": "endDate",
          "type": "uint256"
        }
      ],
      "name": "getRank",
      "outputs": [
        {
          "components": [
            {
              "internalType": "uint256",
              "name": "heroId",
              "type": "uint256"
            },
            {
              "internalType": "uint32",
              "name": "points",
              "type": "uint32"
            }
          ],
          "internalType": "struct BattleSystem.Rank[]",
          "name": "",
          "type": "tuple[]"
        }
      ],
      "stateMutability": "view",
      "type": "function",
      "constant": true
    },
    {
      "inputs": [
        {
          "internalType": "uint256",
          "name": "_heroId",
          "type": "uint256"
        }
      ],
      "name": "getBattles",
      "outputs": [
        {
          "components": [
            {
              "internalType": "uint256",
              "name": "aHeroId",
              "type": "uint256"
            },
            {
              "internalType": "uint256",
              "name": "dHeroId",
              "type": "uint256"
            },
            {
              "internalType": "uint8",
              "name": "points",
              "type": "uint8"
            },
            {
              "internalType": "uint256",
              "name": "date",
              "type": "uint256"
            },
            {
              "internalType": "string",
              "name": "tokenURI",
              "type": "string"
            }
          ],
          "internalType": "struct BattleSystem.BattleDTO[]",
          "name": "",
          "type": "tuple[]"
        }
      ],
      "stateMutability": "view",
      "type": "function",
      "constant": true
    }
  ],
  "bytecode": "0x60806040523480156200001157600080fd5b5060405162002957380380620029578339818101604052810190620000379190620001d5565b620000576200004b6200009f60201b60201c565b620000a760201b60201c565b80600160006101000a81548173ffffffffffffffffffffffffffffffffffffffff021916908373ffffffffffffffffffffffffffffffffffffffff1602179055505062000207565b600033905090565b60008060009054906101000a900473ffffffffffffffffffffffffffffffffffffffff169050816000806101000a81548173ffffffffffffffffffffffffffffffffffffffff021916908373ffffffffffffffffffffffffffffffffffffffff1602179055508173ffffffffffffffffffffffffffffffffffffffff168173ffffffffffffffffffffffffffffffffffffffff167f8be0079c531659141344cd1fd0a4f28419497f9722a3daafe3b4186f6b6457e060405160405180910390a35050565b600080fd5b600073ffffffffffffffffffffffffffffffffffffffff82169050919050565b60006200019d8262000170565b9050919050565b620001af8162000190565b8114620001bb57600080fd5b50565b600081519050620001cf81620001a4565b92915050565b600060208284031215620001ee57620001ed6200016b565b5b6000620001fe84828501620001be565b91505092915050565b61274080620002176000396000f3fe608060405234801561001057600080fd5b506004361061007d5760003560e01c8063715018a61161005b578063715018a6146100ea578063867e5ef5146100f45780638da5cb5b14610124578063f2fde38b146101425761007d565b806347e7d47d1461008257806357e10ace1461009e5780635d6de796146100ce575b600080fd5b61009c600480360381019061009791906117a6565b61015e565b005b6100b860048036038101906100b39190611809565b61021e565b6040516100c59190611955565b60405180910390f35b6100e860048036038101906100e39190611977565b61048c565b005b6100f2610c10565b005b61010e60048036038101906101099190611977565b610c98565b60405161011b9190611b91565b60405180910390f35b61012c610ecf565b6040516101399190611bc2565b60405180910390f35b61015c600480360381019061015791906117a6565b610ef8565b005b610166610ff0565b73ffffffffffffffffffffffffffffffffffffffff16610184610ecf565b73ffffffffffffffffffffffffffffffffffffffff16146101da576040517f08c379a00000000000000000000000000000000000000000000000000000000081526004016101d190611c3a565b60405180910390fd5b80600260006101000a81548173ffffffffffffffffffffffffffffffffffffffff021916908373ffffffffffffffffffffffffffffffffffffffff16021790555050565b60606000600160009054906101000a900473ffffffffffffffffffffffffffffffffffffffff1673ffffffffffffffffffffffffffffffffffffffff16638302adfb6040518163ffffffff1660e01b815260040160206040518083038186803b15801561028a57600080fd5b505afa15801561029e573d6000803e3d6000fd5b505050506040513d601f19601f820116820180604052508101906102c29190611c6f565b905060008167ffffffffffffffff8111156102e0576102df611c9c565b5b60405190808252806020026020018201604052801561031957816020015b6103066116e2565b8152602001906001900390816102fe5790505b50905060005b82811015610480576000805b60036000848152602001908152602001600020805490508110156104325760036000848152602001908152602001600020818154811061036e5761036d611ccb565b5b90600052602060002090600402016003015488111580156103c55750866003600085815260200190815260200160002082815481106103b0576103af611ccb565b5b90600052602060002090600402016003015411155b1561041f576003600084815260200190815260200160002081815481106103ef576103ee611ccb565b5b906000526020600020906004020160020160009054906101000a900460ff1660ff168261041c9190611d29565b91505b808061042a90611d63565b91505061032b565b5060405180604001604052808381526020018263ffffffff1681525083838151811061046157610460611ccb565b5b602002602001018190525050808061047890611d63565b91505061031f565b50809250505092915050565b600160009054906101000a900473ffffffffffffffffffffffffffffffffffffffff1673ffffffffffffffffffffffffffffffffffffffff16636352211e826040518263ffffffff1660e01b81526004016104e79190611dbb565b60206040518083038186803b1580156104ff57600080fd5b505afa158015610513573d6000803e3d6000fd5b505050506040513d601f19601f820116820180604052508101906105379190611deb565b73ffffffffffffffffffffffffffffffffffffffff163373ffffffffffffffffffffffffffffffffffffffff16146105a4576040517f08c379a000000000000000000000000000000000000000000000000000000000815260040161059b90611e64565b60405180910390fd5b6000600160009054906101000a900473ffffffffffffffffffffffffffffffffffffffff1673ffffffffffffffffffffffffffffffffffffffff166321d80111836040518263ffffffff1660e01b81526004016106019190611dbb565b60006040518083038186803b15801561061957600080fd5b505afa15801561062d573d6000803e3d6000fd5b505050506040513d6000823e3d601f19601f82011682018060405250810190610656919061210d565b9050600082826101200151600160009054906101000a900473ffffffffffffffffffffffffffffffffffffffff1673ffffffffffffffffffffffffffffffffffffffff16638302adfb6040518163ffffffff1660e01b815260040160206040518083038186803b1580156106c957600080fd5b505afa1580156106dd573d6000803e3d6000fd5b505050506040513d601f19601f820116820180604052508101906107019190611c6f565b61070b9190612156565b6107159190612156565b9050600081905060006107d3838360018060009054906101000a900473ffffffffffffffffffffffffffffffffffffffff1673ffffffffffffffffffffffffffffffffffffffff16638302adfb6040518163ffffffff1660e01b815260040160206040518083038186803b15801561078c57600080fd5b505afa1580156107a0573d6000803e3d6000fd5b505050506040513d601f19601f820116820180604052508101906107c49190611c6f565b6107ce91906121ac565b610ff8565b905080826107e19190612156565b915060008186146107fb576107f884848885611120565b90505b6003600087815260200190815260200160002060405180608001604052808881526020018481526020018360ff168152602001428152509080600181540180825580915050600190039060005260206000209060040201600090919091909150600082015181600001556020820151816001015560408201518160020160006101000a81548160ff021916908360ff1602179055506060820151816003015550506000600360008881526020019081526020016000206001600360008a8152602001908152602001600020805490506108d491906121ac565b815481106108e5576108e4611ccb565b5b906000526020600020906004020160405180608001604052908160008201548152602001600182015481526020016002820160009054906101000a900460ff1660ff1660ff1681526020016003820154815250509050600160009054906101000a900473ffffffffffffffffffffffffffffffffffffffff1673ffffffffffffffffffffffffffffffffffffffff1663484a20328860016040518363ffffffff1660e01b81526004016109999291906121fd565b600060405180830381600087803b1580156109b357600080fd5b505af11580156109c7573d6000803e3d6000fd5b505050508160ff16856109da9190612156565b945082876109e89190612156565b846109f39190612156565b9350600073ffffffffffffffffffffffffffffffffffffffff16600260009054906101000a900473ffffffffffffffffffffffffffffffffffffffff1673ffffffffffffffffffffffffffffffffffffffff1614158015610a5b57506000816040015160ff16115b15610af057600260009054906101000a900473ffffffffffffffffffffffffffffffffffffffff1673ffffffffffffffffffffffffffffffffffffffff166394bf804d88336040518363ffffffff1660e01b8152600401610abd929190612226565b600060405180830381600087803b158015610ad757600080fd5b505af1158015610aeb573d6000803e3d6000fd5b505050505b806020015181600001513373ffffffffffffffffffffffffffffffffffffffff167fe72551baf647f778ed07037580644e505b4d7cde9e7917f0a89c30f13fb8aca284604001518560600151600160009054906101000a900473ffffffffffffffffffffffffffffffffffffffff1673ffffffffffffffffffffffffffffffffffffffff1663c87b56dd88602001516040518263ffffffff1660e01b8152600401610b9b9190611dbb565b60006040518083038186803b158015610bb357600080fd5b505afa158015610bc7573d6000803e3d6000fd5b505050506040513d6000823e3d601f19601f82011682018060405250810190610bf0919061224f565b604051610bff939291906122e0565b60405180910390a450505050505050565b610c18610ff0565b73ffffffffffffffffffffffffffffffffffffffff16610c36610ecf565b73ffffffffffffffffffffffffffffffffffffffff1614610c8c576040517f08c379a0000000000000000000000000000000000000000000000000000000008152600401610c8390611c3a565b60405180910390fd5b610c9660006114d0565b565b60606000600360008481526020019081526020016000208054905067ffffffffffffffff811115610ccc57610ccb611c9c565b5b604051908082528060200260200182016040528015610d0557816020015b610cf2611702565b815260200190600190039081610cea5790505b50905060005b6003600085815260200190815260200160002080549050811015610ec5576000600360008681526020019081526020016000208281548110610d5057610d4f611ccb565b5b906000526020600020906004020160405180608001604052908160008201548152602001600182015481526020016002820160009054906101000a900460ff1660ff1660ff16815260200160038201548152505090506040518060a001604052808260000151815260200182602001518152602001826040015160ff16815260200182606001518152602001600160009054906101000a900473ffffffffffffffffffffffffffffffffffffffff1673ffffffffffffffffffffffffffffffffffffffff1663c87b56dd84602001516040518263ffffffff1660e01b8152600401610e3b9190611dbb565b60006040518083038186803b158015610e5357600080fd5b505afa158015610e67573d6000803e3d6000fd5b505050506040513d6000823e3d601f19601f82011682018060405250810190610e90919061224f565b815250838381518110610ea657610ea5611ccb565b5b6020026020010181905250508080610ebd90611d63565b915050610d0b565b5080915050919050565b60008060009054906101000a900473ffffffffffffffffffffffffffffffffffffffff16905090565b610f00610ff0565b73ffffffffffffffffffffffffffffffffffffffff16610f1e610ecf565b73ffffffffffffffffffffffffffffffffffffffff1614610f74576040517f08c379a0000000000000000000000000000000000000000000000000000000008152600401610f6b90611c3a565b60405180910390fd5b600073ffffffffffffffffffffffffffffffffffffffff168173ffffffffffffffffffffffffffffffffffffffff161415610fe4576040517f08c379a0000000000000000000000000000000000000000000000000000000008152600401610fdb90612390565b60405180910390fd5b610fed816114d0565b50565b600033905090565b60008043423360405160200161100e91906123f8565b6040516020818303038152906040528051906020012060001c6110319190612442565b45424160405160200161104491906124ae565b6040516020818303038152906040528051906020012060001c6110679190612442565b878944426110759190612156565b61107f9190612156565b6110899190612156565b6110939190612156565b61109d9190612156565b6110a79190612156565b6110b19190612156565b6040516020016110c191906124ea565b6040516020818303038152906040528051906020012060001c90506001836110e99190612156565b6001846110f69190612156565b826111019190612442565b61110b9190612505565b8161111691906121ac565b9150509392505050565b600080600160009054906101000a900473ffffffffffffffffffffffffffffffffffffffff1673ffffffffffffffffffffffffffffffffffffffff166321d80111856040518263ffffffff1660e01b815260040161117e9190611dbb565b60006040518083038186803b15801561119657600080fd5b505afa1580156111aa573d6000803e3d6000fd5b505050506040513d6000823e3d601f19601f820116820180604052508101906111d3919061210d565b90506000600160009054906101000a900473ffffffffffffffffffffffffffffffffffffffff1673ffffffffffffffffffffffffffffffffffffffff166321d80111856040518263ffffffff1660e01b81526004016112329190611dbb565b60006040518083038186803b15801561124a57600080fd5b505afa15801561125e573d6000803e3d6000fd5b505050506040513d6000823e3d601f19601f82011682018060405250810190611287919061210d565b9050600061129483611594565b60ff16886112a29190612156565b97506112ad82611594565b60ff16876112bb9190612156565b96506112c682611594565b60ff166112d284611594565b60ff16146112fa576112e382611594565b60ff166112ef84611594565b60ff1611905061130c565b600061130889896001610ff8565b1490505b6000611317846115a2565b90506000611324846115a2565b90505b60008260010b13801561133d575060008160010b135b15611474578161ffff168a6113529190612156565b99508061ffff16896113649190612156565b9850600060016113768c8c6064610ff8565b6113809190612156565b9050808b61138e9190612156565b9a50600061139d8c8c896115cf565b90508061ffff168b6113af9190612156565b9a5060006113be8d8d896115cf565b90508061ffff168d6113d09190612156565b9c5085156114245760008560010b13156113f35781846113f0919061256c565b93505b60008460010b131561141f57611409888861166e565b831061141e57808561141b919061256c565b94505b5b61146c565b60008460010b131561143f57808561143c919061256c565b94505b60008560010b131561146b57611455878961166e565b831061146a578184611467919061256c565b93505b5b5b505050611327565b60008260010b136114865760006114c1565b60008560e001518560e0015161149c91906125ef565b60000b136114ab5760016114c0565b8460e001518460e001516114bf9190612664565b5b5b95505050505050949350505050565b60008060009054906101000a900473ffffffffffffffffffffffffffffffffffffffff169050816000806101000a81548173ffffffffffffffffffffffffffffffffffffffff021916908373ffffffffffffffffffffffffffffffffffffffff1602179055508173ffffffffffffffffffffffffffffffffffffffff168173ffffffffffffffffffffffffffffffffffffffff167f8be0079c531659141344cd1fd0a4f28419497f9722a3daafe3b4186f6b6457e060405160405180910390a35050565b60008160a001519050919050565b600060026115af836116b8565b6115b99190612698565b60086115c591906126d3565b60ff169050919050565b60006115da826116c6565b60ff16846115e89190612156565b93506115f3826116d4565b60ff16836116019190612156565b92506000600161161386866064610ff8565b61161d9190612156565b90506000600261162c856116d4565b6116369190612698565b90508060ff1682111561164a57600161164d565b60025b611656856116c6565b6116609190612698565b60ff16925050509392505050565b600080600561167c84611594565b61168586611594565b61168f9190612664565b6116999190612698565b905060328160ff16106116ab57603290505b8060ff1691505092915050565b600081608001519050919050565b600081606001519050919050565b60008160c001519050919050565b604051806040016040528060008152602001600063ffffffff1681525090565b6040518060a001604052806000815260200160008152602001600060ff16815260200160008152602001606081525090565b6000604051905090565b600080fd5b600080fd5b600073ffffffffffffffffffffffffffffffffffffffff82169050919050565b600061177382611748565b9050919050565b61178381611768565b811461178e57600080fd5b50565b6000813590506117a08161177a565b92915050565b6000602082840312156117bc576117bb61173e565b5b60006117ca84828501611791565b91505092915050565b6000819050919050565b6117e6816117d3565b81146117f157600080fd5b50565b600081359050611803816117dd565b92915050565b600080604083850312156118205761181f61173e565b5b600061182e858286016117f4565b925050602061183f858286016117f4565b9150509250929050565b600081519050919050565b600082825260208201905092915050565b6000819050602082019050919050565b61187e816117d3565b82525050565b600063ffffffff82169050919050565b61189d81611884565b82525050565b6040820160008201516118b96000850182611875565b5060208201516118cc6020850182611894565b50505050565b60006118de83836118a3565b60408301905092915050565b6000602082019050919050565b600061190282611849565b61190c8185611854565b935061191783611865565b8060005b8381101561194857815161192f88826118d2565b975061193a836118ea565b92505060018101905061191b565b5085935050505092915050565b6000602082019050818103600083015261196f81846118f7565b905092915050565b60006020828403121561198d5761198c61173e565b5b600061199b848285016117f4565b91505092915050565b600081519050919050565b600082825260208201905092915050565b6000819050602082019050919050565b600060ff82169050919050565b6119e6816119d0565b82525050565b600081519050919050565b600082825260208201905092915050565b60005b83811015611a26578082015181840152602081019050611a0b565b83811115611a35576000848401525b50505050565b6000601f19601f8301169050919050565b6000611a57826119ec565b611a6181856119f7565b9350611a71818560208601611a08565b611a7a81611a3b565b840191505092915050565b600060a083016000830151611a9d6000860182611875565b506020830151611ab06020860182611875565b506040830151611ac360408601826119dd565b506060830151611ad66060860182611875565b5060808301518482036080860152611aee8282611a4c565b9150508091505092915050565b6000611b078383611a85565b905092915050565b6000602082019050919050565b6000611b27826119a4565b611b3181856119af565b935083602082028501611b43856119c0565b8060005b85811015611b7f5784840389528151611b608582611afb565b9450611b6b83611b0f565b925060208a01995050600181019050611b47565b50829750879550505050505092915050565b60006020820190508181036000830152611bab8184611b1c565b905092915050565b611bbc81611768565b82525050565b6000602082019050611bd76000830184611bb3565b92915050565b600082825260208201905092915050565b7f4f776e61626c653a2063616c6c6572206973206e6f7420746865206f776e6572600082015250565b6000611c24602083611bdd565b9150611c2f82611bee565b602082019050919050565b60006020820190508181036000830152611c5381611c17565b9050919050565b600081519050611c69816117dd565b92915050565b600060208284031215611c8557611c8461173e565b5b6000611c9384828501611c5a565b91505092915050565b7f4e487b7100000000000000000000000000000000000000000000000000000000600052604160045260246000fd5b7f4e487b7100000000000000000000000000000000000000000000000000000000600052603260045260246000fd5b7f4e487b7100000000000000000000000000000000000000000000000000000000600052601160045260246000fd5b6000611d3482611884565b9150611d3f83611884565b92508263ffffffff03821115611d5857611d57611cfa565b5b828201905092915050565b6000611d6e826117d3565b91507fffffffffffffffffffffffffffffffffffffffffffffffffffffffffffffffff821415611da157611da0611cfa565b5b600182019050919050565b611db5816117d3565b82525050565b6000602082019050611dd06000830184611dac565b92915050565b600081519050611de58161177a565b92915050565b600060208284031215611e0157611e0061173e565b5b6000611e0f84828501611dd6565b91505092915050565b7f4e6f74206f776e6572206f662061747461636b65720000000000000000000000600082015250565b6000611e4e601583611bdd565b9150611e5982611e18565b602082019050919050565b60006020820190508181036000830152611e7d81611e41565b9050919050565b600080fd5b611e9282611a3b565b810181811067ffffffffffffffff82111715611eb157611eb0611c9c565b5b80604052505050565b6000611ec4611734565b9050611ed08282611e89565b919050565b600080fd5b600080fd5b600080fd5b600067ffffffffffffffff821115611eff57611efe611c9c565b5b611f0882611a3b565b9050602081019050919050565b6000611f28611f2384611ee4565b611eba565b905082815260208101848484011115611f4457611f43611edf565b5b611f4f848285611a08565b509392505050565b600082601f830112611f6c57611f6b611eda565b5b8151611f7c848260208601611f15565b91505092915050565b60048110611f9257600080fd5b50565b600081519050611fa481611f85565b92915050565b60048110611fb757600080fd5b50565b600081519050611fc981611faa565b92915050565b611fd8816119d0565b8114611fe357600080fd5b50565b600081519050611ff581611fcf565b92915050565b6000610140828403121561201257612011611e84565b5b61201d610140611eba565b9050600082015167ffffffffffffffff81111561203d5761203c611ed5565b5b61204984828501611f57565b600083015250602061205d84828501611f95565b602083015250604061207184828501611fba565b604083015250606061208584828501611fe6565b606083015250608061209984828501611fe6565b60808301525060a06120ad84828501611fe6565b60a08301525060c06120c184828501611fe6565b60c08301525060e06120d584828501611fe6565b60e0830152506101006120ea84828501611fe6565b6101008301525061012061210084828501611c5a565b6101208301525092915050565b6000602082840312156121235761212261173e565b5b600082015167ffffffffffffffff81111561214157612140611743565b5b61214d84828501611ffb565b91505092915050565b6000612161826117d3565b915061216c836117d3565b9250827fffffffffffffffffffffffffffffffffffffffffffffffffffffffffffffffff038211156121a1576121a0611cfa565b5b828201905092915050565b60006121b7826117d3565b91506121c2836117d3565b9250828210156121d5576121d4611cfa565b5b828203905092915050565b600061ffff82169050919050565b6121f7816121e0565b82525050565b60006040820190506122126000830185611dac565b61221f60208301846121ee565b9392505050565b600060408201905061223b6000830185611dac565b6122486020830184611bb3565b9392505050565b6000602082840312156122655761226461173e565b5b600082015167ffffffffffffffff81111561228357612282611743565b5b61228f84828501611f57565b91505092915050565b6122a1816119d0565b82525050565b60006122b2826119ec565b6122bc8185611bdd565b93506122cc818560208601611a08565b6122d581611a3b565b840191505092915050565b60006060820190506122f56000830186612298565b6123026020830185611dac565b818103604083015261231481846122a7565b9050949350505050565b7f4f776e61626c653a206e6577206f776e657220697320746865207a65726f206160008201527f6464726573730000000000000000000000000000000000000000000000000000602082015250565b600061237a602683611bdd565b91506123858261231e565b604082019050919050565b600060208201905081810360008301526123a98161236d565b9050919050565b60008160601b9050919050565b60006123c8826123b0565b9050919050565b60006123da826123bd565b9050919050565b6123f26123ed82611768565b6123cf565b82525050565b600061240482846123e1565b60148201915081905092915050565b7f4e487b7100000000000000000000000000000000000000000000000000000000600052601260045260246000fd5b600061244d826117d3565b9150612458836117d3565b92508261246857612467612413565b5b828204905092915050565b600061247e82611748565b9050919050565b6000612490826123bd565b9050919050565b6124a86124a382612473565b612485565b82525050565b60006124ba8284612497565b60148201915081905092915050565b6000819050919050565b6124e46124df826117d3565b6124c9565b82525050565b60006124f682846124d3565b60208201915081905092915050565b6000612510826117d3565b915061251b836117d3565b9250817fffffffffffffffffffffffffffffffffffffffffffffffffffffffffffffffff048311821515161561255457612553611cfa565b5b828202905092915050565b60008160010b9050919050565b60006125778261255f565b91506125828361255f565b9250827fffffffffffffffffffffffffffffffffffffffffffffffffffffffffffff8000018212600084121516156125bd576125bc611cfa565b5b82617fff0182136000841216156125d7576125d6611cfa565b5b828203905092915050565b60008160000b9050919050565b60006125fa826125e2565b9150612605836125e2565b9250827fffffffffffffffffffffffffffffffffffffffffffffffffffffffffffffff80018212600084121516156126405761263f611cfa565b5b82607f01821360008412161561265957612658611cfa565b5b828203905092915050565b600061266f826119d0565b915061267a836119d0565b92508282101561268d5761268c611cfa565b5b828203905092915050565b60006126a3826119d0565b91506126ae836119d0565b92508160ff04831182151516156126c8576126c7611cfa565b5b828202905092915050565b60006126de826119d0565b91506126e9836119d0565b92508260ff038211156126ff576126fe611cfa565b5b82820190509291505056fea2646970667358221220fc0d444c2b5cf180983a70ca11fcac651f2029e08daee12dd69dd067498a40b564736f6c63430008090033",
  "immutableReferences": {},
  "source": "// SPDX-License-Identifier: MIT\npragma solidity 0.8.9;\n\nimport \"../node_modules/@openzeppelin/contracts/access/Ownable.sol\";\nimport \"./GameToken.sol\";\nimport \"./interfaces/IConsumable.sol\";\n\ncontract BattleSystem is Ownable {\n    event BattleEnd(\n        address indexed owner,\n        uint256 indexed aHeroId,\n        uint256 indexed dHeroId,\n        uint8 points,\n        uint256 date,\n        string tokenURI\n    );\n\n    address private _gameTokenAddress;\n    address private _consumableAddress;\n\n    struct Battle {\n        uint256 aHeroId;\n        uint256 dHeroId;\n        uint8 points;\n        uint256 date;\n    }\n\n    struct BattleDTO {\n        uint256 aHeroId;\n        uint256 dHeroId;\n        uint8 points;\n        uint256 date;\n        string tokenURI;\n    }\n\n    struct Rank {\n        uint256 heroId;\n        uint32 points;\n    }\n\n    mapping(uint256 => Battle[]) private _battles;\n\n    constructor(address gameTokenAddress) {\n        _gameTokenAddress = gameTokenAddress;\n    }\n\n    function setConsumableAddress(address _newConsumableAddress)\n        external\n        onlyOwner\n    {\n        _consumableAddress = _newConsumableAddress;\n    }\n\n    function battle(uint256 _aHeroId) external {\n        require(\n            msg.sender == GameToken(_gameTokenAddress).ownerOf(_aHeroId),\n            \"Not owner of attacker\"\n        );\n\n        GameToken.Hero memory aHero = GameToken(_gameTokenAddress).getHero(\n            _aHeroId\n        );\n\n        uint256 seed1 = GameToken(_gameTokenAddress).getNextHeroId() +\n            aHero.currXP +\n            _aHeroId;\n        uint256 seed2 = seed1;\n\n        uint256 _bHeroId = rand(\n            seed1,\n            seed2,\n            GameToken(_gameTokenAddress).getNextHeroId() - 1\n        );\n\n        seed2 += _bHeroId;\n\n        uint8 points = 0;\n        if (_aHeroId != _bHeroId) {\n            //hero auto lose versus himself\n            points = combat(seed1, seed2, _aHeroId, _bHeroId);\n        }\n\n        _battles[_aHeroId].push(\n            Battle(_aHeroId, _bHeroId, points, block.timestamp)\n        );\n\n        Battle memory b = _battles[_aHeroId][_battles[_aHeroId].length - 1];\n\n        GameToken(_gameTokenAddress).levelUp(_aHeroId, uint16(1));\n\n        seed1 += points;\n        seed2 += (_aHeroId + _bHeroId);\n\n        if (_consumableAddress != address(0) && b.points > 0) {\n            IConsumable(_consumableAddress).mint(_aHeroId, msg.sender);\n        }\n\n        emit BattleEnd(\n            msg.sender,\n            b.aHeroId,\n            b.dHeroId,\n            b.points,\n            b.date,\n            GameToken(_gameTokenAddress).tokenURI(b.dHeroId)\n        );\n    }\n\n    function combat(\n        uint256 seed1,\n        uint256 seed2,\n        uint256 _aHeroId,\n        uint256 _bHeroId\n    ) internal view returns (uint8) {\n        GameToken.Hero memory aHero = GameToken(_gameTokenAddress).getHero(\n            _aHeroId\n        );\n\n        GameToken.Hero memory bHero = GameToken(_gameTokenAddress).getHero(\n            _bHeroId\n        );\n\n        bool aHighDex;\n\n        seed1 += getDex(aHero);\n        seed2 += getDex(bHero);\n\n        if (getDex(aHero) != getDex(bHero)) {\n            aHighDex = getDex(aHero) > getDex(bHero);\n        } else {\n            aHighDex = (rand(seed1, seed2, 1) == 0);\n        }\n\n        int16 aHP = getHP(aHero);\n        int16 bHP = getHP(bHero);\n\n        while (aHP > 0 && bHP > 0) {\n            seed1 += uint16(aHP);\n            seed2 += uint16(bHP);\n            uint256 dodgeRandom = rand(seed1, seed2, 100) + 1;\n\n            seed1 += dodgeRandom;\n            int16 aDmg = getDmg(seed1, seed2, aHero);\n\n            seed2 += uint16(aDmg);\n            int16 bDmg = getDmg(seed1, seed2, bHero);\n\n            seed1 += uint16(bDmg);\n            if (aHighDex) {\n                if (aHP > 0) {\n                    bHP -= aDmg;\n                }\n                if (bHP > 0) {\n                    if (dodgeRandom >= getDodgeChance(aHero, bHero)) {\n                        aHP -= bDmg;\n                    }\n                }\n            } else {\n                if (bHP > 0) {\n                    aHP -= bDmg;\n                }\n                if (aHP > 0) {\n                    if (dodgeRandom >= getDodgeChance(bHero, aHero)) {\n                        bHP -= aDmg;\n                    }\n                }\n            }\n        }\n\n        return\n            aHP > 0\n                ? (\n                    int8(bHero.level) - int8(aHero.level) > 0\n                        ? bHero.level - aHero.level\n                        : 1\n                )\n                : 0;\n    }\n\n    function getDex(GameToken.Hero memory _hero) internal pure returns (uint8) {\n        return _hero.dex;\n    }\n\n    function getStr(GameToken.Hero memory _hero) internal pure returns (uint8) {\n        return _hero.str;\n    }\n\n    function getCon(GameToken.Hero memory _hero) internal pure returns (uint8) {\n        return _hero.con;\n    }\n\n    function getWis(GameToken.Hero memory _hero) internal pure returns (uint8) {\n        return _hero.wis;\n    }\n\n    function getHP(GameToken.Hero memory _hero) internal pure returns (int16) {\n        return int16(uint16(8 + (getCon(_hero) * 2)));\n    }\n\n    function getDodgeChance(\n        GameToken.Hero memory _aHero,\n        GameToken.Hero memory _bHero\n    ) internal pure returns (uint256) {\n        uint8 dodgeChance = (getDex(_aHero) - getDex(_bHero)) * 5;\n        if (dodgeChance >= 50) {\n            dodgeChance = 50;\n        }\n\n        return uint256(dodgeChance);\n    }\n\n    function getDmg(\n        uint256 seed1,\n        uint256 seed2,\n        GameToken.Hero memory _hero\n    ) internal view returns (int16) {\n        seed1 += getStr(_hero);\n        seed2 += getWis(_hero);\n\n        uint256 critRandom = rand(seed1, seed2, 100) + 1;\n\n        uint8 critChance = getWis(_hero) * 2;\n\n        return\n            int16(\n                uint16(\n                    getStr(_hero) * (critRandom <= uint256(critChance) ? 2 : 1)\n                )\n            );\n    }\n\n    function getRank(uint256 initialDate, uint256 endDate)\n        external\n        view\n        returns (Rank[] memory)\n    {\n        uint256 heroSize = GameToken(_gameTokenAddress).getNextHeroId();\n\n        Rank[] memory ret = new Rank[](heroSize);\n\n        for (uint256 heroId = 0; heroId < heroSize; heroId++) {\n            uint32 points = 0;\n\n            for (uint256 j = 0; j < _battles[heroId].length; j++) {\n                if (\n                    initialDate <= _battles[heroId][j].date &&\n                    _battles[heroId][j].date <= endDate\n                ) {\n                    points += _battles[heroId][j].points;\n                }\n            }\n\n            ret[heroId] = Rank(heroId, points);\n        }\n\n        return ret;\n    }\n\n    function getBattles(uint256 _heroId)\n        external\n        view\n        returns (BattleDTO[] memory)\n    {\n        BattleDTO[] memory ret = new BattleDTO[](_battles[_heroId].length);\n\n        for (uint256 index = 0; index < _battles[_heroId].length; index++) {\n            Battle memory b = _battles[_heroId][index];\n            ret[index] = BattleDTO(\n                b.aHeroId,\n                b.dHeroId,\n                b.points,\n                b.date,\n                GameToken(_gameTokenAddress).tokenURI(b.dHeroId)\n            );\n        }\n\n        return ret;\n    }\n\n    function rand(\n        uint256 seed1,\n        uint256 seed2,\n        uint256 limit\n    ) private view returns (uint256) {\n        uint256 seed = uint256(\n            keccak256(\n                abi.encodePacked(\n                    block.timestamp +\n                        block.difficulty +\n                        seed1 +\n                        seed2 +\n                        ((\n                            uint256(keccak256(abi.encodePacked(block.coinbase)))\n                        ) / (block.timestamp)) +\n                        block.gaslimit +\n                        ((uint256(keccak256(abi.encodePacked(msg.sender)))) /\n                            (block.timestamp)) +\n                        block.number\n                )\n            )\n        );\n\n        return (seed - ((seed / (limit + 1)) * (limit + 1)));\n    }\n}\n",
  "sourcePath": "/home/rfaita/game/nft-game/contract/contracts/BattleSystem.sol",
  "compiler": {
    "name": "solc",
    "version": "0.8.9+commit.e5eed63a.Emscripten.clang"
  },
  "schemaVersion": "3.4.4",
  "updatedAt": "2021-12-27T14:43:59.392Z",
  "networkType": "ethereum",
  "devdoc": {
    "kind": "dev",
    "methods": {
      "owner()": {
        "details": "Returns the address of the current owner."
      },
      "renounceOwnership()": {
        "details": "Leaves the contract without owner. It will not be possible to call `onlyOwner` functions anymore. Can only be called by the current owner. NOTE: Renouncing ownership will leave the contract without an owner, thereby removing any functionality that is only available to the owner."
      },
      "transferOwnership(address)": {
        "details": "Transfers ownership of the contract to a new account (`newOwner`). Can only be called by the current owner."
      }
    },
    "version": 1
  },
  "userdoc": {
    "kind": "user",
    "methods": {},
    "version": 1
  }
}