{
  "contractName": "BattleSystem",
  "abi": [
    {
      "inputs": [
        {
          "internalType": "address",
          "name": "gameTokenAddress",
          "type": "address"
        }
      ],
      "stateMutability": "nonpayable",
      "type": "constructor"
    },
    {
      "anonymous": false,
      "inputs": [
        {
          "indexed": true,
          "internalType": "address",
          "name": "owner",
          "type": "address"
        },
        {
          "indexed": true,
          "internalType": "uint256",
          "name": "aHeroId",
          "type": "uint256"
        },
        {
          "indexed": true,
          "internalType": "uint256",
          "name": "dHeroId",
          "type": "uint256"
        },
        {
          "indexed": false,
          "internalType": "uint8",
          "name": "points",
          "type": "uint8"
        },
        {
          "indexed": false,
          "internalType": "uint256",
          "name": "date",
          "type": "uint256"
        },
        {
          "indexed": false,
          "internalType": "string",
          "name": "tokenURI",
          "type": "string"
        }
      ],
      "name": "BattleEnd",
      "type": "event"
    },
    {
      "anonymous": false,
      "inputs": [
        {
          "indexed": true,
          "internalType": "address",
          "name": "previousOwner",
          "type": "address"
        },
        {
          "indexed": true,
          "internalType": "address",
          "name": "newOwner",
          "type": "address"
        }
      ],
      "name": "OwnershipTransferred",
      "type": "event"
    },
    {
      "inputs": [],
      "name": "owner",
      "outputs": [
        {
          "internalType": "address",
          "name": "",
          "type": "address"
        }
      ],
      "stateMutability": "view",
      "type": "function",
      "constant": true
    },
    {
      "inputs": [],
      "name": "renounceOwnership",
      "outputs": [],
      "stateMutability": "nonpayable",
      "type": "function"
    },
    {
      "inputs": [
        {
          "internalType": "address",
          "name": "newOwner",
          "type": "address"
        }
      ],
      "name": "transferOwnership",
      "outputs": [],
      "stateMutability": "nonpayable",
      "type": "function"
    },
    {
      "inputs": [
        {
          "internalType": "address",
          "name": "_newConsumableAddress",
          "type": "address"
        }
      ],
      "name": "setConsumableAddress",
      "outputs": [],
      "stateMutability": "nonpayable",
      "type": "function"
    },
    {
      "inputs": [
        {
          "internalType": "address",
          "name": "newAddress",
          "type": "address"
        }
      ],
      "name": "addFreeWinPermittedAddress",
      "outputs": [],
      "stateMutability": "nonpayable",
      "type": "function"
    },
    {
      "inputs": [
        {
          "internalType": "address",
          "name": "newAddress",
          "type": "address"
        }
      ],
      "name": "removeFreeWinPermittedAddress",
      "outputs": [],
      "stateMutability": "nonpayable",
      "type": "function"
    },
    {
      "inputs": [
        {
          "internalType": "uint256",
          "name": "_aHeroId",
          "type": "uint256"
        }
      ],
      "name": "freeWin",
      "outputs": [],
      "stateMutability": "nonpayable",
      "type": "function"
    },
    {
      "inputs": [
        {
          "internalType": "uint256",
          "name": "_aHeroId",
          "type": "uint256"
        }
      ],
      "name": "battle",
      "outputs": [],
      "stateMutability": "nonpayable",
      "type": "function"
    },
    {
      "inputs": [
        {
          "internalType": "uint256",
          "name": "initialDate",
          "type": "uint256"
        },
        {
          "internalType": "uint256",
          "name": "endDate",
          "type": "uint256"
        }
      ],
      "name": "getTop5",
      "outputs": [
        {
          "components": [
            {
              "internalType": "uint256",
              "name": "heroId",
              "type": "uint256"
            },
            {
              "internalType": "uint32",
              "name": "points",
              "type": "uint32"
            }
          ],
          "internalType": "struct BattleSystem.Rank[]",
          "name": "",
          "type": "tuple[]"
        }
      ],
      "stateMutability": "view",
      "type": "function",
      "constant": true
    },
    {
      "inputs": [
        {
          "internalType": "uint256",
          "name": "initialDate",
          "type": "uint256"
        },
        {
          "internalType": "uint256",
          "name": "endDate",
          "type": "uint256"
        }
      ],
      "name": "getRank",
      "outputs": [
        {
          "components": [
            {
              "internalType": "uint256",
              "name": "heroId",
              "type": "uint256"
            },
            {
              "internalType": "uint32",
              "name": "points",
              "type": "uint32"
            }
          ],
          "internalType": "struct BattleSystem.Rank[]",
          "name": "",
          "type": "tuple[]"
        }
      ],
      "stateMutability": "view",
      "type": "function",
      "constant": true
    },
    {
      "inputs": [
        {
          "internalType": "uint256",
          "name": "_heroId",
          "type": "uint256"
        }
      ],
      "name": "getBattles",
      "outputs": [
        {
          "components": [
            {
              "internalType": "uint256",
              "name": "aHeroId",
              "type": "uint256"
            },
            {
              "internalType": "uint256",
              "name": "dHeroId",
              "type": "uint256"
            },
            {
              "internalType": "uint8",
              "name": "points",
              "type": "uint8"
            },
            {
              "internalType": "uint256",
              "name": "date",
              "type": "uint256"
            },
            {
              "internalType": "string",
              "name": "tokenURI",
              "type": "string"
            }
          ],
          "internalType": "struct BattleSystem.BattleDTO[]",
          "name": "",
          "type": "tuple[]"
        }
      ],
      "stateMutability": "view",
      "type": "function",
      "constant": true
    }
  ],
  "bytecode": "0x60806040523480156200001157600080fd5b506040516200385f3803806200385f8339818101604052810190620000379190620001d5565b620000576200004b6200009f60201b60201c565b620000a760201b60201c565b80600260006101000a81548173ffffffffffffffffffffffffffffffffffffffff021916908373ffffffffffffffffffffffffffffffffffffffff1602179055505062000207565b600033905090565b60008060009054906101000a900473ffffffffffffffffffffffffffffffffffffffff169050816000806101000a81548173ffffffffffffffffffffffffffffffffffffffff021916908373ffffffffffffffffffffffffffffffffffffffff1602179055508173ffffffffffffffffffffffffffffffffffffffff168173ffffffffffffffffffffffffffffffffffffffff167f8be0079c531659141344cd1fd0a4f28419497f9722a3daafe3b4186f6b6457e060405160405180910390a35050565b600080fd5b600073ffffffffffffffffffffffffffffffffffffffff82169050919050565b60006200019d8262000170565b9050919050565b620001af8162000190565b8114620001bb57600080fd5b50565b600081519050620001cf81620001a4565b92915050565b600060208284031215620001ee57620001ed6200016b565b5b6000620001fe84828501620001be565b91505092915050565b61364880620002176000396000f3fe608060405234801561001057600080fd5b50600436106100a95760003560e01c8063715018a611610071578063715018a61461014e578063867e5ef5146101585780638da5cb5b146101885780639cf44cc7146101a6578063a7c36906146101d6578063f2fde38b146101f2576100a9565b806314c9e448146100ae5780633b11c0e5146100ca57806347e7d47d146100e657806357e10ace146101025780635d6de79614610132575b600080fd5b6100c860048036038101906100c3919061261c565b61020e565b005b6100e460048036038101906100df919061267f565b6102dc565b005b61010060048036038101906100fb919061261c565b61081b565b005b61011c600480360381019061011791906126ac565b6108db565b60405161012991906127f8565b60405180910390f35b61014c6004803603810190610147919061267f565b610b49565b005b6101566112d2565b005b610172600480360381019061016d919061267f565b61135a565b60405161017f9190612a07565b60405180910390f35b610190611591565b60405161019d9190612a38565b60405180910390f35b6101c060048036038101906101bb91906126ac565b6115ba565b6040516101cd91906127f8565b60405180910390f35b6101f060048036038101906101eb919061261c565b611c98565b005b61020c6004803603810190610207919061261c565b611d6e565b005b610216611e66565b73ffffffffffffffffffffffffffffffffffffffff16610234611591565b73ffffffffffffffffffffffffffffffffffffffff161461028a576040517f08c379a000000000000000000000000000000000000000000000000000000000815260040161028190612ab0565b60405180910390fd5b600160008273ffffffffffffffffffffffffffffffffffffffff1673ffffffffffffffffffffffffffffffffffffffff16815260200190815260200160002060006101000a81549060ff021916905550565b600160006102e8611e66565b73ffffffffffffffffffffffffffffffffffffffff1673ffffffffffffffffffffffffffffffffffffffff16815260200190815260200160002060009054906101000a900460ff1661036f576040517f08c379a000000000000000000000000000000000000000000000000000000000815260040161036690612b42565b60405180910390fd5b6000600190506000600260009054906101000a900473ffffffffffffffffffffffffffffffffffffffff1673ffffffffffffffffffffffffffffffffffffffff16636352211e846040518263ffffffff1660e01b81526004016103d29190612b71565b60206040518083038186803b1580156103ea57600080fd5b505afa1580156103fe573d6000803e3d6000fd5b505050506040513d601f19601f820116820180604052508101906104229190612ba1565b90506004600084815260200190815260200160002060405180608001604052808581526020018581526020018460ff168152602001428152509080600181540180825580915050600190039060005260206000209060040201600090919091909150600082015181600001556020820151816001015560408201518160020160006101000a81548160ff021916908360ff160217905550606082015181600301555050600060046000858152602001908152602001600020600160046000878152602001908152602001600020805490506104fd9190612bfd565b8154811061050e5761050d612c31565b5b906000526020600020906004020160405180608001604052908160008201548152602001600182015481526020016002820160009054906101000a900460ff1660ff1660ff1681526020016003820154815250509050600260009054906101000a900473ffffffffffffffffffffffffffffffffffffffff1673ffffffffffffffffffffffffffffffffffffffff1663484a20328560016040518363ffffffff1660e01b81526004016105c2929190612c7d565b600060405180830381600087803b1580156105dc57600080fd5b505af11580156105f0573d6000803e3d6000fd5b5050505060008360ff1690506000859050600073ffffffffffffffffffffffffffffffffffffffff16600360009054906101000a900473ffffffffffffffffffffffffffffffffffffffff1673ffffffffffffffffffffffffffffffffffffffff161415801561066757506000836040015160ff16115b156106fc57600360009054906101000a900473ffffffffffffffffffffffffffffffffffffffff1673ffffffffffffffffffffffffffffffffffffffff166394bf804d87866040518363ffffffff1660e01b81526004016106c9929190612ca6565b600060405180830381600087803b1580156106e357600080fd5b505af11580156106f7573d6000803e3d6000fd5b505050505b826020015183600001518573ffffffffffffffffffffffffffffffffffffffff167fe72551baf647f778ed07037580644e505b4d7cde9e7917f0a89c30f13fb8aca286604001518760600151600260009054906101000a900473ffffffffffffffffffffffffffffffffffffffff1673ffffffffffffffffffffffffffffffffffffffff1663c87b56dd8a602001516040518263ffffffff1660e01b81526004016107a79190612b71565b60006040518083038186803b1580156107bf57600080fd5b505afa1580156107d3573d6000803e3d6000fd5b505050506040513d6000823e3d601f19601f820116820180604052508101906107fc9190612df5565b60405161080b93929190612e86565b60405180910390a4505050505050565b610823611e66565b73ffffffffffffffffffffffffffffffffffffffff16610841611591565b73ffffffffffffffffffffffffffffffffffffffff1614610897576040517f08c379a000000000000000000000000000000000000000000000000000000000815260040161088e90612ab0565b60405180910390fd5b80600360006101000a81548173ffffffffffffffffffffffffffffffffffffffff021916908373ffffffffffffffffffffffffffffffffffffffff16021790555050565b60606000600260009054906101000a900473ffffffffffffffffffffffffffffffffffffffff1673ffffffffffffffffffffffffffffffffffffffff16638302adfb6040518163ffffffff1660e01b815260040160206040518083038186803b15801561094757600080fd5b505afa15801561095b573d6000803e3d6000fd5b505050506040513d601f19601f8201168201806040525081019061097f9190612ed9565b905060008167ffffffffffffffff81111561099d5761099c612cd9565b5b6040519080825280602002602001820160405280156109d657816020015b6109c3612558565b8152602001906001900390816109bb5790505b50905060005b82811015610b3d576000805b6004600084815260200190815260200160002080549050811015610aef57600460008481526020019081526020016000208181548110610a2b57610a2a612c31565b5b9060005260206000209060040201600301548811158015610a82575086600460008581526020019081526020016000208281548110610a6d57610a6c612c31565b5b90600052602060002090600402016003015411155b15610adc57600460008481526020019081526020016000208181548110610aac57610aab612c31565b5b906000526020600020906004020160020160009054906101000a900460ff1660ff1682610ad99190612f06565b91505b8080610ae790612f40565b9150506109e8565b5060405180604001604052808381526020018263ffffffff16815250838381518110610b1e57610b1d612c31565b5b6020026020010181905250508080610b3590612f40565b9150506109dc565b50809250505092915050565b600260009054906101000a900473ffffffffffffffffffffffffffffffffffffffff1673ffffffffffffffffffffffffffffffffffffffff16636352211e826040518263ffffffff1660e01b8152600401610ba49190612b71565b60206040518083038186803b158015610bbc57600080fd5b505afa158015610bd0573d6000803e3d6000fd5b505050506040513d601f19601f82011682018060405250810190610bf49190612ba1565b73ffffffffffffffffffffffffffffffffffffffff163373ffffffffffffffffffffffffffffffffffffffff1614610c61576040517f08c379a0000000000000000000000000000000000000000000000000000000008152600401610c5890612fd5565b60405180910390fd5b6000600260009054906101000a900473ffffffffffffffffffffffffffffffffffffffff1673ffffffffffffffffffffffffffffffffffffffff166321d80111836040518263ffffffff1660e01b8152600401610cbe9190612b71565b60006040518083038186803b158015610cd657600080fd5b505afa158015610cea573d6000803e3d6000fd5b505050506040513d6000823e3d601f19601f82011682018060405250810190610d139190613187565b9050600082826101200151600260009054906101000a900473ffffffffffffffffffffffffffffffffffffffff1673ffffffffffffffffffffffffffffffffffffffff16638302adfb6040518163ffffffff1660e01b815260040160206040518083038186803b158015610d8657600080fd5b505afa158015610d9a573d6000803e3d6000fd5b505050506040513d601f19601f82011682018060405250810190610dbe9190612ed9565b610dc891906131d0565b610dd291906131d0565b905060008190506000610e9183836001600260009054906101000a900473ffffffffffffffffffffffffffffffffffffffff1673ffffffffffffffffffffffffffffffffffffffff16638302adfb6040518163ffffffff1660e01b815260040160206040518083038186803b158015610e4a57600080fd5b505afa158015610e5e573d6000803e3d6000fd5b505050506040513d601f19601f82011682018060405250810190610e829190612ed9565b610e8c9190612bfd565b611e6e565b90508082610e9f91906131d0565b9150600060019050818614610ebd57610eba84848885611f96565b90505b6004600087815260200190815260200160002060405180608001604052808881526020018481526020018360ff168152602001428152509080600181540180825580915050600190039060005260206000209060040201600090919091909150600082015181600001556020820151816001015560408201518160020160006101000a81548160ff021916908360ff1602179055506060820151816003015550506000600460008881526020019081526020016000206001600460008a815260200190815260200160002080549050610f969190612bfd565b81548110610fa757610fa6612c31565b5b906000526020600020906004020160405180608001604052908160008201548152602001600182015481526020016002820160009054906101000a900460ff1660ff1660ff1681526020016003820154815250509050600260009054906101000a900473ffffffffffffffffffffffffffffffffffffffff1673ffffffffffffffffffffffffffffffffffffffff1663484a20328860016040518363ffffffff1660e01b815260040161105b929190612c7d565b600060405180830381600087803b15801561107557600080fd5b505af1158015611089573d6000803e3d6000fd5b505050508160ff168561109c91906131d0565b945082876110aa91906131d0565b846110b591906131d0565b9350600073ffffffffffffffffffffffffffffffffffffffff16600360009054906101000a900473ffffffffffffffffffffffffffffffffffffffff1673ffffffffffffffffffffffffffffffffffffffff161415801561111d57506000816040015160ff16115b156111b257600360009054906101000a900473ffffffffffffffffffffffffffffffffffffffff1673ffffffffffffffffffffffffffffffffffffffff166394bf804d88336040518363ffffffff1660e01b815260040161117f929190612ca6565b600060405180830381600087803b15801561119957600080fd5b505af11580156111ad573d6000803e3d6000fd5b505050505b806020015181600001513373ffffffffffffffffffffffffffffffffffffffff167fe72551baf647f778ed07037580644e505b4d7cde9e7917f0a89c30f13fb8aca284604001518560600151600260009054906101000a900473ffffffffffffffffffffffffffffffffffffffff1673ffffffffffffffffffffffffffffffffffffffff1663c87b56dd88602001516040518263ffffffff1660e01b815260040161125d9190612b71565b60006040518083038186803b15801561127557600080fd5b505afa158015611289573d6000803e3d6000fd5b505050506040513d6000823e3d601f19601f820116820180604052508101906112b29190612df5565b6040516112c193929190612e86565b60405180910390a450505050505050565b6112da611e66565b73ffffffffffffffffffffffffffffffffffffffff166112f8611591565b73ffffffffffffffffffffffffffffffffffffffff161461134e576040517f08c379a000000000000000000000000000000000000000000000000000000000815260040161134590612ab0565b60405180910390fd5b6113586000612346565b565b60606000600460008481526020019081526020016000208054905067ffffffffffffffff81111561138e5761138d612cd9565b5b6040519080825280602002602001820160405280156113c757816020015b6113b4612578565b8152602001906001900390816113ac5790505b50905060005b600460008581526020019081526020016000208054905081101561158757600060046000868152602001908152602001600020828154811061141257611411612c31565b5b906000526020600020906004020160405180608001604052908160008201548152602001600182015481526020016002820160009054906101000a900460ff1660ff1660ff16815260200160038201548152505090506040518060a001604052808260000151815260200182602001518152602001826040015160ff16815260200182606001518152602001600260009054906101000a900473ffffffffffffffffffffffffffffffffffffffff1673ffffffffffffffffffffffffffffffffffffffff1663c87b56dd84602001516040518263ffffffff1660e01b81526004016114fd9190612b71565b60006040518083038186803b15801561151557600080fd5b505afa158015611529573d6000803e3d6000fd5b505050506040513d6000823e3d601f19601f820116820180604052508101906115529190612df5565b81525083838151811061156857611567612c31565b5b602002602001018190525050808061157f90612f40565b9150506113cd565b5080915050919050565b60008060009054906101000a900473ffffffffffffffffffffffffffffffffffffffff16905090565b606060006115c884846108db565b90506000600567ffffffffffffffff8111156115e7576115e6612cd9565b5b60405190808252806020026020018201604052801561162057816020015b61160d612558565b8152602001906001900390816116055790505b509050604051806040016040528060008152602001600063ffffffff168152508160008151811061165457611653612c31565b5b6020026020010181905250604051806040016040528060008152602001600063ffffffff16815250816001815181106116905761168f612c31565b5b6020026020010181905250604051806040016040528060008152602001600063ffffffff16815250816002815181106116cc576116cb612c31565b5b6020026020010181905250604051806040016040528060008152602001600063ffffffff168152508160038151811061170857611707612c31565b5b6020026020010181905250604051806040016040528060008152602001600063ffffffff168152508160048151811061174457611743612c31565b5b602002602001018190525060005b8251811015611c8c578160008151811061176f5761176e612c31565b5b60200260200101516020015163ffffffff1683828151811061179457611793612c31565b5b60200260200101516020015163ffffffff1611156118d757816003815181106117c0576117bf612c31565b5b6020026020010151826004815181106117dc576117db612c31565b5b6020026020010181905250816002815181106117fb576117fa612c31565b5b60200260200101518260038151811061181757611816612c31565b5b60200260200101819052508160018151811061183657611835612c31565b5b60200260200101518260028151811061185257611851612c31565b5b60200260200101819052508160008151811061187157611870612c31565b5b60200260200101518260018151811061188d5761188c612c31565b5b60200260200101819052508281815181106118ab576118aa612c31565b5b6020026020010151826000815181106118c7576118c6612c31565b5b6020026020010181905250611c79565b816001815181106118eb576118ea612c31565b5b60200260200101516020015163ffffffff168382815181106119105761190f612c31565b5b60200260200101516020015163ffffffff161115611a18578160038151811061193c5761193b612c31565b5b60200260200101518260048151811061195857611957612c31565b5b60200260200101819052508160028151811061197757611976612c31565b5b60200260200101518260038151811061199357611992612c31565b5b6020026020010181905250816001815181106119b2576119b1612c31565b5b6020026020010151826002815181106119ce576119cd612c31565b5b60200260200101819052508281815181106119ec576119eb612c31565b5b602002602001015182600181518110611a0857611a07612c31565b5b6020026020010181905250611c78565b81600281518110611a2c57611a2b612c31565b5b60200260200101516020015163ffffffff16838281518110611a5157611a50612c31565b5b60200260200101516020015163ffffffff161115611b1e5781600381518110611a7d57611a7c612c31565b5b602002602001015182600481518110611a9957611a98612c31565b5b602002602001018190525081600281518110611ab857611ab7612c31565b5b602002602001015182600381518110611ad457611ad3612c31565b5b6020026020010181905250828181518110611af257611af1612c31565b5b602002602001015182600281518110611b0e57611b0d612c31565b5b6020026020010181905250611c77565b81600381518110611b3257611b31612c31565b5b60200260200101516020015163ffffffff16838281518110611b5757611b56612c31565b5b60200260200101516020015163ffffffff161115611be95781600381518110611b8357611b82612c31565b5b602002602001015182600481518110611b9f57611b9e612c31565b5b6020026020010181905250828181518110611bbd57611bbc612c31565b5b602002602001015182600381518110611bd957611bd8612c31565b5b6020026020010181905250611c76565b81600481518110611bfd57611bfc612c31565b5b60200260200101516020015163ffffffff16838281518110611c2257611c21612c31565b5b60200260200101516020015163ffffffff161115611c7557828181518110611c4d57611c4c612c31565b5b602002602001015182600481518110611c6957611c68612c31565b5b60200260200101819052505b5b5b5b5b8080611c8490612f40565b915050611752565b50809250505092915050565b611ca0611e66565b73ffffffffffffffffffffffffffffffffffffffff16611cbe611591565b73ffffffffffffffffffffffffffffffffffffffff1614611d14576040517f08c379a0000000000000000000000000000000000000000000000000000000008152600401611d0b90612ab0565b60405180910390fd5b60018060008373ffffffffffffffffffffffffffffffffffffffff1673ffffffffffffffffffffffffffffffffffffffff16815260200190815260200160002060006101000a81548160ff02191690831515021790555050565b611d76611e66565b73ffffffffffffffffffffffffffffffffffffffff16611d94611591565b73ffffffffffffffffffffffffffffffffffffffff1614611dea576040517f08c379a0000000000000000000000000000000000000000000000000000000008152600401611de190612ab0565b60405180910390fd5b600073ffffffffffffffffffffffffffffffffffffffff168173ffffffffffffffffffffffffffffffffffffffff161415611e5a576040517f08c379a0000000000000000000000000000000000000000000000000000000008152600401611e5190613298565b60405180910390fd5b611e6381612346565b50565b600033905090565b600080434233604051602001611e849190613300565b6040516020818303038152906040528051906020012060001c611ea7919061334a565b454241604051602001611eba91906133b6565b6040516020818303038152906040528051906020012060001c611edd919061334a565b87894442611eeb91906131d0565b611ef591906131d0565b611eff91906131d0565b611f0991906131d0565b611f1391906131d0565b611f1d91906131d0565b611f2791906131d0565b604051602001611f3791906133f2565b6040516020818303038152906040528051906020012060001c9050600183611f5f91906131d0565b600184611f6c91906131d0565b82611f77919061334a565b611f81919061340d565b81611f8c9190612bfd565b9150509392505050565b600080600260009054906101000a900473ffffffffffffffffffffffffffffffffffffffff1673ffffffffffffffffffffffffffffffffffffffff166321d80111856040518263ffffffff1660e01b8152600401611ff49190612b71565b60006040518083038186803b15801561200c57600080fd5b505afa158015612020573d6000803e3d6000fd5b505050506040513d6000823e3d601f19601f820116820180604052508101906120499190613187565b90506000600260009054906101000a900473ffffffffffffffffffffffffffffffffffffffff1673ffffffffffffffffffffffffffffffffffffffff166321d80111856040518263ffffffff1660e01b81526004016120a89190612b71565b60006040518083038186803b1580156120c057600080fd5b505afa1580156120d4573d6000803e3d6000fd5b505050506040513d6000823e3d601f19601f820116820180604052508101906120fd9190613187565b9050600061210a8361240a565b60ff168861211891906131d0565b97506121238261240a565b60ff168761213191906131d0565b965061213c8261240a565b60ff166121488461240a565b60ff1614612170576121598261240a565b60ff166121658461240a565b60ff16119050612182565b600061217e89896001611e6e565b1490505b600061218d84612418565b9050600061219a84612418565b90505b60008260010b1380156121b3575060008160010b135b156122ea578161ffff168a6121c891906131d0565b99508061ffff16896121da91906131d0565b9850600060016121ec8c8c6064611e6e565b6121f691906131d0565b9050808b61220491906131d0565b9a5060006122138c8c89612445565b90508061ffff168b61222591906131d0565b9a5060006122348d8d89612445565b90508061ffff168d61224691906131d0565b9c50851561229a5760008560010b13156122695781846122669190613474565b93505b60008460010b13156122955761227f88886124e4565b83106122945780856122919190613474565b94505b5b6122e2565b60008460010b13156122b55780856122b29190613474565b94505b60008560010b13156122e1576122cb87896124e4565b83106122e05781846122dd9190613474565b93505b5b5b50505061219d565b60008260010b136122fc576000612337565b60008560e001518560e0015161231291906134f7565b60000b13612321576001612336565b8460e001518460e00151612335919061356c565b5b5b95505050505050949350505050565b60008060009054906101000a900473ffffffffffffffffffffffffffffffffffffffff169050816000806101000a81548173ffffffffffffffffffffffffffffffffffffffff021916908373ffffffffffffffffffffffffffffffffffffffff1602179055508173ffffffffffffffffffffffffffffffffffffffff168173ffffffffffffffffffffffffffffffffffffffff167f8be0079c531659141344cd1fd0a4f28419497f9722a3daafe3b4186f6b6457e060405160405180910390a35050565b60008160a001519050919050565b600060026124258361252e565b61242f91906135a0565b600861243b91906135db565b60ff169050919050565b60006124508261253c565b60ff168461245e91906131d0565b93506124698261254a565b60ff168361247791906131d0565b92506000600161248986866064611e6e565b61249391906131d0565b9050600060026124a28561254a565b6124ac91906135a0565b90508060ff168211156124c05760016124c3565b60025b6124cc8561253c565b6124d691906135a0565b60ff16925050509392505050565b60008060056124f28461240a565b6124fb8661240a565b612505919061356c565b61250f91906135a0565b905060328160ff161061252157603290505b8060ff1691505092915050565b600081608001519050919050565b600081606001519050919050565b60008160c001519050919050565b604051806040016040528060008152602001600063ffffffff1681525090565b6040518060a001604052806000815260200160008152602001600060ff16815260200160008152602001606081525090565b6000604051905090565b600080fd5b600080fd5b600073ffffffffffffffffffffffffffffffffffffffff82169050919050565b60006125e9826125be565b9050919050565b6125f9816125de565b811461260457600080fd5b50565b600081359050612616816125f0565b92915050565b600060208284031215612632576126316125b4565b5b600061264084828501612607565b91505092915050565b6000819050919050565b61265c81612649565b811461266757600080fd5b50565b60008135905061267981612653565b92915050565b600060208284031215612695576126946125b4565b5b60006126a38482850161266a565b91505092915050565b600080604083850312156126c3576126c26125b4565b5b60006126d18582860161266a565b92505060206126e28582860161266a565b9150509250929050565b600081519050919050565b600082825260208201905092915050565b6000819050602082019050919050565b61272181612649565b82525050565b600063ffffffff82169050919050565b61274081612727565b82525050565b60408201600082015161275c6000850182612718565b50602082015161276f6020850182612737565b50505050565b60006127818383612746565b60408301905092915050565b6000602082019050919050565b60006127a5826126ec565b6127af81856126f7565b93506127ba83612708565b8060005b838110156127eb5781516127d28882612775565b97506127dd8361278d565b9250506001810190506127be565b5085935050505092915050565b60006020820190508181036000830152612812818461279a565b905092915050565b600081519050919050565b600082825260208201905092915050565b6000819050602082019050919050565b600060ff82169050919050565b61285c81612846565b82525050565b600081519050919050565b600082825260208201905092915050565b60005b8381101561289c578082015181840152602081019050612881565b838111156128ab576000848401525b50505050565b6000601f19601f8301169050919050565b60006128cd82612862565b6128d7818561286d565b93506128e781856020860161287e565b6128f0816128b1565b840191505092915050565b600060a0830160008301516129136000860182612718565b5060208301516129266020860182612718565b5060408301516129396040860182612853565b50606083015161294c6060860182612718565b506080830151848203608086015261296482826128c2565b9150508091505092915050565b600061297d83836128fb565b905092915050565b6000602082019050919050565b600061299d8261281a565b6129a78185612825565b9350836020820285016129b985612836565b8060005b858110156129f557848403895281516129d68582612971565b94506129e183612985565b925060208a019950506001810190506129bd565b50829750879550505050505092915050565b60006020820190508181036000830152612a218184612992565b905092915050565b612a32816125de565b82525050565b6000602082019050612a4d6000830184612a29565b92915050565b600082825260208201905092915050565b7f4f776e61626c653a2063616c6c6572206973206e6f7420746865206f776e6572600082015250565b6000612a9a602083612a53565b9150612aa582612a64565b602082019050919050565b60006020820190508181036000830152612ac981612a8d565b9050919050565b7f4f6e6c79207065726d697474656420616464726573732063616e20657865637560008201527f7465207468697320616374696f6e000000000000000000000000000000000000602082015250565b6000612b2c602e83612a53565b9150612b3782612ad0565b604082019050919050565b60006020820190508181036000830152612b5b81612b1f565b9050919050565b612b6b81612649565b82525050565b6000602082019050612b866000830184612b62565b92915050565b600081519050612b9b816125f0565b92915050565b600060208284031215612bb757612bb66125b4565b5b6000612bc584828501612b8c565b91505092915050565b7f4e487b7100000000000000000000000000000000000000000000000000000000600052601160045260246000fd5b6000612c0882612649565b9150612c1383612649565b925082821015612c2657612c25612bce565b5b828203905092915050565b7f4e487b7100000000000000000000000000000000000000000000000000000000600052603260045260246000fd5b600061ffff82169050919050565b612c7781612c60565b82525050565b6000604082019050612c926000830185612b62565b612c9f6020830184612c6e565b9392505050565b6000604082019050612cbb6000830185612b62565b612cc86020830184612a29565b9392505050565b600080fd5b600080fd5b7f4e487b7100000000000000000000000000000000000000000000000000000000600052604160045260246000fd5b612d11826128b1565b810181811067ffffffffffffffff82111715612d3057612d2f612cd9565b5b80604052505050565b6000612d436125aa565b9050612d4f8282612d08565b919050565b600067ffffffffffffffff821115612d6f57612d6e612cd9565b5b612d78826128b1565b9050602081019050919050565b6000612d98612d9384612d54565b612d39565b905082815260208101848484011115612db457612db3612cd4565b5b612dbf84828561287e565b509392505050565b600082601f830112612ddc57612ddb612ccf565b5b8151612dec848260208601612d85565b91505092915050565b600060208284031215612e0b57612e0a6125b4565b5b600082015167ffffffffffffffff811115612e2957612e286125b9565b5b612e3584828501612dc7565b91505092915050565b612e4781612846565b82525050565b6000612e5882612862565b612e628185612a53565b9350612e7281856020860161287e565b612e7b816128b1565b840191505092915050565b6000606082019050612e9b6000830186612e3e565b612ea86020830185612b62565b8181036040830152612eba8184612e4d565b9050949350505050565b600081519050612ed381612653565b92915050565b600060208284031215612eef57612eee6125b4565b5b6000612efd84828501612ec4565b91505092915050565b6000612f1182612727565b9150612f1c83612727565b92508263ffffffff03821115612f3557612f34612bce565b5b828201905092915050565b6000612f4b82612649565b91507fffffffffffffffffffffffffffffffffffffffffffffffffffffffffffffffff821415612f7e57612f7d612bce565b5b600182019050919050565b7f4e6f74206f776e6572206f662061747461636b65720000000000000000000000600082015250565b6000612fbf601583612a53565b9150612fca82612f89565b602082019050919050565b60006020820190508181036000830152612fee81612fb2565b9050919050565b600080fd5b600080fd5b6004811061300c57600080fd5b50565b60008151905061301e81612fff565b92915050565b6004811061303157600080fd5b50565b60008151905061304381613024565b92915050565b61305281612846565b811461305d57600080fd5b50565b60008151905061306f81613049565b92915050565b6000610140828403121561308c5761308b612ff5565b5b613097610140612d39565b9050600082015167ffffffffffffffff8111156130b7576130b6612ffa565b5b6130c384828501612dc7565b60008301525060206130d78482850161300f565b60208301525060406130eb84828501613034565b60408301525060606130ff84828501613060565b606083015250608061311384828501613060565b60808301525060a061312784828501613060565b60a08301525060c061313b84828501613060565b60c08301525060e061314f84828501613060565b60e08301525061010061316484828501613060565b6101008301525061012061317a84828501612ec4565b6101208301525092915050565b60006020828403121561319d5761319c6125b4565b5b600082015167ffffffffffffffff8111156131bb576131ba6125b9565b5b6131c784828501613075565b91505092915050565b60006131db82612649565b91506131e683612649565b9250827fffffffffffffffffffffffffffffffffffffffffffffffffffffffffffffffff0382111561321b5761321a612bce565b5b828201905092915050565b7f4f776e61626c653a206e6577206f776e657220697320746865207a65726f206160008201527f6464726573730000000000000000000000000000000000000000000000000000602082015250565b6000613282602683612a53565b915061328d82613226565b604082019050919050565b600060208201905081810360008301526132b181613275565b9050919050565b60008160601b9050919050565b60006132d0826132b8565b9050919050565b60006132e2826132c5565b9050919050565b6132fa6132f5826125de565b6132d7565b82525050565b600061330c82846132e9565b60148201915081905092915050565b7f4e487b7100000000000000000000000000000000000000000000000000000000600052601260045260246000fd5b600061335582612649565b915061336083612649565b9250826133705761336f61331b565b5b828204905092915050565b6000613386826125be565b9050919050565b6000613398826132c5565b9050919050565b6133b06133ab8261337b565b61338d565b82525050565b60006133c2828461339f565b60148201915081905092915050565b6000819050919050565b6133ec6133e782612649565b6133d1565b82525050565b60006133fe82846133db565b60208201915081905092915050565b600061341882612649565b915061342383612649565b9250817fffffffffffffffffffffffffffffffffffffffffffffffffffffffffffffffff048311821515161561345c5761345b612bce565b5b828202905092915050565b60008160010b9050919050565b600061347f82613467565b915061348a83613467565b9250827fffffffffffffffffffffffffffffffffffffffffffffffffffffffffffff8000018212600084121516156134c5576134c4612bce565b5b82617fff0182136000841216156134df576134de612bce565b5b828203905092915050565b60008160000b9050919050565b6000613502826134ea565b915061350d836134ea565b9250827fffffffffffffffffffffffffffffffffffffffffffffffffffffffffffffff800182126000841215161561354857613547612bce565b5b82607f01821360008412161561356157613560612bce565b5b828203905092915050565b600061357782612846565b915061358283612846565b92508282101561359557613594612bce565b5b828203905092915050565b60006135ab82612846565b91506135b683612846565b92508160ff04831182151516156135d0576135cf612bce565b5b828202905092915050565b60006135e682612846565b91506135f183612846565b92508260ff0382111561360757613606612bce565b5b82820190509291505056fea2646970667358221220d57e38ba8dd4c7ff65f8ed9c6eb20408523bbddaebecd79deefe8e1899cbd9ae64736f6c63430008090033",
  "immutableReferences": {},
  "source": "// SPDX-License-Identifier: MIT\npragma solidity 0.8.9;\n\nimport \"../node_modules/@openzeppelin/contracts/access/Ownable.sol\";\nimport \"./GameToken.sol\";\nimport \"./interfaces/IConsumable.sol\";\n\ncontract BattleSystem is Ownable {\n    event BattleEnd(\n        address indexed owner,\n        uint256 indexed aHeroId,\n        uint256 indexed dHeroId,\n        uint8 points,\n        uint256 date,\n        string tokenURI\n    );\n\n    mapping(address => bool) private _freeWinPermittedAddress;\n\n    address private _gameTokenAddress;\n    address private _consumableAddress;\n\n    struct Battle {\n        uint256 aHeroId;\n        uint256 dHeroId;\n        uint8 points;\n        uint256 date;\n    }\n\n    struct BattleDTO {\n        uint256 aHeroId;\n        uint256 dHeroId;\n        uint8 points;\n        uint256 date;\n        string tokenURI;\n    }\n\n    struct Rank {\n        uint256 heroId;\n        uint32 points;\n    }\n\n    mapping(uint256 => Battle[]) private _battles;\n\n    constructor(address gameTokenAddress) {\n        _gameTokenAddress = gameTokenAddress;\n    }\n\n    function setConsumableAddress(address _newConsumableAddress)\n        external\n        onlyOwner\n    {\n        _consumableAddress = _newConsumableAddress;\n    }\n\n    function addFreeWinPermittedAddress(address newAddress) external onlyOwner {\n        _freeWinPermittedAddress[newAddress] = true;\n    }\n\n    function removeFreeWinPermittedAddress(address newAddress)\n        external\n        onlyOwner\n    {\n        delete _freeWinPermittedAddress[newAddress];\n    }\n\n    modifier onlyFreeWinPermittedAddress() {\n        require(\n            _freeWinPermittedAddress[_msgSender()],\n            \"Only permitted address can execute this action\"\n        );\n        _;\n    }\n\n    function freeWin(uint256 _aHeroId) external onlyFreeWinPermittedAddress {\n        uint8 points = 1;\n\n        address owner = GameToken(_gameTokenAddress).ownerOf(_aHeroId);\n\n        _battles[_aHeroId].push(\n            Battle(_aHeroId, _aHeroId, points, block.timestamp)\n        );\n\n        Battle memory b = _battles[_aHeroId][_battles[_aHeroId].length - 1];\n\n        GameToken(_gameTokenAddress).levelUp(_aHeroId, uint16(1));\n\n        uint256 seed1 = points;\n        uint256 seed2 = _aHeroId;\n\n        if (_consumableAddress != address(0) && b.points > 0) {\n            IConsumable(_consumableAddress).mint(_aHeroId, owner);\n        }\n\n        emit BattleEnd(\n            owner,\n            b.aHeroId,\n            b.dHeroId,\n            b.points,\n            b.date,\n            GameToken(_gameTokenAddress).tokenURI(b.dHeroId)\n        );\n    }\n\n    function battle(uint256 _aHeroId) external {\n        require(\n            msg.sender == GameToken(_gameTokenAddress).ownerOf(_aHeroId),\n            \"Not owner of attacker\"\n        );\n\n        GameToken.Hero memory aHero = GameToken(_gameTokenAddress).getHero(\n            _aHeroId\n        );\n\n        uint256 seed1 = GameToken(_gameTokenAddress).getNextHeroId() +\n            aHero.currXP +\n            _aHeroId;\n        uint256 seed2 = seed1;\n\n        uint256 _bHeroId = rand(\n            seed1,\n            seed2,\n            GameToken(_gameTokenAddress).getNextHeroId() - 1\n        );\n\n        seed2 += _bHeroId;\n\n        uint8 points = 1;\n        if (_aHeroId != _bHeroId) {\n            //hero auto win versus himself\n            points = combat(seed1, seed2, _aHeroId, _bHeroId);\n        }\n\n        _battles[_aHeroId].push(\n            Battle(_aHeroId, _bHeroId, points, block.timestamp)\n        );\n\n        Battle memory b = _battles[_aHeroId][_battles[_aHeroId].length - 1];\n\n        GameToken(_gameTokenAddress).levelUp(_aHeroId, uint16(1));\n\n        seed1 += points;\n        seed2 += (_aHeroId + _bHeroId);\n\n        if (_consumableAddress != address(0) && b.points > 0) {\n            IConsumable(_consumableAddress).mint(_aHeroId, msg.sender);\n        }\n\n        emit BattleEnd(\n            msg.sender,\n            b.aHeroId,\n            b.dHeroId,\n            b.points,\n            b.date,\n            GameToken(_gameTokenAddress).tokenURI(b.dHeroId)\n        );\n    }\n\n    function combat(\n        uint256 seed1,\n        uint256 seed2,\n        uint256 _aHeroId,\n        uint256 _bHeroId\n    ) internal view returns (uint8) {\n        GameToken.Hero memory aHero = GameToken(_gameTokenAddress).getHero(\n            _aHeroId\n        );\n\n        GameToken.Hero memory bHero = GameToken(_gameTokenAddress).getHero(\n            _bHeroId\n        );\n\n        bool aHighDex;\n\n        seed1 += getDex(aHero);\n        seed2 += getDex(bHero);\n\n        if (getDex(aHero) != getDex(bHero)) {\n            aHighDex = getDex(aHero) > getDex(bHero);\n        } else {\n            aHighDex = (rand(seed1, seed2, 1) == 0);\n        }\n\n        int16 aHP = getHP(aHero);\n        int16 bHP = getHP(bHero);\n\n        while (aHP > 0 && bHP > 0) {\n            seed1 += uint16(aHP);\n            seed2 += uint16(bHP);\n            uint256 dodgeRandom = rand(seed1, seed2, 100) + 1;\n\n            seed1 += dodgeRandom;\n            int16 aDmg = getDmg(seed1, seed2, aHero);\n\n            seed2 += uint16(aDmg);\n            int16 bDmg = getDmg(seed1, seed2, bHero);\n\n            seed1 += uint16(bDmg);\n            if (aHighDex) {\n                if (aHP > 0) {\n                    bHP -= aDmg;\n                }\n                if (bHP > 0) {\n                    if (dodgeRandom >= getDodgeChance(aHero, bHero)) {\n                        aHP -= bDmg;\n                    }\n                }\n            } else {\n                if (bHP > 0) {\n                    aHP -= bDmg;\n                }\n                if (aHP > 0) {\n                    if (dodgeRandom >= getDodgeChance(bHero, aHero)) {\n                        bHP -= aDmg;\n                    }\n                }\n            }\n        }\n\n        return\n            aHP > 0\n                ? (\n                    int8(bHero.level) - int8(aHero.level) > 0\n                        ? bHero.level - aHero.level\n                        : 1\n                )\n                : 0;\n    }\n\n    function getDex(GameToken.Hero memory _hero) internal pure returns (uint8) {\n        return _hero.dex;\n    }\n\n    function getStr(GameToken.Hero memory _hero) internal pure returns (uint8) {\n        return _hero.str;\n    }\n\n    function getCon(GameToken.Hero memory _hero) internal pure returns (uint8) {\n        return _hero.con;\n    }\n\n    function getWis(GameToken.Hero memory _hero) internal pure returns (uint8) {\n        return _hero.wis;\n    }\n\n    function getHP(GameToken.Hero memory _hero) internal pure returns (int16) {\n        return int16(uint16(8 + (getCon(_hero) * 2)));\n    }\n\n    function getDodgeChance(\n        GameToken.Hero memory _aHero,\n        GameToken.Hero memory _bHero\n    ) internal pure returns (uint256) {\n        uint8 dodgeChance = (getDex(_aHero) - getDex(_bHero)) * 5;\n        if (dodgeChance >= 50) {\n            dodgeChance = 50;\n        }\n\n        return uint256(dodgeChance);\n    }\n\n    function getDmg(\n        uint256 seed1,\n        uint256 seed2,\n        GameToken.Hero memory _hero\n    ) internal view returns (int16) {\n        seed1 += getStr(_hero);\n        seed2 += getWis(_hero);\n\n        uint256 critRandom = rand(seed1, seed2, 100) + 1;\n\n        uint8 critChance = getWis(_hero) * 2;\n\n        return\n            int16(\n                uint16(\n                    getStr(_hero) * (critRandom <= uint256(critChance) ? 2 : 1)\n                )\n            );\n    }\n\n    function getTop5(uint256 initialDate, uint256 endDate)\n        external\n        view\n        returns (Rank[] memory)\n    {\n        Rank[] memory rank = getRank(initialDate, endDate);\n\n        Rank[] memory ret = new Rank[](5);\n\n        ret[0] = Rank(0, 0);\n        ret[1] = Rank(0, 0);\n        ret[2] = Rank(0, 0);\n        ret[3] = Rank(0, 0);\n        ret[4] = Rank(0, 0);\n        for (uint256 index = 0; index < rank.length; index++) {\n            if (rank[index].points > ret[0].points) {\n                ret[4] = ret[3];\n                ret[3] = ret[2];\n                ret[2] = ret[1];\n                ret[1] = ret[0];\n                ret[0] = rank[index];\n            } else if (rank[index].points > ret[1].points) {\n                ret[4] = ret[3];\n                ret[3] = ret[2];\n                ret[2] = ret[1];\n                ret[1] = rank[index];\n            } else if (rank[index].points > ret[2].points) {\n                ret[4] = ret[3];\n                ret[3] = ret[2];\n                ret[2] = rank[index];\n            } else if (rank[index].points > ret[3].points) {\n                ret[4] = ret[3];\n                ret[3] = rank[index];\n            } else if (rank[index].points > ret[4].points) {\n                ret[4] = rank[index];\n            }\n        }\n\n        return ret;\n    }\n\n    function getRank(uint256 initialDate, uint256 endDate)\n        public\n        view\n        returns (Rank[] memory)\n    {\n        uint256 heroSize = GameToken(_gameTokenAddress).getNextHeroId();\n\n        Rank[] memory ret = new Rank[](heroSize);\n\n        for (uint256 heroId = 0; heroId < heroSize; heroId++) {\n            uint32 points = 0;\n\n            for (uint256 j = 0; j < _battles[heroId].length; j++) {\n                if (\n                    initialDate <= _battles[heroId][j].date &&\n                    _battles[heroId][j].date <= endDate\n                ) {\n                    points += _battles[heroId][j].points;\n                }\n            }\n\n            ret[heroId] = Rank(heroId, points);\n        }\n\n        return ret;\n    }\n\n    function getBattles(uint256 _heroId)\n        external\n        view\n        returns (BattleDTO[] memory)\n    {\n        BattleDTO[] memory ret = new BattleDTO[](_battles[_heroId].length);\n\n        for (uint256 index = 0; index < _battles[_heroId].length; index++) {\n            Battle memory b = _battles[_heroId][index];\n            ret[index] = BattleDTO(\n                b.aHeroId,\n                b.dHeroId,\n                b.points,\n                b.date,\n                GameToken(_gameTokenAddress).tokenURI(b.dHeroId)\n            );\n        }\n\n        return ret;\n    }\n\n    function rand(\n        uint256 seed1,\n        uint256 seed2,\n        uint256 limit\n    ) private view returns (uint256) {\n        uint256 seed = uint256(\n            keccak256(\n                abi.encodePacked(\n                    block.timestamp +\n                        block.difficulty +\n                        seed1 +\n                        seed2 +\n                        ((\n                            uint256(keccak256(abi.encodePacked(block.coinbase)))\n                        ) / (block.timestamp)) +\n                        block.gaslimit +\n                        ((uint256(keccak256(abi.encodePacked(msg.sender)))) /\n                            (block.timestamp)) +\n                        block.number\n                )\n            )\n        );\n\n        return (seed - ((seed / (limit + 1)) * (limit + 1)));\n    }\n}\n",
  "sourcePath": "/home/rfaita/game/nft-game/contract/contracts/BattleSystem.sol",
  "compiler": {
    "name": "solc",
    "version": "0.8.9+commit.e5eed63a.Emscripten.clang"
  },
  "schemaVersion": "3.4.4",
  "updatedAt": "2022-01-03T12:39:16.121Z",
  "networkType": "ethereum",
  "devdoc": {
    "kind": "dev",
    "methods": {
      "owner()": {
        "details": "Returns the address of the current owner."
      },
      "renounceOwnership()": {
        "details": "Leaves the contract without owner. It will not be possible to call `onlyOwner` functions anymore. Can only be called by the current owner. NOTE: Renouncing ownership will leave the contract without an owner, thereby removing any functionality that is only available to the owner."
      },
      "transferOwnership(address)": {
        "details": "Transfers ownership of the contract to a new account (`newOwner`). Can only be called by the current owner."
      }
    },
    "version": 1
  },
  "userdoc": {
    "kind": "user",
    "methods": {},
    "version": 1
  }
}