{
  "contractName": "BattleSystem",
  "abi": [
    {
      "inputs": [
        {
          "internalType": "address",
          "name": "gameTokenAddress",
          "type": "address"
        }
      ],
      "stateMutability": "nonpayable",
      "type": "constructor"
    },
    {
      "anonymous": false,
      "inputs": [
        {
          "indexed": true,
          "internalType": "address",
          "name": "previousOwner",
          "type": "address"
        },
        {
          "indexed": true,
          "internalType": "address",
          "name": "newOwner",
          "type": "address"
        }
      ],
      "name": "OwnershipTransferred",
      "type": "event"
    },
    {
      "inputs": [],
      "name": "owner",
      "outputs": [
        {
          "internalType": "address",
          "name": "",
          "type": "address"
        }
      ],
      "stateMutability": "view",
      "type": "function",
      "constant": true
    },
    {
      "inputs": [],
      "name": "renounceOwnership",
      "outputs": [],
      "stateMutability": "nonpayable",
      "type": "function"
    },
    {
      "inputs": [
        {
          "internalType": "address",
          "name": "newOwner",
          "type": "address"
        }
      ],
      "name": "transferOwnership",
      "outputs": [],
      "stateMutability": "nonpayable",
      "type": "function"
    },
    {
      "inputs": [
        {
          "internalType": "uint256",
          "name": "_aHeroId",
          "type": "uint256"
        },
        {
          "internalType": "uint256",
          "name": "_bHeroId",
          "type": "uint256"
        }
      ],
      "name": "battle",
      "outputs": [],
      "stateMutability": "nonpayable",
      "type": "function"
    },
    {
      "inputs": [
        {
          "internalType": "uint256",
          "name": "initialDate",
          "type": "uint256"
        },
        {
          "internalType": "uint256",
          "name": "endDate",
          "type": "uint256"
        }
      ],
      "name": "getRank",
      "outputs": [
        {
          "components": [
            {
              "internalType": "uint256",
              "name": "heroId",
              "type": "uint256"
            },
            {
              "internalType": "uint32",
              "name": "points",
              "type": "uint32"
            }
          ],
          "internalType": "struct BattleSystem.Rank[]",
          "name": "",
          "type": "tuple[]"
        }
      ],
      "stateMutability": "view",
      "type": "function",
      "constant": true
    },
    {
      "inputs": [
        {
          "internalType": "uint256",
          "name": "_heroId",
          "type": "uint256"
        }
      ],
      "name": "getBattles",
      "outputs": [
        {
          "components": [
            {
              "internalType": "uint256",
              "name": "aHeroId",
              "type": "uint256"
            },
            {
              "internalType": "uint256",
              "name": "dHeroId",
              "type": "uint256"
            },
            {
              "internalType": "uint8",
              "name": "points",
              "type": "uint8"
            },
            {
              "internalType": "uint256",
              "name": "date",
              "type": "uint256"
            },
            {
              "internalType": "string",
              "name": "tokenURI",
              "type": "string"
            }
          ],
          "internalType": "struct BattleSystem.BattleDTO[]",
          "name": "",
          "type": "tuple[]"
        }
      ],
      "stateMutability": "view",
      "type": "function",
      "constant": true
    }
  ],
  "bytecode": "0x60806040523480156200001157600080fd5b5060405162002299380380620022998339818101604052810190620000379190620001d5565b620000576200004b6200009f60201b60201c565b620000a760201b60201c565b80600160006101000a81548173ffffffffffffffffffffffffffffffffffffffff021916908373ffffffffffffffffffffffffffffffffffffffff1602179055505062000207565b600033905090565b60008060009054906101000a900473ffffffffffffffffffffffffffffffffffffffff169050816000806101000a81548173ffffffffffffffffffffffffffffffffffffffff021916908373ffffffffffffffffffffffffffffffffffffffff1602179055508173ffffffffffffffffffffffffffffffffffffffff168173ffffffffffffffffffffffffffffffffffffffff167f8be0079c531659141344cd1fd0a4f28419497f9722a3daafe3b4186f6b6457e060405160405180910390a35050565b600080fd5b600073ffffffffffffffffffffffffffffffffffffffff82169050919050565b60006200019d8262000170565b9050919050565b620001af8162000190565b8114620001bb57600080fd5b50565b600081519050620001cf81620001a4565b92915050565b600060208284031215620001ee57620001ed6200016b565b5b6000620001fe84828501620001be565b91505092915050565b61208280620002176000396000f3fe608060405234801561001057600080fd5b50600436106100625760003560e01c80632a0c52211461006757806357e10ace14610083578063715018a6146100b3578063867e5ef5146100bd5780638da5cb5b146100ed578063f2fde38b1461010b575b600080fd5b610081600480360381019061007c91906110c7565b610127565b005b61009d600480360381019061009891906110c7565b6103c6565b6040516100aa9190611213565b60405180910390f35b6100bb610634565b005b6100d760048036038101906100d29190611235565b6106bc565b6040516100e4919061144f565b60405180910390f35b6100f56108f3565b60405161010291906114b2565b60405180910390f35b610125600480360381019061012091906114f9565b61091c565b005b8082141561016a576040517f08c379a0000000000000000000000000000000000000000000000000000000008152600401610161906115a9565b60405180910390fd5b600160009054906101000a900473ffffffffffffffffffffffffffffffffffffffff1673ffffffffffffffffffffffffffffffffffffffff16636352211e836040518263ffffffff1660e01b81526004016101c591906115d8565b60206040518083038186803b1580156101dd57600080fd5b505afa1580156101f1573d6000803e3d6000fd5b505050506040513d601f19601f820116820180604052508101906102159190611608565b73ffffffffffffffffffffffffffffffffffffffff163373ffffffffffffffffffffffffffffffffffffffff1614610282576040517f08c379a000000000000000000000000000000000000000000000000000000000815260040161027990611681565b60405180910390fd5b600061028e8383610a14565b90506003600084815260200190815260200160002060405180608001604052808581526020018481526020018360ff168152602001428152509080600181540180825580915050600190039060005260206000209060040201600090919091909150600082015181600001556020820151816001015560408201518160020160006101000a81548160ff021916908360ff160217905550606082015181600301555050600160009054906101000a900473ffffffffffffffffffffffffffffffffffffffff1673ffffffffffffffffffffffffffffffffffffffff1663484a20328460016040518363ffffffff1660e01b815260040161038f9291906116be565b600060405180830381600087803b1580156103a957600080fd5b505af11580156103bd573d6000803e3d6000fd5b50505050505050565b60606000600160009054906101000a900473ffffffffffffffffffffffffffffffffffffffff1673ffffffffffffffffffffffffffffffffffffffff16636d8411b06040518163ffffffff1660e01b815260040160206040518083038186803b15801561043257600080fd5b505afa158015610446573d6000803e3d6000fd5b505050506040513d601f19601f8201168201806040525081019061046a91906116fc565b905060008167ffffffffffffffff81111561048857610487611729565b5b6040519080825280602002602001820160405280156104c157816020015b6104ae61102b565b8152602001906001900390816104a65790505b50905060005b82811015610628576000805b60036000848152602001908152602001600020805490508110156105da5760036000848152602001908152602001600020818154811061051657610515611758565b5b906000526020600020906004020160030154881115801561056d57508660036000858152602001908152602001600020828154811061055857610557611758565b5b90600052602060002090600402016003015411155b156105c75760036000848152602001908152602001600020818154811061059757610596611758565b5b906000526020600020906004020160020160009054906101000a900460ff1660ff16826105c491906117b6565b91505b80806105d2906117f0565b9150506104d3565b5060405180604001604052808381526020018263ffffffff1681525083838151811061060957610608611758565b5b6020026020010181905250508080610620906117f0565b9150506104c7565b50809250505092915050565b61063c610d32565b73ffffffffffffffffffffffffffffffffffffffff1661065a6108f3565b73ffffffffffffffffffffffffffffffffffffffff16146106b0576040517f08c379a00000000000000000000000000000000000000000000000000000000081526004016106a790611885565b60405180910390fd5b6106ba6000610d3a565b565b60606000600360008481526020019081526020016000208054905067ffffffffffffffff8111156106f0576106ef611729565b5b60405190808252806020026020018201604052801561072957816020015b61071661104b565b81526020019060019003908161070e5790505b50905060005b60036000858152602001908152602001600020805490508110156108e957600060036000868152602001908152602001600020828154811061077457610773611758565b5b906000526020600020906004020160405180608001604052908160008201548152602001600182015481526020016002820160009054906101000a900460ff1660ff1660ff16815260200160038201548152505090506040518060a001604052808260000151815260200182602001518152602001826040015160ff16815260200182606001518152602001600160009054906101000a900473ffffffffffffffffffffffffffffffffffffffff1673ffffffffffffffffffffffffffffffffffffffff1663c87b56dd84602001516040518263ffffffff1660e01b815260040161085f91906115d8565b60006040518083038186803b15801561087757600080fd5b505afa15801561088b573d6000803e3d6000fd5b505050506040513d6000823e3d601f19601f820116820180604052508101906108b4919061199c565b8152508383815181106108ca576108c9611758565b5b60200260200101819052505080806108e1906117f0565b91505061072f565b5080915050919050565b60008060009054906101000a900473ffffffffffffffffffffffffffffffffffffffff16905090565b610924610d32565b73ffffffffffffffffffffffffffffffffffffffff166109426108f3565b73ffffffffffffffffffffffffffffffffffffffff1614610998576040517f08c379a000000000000000000000000000000000000000000000000000000000815260040161098f90611885565b60405180910390fd5b600073ffffffffffffffffffffffffffffffffffffffff168173ffffffffffffffffffffffffffffffffffffffff161415610a08576040517f08c379a00000000000000000000000000000000000000000000000000000000081526004016109ff90611a57565b60405180910390fd5b610a1181610d3a565b50565b600080600160009054906101000a900473ffffffffffffffffffffffffffffffffffffffff1673ffffffffffffffffffffffffffffffffffffffff166321d80111856040518263ffffffff1660e01b8152600401610a7291906115d8565b60006040518083038186803b158015610a8a57600080fd5b505afa158015610a9e573d6000803e3d6000fd5b505050506040513d6000823e3d601f19601f82011682018060405250810190610ac79190611c1f565b90506000600160009054906101000a900473ffffffffffffffffffffffffffffffffffffffff1673ffffffffffffffffffffffffffffffffffffffff166321d80111856040518263ffffffff1660e01b8152600401610b2691906115d8565b60006040518083038186803b158015610b3e57600080fd5b505afa158015610b52573d6000803e3d6000fd5b505050506040513d6000823e3d601f19601f82011682018060405250810190610b7b9190611c1f565b90506000610b8882610dfe565b60ff16610b9484610dfe565b60ff1614610bbc57610ba582610dfe565b60ff16610bb184610dfe565b60ff16119050610bcc565b6000610bc86001610e0c565b1490505b6000610bd784610f22565b90506000610be484610f22565b90505b60008260010b138015610bfd575060008160010b135b15610cd85760006001610c106064610e0c565b610c1a9190611c68565b90506000610c2787610f4f565b90506000610c3487610f4f565b90508515610c885760008560010b1315610c57578184610c549190611ccb565b93505b60008460010b1315610c8357610c6d8888610fb7565b8310610c82578085610c7f9190611ccb565b94505b5b610cd0565b60008460010b1315610ca3578085610ca09190611ccb565b94505b60008560010b1315610ccf57610cb98789610fb7565b8310610cce578184610ccb9190611ccb565b93505b5b5b505050610be7565b60008260010b13610cea576000610d25565b60008560e001518560e00151610d009190611d4e565b60000b13610d0f576001610d24565b8460e001518460e00151610d239190611dc3565b5b5b9550505050505092915050565b600033905090565b60008060009054906101000a900473ffffffffffffffffffffffffffffffffffffffff169050816000806101000a81548173ffffffffffffffffffffffffffffffffffffffff021916908373ffffffffffffffffffffffffffffffffffffffff1602179055508173ffffffffffffffffffffffffffffffffffffffff168173ffffffffffffffffffffffffffffffffffffffff167f8be0079c531659141344cd1fd0a4f28419497f9722a3daafe3b4186f6b6457e060405160405180910390a35050565b60008160a001519050919050565b600080434233604051602001610e229190611e3f565b6040516020818303038152906040528051906020012060001c610e459190611e89565b454241604051602001610e589190611ef5565b6040516020818303038152906040528051906020012060001c610e7b9190611e89565b4442610e879190611c68565b610e919190611c68565b610e9b9190611c68565b610ea59190611c68565b610eaf9190611c68565b604051602001610ebf9190611f31565b6040516020818303038152906040528051906020012060001c9050600183610ee79190611f4c565b60ff16600184610ef79190611f4c565b60ff1682610f059190611e89565b610f0f9190611f83565b81610f1a9190611fdd565b915050919050565b60006002610f2f83611001565b610f399190612011565b6008610f459190611f4c565b60ff169050919050565b6000806001610f5e6064610e0c565b610f689190611c68565b905060006002610f778561100f565b610f819190612011565b90508060ff16821115610f95576001610f98565b60025b610fa18561101d565b610fab9190612011565b60ff1692505050919050565b6000806005610fc584610dfe565b610fce86610dfe565b610fd89190611dc3565b610fe29190612011565b905060328160ff1610610ff457603290505b8060ff1691505092915050565b600081608001519050919050565b60008160c001519050919050565b600081606001519050919050565b604051806040016040528060008152602001600063ffffffff1681525090565b6040518060a001604052806000815260200160008152602001600060ff16815260200160008152602001606081525090565b6000604051905090565b600080fd5b600080fd5b6000819050919050565b6110a481611091565b81146110af57600080fd5b50565b6000813590506110c18161109b565b92915050565b600080604083850312156110de576110dd611087565b5b60006110ec858286016110b2565b92505060206110fd858286016110b2565b9150509250929050565b600081519050919050565b600082825260208201905092915050565b6000819050602082019050919050565b61113c81611091565b82525050565b600063ffffffff82169050919050565b61115b81611142565b82525050565b6040820160008201516111776000850182611133565b50602082015161118a6020850182611152565b50505050565b600061119c8383611161565b60408301905092915050565b6000602082019050919050565b60006111c082611107565b6111ca8185611112565b93506111d583611123565b8060005b838110156112065781516111ed8882611190565b97506111f8836111a8565b9250506001810190506111d9565b5085935050505092915050565b6000602082019050818103600083015261122d81846111b5565b905092915050565b60006020828403121561124b5761124a611087565b5b6000611259848285016110b2565b91505092915050565b600081519050919050565b600082825260208201905092915050565b6000819050602082019050919050565b600060ff82169050919050565b6112a48161128e565b82525050565b600081519050919050565b600082825260208201905092915050565b60005b838110156112e45780820151818401526020810190506112c9565b838111156112f3576000848401525b50505050565b6000601f19601f8301169050919050565b6000611315826112aa565b61131f81856112b5565b935061132f8185602086016112c6565b611338816112f9565b840191505092915050565b600060a08301600083015161135b6000860182611133565b50602083015161136e6020860182611133565b506040830151611381604086018261129b565b5060608301516113946060860182611133565b50608083015184820360808601526113ac828261130a565b9150508091505092915050565b60006113c58383611343565b905092915050565b6000602082019050919050565b60006113e582611262565b6113ef818561126d565b9350836020820285016114018561127e565b8060005b8581101561143d578484038952815161141e85826113b9565b9450611429836113cd565b925060208a01995050600181019050611405565b50829750879550505050505092915050565b6000602082019050818103600083015261146981846113da565b905092915050565b600073ffffffffffffffffffffffffffffffffffffffff82169050919050565b600061149c82611471565b9050919050565b6114ac81611491565b82525050565b60006020820190506114c760008301846114a3565b92915050565b6114d681611491565b81146114e157600080fd5b50565b6000813590506114f3816114cd565b92915050565b60006020828403121561150f5761150e611087565b5b600061151d848285016114e4565b91505092915050565b600082825260208201905092915050565b7f596f752063616e277420626174746c6520616761696e737420796f757273656c60008201527f6600000000000000000000000000000000000000000000000000000000000000602082015250565b6000611593602183611526565b915061159e82611537565b604082019050919050565b600060208201905081810360008301526115c281611586565b9050919050565b6115d281611091565b82525050565b60006020820190506115ed60008301846115c9565b92915050565b600081519050611602816114cd565b92915050565b60006020828403121561161e5761161d611087565b5b600061162c848285016115f3565b91505092915050565b7f4e6f74206f776e6572206f662061747461636b65720000000000000000000000600082015250565b600061166b601583611526565b915061167682611635565b602082019050919050565b6000602082019050818103600083015261169a8161165e565b9050919050565b600061ffff82169050919050565b6116b8816116a1565b82525050565b60006040820190506116d360008301856115c9565b6116e060208301846116af565b9392505050565b6000815190506116f68161109b565b92915050565b60006020828403121561171257611711611087565b5b6000611720848285016116e7565b91505092915050565b7f4e487b7100000000000000000000000000000000000000000000000000000000600052604160045260246000fd5b7f4e487b7100000000000000000000000000000000000000000000000000000000600052603260045260246000fd5b7f4e487b7100000000000000000000000000000000000000000000000000000000600052601160045260246000fd5b60006117c182611142565b91506117cc83611142565b92508263ffffffff038211156117e5576117e4611787565b5b828201905092915050565b60006117fb82611091565b91507fffffffffffffffffffffffffffffffffffffffffffffffffffffffffffffffff82141561182e5761182d611787565b5b600182019050919050565b7f4f776e61626c653a2063616c6c6572206973206e6f7420746865206f776e6572600082015250565b600061186f602083611526565b915061187a82611839565b602082019050919050565b6000602082019050818103600083015261189e81611862565b9050919050565b600080fd5b600080fd5b6118b8826112f9565b810181811067ffffffffffffffff821117156118d7576118d6611729565b5b80604052505050565b60006118ea61107d565b90506118f682826118af565b919050565b600067ffffffffffffffff82111561191657611915611729565b5b61191f826112f9565b9050602081019050919050565b600061193f61193a846118fb565b6118e0565b90508281526020810184848401111561195b5761195a6118aa565b5b6119668482856112c6565b509392505050565b600082601f830112611983576119826118a5565b5b815161199384826020860161192c565b91505092915050565b6000602082840312156119b2576119b1611087565b5b600082015167ffffffffffffffff8111156119d0576119cf61108c565b5b6119dc8482850161196e565b91505092915050565b7f4f776e61626c653a206e6577206f776e657220697320746865207a65726f206160008201527f6464726573730000000000000000000000000000000000000000000000000000602082015250565b6000611a41602683611526565b9150611a4c826119e5565b604082019050919050565b60006020820190508181036000830152611a7081611a34565b9050919050565b600080fd5b600080fd5b60048110611a8e57600080fd5b50565b600081519050611aa081611a81565b92915050565b60048110611ab357600080fd5b50565b600081519050611ac581611aa6565b92915050565b611ad48161128e565b8114611adf57600080fd5b50565b600081519050611af181611acb565b92915050565b611b00816116a1565b8114611b0b57600080fd5b50565b600081519050611b1d81611af7565b92915050565b60006101208284031215611b3a57611b39611a77565b5b611b456101206118e0565b9050600082015167ffffffffffffffff811115611b6557611b64611a7c565b5b611b718482850161196e565b6000830152506020611b8584828501611a91565b6020830152506040611b9984828501611ab6565b6040830152506060611bad84828501611ae2565b6060830152506080611bc184828501611ae2565b60808301525060a0611bd584828501611ae2565b60a08301525060c0611be984828501611ae2565b60c08301525060e0611bfd84828501611ae2565b60e083015250610100611c1284828501611b0e565b6101008301525092915050565b600060208284031215611c3557611c34611087565b5b600082015167ffffffffffffffff811115611c5357611c5261108c565b5b611c5f84828501611b23565b91505092915050565b6000611c7382611091565b9150611c7e83611091565b9250827fffffffffffffffffffffffffffffffffffffffffffffffffffffffffffffffff03821115611cb357611cb2611787565b5b828201905092915050565b60008160010b9050919050565b6000611cd682611cbe565b9150611ce183611cbe565b9250827fffffffffffffffffffffffffffffffffffffffffffffffffffffffffffff800001821260008412151615611d1c57611d1b611787565b5b82617fff018213600084121615611d3657611d35611787565b5b828203905092915050565b60008160000b9050919050565b6000611d5982611d41565b9150611d6483611d41565b9250827fffffffffffffffffffffffffffffffffffffffffffffffffffffffffffffff8001821260008412151615611d9f57611d9e611787565b5b82607f018213600084121615611db857611db7611787565b5b828203905092915050565b6000611dce8261128e565b9150611dd98361128e565b925082821015611dec57611deb611787565b5b828203905092915050565b60008160601b9050919050565b6000611e0f82611df7565b9050919050565b6000611e2182611e04565b9050919050565b611e39611e3482611491565b611e16565b82525050565b6000611e4b8284611e28565b60148201915081905092915050565b7f4e487b7100000000000000000000000000000000000000000000000000000000600052601260045260246000fd5b6000611e9482611091565b9150611e9f83611091565b925082611eaf57611eae611e5a565b5b828204905092915050565b6000611ec582611471565b9050919050565b6000611ed782611e04565b9050919050565b611eef611eea82611eba565b611ecc565b82525050565b6000611f018284611ede565b60148201915081905092915050565b6000819050919050565b611f2b611f2682611091565b611f10565b82525050565b6000611f3d8284611f1a565b60208201915081905092915050565b6000611f578261128e565b9150611f628361128e565b92508260ff03821115611f7857611f77611787565b5b828201905092915050565b6000611f8e82611091565b9150611f9983611091565b9250817fffffffffffffffffffffffffffffffffffffffffffffffffffffffffffffffff0483118215151615611fd257611fd1611787565b5b828202905092915050565b6000611fe882611091565b9150611ff383611091565b92508282101561200657612005611787565b5b828203905092915050565b600061201c8261128e565b91506120278361128e565b92508160ff048311821515161561204157612040611787565b5b82820290509291505056fea2646970667358221220d5ec7abbadb0313905454dafd5c2ec3458c9fbcc8666aa27ae4e3af043a1168664736f6c63430008090033",
  "immutableReferences": {},
  "source": "pragma solidity 0.8.9;\n\nimport \"../node_modules/@openzeppelin/contracts/access/Ownable.sol\";\nimport \"./GameToken.sol\";\n\ncontract BattleSystem is Ownable {\n    address private _gameTokenAddress;\n    address private _itemAddress;\n\n    struct Battle {\n        uint256 aHeroId;\n        uint256 dHeroId;\n        uint8 points;\n        uint256 date;\n    }\n\n    struct BattleDTO {\n        uint256 aHeroId;\n        uint256 dHeroId;\n        uint8 points;\n        uint256 date;\n        string tokenURI;\n    }\n\n    struct Rank {\n        uint256 heroId;\n        uint32 points;\n    }\n\n    mapping(uint256 => Battle[]) private _battles;\n\n    constructor(address gameTokenAddress) {\n        _gameTokenAddress = gameTokenAddress;\n    }\n\n    function battle(uint256 _aHeroId, uint256 _bHeroId) external {\n        require(_aHeroId != _bHeroId, \"You can't battle against yourself\");\n        require(\n            msg.sender == GameToken(_gameTokenAddress).ownerOf(_aHeroId),\n            \"Not owner of attacker\"\n        );\n\n        uint8 points = combat(_aHeroId, _bHeroId);\n\n        _battles[_aHeroId].push(\n            Battle(_aHeroId, _bHeroId, points, block.timestamp)\n        );\n\n        GameToken(_gameTokenAddress).levelUp(_aHeroId, uint16(1));\n    }\n\n    function combat(uint256 _aHeroId, uint256 _bHeroId)\n        internal\n        view\n        returns (uint8)\n    {\n        GameToken.Hero memory aHero = GameToken(_gameTokenAddress).getHero(\n            _aHeroId\n        );\n\n        GameToken.Hero memory bHero = GameToken(_gameTokenAddress).getHero(\n            _bHeroId\n        );\n\n        bool aHighDex;\n\n        if (getDex(aHero) != getDex(bHero)) {\n            aHighDex = getDex(aHero) > getDex(bHero);\n        } else {\n            aHighDex = (rand(1) == 0);\n        }\n\n        int16 aHP = getHP(aHero);\n        int16 bHP = getHP(bHero);\n\n        while (aHP > 0 && bHP > 0) {\n            uint256 dodgeRandom = rand(100) + 1;\n            int16 aDmg = getDmg(aHero);\n            int16 bDmg = getDmg(bHero);\n            if (aHighDex) {\n                if (aHP > 0) {\n                    bHP -= aDmg;\n                }\n                if (bHP > 0) {\n                    if (dodgeRandom >= getDodgeChance(aHero, bHero)) {\n                        aHP -= bDmg;\n                    }\n                }\n            } else {\n                if (bHP > 0) {\n                    aHP -= bDmg;\n                }\n                if (aHP > 0) {\n                    if (dodgeRandom >= getDodgeChance(bHero, aHero)) {\n                        bHP -= aDmg;\n                    }\n                }\n            }\n        }\n\n        return\n            aHP > 0\n                ? (\n                    int8(bHero.level) - int8(aHero.level) > 0\n                        ? bHero.level - aHero.level\n                        : 1\n                )\n                : 0;\n    }\n\n    function getDex(GameToken.Hero memory _hero) internal pure returns (uint8) {\n        return _hero.dex;\n    }\n\n    function getStr(GameToken.Hero memory _hero) internal pure returns (uint8) {\n        return _hero.str;\n    }\n\n    function getCon(GameToken.Hero memory _hero) internal pure returns (uint8) {\n        return _hero.con;\n    }\n\n    function getWis(GameToken.Hero memory _hero) internal pure returns (uint8) {\n        return _hero.wis;\n    }\n\n    function getHP(GameToken.Hero memory _hero) internal pure returns (int16) {\n        return int16(uint16(8 + (getCon(_hero) * 2)));\n    }\n\n    function getDodgeChance(\n        GameToken.Hero memory _aHero,\n        GameToken.Hero memory _bHero\n    ) internal pure returns (uint256) {\n        uint8 dodgeChance = (getDex(_aHero) - getDex(_bHero)) * 5;\n        if (dodgeChance >= 50) {\n            dodgeChance = 50;\n        }\n\n        return uint256(dodgeChance);\n    }\n\n    function getDmg(GameToken.Hero memory _hero) internal view returns (int16) {\n        uint256 critRandom = rand(100) + 1;\n\n        uint8 critChance = getWis(_hero) * 2;\n\n        return\n            int16(\n                uint16(\n                    getStr(_hero) * (critRandom <= uint256(critChance) ? 2 : 1)\n                )\n            );\n    }\n\n    function getRank(uint256 initialDate, uint256 endDate)\n        external\n        view\n        returns (Rank[] memory)\n    {\n        uint256 heroSize = GameToken(_gameTokenAddress).getCurrentHeroId();\n\n        Rank[] memory ret = new Rank[](heroSize);\n\n        for (uint256 heroId = 0; heroId < heroSize; heroId++) {\n            uint32 points = 0;\n\n            for (uint256 j = 0; j < _battles[heroId].length; j++) {\n                if (\n                    initialDate <= _battles[heroId][j].date &&\n                    _battles[heroId][j].date <= endDate\n                ) {\n                    points += _battles[heroId][j].points;\n                }\n            }\n\n            ret[heroId] = Rank(heroId, points);\n        }\n\n        return ret;\n    }\n\n    function getBattles(uint256 _heroId)\n        external\n        view\n        returns (BattleDTO[] memory)\n    {\n\n        BattleDTO[] memory ret = new BattleDTO[](_battles[_heroId].length);\n\n        for (uint256 index = 0; index < _battles[_heroId].length; index++) {\n            Battle memory battle = _battles[_heroId][index];\n            ret[index] = BattleDTO(battle.aHeroId, battle.dHeroId, battle.points, battle.date, GameToken(_gameTokenAddress).tokenURI(battle.dHeroId));\n        }\n\n        return ret;\n    }\n\n    function rand(uint8 limit) private view returns (uint256) {\n        uint256 seed = uint256(\n            keccak256(\n                abi.encodePacked(\n                    block.timestamp +\n                        block.difficulty +\n                        ((\n                            uint256(keccak256(abi.encodePacked(block.coinbase)))\n                        ) / (block.timestamp)) +\n                        block.gaslimit +\n                        ((uint256(keccak256(abi.encodePacked(msg.sender)))) /\n                            (block.timestamp)) +\n                        block.number\n                )\n            )\n        );\n\n        return (seed - ((seed / (limit + 1)) * (limit + 1)));\n    }\n}\n",
  "sourcePath": "/home/rfaita/game/nft-game/contract/contracts/BattleSystem.sol",
  "compiler": {
    "name": "solc",
    "version": "0.8.9+commit.e5eed63a.Emscripten.clang"
  },
  "schemaVersion": "3.4.3",
  "updatedAt": "2021-11-17T19:40:27.483Z",
  "networkType": "ethereum",
  "devdoc": {
    "kind": "dev",
    "methods": {
      "owner()": {
        "details": "Returns the address of the current owner."
      },
      "renounceOwnership()": {
        "details": "Leaves the contract without owner. It will not be possible to call `onlyOwner` functions anymore. Can only be called by the current owner. NOTE: Renouncing ownership will leave the contract without an owner, thereby removing any functionality that is only available to the owner."
      },
      "transferOwnership(address)": {
        "details": "Transfers ownership of the contract to a new account (`newOwner`). Can only be called by the current owner."
      }
    },
    "version": 1
  },
  "userdoc": {
    "kind": "user",
    "methods": {},
    "version": 1
  }
}