{
  "contractName": "BattleSystem",
  "abi": [
    {
      "inputs": [
        {
          "internalType": "address",
          "name": "gameTokenAddress",
          "type": "address"
        }
      ],
      "stateMutability": "nonpayable",
      "type": "constructor"
    },
    {
      "anonymous": false,
      "inputs": [
        {
          "indexed": true,
          "internalType": "address",
          "name": "owner",
          "type": "address"
        },
        {
          "indexed": true,
          "internalType": "uint256",
          "name": "aHeroId",
          "type": "uint256"
        },
        {
          "indexed": true,
          "internalType": "uint256",
          "name": "dHeroId",
          "type": "uint256"
        },
        {
          "indexed": false,
          "internalType": "uint8",
          "name": "points",
          "type": "uint8"
        },
        {
          "indexed": false,
          "internalType": "uint256",
          "name": "date",
          "type": "uint256"
        },
        {
          "indexed": false,
          "internalType": "string",
          "name": "tokenURI",
          "type": "string"
        }
      ],
      "name": "BattleEnd",
      "type": "event"
    },
    {
      "anonymous": false,
      "inputs": [
        {
          "indexed": true,
          "internalType": "address",
          "name": "previousOwner",
          "type": "address"
        },
        {
          "indexed": true,
          "internalType": "address",
          "name": "newOwner",
          "type": "address"
        }
      ],
      "name": "OwnershipTransferred",
      "type": "event"
    },
    {
      "inputs": [],
      "name": "owner",
      "outputs": [
        {
          "internalType": "address",
          "name": "",
          "type": "address"
        }
      ],
      "stateMutability": "view",
      "type": "function",
      "constant": true
    },
    {
      "inputs": [],
      "name": "renounceOwnership",
      "outputs": [],
      "stateMutability": "nonpayable",
      "type": "function"
    },
    {
      "inputs": [
        {
          "internalType": "address",
          "name": "newOwner",
          "type": "address"
        }
      ],
      "name": "transferOwnership",
      "outputs": [],
      "stateMutability": "nonpayable",
      "type": "function"
    },
    {
      "inputs": [
        {
          "internalType": "address",
          "name": "_newConsumableAddress",
          "type": "address"
        }
      ],
      "name": "setConsumableAddress",
      "outputs": [],
      "stateMutability": "nonpayable",
      "type": "function"
    },
    {
      "inputs": [
        {
          "internalType": "address",
          "name": "newAddress",
          "type": "address"
        }
      ],
      "name": "addFreeWinPermittedAddress",
      "outputs": [],
      "stateMutability": "nonpayable",
      "type": "function"
    },
    {
      "inputs": [
        {
          "internalType": "address",
          "name": "newAddress",
          "type": "address"
        }
      ],
      "name": "removeFreeWinPermittedAddress",
      "outputs": [],
      "stateMutability": "nonpayable",
      "type": "function"
    },
    {
      "inputs": [
        {
          "internalType": "uint256",
          "name": "_aHeroId",
          "type": "uint256"
        }
      ],
      "name": "freeWin",
      "outputs": [],
      "stateMutability": "nonpayable",
      "type": "function"
    },
    {
      "inputs": [
        {
          "internalType": "uint256",
          "name": "_aHeroId",
          "type": "uint256"
        }
      ],
      "name": "battle",
      "outputs": [],
      "stateMutability": "nonpayable",
      "type": "function"
    },
    {
      "inputs": [
        {
          "internalType": "uint256",
          "name": "initialDate",
          "type": "uint256"
        },
        {
          "internalType": "uint256",
          "name": "endDate",
          "type": "uint256"
        }
      ],
      "name": "getTop5",
      "outputs": [
        {
          "components": [
            {
              "internalType": "uint256",
              "name": "heroId",
              "type": "uint256"
            },
            {
              "internalType": "uint32",
              "name": "points",
              "type": "uint32"
            }
          ],
          "internalType": "struct BattleSystem.Rank[]",
          "name": "",
          "type": "tuple[]"
        }
      ],
      "stateMutability": "view",
      "type": "function",
      "constant": true
    },
    {
      "inputs": [
        {
          "internalType": "uint256",
          "name": "initialDate",
          "type": "uint256"
        },
        {
          "internalType": "uint256",
          "name": "endDate",
          "type": "uint256"
        }
      ],
      "name": "getRank",
      "outputs": [
        {
          "components": [
            {
              "internalType": "uint256",
              "name": "heroId",
              "type": "uint256"
            },
            {
              "internalType": "uint32",
              "name": "points",
              "type": "uint32"
            }
          ],
          "internalType": "struct BattleSystem.Rank[]",
          "name": "",
          "type": "tuple[]"
        }
      ],
      "stateMutability": "view",
      "type": "function",
      "constant": true
    },
    {
      "inputs": [
        {
          "internalType": "uint256",
          "name": "_heroId",
          "type": "uint256"
        }
      ],
      "name": "getBattles",
      "outputs": [
        {
          "components": [
            {
              "internalType": "uint256",
              "name": "aHeroId",
              "type": "uint256"
            },
            {
              "internalType": "uint256",
              "name": "dHeroId",
              "type": "uint256"
            },
            {
              "internalType": "uint8",
              "name": "points",
              "type": "uint8"
            },
            {
              "internalType": "uint256",
              "name": "date",
              "type": "uint256"
            },
            {
              "internalType": "string",
              "name": "tokenURI",
              "type": "string"
            }
          ],
          "internalType": "struct BattleSystem.BattleDTO[]",
          "name": "",
          "type": "tuple[]"
        }
      ],
      "stateMutability": "view",
      "type": "function",
      "constant": true
    }
  ],
  "bytecode": "0x60806040523480156200001157600080fd5b5060405162003923380380620039238339818101604052810190620000379190620001d5565b620000576200004b6200009f60201b60201c565b620000a760201b60201c565b80600260006101000a81548173ffffffffffffffffffffffffffffffffffffffff021916908373ffffffffffffffffffffffffffffffffffffffff1602179055505062000207565b600033905090565b60008060009054906101000a900473ffffffffffffffffffffffffffffffffffffffff169050816000806101000a81548173ffffffffffffffffffffffffffffffffffffffff021916908373ffffffffffffffffffffffffffffffffffffffff1602179055508173ffffffffffffffffffffffffffffffffffffffff168173ffffffffffffffffffffffffffffffffffffffff167f8be0079c531659141344cd1fd0a4f28419497f9722a3daafe3b4186f6b6457e060405160405180910390a35050565b600080fd5b600073ffffffffffffffffffffffffffffffffffffffff82169050919050565b60006200019d8262000170565b9050919050565b620001af8162000190565b8114620001bb57600080fd5b50565b600081519050620001cf81620001a4565b92915050565b600060208284031215620001ee57620001ed6200016b565b5b6000620001fe84828501620001be565b91505092915050565b61370c80620002176000396000f3fe608060405234801561001057600080fd5b50600436106100a95760003560e01c8063715018a611610071578063715018a61461014e578063867e5ef5146101585780638da5cb5b146101885780639cf44cc7146101a6578063a7c36906146101d6578063f2fde38b146101f2576100a9565b806314c9e448146100ae5780633b11c0e5146100ca57806347e7d47d146100e657806357e10ace146101025780635d6de79614610132575b600080fd5b6100c860048036038101906100c391906126e0565b61020e565b005b6100e460048036038101906100df9190612743565b6102dc565b005b61010060048036038101906100fb91906126e0565b61080c565b005b61011c60048036038101906101179190612770565b6108cc565b60405161012991906128bc565b60405180910390f35b61014c60048036038101906101479190612743565b610b3a565b005b610156611396565b005b610172600480360381019061016d9190612743565b61141e565b60405161017f9190612acb565b60405180910390f35b610190611655565b60405161019d9190612afc565b60405180910390f35b6101c060048036038101906101bb9190612770565b61167e565b6040516101cd91906128bc565b60405180910390f35b6101f060048036038101906101eb91906126e0565b611d5c565b005b61020c600480360381019061020791906126e0565b611e32565b005b610216611f2a565b73ffffffffffffffffffffffffffffffffffffffff16610234611655565b73ffffffffffffffffffffffffffffffffffffffff161461028a576040517f08c379a000000000000000000000000000000000000000000000000000000000815260040161028190612b74565b60405180910390fd5b600160008273ffffffffffffffffffffffffffffffffffffffff1673ffffffffffffffffffffffffffffffffffffffff16815260200190815260200160002060006101000a81549060ff021916905550565b600160006102e8611f2a565b73ffffffffffffffffffffffffffffffffffffffff1673ffffffffffffffffffffffffffffffffffffffff16815260200190815260200160002060009054906101000a900460ff1661036f576040517f08c379a000000000000000000000000000000000000000000000000000000000815260040161036690612c06565b60405180910390fd5b6000600190506000600260009054906101000a900473ffffffffffffffffffffffffffffffffffffffff1673ffffffffffffffffffffffffffffffffffffffff16636352211e846040518263ffffffff1660e01b81526004016103d29190612c35565b60206040518083038186803b1580156103ea57600080fd5b505afa1580156103fe573d6000803e3d6000fd5b505050506040513d601f19601f820116820180604052508101906104229190612c65565b90506004600084815260200190815260200160002060405180608001604052808581526020018581526020018460ff168152602001428152509080600181540180825580915050600190039060005260206000209060040201600090919091909150600082015181600001556020820151816001015560408201518160020160006101000a81548160ff021916908360ff160217905550606082015181600301555050600060046000858152602001908152602001600020600160046000878152602001908152602001600020805490506104fd9190612cc1565b8154811061050e5761050d612cf5565b5b906000526020600020906004020160405180608001604052908160008201548152602001600182015481526020016002820160009054906101000a900460ff1660ff1660ff1681526020016003820154815250509050600260009054906101000a900473ffffffffffffffffffffffffffffffffffffffff1673ffffffffffffffffffffffffffffffffffffffff1663484a20328560016040518363ffffffff1660e01b81526004016105c2929190612d41565b600060405180830381600087803b1580156105dc57600080fd5b505af11580156105f0573d6000803e3d6000fd5b50505050600073ffffffffffffffffffffffffffffffffffffffff16600360009054906101000a900473ffffffffffffffffffffffffffffffffffffffff1673ffffffffffffffffffffffffffffffffffffffff161415801561065a57506000816040015160ff16115b156106ef57600360009054906101000a900473ffffffffffffffffffffffffffffffffffffffff1673ffffffffffffffffffffffffffffffffffffffff166394bf804d85846040518363ffffffff1660e01b81526004016106bc929190612d6a565b600060405180830381600087803b1580156106d657600080fd5b505af11580156106ea573d6000803e3d6000fd5b505050505b806020015181600001518373ffffffffffffffffffffffffffffffffffffffff167fe72551baf647f778ed07037580644e505b4d7cde9e7917f0a89c30f13fb8aca284604001518560600151600260009054906101000a900473ffffffffffffffffffffffffffffffffffffffff1673ffffffffffffffffffffffffffffffffffffffff1663c87b56dd88602001516040518263ffffffff1660e01b815260040161079a9190612c35565b60006040518083038186803b1580156107b257600080fd5b505afa1580156107c6573d6000803e3d6000fd5b505050506040513d6000823e3d601f19601f820116820180604052508101906107ef9190612eb9565b6040516107fe93929190612f4a565b60405180910390a450505050565b610814611f2a565b73ffffffffffffffffffffffffffffffffffffffff16610832611655565b73ffffffffffffffffffffffffffffffffffffffff1614610888576040517f08c379a000000000000000000000000000000000000000000000000000000000815260040161087f90612b74565b60405180910390fd5b80600360006101000a81548173ffffffffffffffffffffffffffffffffffffffff021916908373ffffffffffffffffffffffffffffffffffffffff16021790555050565b60606000600260009054906101000a900473ffffffffffffffffffffffffffffffffffffffff1673ffffffffffffffffffffffffffffffffffffffff16638302adfb6040518163ffffffff1660e01b815260040160206040518083038186803b15801561093857600080fd5b505afa15801561094c573d6000803e3d6000fd5b505050506040513d601f19601f820116820180604052508101906109709190612f9d565b905060008167ffffffffffffffff81111561098e5761098d612d9d565b5b6040519080825280602002602001820160405280156109c757816020015b6109b461261c565b8152602001906001900390816109ac5790505b50905060005b82811015610b2e576000805b6004600084815260200190815260200160002080549050811015610ae057600460008481526020019081526020016000208181548110610a1c57610a1b612cf5565b5b9060005260206000209060040201600301548811158015610a73575086600460008581526020019081526020016000208281548110610a5e57610a5d612cf5565b5b90600052602060002090600402016003015411155b15610acd57600460008481526020019081526020016000208181548110610a9d57610a9c612cf5565b5b906000526020600020906004020160020160009054906101000a900460ff1660ff1682610aca9190612fca565b91505b8080610ad890613004565b9150506109d9565b5060405180604001604052808381526020018263ffffffff16815250838381518110610b0f57610b0e612cf5565b5b6020026020010181905250508080610b2690613004565b9150506109cd565b50809250505092915050565b600260009054906101000a900473ffffffffffffffffffffffffffffffffffffffff1673ffffffffffffffffffffffffffffffffffffffff16636352211e826040518263ffffffff1660e01b8152600401610b959190612c35565b60206040518083038186803b158015610bad57600080fd5b505afa158015610bc1573d6000803e3d6000fd5b505050506040513d601f19601f82011682018060405250810190610be59190612c65565b73ffffffffffffffffffffffffffffffffffffffff163373ffffffffffffffffffffffffffffffffffffffff1614610c52576040517f08c379a0000000000000000000000000000000000000000000000000000000008152600401610c4990613099565b60405180910390fd5b6000600260009054906101000a900473ffffffffffffffffffffffffffffffffffffffff1673ffffffffffffffffffffffffffffffffffffffff166321d80111836040518263ffffffff1660e01b8152600401610caf9190612c35565b60006040518083038186803b158015610cc757600080fd5b505afa158015610cdb573d6000803e3d6000fd5b505050506040513d6000823e3d601f19601f82011682018060405250810190610d04919061324b565b9050600082826101200151600260009054906101000a900473ffffffffffffffffffffffffffffffffffffffff1673ffffffffffffffffffffffffffffffffffffffff16638302adfb6040518163ffffffff1660e01b815260040160206040518083038186803b158015610d7757600080fd5b505afa158015610d8b573d6000803e3d6000fd5b505050506040513d601f19601f82011682018060405250810190610daf9190612f9d565b610db99190613294565b610dc39190613294565b905060008190506000610e8283836001600260009054906101000a900473ffffffffffffffffffffffffffffffffffffffff1673ffffffffffffffffffffffffffffffffffffffff16638302adfb6040518163ffffffff1660e01b815260040160206040518083038186803b158015610e3b57600080fd5b505afa158015610e4f573d6000803e3d6000fd5b505050506040513d601f19601f82011682018060405250810190610e739190612f9d565b610e7d9190612cc1565b611f32565b90508082610e909190613294565b915080851415610f6557600260009054906101000a900473ffffffffffffffffffffffffffffffffffffffff1673ffffffffffffffffffffffffffffffffffffffff166318160ddd6040518163ffffffff1660e01b815260040160206040518083038186803b158015610f0257600080fd5b505afa158015610f16573d6000803e3d6000fd5b505050506040513d601f19601f82011682018060405250810190610f3a9190612f9d565b600182610f479190613294565b10610f555760009050610f64565b8080610f6090613004565b9150505b5b600060019050818614610f8157610f7e8484888561205a565b90505b6004600087815260200190815260200160002060405180608001604052808881526020018481526020018360ff168152602001428152509080600181540180825580915050600190039060005260206000209060040201600090919091909150600082015181600001556020820151816001015560408201518160020160006101000a81548160ff021916908360ff1602179055506060820151816003015550506000600460008881526020019081526020016000206001600460008a81526020019081526020016000208054905061105a9190612cc1565b8154811061106b5761106a612cf5565b5b906000526020600020906004020160405180608001604052908160008201548152602001600182015481526020016002820160009054906101000a900460ff1660ff1660ff1681526020016003820154815250509050600260009054906101000a900473ffffffffffffffffffffffffffffffffffffffff1673ffffffffffffffffffffffffffffffffffffffff1663484a20328860016040518363ffffffff1660e01b815260040161111f929190612d41565b600060405180830381600087803b15801561113957600080fd5b505af115801561114d573d6000803e3d6000fd5b505050508160ff16856111609190613294565b9450828761116e9190613294565b846111799190613294565b9350600073ffffffffffffffffffffffffffffffffffffffff16600360009054906101000a900473ffffffffffffffffffffffffffffffffffffffff1673ffffffffffffffffffffffffffffffffffffffff16141580156111e157506000816040015160ff16115b1561127657600360009054906101000a900473ffffffffffffffffffffffffffffffffffffffff1673ffffffffffffffffffffffffffffffffffffffff166394bf804d88336040518363ffffffff1660e01b8152600401611243929190612d6a565b600060405180830381600087803b15801561125d57600080fd5b505af1158015611271573d6000803e3d6000fd5b505050505b806020015181600001513373ffffffffffffffffffffffffffffffffffffffff167fe72551baf647f778ed07037580644e505b4d7cde9e7917f0a89c30f13fb8aca284604001518560600151600260009054906101000a900473ffffffffffffffffffffffffffffffffffffffff1673ffffffffffffffffffffffffffffffffffffffff1663c87b56dd88602001516040518263ffffffff1660e01b81526004016113219190612c35565b60006040518083038186803b15801561133957600080fd5b505afa15801561134d573d6000803e3d6000fd5b505050506040513d6000823e3d601f19601f820116820180604052508101906113769190612eb9565b60405161138593929190612f4a565b60405180910390a450505050505050565b61139e611f2a565b73ffffffffffffffffffffffffffffffffffffffff166113bc611655565b73ffffffffffffffffffffffffffffffffffffffff1614611412576040517f08c379a000000000000000000000000000000000000000000000000000000000815260040161140990612b74565b60405180910390fd5b61141c600061240a565b565b60606000600460008481526020019081526020016000208054905067ffffffffffffffff81111561145257611451612d9d565b5b60405190808252806020026020018201604052801561148b57816020015b61147861263c565b8152602001906001900390816114705790505b50905060005b600460008581526020019081526020016000208054905081101561164b5760006004600086815260200190815260200160002082815481106114d6576114d5612cf5565b5b906000526020600020906004020160405180608001604052908160008201548152602001600182015481526020016002820160009054906101000a900460ff1660ff1660ff16815260200160038201548152505090506040518060a001604052808260000151815260200182602001518152602001826040015160ff16815260200182606001518152602001600260009054906101000a900473ffffffffffffffffffffffffffffffffffffffff1673ffffffffffffffffffffffffffffffffffffffff1663c87b56dd84602001516040518263ffffffff1660e01b81526004016115c19190612c35565b60006040518083038186803b1580156115d957600080fd5b505afa1580156115ed573d6000803e3d6000fd5b505050506040513d6000823e3d601f19601f820116820180604052508101906116169190612eb9565b81525083838151811061162c5761162b612cf5565b5b602002602001018190525050808061164390613004565b915050611491565b5080915050919050565b60008060009054906101000a900473ffffffffffffffffffffffffffffffffffffffff16905090565b6060600061168c84846108cc565b90506000600567ffffffffffffffff8111156116ab576116aa612d9d565b5b6040519080825280602002602001820160405280156116e457816020015b6116d161261c565b8152602001906001900390816116c95790505b509050604051806040016040528060008152602001600063ffffffff168152508160008151811061171857611717612cf5565b5b6020026020010181905250604051806040016040528060008152602001600063ffffffff168152508160018151811061175457611753612cf5565b5b6020026020010181905250604051806040016040528060008152602001600063ffffffff16815250816002815181106117905761178f612cf5565b5b6020026020010181905250604051806040016040528060008152602001600063ffffffff16815250816003815181106117cc576117cb612cf5565b5b6020026020010181905250604051806040016040528060008152602001600063ffffffff168152508160048151811061180857611807612cf5565b5b602002602001018190525060005b8251811015611d50578160008151811061183357611832612cf5565b5b60200260200101516020015163ffffffff1683828151811061185857611857612cf5565b5b60200260200101516020015163ffffffff16111561199b578160038151811061188457611883612cf5565b5b6020026020010151826004815181106118a05761189f612cf5565b5b6020026020010181905250816002815181106118bf576118be612cf5565b5b6020026020010151826003815181106118db576118da612cf5565b5b6020026020010181905250816001815181106118fa576118f9612cf5565b5b60200260200101518260028151811061191657611915612cf5565b5b60200260200101819052508160008151811061193557611934612cf5565b5b60200260200101518260018151811061195157611950612cf5565b5b602002602001018190525082818151811061196f5761196e612cf5565b5b60200260200101518260008151811061198b5761198a612cf5565b5b6020026020010181905250611d3d565b816001815181106119af576119ae612cf5565b5b60200260200101516020015163ffffffff168382815181106119d4576119d3612cf5565b5b60200260200101516020015163ffffffff161115611adc5781600381518110611a00576119ff612cf5565b5b602002602001015182600481518110611a1c57611a1b612cf5565b5b602002602001018190525081600281518110611a3b57611a3a612cf5565b5b602002602001015182600381518110611a5757611a56612cf5565b5b602002602001018190525081600181518110611a7657611a75612cf5565b5b602002602001015182600281518110611a9257611a91612cf5565b5b6020026020010181905250828181518110611ab057611aaf612cf5565b5b602002602001015182600181518110611acc57611acb612cf5565b5b6020026020010181905250611d3c565b81600281518110611af057611aef612cf5565b5b60200260200101516020015163ffffffff16838281518110611b1557611b14612cf5565b5b60200260200101516020015163ffffffff161115611be25781600381518110611b4157611b40612cf5565b5b602002602001015182600481518110611b5d57611b5c612cf5565b5b602002602001018190525081600281518110611b7c57611b7b612cf5565b5b602002602001015182600381518110611b9857611b97612cf5565b5b6020026020010181905250828181518110611bb657611bb5612cf5565b5b602002602001015182600281518110611bd257611bd1612cf5565b5b6020026020010181905250611d3b565b81600381518110611bf657611bf5612cf5565b5b60200260200101516020015163ffffffff16838281518110611c1b57611c1a612cf5565b5b60200260200101516020015163ffffffff161115611cad5781600381518110611c4757611c46612cf5565b5b602002602001015182600481518110611c6357611c62612cf5565b5b6020026020010181905250828181518110611c8157611c80612cf5565b5b602002602001015182600381518110611c9d57611c9c612cf5565b5b6020026020010181905250611d3a565b81600481518110611cc157611cc0612cf5565b5b60200260200101516020015163ffffffff16838281518110611ce657611ce5612cf5565b5b60200260200101516020015163ffffffff161115611d3957828181518110611d1157611d10612cf5565b5b602002602001015182600481518110611d2d57611d2c612cf5565b5b60200260200101819052505b5b5b5b5b8080611d4890613004565b915050611816565b50809250505092915050565b611d64611f2a565b73ffffffffffffffffffffffffffffffffffffffff16611d82611655565b73ffffffffffffffffffffffffffffffffffffffff1614611dd8576040517f08c379a0000000000000000000000000000000000000000000000000000000008152600401611dcf90612b74565b60405180910390fd5b60018060008373ffffffffffffffffffffffffffffffffffffffff1673ffffffffffffffffffffffffffffffffffffffff16815260200190815260200160002060006101000a81548160ff02191690831515021790555050565b611e3a611f2a565b73ffffffffffffffffffffffffffffffffffffffff16611e58611655565b73ffffffffffffffffffffffffffffffffffffffff1614611eae576040517f08c379a0000000000000000000000000000000000000000000000000000000008152600401611ea590612b74565b60405180910390fd5b600073ffffffffffffffffffffffffffffffffffffffff168173ffffffffffffffffffffffffffffffffffffffff161415611f1e576040517f08c379a0000000000000000000000000000000000000000000000000000000008152600401611f159061335c565b60405180910390fd5b611f278161240a565b50565b600033905090565b600080434233604051602001611f4891906133c4565b6040516020818303038152906040528051906020012060001c611f6b919061340e565b454241604051602001611f7e919061347a565b6040516020818303038152906040528051906020012060001c611fa1919061340e565b87894442611faf9190613294565b611fb99190613294565b611fc39190613294565b611fcd9190613294565b611fd79190613294565b611fe19190613294565b611feb9190613294565b604051602001611ffb91906134b6565b6040516020818303038152906040528051906020012060001c90506001836120239190613294565b6001846120309190613294565b8261203b919061340e565b61204591906134d1565b816120509190612cc1565b9150509392505050565b600080600260009054906101000a900473ffffffffffffffffffffffffffffffffffffffff1673ffffffffffffffffffffffffffffffffffffffff166321d80111856040518263ffffffff1660e01b81526004016120b89190612c35565b60006040518083038186803b1580156120d057600080fd5b505afa1580156120e4573d6000803e3d6000fd5b505050506040513d6000823e3d601f19601f8201168201806040525081019061210d919061324b565b90506000600260009054906101000a900473ffffffffffffffffffffffffffffffffffffffff1673ffffffffffffffffffffffffffffffffffffffff166321d80111856040518263ffffffff1660e01b815260040161216c9190612c35565b60006040518083038186803b15801561218457600080fd5b505afa158015612198573d6000803e3d6000fd5b505050506040513d6000823e3d601f19601f820116820180604052508101906121c1919061324b565b905060006121ce836124ce565b60ff16886121dc9190613294565b97506121e7826124ce565b60ff16876121f59190613294565b9650612200826124ce565b60ff1661220c846124ce565b60ff16146122345761221d826124ce565b60ff16612229846124ce565b60ff16119050612246565b600061224289896001611f32565b1490505b6000612251846124dc565b9050600061225e846124dc565b90505b60008260010b138015612277575060008160010b135b156123ae578161ffff168a61228c9190613294565b99508061ffff168961229e9190613294565b9850600060016122b08c8c6064611f32565b6122ba9190613294565b9050808b6122c89190613294565b9a5060006122d78c8c89612509565b90508061ffff168b6122e99190613294565b9a5060006122f88d8d89612509565b90508061ffff168d61230a9190613294565b9c50851561235e5760008560010b131561232d57818461232a9190613538565b93505b60008460010b13156123595761234388886125a8565b83106123585780856123559190613538565b94505b5b6123a6565b60008460010b13156123795780856123769190613538565b94505b60008560010b13156123a55761238f87896125a8565b83106123a45781846123a19190613538565b93505b5b5b505050612261565b60008260010b136123c05760006123fb565b60008560e001518560e001516123d691906135bb565b60000b136123e55760016123fa565b8460e001518460e001516123f99190613630565b5b5b95505050505050949350505050565b60008060009054906101000a900473ffffffffffffffffffffffffffffffffffffffff169050816000806101000a81548173ffffffffffffffffffffffffffffffffffffffff021916908373ffffffffffffffffffffffffffffffffffffffff1602179055508173ffffffffffffffffffffffffffffffffffffffff168173ffffffffffffffffffffffffffffffffffffffff167f8be0079c531659141344cd1fd0a4f28419497f9722a3daafe3b4186f6b6457e060405160405180910390a35050565b60008160a001519050919050565b600060026124e9836125f2565b6124f39190613664565b60086124ff919061369f565b60ff169050919050565b600061251482612600565b60ff16846125229190613294565b935061252d8261260e565b60ff168361253b9190613294565b92506000600161254d86866064611f32565b6125579190613294565b9050600060026125668561260e565b6125709190613664565b90508060ff16821115612584576001612587565b60025b61259085612600565b61259a9190613664565b60ff16925050509392505050565b60008060056125b6846124ce565b6125bf866124ce565b6125c99190613630565b6125d39190613664565b905060328160ff16106125e557603290505b8060ff1691505092915050565b600081608001519050919050565b600081606001519050919050565b60008160c001519050919050565b604051806040016040528060008152602001600063ffffffff1681525090565b6040518060a001604052806000815260200160008152602001600060ff16815260200160008152602001606081525090565b6000604051905090565b600080fd5b600080fd5b600073ffffffffffffffffffffffffffffffffffffffff82169050919050565b60006126ad82612682565b9050919050565b6126bd816126a2565b81146126c857600080fd5b50565b6000813590506126da816126b4565b92915050565b6000602082840312156126f6576126f5612678565b5b6000612704848285016126cb565b91505092915050565b6000819050919050565b6127208161270d565b811461272b57600080fd5b50565b60008135905061273d81612717565b92915050565b60006020828403121561275957612758612678565b5b60006127678482850161272e565b91505092915050565b6000806040838503121561278757612786612678565b5b60006127958582860161272e565b92505060206127a68582860161272e565b9150509250929050565b600081519050919050565b600082825260208201905092915050565b6000819050602082019050919050565b6127e58161270d565b82525050565b600063ffffffff82169050919050565b612804816127eb565b82525050565b60408201600082015161282060008501826127dc565b50602082015161283360208501826127fb565b50505050565b6000612845838361280a565b60408301905092915050565b6000602082019050919050565b6000612869826127b0565b61287381856127bb565b935061287e836127cc565b8060005b838110156128af5781516128968882612839565b97506128a183612851565b925050600181019050612882565b5085935050505092915050565b600060208201905081810360008301526128d6818461285e565b905092915050565b600081519050919050565b600082825260208201905092915050565b6000819050602082019050919050565b600060ff82169050919050565b6129208161290a565b82525050565b600081519050919050565b600082825260208201905092915050565b60005b83811015612960578082015181840152602081019050612945565b8381111561296f576000848401525b50505050565b6000601f19601f8301169050919050565b600061299182612926565b61299b8185612931565b93506129ab818560208601612942565b6129b481612975565b840191505092915050565b600060a0830160008301516129d760008601826127dc565b5060208301516129ea60208601826127dc565b5060408301516129fd6040860182612917565b506060830151612a1060608601826127dc565b5060808301518482036080860152612a288282612986565b9150508091505092915050565b6000612a4183836129bf565b905092915050565b6000602082019050919050565b6000612a61826128de565b612a6b81856128e9565b935083602082028501612a7d856128fa565b8060005b85811015612ab95784840389528151612a9a8582612a35565b9450612aa583612a49565b925060208a01995050600181019050612a81565b50829750879550505050505092915050565b60006020820190508181036000830152612ae58184612a56565b905092915050565b612af6816126a2565b82525050565b6000602082019050612b116000830184612aed565b92915050565b600082825260208201905092915050565b7f4f776e61626c653a2063616c6c6572206973206e6f7420746865206f776e6572600082015250565b6000612b5e602083612b17565b9150612b6982612b28565b602082019050919050565b60006020820190508181036000830152612b8d81612b51565b9050919050565b7f4f6e6c79207065726d697474656420616464726573732063616e20657865637560008201527f7465207468697320616374696f6e000000000000000000000000000000000000602082015250565b6000612bf0602e83612b17565b9150612bfb82612b94565b604082019050919050565b60006020820190508181036000830152612c1f81612be3565b9050919050565b612c2f8161270d565b82525050565b6000602082019050612c4a6000830184612c26565b92915050565b600081519050612c5f816126b4565b92915050565b600060208284031215612c7b57612c7a612678565b5b6000612c8984828501612c50565b91505092915050565b7f4e487b7100000000000000000000000000000000000000000000000000000000600052601160045260246000fd5b6000612ccc8261270d565b9150612cd78361270d565b925082821015612cea57612ce9612c92565b5b828203905092915050565b7f4e487b7100000000000000000000000000000000000000000000000000000000600052603260045260246000fd5b600061ffff82169050919050565b612d3b81612d24565b82525050565b6000604082019050612d566000830185612c26565b612d636020830184612d32565b9392505050565b6000604082019050612d7f6000830185612c26565b612d8c6020830184612aed565b9392505050565b600080fd5b600080fd5b7f4e487b7100000000000000000000000000000000000000000000000000000000600052604160045260246000fd5b612dd582612975565b810181811067ffffffffffffffff82111715612df457612df3612d9d565b5b80604052505050565b6000612e0761266e565b9050612e138282612dcc565b919050565b600067ffffffffffffffff821115612e3357612e32612d9d565b5b612e3c82612975565b9050602081019050919050565b6000612e5c612e5784612e18565b612dfd565b905082815260208101848484011115612e7857612e77612d98565b5b612e83848285612942565b509392505050565b600082601f830112612ea057612e9f612d93565b5b8151612eb0848260208601612e49565b91505092915050565b600060208284031215612ecf57612ece612678565b5b600082015167ffffffffffffffff811115612eed57612eec61267d565b5b612ef984828501612e8b565b91505092915050565b612f0b8161290a565b82525050565b6000612f1c82612926565b612f268185612b17565b9350612f36818560208601612942565b612f3f81612975565b840191505092915050565b6000606082019050612f5f6000830186612f02565b612f6c6020830185612c26565b8181036040830152612f7e8184612f11565b9050949350505050565b600081519050612f9781612717565b92915050565b600060208284031215612fb357612fb2612678565b5b6000612fc184828501612f88565b91505092915050565b6000612fd5826127eb565b9150612fe0836127eb565b92508263ffffffff03821115612ff957612ff8612c92565b5b828201905092915050565b600061300f8261270d565b91507fffffffffffffffffffffffffffffffffffffffffffffffffffffffffffffffff82141561304257613041612c92565b5b600182019050919050565b7f4e6f74206f776e6572206f662061747461636b65720000000000000000000000600082015250565b6000613083601583612b17565b915061308e8261304d565b602082019050919050565b600060208201905081810360008301526130b281613076565b9050919050565b600080fd5b600080fd5b600481106130d057600080fd5b50565b6000815190506130e2816130c3565b92915050565b600481106130f557600080fd5b50565b600081519050613107816130e8565b92915050565b6131168161290a565b811461312157600080fd5b50565b6000815190506131338161310d565b92915050565b600061014082840312156131505761314f6130b9565b5b61315b610140612dfd565b9050600082015167ffffffffffffffff81111561317b5761317a6130be565b5b61318784828501612e8b565b600083015250602061319b848285016130d3565b60208301525060406131af848285016130f8565b60408301525060606131c384828501613124565b60608301525060806131d784828501613124565b60808301525060a06131eb84828501613124565b60a08301525060c06131ff84828501613124565b60c08301525060e061321384828501613124565b60e08301525061010061322884828501613124565b6101008301525061012061323e84828501612f88565b6101208301525092915050565b60006020828403121561326157613260612678565b5b600082015167ffffffffffffffff81111561327f5761327e61267d565b5b61328b84828501613139565b91505092915050565b600061329f8261270d565b91506132aa8361270d565b9250827fffffffffffffffffffffffffffffffffffffffffffffffffffffffffffffffff038211156132df576132de612c92565b5b828201905092915050565b7f4f776e61626c653a206e6577206f776e657220697320746865207a65726f206160008201527f6464726573730000000000000000000000000000000000000000000000000000602082015250565b6000613346602683612b17565b9150613351826132ea565b604082019050919050565b6000602082019050818103600083015261337581613339565b9050919050565b60008160601b9050919050565b60006133948261337c565b9050919050565b60006133a682613389565b9050919050565b6133be6133b9826126a2565b61339b565b82525050565b60006133d082846133ad565b60148201915081905092915050565b7f4e487b7100000000000000000000000000000000000000000000000000000000600052601260045260246000fd5b60006134198261270d565b91506134248361270d565b925082613434576134336133df565b5b828204905092915050565b600061344a82612682565b9050919050565b600061345c82613389565b9050919050565b61347461346f8261343f565b613451565b82525050565b60006134868284613463565b60148201915081905092915050565b6000819050919050565b6134b06134ab8261270d565b613495565b82525050565b60006134c2828461349f565b60208201915081905092915050565b60006134dc8261270d565b91506134e78361270d565b9250817fffffffffffffffffffffffffffffffffffffffffffffffffffffffffffffffff04831182151516156135205761351f612c92565b5b828202905092915050565b60008160010b9050919050565b60006135438261352b565b915061354e8361352b565b9250827fffffffffffffffffffffffffffffffffffffffffffffffffffffffffffff80000182126000841215161561358957613588612c92565b5b82617fff0182136000841216156135a3576135a2612c92565b5b828203905092915050565b60008160000b9050919050565b60006135c6826135ae565b91506135d1836135ae565b9250827fffffffffffffffffffffffffffffffffffffffffffffffffffffffffffffff800182126000841215161561360c5761360b612c92565b5b82607f01821360008412161561362557613624612c92565b5b828203905092915050565b600061363b8261290a565b91506136468361290a565b92508282101561365957613658612c92565b5b828203905092915050565b600061366f8261290a565b915061367a8361290a565b92508160ff048311821515161561369457613693612c92565b5b828202905092915050565b60006136aa8261290a565b91506136b58361290a565b92508260ff038211156136cb576136ca612c92565b5b82820190509291505056fea26469706673582212201d46834e5cbfdfe89f84c162994840030c4ec2cdb1a9a8a1b3818e662340277964736f6c63430008090033",
  "immutableReferences": {},
  "source": "// SPDX-License-Identifier: MIT\npragma solidity 0.8.9;\n\nimport \"../node_modules/@openzeppelin/contracts/access/Ownable.sol\";\nimport \"./GameToken.sol\";\nimport \"./interfaces/IConsumable.sol\";\n\ncontract BattleSystem is Ownable {\n    event BattleEnd(\n        address indexed owner,\n        uint256 indexed aHeroId,\n        uint256 indexed dHeroId,\n        uint8 points,\n        uint256 date,\n        string tokenURI\n    );\n\n    mapping(address => bool) private _freeWinPermittedAddress;\n\n    address private _gameTokenAddress;\n    address private _consumableAddress;\n\n    struct Battle {\n        uint256 aHeroId;\n        uint256 dHeroId;\n        uint8 points;\n        uint256 date;\n    }\n\n    struct BattleDTO {\n        uint256 aHeroId;\n        uint256 dHeroId;\n        uint8 points;\n        uint256 date;\n        string tokenURI;\n    }\n\n    struct Rank {\n        uint256 heroId;\n        uint32 points;\n    }\n\n    mapping(uint256 => Battle[]) private _battles;\n\n    constructor(address gameTokenAddress) {\n        _gameTokenAddress = gameTokenAddress;\n    }\n\n    function setConsumableAddress(address _newConsumableAddress)\n        external\n        onlyOwner\n    {\n        _consumableAddress = _newConsumableAddress;\n    }\n\n    function addFreeWinPermittedAddress(address newAddress) external onlyOwner {\n        _freeWinPermittedAddress[newAddress] = true;\n    }\n\n    function removeFreeWinPermittedAddress(address newAddress)\n        external\n        onlyOwner\n    {\n        delete _freeWinPermittedAddress[newAddress];\n    }\n\n    modifier onlyFreeWinPermittedAddress() {\n        require(\n            _freeWinPermittedAddress[_msgSender()],\n            \"Only permitted address can execute this action\"\n        );\n        _;\n    }\n\n    function freeWin(uint256 _aHeroId) external onlyFreeWinPermittedAddress {\n        uint8 points = 1;\n\n        address owner = GameToken(_gameTokenAddress).ownerOf(_aHeroId);\n\n        _battles[_aHeroId].push(\n            Battle(_aHeroId, _aHeroId, points, block.timestamp)\n        );\n\n        Battle memory b = _battles[_aHeroId][_battles[_aHeroId].length - 1];\n\n        GameToken(_gameTokenAddress).levelUp(_aHeroId, uint16(1));\n\n        if (_consumableAddress != address(0) && b.points > 0) {\n            IConsumable(_consumableAddress).mint(_aHeroId, owner);\n        }\n\n        emit BattleEnd(\n            owner,\n            b.aHeroId,\n            b.dHeroId,\n            b.points,\n            b.date,\n            GameToken(_gameTokenAddress).tokenURI(b.dHeroId)\n        );\n    }\n\n    function battle(uint256 _aHeroId) external {\n        require(\n            msg.sender == GameToken(_gameTokenAddress).ownerOf(_aHeroId),\n            \"Not owner of attacker\"\n        );\n\n        GameToken.Hero memory aHero = GameToken(_gameTokenAddress).getHero(\n            _aHeroId\n        );\n\n        uint256 seed1 = GameToken(_gameTokenAddress).getNextHeroId() +\n            aHero.currXP +\n            _aHeroId;\n        uint256 seed2 = seed1;\n\n        uint256 _bHeroId = rand(\n            seed1,\n            seed2,\n            GameToken(_gameTokenAddress).getNextHeroId() - 1\n        );\n\n        seed2 += _bHeroId;\n\n        if (_aHeroId == _bHeroId) {\n            if (_bHeroId + 1 >= GameToken(_gameTokenAddress).totalSupply()) {\n                _bHeroId = 0;\n            } else {\n                _bHeroId++;\n            }\n        }\n\n        uint8 points = 1;\n        if (_aHeroId != _bHeroId) {\n            //hero auto win versus himself\n            points = combat(seed1, seed2, _aHeroId, _bHeroId);\n        }\n\n        _battles[_aHeroId].push(\n            Battle(_aHeroId, _bHeroId, points, block.timestamp)\n        );\n\n        Battle memory b = _battles[_aHeroId][_battles[_aHeroId].length - 1];\n\n        GameToken(_gameTokenAddress).levelUp(_aHeroId, uint16(1));\n\n        seed1 += points;\n        seed2 += (_aHeroId + _bHeroId);\n\n        if (_consumableAddress != address(0) && b.points > 0) {\n            IConsumable(_consumableAddress).mint(_aHeroId, msg.sender);\n        }\n\n        emit BattleEnd(\n            msg.sender,\n            b.aHeroId,\n            b.dHeroId,\n            b.points,\n            b.date,\n            GameToken(_gameTokenAddress).tokenURI(b.dHeroId)\n        );\n    }\n\n    function combat(\n        uint256 seed1,\n        uint256 seed2,\n        uint256 _aHeroId,\n        uint256 _bHeroId\n    ) internal view returns (uint8) {\n        GameToken.Hero memory aHero = GameToken(_gameTokenAddress).getHero(\n            _aHeroId\n        );\n\n        GameToken.Hero memory bHero = GameToken(_gameTokenAddress).getHero(\n            _bHeroId\n        );\n\n        bool aHighDex;\n\n        seed1 += getDex(aHero);\n        seed2 += getDex(bHero);\n\n        if (getDex(aHero) != getDex(bHero)) {\n            aHighDex = getDex(aHero) > getDex(bHero);\n        } else {\n            aHighDex = (rand(seed1, seed2, 1) == 0);\n        }\n\n        int16 aHP = getHP(aHero);\n        int16 bHP = getHP(bHero);\n\n        while (aHP > 0 && bHP > 0) {\n            seed1 += uint16(aHP);\n            seed2 += uint16(bHP);\n            uint256 dodgeRandom = rand(seed1, seed2, 100) + 1;\n\n            seed1 += dodgeRandom;\n            int16 aDmg = getDmg(seed1, seed2, aHero);\n\n            seed2 += uint16(aDmg);\n            int16 bDmg = getDmg(seed1, seed2, bHero);\n\n            seed1 += uint16(bDmg);\n            if (aHighDex) {\n                if (aHP > 0) {\n                    bHP -= aDmg;\n                }\n                if (bHP > 0) {\n                    if (dodgeRandom >= getDodgeChance(aHero, bHero)) {\n                        aHP -= bDmg;\n                    }\n                }\n            } else {\n                if (bHP > 0) {\n                    aHP -= bDmg;\n                }\n                if (aHP > 0) {\n                    if (dodgeRandom >= getDodgeChance(bHero, aHero)) {\n                        bHP -= aDmg;\n                    }\n                }\n            }\n        }\n\n        return\n            aHP > 0\n                ? (\n                    int8(bHero.level) - int8(aHero.level) > 0\n                        ? bHero.level - aHero.level\n                        : 1\n                )\n                : 0;\n    }\n\n    function getDex(GameToken.Hero memory _hero) internal pure returns (uint8) {\n        return _hero.dex;\n    }\n\n    function getStr(GameToken.Hero memory _hero) internal pure returns (uint8) {\n        return _hero.str;\n    }\n\n    function getCon(GameToken.Hero memory _hero) internal pure returns (uint8) {\n        return _hero.con;\n    }\n\n    function getWis(GameToken.Hero memory _hero) internal pure returns (uint8) {\n        return _hero.wis;\n    }\n\n    function getHP(GameToken.Hero memory _hero) internal pure returns (int16) {\n        return int16(uint16(8 + (getCon(_hero) * 2)));\n    }\n\n    function getDodgeChance(\n        GameToken.Hero memory _aHero,\n        GameToken.Hero memory _bHero\n    ) internal pure returns (uint256) {\n        uint8 dodgeChance = (getDex(_aHero) - getDex(_bHero)) * 5;\n        if (dodgeChance >= 50) {\n            dodgeChance = 50;\n        }\n\n        return uint256(dodgeChance);\n    }\n\n    function getDmg(\n        uint256 seed1,\n        uint256 seed2,\n        GameToken.Hero memory _hero\n    ) internal view returns (int16) {\n        seed1 += getStr(_hero);\n        seed2 += getWis(_hero);\n\n        uint256 critRandom = rand(seed1, seed2, 100) + 1;\n\n        uint8 critChance = getWis(_hero) * 2;\n\n        return\n            int16(\n                uint16(\n                    getStr(_hero) * (critRandom <= uint256(critChance) ? 2 : 1)\n                )\n            );\n    }\n\n    function getTop5(uint256 initialDate, uint256 endDate)\n        external\n        view\n        returns (Rank[] memory)\n    {\n        Rank[] memory rank = getRank(initialDate, endDate);\n\n        Rank[] memory ret = new Rank[](5);\n\n        ret[0] = Rank(0, 0);\n        ret[1] = Rank(0, 0);\n        ret[2] = Rank(0, 0);\n        ret[3] = Rank(0, 0);\n        ret[4] = Rank(0, 0);\n        for (uint256 index = 0; index < rank.length; index++) {\n            if (rank[index].points > ret[0].points) {\n                ret[4] = ret[3];\n                ret[3] = ret[2];\n                ret[2] = ret[1];\n                ret[1] = ret[0];\n                ret[0] = rank[index];\n            } else if (rank[index].points > ret[1].points) {\n                ret[4] = ret[3];\n                ret[3] = ret[2];\n                ret[2] = ret[1];\n                ret[1] = rank[index];\n            } else if (rank[index].points > ret[2].points) {\n                ret[4] = ret[3];\n                ret[3] = ret[2];\n                ret[2] = rank[index];\n            } else if (rank[index].points > ret[3].points) {\n                ret[4] = ret[3];\n                ret[3] = rank[index];\n            } else if (rank[index].points > ret[4].points) {\n                ret[4] = rank[index];\n            }\n        }\n\n        return ret;\n    }\n\n    function getRank(uint256 initialDate, uint256 endDate)\n        public\n        view\n        returns (Rank[] memory)\n    {\n        uint256 heroSize = GameToken(_gameTokenAddress).getNextHeroId();\n\n        Rank[] memory ret = new Rank[](heroSize);\n\n        for (uint256 heroId = 0; heroId < heroSize; heroId++) {\n            uint32 points = 0;\n\n            for (uint256 j = 0; j < _battles[heroId].length; j++) {\n                if (\n                    initialDate <= _battles[heroId][j].date &&\n                    _battles[heroId][j].date <= endDate\n                ) {\n                    points += _battles[heroId][j].points;\n                }\n            }\n\n            ret[heroId] = Rank(heroId, points);\n        }\n\n        return ret;\n    }\n\n    function getBattles(uint256 _heroId)\n        external\n        view\n        returns (BattleDTO[] memory)\n    {\n        BattleDTO[] memory ret = new BattleDTO[](_battles[_heroId].length);\n\n        for (uint256 index = 0; index < _battles[_heroId].length; index++) {\n            Battle memory b = _battles[_heroId][index];\n            ret[index] = BattleDTO(\n                b.aHeroId,\n                b.dHeroId,\n                b.points,\n                b.date,\n                GameToken(_gameTokenAddress).tokenURI(b.dHeroId)\n            );\n        }\n\n        return ret;\n    }\n\n    function rand(\n        uint256 seed1,\n        uint256 seed2,\n        uint256 limit\n    ) private view returns (uint256) {\n        uint256 seed = uint256(\n            keccak256(\n                abi.encodePacked(\n                    block.timestamp +\n                        block.difficulty +\n                        seed1 +\n                        seed2 +\n                        ((\n                            uint256(keccak256(abi.encodePacked(block.coinbase)))\n                        ) / (block.timestamp)) +\n                        block.gaslimit +\n                        ((uint256(keccak256(abi.encodePacked(msg.sender)))) /\n                            (block.timestamp)) +\n                        block.number\n                )\n            )\n        );\n\n        return (seed - ((seed / (limit + 1)) * (limit + 1)));\n    }\n}\n",
  "sourcePath": "/home/rfaita/game/nft-game/contract/contracts/BattleSystem.sol",
  "compiler": {
    "name": "solc",
    "version": "0.8.9+commit.e5eed63a.Emscripten.clang"
  },
  "schemaVersion": "3.4.7",
  "updatedAt": "2022-05-11T14:16:33.028Z",
  "networkType": "ethereum",
  "devdoc": {
    "kind": "dev",
    "methods": {
      "owner()": {
        "details": "Returns the address of the current owner."
      },
      "renounceOwnership()": {
        "details": "Leaves the contract without owner. It will not be possible to call `onlyOwner` functions anymore. Can only be called by the current owner. NOTE: Renouncing ownership will leave the contract without an owner, thereby removing any functionality that is only available to the owner."
      },
      "transferOwnership(address)": {
        "details": "Transfers ownership of the contract to a new account (`newOwner`). Can only be called by the current owner."
      }
    },
    "version": 1
  },
  "userdoc": {
    "kind": "user",
    "methods": {},
    "version": 1
  }
}