{
  "contractName": "BattleSystem",
  "abi": [
    {
      "inputs": [
        {
          "internalType": "address",
          "name": "gameTokenAddress",
          "type": "address"
        }
      ],
      "stateMutability": "nonpayable",
      "type": "constructor"
    },
    {
      "anonymous": false,
      "inputs": [
        {
          "indexed": true,
          "internalType": "address",
          "name": "previousOwner",
          "type": "address"
        },
        {
          "indexed": true,
          "internalType": "address",
          "name": "newOwner",
          "type": "address"
        }
      ],
      "name": "OwnershipTransferred",
      "type": "event"
    },
    {
      "inputs": [],
      "name": "owner",
      "outputs": [
        {
          "internalType": "address",
          "name": "",
          "type": "address"
        }
      ],
      "stateMutability": "view",
      "type": "function",
      "constant": true
    },
    {
      "inputs": [],
      "name": "renounceOwnership",
      "outputs": [],
      "stateMutability": "nonpayable",
      "type": "function"
    },
    {
      "inputs": [
        {
          "internalType": "address",
          "name": "newOwner",
          "type": "address"
        }
      ],
      "name": "transferOwnership",
      "outputs": [],
      "stateMutability": "nonpayable",
      "type": "function"
    },
    {
      "inputs": [
        {
          "internalType": "uint256",
          "name": "_aHeroId",
          "type": "uint256"
        },
        {
          "internalType": "uint256",
          "name": "_bHeroId",
          "type": "uint256"
        }
      ],
      "name": "battle",
      "outputs": [],
      "stateMutability": "payable",
      "type": "function",
      "payable": true
    },
    {
      "inputs": [
        {
          "internalType": "uint256",
          "name": "initialDate",
          "type": "uint256"
        },
        {
          "internalType": "uint256",
          "name": "endDate",
          "type": "uint256"
        }
      ],
      "name": "getRank",
      "outputs": [
        {
          "components": [
            {
              "internalType": "uint256",
              "name": "heroId",
              "type": "uint256"
            },
            {
              "internalType": "uint32",
              "name": "points",
              "type": "uint32"
            }
          ],
          "internalType": "struct BattleSystem.Rank[]",
          "name": "",
          "type": "tuple[]"
        }
      ],
      "stateMutability": "view",
      "type": "function",
      "constant": true
    },
    {
      "inputs": [
        {
          "internalType": "uint256",
          "name": "_heroId",
          "type": "uint256"
        }
      ],
      "name": "getBattles",
      "outputs": [
        {
          "components": [
            {
              "internalType": "uint256",
              "name": "aHeroId",
              "type": "uint256"
            },
            {
              "internalType": "uint256",
              "name": "dHeroId",
              "type": "uint256"
            },
            {
              "internalType": "uint8",
              "name": "points",
              "type": "uint8"
            },
            {
              "internalType": "uint256",
              "name": "date",
              "type": "uint256"
            }
          ],
          "internalType": "struct BattleSystem.Battle[]",
          "name": "",
          "type": "tuple[]"
        }
      ],
      "stateMutability": "view",
      "type": "function",
      "constant": true
    }
  ],
  "bytecode": "0x60806040523480156200001157600080fd5b5060405162001fbd38038062001fbd8339818101604052810190620000379190620001d5565b620000576200004b6200009f60201b60201c565b620000a760201b60201c565b80600160006101000a81548173ffffffffffffffffffffffffffffffffffffffff021916908373ffffffffffffffffffffffffffffffffffffffff1602179055505062000207565b600033905090565b60008060009054906101000a900473ffffffffffffffffffffffffffffffffffffffff169050816000806101000a81548173ffffffffffffffffffffffffffffffffffffffff021916908373ffffffffffffffffffffffffffffffffffffffff1602179055508173ffffffffffffffffffffffffffffffffffffffff168173ffffffffffffffffffffffffffffffffffffffff167f8be0079c531659141344cd1fd0a4f28419497f9722a3daafe3b4186f6b6457e060405160405180910390a35050565b600080fd5b600073ffffffffffffffffffffffffffffffffffffffff82169050919050565b60006200019d8262000170565b9050919050565b620001af8162000190565b8114620001bb57600080fd5b50565b600081519050620001cf81620001a4565b92915050565b600060208284031215620001ee57620001ed6200016b565b5b6000620001fe84828501620001be565b91505092915050565b611da680620002176000396000f3fe6080604052600436106100555760003560e01c80632a0c52211461005a57806357e10ace14610076578063715018a6146100b3578063867e5ef5146100ca5780638da5cb5b14610107578063f2fde38b14610132575b600080fd5b610074600480360381019061006f9190610f3f565b61015b565b005b34801561008257600080fd5b5061009d60048036038101906100989190610f3f565b6103fa565b6040516100aa919061108b565b60405180910390f35b3480156100bf57600080fd5b506100c8610668565b005b3480156100d657600080fd5b506100f160048036038101906100ec91906110ad565b6106f0565b6040516100fe91906111fa565b60405180910390f35b34801561011357600080fd5b5061011c61079d565b604051610129919061125d565b60405180910390f35b34801561013e57600080fd5b50610159600480360381019061015491906112a4565b6107c6565b005b8082141561019e576040517f08c379a000000000000000000000000000000000000000000000000000000000815260040161019590611354565b60405180910390fd5b600160009054906101000a900473ffffffffffffffffffffffffffffffffffffffff1673ffffffffffffffffffffffffffffffffffffffff16636352211e836040518263ffffffff1660e01b81526004016101f99190611383565b60206040518083038186803b15801561021157600080fd5b505afa158015610225573d6000803e3d6000fd5b505050506040513d601f19601f8201168201806040525081019061024991906113b3565b73ffffffffffffffffffffffffffffffffffffffff163373ffffffffffffffffffffffffffffffffffffffff16146102b6576040517f08c379a00000000000000000000000000000000000000000000000000000000081526004016102ad9061142c565b60405180910390fd5b60006102c283836108be565b90506003600084815260200190815260200160002060405180608001604052808581526020018481526020018360ff168152602001428152509080600181540180825580915050600190039060005260206000209060040201600090919091909150600082015181600001556020820151816001015560408201518160020160006101000a81548160ff021916908360ff160217905550606082015181600301555050600160009054906101000a900473ffffffffffffffffffffffffffffffffffffffff1673ffffffffffffffffffffffffffffffffffffffff1663484a20328460016040518363ffffffff1660e01b81526004016103c3929190611469565b600060405180830381600087803b1580156103dd57600080fd5b505af11580156103f1573d6000803e3d6000fd5b50505050505050565b60606000600160009054906101000a900473ffffffffffffffffffffffffffffffffffffffff1673ffffffffffffffffffffffffffffffffffffffff16636d8411b06040518163ffffffff1660e01b815260040160206040518083038186803b15801561046657600080fd5b505afa15801561047a573d6000803e3d6000fd5b505050506040513d601f19601f8201168201806040525081019061049e91906114a7565b905060008167ffffffffffffffff8111156104bc576104bb6114d4565b5b6040519080825280602002602001820160405280156104f557816020015b6104e2610ed5565b8152602001906001900390816104da5790505b50905060005b8281101561065c576000805b600360008481526020019081526020016000208054905081101561060e5760036000848152602001908152602001600020818154811061054a57610549611503565b5b90600052602060002090600402016003015488111580156105a157508660036000858152602001908152602001600020828154811061058c5761058b611503565b5b90600052602060002090600402016003015411155b156105fb576003600084815260200190815260200160002081815481106105cb576105ca611503565b5b906000526020600020906004020160020160009054906101000a900460ff1660ff16826105f89190611561565b91505b80806106069061159b565b915050610507565b5060405180604001604052808381526020018263ffffffff1681525083838151811061063d5761063c611503565b5b60200260200101819052505080806106549061159b565b9150506104fb565b50809250505092915050565b610670610bdc565b73ffffffffffffffffffffffffffffffffffffffff1661068e61079d565b73ffffffffffffffffffffffffffffffffffffffff16146106e4576040517f08c379a00000000000000000000000000000000000000000000000000000000081526004016106db90611630565b60405180910390fd5b6106ee6000610be4565b565b606060036000838152602001908152602001600020805480602002602001604051908101604052809291908181526020016000905b82821015610792578382906000526020600020906004020160405180608001604052908160008201548152602001600182015481526020016002820160009054906101000a900460ff1660ff1660ff16815260200160038201548152505081526020019060010190610725565b505050509050919050565b60008060009054906101000a900473ffffffffffffffffffffffffffffffffffffffff16905090565b6107ce610bdc565b73ffffffffffffffffffffffffffffffffffffffff166107ec61079d565b73ffffffffffffffffffffffffffffffffffffffff1614610842576040517f08c379a000000000000000000000000000000000000000000000000000000000815260040161083990611630565b60405180910390fd5b600073ffffffffffffffffffffffffffffffffffffffff168173ffffffffffffffffffffffffffffffffffffffff1614156108b2576040517f08c379a00000000000000000000000000000000000000000000000000000000081526004016108a9906116c2565b60405180910390fd5b6108bb81610be4565b50565b600080600160009054906101000a900473ffffffffffffffffffffffffffffffffffffffff1673ffffffffffffffffffffffffffffffffffffffff166321d80111856040518263ffffffff1660e01b815260040161091c9190611383565b60006040518083038186803b15801561093457600080fd5b505afa158015610948573d6000803e3d6000fd5b505050506040513d6000823e3d601f19601f8201168201806040525081019061097191906119c5565b90506000600160009054906101000a900473ffffffffffffffffffffffffffffffffffffffff1673ffffffffffffffffffffffffffffffffffffffff166321d80111856040518263ffffffff1660e01b81526004016109d09190611383565b60006040518083038186803b1580156109e857600080fd5b505afa1580156109fc573d6000803e3d6000fd5b505050506040513d6000823e3d601f19601f82011682018060405250810190610a2591906119c5565b90506000610a3282610ca8565b60ff16610a3e84610ca8565b60ff1614610a6657610a4f82610ca8565b60ff16610a5b84610ca8565b60ff16119050610a76565b6000610a726001610cb6565b1490505b6000610a8184610dcc565b90506000610a8e84610dcc565b90505b60008260010b138015610aa7575060008160010b135b15610b825760006001610aba6064610cb6565b610ac49190611a0e565b90506000610ad187610df9565b90506000610ade87610df9565b90508515610b325760008560010b1315610b01578184610afe9190611a71565b93505b60008460010b1315610b2d57610b178888610e61565b8310610b2c578085610b299190611a71565b94505b5b610b7a565b60008460010b1315610b4d578085610b4a9190611a71565b94505b60008560010b1315610b7957610b638789610e61565b8310610b78578184610b759190611a71565b93505b5b5b505050610a91565b60008260010b13610b94576000610bcf565b60008560e001518560e00151610baa9190611ae7565b60ff1611610bb9576001610bce565b8460e001518460e00151610bcd9190611ae7565b5b5b9550505050505092915050565b600033905090565b60008060009054906101000a900473ffffffffffffffffffffffffffffffffffffffff169050816000806101000a81548173ffffffffffffffffffffffffffffffffffffffff021916908373ffffffffffffffffffffffffffffffffffffffff1602179055508173ffffffffffffffffffffffffffffffffffffffff168173ffffffffffffffffffffffffffffffffffffffff167f8be0079c531659141344cd1fd0a4f28419497f9722a3daafe3b4186f6b6457e060405160405180910390a35050565b60008160a001519050919050565b600080434233604051602001610ccc9190611b63565b6040516020818303038152906040528051906020012060001c610cef9190611bad565b454241604051602001610d029190611c19565b6040516020818303038152906040528051906020012060001c610d259190611bad565b4442610d319190611a0e565b610d3b9190611a0e565b610d459190611a0e565b610d4f9190611a0e565b610d599190611a0e565b604051602001610d699190611c55565b6040516020818303038152906040528051906020012060001c9050600183610d919190611c70565b60ff16600184610da19190611c70565b60ff1682610daf9190611bad565b610db99190611ca7565b81610dc49190611d01565b915050919050565b60006002610dd983610eab565b610de39190611d35565b6008610def9190611c70565b60ff169050919050565b6000806001610e086064610cb6565b610e129190611a0e565b905060006002610e2185610eb9565b610e2b9190611d35565b90508060ff16821115610e3f576001610e42565b60025b610e4b85610ec7565b610e559190611d35565b60ff1692505050919050565b6000806005610e6f84610ca8565b610e7886610ca8565b610e829190611ae7565b610e8c9190611d35565b905060328160ff1610610e9e57603290505b8060ff1691505092915050565b600081608001519050919050565b60008160c001519050919050565b600081606001519050919050565b604051806040016040528060008152602001600063ffffffff1681525090565b6000604051905090565b600080fd5b600080fd5b6000819050919050565b610f1c81610f09565b8114610f2757600080fd5b50565b600081359050610f3981610f13565b92915050565b60008060408385031215610f5657610f55610eff565b5b6000610f6485828601610f2a565b9250506020610f7585828601610f2a565b9150509250929050565b600081519050919050565b600082825260208201905092915050565b6000819050602082019050919050565b610fb481610f09565b82525050565b600063ffffffff82169050919050565b610fd381610fba565b82525050565b604082016000820151610fef6000850182610fab565b5060208201516110026020850182610fca565b50505050565b60006110148383610fd9565b60408301905092915050565b6000602082019050919050565b600061103882610f7f565b6110428185610f8a565b935061104d83610f9b565b8060005b8381101561107e5781516110658882611008565b975061107083611020565b925050600181019050611051565b5085935050505092915050565b600060208201905081810360008301526110a5818461102d565b905092915050565b6000602082840312156110c3576110c2610eff565b5b60006110d184828501610f2a565b91505092915050565b600081519050919050565b600082825260208201905092915050565b6000819050602082019050919050565b600060ff82169050919050565b61111c81611106565b82525050565b6080820160008201516111386000850182610fab565b50602082015161114b6020850182610fab565b50604082015161115e6040850182611113565b5060608201516111716060850182610fab565b50505050565b60006111838383611122565b60808301905092915050565b6000602082019050919050565b60006111a7826110da565b6111b181856110e5565b93506111bc836110f6565b8060005b838110156111ed5781516111d48882611177565b97506111df8361118f565b9250506001810190506111c0565b5085935050505092915050565b60006020820190508181036000830152611214818461119c565b905092915050565b600073ffffffffffffffffffffffffffffffffffffffff82169050919050565b60006112478261121c565b9050919050565b6112578161123c565b82525050565b6000602082019050611272600083018461124e565b92915050565b6112818161123c565b811461128c57600080fd5b50565b60008135905061129e81611278565b92915050565b6000602082840312156112ba576112b9610eff565b5b60006112c88482850161128f565b91505092915050565b600082825260208201905092915050565b7f596f752063616e277420626174746c6520616761696e737420796f757273656c60008201527f6600000000000000000000000000000000000000000000000000000000000000602082015250565b600061133e6021836112d1565b9150611349826112e2565b604082019050919050565b6000602082019050818103600083015261136d81611331565b9050919050565b61137d81610f09565b82525050565b60006020820190506113986000830184611374565b92915050565b6000815190506113ad81611278565b92915050565b6000602082840312156113c9576113c8610eff565b5b60006113d78482850161139e565b91505092915050565b7f4e6f74206f776e6572206f662061747461636b65720000000000000000000000600082015250565b60006114166015836112d1565b9150611421826113e0565b602082019050919050565b6000602082019050818103600083015261144581611409565b9050919050565b600061ffff82169050919050565b6114638161144c565b82525050565b600060408201905061147e6000830185611374565b61148b602083018461145a565b9392505050565b6000815190506114a181610f13565b92915050565b6000602082840312156114bd576114bc610eff565b5b60006114cb84828501611492565b91505092915050565b7f4e487b7100000000000000000000000000000000000000000000000000000000600052604160045260246000fd5b7f4e487b7100000000000000000000000000000000000000000000000000000000600052603260045260246000fd5b7f4e487b7100000000000000000000000000000000000000000000000000000000600052601160045260246000fd5b600061156c82610fba565b915061157783610fba565b92508263ffffffff038211156115905761158f611532565b5b828201905092915050565b60006115a682610f09565b91507fffffffffffffffffffffffffffffffffffffffffffffffffffffffffffffffff8214156115d9576115d8611532565b5b600182019050919050565b7f4f776e61626c653a2063616c6c6572206973206e6f7420746865206f776e6572600082015250565b600061161a6020836112d1565b9150611625826115e4565b602082019050919050565b600060208201905081810360008301526116498161160d565b9050919050565b7f4f776e61626c653a206e6577206f776e657220697320746865207a65726f206160008201527f6464726573730000000000000000000000000000000000000000000000000000602082015250565b60006116ac6026836112d1565b91506116b782611650565b604082019050919050565b600060208201905081810360008301526116db8161169f565b9050919050565b600080fd5b6000601f19601f8301169050919050565b611701826116e7565b810181811067ffffffffffffffff821117156117205761171f6114d4565b5b80604052505050565b6000611733610ef5565b905061173f82826116f8565b919050565b600080fd5b600080fd5b600080fd5b600067ffffffffffffffff82111561176e5761176d6114d4565b5b611777826116e7565b9050602081019050919050565b60005b838110156117a2578082015181840152602081019050611787565b838111156117b1576000848401525b50505050565b60006117ca6117c584611753565b611729565b9050828152602081018484840111156117e6576117e561174e565b5b6117f1848285611784565b509392505050565b600082601f83011261180e5761180d611749565b5b815161181e8482602086016117b7565b91505092915050565b6004811061183457600080fd5b50565b60008151905061184681611827565b92915050565b6004811061185957600080fd5b50565b60008151905061186b8161184c565b92915050565b61187a81611106565b811461188557600080fd5b50565b60008151905061189781611871565b92915050565b6118a68161144c565b81146118b157600080fd5b50565b6000815190506118c38161189d565b92915050565b600061012082840312156118e0576118df6116e2565b5b6118eb610120611729565b9050600082015167ffffffffffffffff81111561190b5761190a611744565b5b611917848285016117f9565b600083015250602061192b84828501611837565b602083015250604061193f8482850161185c565b604083015250606061195384828501611888565b606083015250608061196784828501611888565b60808301525060a061197b84828501611888565b60a08301525060c061198f84828501611888565b60c08301525060e06119a384828501611888565b60e0830152506101006119b8848285016118b4565b6101008301525092915050565b6000602082840312156119db576119da610eff565b5b600082015167ffffffffffffffff8111156119f9576119f8610f04565b5b611a05848285016118c9565b91505092915050565b6000611a1982610f09565b9150611a2483610f09565b9250827fffffffffffffffffffffffffffffffffffffffffffffffffffffffffffffffff03821115611a5957611a58611532565b5b828201905092915050565b60008160010b9050919050565b6000611a7c82611a64565b9150611a8783611a64565b9250827fffffffffffffffffffffffffffffffffffffffffffffffffffffffffffff800001821260008412151615611ac257611ac1611532565b5b82617fff018213600084121615611adc57611adb611532565b5b828203905092915050565b6000611af282611106565b9150611afd83611106565b925082821015611b1057611b0f611532565b5b828203905092915050565b60008160601b9050919050565b6000611b3382611b1b565b9050919050565b6000611b4582611b28565b9050919050565b611b5d611b588261123c565b611b3a565b82525050565b6000611b6f8284611b4c565b60148201915081905092915050565b7f4e487b7100000000000000000000000000000000000000000000000000000000600052601260045260246000fd5b6000611bb882610f09565b9150611bc383610f09565b925082611bd357611bd2611b7e565b5b828204905092915050565b6000611be98261121c565b9050919050565b6000611bfb82611b28565b9050919050565b611c13611c0e82611bde565b611bf0565b82525050565b6000611c258284611c02565b60148201915081905092915050565b6000819050919050565b611c4f611c4a82610f09565b611c34565b82525050565b6000611c618284611c3e565b60208201915081905092915050565b6000611c7b82611106565b9150611c8683611106565b92508260ff03821115611c9c57611c9b611532565b5b828201905092915050565b6000611cb282610f09565b9150611cbd83610f09565b9250817fffffffffffffffffffffffffffffffffffffffffffffffffffffffffffffffff0483118215151615611cf657611cf5611532565b5b828202905092915050565b6000611d0c82610f09565b9150611d1783610f09565b925082821015611d2a57611d29611532565b5b828203905092915050565b6000611d4082611106565b9150611d4b83611106565b92508160ff0483118215151615611d6557611d64611532565b5b82820290509291505056fea2646970667358221220a64b7790f49891209a846c40453955bfdfa059389e5a7c32f18c0441e8e79c3864736f6c63430008090033",
  "immutableReferences": {},
  "source": "pragma solidity 0.8.9;\n\nimport \"../node_modules/@openzeppelin/contracts/access/Ownable.sol\";\nimport \"./GameToken.sol\";\n\ncontract BattleSystem is Ownable {\n    address private _gameTokenAddress;\n    address private _itemAddress;\n\n    struct Battle {\n        uint256 aHeroId;\n        uint256 dHeroId;\n        uint8 points;\n        uint256 date;\n    }\n\n    struct Rank {\n        uint256 heroId;\n        uint32 points;\n    }\n\n    mapping(uint256 => Battle[]) private _battles;\n\n    constructor(address gameTokenAddress) {\n        _gameTokenAddress = gameTokenAddress;\n    }\n\n    function battle(uint256 _aHeroId, uint256 _bHeroId) external payable {\n        require(_aHeroId != _bHeroId, \"You can't battle against yourself\");\n        require(\n            msg.sender == GameToken(_gameTokenAddress).ownerOf(_aHeroId),\n            \"Not owner of attacker\"\n        );\n\n        uint8 points = combat(_aHeroId, _bHeroId);\n\n        _battles[_aHeroId].push(Battle(_aHeroId, _bHeroId, points , block.timestamp));\n\n        GameToken(_gameTokenAddress).levelUp(_aHeroId, uint16(1));\n\n    }\n\n    function combat(uint256 _aHeroId, uint256 _bHeroId)\n        internal\n        view\n        returns (uint8)\n    {\n        GameToken.Hero memory aHero = GameToken(_gameTokenAddress).getHero(\n            _aHeroId\n        );\n\n        GameToken.Hero memory bHero = GameToken(_gameTokenAddress).getHero(\n            _bHeroId\n        );\n\n        bool aHighDex;\n\n        if (getDex(aHero) != getDex(bHero)) {\n            aHighDex = getDex(aHero) > getDex(bHero);\n        } else {\n            aHighDex = (rand(1) == 0);\n        }\n\n        int16 aHP = getHP(aHero);\n        int16 bHP = getHP(bHero);\n\n        while (aHP > 0 && bHP > 0) {\n            uint256 dodgeRandom = rand(100) + 1;\n            int16 aDmg = getDmg(aHero);\n            int16 bDmg = getDmg(bHero);\n            if (aHighDex) {\n                if (aHP > 0) {\n                    bHP -= aDmg;\n                }\n                if (bHP > 0) {\n                    if (dodgeRandom >= getDodgeChance(aHero, bHero)) {\n                        aHP -= bDmg;\n                    }\n                }\n            } else {\n                if (bHP > 0) {\n                    aHP -= bDmg;\n                }\n                if (aHP > 0) {\n                    if (dodgeRandom >= getDodgeChance(bHero, aHero)) {\n                        bHP -= aDmg;\n                    }\n                }\n            }\n        }\n\n        return\n            (aHP > 0)\n                ? (\n                    (bHero.level - aHero.level) > 0\n                        ? bHero.level - aHero.level\n                        : 1\n                )\n                : 0;\n    }\n\n    function getDex(GameToken.Hero memory _hero) internal pure returns(uint8) {\n        return _hero.dex;\n    }\n\n    function getStr(GameToken.Hero memory _hero) internal pure returns(uint8) {\n        return _hero.str;\n    }\n\n    function getCon(GameToken.Hero memory _hero) internal pure returns(uint8) {\n        return _hero.con;\n    }\n\n    function getWis(GameToken.Hero memory _hero) internal pure returns(uint8) {\n        return _hero.wis;\n    }\n\n    function getHP(GameToken.Hero memory _hero) internal pure returns(int16) {\n        return int16(uint16(8 + (getCon(_hero) * 2)));\n    }\n\n    function getDodgeChance(\n        GameToken.Hero memory _aHero,\n        GameToken.Hero memory _bHero\n    ) internal pure returns (uint256) {\n        uint8 dodgeChance = (getDex(_aHero) - getDex(_bHero)) * 5;\n        if (dodgeChance >= 50) {\n            dodgeChance = 50;\n        }\n\n        return uint256(dodgeChance);\n    }\n\n    function getDmg(GameToken.Hero memory _hero) internal view returns (int16) {\n        uint256 critRandom = rand(100) + 1;\n\n        uint8 critChance = getWis(_hero) * 2;\n\n        return\n            int16(\n                uint16(getStr(_hero) * (critRandom <= uint256(critChance) ? 2 : 1))\n            );\n    }\n\n    function getRank(uint256 initialDate, uint256 endDate)\n        external\n        view\n        returns (Rank[] memory)\n    {\n        uint256 heroSize = GameToken(_gameTokenAddress).getCurrentHeroId();\n\n        Rank[] memory ret = new Rank[](heroSize);\n\n        for (uint256 heroId = 0; heroId < heroSize; heroId++) {\n            uint32 points = 0;\n\n            for (uint256 j = 0; j < _battles[heroId].length; j++) {\n                if (\n                    initialDate <= _battles[heroId][j].date &&\n                    _battles[heroId][j].date <= endDate\n                ) {\n                    points += _battles[heroId][j].points;\n                }\n            }\n\n            ret[heroId] = Rank(heroId, points);\n        }\n\n        return ret;\n    }\n\n    function getBattles(uint256 _heroId)\n        external\n        view\n        returns (Battle[] memory)\n    {\n        return _battles[_heroId];\n    }\n\n    function rand(uint8 limit) private view returns (uint256) {\n        uint256 seed = uint256(\n            keccak256(\n                abi.encodePacked(\n                    block.timestamp +\n                        block.difficulty +\n                        ((\n                            uint256(keccak256(abi.encodePacked(block.coinbase)))\n                        ) / (block.timestamp)) +\n                        block.gaslimit +\n                        ((uint256(keccak256(abi.encodePacked(msg.sender)))) /\n                            (block.timestamp)) +\n                        block.number\n                )\n            )\n        );\n\n        return (seed - ((seed / (limit + 1)) * (limit + 1)));\n    }\n}\n",
  "sourcePath": "/home/rfaita/game/nft-game/contract/contracts/BattleSystem.sol",
  "compiler": {
    "name": "solc",
    "version": "0.8.9+commit.e5eed63a.Emscripten.clang"
  },
  "schemaVersion": "3.4.3",
  "updatedAt": "2021-11-16T20:59:16.250Z",
  "networkType": "ethereum",
  "devdoc": {
    "kind": "dev",
    "methods": {
      "owner()": {
        "details": "Returns the address of the current owner."
      },
      "renounceOwnership()": {
        "details": "Leaves the contract without owner. It will not be possible to call `onlyOwner` functions anymore. Can only be called by the current owner. NOTE: Renouncing ownership will leave the contract without an owner, thereby removing any functionality that is only available to the owner."
      },
      "transferOwnership(address)": {
        "details": "Transfers ownership of the contract to a new account (`newOwner`). Can only be called by the current owner."
      }
    },
    "version": 1
  },
  "userdoc": {
    "kind": "user",
    "methods": {},
    "version": 1
  }
}