{
  "contractName": "BattleSystem",
  "abi": [
    {
      "inputs": [
        {
          "internalType": "address",
          "name": "gameTokenAddress",
          "type": "address"
        }
      ],
      "stateMutability": "nonpayable",
      "type": "constructor"
    },
    {
      "anonymous": false,
      "inputs": [
        {
          "indexed": true,
          "internalType": "address",
          "name": "owner",
          "type": "address"
        },
        {
          "indexed": true,
          "internalType": "uint256",
          "name": "aHeroId",
          "type": "uint256"
        },
        {
          "indexed": true,
          "internalType": "uint256",
          "name": "dHeroId",
          "type": "uint256"
        },
        {
          "indexed": false,
          "internalType": "uint8",
          "name": "points",
          "type": "uint8"
        },
        {
          "indexed": false,
          "internalType": "uint256",
          "name": "date",
          "type": "uint256"
        },
        {
          "indexed": false,
          "internalType": "string",
          "name": "tokenURI",
          "type": "string"
        }
      ],
      "name": "BattleEnd",
      "type": "event"
    },
    {
      "anonymous": false,
      "inputs": [
        {
          "indexed": true,
          "internalType": "address",
          "name": "previousOwner",
          "type": "address"
        },
        {
          "indexed": true,
          "internalType": "address",
          "name": "newOwner",
          "type": "address"
        }
      ],
      "name": "OwnershipTransferred",
      "type": "event"
    },
    {
      "inputs": [],
      "name": "owner",
      "outputs": [
        {
          "internalType": "address",
          "name": "",
          "type": "address"
        }
      ],
      "stateMutability": "view",
      "type": "function",
      "constant": true
    },
    {
      "inputs": [],
      "name": "renounceOwnership",
      "outputs": [],
      "stateMutability": "nonpayable",
      "type": "function"
    },
    {
      "inputs": [
        {
          "internalType": "address",
          "name": "newOwner",
          "type": "address"
        }
      ],
      "name": "transferOwnership",
      "outputs": [],
      "stateMutability": "nonpayable",
      "type": "function"
    },
    {
      "inputs": [
        {
          "internalType": "address",
          "name": "_newConsumableAddress",
          "type": "address"
        }
      ],
      "name": "setConsumableAddress",
      "outputs": [],
      "stateMutability": "nonpayable",
      "type": "function"
    },
    {
      "inputs": [
        {
          "internalType": "uint256",
          "name": "_aHeroId",
          "type": "uint256"
        }
      ],
      "name": "battle",
      "outputs": [],
      "stateMutability": "nonpayable",
      "type": "function"
    },
    {
      "inputs": [
        {
          "internalType": "uint256",
          "name": "initialDate",
          "type": "uint256"
        },
        {
          "internalType": "uint256",
          "name": "endDate",
          "type": "uint256"
        }
      ],
      "name": "getRank",
      "outputs": [
        {
          "components": [
            {
              "internalType": "uint256",
              "name": "heroId",
              "type": "uint256"
            },
            {
              "internalType": "uint32",
              "name": "points",
              "type": "uint32"
            }
          ],
          "internalType": "struct BattleSystem.Rank[]",
          "name": "",
          "type": "tuple[]"
        }
      ],
      "stateMutability": "view",
      "type": "function",
      "constant": true
    },
    {
      "inputs": [
        {
          "internalType": "uint256",
          "name": "_heroId",
          "type": "uint256"
        }
      ],
      "name": "getBattles",
      "outputs": [
        {
          "components": [
            {
              "internalType": "uint256",
              "name": "aHeroId",
              "type": "uint256"
            },
            {
              "internalType": "uint256",
              "name": "dHeroId",
              "type": "uint256"
            },
            {
              "internalType": "uint8",
              "name": "points",
              "type": "uint8"
            },
            {
              "internalType": "uint256",
              "name": "date",
              "type": "uint256"
            },
            {
              "internalType": "string",
              "name": "tokenURI",
              "type": "string"
            }
          ],
          "internalType": "struct BattleSystem.BattleDTO[]",
          "name": "",
          "type": "tuple[]"
        }
      ],
      "stateMutability": "view",
      "type": "function",
      "constant": true
    }
  ],
  "bytecode": "0x60806040523480156200001157600080fd5b5060405162002946380380620029468339818101604052810190620000379190620001d5565b620000576200004b6200009f60201b60201c565b620000a760201b60201c565b80600160006101000a81548173ffffffffffffffffffffffffffffffffffffffff021916908373ffffffffffffffffffffffffffffffffffffffff1602179055505062000207565b600033905090565b60008060009054906101000a900473ffffffffffffffffffffffffffffffffffffffff169050816000806101000a81548173ffffffffffffffffffffffffffffffffffffffff021916908373ffffffffffffffffffffffffffffffffffffffff1602179055508173ffffffffffffffffffffffffffffffffffffffff168173ffffffffffffffffffffffffffffffffffffffff167f8be0079c531659141344cd1fd0a4f28419497f9722a3daafe3b4186f6b6457e060405160405180910390a35050565b600080fd5b600073ffffffffffffffffffffffffffffffffffffffff82169050919050565b60006200019d8262000170565b9050919050565b620001af8162000190565b8114620001bb57600080fd5b50565b600081519050620001cf81620001a4565b92915050565b600060208284031215620001ee57620001ed6200016b565b5b6000620001fe84828501620001be565b91505092915050565b61272f80620002176000396000f3fe608060405234801561001057600080fd5b506004361061007d5760003560e01c8063715018a61161005b578063715018a6146100ea578063867e5ef5146100f45780638da5cb5b14610124578063f2fde38b146101425761007d565b806347e7d47d1461008257806357e10ace1461009e5780635d6de796146100ce575b600080fd5b61009c600480360381019061009791906117a8565b61015e565b005b6100b860048036038101906100b3919061180b565b61021e565b6040516100c59190611957565b60405180910390f35b6100e860048036038101906100e39190611979565b61048c565b005b6100f2610c12565b005b61010e60048036038101906101099190611979565b610c9a565b60405161011b9190611b93565b60405180910390f35b61012c610ed1565b6040516101399190611bc4565b60405180910390f35b61015c600480360381019061015791906117a8565b610efa565b005b610166610ff2565b73ffffffffffffffffffffffffffffffffffffffff16610184610ed1565b73ffffffffffffffffffffffffffffffffffffffff16146101da576040517f08c379a00000000000000000000000000000000000000000000000000000000081526004016101d190611c3c565b60405180910390fd5b80600260006101000a81548173ffffffffffffffffffffffffffffffffffffffff021916908373ffffffffffffffffffffffffffffffffffffffff16021790555050565b60606000600160009054906101000a900473ffffffffffffffffffffffffffffffffffffffff1673ffffffffffffffffffffffffffffffffffffffff16638302adfb6040518163ffffffff1660e01b815260040160206040518083038186803b15801561028a57600080fd5b505afa15801561029e573d6000803e3d6000fd5b505050506040513d601f19601f820116820180604052508101906102c29190611c71565b905060008167ffffffffffffffff8111156102e0576102df611c9e565b5b60405190808252806020026020018201604052801561031957816020015b6103066116e4565b8152602001906001900390816102fe5790505b50905060005b82811015610480576000805b60036000848152602001908152602001600020805490508110156104325760036000848152602001908152602001600020818154811061036e5761036d611ccd565b5b90600052602060002090600402016003015488111580156103c55750866003600085815260200190815260200160002082815481106103b0576103af611ccd565b5b90600052602060002090600402016003015411155b1561041f576003600084815260200190815260200160002081815481106103ef576103ee611ccd565b5b906000526020600020906004020160020160009054906101000a900460ff1660ff168261041c9190611d2b565b91505b808061042a90611d65565b91505061032b565b5060405180604001604052808381526020018263ffffffff1681525083838151811061046157610460611ccd565b5b602002602001018190525050808061047890611d65565b91505061031f565b50809250505092915050565b600160009054906101000a900473ffffffffffffffffffffffffffffffffffffffff1673ffffffffffffffffffffffffffffffffffffffff16636352211e826040518263ffffffff1660e01b81526004016104e79190611dbd565b60206040518083038186803b1580156104ff57600080fd5b505afa158015610513573d6000803e3d6000fd5b505050506040513d601f19601f820116820180604052508101906105379190611ded565b73ffffffffffffffffffffffffffffffffffffffff163373ffffffffffffffffffffffffffffffffffffffff16146105a4576040517f08c379a000000000000000000000000000000000000000000000000000000000815260040161059b90611e66565b60405180910390fd5b6000600160009054906101000a900473ffffffffffffffffffffffffffffffffffffffff1673ffffffffffffffffffffffffffffffffffffffff166321d80111836040518263ffffffff1660e01b81526004016106019190611dbd565b60006040518083038186803b15801561061957600080fd5b505afa15801561062d573d6000803e3d6000fd5b505050506040513d6000823e3d601f19601f820116820180604052508101906106569190612133565b905060008282610100015161ffff16600160009054906101000a900473ffffffffffffffffffffffffffffffffffffffff1673ffffffffffffffffffffffffffffffffffffffff16638302adfb6040518163ffffffff1660e01b815260040160206040518083038186803b1580156106cd57600080fd5b505afa1580156106e1573d6000803e3d6000fd5b505050506040513d601f19601f820116820180604052508101906107059190611c71565b61070f919061217c565b610719919061217c565b9050600081905060006107d7838360018060009054906101000a900473ffffffffffffffffffffffffffffffffffffffff1673ffffffffffffffffffffffffffffffffffffffff16638302adfb6040518163ffffffff1660e01b815260040160206040518083038186803b15801561079057600080fd5b505afa1580156107a4573d6000803e3d6000fd5b505050506040513d601f19601f820116820180604052508101906107c89190611c71565b6107d291906121d2565b610ffa565b905080826107e5919061217c565b915060008186146107ff576107fc84848885611122565b90505b6003600087815260200190815260200160002060405180608001604052808881526020018481526020018360ff168152602001428152509080600181540180825580915050600190039060005260206000209060040201600090919091909150600082015181600001556020820151816001015560408201518160020160006101000a81548160ff021916908360ff1602179055506060820151816003015550506000600360008881526020019081526020016000206001600360008a8152602001908152602001600020805490506108d891906121d2565b815481106108e9576108e8611ccd565b5b906000526020600020906004020160405180608001604052908160008201548152602001600182015481526020016002820160009054906101000a900460ff1660ff1660ff1681526020016003820154815250509050600160009054906101000a900473ffffffffffffffffffffffffffffffffffffffff1673ffffffffffffffffffffffffffffffffffffffff1663484a20328860016040518363ffffffff1660e01b815260040161099d929190612215565b600060405180830381600087803b1580156109b757600080fd5b505af11580156109cb573d6000803e3d6000fd5b505050508160ff16856109de919061217c565b945082876109ec919061217c565b846109f7919061217c565b9350600073ffffffffffffffffffffffffffffffffffffffff16600260009054906101000a900473ffffffffffffffffffffffffffffffffffffffff1673ffffffffffffffffffffffffffffffffffffffff1614158015610a5f57506000816040015160ff16115b15610af257600260009054906101000a900473ffffffffffffffffffffffffffffffffffffffff1673ffffffffffffffffffffffffffffffffffffffff16636a627842336040518263ffffffff1660e01b8152600401610abf9190611bc4565b600060405180830381600087803b158015610ad957600080fd5b505af1158015610aed573d6000803e3d6000fd5b505050505b806020015181600001513373ffffffffffffffffffffffffffffffffffffffff167fe72551baf647f778ed07037580644e505b4d7cde9e7917f0a89c30f13fb8aca284604001518560600151600160009054906101000a900473ffffffffffffffffffffffffffffffffffffffff1673ffffffffffffffffffffffffffffffffffffffff1663c87b56dd88602001516040518263ffffffff1660e01b8152600401610b9d9190611dbd565b60006040518083038186803b158015610bb557600080fd5b505afa158015610bc9573d6000803e3d6000fd5b505050506040513d6000823e3d601f19601f82011682018060405250810190610bf2919061223e565b604051610c01939291906122cf565b60405180910390a450505050505050565b610c1a610ff2565b73ffffffffffffffffffffffffffffffffffffffff16610c38610ed1565b73ffffffffffffffffffffffffffffffffffffffff1614610c8e576040517f08c379a0000000000000000000000000000000000000000000000000000000008152600401610c8590611c3c565b60405180910390fd5b610c9860006114d2565b565b60606000600360008481526020019081526020016000208054905067ffffffffffffffff811115610cce57610ccd611c9e565b5b604051908082528060200260200182016040528015610d0757816020015b610cf4611704565b815260200190600190039081610cec5790505b50905060005b6003600085815260200190815260200160002080549050811015610ec7576000600360008681526020019081526020016000208281548110610d5257610d51611ccd565b5b906000526020600020906004020160405180608001604052908160008201548152602001600182015481526020016002820160009054906101000a900460ff1660ff1660ff16815260200160038201548152505090506040518060a001604052808260000151815260200182602001518152602001826040015160ff16815260200182606001518152602001600160009054906101000a900473ffffffffffffffffffffffffffffffffffffffff1673ffffffffffffffffffffffffffffffffffffffff1663c87b56dd84602001516040518263ffffffff1660e01b8152600401610e3d9190611dbd565b60006040518083038186803b158015610e5557600080fd5b505afa158015610e69573d6000803e3d6000fd5b505050506040513d6000823e3d601f19601f82011682018060405250810190610e92919061223e565b815250838381518110610ea857610ea7611ccd565b5b6020026020010181905250508080610ebf90611d65565b915050610d0d565b5080915050919050565b60008060009054906101000a900473ffffffffffffffffffffffffffffffffffffffff16905090565b610f02610ff2565b73ffffffffffffffffffffffffffffffffffffffff16610f20610ed1565b73ffffffffffffffffffffffffffffffffffffffff1614610f76576040517f08c379a0000000000000000000000000000000000000000000000000000000008152600401610f6d90611c3c565b60405180910390fd5b600073ffffffffffffffffffffffffffffffffffffffff168173ffffffffffffffffffffffffffffffffffffffff161415610fe6576040517f08c379a0000000000000000000000000000000000000000000000000000000008152600401610fdd9061237f565b60405180910390fd5b610fef816114d2565b50565b600033905090565b60008043423360405160200161101091906123e7565b6040516020818303038152906040528051906020012060001c6110339190612431565b454241604051602001611046919061249d565b6040516020818303038152906040528051906020012060001c6110699190612431565b87894442611077919061217c565b611081919061217c565b61108b919061217c565b611095919061217c565b61109f919061217c565b6110a9919061217c565b6110b3919061217c565b6040516020016110c391906124d9565b6040516020818303038152906040528051906020012060001c90506001836110eb919061217c565b6001846110f8919061217c565b826111039190612431565b61110d91906124f4565b8161111891906121d2565b9150509392505050565b600080600160009054906101000a900473ffffffffffffffffffffffffffffffffffffffff1673ffffffffffffffffffffffffffffffffffffffff166321d80111856040518263ffffffff1660e01b81526004016111809190611dbd565b60006040518083038186803b15801561119857600080fd5b505afa1580156111ac573d6000803e3d6000fd5b505050506040513d6000823e3d601f19601f820116820180604052508101906111d59190612133565b90506000600160009054906101000a900473ffffffffffffffffffffffffffffffffffffffff1673ffffffffffffffffffffffffffffffffffffffff166321d80111856040518263ffffffff1660e01b81526004016112349190611dbd565b60006040518083038186803b15801561124c57600080fd5b505afa158015611260573d6000803e3d6000fd5b505050506040513d6000823e3d601f19601f820116820180604052508101906112899190612133565b9050600061129683611596565b60ff16886112a4919061217c565b97506112af82611596565b60ff16876112bd919061217c565b96506112c882611596565b60ff166112d484611596565b60ff16146112fc576112e582611596565b60ff166112f184611596565b60ff1611905061130e565b600061130a89896001610ffa565b1490505b6000611319846115a4565b90506000611326846115a4565b90505b60008260010b13801561133f575060008160010b135b15611476578161ffff168a611354919061217c565b99508061ffff1689611366919061217c565b9850600060016113788c8c6064610ffa565b611382919061217c565b9050808b611390919061217c565b9a50600061139f8c8c896115d1565b90508061ffff168b6113b1919061217c565b9a5060006113c08d8d896115d1565b90508061ffff168d6113d2919061217c565b9c5085156114265760008560010b13156113f55781846113f2919061255b565b93505b60008460010b13156114215761140b8888611670565b831061142057808561141d919061255b565b94505b5b61146e565b60008460010b131561144157808561143e919061255b565b94505b60008560010b131561146d576114578789611670565b831061146c578184611469919061255b565b93505b5b5b505050611329565b60008260010b136114885760006114c3565b60008560e001518560e0015161149e91906125de565b60000b136114ad5760016114c2565b8460e001518460e001516114c19190612653565b5b5b95505050505050949350505050565b60008060009054906101000a900473ffffffffffffffffffffffffffffffffffffffff169050816000806101000a81548173ffffffffffffffffffffffffffffffffffffffff021916908373ffffffffffffffffffffffffffffffffffffffff1602179055508173ffffffffffffffffffffffffffffffffffffffff168173ffffffffffffffffffffffffffffffffffffffff167f8be0079c531659141344cd1fd0a4f28419497f9722a3daafe3b4186f6b6457e060405160405180910390a35050565b60008160a001519050919050565b600060026115b1836116ba565b6115bb9190612687565b60086115c791906126c2565b60ff169050919050565b60006115dc826116c8565b60ff16846115ea919061217c565b93506115f5826116d6565b60ff1683611603919061217c565b92506000600161161586866064610ffa565b61161f919061217c565b90506000600261162e856116d6565b6116389190612687565b90508060ff1682111561164c57600161164f565b60025b611658856116c8565b6116629190612687565b60ff16925050509392505050565b600080600561167e84611596565b61168786611596565b6116919190612653565b61169b9190612687565b905060328160ff16106116ad57603290505b8060ff1691505092915050565b600081608001519050919050565b600081606001519050919050565b60008160c001519050919050565b604051806040016040528060008152602001600063ffffffff1681525090565b6040518060a001604052806000815260200160008152602001600060ff16815260200160008152602001606081525090565b6000604051905090565b600080fd5b600080fd5b600073ffffffffffffffffffffffffffffffffffffffff82169050919050565b60006117758261174a565b9050919050565b6117858161176a565b811461179057600080fd5b50565b6000813590506117a28161177c565b92915050565b6000602082840312156117be576117bd611740565b5b60006117cc84828501611793565b91505092915050565b6000819050919050565b6117e8816117d5565b81146117f357600080fd5b50565b600081359050611805816117df565b92915050565b6000806040838503121561182257611821611740565b5b6000611830858286016117f6565b9250506020611841858286016117f6565b9150509250929050565b600081519050919050565b600082825260208201905092915050565b6000819050602082019050919050565b611880816117d5565b82525050565b600063ffffffff82169050919050565b61189f81611886565b82525050565b6040820160008201516118bb6000850182611877565b5060208201516118ce6020850182611896565b50505050565b60006118e083836118a5565b60408301905092915050565b6000602082019050919050565b60006119048261184b565b61190e8185611856565b935061191983611867565b8060005b8381101561194a57815161193188826118d4565b975061193c836118ec565b92505060018101905061191d565b5085935050505092915050565b6000602082019050818103600083015261197181846118f9565b905092915050565b60006020828403121561198f5761198e611740565b5b600061199d848285016117f6565b91505092915050565b600081519050919050565b600082825260208201905092915050565b6000819050602082019050919050565b600060ff82169050919050565b6119e8816119d2565b82525050565b600081519050919050565b600082825260208201905092915050565b60005b83811015611a28578082015181840152602081019050611a0d565b83811115611a37576000848401525b50505050565b6000601f19601f8301169050919050565b6000611a59826119ee565b611a6381856119f9565b9350611a73818560208601611a0a565b611a7c81611a3d565b840191505092915050565b600060a083016000830151611a9f6000860182611877565b506020830151611ab26020860182611877565b506040830151611ac560408601826119df565b506060830151611ad86060860182611877565b5060808301518482036080860152611af08282611a4e565b9150508091505092915050565b6000611b098383611a87565b905092915050565b6000602082019050919050565b6000611b29826119a6565b611b3381856119b1565b935083602082028501611b45856119c2565b8060005b85811015611b815784840389528151611b628582611afd565b9450611b6d83611b11565b925060208a01995050600181019050611b49565b50829750879550505050505092915050565b60006020820190508181036000830152611bad8184611b1e565b905092915050565b611bbe8161176a565b82525050565b6000602082019050611bd96000830184611bb5565b92915050565b600082825260208201905092915050565b7f4f776e61626c653a2063616c6c6572206973206e6f7420746865206f776e6572600082015250565b6000611c26602083611bdf565b9150611c3182611bf0565b602082019050919050565b60006020820190508181036000830152611c5581611c19565b9050919050565b600081519050611c6b816117df565b92915050565b600060208284031215611c8757611c86611740565b5b6000611c9584828501611c5c565b91505092915050565b7f4e487b7100000000000000000000000000000000000000000000000000000000600052604160045260246000fd5b7f4e487b7100000000000000000000000000000000000000000000000000000000600052603260045260246000fd5b7f4e487b7100000000000000000000000000000000000000000000000000000000600052601160045260246000fd5b6000611d3682611886565b9150611d4183611886565b92508263ffffffff03821115611d5a57611d59611cfc565b5b828201905092915050565b6000611d70826117d5565b91507fffffffffffffffffffffffffffffffffffffffffffffffffffffffffffffffff821415611da357611da2611cfc565b5b600182019050919050565b611db7816117d5565b82525050565b6000602082019050611dd26000830184611dae565b92915050565b600081519050611de78161177c565b92915050565b600060208284031215611e0357611e02611740565b5b6000611e1184828501611dd8565b91505092915050565b7f4e6f74206f776e6572206f662061747461636b65720000000000000000000000600082015250565b6000611e50601583611bdf565b9150611e5b82611e1a565b602082019050919050565b60006020820190508181036000830152611e7f81611e43565b9050919050565b600080fd5b611e9482611a3d565b810181811067ffffffffffffffff82111715611eb357611eb2611c9e565b5b80604052505050565b6000611ec6611736565b9050611ed28282611e8b565b919050565b600080fd5b600080fd5b600080fd5b600067ffffffffffffffff821115611f0157611f00611c9e565b5b611f0a82611a3d565b9050602081019050919050565b6000611f2a611f2584611ee6565b611ebc565b905082815260208101848484011115611f4657611f45611ee1565b5b611f51848285611a0a565b509392505050565b600082601f830112611f6e57611f6d611edc565b5b8151611f7e848260208601611f17565b91505092915050565b60048110611f9457600080fd5b50565b600081519050611fa681611f87565b92915050565b60048110611fb957600080fd5b50565b600081519050611fcb81611fac565b92915050565b611fda816119d2565b8114611fe557600080fd5b50565b600081519050611ff781611fd1565b92915050565b600061ffff82169050919050565b61201481611ffd565b811461201f57600080fd5b50565b6000815190506120318161200b565b92915050565b6000610120828403121561204e5761204d611e86565b5b612059610120611ebc565b9050600082015167ffffffffffffffff81111561207957612078611ed7565b5b61208584828501611f59565b600083015250602061209984828501611f97565b60208301525060406120ad84828501611fbc565b60408301525060606120c184828501611fe8565b60608301525060806120d584828501611fe8565b60808301525060a06120e984828501611fe8565b60a08301525060c06120fd84828501611fe8565b60c08301525060e061211184828501611fe8565b60e08301525061010061212684828501612022565b6101008301525092915050565b60006020828403121561214957612148611740565b5b600082015167ffffffffffffffff81111561216757612166611745565b5b61217384828501612037565b91505092915050565b6000612187826117d5565b9150612192836117d5565b9250827fffffffffffffffffffffffffffffffffffffffffffffffffffffffffffffffff038211156121c7576121c6611cfc565b5b828201905092915050565b60006121dd826117d5565b91506121e8836117d5565b9250828210156121fb576121fa611cfc565b5b828203905092915050565b61220f81611ffd565b82525050565b600060408201905061222a6000830185611dae565b6122376020830184612206565b9392505050565b60006020828403121561225457612253611740565b5b600082015167ffffffffffffffff81111561227257612271611745565b5b61227e84828501611f59565b91505092915050565b612290816119d2565b82525050565b60006122a1826119ee565b6122ab8185611bdf565b93506122bb818560208601611a0a565b6122c481611a3d565b840191505092915050565b60006060820190506122e46000830186612287565b6122f16020830185611dae565b81810360408301526123038184612296565b9050949350505050565b7f4f776e61626c653a206e6577206f776e657220697320746865207a65726f206160008201527f6464726573730000000000000000000000000000000000000000000000000000602082015250565b6000612369602683611bdf565b91506123748261230d565b604082019050919050565b600060208201905081810360008301526123988161235c565b9050919050565b60008160601b9050919050565b60006123b78261239f565b9050919050565b60006123c9826123ac565b9050919050565b6123e16123dc8261176a565b6123be565b82525050565b60006123f382846123d0565b60148201915081905092915050565b7f4e487b7100000000000000000000000000000000000000000000000000000000600052601260045260246000fd5b600061243c826117d5565b9150612447836117d5565b92508261245757612456612402565b5b828204905092915050565b600061246d8261174a565b9050919050565b600061247f826123ac565b9050919050565b61249761249282612462565b612474565b82525050565b60006124a98284612486565b60148201915081905092915050565b6000819050919050565b6124d36124ce826117d5565b6124b8565b82525050565b60006124e582846124c2565b60208201915081905092915050565b60006124ff826117d5565b915061250a836117d5565b9250817fffffffffffffffffffffffffffffffffffffffffffffffffffffffffffffffff048311821515161561254357612542611cfc565b5b828202905092915050565b60008160010b9050919050565b60006125668261254e565b91506125718361254e565b9250827fffffffffffffffffffffffffffffffffffffffffffffffffffffffffffff8000018212600084121516156125ac576125ab611cfc565b5b82617fff0182136000841216156125c6576125c5611cfc565b5b828203905092915050565b60008160000b9050919050565b60006125e9826125d1565b91506125f4836125d1565b9250827fffffffffffffffffffffffffffffffffffffffffffffffffffffffffffffff800182126000841215161561262f5761262e611cfc565b5b82607f01821360008412161561264857612647611cfc565b5b828203905092915050565b600061265e826119d2565b9150612669836119d2565b92508282101561267c5761267b611cfc565b5b828203905092915050565b6000612692826119d2565b915061269d836119d2565b92508160ff04831182151516156126b7576126b6611cfc565b5b828202905092915050565b60006126cd826119d2565b91506126d8836119d2565b92508260ff038211156126ee576126ed611cfc565b5b82820190509291505056fea264697066735822122063a7a1270549f94c59c05acc87bfa9290758a6fca95244c5bb1cb6e9b974ed5864736f6c63430008090033",
  "immutableReferences": {},
  "source": "pragma solidity 0.8.9;\n\nimport \"../node_modules/@openzeppelin/contracts/access/Ownable.sol\";\nimport \"./GameToken.sol\";\nimport \"./interfaces/IConsumable.sol\";\n\ncontract BattleSystem is Ownable {\n    event BattleEnd(\n        address indexed owner,\n        uint256 indexed aHeroId,\n        uint256 indexed dHeroId,\n        uint8 points,\n        uint256 date,\n        string tokenURI\n    );\n\n    address private _gameTokenAddress;\n    address private _consumableAddress;\n\n    struct Battle {\n        uint256 aHeroId;\n        uint256 dHeroId;\n        uint8 points;\n        uint256 date;\n    }\n\n    struct BattleDTO {\n        uint256 aHeroId;\n        uint256 dHeroId;\n        uint8 points;\n        uint256 date;\n        string tokenURI;\n    }\n\n    struct Rank {\n        uint256 heroId;\n        uint32 points;\n    }\n\n    mapping(uint256 => Battle[]) private _battles;\n\n    constructor(address gameTokenAddress) {\n        _gameTokenAddress = gameTokenAddress;\n    }\n\n    function setConsumableAddress(address _newConsumableAddress)\n        external\n        onlyOwner\n    {\n        _consumableAddress = _newConsumableAddress;\n    }\n\n    function battle(uint256 _aHeroId) external {\n        require(\n            msg.sender == GameToken(_gameTokenAddress).ownerOf(_aHeroId),\n            \"Not owner of attacker\"\n        );\n\n        GameToken.Hero memory aHero = GameToken(_gameTokenAddress).getHero(\n            _aHeroId\n        );\n\n        uint256 seed1 = GameToken(_gameTokenAddress).getNextHeroId() +\n            aHero.currXP +\n            _aHeroId;\n        uint256 seed2 = seed1;\n\n        uint256 _bHeroId = rand(\n            seed1,\n            seed2,\n            GameToken(_gameTokenAddress).getNextHeroId() - 1\n        );\n\n        seed2 += _bHeroId;\n\n        uint8 points = 0;\n        if (_aHeroId != _bHeroId) {\n            //hero auto lose versus himself\n            points = combat(seed1, seed2, _aHeroId, _bHeroId);\n        }\n\n        _battles[_aHeroId].push(\n            Battle(_aHeroId, _bHeroId, points, block.timestamp)\n        );\n\n        Battle memory b = _battles[_aHeroId][_battles[_aHeroId].length - 1];\n\n        GameToken(_gameTokenAddress).levelUp(_aHeroId, uint16(1));\n\n        seed1 += points;\n        seed2 += (_aHeroId + _bHeroId);\n\n        if (_consumableAddress != address(0) && b.points > 0) {\n            IConsumable(_consumableAddress).mint(msg.sender);\n        }\n\n        emit BattleEnd(\n            msg.sender,\n            b.aHeroId,\n            b.dHeroId,\n            b.points,\n            b.date,\n            GameToken(_gameTokenAddress).tokenURI(b.dHeroId)\n        );\n    }\n\n    function combat(\n        uint256 seed1,\n        uint256 seed2,\n        uint256 _aHeroId,\n        uint256 _bHeroId\n    ) internal view returns (uint8) {\n        GameToken.Hero memory aHero = GameToken(_gameTokenAddress).getHero(\n            _aHeroId\n        );\n\n        GameToken.Hero memory bHero = GameToken(_gameTokenAddress).getHero(\n            _bHeroId\n        );\n\n        bool aHighDex;\n\n        seed1 += getDex(aHero);\n        seed2 += getDex(bHero);\n\n        if (getDex(aHero) != getDex(bHero)) {\n            aHighDex = getDex(aHero) > getDex(bHero);\n        } else {\n            aHighDex = (rand(seed1, seed2, 1) == 0);\n        }\n\n        int16 aHP = getHP(aHero);\n        int16 bHP = getHP(bHero);\n\n        while (aHP > 0 && bHP > 0) {\n            seed1 += uint16(aHP);\n            seed2 += uint16(bHP);\n            uint256 dodgeRandom = rand(seed1, seed2, 100) + 1;\n\n            seed1 += dodgeRandom;\n            int16 aDmg = getDmg(seed1, seed2, aHero);\n\n            seed2 += uint16(aDmg);\n            int16 bDmg = getDmg(seed1, seed2, bHero);\n\n            seed1 += uint16(bDmg);\n            if (aHighDex) {\n                if (aHP > 0) {\n                    bHP -= aDmg;\n                }\n                if (bHP > 0) {\n                    if (dodgeRandom >= getDodgeChance(aHero, bHero)) {\n                        aHP -= bDmg;\n                    }\n                }\n            } else {\n                if (bHP > 0) {\n                    aHP -= bDmg;\n                }\n                if (aHP > 0) {\n                    if (dodgeRandom >= getDodgeChance(bHero, aHero)) {\n                        bHP -= aDmg;\n                    }\n                }\n            }\n        }\n\n        return\n            aHP > 0\n                ? (\n                    int8(bHero.level) - int8(aHero.level) > 0\n                        ? bHero.level - aHero.level\n                        : 1\n                )\n                : 0;\n    }\n\n    function getDex(GameToken.Hero memory _hero) internal pure returns (uint8) {\n        return _hero.dex;\n    }\n\n    function getStr(GameToken.Hero memory _hero) internal pure returns (uint8) {\n        return _hero.str;\n    }\n\n    function getCon(GameToken.Hero memory _hero) internal pure returns (uint8) {\n        return _hero.con;\n    }\n\n    function getWis(GameToken.Hero memory _hero) internal pure returns (uint8) {\n        return _hero.wis;\n    }\n\n    function getHP(GameToken.Hero memory _hero) internal pure returns (int16) {\n        return int16(uint16(8 + (getCon(_hero) * 2)));\n    }\n\n    function getDodgeChance(\n        GameToken.Hero memory _aHero,\n        GameToken.Hero memory _bHero\n    ) internal pure returns (uint256) {\n        uint8 dodgeChance = (getDex(_aHero) - getDex(_bHero)) * 5;\n        if (dodgeChance >= 50) {\n            dodgeChance = 50;\n        }\n\n        return uint256(dodgeChance);\n    }\n\n    function getDmg(\n        uint256 seed1,\n        uint256 seed2,\n        GameToken.Hero memory _hero\n    ) internal view returns (int16) {\n        seed1 += getStr(_hero);\n        seed2 += getWis(_hero);\n\n        uint256 critRandom = rand(seed1, seed2, 100) + 1;\n\n        uint8 critChance = getWis(_hero) * 2;\n\n        return\n            int16(\n                uint16(\n                    getStr(_hero) * (critRandom <= uint256(critChance) ? 2 : 1)\n                )\n            );\n    }\n\n    function getRank(uint256 initialDate, uint256 endDate)\n        external\n        view\n        returns (Rank[] memory)\n    {\n        uint256 heroSize = GameToken(_gameTokenAddress).getNextHeroId();\n\n        Rank[] memory ret = new Rank[](heroSize);\n\n        for (uint256 heroId = 0; heroId < heroSize; heroId++) {\n            uint32 points = 0;\n\n            for (uint256 j = 0; j < _battles[heroId].length; j++) {\n                if (\n                    initialDate <= _battles[heroId][j].date &&\n                    _battles[heroId][j].date <= endDate\n                ) {\n                    points += _battles[heroId][j].points;\n                }\n            }\n\n            ret[heroId] = Rank(heroId, points);\n        }\n\n        return ret;\n    }\n\n    function getBattles(uint256 _heroId)\n        external\n        view\n        returns (BattleDTO[] memory)\n    {\n        BattleDTO[] memory ret = new BattleDTO[](_battles[_heroId].length);\n\n        for (uint256 index = 0; index < _battles[_heroId].length; index++) {\n            Battle memory b = _battles[_heroId][index];\n            ret[index] = BattleDTO(\n                b.aHeroId,\n                b.dHeroId,\n                b.points,\n                b.date,\n                GameToken(_gameTokenAddress).tokenURI(b.dHeroId)\n            );\n        }\n\n        return ret;\n    }\n\n    function rand(\n        uint256 seed1,\n        uint256 seed2,\n        uint256 limit\n    ) private view returns (uint256) {\n        uint256 seed = uint256(\n            keccak256(\n                abi.encodePacked(\n                    block.timestamp +\n                        block.difficulty +\n                        seed1 +\n                        seed2 +\n                        ((\n                            uint256(keccak256(abi.encodePacked(block.coinbase)))\n                        ) / (block.timestamp)) +\n                        block.gaslimit +\n                        ((uint256(keccak256(abi.encodePacked(msg.sender)))) /\n                            (block.timestamp)) +\n                        block.number\n                )\n            )\n        );\n\n        return (seed - ((seed / (limit + 1)) * (limit + 1)));\n    }\n}\n",
  "sourcePath": "/home/rfaita/game/nft-game/contract/contracts/BattleSystem.sol",
  "compiler": {
    "name": "solc",
    "version": "0.8.9+commit.e5eed63a.Emscripten.clang"
  },
  "schemaVersion": "3.4.3",
  "updatedAt": "2021-11-24T20:58:48.602Z",
  "networkType": "ethereum",
  "devdoc": {
    "kind": "dev",
    "methods": {
      "owner()": {
        "details": "Returns the address of the current owner."
      },
      "renounceOwnership()": {
        "details": "Leaves the contract without owner. It will not be possible to call `onlyOwner` functions anymore. Can only be called by the current owner. NOTE: Renouncing ownership will leave the contract without an owner, thereby removing any functionality that is only available to the owner."
      },
      "transferOwnership(address)": {
        "details": "Transfers ownership of the contract to a new account (`newOwner`). Can only be called by the current owner."
      }
    },
    "version": 1
  },
  "userdoc": {
    "kind": "user",
    "methods": {},
    "version": 1
  }
}