{
  "contractName": "Consumable",
  "abi": [
    {
      "inputs": [
        {
          "internalType": "string",
          "name": "name",
          "type": "string"
        },
        {
          "internalType": "string",
          "name": "symbol",
          "type": "string"
        },
        {
          "internalType": "string",
          "name": "baseTokenURI",
          "type": "string"
        }
      ],
      "stateMutability": "nonpayable",
      "type": "constructor"
    },
    {
      "anonymous": false,
      "inputs": [
        {
          "indexed": true,
          "internalType": "address",
          "name": "owner",
          "type": "address"
        },
        {
          "indexed": true,
          "internalType": "address",
          "name": "approved",
          "type": "address"
        },
        {
          "indexed": true,
          "internalType": "uint256",
          "name": "tokenId",
          "type": "uint256"
        }
      ],
      "name": "Approval",
      "type": "event"
    },
    {
      "anonymous": false,
      "inputs": [
        {
          "indexed": true,
          "internalType": "address",
          "name": "owner",
          "type": "address"
        },
        {
          "indexed": true,
          "internalType": "address",
          "name": "operator",
          "type": "address"
        },
        {
          "indexed": false,
          "internalType": "bool",
          "name": "approved",
          "type": "bool"
        }
      ],
      "name": "ApprovalForAll",
      "type": "event"
    },
    {
      "anonymous": false,
      "inputs": [
        {
          "indexed": true,
          "internalType": "address",
          "name": "owner",
          "type": "address"
        },
        {
          "indexed": true,
          "internalType": "uint256",
          "name": "tokenId",
          "type": "uint256"
        },
        {
          "indexed": true,
          "internalType": "uint256",
          "name": "heroId",
          "type": "uint256"
        },
        {
          "indexed": false,
          "internalType": "int8",
          "name": "consumableType",
          "type": "int8"
        },
        {
          "indexed": false,
          "internalType": "string",
          "name": "tokenURI",
          "type": "string"
        }
      ],
      "name": "ConsumableMinted",
      "type": "event"
    },
    {
      "anonymous": false,
      "inputs": [
        {
          "indexed": true,
          "internalType": "address",
          "name": "owner",
          "type": "address"
        },
        {
          "indexed": true,
          "internalType": "uint256",
          "name": "tokenId",
          "type": "uint256"
        },
        {
          "indexed": false,
          "internalType": "uint8",
          "name": "consumableType",
          "type": "uint8"
        }
      ],
      "name": "ConsumableUsed",
      "type": "event"
    },
    {
      "anonymous": false,
      "inputs": [
        {
          "indexed": true,
          "internalType": "address",
          "name": "previousOwner",
          "type": "address"
        },
        {
          "indexed": true,
          "internalType": "address",
          "name": "newOwner",
          "type": "address"
        }
      ],
      "name": "OwnershipTransferred",
      "type": "event"
    },
    {
      "anonymous": false,
      "inputs": [
        {
          "indexed": true,
          "internalType": "address",
          "name": "from",
          "type": "address"
        },
        {
          "indexed": true,
          "internalType": "address",
          "name": "to",
          "type": "address"
        },
        {
          "indexed": true,
          "internalType": "uint256",
          "name": "tokenId",
          "type": "uint256"
        }
      ],
      "name": "Transfer",
      "type": "event"
    },
    {
      "inputs": [
        {
          "internalType": "address",
          "name": "to",
          "type": "address"
        },
        {
          "internalType": "uint256",
          "name": "tokenId",
          "type": "uint256"
        }
      ],
      "name": "approve",
      "outputs": [],
      "stateMutability": "nonpayable",
      "type": "function"
    },
    {
      "inputs": [
        {
          "internalType": "address",
          "name": "owner",
          "type": "address"
        }
      ],
      "name": "balanceOf",
      "outputs": [
        {
          "internalType": "uint256",
          "name": "",
          "type": "uint256"
        }
      ],
      "stateMutability": "view",
      "type": "function",
      "constant": true
    },
    {
      "inputs": [
        {
          "internalType": "uint256",
          "name": "tokenId",
          "type": "uint256"
        }
      ],
      "name": "getApproved",
      "outputs": [
        {
          "internalType": "address",
          "name": "",
          "type": "address"
        }
      ],
      "stateMutability": "view",
      "type": "function",
      "constant": true
    },
    {
      "inputs": [
        {
          "internalType": "address",
          "name": "owner",
          "type": "address"
        },
        {
          "internalType": "address",
          "name": "operator",
          "type": "address"
        }
      ],
      "name": "isApprovedForAll",
      "outputs": [
        {
          "internalType": "bool",
          "name": "",
          "type": "bool"
        }
      ],
      "stateMutability": "view",
      "type": "function",
      "constant": true
    },
    {
      "inputs": [],
      "name": "name",
      "outputs": [
        {
          "internalType": "string",
          "name": "",
          "type": "string"
        }
      ],
      "stateMutability": "view",
      "type": "function",
      "constant": true
    },
    {
      "inputs": [],
      "name": "owner",
      "outputs": [
        {
          "internalType": "address",
          "name": "",
          "type": "address"
        }
      ],
      "stateMutability": "view",
      "type": "function",
      "constant": true
    },
    {
      "inputs": [
        {
          "internalType": "uint256",
          "name": "tokenId",
          "type": "uint256"
        }
      ],
      "name": "ownerOf",
      "outputs": [
        {
          "internalType": "address",
          "name": "",
          "type": "address"
        }
      ],
      "stateMutability": "view",
      "type": "function",
      "constant": true
    },
    {
      "inputs": [],
      "name": "renounceOwnership",
      "outputs": [],
      "stateMutability": "nonpayable",
      "type": "function"
    },
    {
      "inputs": [
        {
          "internalType": "address",
          "name": "from",
          "type": "address"
        },
        {
          "internalType": "address",
          "name": "to",
          "type": "address"
        },
        {
          "internalType": "uint256",
          "name": "tokenId",
          "type": "uint256"
        }
      ],
      "name": "safeTransferFrom",
      "outputs": [],
      "stateMutability": "nonpayable",
      "type": "function"
    },
    {
      "inputs": [
        {
          "internalType": "address",
          "name": "from",
          "type": "address"
        },
        {
          "internalType": "address",
          "name": "to",
          "type": "address"
        },
        {
          "internalType": "uint256",
          "name": "tokenId",
          "type": "uint256"
        },
        {
          "internalType": "bytes",
          "name": "_data",
          "type": "bytes"
        }
      ],
      "name": "safeTransferFrom",
      "outputs": [],
      "stateMutability": "nonpayable",
      "type": "function"
    },
    {
      "inputs": [
        {
          "internalType": "address",
          "name": "operator",
          "type": "address"
        },
        {
          "internalType": "bool",
          "name": "approved",
          "type": "bool"
        }
      ],
      "name": "setApprovalForAll",
      "outputs": [],
      "stateMutability": "nonpayable",
      "type": "function"
    },
    {
      "inputs": [
        {
          "internalType": "bytes4",
          "name": "interfaceId",
          "type": "bytes4"
        }
      ],
      "name": "supportsInterface",
      "outputs": [
        {
          "internalType": "bool",
          "name": "",
          "type": "bool"
        }
      ],
      "stateMutability": "view",
      "type": "function",
      "constant": true
    },
    {
      "inputs": [],
      "name": "symbol",
      "outputs": [
        {
          "internalType": "string",
          "name": "",
          "type": "string"
        }
      ],
      "stateMutability": "view",
      "type": "function",
      "constant": true
    },
    {
      "inputs": [
        {
          "internalType": "address",
          "name": "from",
          "type": "address"
        },
        {
          "internalType": "address",
          "name": "to",
          "type": "address"
        },
        {
          "internalType": "uint256",
          "name": "tokenId",
          "type": "uint256"
        }
      ],
      "name": "transferFrom",
      "outputs": [],
      "stateMutability": "nonpayable",
      "type": "function"
    },
    {
      "inputs": [
        {
          "internalType": "address",
          "name": "newOwner",
          "type": "address"
        }
      ],
      "name": "transferOwnership",
      "outputs": [],
      "stateMutability": "nonpayable",
      "type": "function"
    },
    {
      "inputs": [
        {
          "internalType": "string",
          "name": "_newBaseTokenURI",
          "type": "string"
        }
      ],
      "name": "setBaseTokenURI",
      "outputs": [],
      "stateMutability": "nonpayable",
      "type": "function"
    },
    {
      "inputs": [],
      "name": "totalSupply",
      "outputs": [
        {
          "internalType": "uint256",
          "name": "",
          "type": "uint256"
        }
      ],
      "stateMutability": "view",
      "type": "function",
      "constant": true
    },
    {
      "inputs": [
        {
          "internalType": "uint8",
          "name": "_type",
          "type": "uint8"
        },
        {
          "internalType": "string",
          "name": "_tokenURI",
          "type": "string"
        }
      ],
      "name": "setConsumableTokenURI",
      "outputs": [],
      "stateMutability": "nonpayable",
      "type": "function"
    },
    {
      "inputs": [
        {
          "internalType": "uint8",
          "name": "_type",
          "type": "uint8"
        },
        {
          "internalType": "address",
          "name": "_newAddress",
          "type": "address"
        }
      ],
      "name": "setConsumableResolversAddress",
      "outputs": [],
      "stateMutability": "nonpayable",
      "type": "function"
    },
    {
      "inputs": [
        {
          "internalType": "address",
          "name": "newAddress",
          "type": "address"
        }
      ],
      "name": "addMintPermittedAddress",
      "outputs": [],
      "stateMutability": "nonpayable",
      "type": "function"
    },
    {
      "inputs": [
        {
          "internalType": "address",
          "name": "newAddress",
          "type": "address"
        }
      ],
      "name": "removeMintPermittedAddress",
      "outputs": [],
      "stateMutability": "nonpayable",
      "type": "function"
    },
    {
      "inputs": [],
      "name": "getConsumables",
      "outputs": [
        {
          "components": [
            {
              "internalType": "uint256",
              "name": "id",
              "type": "uint256"
            },
            {
              "internalType": "uint8",
              "name": "percXPGain",
              "type": "uint8"
            },
            {
              "internalType": "uint8",
              "name": "maxXPGain",
              "type": "uint8"
            },
            {
              "internalType": "bool",
              "name": "generateArenaTicket",
              "type": "bool"
            },
            {
              "internalType": "bool",
              "name": "generateEquipment",
              "type": "bool"
            }
          ],
          "internalType": "struct SharedStructs.Consumable[]",
          "name": "",
          "type": "tuple[]"
        }
      ],
      "stateMutability": "view",
      "type": "function",
      "constant": true
    },
    {
      "inputs": [],
      "name": "getNextConsumableId",
      "outputs": [
        {
          "internalType": "uint256",
          "name": "",
          "type": "uint256"
        }
      ],
      "stateMutability": "view",
      "type": "function",
      "constant": true
    },
    {
      "inputs": [
        {
          "internalType": "uint256",
          "name": "heroId",
          "type": "uint256"
        },
        {
          "internalType": "address",
          "name": "owner",
          "type": "address"
        }
      ],
      "name": "mint",
      "outputs": [],
      "stateMutability": "nonpayable",
      "type": "function"
    },
    {
      "inputs": [
        {
          "internalType": "address",
          "name": "owner",
          "type": "address"
        }
      ],
      "name": "getConsumablesByAddress",
      "outputs": [
        {
          "components": [
            {
              "internalType": "uint256",
              "name": "id",
              "type": "uint256"
            },
            {
              "internalType": "uint8",
              "name": "percXPGain",
              "type": "uint8"
            },
            {
              "internalType": "uint8",
              "name": "maxXPGain",
              "type": "uint8"
            },
            {
              "internalType": "bool",
              "name": "generateArenaTicket",
              "type": "bool"
            },
            {
              "internalType": "bool",
              "name": "generateEquipment",
              "type": "bool"
            }
          ],
          "internalType": "struct SharedStructs.Consumable[]",
          "name": "",
          "type": "tuple[]"
        }
      ],
      "stateMutability": "view",
      "type": "function",
      "constant": true
    },
    {
      "inputs": [],
      "name": "getMyConsumables",
      "outputs": [
        {
          "components": [
            {
              "internalType": "uint256",
              "name": "id",
              "type": "uint256"
            },
            {
              "internalType": "uint8",
              "name": "percXPGain",
              "type": "uint8"
            },
            {
              "internalType": "uint8",
              "name": "maxXPGain",
              "type": "uint8"
            },
            {
              "internalType": "bool",
              "name": "generateArenaTicket",
              "type": "bool"
            },
            {
              "internalType": "bool",
              "name": "generateEquipment",
              "type": "bool"
            }
          ],
          "internalType": "struct SharedStructs.Consumable[]",
          "name": "",
          "type": "tuple[]"
        }
      ],
      "stateMutability": "view",
      "type": "function",
      "constant": true
    },
    {
      "inputs": [
        {
          "internalType": "uint256",
          "name": "_consumableId",
          "type": "uint256"
        }
      ],
      "name": "getConsumable",
      "outputs": [
        {
          "components": [
            {
              "internalType": "uint256",
              "name": "id",
              "type": "uint256"
            },
            {
              "internalType": "uint8",
              "name": "percXPGain",
              "type": "uint8"
            },
            {
              "internalType": "uint8",
              "name": "maxXPGain",
              "type": "uint8"
            },
            {
              "internalType": "bool",
              "name": "generateArenaTicket",
              "type": "bool"
            },
            {
              "internalType": "bool",
              "name": "generateEquipment",
              "type": "bool"
            }
          ],
          "internalType": "struct SharedStructs.Consumable",
          "name": "",
          "type": "tuple"
        }
      ],
      "stateMutability": "view",
      "type": "function",
      "constant": true
    },
    {
      "inputs": [
        {
          "internalType": "uint256",
          "name": "_token",
          "type": "uint256"
        },
        {
          "internalType": "uint256",
          "name": "_consumableId",
          "type": "uint256"
        }
      ],
      "name": "consume",
      "outputs": [],
      "stateMutability": "nonpayable",
      "type": "function"
    },
    {
      "inputs": [
        {
          "internalType": "uint256",
          "name": "tokenId",
          "type": "uint256"
        }
      ],
      "name": "tokenURI",
      "outputs": [
        {
          "internalType": "string",
          "name": "",
          "type": "string"
        }
      ],
      "stateMutability": "view",
      "type": "function",
      "constant": true
    }
  ],
  "bytecode": "0x60806040523480156200001157600080fd5b506040516200555f3803806200555f8339818101604052810190620000379190620003ca565b82828160009080519060200190620000519291906200017d565b5080600190805190602001906200006a9291906200017d565b5050506200008d62000081620000af60201b60201c565b620000b760201b60201c565b80600d9080519060200190620000a59291906200017d565b50505050620004e8565b600033905090565b6000600760009054906101000a900473ffffffffffffffffffffffffffffffffffffffff16905081600760006101000a81548173ffffffffffffffffffffffffffffffffffffffff021916908373ffffffffffffffffffffffffffffffffffffffff1602179055508173ffffffffffffffffffffffffffffffffffffffff168173ffffffffffffffffffffffffffffffffffffffff167f8be0079c531659141344cd1fd0a4f28419497f9722a3daafe3b4186f6b6457e060405160405180910390a35050565b8280546200018b90620004b2565b90600052602060002090601f016020900481019282620001af5760008555620001fb565b82601f10620001ca57805160ff1916838001178555620001fb565b82800160010185558215620001fb579182015b82811115620001fa578251825591602001919060010190620001dd565b5b5090506200020a91906200020e565b5090565b5b80821115620002295760008160009055506001016200020f565b5090565b6000604051905090565b600080fd5b600080fd5b600080fd5b600080fd5b6000601f19601f8301169050919050565b7f4e487b7100000000000000000000000000000000000000000000000000000000600052604160045260246000fd5b62000296826200024b565b810181811067ffffffffffffffff82111715620002b857620002b76200025c565b5b80604052505050565b6000620002cd6200022d565b9050620002db82826200028b565b919050565b600067ffffffffffffffff821115620002fe57620002fd6200025c565b5b62000309826200024b565b9050602081019050919050565b60005b838110156200033657808201518184015260208101905062000319565b8381111562000346576000848401525b50505050565b6000620003636200035d84620002e0565b620002c1565b90508281526020810184848401111562000382576200038162000246565b5b6200038f84828562000316565b509392505050565b600082601f830112620003af57620003ae62000241565b5b8151620003c18482602086016200034c565b91505092915050565b600080600060608486031215620003e657620003e562000237565b5b600084015167ffffffffffffffff8111156200040757620004066200023c565b5b620004158682870162000397565b935050602084015167ffffffffffffffff8111156200043957620004386200023c565b5b620004478682870162000397565b925050604084015167ffffffffffffffff8111156200046b576200046a6200023c565b5b620004798682870162000397565b9150509250925092565b7f4e487b7100000000000000000000000000000000000000000000000000000000600052602260045260246000fd5b60006002820490506001821680620004cb57607f821691505b60208210811415620004e257620004e162000483565b5b50919050565b61506780620004f86000396000f3fe608060405234801561001057600080fd5b50600436106101cf5760003560e01c806370a0823111610104578063b88d4fde116100a2578063e985e9c511610071578063e985e9c514610518578063f2fde38b14610548578063f9dabbb014610564578063fe4737d714610580576101cf565b8063b88d4fde14610480578063c87b56dd1461049c578063d4df8f68146104cc578063dc7b5e0a146104e8576101cf565b80638da5cb5b116100de5780638da5cb5b1461040c57806394bf804d1461042a57806395d89b4114610446578063a22cb46514610464576101cf565b806370a08231146103b4578063715018a6146103e45780638c04e6a1146103ee576101cf565b80631bc6c0e81161017157806342842e0e1161014b57806342842e0e1461031c5780634a55385c146103385780634eeea7ad146103685780636352211e14610384576101cf565b80631bc6c0e8146102c657806323b872dd146102e457806330176e1314610300576101cf565b8063081812fc116101ad578063081812fc14610240578063095ea7b3146102705780630e0f27321461028c57806318160ddd146102a8576101cf565b806301ffc9a7146101d457806304ed63e61461020457806306fdde0314610222575b600080fd5b6101ee60048036038101906101e991906134ff565b61059c565b6040516101fb9190613547565b60405180910390f35b61020c61067e565b60405161021991906136bd565b60405180910390f35b61022a61068e565b6040516102379190613778565b60405180910390f35b61025a600480360381019061025591906137c6565b610720565b6040516102679190613834565b60405180910390f35b61028a6004803603810190610285919061387b565b6107a5565b005b6102a660048036038101906102a191906138e7565b6108bd565b005b6102b0610995565b6040516102bd9190613936565b60405180910390f35b6102ce6109a2565b6040516102db9190613936565b60405180910390f35b6102fe60048036038101906102f99190613951565b6109b3565b005b61031a60048036038101906103159190613ad9565b610a13565b005b61033660048036038101906103319190613951565b610aa9565b005b610352600480360381019061034d9190613b22565b610ac9565b60405161035f91906136bd565b60405180910390f35b610382600480360381019061037d9190613b4f565b610d02565b005b61039e600480360381019061039991906137c6565b610fbc565b6040516103ab9190613834565b60405180910390f35b6103ce60048036038101906103c99190613b22565b61106e565b6040516103db9190613936565b60405180910390f35b6103ec611126565b005b6103f66111ae565b60405161040391906136bd565b60405180910390f35b610414611287565b6040516104219190613834565b60405180910390f35b610444600480360381019061043f9190613b8f565b6112b1565b005b61044e611933565b60405161045b9190613778565b60405180910390f35b61047e60048036038101906104799190613bfb565b6119c5565b005b61049a60048036038101906104959190613cdc565b611b46565b005b6104b660048036038101906104b191906137c6565b611ba8565b6040516104c39190613778565b60405180910390f35b6104e660048036038101906104e19190613d5f565b611bdc565b005b61050260048036038101906104fd91906137c6565b611c8a565b60405161050f9190613e23565b60405180910390f35b610532600480360381019061052d9190613e3e565b611ca2565b60405161053f9190613547565b60405180910390f35b610562600480360381019061055d9190613b22565b611d36565b005b61057e60048036038101906105799190613b22565b611e2e565b005b61059a60048036038101906105959190613b22565b611f05565b005b60007f80ac58cd000000000000000000000000000000000000000000000000000000007bffffffffffffffffffffffffffffffffffffffffffffffffffffffff1916827bffffffffffffffffffffffffffffffffffffffffffffffffffffffff1916148061066757507f5b5e139f000000000000000000000000000000000000000000000000000000007bffffffffffffffffffffffffffffffffffffffffffffffffffffffff1916827bffffffffffffffffffffffffffffffffffffffffffffffffffffffff1916145b80610677575061067682611fd3565b5b9050919050565b606061068933610ac9565b905090565b60606000805461069d90613ead565b80601f01602080910402602001604051908101604052809291908181526020018280546106c990613ead565b80156107165780601f106106eb57610100808354040283529160200191610716565b820191906000526020600020905b8154815290600101906020018083116106f957829003601f168201915b5050505050905090565b600061072b8261203d565b61076a576040517f08c379a000000000000000000000000000000000000000000000000000000000815260040161076190613f51565b60405180910390fd5b6004600083815260200190815260200160002060009054906101000a900473ffffffffffffffffffffffffffffffffffffffff169050919050565b60006107b082610fbc565b90508073ffffffffffffffffffffffffffffffffffffffff168373ffffffffffffffffffffffffffffffffffffffff161415610821576040517f08c379a000000000000000000000000000000000000000000000000000000000815260040161081890613fe3565b60405180910390fd5b8073ffffffffffffffffffffffffffffffffffffffff166108406120a9565b73ffffffffffffffffffffffffffffffffffffffff16148061086f575061086e816108696120a9565b611ca2565b5b6108ae576040517f08c379a00000000000000000000000000000000000000000000000000000000081526004016108a590614075565b60405180910390fd5b6108b883836120b1565b505050565b6108c56120a9565b73ffffffffffffffffffffffffffffffffffffffff166108e3611287565b73ffffffffffffffffffffffffffffffffffffffff1614610939576040517f08c379a0000000000000000000000000000000000000000000000000000000008152600401610930906140e1565b60405180910390fd5b80600960008460ff1660ff16815260200190815260200160002060006101000a81548173ffffffffffffffffffffffffffffffffffffffff021916908373ffffffffffffffffffffffffffffffffffffffff1602179055505050565b6000600c80549050905090565b60006109ae600b61216a565b905090565b6109c46109be6120a9565b82612178565b610a03576040517f08c379a00000000000000000000000000000000000000000000000000000000081526004016109fa90614173565b60405180910390fd5b610a0e838383612256565b505050565b610a1b6120a9565b73ffffffffffffffffffffffffffffffffffffffff16610a39611287565b73ffffffffffffffffffffffffffffffffffffffff1614610a8f576040517f08c379a0000000000000000000000000000000000000000000000000000000008152600401610a86906140e1565b60405180910390fd5b80600d9080519060200190610aa5929190613377565b5050565b610ac483838360405180602001604052806000815250611b46565b505050565b60606000610ad68361106e565b90506000811415610b3e57600067ffffffffffffffff811115610afc57610afb6139ae565b5b604051908082528060200260200182016040528015610b3557816020015b610b226133fd565b815260200190600190039081610b1a5790505b50915050610cfd565b60008167ffffffffffffffff811115610b5a57610b596139ae565b5b604051908082528060200260200182016040528015610b9357816020015b610b806133fd565b815260200190600190039081610b785790505b50905060008060009050600091505b600c80549050821015610cf5578573ffffffffffffffffffffffffffffffffffffffff16610bf4600c8481548110610bdd57610bdc614193565b5b906000526020600020906002020160000154610fbc565b73ffffffffffffffffffffffffffffffffffffffff161415610ce257600c8281548110610c2457610c23614193565b5b90600052602060002090600202016040518060a0016040529081600082015481526020016001820160009054906101000a900460ff1660ff1660ff1681526020016001820160019054906101000a900460ff1660ff1660ff1681526020016001820160029054906101000a900460ff161515151581526020016001820160039054906101000a900460ff161515151581525050838280610cc3906141f1565b935081518110610cd657610cd5614193565b5b60200260200101819052505b8180610ced906141f1565b925050610ba2565b829450505050505b919050565b610d0b81610fbc565b73ffffffffffffffffffffffffffffffffffffffff163373ffffffffffffffffffffffffffffffffffffffff1614610d78576040517f08c379a0000000000000000000000000000000000000000000000000000000008152600401610d6f90614286565b60405180910390fd5b6000610d83826124b2565b90506000600a826040015160ff16148015610da55750600a826020015160ff16145b15610db35760009050610e04565b6064826040015160ff16148015610dd157506032826020015160ff16145b15610ddf5760019050610e03565b816060015115610df25760029050610e02565b816080015115610e0157600390505b5b5b5b600073ffffffffffffffffffffffffffffffffffffffff16600960008360ff1660ff16815260200190815260200160002060009054906101000a900473ffffffffffffffffffffffffffffffffffffffff1673ffffffffffffffffffffffffffffffffffffffff161415610ead576040517f08c379a0000000000000000000000000000000000000000000000000000000008152600401610ea4906142f2565b60405180910390fd5b600960008260ff1660ff16815260200190815260200160002060009054906101000a900473ffffffffffffffffffffffffffffffffffffffff1673ffffffffffffffffffffffffffffffffffffffff1663c302f1018584336040518463ffffffff1660e01b8152600401610f2393929190614312565b600060405180830381600087803b158015610f3d57600080fd5b505af1158015610f51573d6000803e3d6000fd5b50505050610f5e836125ba565b610f6783612777565b823373ffffffffffffffffffffffffffffffffffffffff167f68bfd164513ccb2f6170301badd50fc8a26ad2854cc3325e2756caa8f4496d7383604051610fae9190614358565b60405180910390a350505050565b6000806002600084815260200190815260200160002060009054906101000a900473ffffffffffffffffffffffffffffffffffffffff169050600073ffffffffffffffffffffffffffffffffffffffff168173ffffffffffffffffffffffffffffffffffffffff161415611065576040517f08c379a000000000000000000000000000000000000000000000000000000000815260040161105c906143e5565b60405180910390fd5b80915050919050565b60008073ffffffffffffffffffffffffffffffffffffffff168273ffffffffffffffffffffffffffffffffffffffff1614156110df576040517f08c379a00000000000000000000000000000000000000000000000000000000081526004016110d690614477565b60405180910390fd5b600360008373ffffffffffffffffffffffffffffffffffffffff1673ffffffffffffffffffffffffffffffffffffffff168152602001908152602001600020549050919050565b61112e6120a9565b73ffffffffffffffffffffffffffffffffffffffff1661114c611287565b73ffffffffffffffffffffffffffffffffffffffff16146111a2576040517f08c379a0000000000000000000000000000000000000000000000000000000008152600401611199906140e1565b60405180910390fd5b6111ac60006127ca565b565b6060600c805480602002602001604051908101604052809291908181526020016000905b8282101561127e57838290600052602060002090600202016040518060a0016040529081600082015481526020016001820160009054906101000a900460ff1660ff1660ff1681526020016001820160019054906101000a900460ff1660ff1660ff1681526020016001820160029054906101000a900460ff161515151581526020016001820160039054906101000a900460ff161515151581525050815260200190600101906111d2565b50505050905090565b6000600760009054906101000a900473ffffffffffffffffffffffffffffffffffffffff16905090565b600860006112bd6120a9565b73ffffffffffffffffffffffffffffffffffffffff1673ffffffffffffffffffffffffffffffffffffffff16815260200190815260200160002060009054906101000a900460ff16611344576040517f08c379a000000000000000000000000000000000000000000000000000000000815260040161133b90614509565b60405180910390fd5b6000611350600b61216a565b905060006001611362836103e8612890565b61136c9190614529565b905060007fffffffffffffffffffffffffffffffffffffffffffffffffffffffffffffffff90506102ee8211611851576113a684846129ac565b6113b0600b6129ca565b6101f482116114b057600c6040518060a00160405280858152602001600a60ff168152602001600a60ff1681526020016000151581526020016000151581525090806001815401808255809150506001900390600052602060002090600202016000909190919091506000820151816000015560208201518160010160006101000a81548160ff021916908360ff16021790555060408201518160010160016101000a81548160ff021916908360ff16021790555060608201518160010160026101000a81548160ff02191690831515021790555060808201518160010160036101000a81548160ff0219169083151502179055505050600090506117a5565b61025882116115b057600c6040518060a00160405280858152602001600060ff168152602001600060ff1681526020016001151581526020016000151581525090806001815401808255809150506001900390600052602060002090600202016000909190919091506000820151816000015560208201518160010160006101000a81548160ff021916908360ff16021790555060408201518160010160016101000a81548160ff021916908360ff16021790555060608201518160010160026101000a81548160ff02191690831515021790555060808201518160010160036101000a81548160ff0219169083151502179055505050600290506117a4565b6102bc82116116b057600c6040518060a00160405280858152602001600060ff168152602001600060ff1681526020016000151581526020016001151581525090806001815401808255809150506001900390600052602060002090600202016000909190919091506000820151816000015560208201518160010160006101000a81548160ff021916908360ff16021790555060408201518160010160016101000a81548160ff021916908360ff16021790555060608201518160010160026101000a81548160ff02191690831515021790555060808201518160010160036101000a81548160ff0219169083151502179055505050600390506117a3565b600c6040518060a00160405280858152602001603260ff168152602001606460ff1681526020016000151581526020016000151581525090806001815401808255809150506001900390600052602060002090600202016000909190919091506000820151816000015560208201518160010160006101000a81548160ff021916908360ff16021790555060408201518160010160016101000a81548160ff021916908360ff16021790555060608201518160010160026101000a81548160ff02191690831515021790555060808201518160010160036101000a81548160ff0219169083151502179055505050600190505b5b5b61185083600a60008460ff1660ff16815260200190815260200160002080546117cd90613ead565b80601f01602080910402602001604051908101604052809291908181526020018280546117f990613ead565b80156118465780601f1061181b57610100808354040283529160200191611846565b820191906000526020600020905b81548152906001019060200180831161182957829003601f168201915b50505050506129e0565b5b7fffffffffffffffffffffffffffffffffffffffffffffffffffffffffffffffff8160000b14156118d15784838573ffffffffffffffffffffffffffffffffffffffff167f3568608b2c87722b6c985a673a73c2a0f8eaa4e65e7b7f2cc5064ba261ee3eac846040516118c491906145c1565b60405180910390a461192c565b84838573ffffffffffffffffffffffffffffffffffffffff167f3568608b2c87722b6c985a673a73c2a0f8eaa4e65e7b7f2cc5064ba261ee3eac8461191588611ba8565b6040516119239291906145ef565b60405180910390a45b5050505050565b60606001805461194290613ead565b80601f016020809104026020016040519081016040528092919081815260200182805461196e90613ead565b80156119bb5780601f10611990576101008083540402835291602001916119bb565b820191906000526020600020905b81548152906001019060200180831161199e57829003601f168201915b5050505050905090565b6119cd6120a9565b73ffffffffffffffffffffffffffffffffffffffff168273ffffffffffffffffffffffffffffffffffffffff161415611a3b576040517f08c379a0000000000000000000000000000000000000000000000000000000008152600401611a329061466b565b60405180910390fd5b8060056000611a486120a9565b73ffffffffffffffffffffffffffffffffffffffff1673ffffffffffffffffffffffffffffffffffffffff16815260200190815260200160002060008473ffffffffffffffffffffffffffffffffffffffff1673ffffffffffffffffffffffffffffffffffffffff16815260200190815260200160002060006101000a81548160ff0219169083151502179055508173ffffffffffffffffffffffffffffffffffffffff16611af56120a9565b73ffffffffffffffffffffffffffffffffffffffff167f17307eab39ab6107e8899845ad3d59bd9653f200f220920489ca2b5937696c3183604051611b3a9190613547565b60405180910390a35050565b611b57611b516120a9565b83612178565b611b96576040517f08c379a0000000000000000000000000000000000000000000000000000000008152600401611b8d90614173565b60405180910390fd5b611ba284848484612a54565b50505050565b6060600d611bb583612ab0565b604051602001611bc692919061475b565b6040516020818303038152906040529050919050565b611be46120a9565b73ffffffffffffffffffffffffffffffffffffffff16611c02611287565b73ffffffffffffffffffffffffffffffffffffffff1614611c58576040517f08c379a0000000000000000000000000000000000000000000000000000000008152600401611c4f906140e1565b60405180910390fd5b80600a60008460ff1660ff1681526020019081526020016000209080519060200190611c85929190613377565b505050565b611c926133fd565b611c9b826124b2565b9050919050565b6000600560008473ffffffffffffffffffffffffffffffffffffffff1673ffffffffffffffffffffffffffffffffffffffff16815260200190815260200160002060008373ffffffffffffffffffffffffffffffffffffffff1673ffffffffffffffffffffffffffffffffffffffff16815260200190815260200160002060009054906101000a900460ff16905092915050565b611d3e6120a9565b73ffffffffffffffffffffffffffffffffffffffff16611d5c611287565b73ffffffffffffffffffffffffffffffffffffffff1614611db2576040517f08c379a0000000000000000000000000000000000000000000000000000000008152600401611da9906140e1565b60405180910390fd5b600073ffffffffffffffffffffffffffffffffffffffff168173ffffffffffffffffffffffffffffffffffffffff161415611e22576040517f08c379a0000000000000000000000000000000000000000000000000000000008152600401611e19906147f1565b60405180910390fd5b611e2b816127ca565b50565b611e366120a9565b73ffffffffffffffffffffffffffffffffffffffff16611e54611287565b73ffffffffffffffffffffffffffffffffffffffff1614611eaa576040517f08c379a0000000000000000000000000000000000000000000000000000000008152600401611ea1906140e1565b60405180910390fd5b6001600860008373ffffffffffffffffffffffffffffffffffffffff1673ffffffffffffffffffffffffffffffffffffffff16815260200190815260200160002060006101000a81548160ff02191690831515021790555050565b611f0d6120a9565b73ffffffffffffffffffffffffffffffffffffffff16611f2b611287565b73ffffffffffffffffffffffffffffffffffffffff1614611f81576040517f08c379a0000000000000000000000000000000000000000000000000000000008152600401611f78906140e1565b60405180910390fd5b600860008273ffffffffffffffffffffffffffffffffffffffff1673ffffffffffffffffffffffffffffffffffffffff16815260200190815260200160002060006101000a81549060ff021916905550565b60007f01ffc9a7000000000000000000000000000000000000000000000000000000007bffffffffffffffffffffffffffffffffffffffffffffffffffffffff1916827bffffffffffffffffffffffffffffffffffffffffffffffffffffffff1916149050919050565b60008073ffffffffffffffffffffffffffffffffffffffff166002600084815260200190815260200160002060009054906101000a900473ffffffffffffffffffffffffffffffffffffffff1673ffffffffffffffffffffffffffffffffffffffff1614159050919050565b600033905090565b816004600083815260200190815260200160002060006101000a81548173ffffffffffffffffffffffffffffffffffffffff021916908373ffffffffffffffffffffffffffffffffffffffff160217905550808273ffffffffffffffffffffffffffffffffffffffff1661212483610fbc565b73ffffffffffffffffffffffffffffffffffffffff167f8c5be1e5ebec7d5bd14f71427d1e84f3dd0314c0f7b2291e5b200ac8c7c3b92560405160405180910390a45050565b600081600001549050919050565b60006121838261203d565b6121c2576040517f08c379a00000000000000000000000000000000000000000000000000000000081526004016121b990614883565b60405180910390fd5b60006121cd83610fbc565b90508073ffffffffffffffffffffffffffffffffffffffff168473ffffffffffffffffffffffffffffffffffffffff16148061223c57508373ffffffffffffffffffffffffffffffffffffffff1661222484610720565b73ffffffffffffffffffffffffffffffffffffffff16145b8061224d575061224c8185611ca2565b5b91505092915050565b8273ffffffffffffffffffffffffffffffffffffffff1661227682610fbc565b73ffffffffffffffffffffffffffffffffffffffff16146122cc576040517f08c379a00000000000000000000000000000000000000000000000000000000081526004016122c390614915565b60405180910390fd5b600073ffffffffffffffffffffffffffffffffffffffff168273ffffffffffffffffffffffffffffffffffffffff16141561233c576040517f08c379a0000000000000000000000000000000000000000000000000000000008152600401612333906149a7565b60405180910390fd5b612347838383612c02565b6123526000826120b1565b6001600360008573ffffffffffffffffffffffffffffffffffffffff1673ffffffffffffffffffffffffffffffffffffffff16815260200190815260200160002060008282546123a291906149c7565b925050819055506001600360008473ffffffffffffffffffffffffffffffffffffffff1673ffffffffffffffffffffffffffffffffffffffff16815260200190815260200160002060008282546123f99190614529565b92505081905550816002600083815260200190815260200160002060006101000a81548173ffffffffffffffffffffffffffffffffffffffff021916908373ffffffffffffffffffffffffffffffffffffffff160217905550808273ffffffffffffffffffffffffffffffffffffffff168473ffffffffffffffffffffffffffffffffffffffff167fddf252ad1be2c89b69c2b068fc378daa952ba7f163c4a11628f55a4df523b3ef60405160405180910390a4505050565b6124ba6133fd565b60005b600c805490508110156125b45782600c82815481106124df576124de614193565b5b90600052602060002090600202016000015414156125a157600c818154811061250b5761250a614193565b5b90600052602060002090600202016040518060a0016040529081600082015481526020016001820160009054906101000a900460ff1660ff1660ff1681526020016001820160019054906101000a900460ff1660ff1660ff1681526020016001820160029054906101000a900460ff161515151581526020016001820160039054906101000a900460ff16151515158152505091505b80806125ac906141f1565b9150506124bd565b50919050565b60006125c582612c07565b9050600c8054905081106125d857600080fd5b600c6001600c805490506125ec91906149c7565b815481106125fd576125fc614193565b5b9060005260206000209060020201600c828154811061261f5761261e614193565b5b9060005260206000209060020201600082015481600001556001820160009054906101000a900460ff168160010160006101000a81548160ff021916908360ff1602179055506001820160019054906101000a900460ff168160010160016101000a81548160ff021916908360ff1602179055506001820160029054906101000a900460ff168160010160026101000a81548160ff0219169083151502179055506001820160039054906101000a900460ff168160010160036101000a81548160ff021916908315150217905550905050600c805480612702576127016149fb565b5b60019003818190600052602060002090600202016000808201600090556001820160006101000a81549060ff02191690556001820160016101000a81549060ff02191690556001820160026101000a81549060ff02191690556001820160036101000a81549060ff0219169055505090555050565b61278081612c74565b60006006600083815260200190815260200160002080546127a090613ead565b9050146127c7576006600082815260200190815260200160002060006127c69190613436565b5b50565b6000600760009054906101000a900473ffffffffffffffffffffffffffffffffffffffff16905081600760006101000a81548173ffffffffffffffffffffffffffffffffffffffff021916908373ffffffffffffffffffffffffffffffffffffffff1602179055508173ffffffffffffffffffffffffffffffffffffffff168173ffffffffffffffffffffffffffffffffffffffff167f8be0079c531659141344cd1fd0a4f28419497f9722a3daafe3b4186f6b6457e060405160405180910390a35050565b6000804342336040516020016128a69190614a72565b6040516020818303038152906040528051906020012060001c6128c99190614abc565b4542416040516020016128dc9190614b28565b6040516020818303038152906040528051906020012060001c6128ff9190614abc565b87444261290c9190614529565b6129169190614529565b6129209190614529565b61292a9190614529565b6129349190614529565b61293e9190614529565b60405160200161294e9190614b64565b6040516020818303038152906040528051906020012060001c90506001836129769190614529565b6001846129839190614529565b8261298e9190614abc565b6129989190614b7f565b816129a391906149c7565b91505092915050565b6129c6828260405180602001604052806000815250612d85565b5050565b6001816000016000828254019250508190555050565b6129e98261203d565b612a28576040517f08c379a0000000000000000000000000000000000000000000000000000000008152600401612a1f90614c4b565b60405180910390fd5b80600660008481526020019081526020016000209080519060200190612a4f929190613377565b505050565b612a5f848484612256565b612a6b84848484612de0565b612aaa576040517f08c379a0000000000000000000000000000000000000000000000000000000008152600401612aa190614cdd565b60405180910390fd5b50505050565b6060612abb8261203d565b612afa576040517f08c379a0000000000000000000000000000000000000000000000000000000008152600401612af190614d6f565b60405180910390fd5b6000600660008481526020019081526020016000208054612b1a90613ead565b80601f0160208091040260200160405190810160405280929190818152602001828054612b4690613ead565b8015612b935780601f10612b6857610100808354040283529160200191612b93565b820191906000526020600020905b815481529060010190602001808311612b7657829003601f168201915b505050505090506000612ba4612f77565b9050600081511415612bba578192505050612bfd565b600082511115612bef578082604051602001612bd7929190614d8f565b60405160208183030381529060405292505050612bfd565b612bf884612f8e565b925050505b919050565b505050565b600080600090505b600c80549050811015612c6557600c8181548110612c3057612c2f614193565b5b906000526020600020906002020160000154831415612c525780915050612c6f565b8080612c5d906141f1565b915050612c0f565b50600c8054905090505b919050565b6000612c7f82610fbc565b9050612c8d81600084612c02565b612c986000836120b1565b6001600360008373ffffffffffffffffffffffffffffffffffffffff1673ffffffffffffffffffffffffffffffffffffffff1681526020019081526020016000206000828254612ce891906149c7565b925050819055506002600083815260200190815260200160002060006101000a81549073ffffffffffffffffffffffffffffffffffffffff021916905581600073ffffffffffffffffffffffffffffffffffffffff168273ffffffffffffffffffffffffffffffffffffffff167fddf252ad1be2c89b69c2b068fc378daa952ba7f163c4a11628f55a4df523b3ef60405160405180910390a45050565b612d8f8383613035565b612d9c6000848484612de0565b612ddb576040517f08c379a0000000000000000000000000000000000000000000000000000000008152600401612dd290614cdd565b60405180910390fd5b505050565b6000612e018473ffffffffffffffffffffffffffffffffffffffff16613203565b15612f6a578373ffffffffffffffffffffffffffffffffffffffff1663150b7a02612e2a6120a9565b8786866040518563ffffffff1660e01b8152600401612e4c9493929190614e08565b602060405180830381600087803b158015612e6657600080fd5b505af1925050508015612e9757506040513d601f19601f82011682018060405250810190612e949190614e69565b60015b612f1a573d8060008114612ec7576040519150601f19603f3d011682016040523d82523d6000602084013e612ecc565b606091505b50600081511415612f12576040517f08c379a0000000000000000000000000000000000000000000000000000000008152600401612f0990614cdd565b60405180910390fd5b805181602001fd5b63150b7a0260e01b7bffffffffffffffffffffffffffffffffffffffffffffffffffffffff1916817bffffffffffffffffffffffffffffffffffffffffffffffffffffffff191614915050612f6f565b600190505b949350505050565b606060405180602001604052806000815250905090565b6060612f998261203d565b612fd8576040517f08c379a0000000000000000000000000000000000000000000000000000000008152600401612fcf90614f08565b60405180910390fd5b6000612fe2612f77565b90506000815111613002576040518060200160405280600081525061302d565b8061300c84613216565b60405160200161301d929190614d8f565b6040516020818303038152906040525b915050919050565b600073ffffffffffffffffffffffffffffffffffffffff168273ffffffffffffffffffffffffffffffffffffffff1614156130a5576040517f08c379a000000000000000000000000000000000000000000000000000000000815260040161309c90614f74565b60405180910390fd5b6130ae8161203d565b156130ee576040517f08c379a00000000000000000000000000000000000000000000000000000000081526004016130e590614fe0565b60405180910390fd5b6130fa60008383612c02565b6001600360008473ffffffffffffffffffffffffffffffffffffffff1673ffffffffffffffffffffffffffffffffffffffff168152602001908152602001600020600082825461314a9190614529565b92505081905550816002600083815260200190815260200160002060006101000a81548173ffffffffffffffffffffffffffffffffffffffff021916908373ffffffffffffffffffffffffffffffffffffffff160217905550808273ffffffffffffffffffffffffffffffffffffffff16600073ffffffffffffffffffffffffffffffffffffffff167fddf252ad1be2c89b69c2b068fc378daa952ba7f163c4a11628f55a4df523b3ef60405160405180910390a45050565b600080823b905060008111915050919050565b6060600082141561325e576040518060400160405280600181526020017f30000000000000000000000000000000000000000000000000000000000000008152509050613372565b600082905060005b60008214613290578080613279906141f1565b915050600a826132899190614abc565b9150613266565b60008167ffffffffffffffff8111156132ac576132ab6139ae565b5b6040519080825280601f01601f1916602001820160405280156132de5781602001600182028036833780820191505090505b5090505b6000851461336b576001826132f791906149c7565b9150600a856133069190615000565b60306133129190614529565b60f81b81838151811061332857613327614193565b5b60200101907effffffffffffffffffffffffffffffffffffffffffffffffffffffffffffff1916908160001a905350600a856133649190614abc565b94506132e2565b8093505050505b919050565b82805461338390613ead565b90600052602060002090601f0160209004810192826133a557600085556133ec565b82601f106133be57805160ff19168380011785556133ec565b828001600101855582156133ec579182015b828111156133eb5782518255916020019190600101906133d0565b5b5090506133f99190613476565b5090565b6040518060a0016040528060008152602001600060ff168152602001600060ff1681526020016000151581526020016000151581525090565b50805461344290613ead565b6000825580601f106134545750613473565b601f0160209004906000526020600020908101906134729190613476565b5b50565b5b8082111561348f576000816000905550600101613477565b5090565b6000604051905090565b600080fd5b600080fd5b60007fffffffff0000000000000000000000000000000000000000000000000000000082169050919050565b6134dc816134a7565b81146134e757600080fd5b50565b6000813590506134f9816134d3565b92915050565b6000602082840312156135155761351461349d565b5b6000613523848285016134ea565b91505092915050565b60008115159050919050565b6135418161352c565b82525050565b600060208201905061355c6000830184613538565b92915050565b600081519050919050565b600082825260208201905092915050565b6000819050602082019050919050565b6000819050919050565b6135a18161358e565b82525050565b600060ff82169050919050565b6135bd816135a7565b82525050565b6135cc8161352c565b82525050565b60a0820160008201516135e86000850182613598565b5060208201516135fb60208501826135b4565b50604082015161360e60408501826135b4565b50606082015161362160608501826135c3565b50608082015161363460808501826135c3565b50505050565b600061364683836135d2565b60a08301905092915050565b6000602082019050919050565b600061366a82613562565b613674818561356d565b935061367f8361357e565b8060005b838110156136b0578151613697888261363a565b97506136a283613652565b925050600181019050613683565b5085935050505092915050565b600060208201905081810360008301526136d7818461365f565b905092915050565b600081519050919050565b600082825260208201905092915050565b60005b838110156137195780820151818401526020810190506136fe565b83811115613728576000848401525b50505050565b6000601f19601f8301169050919050565b600061374a826136df565b61375481856136ea565b93506137648185602086016136fb565b61376d8161372e565b840191505092915050565b60006020820190508181036000830152613792818461373f565b905092915050565b6137a38161358e565b81146137ae57600080fd5b50565b6000813590506137c08161379a565b92915050565b6000602082840312156137dc576137db61349d565b5b60006137ea848285016137b1565b91505092915050565b600073ffffffffffffffffffffffffffffffffffffffff82169050919050565b600061381e826137f3565b9050919050565b61382e81613813565b82525050565b60006020820190506138496000830184613825565b92915050565b61385881613813565b811461386357600080fd5b50565b6000813590506138758161384f565b92915050565b600080604083850312156138925761389161349d565b5b60006138a085828601613866565b92505060206138b1858286016137b1565b9150509250929050565b6138c4816135a7565b81146138cf57600080fd5b50565b6000813590506138e1816138bb565b92915050565b600080604083850312156138fe576138fd61349d565b5b600061390c858286016138d2565b925050602061391d85828601613866565b9150509250929050565b6139308161358e565b82525050565b600060208201905061394b6000830184613927565b92915050565b60008060006060848603121561396a5761396961349d565b5b600061397886828701613866565b935050602061398986828701613866565b925050604061399a868287016137b1565b9150509250925092565b600080fd5b600080fd5b7f4e487b7100000000000000000000000000000000000000000000000000000000600052604160045260246000fd5b6139e68261372e565b810181811067ffffffffffffffff82111715613a0557613a046139ae565b5b80604052505050565b6000613a18613493565b9050613a2482826139dd565b919050565b600067ffffffffffffffff821115613a4457613a436139ae565b5b613a4d8261372e565b9050602081019050919050565b82818337600083830152505050565b6000613a7c613a7784613a29565b613a0e565b905082815260208101848484011115613a9857613a976139a9565b5b613aa3848285613a5a565b509392505050565b600082601f830112613ac057613abf6139a4565b5b8135613ad0848260208601613a69565b91505092915050565b600060208284031215613aef57613aee61349d565b5b600082013567ffffffffffffffff811115613b0d57613b0c6134a2565b5b613b1984828501613aab565b91505092915050565b600060208284031215613b3857613b3761349d565b5b6000613b4684828501613866565b91505092915050565b60008060408385031215613b6657613b6561349d565b5b6000613b74858286016137b1565b9250506020613b85858286016137b1565b9150509250929050565b60008060408385031215613ba657613ba561349d565b5b6000613bb4858286016137b1565b9250506020613bc585828601613866565b9150509250929050565b613bd88161352c565b8114613be357600080fd5b50565b600081359050613bf581613bcf565b92915050565b60008060408385031215613c1257613c1161349d565b5b6000613c2085828601613866565b9250506020613c3185828601613be6565b9150509250929050565b600067ffffffffffffffff821115613c5657613c556139ae565b5b613c5f8261372e565b9050602081019050919050565b6000613c7f613c7a84613c3b565b613a0e565b905082815260208101848484011115613c9b57613c9a6139a9565b5b613ca6848285613a5a565b509392505050565b600082601f830112613cc357613cc26139a4565b5b8135613cd3848260208601613c6c565b91505092915050565b60008060008060808587031215613cf657613cf561349d565b5b6000613d0487828801613866565b9450506020613d1587828801613866565b9350506040613d26878288016137b1565b925050606085013567ffffffffffffffff811115613d4757613d466134a2565b5b613d5387828801613cae565b91505092959194509250565b60008060408385031215613d7657613d7561349d565b5b6000613d84858286016138d2565b925050602083013567ffffffffffffffff811115613da557613da46134a2565b5b613db185828601613aab565b9150509250929050565b60a082016000820151613dd16000850182613598565b506020820151613de460208501826135b4565b506040820151613df760408501826135b4565b506060820151613e0a60608501826135c3565b506080820151613e1d60808501826135c3565b50505050565b600060a082019050613e386000830184613dbb565b92915050565b60008060408385031215613e5557613e5461349d565b5b6000613e6385828601613866565b9250506020613e7485828601613866565b9150509250929050565b7f4e487b7100000000000000000000000000000000000000000000000000000000600052602260045260246000fd5b60006002820490506001821680613ec557607f821691505b60208210811415613ed957613ed8613e7e565b5b50919050565b7f4552433732313a20617070726f76656420717565727920666f72206e6f6e657860008201527f697374656e7420746f6b656e0000000000000000000000000000000000000000602082015250565b6000613f3b602c836136ea565b9150613f4682613edf565b604082019050919050565b60006020820190508181036000830152613f6a81613f2e565b9050919050565b7f4552433732313a20617070726f76616c20746f2063757272656e74206f776e6560008201527f7200000000000000000000000000000000000000000000000000000000000000602082015250565b6000613fcd6021836136ea565b9150613fd882613f71565b604082019050919050565b60006020820190508181036000830152613ffc81613fc0565b9050919050565b7f4552433732313a20617070726f76652063616c6c6572206973206e6f74206f7760008201527f6e6572206e6f7220617070726f76656420666f7220616c6c0000000000000000602082015250565b600061405f6038836136ea565b915061406a82614003565b604082019050919050565b6000602082019050818103600083015261408e81614052565b9050919050565b7f4f776e61626c653a2063616c6c6572206973206e6f7420746865206f776e6572600082015250565b60006140cb6020836136ea565b91506140d682614095565b602082019050919050565b600060208201905081810360008301526140fa816140be565b9050919050565b7f4552433732313a207472616e736665722063616c6c6572206973206e6f74206f60008201527f776e6572206e6f7220617070726f766564000000000000000000000000000000602082015250565b600061415d6031836136ea565b915061416882614101565b604082019050919050565b6000602082019050818103600083015261418c81614150565b9050919050565b7f4e487b7100000000000000000000000000000000000000000000000000000000600052603260045260246000fd5b7f4e487b7100000000000000000000000000000000000000000000000000000000600052601160045260246000fd5b60006141fc8261358e565b91507fffffffffffffffffffffffffffffffffffffffffffffffffffffffffffffffff82141561422f5761422e6141c2565b5b600182019050919050565b7f4e6f74206f776e65720000000000000000000000000000000000000000000000600082015250565b60006142706009836136ea565b915061427b8261423a565b602082019050919050565b6000602082019050818103600083015261429f81614263565b9050919050565b7f436f6e73756d61626c65207265736f6c766572206e6f7420646566696e656400600082015250565b60006142dc601f836136ea565b91506142e7826142a6565b602082019050919050565b6000602082019050818103600083015261430b816142cf565b9050919050565b600060e0820190506143276000830186613927565b6143346020830185613dbb565b61434160c0830184613825565b949350505050565b614352816135a7565b82525050565b600060208201905061436d6000830184614349565b92915050565b7f4552433732313a206f776e657220717565727920666f72206e6f6e657869737460008201527f656e7420746f6b656e0000000000000000000000000000000000000000000000602082015250565b60006143cf6029836136ea565b91506143da82614373565b604082019050919050565b600060208201905081810360008301526143fe816143c2565b9050919050565b7f4552433732313a2062616c616e636520717565727920666f7220746865207a6560008201527f726f206164647265737300000000000000000000000000000000000000000000602082015250565b6000614461602a836136ea565b915061446c82614405565b604082019050919050565b6000602082019050818103600083015261449081614454565b9050919050565b7f4f6e6c79207065726d697474656420616464726573732063616e20657865637560008201527f7465207468697320616374696f6e000000000000000000000000000000000000602082015250565b60006144f3602e836136ea565b91506144fe82614497565b604082019050919050565b60006020820190508181036000830152614522816144e6565b9050919050565b60006145348261358e565b915061453f8361358e565b9250827fffffffffffffffffffffffffffffffffffffffffffffffffffffffffffffffff03821115614574576145736141c2565b5b828201905092915050565b60008160000b9050919050565b6145958161457f565b82525050565b50565b60006145ab6000836136ea565b91506145b68261459b565b600082019050919050565b60006040820190506145d6600083018461458c565b81810360208301526145e78161459e565b905092915050565b6000604082019050614604600083018561458c565b8181036020830152614616818461373f565b90509392505050565b7f4552433732313a20617070726f766520746f2063616c6c657200000000000000600082015250565b60006146556019836136ea565b91506146608261461f565b602082019050919050565b6000602082019050818103600083015261468481614648565b9050919050565b600081905092915050565b60008190508160005260206000209050919050565b600081546146b881613ead565b6146c2818661468b565b945060018216600081146146dd57600181146146ee57614721565b60ff19831686528186019350614721565b6146f785614696565b60005b83811015614719578154818901526001820191506020810190506146fa565b838801955050505b50505092915050565b6000614735826136df565b61473f818561468b565b935061474f8185602086016136fb565b80840191505092915050565b600061476782856146ab565b9150614773828461472a565b91508190509392505050565b7f4f776e61626c653a206e6577206f776e657220697320746865207a65726f206160008201527f6464726573730000000000000000000000000000000000000000000000000000602082015250565b60006147db6026836136ea565b91506147e68261477f565b604082019050919050565b6000602082019050818103600083015261480a816147ce565b9050919050565b7f4552433732313a206f70657261746f7220717565727920666f72206e6f6e657860008201527f697374656e7420746f6b656e0000000000000000000000000000000000000000602082015250565b600061486d602c836136ea565b915061487882614811565b604082019050919050565b6000602082019050818103600083015261489c81614860565b9050919050565b7f4552433732313a207472616e73666572206f6620746f6b656e2074686174206960008201527f73206e6f74206f776e0000000000000000000000000000000000000000000000602082015250565b60006148ff6029836136ea565b915061490a826148a3565b604082019050919050565b6000602082019050818103600083015261492e816148f2565b9050919050565b7f4552433732313a207472616e7366657220746f20746865207a65726f2061646460008201527f7265737300000000000000000000000000000000000000000000000000000000602082015250565b60006149916024836136ea565b915061499c82614935565b604082019050919050565b600060208201905081810360008301526149c081614984565b9050919050565b60006149d28261358e565b91506149dd8361358e565b9250828210156149f0576149ef6141c2565b5b828203905092915050565b7f4e487b7100000000000000000000000000000000000000000000000000000000600052603160045260246000fd5b60008160601b9050919050565b6000614a4282614a2a565b9050919050565b6000614a5482614a37565b9050919050565b614a6c614a6782613813565b614a49565b82525050565b6000614a7e8284614a5b565b60148201915081905092915050565b7f4e487b7100000000000000000000000000000000000000000000000000000000600052601260045260246000fd5b6000614ac78261358e565b9150614ad28361358e565b925082614ae257614ae1614a8d565b5b828204905092915050565b6000614af8826137f3565b9050919050565b6000614b0a82614a37565b9050919050565b614b22614b1d82614aed565b614aff565b82525050565b6000614b348284614b11565b60148201915081905092915050565b6000819050919050565b614b5e614b598261358e565b614b43565b82525050565b6000614b708284614b4d565b60208201915081905092915050565b6000614b8a8261358e565b9150614b958361358e565b9250817fffffffffffffffffffffffffffffffffffffffffffffffffffffffffffffffff0483118215151615614bce57614bcd6141c2565b5b828202905092915050565b7f45524337323155524953746f726167653a2055524920736574206f66206e6f6e60008201527f6578697374656e7420746f6b656e000000000000000000000000000000000000602082015250565b6000614c35602e836136ea565b9150614c4082614bd9565b604082019050919050565b60006020820190508181036000830152614c6481614c28565b9050919050565b7f4552433732313a207472616e7366657220746f206e6f6e20455243373231526560008201527f63656976657220696d706c656d656e7465720000000000000000000000000000602082015250565b6000614cc76032836136ea565b9150614cd282614c6b565b604082019050919050565b60006020820190508181036000830152614cf681614cba565b9050919050565b7f45524337323155524953746f726167653a2055524920717565727920666f722060008201527f6e6f6e6578697374656e7420746f6b656e000000000000000000000000000000602082015250565b6000614d596031836136ea565b9150614d6482614cfd565b604082019050919050565b60006020820190508181036000830152614d8881614d4c565b9050919050565b6000614d9b828561472a565b9150614da7828461472a565b91508190509392505050565b600081519050919050565b600082825260208201905092915050565b6000614dda82614db3565b614de48185614dbe565b9350614df48185602086016136fb565b614dfd8161372e565b840191505092915050565b6000608082019050614e1d6000830187613825565b614e2a6020830186613825565b614e376040830185613927565b8181036060830152614e498184614dcf565b905095945050505050565b600081519050614e63816134d3565b92915050565b600060208284031215614e7f57614e7e61349d565b5b6000614e8d84828501614e54565b91505092915050565b7f4552433732314d657461646174613a2055524920717565727920666f72206e6f60008201527f6e6578697374656e7420746f6b656e0000000000000000000000000000000000602082015250565b6000614ef2602f836136ea565b9150614efd82614e96565b604082019050919050565b60006020820190508181036000830152614f2181614ee5565b9050919050565b7f4552433732313a206d696e7420746f20746865207a65726f2061646472657373600082015250565b6000614f5e6020836136ea565b9150614f6982614f28565b602082019050919050565b60006020820190508181036000830152614f8d81614f51565b9050919050565b7f4552433732313a20746f6b656e20616c7265616479206d696e74656400000000600082015250565b6000614fca601c836136ea565b9150614fd582614f94565b602082019050919050565b60006020820190508181036000830152614ff981614fbd565b9050919050565b600061500b8261358e565b91506150168361358e565b92508261502657615025614a8d565b5b82820690509291505056fea2646970667358221220f99803ca979b5e2e6f66e70f4fdc91a6b5a5e71970400551d9176d1f31d087b564736f6c63430008090033",
  "immutableReferences": {},
  "source": "// SPDX-License-Identifier: MIT\npragma solidity 0.8.9;\n\nimport \"../node_modules/@openzeppelin/contracts/token/ERC721/extensions/ERC721URIStorage.sol\";\nimport \"../node_modules/@openzeppelin/contracts/utils/Counters.sol\";\nimport \"../node_modules/@openzeppelin/contracts/access/Ownable.sol\";\nimport \"./interfaces/IConsumable.sol\";\nimport \"./interfaces/IConsumableResolver.sol\";\nimport \"./library/SharedStructs.sol\";\n\ncontract Consumable is IConsumable, ERC721URIStorage, Ownable {\n    event ConsumableMinted(\n        address indexed owner,\n        uint256 indexed tokenId,\n        uint256 indexed heroId,\n        int8 consumableType,\n        string tokenURI\n    );\n    event ConsumableUsed(\n        address indexed owner,\n        uint256 indexed tokenId,\n        uint8 consumableType\n    );\n\n    mapping(address => bool) private _mintPermittedAddress;\n    mapping(uint8 => address) private _consumableResolversAddress;\n    mapping(uint8 => string) private _consumableTokenURI;\n\n    using Counters for Counters.Counter;\n    Counters.Counter private _currentConsumableId;\n\n    SharedStructs.Consumable[] private _consumables;\n\n    string private _baseTokenURI;\n\n    constructor(\n        string memory name,\n        string memory symbol,\n        string memory baseTokenURI\n    ) ERC721(name, symbol) {\n        _baseTokenURI = baseTokenURI;\n    }\n\n    function setBaseTokenURI(string memory _newBaseTokenURI) external onlyOwner {\n        _baseTokenURI = _newBaseTokenURI;\n    }\n\n    function totalSupply() external view returns (uint256) {\n        return _consumables.length;\n    }\n\n    function setConsumableTokenURI(uint8 _type, string memory _tokenURI)\n        external\n        onlyOwner\n    {\n        _consumableTokenURI[_type] = _tokenURI;\n    }\n\n    function setConsumableResolversAddress(uint8 _type, address _newAddress)\n        external\n        onlyOwner\n    {\n        _consumableResolversAddress[_type] = _newAddress;\n    }\n\n    function addMintPermittedAddress(address newAddress) external onlyOwner {\n        _mintPermittedAddress[newAddress] = true;\n    }\n\n    function removeMintPermittedAddress(address newAddress) external onlyOwner {\n        delete _mintPermittedAddress[newAddress];\n    }\n\n    modifier onlyPermittedAddress() {\n        require(\n            _mintPermittedAddress[_msgSender()],\n            \"Only permitted address can execute this action\"\n        );\n        _;\n    }\n\n    function getConsumables()\n        external\n        view\n        returns (SharedStructs.Consumable[] memory)\n    {\n        return _consumables;\n    }\n\n    function getNextConsumableId() external view returns (uint256) {\n        return _currentConsumableId.current();\n    }\n\n    function mint(uint256 heroId, address owner) external onlyPermittedAddress {\n        uint256 newConsumableId = _currentConsumableId.current();\n\n        uint256 consumableChance = rand(newConsumableId, 1000) + 1;\n        int8 consumableType = -1;\n\n        if (consumableChance <= 750) {\n            _safeMint(owner, newConsumableId);\n            _currentConsumableId.increment();\n            if (consumableChance <= 500) {\n                _consumables.push(\n                    SharedStructs.Consumable(\n                        newConsumableId,\n                        10,\n                        10,\n                        false,\n                        false\n                    )\n                );\n                consumableType = 0;\n            } else if (consumableChance <= 600) {\n                _consumables.push(\n                    SharedStructs.Consumable(newConsumableId, 0, 0, true, false)\n                );\n                consumableType = 2;\n            } else if (consumableChance <= 700) {\n                _consumables.push(\n                    SharedStructs.Consumable(newConsumableId, 0, 0, false, true)\n                );\n                consumableType = 3;\n            } else {\n                _consumables.push(\n                    SharedStructs.Consumable(\n                        newConsumableId,\n                        50,\n                        100,\n                        false,\n                        false\n                    )\n                );\n                consumableType = 1;\n            }\n\n            _setTokenURI(\n                newConsumableId,\n                _consumableTokenURI[uint8(consumableType)]\n            );\n        }\n        if (consumableType == -1) {\n            emit ConsumableMinted(\n                owner,\n                newConsumableId,\n                heroId,\n                consumableType,\n                \"\"\n            );\n        } else {\n            emit ConsumableMinted(\n                owner,\n                newConsumableId,\n                heroId,\n                consumableType,\n                tokenURI(newConsumableId)\n            );\n        }\n    }\n\n    function getConsumablesByAddress(address owner)\n        public\n        view\n        returns (SharedStructs.Consumable[] memory)\n    {\n        uint256 consumableCount = balanceOf(owner);\n\n        if (consumableCount == 0) {\n            return new SharedStructs.Consumable[](0);\n        } else {\n            SharedStructs.Consumable[]\n                memory ret = new SharedStructs.Consumable[](consumableCount);\n            uint256 i;\n            uint256 curIndex = 0;\n\n            for (i = 0; i < _consumables.length; i++) {\n                if (ownerOf(_consumables[i].id) == owner) {\n                    ret[curIndex++] = _consumables[i];\n                }\n            }\n\n            return ret;\n        }\n    }\n\n    function getMyConsumables()\n        external\n        view\n        returns (SharedStructs.Consumable[] memory)\n    {\n        return getConsumablesByAddress(msg.sender);\n    }\n\n    function getConsumable(uint256 _consumableId)\n        external\n        view\n        returns (SharedStructs.Consumable memory)\n    {\n        return _getConsumable(_consumableId);\n    }\n\n    function _getConsumable(uint256 _consumableId)\n        internal\n        view\n        returns (SharedStructs.Consumable memory ret)\n    {\n        for (uint256 index = 0; index < _consumables.length; index++) {\n            if (_consumables[index].id == _consumableId) {\n                ret = _consumables[index];\n            }\n        }\n    }\n\n    function consume(uint256 _token, uint256 _consumableId) external {\n        require(msg.sender == ownerOf(_consumableId), \"Not owner\");\n\n        SharedStructs.Consumable memory consumable = _getConsumable(\n            _consumableId\n        );\n\n        uint8 consumableType;\n\n        if (consumable.maxXPGain == 10 && consumable.percXPGain == 10) {\n            consumableType = 0;\n        } else if (consumable.maxXPGain == 100 && consumable.percXPGain == 50) {\n            consumableType = 1;\n        } else if (consumable.generateArenaTicket) {\n            consumableType = 2;\n        } else if (consumable.generateEquipment) {\n            consumableType = 3;\n        }\n\n        require(\n            _consumableResolversAddress[consumableType] != address(0),\n            \"Consumable resolver not defined\"\n        );\n\n        IConsumableResolver(_consumableResolversAddress[consumableType])\n            .resolve(_token, consumable, msg.sender);\n\n        _removeConsumable(_consumableId);\n        _burn(_consumableId);\n\n        emit ConsumableUsed(msg.sender, _consumableId, consumableType);\n    }\n\n    function _removeConsumable(uint256 _consumableId) internal {\n        uint256 index = _getIndexConsumable(_consumableId);\n\n        require(index < _consumables.length);\n        _consumables[index] = _consumables[_consumables.length - 1];\n        _consumables.pop();\n    }\n\n    function _getIndexConsumable(uint256 _consumableId)\n        internal\n        view\n        returns (uint256)\n    {\n        for (uint256 i = 0; i < _consumables.length; i++) {\n            if (_consumableId == _consumables[i].id) {\n                return i;\n            }\n        }\n        return _consumables.length;\n    }\n\n    function rand(uint256 seed1, uint256 limit) private view returns (uint256) {\n        uint256 seed = uint256(\n            keccak256(\n                abi.encodePacked(\n                    block.timestamp +\n                        block.difficulty +\n                        seed1 +\n                        ((\n                            uint256(keccak256(abi.encodePacked(block.coinbase)))\n                        ) / (block.timestamp)) +\n                        block.gaslimit +\n                        ((uint256(keccak256(abi.encodePacked(msg.sender)))) /\n                            (block.timestamp)) +\n                        block.number\n                )\n            )\n        );\n\n        return (seed - ((seed / (limit + 1)) * (limit + 1)));\n    }\n\n    function tokenURI(uint256 tokenId)\n        public\n        view\n        virtual\n        override\n        returns (string memory)\n    {\n        return string(abi.encodePacked(_baseTokenURI, super.tokenURI(tokenId)));\n    }\n}\n",
  "sourcePath": "/home/rfaita/game/nft-game/contract/contracts/Consumable.sol",
  "compiler": {
    "name": "solc",
    "version": "0.8.9+commit.e5eed63a.Emscripten.clang"
  },
  "schemaVersion": "3.4.7",
  "updatedAt": "2022-05-02T19:53:09.235Z",
  "networkType": "ethereum",
  "devdoc": {
    "kind": "dev",
    "methods": {
      "approve(address,uint256)": {
        "details": "See {IERC721-approve}."
      },
      "balanceOf(address)": {
        "details": "See {IERC721-balanceOf}."
      },
      "getApproved(uint256)": {
        "details": "See {IERC721-getApproved}."
      },
      "isApprovedForAll(address,address)": {
        "details": "See {IERC721-isApprovedForAll}."
      },
      "name()": {
        "details": "See {IERC721Metadata-name}."
      },
      "owner()": {
        "details": "Returns the address of the current owner."
      },
      "ownerOf(uint256)": {
        "details": "See {IERC721-ownerOf}."
      },
      "renounceOwnership()": {
        "details": "Leaves the contract without owner. It will not be possible to call `onlyOwner` functions anymore. Can only be called by the current owner. NOTE: Renouncing ownership will leave the contract without an owner, thereby removing any functionality that is only available to the owner."
      },
      "safeTransferFrom(address,address,uint256)": {
        "details": "See {IERC721-safeTransferFrom}."
      },
      "safeTransferFrom(address,address,uint256,bytes)": {
        "details": "See {IERC721-safeTransferFrom}."
      },
      "setApprovalForAll(address,bool)": {
        "details": "See {IERC721-setApprovalForAll}."
      },
      "supportsInterface(bytes4)": {
        "details": "See {IERC165-supportsInterface}."
      },
      "symbol()": {
        "details": "See {IERC721Metadata-symbol}."
      },
      "tokenURI(uint256)": {
        "details": "See {IERC721Metadata-tokenURI}."
      },
      "transferFrom(address,address,uint256)": {
        "details": "See {IERC721-transferFrom}."
      },
      "transferOwnership(address)": {
        "details": "Transfers ownership of the contract to a new account (`newOwner`). Can only be called by the current owner."
      }
    },
    "version": 1
  },
  "userdoc": {
    "kind": "user",
    "methods": {},
    "version": 1
  }
}