{
  "contractName": "Consumable",
  "abi": [
    {
      "inputs": [
        {
          "internalType": "string",
          "name": "name",
          "type": "string"
        },
        {
          "internalType": "string",
          "name": "symbol",
          "type": "string"
        },
        {
          "internalType": "string",
          "name": "baseTokenURI",
          "type": "string"
        }
      ],
      "stateMutability": "nonpayable",
      "type": "constructor"
    },
    {
      "anonymous": false,
      "inputs": [
        {
          "indexed": true,
          "internalType": "address",
          "name": "owner",
          "type": "address"
        },
        {
          "indexed": true,
          "internalType": "address",
          "name": "approved",
          "type": "address"
        },
        {
          "indexed": true,
          "internalType": "uint256",
          "name": "tokenId",
          "type": "uint256"
        }
      ],
      "name": "Approval",
      "type": "event"
    },
    {
      "anonymous": false,
      "inputs": [
        {
          "indexed": true,
          "internalType": "address",
          "name": "owner",
          "type": "address"
        },
        {
          "indexed": true,
          "internalType": "address",
          "name": "operator",
          "type": "address"
        },
        {
          "indexed": false,
          "internalType": "bool",
          "name": "approved",
          "type": "bool"
        }
      ],
      "name": "ApprovalForAll",
      "type": "event"
    },
    {
      "anonymous": false,
      "inputs": [
        {
          "indexed": true,
          "internalType": "address",
          "name": "owner",
          "type": "address"
        },
        {
          "indexed": true,
          "internalType": "uint256",
          "name": "tokenId",
          "type": "uint256"
        },
        {
          "indexed": true,
          "internalType": "uint256",
          "name": "heroId",
          "type": "uint256"
        },
        {
          "indexed": false,
          "internalType": "int8",
          "name": "consumableType",
          "type": "int8"
        },
        {
          "indexed": false,
          "internalType": "string",
          "name": "tokenURI",
          "type": "string"
        }
      ],
      "name": "ConsumableMinted",
      "type": "event"
    },
    {
      "anonymous": false,
      "inputs": [
        {
          "indexed": true,
          "internalType": "address",
          "name": "owner",
          "type": "address"
        },
        {
          "indexed": true,
          "internalType": "uint256",
          "name": "tokenId",
          "type": "uint256"
        },
        {
          "indexed": false,
          "internalType": "uint8",
          "name": "consumableType",
          "type": "uint8"
        }
      ],
      "name": "ConsumableUsed",
      "type": "event"
    },
    {
      "anonymous": false,
      "inputs": [
        {
          "indexed": true,
          "internalType": "address",
          "name": "previousOwner",
          "type": "address"
        },
        {
          "indexed": true,
          "internalType": "address",
          "name": "newOwner",
          "type": "address"
        }
      ],
      "name": "OwnershipTransferred",
      "type": "event"
    },
    {
      "anonymous": false,
      "inputs": [
        {
          "indexed": true,
          "internalType": "address",
          "name": "from",
          "type": "address"
        },
        {
          "indexed": true,
          "internalType": "address",
          "name": "to",
          "type": "address"
        },
        {
          "indexed": true,
          "internalType": "uint256",
          "name": "tokenId",
          "type": "uint256"
        }
      ],
      "name": "Transfer",
      "type": "event"
    },
    {
      "inputs": [
        {
          "internalType": "address",
          "name": "to",
          "type": "address"
        },
        {
          "internalType": "uint256",
          "name": "tokenId",
          "type": "uint256"
        }
      ],
      "name": "approve",
      "outputs": [],
      "stateMutability": "nonpayable",
      "type": "function"
    },
    {
      "inputs": [
        {
          "internalType": "address",
          "name": "owner",
          "type": "address"
        }
      ],
      "name": "balanceOf",
      "outputs": [
        {
          "internalType": "uint256",
          "name": "",
          "type": "uint256"
        }
      ],
      "stateMutability": "view",
      "type": "function",
      "constant": true
    },
    {
      "inputs": [
        {
          "internalType": "uint256",
          "name": "tokenId",
          "type": "uint256"
        }
      ],
      "name": "getApproved",
      "outputs": [
        {
          "internalType": "address",
          "name": "",
          "type": "address"
        }
      ],
      "stateMutability": "view",
      "type": "function",
      "constant": true
    },
    {
      "inputs": [
        {
          "internalType": "address",
          "name": "owner",
          "type": "address"
        },
        {
          "internalType": "address",
          "name": "operator",
          "type": "address"
        }
      ],
      "name": "isApprovedForAll",
      "outputs": [
        {
          "internalType": "bool",
          "name": "",
          "type": "bool"
        }
      ],
      "stateMutability": "view",
      "type": "function",
      "constant": true
    },
    {
      "inputs": [],
      "name": "name",
      "outputs": [
        {
          "internalType": "string",
          "name": "",
          "type": "string"
        }
      ],
      "stateMutability": "view",
      "type": "function",
      "constant": true
    },
    {
      "inputs": [],
      "name": "owner",
      "outputs": [
        {
          "internalType": "address",
          "name": "",
          "type": "address"
        }
      ],
      "stateMutability": "view",
      "type": "function",
      "constant": true
    },
    {
      "inputs": [
        {
          "internalType": "uint256",
          "name": "tokenId",
          "type": "uint256"
        }
      ],
      "name": "ownerOf",
      "outputs": [
        {
          "internalType": "address",
          "name": "",
          "type": "address"
        }
      ],
      "stateMutability": "view",
      "type": "function",
      "constant": true
    },
    {
      "inputs": [],
      "name": "renounceOwnership",
      "outputs": [],
      "stateMutability": "nonpayable",
      "type": "function"
    },
    {
      "inputs": [
        {
          "internalType": "address",
          "name": "from",
          "type": "address"
        },
        {
          "internalType": "address",
          "name": "to",
          "type": "address"
        },
        {
          "internalType": "uint256",
          "name": "tokenId",
          "type": "uint256"
        }
      ],
      "name": "safeTransferFrom",
      "outputs": [],
      "stateMutability": "nonpayable",
      "type": "function"
    },
    {
      "inputs": [
        {
          "internalType": "address",
          "name": "from",
          "type": "address"
        },
        {
          "internalType": "address",
          "name": "to",
          "type": "address"
        },
        {
          "internalType": "uint256",
          "name": "tokenId",
          "type": "uint256"
        },
        {
          "internalType": "bytes",
          "name": "_data",
          "type": "bytes"
        }
      ],
      "name": "safeTransferFrom",
      "outputs": [],
      "stateMutability": "nonpayable",
      "type": "function"
    },
    {
      "inputs": [
        {
          "internalType": "address",
          "name": "operator",
          "type": "address"
        },
        {
          "internalType": "bool",
          "name": "approved",
          "type": "bool"
        }
      ],
      "name": "setApprovalForAll",
      "outputs": [],
      "stateMutability": "nonpayable",
      "type": "function"
    },
    {
      "inputs": [
        {
          "internalType": "bytes4",
          "name": "interfaceId",
          "type": "bytes4"
        }
      ],
      "name": "supportsInterface",
      "outputs": [
        {
          "internalType": "bool",
          "name": "",
          "type": "bool"
        }
      ],
      "stateMutability": "view",
      "type": "function",
      "constant": true
    },
    {
      "inputs": [],
      "name": "symbol",
      "outputs": [
        {
          "internalType": "string",
          "name": "",
          "type": "string"
        }
      ],
      "stateMutability": "view",
      "type": "function",
      "constant": true
    },
    {
      "inputs": [
        {
          "internalType": "address",
          "name": "from",
          "type": "address"
        },
        {
          "internalType": "address",
          "name": "to",
          "type": "address"
        },
        {
          "internalType": "uint256",
          "name": "tokenId",
          "type": "uint256"
        }
      ],
      "name": "transferFrom",
      "outputs": [],
      "stateMutability": "nonpayable",
      "type": "function"
    },
    {
      "inputs": [
        {
          "internalType": "address",
          "name": "newOwner",
          "type": "address"
        }
      ],
      "name": "transferOwnership",
      "outputs": [],
      "stateMutability": "nonpayable",
      "type": "function"
    },
    {
      "inputs": [],
      "name": "totalSupply",
      "outputs": [
        {
          "internalType": "uint256",
          "name": "",
          "type": "uint256"
        }
      ],
      "stateMutability": "view",
      "type": "function",
      "constant": true
    },
    {
      "inputs": [
        {
          "internalType": "uint8",
          "name": "_type",
          "type": "uint8"
        },
        {
          "internalType": "string",
          "name": "_tokenURI",
          "type": "string"
        }
      ],
      "name": "setConsumableTokenURI",
      "outputs": [],
      "stateMutability": "nonpayable",
      "type": "function"
    },
    {
      "inputs": [
        {
          "internalType": "uint8",
          "name": "_type",
          "type": "uint8"
        },
        {
          "internalType": "address",
          "name": "_newAddress",
          "type": "address"
        }
      ],
      "name": "setConsumableResolversAddress",
      "outputs": [],
      "stateMutability": "nonpayable",
      "type": "function"
    },
    {
      "inputs": [
        {
          "internalType": "address",
          "name": "newAddress",
          "type": "address"
        }
      ],
      "name": "addMintPermittedAddress",
      "outputs": [],
      "stateMutability": "nonpayable",
      "type": "function"
    },
    {
      "inputs": [
        {
          "internalType": "address",
          "name": "newAddress",
          "type": "address"
        }
      ],
      "name": "removeMintPermittedAddress",
      "outputs": [],
      "stateMutability": "nonpayable",
      "type": "function"
    },
    {
      "inputs": [],
      "name": "getConsumables",
      "outputs": [
        {
          "components": [
            {
              "internalType": "uint256",
              "name": "id",
              "type": "uint256"
            },
            {
              "internalType": "uint8",
              "name": "percXPGain",
              "type": "uint8"
            },
            {
              "internalType": "uint8",
              "name": "maxXPGain",
              "type": "uint8"
            },
            {
              "internalType": "bool",
              "name": "generateArenaTicket",
              "type": "bool"
            },
            {
              "internalType": "bool",
              "name": "generateEquipment",
              "type": "bool"
            }
          ],
          "internalType": "struct SharedStructs.Consumable[]",
          "name": "",
          "type": "tuple[]"
        }
      ],
      "stateMutability": "view",
      "type": "function",
      "constant": true
    },
    {
      "inputs": [],
      "name": "getNextConsumableId",
      "outputs": [
        {
          "internalType": "uint256",
          "name": "",
          "type": "uint256"
        }
      ],
      "stateMutability": "view",
      "type": "function",
      "constant": true
    },
    {
      "inputs": [
        {
          "internalType": "uint256",
          "name": "heroId",
          "type": "uint256"
        },
        {
          "internalType": "address",
          "name": "owner",
          "type": "address"
        }
      ],
      "name": "mint",
      "outputs": [],
      "stateMutability": "nonpayable",
      "type": "function"
    },
    {
      "inputs": [
        {
          "internalType": "address",
          "name": "owner",
          "type": "address"
        }
      ],
      "name": "getConsumablesByAddress",
      "outputs": [
        {
          "components": [
            {
              "internalType": "uint256",
              "name": "id",
              "type": "uint256"
            },
            {
              "internalType": "uint8",
              "name": "percXPGain",
              "type": "uint8"
            },
            {
              "internalType": "uint8",
              "name": "maxXPGain",
              "type": "uint8"
            },
            {
              "internalType": "bool",
              "name": "generateArenaTicket",
              "type": "bool"
            },
            {
              "internalType": "bool",
              "name": "generateEquipment",
              "type": "bool"
            }
          ],
          "internalType": "struct SharedStructs.Consumable[]",
          "name": "",
          "type": "tuple[]"
        }
      ],
      "stateMutability": "view",
      "type": "function",
      "constant": true
    },
    {
      "inputs": [],
      "name": "getMyConsumables",
      "outputs": [
        {
          "components": [
            {
              "internalType": "uint256",
              "name": "id",
              "type": "uint256"
            },
            {
              "internalType": "uint8",
              "name": "percXPGain",
              "type": "uint8"
            },
            {
              "internalType": "uint8",
              "name": "maxXPGain",
              "type": "uint8"
            },
            {
              "internalType": "bool",
              "name": "generateArenaTicket",
              "type": "bool"
            },
            {
              "internalType": "bool",
              "name": "generateEquipment",
              "type": "bool"
            }
          ],
          "internalType": "struct SharedStructs.Consumable[]",
          "name": "",
          "type": "tuple[]"
        }
      ],
      "stateMutability": "view",
      "type": "function",
      "constant": true
    },
    {
      "inputs": [
        {
          "internalType": "uint256",
          "name": "_consumableId",
          "type": "uint256"
        }
      ],
      "name": "getConsumable",
      "outputs": [
        {
          "components": [
            {
              "internalType": "uint256",
              "name": "id",
              "type": "uint256"
            },
            {
              "internalType": "uint8",
              "name": "percXPGain",
              "type": "uint8"
            },
            {
              "internalType": "uint8",
              "name": "maxXPGain",
              "type": "uint8"
            },
            {
              "internalType": "bool",
              "name": "generateArenaTicket",
              "type": "bool"
            },
            {
              "internalType": "bool",
              "name": "generateEquipment",
              "type": "bool"
            }
          ],
          "internalType": "struct SharedStructs.Consumable",
          "name": "",
          "type": "tuple"
        }
      ],
      "stateMutability": "view",
      "type": "function",
      "constant": true
    },
    {
      "inputs": [
        {
          "internalType": "uint256",
          "name": "_token",
          "type": "uint256"
        },
        {
          "internalType": "uint256",
          "name": "_consumableId",
          "type": "uint256"
        }
      ],
      "name": "consume",
      "outputs": [],
      "stateMutability": "nonpayable",
      "type": "function"
    },
    {
      "inputs": [
        {
          "internalType": "uint256",
          "name": "tokenId",
          "type": "uint256"
        }
      ],
      "name": "tokenURI",
      "outputs": [
        {
          "internalType": "string",
          "name": "",
          "type": "string"
        }
      ],
      "stateMutability": "view",
      "type": "function",
      "constant": true
    }
  ],
  "bytecode": "0x60806040523480156200001157600080fd5b5060405162005449380380620054498339818101604052810190620000379190620003ca565b82828160009080519060200190620000519291906200017d565b5080600190805190602001906200006a9291906200017d565b5050506200008d62000081620000af60201b60201c565b620000b760201b60201c565b80600d9080519060200190620000a59291906200017d565b50505050620004e8565b600033905090565b6000600760009054906101000a900473ffffffffffffffffffffffffffffffffffffffff16905081600760006101000a81548173ffffffffffffffffffffffffffffffffffffffff021916908373ffffffffffffffffffffffffffffffffffffffff1602179055508173ffffffffffffffffffffffffffffffffffffffff168173ffffffffffffffffffffffffffffffffffffffff167f8be0079c531659141344cd1fd0a4f28419497f9722a3daafe3b4186f6b6457e060405160405180910390a35050565b8280546200018b90620004b2565b90600052602060002090601f016020900481019282620001af5760008555620001fb565b82601f10620001ca57805160ff1916838001178555620001fb565b82800160010185558215620001fb579182015b82811115620001fa578251825591602001919060010190620001dd565b5b5090506200020a91906200020e565b5090565b5b80821115620002295760008160009055506001016200020f565b5090565b6000604051905090565b600080fd5b600080fd5b600080fd5b600080fd5b6000601f19601f8301169050919050565b7f4e487b7100000000000000000000000000000000000000000000000000000000600052604160045260246000fd5b62000296826200024b565b810181811067ffffffffffffffff82111715620002b857620002b76200025c565b5b80604052505050565b6000620002cd6200022d565b9050620002db82826200028b565b919050565b600067ffffffffffffffff821115620002fe57620002fd6200025c565b5b62000309826200024b565b9050602081019050919050565b60005b838110156200033657808201518184015260208101905062000319565b8381111562000346576000848401525b50505050565b6000620003636200035d84620002e0565b620002c1565b90508281526020810184848401111562000382576200038162000246565b5b6200038f84828562000316565b509392505050565b600082601f830112620003af57620003ae62000241565b5b8151620003c18482602086016200034c565b91505092915050565b600080600060608486031215620003e657620003e562000237565b5b600084015167ffffffffffffffff8111156200040757620004066200023c565b5b620004158682870162000397565b935050602084015167ffffffffffffffff8111156200043957620004386200023c565b5b620004478682870162000397565b925050604084015167ffffffffffffffff8111156200046b576200046a6200023c565b5b620004798682870162000397565b9150509250925092565b7f4e487b7100000000000000000000000000000000000000000000000000000000600052602260045260246000fd5b60006002820490506001821680620004cb57607f821691505b60208210811415620004e257620004e162000483565b5b50919050565b614f5180620004f86000396000f3fe608060405234801561001057600080fd5b50600436106101c45760003560e01c8063715018a6116100f9578063c87b56dd11610097578063e985e9c511610071578063e985e9c5146104f1578063f2fde38b14610521578063f9dabbb01461053d578063fe4737d714610559576101c4565b8063c87b56dd14610475578063d4df8f68146104a5578063dc7b5e0a146104c1576101c4565b806394bf804d116100d357806394bf804d1461040357806395d89b411461041f578063a22cb4651461043d578063b88d4fde14610459576101c4565b8063715018a6146103bd5780638c04e6a1146103c75780638da5cb5b146103e5576101c4565b80631bc6c0e8116101665780634a55385c116101405780634a55385c146103115780634eeea7ad146103415780636352211e1461035d57806370a082311461038d576101c4565b80631bc6c0e8146102bb57806323b872dd146102d957806342842e0e146102f5576101c4565b8063081812fc116101a2578063081812fc14610235578063095ea7b3146102655780630e0f27321461028157806318160ddd1461029d576101c4565b806301ffc9a7146101c957806304ed63e6146101f957806306fdde0314610217575b600080fd5b6101e360048036038101906101de9190613440565b610575565b6040516101f09190613488565b60405180910390f35b610201610657565b60405161020e91906135fe565b60405180910390f35b61021f610667565b60405161022c91906136b9565b60405180910390f35b61024f600480360381019061024a9190613707565b6106f9565b60405161025c9190613775565b60405180910390f35b61027f600480360381019061027a91906137bc565b61077e565b005b61029b60048036038101906102969190613828565b610896565b005b6102a561096e565b6040516102b29190613877565b60405180910390f35b6102c361097b565b6040516102d09190613877565b60405180910390f35b6102f360048036038101906102ee9190613892565b61098c565b005b61030f600480360381019061030a9190613892565b6109ec565b005b61032b600480360381019061032691906138e5565b610a0c565b60405161033891906135fe565b60405180910390f35b61035b60048036038101906103569190613912565b610c45565b005b61037760048036038101906103729190613707565b610efd565b6040516103849190613775565b60405180910390f35b6103a760048036038101906103a291906138e5565b610faf565b6040516103b49190613877565b60405180910390f35b6103c5611067565b005b6103cf6110ef565b6040516103dc91906135fe565b60405180910390f35b6103ed6111c8565b6040516103fa9190613775565b60405180910390f35b61041d60048036038101906104189190613952565b6111f2565b005b610427611874565b60405161043491906136b9565b60405180910390f35b610457600480360381019061045291906139be565b611906565b005b610473600480360381019061046e9190613b33565b611a87565b005b61048f600480360381019061048a9190613707565b611ae9565b60405161049c91906136b9565b60405180910390f35b6104bf60048036038101906104ba9190613c57565b611b1d565b005b6104db60048036038101906104d69190613707565b611bcb565b6040516104e89190613d1b565b60405180910390f35b61050b60048036038101906105069190613d36565b611be3565b6040516105189190613488565b60405180910390f35b61053b600480360381019061053691906138e5565b611c77565b005b610557600480360381019061055291906138e5565b611d6f565b005b610573600480360381019061056e91906138e5565b611e46565b005b60007f80ac58cd000000000000000000000000000000000000000000000000000000007bffffffffffffffffffffffffffffffffffffffffffffffffffffffff1916827bffffffffffffffffffffffffffffffffffffffffffffffffffffffff1916148061064057507f5b5e139f000000000000000000000000000000000000000000000000000000007bffffffffffffffffffffffffffffffffffffffffffffffffffffffff1916827bffffffffffffffffffffffffffffffffffffffffffffffffffffffff1916145b80610650575061064f82611f14565b5b9050919050565b606061066233610a0c565b905090565b60606000805461067690613da5565b80601f01602080910402602001604051908101604052809291908181526020018280546106a290613da5565b80156106ef5780601f106106c4576101008083540402835291602001916106ef565b820191906000526020600020905b8154815290600101906020018083116106d257829003601f168201915b5050505050905090565b600061070482611f7e565b610743576040517f08c379a000000000000000000000000000000000000000000000000000000000815260040161073a90613e49565b60405180910390fd5b6004600083815260200190815260200160002060009054906101000a900473ffffffffffffffffffffffffffffffffffffffff169050919050565b600061078982610efd565b90508073ffffffffffffffffffffffffffffffffffffffff168373ffffffffffffffffffffffffffffffffffffffff1614156107fa576040517f08c379a00000000000000000000000000000000000000000000000000000000081526004016107f190613edb565b60405180910390fd5b8073ffffffffffffffffffffffffffffffffffffffff16610819611fea565b73ffffffffffffffffffffffffffffffffffffffff161480610848575061084781610842611fea565b611be3565b5b610887576040517f08c379a000000000000000000000000000000000000000000000000000000000815260040161087e90613f6d565b60405180910390fd5b6108918383611ff2565b505050565b61089e611fea565b73ffffffffffffffffffffffffffffffffffffffff166108bc6111c8565b73ffffffffffffffffffffffffffffffffffffffff1614610912576040517f08c379a000000000000000000000000000000000000000000000000000000000815260040161090990613fd9565b60405180910390fd5b80600960008460ff1660ff16815260200190815260200160002060006101000a81548173ffffffffffffffffffffffffffffffffffffffff021916908373ffffffffffffffffffffffffffffffffffffffff1602179055505050565b6000600c80549050905090565b6000610987600b6120ab565b905090565b61099d610997611fea565b826120b9565b6109dc576040517f08c379a00000000000000000000000000000000000000000000000000000000081526004016109d39061406b565b60405180910390fd5b6109e7838383612197565b505050565b610a0783838360405180602001604052806000815250611a87565b505050565b60606000610a1983610faf565b90506000811415610a8157600067ffffffffffffffff811115610a3f57610a3e613a08565b5b604051908082528060200260200182016040528015610a7857816020015b610a656132b8565b815260200190600190039081610a5d5790505b50915050610c40565b60008167ffffffffffffffff811115610a9d57610a9c613a08565b5b604051908082528060200260200182016040528015610ad657816020015b610ac36132b8565b815260200190600190039081610abb5790505b50905060008060009050600091505b600c80549050821015610c38578573ffffffffffffffffffffffffffffffffffffffff16610b37600c8481548110610b2057610b1f61408b565b5b906000526020600020906002020160000154610efd565b73ffffffffffffffffffffffffffffffffffffffff161415610c2557600c8281548110610b6757610b6661408b565b5b90600052602060002090600202016040518060a0016040529081600082015481526020016001820160009054906101000a900460ff1660ff1660ff1681526020016001820160019054906101000a900460ff1660ff1660ff1681526020016001820160029054906101000a900460ff161515151581526020016001820160039054906101000a900460ff161515151581525050838280610c06906140e9565b935081518110610c1957610c1861408b565b5b60200260200101819052505b8180610c30906140e9565b925050610ae5565b829450505050505b919050565b610c4e81610efd565b73ffffffffffffffffffffffffffffffffffffffff163373ffffffffffffffffffffffffffffffffffffffff1614610cbb576040517f08c379a0000000000000000000000000000000000000000000000000000000008152600401610cb29061417e565b60405180910390fd5b6000610cc6826123f3565b90506000600a826040015160ff16148015610ce85750600a826020015160ff16145b15610cf65760009050610d47565b6064826040015160ff16148015610d1457506032826020015160ff16145b15610d225760019050610d46565b816060015115610d355760029050610d45565b816080015115610d4457600390505b5b5b5b600073ffffffffffffffffffffffffffffffffffffffff16600960008360ff1660ff16815260200190815260200160002060009054906101000a900473ffffffffffffffffffffffffffffffffffffffff1673ffffffffffffffffffffffffffffffffffffffff161415610df0576040517f08c379a0000000000000000000000000000000000000000000000000000000008152600401610de7906141ea565b60405180910390fd5b600960008260ff1660ff16815260200190815260200160002060009054906101000a900473ffffffffffffffffffffffffffffffffffffffff1673ffffffffffffffffffffffffffffffffffffffff166351220e6685846040518363ffffffff1660e01b8152600401610e6492919061420a565b600060405180830381600087803b158015610e7e57600080fd5b505af1158015610e92573d6000803e3d6000fd5b50505050610e9f836124fb565b610ea8836126b8565b823373ffffffffffffffffffffffffffffffffffffffff167f68bfd164513ccb2f6170301badd50fc8a26ad2854cc3325e2756caa8f4496d7383604051610eef9190614242565b60405180910390a350505050565b6000806002600084815260200190815260200160002060009054906101000a900473ffffffffffffffffffffffffffffffffffffffff169050600073ffffffffffffffffffffffffffffffffffffffff168173ffffffffffffffffffffffffffffffffffffffff161415610fa6576040517f08c379a0000000000000000000000000000000000000000000000000000000008152600401610f9d906142cf565b60405180910390fd5b80915050919050565b60008073ffffffffffffffffffffffffffffffffffffffff168273ffffffffffffffffffffffffffffffffffffffff161415611020576040517f08c379a000000000000000000000000000000000000000000000000000000000815260040161101790614361565b60405180910390fd5b600360008373ffffffffffffffffffffffffffffffffffffffff1673ffffffffffffffffffffffffffffffffffffffff168152602001908152602001600020549050919050565b61106f611fea565b73ffffffffffffffffffffffffffffffffffffffff1661108d6111c8565b73ffffffffffffffffffffffffffffffffffffffff16146110e3576040517f08c379a00000000000000000000000000000000000000000000000000000000081526004016110da90613fd9565b60405180910390fd5b6110ed600061270b565b565b6060600c805480602002602001604051908101604052809291908181526020016000905b828210156111bf57838290600052602060002090600202016040518060a0016040529081600082015481526020016001820160009054906101000a900460ff1660ff1660ff1681526020016001820160019054906101000a900460ff1660ff1660ff1681526020016001820160029054906101000a900460ff161515151581526020016001820160039054906101000a900460ff16151515158152505081526020019060010190611113565b50505050905090565b6000600760009054906101000a900473ffffffffffffffffffffffffffffffffffffffff16905090565b600860006111fe611fea565b73ffffffffffffffffffffffffffffffffffffffff1673ffffffffffffffffffffffffffffffffffffffff16815260200190815260200160002060009054906101000a900460ff16611285576040517f08c379a000000000000000000000000000000000000000000000000000000000815260040161127c906143f3565b60405180910390fd5b6000611291600b6120ab565b9050600060016112a3836103e86127d1565b6112ad9190614413565b905060007fffffffffffffffffffffffffffffffffffffffffffffffffffffffffffffffff90506102ee8211611792576112e784846128ed565b6112f1600b61290b565b6101f482116113f157600c6040518060a00160405280858152602001600a60ff168152602001600a60ff1681526020016000151581526020016000151581525090806001815401808255809150506001900390600052602060002090600202016000909190919091506000820151816000015560208201518160010160006101000a81548160ff021916908360ff16021790555060408201518160010160016101000a81548160ff021916908360ff16021790555060608201518160010160026101000a81548160ff02191690831515021790555060808201518160010160036101000a81548160ff0219169083151502179055505050600090506116e6565b61025882116114f157600c6040518060a00160405280858152602001600060ff168152602001600060ff1681526020016001151581526020016000151581525090806001815401808255809150506001900390600052602060002090600202016000909190919091506000820151816000015560208201518160010160006101000a81548160ff021916908360ff16021790555060408201518160010160016101000a81548160ff021916908360ff16021790555060608201518160010160026101000a81548160ff02191690831515021790555060808201518160010160036101000a81548160ff0219169083151502179055505050600290506116e5565b6102bc82116115f157600c6040518060a00160405280858152602001600060ff168152602001600060ff1681526020016000151581526020016001151581525090806001815401808255809150506001900390600052602060002090600202016000909190919091506000820151816000015560208201518160010160006101000a81548160ff021916908360ff16021790555060408201518160010160016101000a81548160ff021916908360ff16021790555060608201518160010160026101000a81548160ff02191690831515021790555060808201518160010160036101000a81548160ff0219169083151502179055505050600390506116e4565b600c6040518060a00160405280858152602001603260ff168152602001606460ff1681526020016000151581526020016000151581525090806001815401808255809150506001900390600052602060002090600202016000909190919091506000820151816000015560208201518160010160006101000a81548160ff021916908360ff16021790555060408201518160010160016101000a81548160ff021916908360ff16021790555060608201518160010160026101000a81548160ff02191690831515021790555060808201518160010160036101000a81548160ff0219169083151502179055505050600190505b5b5b61179183600a60008460ff1660ff168152602001908152602001600020805461170e90613da5565b80601f016020809104026020016040519081016040528092919081815260200182805461173a90613da5565b80156117875780601f1061175c57610100808354040283529160200191611787565b820191906000526020600020905b81548152906001019060200180831161176a57829003601f168201915b5050505050612921565b5b7fffffffffffffffffffffffffffffffffffffffffffffffffffffffffffffffff8160000b14156118125784838573ffffffffffffffffffffffffffffffffffffffff167f3568608b2c87722b6c985a673a73c2a0f8eaa4e65e7b7f2cc5064ba261ee3eac8460405161180591906144ab565b60405180910390a461186d565b84838573ffffffffffffffffffffffffffffffffffffffff167f3568608b2c87722b6c985a673a73c2a0f8eaa4e65e7b7f2cc5064ba261ee3eac8461185688611ae9565b6040516118649291906144d9565b60405180910390a45b5050505050565b60606001805461188390613da5565b80601f01602080910402602001604051908101604052809291908181526020018280546118af90613da5565b80156118fc5780601f106118d1576101008083540402835291602001916118fc565b820191906000526020600020905b8154815290600101906020018083116118df57829003601f168201915b5050505050905090565b61190e611fea565b73ffffffffffffffffffffffffffffffffffffffff168273ffffffffffffffffffffffffffffffffffffffff16141561197c576040517f08c379a000000000000000000000000000000000000000000000000000000000815260040161197390614555565b60405180910390fd5b8060056000611989611fea565b73ffffffffffffffffffffffffffffffffffffffff1673ffffffffffffffffffffffffffffffffffffffff16815260200190815260200160002060008473ffffffffffffffffffffffffffffffffffffffff1673ffffffffffffffffffffffffffffffffffffffff16815260200190815260200160002060006101000a81548160ff0219169083151502179055508173ffffffffffffffffffffffffffffffffffffffff16611a36611fea565b73ffffffffffffffffffffffffffffffffffffffff167f17307eab39ab6107e8899845ad3d59bd9653f200f220920489ca2b5937696c3183604051611a7b9190613488565b60405180910390a35050565b611a98611a92611fea565b836120b9565b611ad7576040517f08c379a0000000000000000000000000000000000000000000000000000000008152600401611ace9061406b565b60405180910390fd5b611ae384848484612995565b50505050565b6060600d611af6836129f1565b604051602001611b07929190614645565b6040516020818303038152906040529050919050565b611b25611fea565b73ffffffffffffffffffffffffffffffffffffffff16611b436111c8565b73ffffffffffffffffffffffffffffffffffffffff1614611b99576040517f08c379a0000000000000000000000000000000000000000000000000000000008152600401611b9090613fd9565b60405180910390fd5b80600a60008460ff1660ff1681526020019081526020016000209080519060200190611bc69291906132f1565b505050565b611bd36132b8565b611bdc826123f3565b9050919050565b6000600560008473ffffffffffffffffffffffffffffffffffffffff1673ffffffffffffffffffffffffffffffffffffffff16815260200190815260200160002060008373ffffffffffffffffffffffffffffffffffffffff1673ffffffffffffffffffffffffffffffffffffffff16815260200190815260200160002060009054906101000a900460ff16905092915050565b611c7f611fea565b73ffffffffffffffffffffffffffffffffffffffff16611c9d6111c8565b73ffffffffffffffffffffffffffffffffffffffff1614611cf3576040517f08c379a0000000000000000000000000000000000000000000000000000000008152600401611cea90613fd9565b60405180910390fd5b600073ffffffffffffffffffffffffffffffffffffffff168173ffffffffffffffffffffffffffffffffffffffff161415611d63576040517f08c379a0000000000000000000000000000000000000000000000000000000008152600401611d5a906146db565b60405180910390fd5b611d6c8161270b565b50565b611d77611fea565b73ffffffffffffffffffffffffffffffffffffffff16611d956111c8565b73ffffffffffffffffffffffffffffffffffffffff1614611deb576040517f08c379a0000000000000000000000000000000000000000000000000000000008152600401611de290613fd9565b60405180910390fd5b6001600860008373ffffffffffffffffffffffffffffffffffffffff1673ffffffffffffffffffffffffffffffffffffffff16815260200190815260200160002060006101000a81548160ff02191690831515021790555050565b611e4e611fea565b73ffffffffffffffffffffffffffffffffffffffff16611e6c6111c8565b73ffffffffffffffffffffffffffffffffffffffff1614611ec2576040517f08c379a0000000000000000000000000000000000000000000000000000000008152600401611eb990613fd9565b60405180910390fd5b600860008273ffffffffffffffffffffffffffffffffffffffff1673ffffffffffffffffffffffffffffffffffffffff16815260200190815260200160002060006101000a81549060ff021916905550565b60007f01ffc9a7000000000000000000000000000000000000000000000000000000007bffffffffffffffffffffffffffffffffffffffffffffffffffffffff1916827bffffffffffffffffffffffffffffffffffffffffffffffffffffffff1916149050919050565b60008073ffffffffffffffffffffffffffffffffffffffff166002600084815260200190815260200160002060009054906101000a900473ffffffffffffffffffffffffffffffffffffffff1673ffffffffffffffffffffffffffffffffffffffff1614159050919050565b600033905090565b816004600083815260200190815260200160002060006101000a81548173ffffffffffffffffffffffffffffffffffffffff021916908373ffffffffffffffffffffffffffffffffffffffff160217905550808273ffffffffffffffffffffffffffffffffffffffff1661206583610efd565b73ffffffffffffffffffffffffffffffffffffffff167f8c5be1e5ebec7d5bd14f71427d1e84f3dd0314c0f7b2291e5b200ac8c7c3b92560405160405180910390a45050565b600081600001549050919050565b60006120c482611f7e565b612103576040517f08c379a00000000000000000000000000000000000000000000000000000000081526004016120fa9061476d565b60405180910390fd5b600061210e83610efd565b90508073ffffffffffffffffffffffffffffffffffffffff168473ffffffffffffffffffffffffffffffffffffffff16148061217d57508373ffffffffffffffffffffffffffffffffffffffff16612165846106f9565b73ffffffffffffffffffffffffffffffffffffffff16145b8061218e575061218d8185611be3565b5b91505092915050565b8273ffffffffffffffffffffffffffffffffffffffff166121b782610efd565b73ffffffffffffffffffffffffffffffffffffffff161461220d576040517f08c379a0000000000000000000000000000000000000000000000000000000008152600401612204906147ff565b60405180910390fd5b600073ffffffffffffffffffffffffffffffffffffffff168273ffffffffffffffffffffffffffffffffffffffff16141561227d576040517f08c379a000000000000000000000000000000000000000000000000000000000815260040161227490614891565b60405180910390fd5b612288838383612b43565b612293600082611ff2565b6001600360008573ffffffffffffffffffffffffffffffffffffffff1673ffffffffffffffffffffffffffffffffffffffff16815260200190815260200160002060008282546122e391906148b1565b925050819055506001600360008473ffffffffffffffffffffffffffffffffffffffff1673ffffffffffffffffffffffffffffffffffffffff168152602001908152602001600020600082825461233a9190614413565b92505081905550816002600083815260200190815260200160002060006101000a81548173ffffffffffffffffffffffffffffffffffffffff021916908373ffffffffffffffffffffffffffffffffffffffff160217905550808273ffffffffffffffffffffffffffffffffffffffff168473ffffffffffffffffffffffffffffffffffffffff167fddf252ad1be2c89b69c2b068fc378daa952ba7f163c4a11628f55a4df523b3ef60405160405180910390a4505050565b6123fb6132b8565b60005b600c805490508110156124f55782600c82815481106124205761241f61408b565b5b90600052602060002090600202016000015414156124e257600c818154811061244c5761244b61408b565b5b90600052602060002090600202016040518060a0016040529081600082015481526020016001820160009054906101000a900460ff1660ff1660ff1681526020016001820160019054906101000a900460ff1660ff1660ff1681526020016001820160029054906101000a900460ff161515151581526020016001820160039054906101000a900460ff16151515158152505091505b80806124ed906140e9565b9150506123fe565b50919050565b600061250682612b48565b9050600c80549050811061251957600080fd5b600c6001600c8054905061252d91906148b1565b8154811061253e5761253d61408b565b5b9060005260206000209060020201600c82815481106125605761255f61408b565b5b9060005260206000209060020201600082015481600001556001820160009054906101000a900460ff168160010160006101000a81548160ff021916908360ff1602179055506001820160019054906101000a900460ff168160010160016101000a81548160ff021916908360ff1602179055506001820160029054906101000a900460ff168160010160026101000a81548160ff0219169083151502179055506001820160039054906101000a900460ff168160010160036101000a81548160ff021916908315150217905550905050600c805480612643576126426148e5565b5b60019003818190600052602060002090600202016000808201600090556001820160006101000a81549060ff02191690556001820160016101000a81549060ff02191690556001820160026101000a81549060ff02191690556001820160036101000a81549060ff0219169055505090555050565b6126c181612bb5565b60006006600083815260200190815260200160002080546126e190613da5565b905014612708576006600082815260200190815260200160002060006127079190613377565b5b50565b6000600760009054906101000a900473ffffffffffffffffffffffffffffffffffffffff16905081600760006101000a81548173ffffffffffffffffffffffffffffffffffffffff021916908373ffffffffffffffffffffffffffffffffffffffff1602179055508173ffffffffffffffffffffffffffffffffffffffff168173ffffffffffffffffffffffffffffffffffffffff167f8be0079c531659141344cd1fd0a4f28419497f9722a3daafe3b4186f6b6457e060405160405180910390a35050565b6000804342336040516020016127e7919061495c565b6040516020818303038152906040528051906020012060001c61280a91906149a6565b45424160405160200161281d9190614a12565b6040516020818303038152906040528051906020012060001c61284091906149a6565b87444261284d9190614413565b6128579190614413565b6128619190614413565b61286b9190614413565b6128759190614413565b61287f9190614413565b60405160200161288f9190614a4e565b6040516020818303038152906040528051906020012060001c90506001836128b79190614413565b6001846128c49190614413565b826128cf91906149a6565b6128d99190614a69565b816128e491906148b1565b91505092915050565b612907828260405180602001604052806000815250612cc6565b5050565b6001816000016000828254019250508190555050565b61292a82611f7e565b612969576040517f08c379a000000000000000000000000000000000000000000000000000000000815260040161296090614b35565b60405180910390fd5b806006600084815260200190815260200160002090805190602001906129909291906132f1565b505050565b6129a0848484612197565b6129ac84848484612d21565b6129eb576040517f08c379a00000000000000000000000000000000000000000000000000000000081526004016129e290614bc7565b60405180910390fd5b50505050565b60606129fc82611f7e565b612a3b576040517f08c379a0000000000000000000000000000000000000000000000000000000008152600401612a3290614c59565b60405180910390fd5b6000600660008481526020019081526020016000208054612a5b90613da5565b80601f0160208091040260200160405190810160405280929190818152602001828054612a8790613da5565b8015612ad45780601f10612aa957610100808354040283529160200191612ad4565b820191906000526020600020905b815481529060010190602001808311612ab757829003601f168201915b505050505090506000612ae5612eb8565b9050600081511415612afb578192505050612b3e565b600082511115612b30578082604051602001612b18929190614c79565b60405160208183030381529060405292505050612b3e565b612b3984612ecf565b925050505b919050565b505050565b600080600090505b600c80549050811015612ba657600c8181548110612b7157612b7061408b565b5b906000526020600020906002020160000154831415612b935780915050612bb0565b8080612b9e906140e9565b915050612b50565b50600c8054905090505b919050565b6000612bc082610efd565b9050612bce81600084612b43565b612bd9600083611ff2565b6001600360008373ffffffffffffffffffffffffffffffffffffffff1673ffffffffffffffffffffffffffffffffffffffff1681526020019081526020016000206000828254612c2991906148b1565b925050819055506002600083815260200190815260200160002060006101000a81549073ffffffffffffffffffffffffffffffffffffffff021916905581600073ffffffffffffffffffffffffffffffffffffffff168273ffffffffffffffffffffffffffffffffffffffff167fddf252ad1be2c89b69c2b068fc378daa952ba7f163c4a11628f55a4df523b3ef60405160405180910390a45050565b612cd08383612f76565b612cdd6000848484612d21565b612d1c576040517f08c379a0000000000000000000000000000000000000000000000000000000008152600401612d1390614bc7565b60405180910390fd5b505050565b6000612d428473ffffffffffffffffffffffffffffffffffffffff16613144565b15612eab578373ffffffffffffffffffffffffffffffffffffffff1663150b7a02612d6b611fea565b8786866040518563ffffffff1660e01b8152600401612d8d9493929190614cf2565b602060405180830381600087803b158015612da757600080fd5b505af1925050508015612dd857506040513d601f19601f82011682018060405250810190612dd59190614d53565b60015b612e5b573d8060008114612e08576040519150601f19603f3d011682016040523d82523d6000602084013e612e0d565b606091505b50600081511415612e53576040517f08c379a0000000000000000000000000000000000000000000000000000000008152600401612e4a90614bc7565b60405180910390fd5b805181602001fd5b63150b7a0260e01b7bffffffffffffffffffffffffffffffffffffffffffffffffffffffff1916817bffffffffffffffffffffffffffffffffffffffffffffffffffffffff191614915050612eb0565b600190505b949350505050565b606060405180602001604052806000815250905090565b6060612eda82611f7e565b612f19576040517f08c379a0000000000000000000000000000000000000000000000000000000008152600401612f1090614df2565b60405180910390fd5b6000612f23612eb8565b90506000815111612f435760405180602001604052806000815250612f6e565b80612f4d84613157565b604051602001612f5e929190614c79565b6040516020818303038152906040525b915050919050565b600073ffffffffffffffffffffffffffffffffffffffff168273ffffffffffffffffffffffffffffffffffffffff161415612fe6576040517f08c379a0000000000000000000000000000000000000000000000000000000008152600401612fdd90614e5e565b60405180910390fd5b612fef81611f7e565b1561302f576040517f08c379a000000000000000000000000000000000000000000000000000000000815260040161302690614eca565b60405180910390fd5b61303b60008383612b43565b6001600360008473ffffffffffffffffffffffffffffffffffffffff1673ffffffffffffffffffffffffffffffffffffffff168152602001908152602001600020600082825461308b9190614413565b92505081905550816002600083815260200190815260200160002060006101000a81548173ffffffffffffffffffffffffffffffffffffffff021916908373ffffffffffffffffffffffffffffffffffffffff160217905550808273ffffffffffffffffffffffffffffffffffffffff16600073ffffffffffffffffffffffffffffffffffffffff167fddf252ad1be2c89b69c2b068fc378daa952ba7f163c4a11628f55a4df523b3ef60405160405180910390a45050565b600080823b905060008111915050919050565b6060600082141561319f576040518060400160405280600181526020017f300000000000000000000000000000000000000000000000000000000000000081525090506132b3565b600082905060005b600082146131d15780806131ba906140e9565b915050600a826131ca91906149a6565b91506131a7565b60008167ffffffffffffffff8111156131ed576131ec613a08565b5b6040519080825280601f01601f19166020018201604052801561321f5781602001600182028036833780820191505090505b5090505b600085146132ac5760018261323891906148b1565b9150600a856132479190614eea565b60306132539190614413565b60f81b8183815181106132695761326861408b565b5b60200101907effffffffffffffffffffffffffffffffffffffffffffffffffffffffffffff1916908160001a905350600a856132a591906149a6565b9450613223565b8093505050505b919050565b6040518060a0016040528060008152602001600060ff168152602001600060ff1681526020016000151581526020016000151581525090565b8280546132fd90613da5565b90600052602060002090601f01602090048101928261331f5760008555613366565b82601f1061333857805160ff1916838001178555613366565b82800160010185558215613366579182015b8281111561336557825182559160200191906001019061334a565b5b50905061337391906133b7565b5090565b50805461338390613da5565b6000825580601f1061339557506133b4565b601f0160209004906000526020600020908101906133b391906133b7565b5b50565b5b808211156133d05760008160009055506001016133b8565b5090565b6000604051905090565b600080fd5b600080fd5b60007fffffffff0000000000000000000000000000000000000000000000000000000082169050919050565b61341d816133e8565b811461342857600080fd5b50565b60008135905061343a81613414565b92915050565b600060208284031215613456576134556133de565b5b60006134648482850161342b565b91505092915050565b60008115159050919050565b6134828161346d565b82525050565b600060208201905061349d6000830184613479565b92915050565b600081519050919050565b600082825260208201905092915050565b6000819050602082019050919050565b6000819050919050565b6134e2816134cf565b82525050565b600060ff82169050919050565b6134fe816134e8565b82525050565b61350d8161346d565b82525050565b60a08201600082015161352960008501826134d9565b50602082015161353c60208501826134f5565b50604082015161354f60408501826134f5565b5060608201516135626060850182613504565b5060808201516135756080850182613504565b50505050565b60006135878383613513565b60a08301905092915050565b6000602082019050919050565b60006135ab826134a3565b6135b581856134ae565b93506135c0836134bf565b8060005b838110156135f15781516135d8888261357b565b97506135e383613593565b9250506001810190506135c4565b5085935050505092915050565b6000602082019050818103600083015261361881846135a0565b905092915050565b600081519050919050565b600082825260208201905092915050565b60005b8381101561365a57808201518184015260208101905061363f565b83811115613669576000848401525b50505050565b6000601f19601f8301169050919050565b600061368b82613620565b613695818561362b565b93506136a581856020860161363c565b6136ae8161366f565b840191505092915050565b600060208201905081810360008301526136d38184613680565b905092915050565b6136e4816134cf565b81146136ef57600080fd5b50565b600081359050613701816136db565b92915050565b60006020828403121561371d5761371c6133de565b5b600061372b848285016136f2565b91505092915050565b600073ffffffffffffffffffffffffffffffffffffffff82169050919050565b600061375f82613734565b9050919050565b61376f81613754565b82525050565b600060208201905061378a6000830184613766565b92915050565b61379981613754565b81146137a457600080fd5b50565b6000813590506137b681613790565b92915050565b600080604083850312156137d3576137d26133de565b5b60006137e1858286016137a7565b92505060206137f2858286016136f2565b9150509250929050565b613805816134e8565b811461381057600080fd5b50565b600081359050613822816137fc565b92915050565b6000806040838503121561383f5761383e6133de565b5b600061384d85828601613813565b925050602061385e858286016137a7565b9150509250929050565b613871816134cf565b82525050565b600060208201905061388c6000830184613868565b92915050565b6000806000606084860312156138ab576138aa6133de565b5b60006138b9868287016137a7565b93505060206138ca868287016137a7565b92505060406138db868287016136f2565b9150509250925092565b6000602082840312156138fb576138fa6133de565b5b6000613909848285016137a7565b91505092915050565b60008060408385031215613929576139286133de565b5b6000613937858286016136f2565b9250506020613948858286016136f2565b9150509250929050565b60008060408385031215613969576139686133de565b5b6000613977858286016136f2565b9250506020613988858286016137a7565b9150509250929050565b61399b8161346d565b81146139a657600080fd5b50565b6000813590506139b881613992565b92915050565b600080604083850312156139d5576139d46133de565b5b60006139e3858286016137a7565b92505060206139f4858286016139a9565b9150509250929050565b600080fd5b600080fd5b7f4e487b7100000000000000000000000000000000000000000000000000000000600052604160045260246000fd5b613a408261366f565b810181811067ffffffffffffffff82111715613a5f57613a5e613a08565b5b80604052505050565b6000613a726133d4565b9050613a7e8282613a37565b919050565b600067ffffffffffffffff821115613a9e57613a9d613a08565b5b613aa78261366f565b9050602081019050919050565b82818337600083830152505050565b6000613ad6613ad184613a83565b613a68565b905082815260208101848484011115613af257613af1613a03565b5b613afd848285613ab4565b509392505050565b600082601f830112613b1a57613b196139fe565b5b8135613b2a848260208601613ac3565b91505092915050565b60008060008060808587031215613b4d57613b4c6133de565b5b6000613b5b878288016137a7565b9450506020613b6c878288016137a7565b9350506040613b7d878288016136f2565b925050606085013567ffffffffffffffff811115613b9e57613b9d6133e3565b5b613baa87828801613b05565b91505092959194509250565b600067ffffffffffffffff821115613bd157613bd0613a08565b5b613bda8261366f565b9050602081019050919050565b6000613bfa613bf584613bb6565b613a68565b905082815260208101848484011115613c1657613c15613a03565b5b613c21848285613ab4565b509392505050565b600082601f830112613c3e57613c3d6139fe565b5b8135613c4e848260208601613be7565b91505092915050565b60008060408385031215613c6e57613c6d6133de565b5b6000613c7c85828601613813565b925050602083013567ffffffffffffffff811115613c9d57613c9c6133e3565b5b613ca985828601613c29565b9150509250929050565b60a082016000820151613cc960008501826134d9565b506020820151613cdc60208501826134f5565b506040820151613cef60408501826134f5565b506060820151613d026060850182613504565b506080820151613d156080850182613504565b50505050565b600060a082019050613d306000830184613cb3565b92915050565b60008060408385031215613d4d57613d4c6133de565b5b6000613d5b858286016137a7565b9250506020613d6c858286016137a7565b9150509250929050565b7f4e487b7100000000000000000000000000000000000000000000000000000000600052602260045260246000fd5b60006002820490506001821680613dbd57607f821691505b60208210811415613dd157613dd0613d76565b5b50919050565b7f4552433732313a20617070726f76656420717565727920666f72206e6f6e657860008201527f697374656e7420746f6b656e0000000000000000000000000000000000000000602082015250565b6000613e33602c8361362b565b9150613e3e82613dd7565b604082019050919050565b60006020820190508181036000830152613e6281613e26565b9050919050565b7f4552433732313a20617070726f76616c20746f2063757272656e74206f776e6560008201527f7200000000000000000000000000000000000000000000000000000000000000602082015250565b6000613ec560218361362b565b9150613ed082613e69565b604082019050919050565b60006020820190508181036000830152613ef481613eb8565b9050919050565b7f4552433732313a20617070726f76652063616c6c6572206973206e6f74206f7760008201527f6e6572206e6f7220617070726f76656420666f7220616c6c0000000000000000602082015250565b6000613f5760388361362b565b9150613f6282613efb565b604082019050919050565b60006020820190508181036000830152613f8681613f4a565b9050919050565b7f4f776e61626c653a2063616c6c6572206973206e6f7420746865206f776e6572600082015250565b6000613fc360208361362b565b9150613fce82613f8d565b602082019050919050565b60006020820190508181036000830152613ff281613fb6565b9050919050565b7f4552433732313a207472616e736665722063616c6c6572206973206e6f74206f60008201527f776e6572206e6f7220617070726f766564000000000000000000000000000000602082015250565b600061405560318361362b565b915061406082613ff9565b604082019050919050565b6000602082019050818103600083015261408481614048565b9050919050565b7f4e487b7100000000000000000000000000000000000000000000000000000000600052603260045260246000fd5b7f4e487b7100000000000000000000000000000000000000000000000000000000600052601160045260246000fd5b60006140f4826134cf565b91507fffffffffffffffffffffffffffffffffffffffffffffffffffffffffffffffff821415614127576141266140ba565b5b600182019050919050565b7f4e6f74206f776e65720000000000000000000000000000000000000000000000600082015250565b600061416860098361362b565b915061417382614132565b602082019050919050565b600060208201905081810360008301526141978161415b565b9050919050565b7f436f6e73756d61626c65207265736f6c766572206e6f7420646566696e656400600082015250565b60006141d4601f8361362b565b91506141df8261419e565b602082019050919050565b60006020820190508181036000830152614203816141c7565b9050919050565b600060c08201905061421f6000830185613868565b61422c6020830184613cb3565b9392505050565b61423c816134e8565b82525050565b60006020820190506142576000830184614233565b92915050565b7f4552433732313a206f776e657220717565727920666f72206e6f6e657869737460008201527f656e7420746f6b656e0000000000000000000000000000000000000000000000602082015250565b60006142b960298361362b565b91506142c48261425d565b604082019050919050565b600060208201905081810360008301526142e8816142ac565b9050919050565b7f4552433732313a2062616c616e636520717565727920666f7220746865207a6560008201527f726f206164647265737300000000000000000000000000000000000000000000602082015250565b600061434b602a8361362b565b9150614356826142ef565b604082019050919050565b6000602082019050818103600083015261437a8161433e565b9050919050565b7f4f6e6c79207065726d697474656420616464726573732063616e20657865637560008201527f7465207468697320616374696f6e000000000000000000000000000000000000602082015250565b60006143dd602e8361362b565b91506143e882614381565b604082019050919050565b6000602082019050818103600083015261440c816143d0565b9050919050565b600061441e826134cf565b9150614429836134cf565b9250827fffffffffffffffffffffffffffffffffffffffffffffffffffffffffffffffff0382111561445e5761445d6140ba565b5b828201905092915050565b60008160000b9050919050565b61447f81614469565b82525050565b50565b600061449560008361362b565b91506144a082614485565b600082019050919050565b60006040820190506144c06000830184614476565b81810360208301526144d181614488565b905092915050565b60006040820190506144ee6000830185614476565b81810360208301526145008184613680565b90509392505050565b7f4552433732313a20617070726f766520746f2063616c6c657200000000000000600082015250565b600061453f60198361362b565b915061454a82614509565b602082019050919050565b6000602082019050818103600083015261456e81614532565b9050919050565b600081905092915050565b60008190508160005260206000209050919050565b600081546145a281613da5565b6145ac8186614575565b945060018216600081146145c757600181146145d85761460b565b60ff1983168652818601935061460b565b6145e185614580565b60005b83811015614603578154818901526001820191506020810190506145e4565b838801955050505b50505092915050565b600061461f82613620565b6146298185614575565b935061463981856020860161363c565b80840191505092915050565b60006146518285614595565b915061465d8284614614565b91508190509392505050565b7f4f776e61626c653a206e6577206f776e657220697320746865207a65726f206160008201527f6464726573730000000000000000000000000000000000000000000000000000602082015250565b60006146c560268361362b565b91506146d082614669565b604082019050919050565b600060208201905081810360008301526146f4816146b8565b9050919050565b7f4552433732313a206f70657261746f7220717565727920666f72206e6f6e657860008201527f697374656e7420746f6b656e0000000000000000000000000000000000000000602082015250565b6000614757602c8361362b565b9150614762826146fb565b604082019050919050565b600060208201905081810360008301526147868161474a565b9050919050565b7f4552433732313a207472616e73666572206f6620746f6b656e2074686174206960008201527f73206e6f74206f776e0000000000000000000000000000000000000000000000602082015250565b60006147e960298361362b565b91506147f48261478d565b604082019050919050565b60006020820190508181036000830152614818816147dc565b9050919050565b7f4552433732313a207472616e7366657220746f20746865207a65726f2061646460008201527f7265737300000000000000000000000000000000000000000000000000000000602082015250565b600061487b60248361362b565b91506148868261481f565b604082019050919050565b600060208201905081810360008301526148aa8161486e565b9050919050565b60006148bc826134cf565b91506148c7836134cf565b9250828210156148da576148d96140ba565b5b828203905092915050565b7f4e487b7100000000000000000000000000000000000000000000000000000000600052603160045260246000fd5b60008160601b9050919050565b600061492c82614914565b9050919050565b600061493e82614921565b9050919050565b61495661495182613754565b614933565b82525050565b60006149688284614945565b60148201915081905092915050565b7f4e487b7100000000000000000000000000000000000000000000000000000000600052601260045260246000fd5b60006149b1826134cf565b91506149bc836134cf565b9250826149cc576149cb614977565b5b828204905092915050565b60006149e282613734565b9050919050565b60006149f482614921565b9050919050565b614a0c614a07826149d7565b6149e9565b82525050565b6000614a1e82846149fb565b60148201915081905092915050565b6000819050919050565b614a48614a43826134cf565b614a2d565b82525050565b6000614a5a8284614a37565b60208201915081905092915050565b6000614a74826134cf565b9150614a7f836134cf565b9250817fffffffffffffffffffffffffffffffffffffffffffffffffffffffffffffffff0483118215151615614ab857614ab76140ba565b5b828202905092915050565b7f45524337323155524953746f726167653a2055524920736574206f66206e6f6e60008201527f6578697374656e7420746f6b656e000000000000000000000000000000000000602082015250565b6000614b1f602e8361362b565b9150614b2a82614ac3565b604082019050919050565b60006020820190508181036000830152614b4e81614b12565b9050919050565b7f4552433732313a207472616e7366657220746f206e6f6e20455243373231526560008201527f63656976657220696d706c656d656e7465720000000000000000000000000000602082015250565b6000614bb160328361362b565b9150614bbc82614b55565b604082019050919050565b60006020820190508181036000830152614be081614ba4565b9050919050565b7f45524337323155524953746f726167653a2055524920717565727920666f722060008201527f6e6f6e6578697374656e7420746f6b656e000000000000000000000000000000602082015250565b6000614c4360318361362b565b9150614c4e82614be7565b604082019050919050565b60006020820190508181036000830152614c7281614c36565b9050919050565b6000614c858285614614565b9150614c918284614614565b91508190509392505050565b600081519050919050565b600082825260208201905092915050565b6000614cc482614c9d565b614cce8185614ca8565b9350614cde81856020860161363c565b614ce78161366f565b840191505092915050565b6000608082019050614d076000830187613766565b614d146020830186613766565b614d216040830185613868565b8181036060830152614d338184614cb9565b905095945050505050565b600081519050614d4d81613414565b92915050565b600060208284031215614d6957614d686133de565b5b6000614d7784828501614d3e565b91505092915050565b7f4552433732314d657461646174613a2055524920717565727920666f72206e6f60008201527f6e6578697374656e7420746f6b656e0000000000000000000000000000000000602082015250565b6000614ddc602f8361362b565b9150614de782614d80565b604082019050919050565b60006020820190508181036000830152614e0b81614dcf565b9050919050565b7f4552433732313a206d696e7420746f20746865207a65726f2061646472657373600082015250565b6000614e4860208361362b565b9150614e5382614e12565b602082019050919050565b60006020820190508181036000830152614e7781614e3b565b9050919050565b7f4552433732313a20746f6b656e20616c7265616479206d696e74656400000000600082015250565b6000614eb4601c8361362b565b9150614ebf82614e7e565b602082019050919050565b60006020820190508181036000830152614ee381614ea7565b9050919050565b6000614ef5826134cf565b9150614f00836134cf565b925082614f1057614f0f614977565b5b82820690509291505056fea26469706673582212208779bafa3516f6831a0fbe221b17caaf6ed42530198483d559434e9c79fc82c464736f6c63430008090033",
  "immutableReferences": {},
  "source": "// SPDX-License-Identifier: MIT\npragma solidity 0.8.9;\n\nimport \"../node_modules/@openzeppelin/contracts/token/ERC721/extensions/ERC721URIStorage.sol\";\nimport \"../node_modules/@openzeppelin/contracts/utils/Counters.sol\";\nimport \"../node_modules/@openzeppelin/contracts/access/Ownable.sol\";\nimport \"./interfaces/IConsumable.sol\";\nimport \"./interfaces/IConsumableResolver.sol\";\nimport \"./library/SharedStructs.sol\";\n\ncontract Consumable is IConsumable, ERC721URIStorage, Ownable {\n    event ConsumableMinted(\n        address indexed owner,\n        uint256 indexed tokenId,\n        uint256 indexed heroId,\n        int8 consumableType,\n        string tokenURI\n    );\n    event ConsumableUsed(\n        address indexed owner,\n        uint256 indexed tokenId,\n        uint8 consumableType\n    );\n\n    mapping(address => bool) private _mintPermittedAddress;\n    mapping(uint8 => address) private _consumableResolversAddress;\n    mapping(uint8 => string) private _consumableTokenURI;\n\n    using Counters for Counters.Counter;\n    Counters.Counter private _currentConsumableId;\n\n    SharedStructs.Consumable[] private _consumables;\n\n    string private _baseTokenURI;\n\n    constructor(\n        string memory name,\n        string memory symbol,\n        string memory baseTokenURI\n    ) ERC721(name, symbol) {\n        _baseTokenURI = baseTokenURI;\n    }\n\n    function totalSupply() external view returns (uint256) {\n        return _consumables.length;\n    }\n\n    function setConsumableTokenURI(uint8 _type, string memory _tokenURI)\n        external\n        onlyOwner\n    {\n        _consumableTokenURI[_type] = _tokenURI;\n    }\n\n    function setConsumableResolversAddress(uint8 _type, address _newAddress)\n        external\n        onlyOwner\n    {\n        _consumableResolversAddress[_type] = _newAddress;\n    }\n\n    function addMintPermittedAddress(address newAddress) external onlyOwner {\n        _mintPermittedAddress[newAddress] = true;\n    }\n\n    function removeMintPermittedAddress(address newAddress) external onlyOwner {\n        delete _mintPermittedAddress[newAddress];\n    }\n\n    modifier onlyPermittedAddress() {\n        require(\n            _mintPermittedAddress[_msgSender()],\n            \"Only permitted address can execute this action\"\n        );\n        _;\n    }\n\n    function getConsumables()\n        external\n        view\n        returns (SharedStructs.Consumable[] memory)\n    {\n        return _consumables;\n    }\n\n    function getNextConsumableId() external view returns (uint256) {\n        return _currentConsumableId.current();\n    }\n\n    function mint(uint256 heroId, address owner) external onlyPermittedAddress {\n        uint256 newConsumableId = _currentConsumableId.current();\n\n        uint256 consumableChance = rand(newConsumableId, 1000) + 1;\n        int8 consumableType = -1;\n\n        if (consumableChance <= 750) {\n            _safeMint(owner, newConsumableId);\n            _currentConsumableId.increment();\n            if (consumableChance <= 500) {\n                _consumables.push(\n                    SharedStructs.Consumable(\n                        newConsumableId,\n                        10,\n                        10,\n                        false,\n                        false\n                    )\n                );\n                consumableType = 0;\n            } else if (consumableChance <= 600) {\n                _consumables.push(\n                    SharedStructs.Consumable(newConsumableId, 0, 0, true, false)\n                );\n                consumableType = 2;\n            } else if (consumableChance <= 700) {\n                _consumables.push(\n                    SharedStructs.Consumable(newConsumableId, 0, 0, false, true)\n                );\n                consumableType = 3;\n            } else {\n                _consumables.push(\n                    SharedStructs.Consumable(\n                        newConsumableId,\n                        50,\n                        100,\n                        false,\n                        false\n                    )\n                );\n                consumableType = 1;\n            }\n\n            _setTokenURI(\n                newConsumableId,\n                _consumableTokenURI[uint8(consumableType)]\n            );\n        }\n        if (consumableType == -1) {\n            emit ConsumableMinted(\n                owner,\n                newConsumableId,\n                heroId,\n                consumableType,\n                \"\"\n            );\n        } else {\n            emit ConsumableMinted(\n                owner,\n                newConsumableId,\n                heroId,\n                consumableType,\n                tokenURI(newConsumableId)\n            );\n        }\n    }\n\n    function getConsumablesByAddress(address owner)\n        public\n        view\n        returns (SharedStructs.Consumable[] memory)\n    {\n        uint256 consumableCount = balanceOf(owner);\n\n        if (consumableCount == 0) {\n            return new SharedStructs.Consumable[](0);\n        } else {\n            SharedStructs.Consumable[]\n                memory ret = new SharedStructs.Consumable[](consumableCount);\n            uint256 i;\n            uint256 curIndex = 0;\n\n            for (i = 0; i < _consumables.length; i++) {\n                if (ownerOf(_consumables[i].id) == owner) {\n                    ret[curIndex++] = _consumables[i];\n                }\n            }\n\n            return ret;\n        }\n    }\n\n    function getMyConsumables()\n        external\n        view\n        returns (SharedStructs.Consumable[] memory)\n    {\n        return getConsumablesByAddress(msg.sender);\n    }\n\n    function getConsumable(uint256 _consumableId)\n        external\n        view\n        returns (SharedStructs.Consumable memory)\n    {\n        return _getConsumable(_consumableId);\n    }\n\n    function _getConsumable(uint256 _consumableId)\n        internal\n        view\n        returns (SharedStructs.Consumable memory ret)\n    {\n        for (uint256 index = 0; index < _consumables.length; index++) {\n            if (_consumables[index].id == _consumableId) {\n                ret = _consumables[index];\n            }\n        }\n    }\n\n    function consume(uint256 _token, uint256 _consumableId) external {\n        require(msg.sender == ownerOf(_consumableId), \"Not owner\");\n\n        SharedStructs.Consumable memory consumable = _getConsumable(\n            _consumableId\n        );\n\n        uint8 consumableType;\n\n        if (consumable.maxXPGain == 10 && consumable.percXPGain == 10) {\n            consumableType = 0;\n        } else if (consumable.maxXPGain == 100 && consumable.percXPGain == 50) {\n            consumableType = 1;\n        } else if (consumable.generateArenaTicket) {\n            consumableType = 2;\n        } else if (consumable.generateEquipment) {\n            consumableType = 3;\n        }\n\n        require(\n            _consumableResolversAddress[consumableType] != address(0),\n            \"Consumable resolver not defined\"\n        );\n\n        IConsumableResolver(_consumableResolversAddress[consumableType])\n            .resolve(_token, consumable);\n\n        _removeConsumable(_consumableId);\n        _burn(_consumableId);\n\n        emit ConsumableUsed(msg.sender, _consumableId, consumableType);\n    }\n\n    function _removeConsumable(uint256 _consumableId) internal {\n        uint256 index = _getIndexConsumable(_consumableId);\n\n        require(index < _consumables.length);\n        _consumables[index] = _consumables[_consumables.length - 1];\n        _consumables.pop();\n    }\n\n    function _getIndexConsumable(uint256 _consumableId)\n        internal\n        view\n        returns (uint256)\n    {\n        for (uint256 i = 0; i < _consumables.length; i++) {\n            if (_consumableId == _consumables[i].id) {\n                return i;\n            }\n        }\n        return _consumables.length;\n    }\n\n    function rand(uint256 seed1, uint256 limit) private view returns (uint256) {\n        uint256 seed = uint256(\n            keccak256(\n                abi.encodePacked(\n                    block.timestamp +\n                        block.difficulty +\n                        seed1 +\n                        ((\n                            uint256(keccak256(abi.encodePacked(block.coinbase)))\n                        ) / (block.timestamp)) +\n                        block.gaslimit +\n                        ((uint256(keccak256(abi.encodePacked(msg.sender)))) /\n                            (block.timestamp)) +\n                        block.number\n                )\n            )\n        );\n\n        return (seed - ((seed / (limit + 1)) * (limit + 1)));\n    }\n\n    function tokenURI(uint256 tokenId)\n        public\n        view\n        virtual\n        override\n        returns (string memory)\n    {\n        return string(abi.encodePacked(_baseTokenURI, super.tokenURI(tokenId)));\n    }\n}\n",
  "sourcePath": "/home/rfaita/game/nft-game/contract/contracts/Consumable.sol",
  "compiler": {
    "name": "solc",
    "version": "0.8.9+commit.e5eed63a.Emscripten.clang"
  },
  "schemaVersion": "3.4.4",
  "updatedAt": "2021-12-27T14:45:29.852Z",
  "networkType": "ethereum",
  "devdoc": {
    "kind": "dev",
    "methods": {
      "approve(address,uint256)": {
        "details": "See {IERC721-approve}."
      },
      "balanceOf(address)": {
        "details": "See {IERC721-balanceOf}."
      },
      "getApproved(uint256)": {
        "details": "See {IERC721-getApproved}."
      },
      "isApprovedForAll(address,address)": {
        "details": "See {IERC721-isApprovedForAll}."
      },
      "name()": {
        "details": "See {IERC721Metadata-name}."
      },
      "owner()": {
        "details": "Returns the address of the current owner."
      },
      "ownerOf(uint256)": {
        "details": "See {IERC721-ownerOf}."
      },
      "renounceOwnership()": {
        "details": "Leaves the contract without owner. It will not be possible to call `onlyOwner` functions anymore. Can only be called by the current owner. NOTE: Renouncing ownership will leave the contract without an owner, thereby removing any functionality that is only available to the owner."
      },
      "safeTransferFrom(address,address,uint256)": {
        "details": "See {IERC721-safeTransferFrom}."
      },
      "safeTransferFrom(address,address,uint256,bytes)": {
        "details": "See {IERC721-safeTransferFrom}."
      },
      "setApprovalForAll(address,bool)": {
        "details": "See {IERC721-setApprovalForAll}."
      },
      "supportsInterface(bytes4)": {
        "details": "See {IERC165-supportsInterface}."
      },
      "symbol()": {
        "details": "See {IERC721Metadata-symbol}."
      },
      "tokenURI(uint256)": {
        "details": "See {IERC721Metadata-tokenURI}."
      },
      "transferFrom(address,address,uint256)": {
        "details": "See {IERC721-transferFrom}."
      },
      "transferOwnership(address)": {
        "details": "Transfers ownership of the contract to a new account (`newOwner`). Can only be called by the current owner."
      }
    },
    "version": 1
  },
  "userdoc": {
    "kind": "user",
    "methods": {},
    "version": 1
  }
}