{
  "contractName": "Consumable",
  "abi": [
    {
      "inputs": [
        {
          "internalType": "string",
          "name": "name",
          "type": "string"
        },
        {
          "internalType": "string",
          "name": "symbol",
          "type": "string"
        },
        {
          "internalType": "string",
          "name": "baseTokenURI",
          "type": "string"
        }
      ],
      "stateMutability": "nonpayable",
      "type": "constructor"
    },
    {
      "anonymous": false,
      "inputs": [
        {
          "indexed": true,
          "internalType": "address",
          "name": "owner",
          "type": "address"
        },
        {
          "indexed": true,
          "internalType": "address",
          "name": "approved",
          "type": "address"
        },
        {
          "indexed": true,
          "internalType": "uint256",
          "name": "tokenId",
          "type": "uint256"
        }
      ],
      "name": "Approval",
      "type": "event"
    },
    {
      "anonymous": false,
      "inputs": [
        {
          "indexed": true,
          "internalType": "address",
          "name": "owner",
          "type": "address"
        },
        {
          "indexed": true,
          "internalType": "address",
          "name": "operator",
          "type": "address"
        },
        {
          "indexed": false,
          "internalType": "bool",
          "name": "approved",
          "type": "bool"
        }
      ],
      "name": "ApprovalForAll",
      "type": "event"
    },
    {
      "anonymous": false,
      "inputs": [
        {
          "indexed": true,
          "internalType": "address",
          "name": "owner",
          "type": "address"
        },
        {
          "indexed": true,
          "internalType": "uint256",
          "name": "tokenId",
          "type": "uint256"
        },
        {
          "indexed": true,
          "internalType": "uint256",
          "name": "heroId",
          "type": "uint256"
        },
        {
          "indexed": false,
          "internalType": "int8",
          "name": "consumableType",
          "type": "int8"
        },
        {
          "indexed": false,
          "internalType": "string",
          "name": "tokenURI",
          "type": "string"
        }
      ],
      "name": "ConsumableMinted",
      "type": "event"
    },
    {
      "anonymous": false,
      "inputs": [
        {
          "indexed": true,
          "internalType": "address",
          "name": "owner",
          "type": "address"
        },
        {
          "indexed": true,
          "internalType": "uint256",
          "name": "tokenId",
          "type": "uint256"
        },
        {
          "indexed": false,
          "internalType": "uint8",
          "name": "consumableType",
          "type": "uint8"
        }
      ],
      "name": "ConsumableUsed",
      "type": "event"
    },
    {
      "anonymous": false,
      "inputs": [
        {
          "indexed": true,
          "internalType": "address",
          "name": "previousOwner",
          "type": "address"
        },
        {
          "indexed": true,
          "internalType": "address",
          "name": "newOwner",
          "type": "address"
        }
      ],
      "name": "OwnershipTransferred",
      "type": "event"
    },
    {
      "anonymous": false,
      "inputs": [
        {
          "indexed": true,
          "internalType": "address",
          "name": "from",
          "type": "address"
        },
        {
          "indexed": true,
          "internalType": "address",
          "name": "to",
          "type": "address"
        },
        {
          "indexed": true,
          "internalType": "uint256",
          "name": "tokenId",
          "type": "uint256"
        }
      ],
      "name": "Transfer",
      "type": "event"
    },
    {
      "inputs": [
        {
          "internalType": "address",
          "name": "to",
          "type": "address"
        },
        {
          "internalType": "uint256",
          "name": "tokenId",
          "type": "uint256"
        }
      ],
      "name": "approve",
      "outputs": [],
      "stateMutability": "nonpayable",
      "type": "function"
    },
    {
      "inputs": [
        {
          "internalType": "address",
          "name": "owner",
          "type": "address"
        }
      ],
      "name": "balanceOf",
      "outputs": [
        {
          "internalType": "uint256",
          "name": "",
          "type": "uint256"
        }
      ],
      "stateMutability": "view",
      "type": "function",
      "constant": true
    },
    {
      "inputs": [
        {
          "internalType": "uint256",
          "name": "tokenId",
          "type": "uint256"
        }
      ],
      "name": "getApproved",
      "outputs": [
        {
          "internalType": "address",
          "name": "",
          "type": "address"
        }
      ],
      "stateMutability": "view",
      "type": "function",
      "constant": true
    },
    {
      "inputs": [
        {
          "internalType": "address",
          "name": "owner",
          "type": "address"
        },
        {
          "internalType": "address",
          "name": "operator",
          "type": "address"
        }
      ],
      "name": "isApprovedForAll",
      "outputs": [
        {
          "internalType": "bool",
          "name": "",
          "type": "bool"
        }
      ],
      "stateMutability": "view",
      "type": "function",
      "constant": true
    },
    {
      "inputs": [],
      "name": "name",
      "outputs": [
        {
          "internalType": "string",
          "name": "",
          "type": "string"
        }
      ],
      "stateMutability": "view",
      "type": "function",
      "constant": true
    },
    {
      "inputs": [],
      "name": "owner",
      "outputs": [
        {
          "internalType": "address",
          "name": "",
          "type": "address"
        }
      ],
      "stateMutability": "view",
      "type": "function",
      "constant": true
    },
    {
      "inputs": [
        {
          "internalType": "uint256",
          "name": "tokenId",
          "type": "uint256"
        }
      ],
      "name": "ownerOf",
      "outputs": [
        {
          "internalType": "address",
          "name": "",
          "type": "address"
        }
      ],
      "stateMutability": "view",
      "type": "function",
      "constant": true
    },
    {
      "inputs": [],
      "name": "renounceOwnership",
      "outputs": [],
      "stateMutability": "nonpayable",
      "type": "function"
    },
    {
      "inputs": [
        {
          "internalType": "address",
          "name": "from",
          "type": "address"
        },
        {
          "internalType": "address",
          "name": "to",
          "type": "address"
        },
        {
          "internalType": "uint256",
          "name": "tokenId",
          "type": "uint256"
        }
      ],
      "name": "safeTransferFrom",
      "outputs": [],
      "stateMutability": "nonpayable",
      "type": "function"
    },
    {
      "inputs": [
        {
          "internalType": "address",
          "name": "from",
          "type": "address"
        },
        {
          "internalType": "address",
          "name": "to",
          "type": "address"
        },
        {
          "internalType": "uint256",
          "name": "tokenId",
          "type": "uint256"
        },
        {
          "internalType": "bytes",
          "name": "_data",
          "type": "bytes"
        }
      ],
      "name": "safeTransferFrom",
      "outputs": [],
      "stateMutability": "nonpayable",
      "type": "function"
    },
    {
      "inputs": [
        {
          "internalType": "address",
          "name": "operator",
          "type": "address"
        },
        {
          "internalType": "bool",
          "name": "approved",
          "type": "bool"
        }
      ],
      "name": "setApprovalForAll",
      "outputs": [],
      "stateMutability": "nonpayable",
      "type": "function"
    },
    {
      "inputs": [
        {
          "internalType": "bytes4",
          "name": "interfaceId",
          "type": "bytes4"
        }
      ],
      "name": "supportsInterface",
      "outputs": [
        {
          "internalType": "bool",
          "name": "",
          "type": "bool"
        }
      ],
      "stateMutability": "view",
      "type": "function",
      "constant": true
    },
    {
      "inputs": [],
      "name": "symbol",
      "outputs": [
        {
          "internalType": "string",
          "name": "",
          "type": "string"
        }
      ],
      "stateMutability": "view",
      "type": "function",
      "constant": true
    },
    {
      "inputs": [
        {
          "internalType": "address",
          "name": "from",
          "type": "address"
        },
        {
          "internalType": "address",
          "name": "to",
          "type": "address"
        },
        {
          "internalType": "uint256",
          "name": "tokenId",
          "type": "uint256"
        }
      ],
      "name": "transferFrom",
      "outputs": [],
      "stateMutability": "nonpayable",
      "type": "function"
    },
    {
      "inputs": [
        {
          "internalType": "address",
          "name": "newOwner",
          "type": "address"
        }
      ],
      "name": "transferOwnership",
      "outputs": [],
      "stateMutability": "nonpayable",
      "type": "function"
    },
    {
      "inputs": [],
      "name": "totalSupply",
      "outputs": [
        {
          "internalType": "uint256",
          "name": "",
          "type": "uint256"
        }
      ],
      "stateMutability": "view",
      "type": "function",
      "constant": true
    },
    {
      "inputs": [
        {
          "internalType": "uint8",
          "name": "_type",
          "type": "uint8"
        },
        {
          "internalType": "string",
          "name": "_tokenURI",
          "type": "string"
        }
      ],
      "name": "setConsumableTokenURI",
      "outputs": [],
      "stateMutability": "nonpayable",
      "type": "function"
    },
    {
      "inputs": [
        {
          "internalType": "uint8",
          "name": "_type",
          "type": "uint8"
        },
        {
          "internalType": "address",
          "name": "_newAddress",
          "type": "address"
        }
      ],
      "name": "setConsumableResolversAddress",
      "outputs": [],
      "stateMutability": "nonpayable",
      "type": "function"
    },
    {
      "inputs": [
        {
          "internalType": "address",
          "name": "newAddress",
          "type": "address"
        }
      ],
      "name": "addMintPermittedAddress",
      "outputs": [],
      "stateMutability": "nonpayable",
      "type": "function"
    },
    {
      "inputs": [
        {
          "internalType": "address",
          "name": "newAddress",
          "type": "address"
        }
      ],
      "name": "removeMintPermittedAddress",
      "outputs": [],
      "stateMutability": "nonpayable",
      "type": "function"
    },
    {
      "inputs": [],
      "name": "getConsumables",
      "outputs": [
        {
          "components": [
            {
              "internalType": "uint256",
              "name": "id",
              "type": "uint256"
            },
            {
              "internalType": "uint8",
              "name": "percXPGain",
              "type": "uint8"
            },
            {
              "internalType": "uint8",
              "name": "maxXPGain",
              "type": "uint8"
            },
            {
              "internalType": "bool",
              "name": "generateArenaTicket",
              "type": "bool"
            },
            {
              "internalType": "bool",
              "name": "generateEquipment",
              "type": "bool"
            }
          ],
          "internalType": "struct SharedStructs.Consumable[]",
          "name": "",
          "type": "tuple[]"
        }
      ],
      "stateMutability": "view",
      "type": "function",
      "constant": true
    },
    {
      "inputs": [],
      "name": "getNextConsumableId",
      "outputs": [
        {
          "internalType": "uint256",
          "name": "",
          "type": "uint256"
        }
      ],
      "stateMutability": "view",
      "type": "function",
      "constant": true
    },
    {
      "inputs": [
        {
          "internalType": "uint256",
          "name": "heroId",
          "type": "uint256"
        },
        {
          "internalType": "address",
          "name": "owner",
          "type": "address"
        }
      ],
      "name": "mint",
      "outputs": [],
      "stateMutability": "nonpayable",
      "type": "function"
    },
    {
      "inputs": [
        {
          "internalType": "address",
          "name": "owner",
          "type": "address"
        }
      ],
      "name": "getConsumablesByAddress",
      "outputs": [
        {
          "components": [
            {
              "internalType": "uint256",
              "name": "id",
              "type": "uint256"
            },
            {
              "internalType": "uint8",
              "name": "percXPGain",
              "type": "uint8"
            },
            {
              "internalType": "uint8",
              "name": "maxXPGain",
              "type": "uint8"
            },
            {
              "internalType": "bool",
              "name": "generateArenaTicket",
              "type": "bool"
            },
            {
              "internalType": "bool",
              "name": "generateEquipment",
              "type": "bool"
            }
          ],
          "internalType": "struct SharedStructs.Consumable[]",
          "name": "",
          "type": "tuple[]"
        }
      ],
      "stateMutability": "view",
      "type": "function",
      "constant": true
    },
    {
      "inputs": [],
      "name": "getMyConsumables",
      "outputs": [
        {
          "components": [
            {
              "internalType": "uint256",
              "name": "id",
              "type": "uint256"
            },
            {
              "internalType": "uint8",
              "name": "percXPGain",
              "type": "uint8"
            },
            {
              "internalType": "uint8",
              "name": "maxXPGain",
              "type": "uint8"
            },
            {
              "internalType": "bool",
              "name": "generateArenaTicket",
              "type": "bool"
            },
            {
              "internalType": "bool",
              "name": "generateEquipment",
              "type": "bool"
            }
          ],
          "internalType": "struct SharedStructs.Consumable[]",
          "name": "",
          "type": "tuple[]"
        }
      ],
      "stateMutability": "view",
      "type": "function",
      "constant": true
    },
    {
      "inputs": [
        {
          "internalType": "uint256",
          "name": "_consumableId",
          "type": "uint256"
        }
      ],
      "name": "getConsumable",
      "outputs": [
        {
          "components": [
            {
              "internalType": "uint256",
              "name": "id",
              "type": "uint256"
            },
            {
              "internalType": "uint8",
              "name": "percXPGain",
              "type": "uint8"
            },
            {
              "internalType": "uint8",
              "name": "maxXPGain",
              "type": "uint8"
            },
            {
              "internalType": "bool",
              "name": "generateArenaTicket",
              "type": "bool"
            },
            {
              "internalType": "bool",
              "name": "generateEquipment",
              "type": "bool"
            }
          ],
          "internalType": "struct SharedStructs.Consumable",
          "name": "",
          "type": "tuple"
        }
      ],
      "stateMutability": "view",
      "type": "function",
      "constant": true
    },
    {
      "inputs": [
        {
          "internalType": "uint256",
          "name": "_token",
          "type": "uint256"
        },
        {
          "internalType": "uint256",
          "name": "_consumableId",
          "type": "uint256"
        }
      ],
      "name": "consume",
      "outputs": [],
      "stateMutability": "nonpayable",
      "type": "function"
    },
    {
      "inputs": [
        {
          "internalType": "uint256",
          "name": "tokenId",
          "type": "uint256"
        }
      ],
      "name": "tokenURI",
      "outputs": [
        {
          "internalType": "string",
          "name": "",
          "type": "string"
        }
      ],
      "stateMutability": "view",
      "type": "function",
      "constant": true
    }
  ],
  "bytecode": "0x60806040523480156200001157600080fd5b5060405162005459380380620054598339818101604052810190620000379190620003ca565b82828160009080519060200190620000519291906200017d565b5080600190805190602001906200006a9291906200017d565b5050506200008d62000081620000af60201b60201c565b620000b760201b60201c565b80600d9080519060200190620000a59291906200017d565b50505050620004e8565b600033905090565b6000600760009054906101000a900473ffffffffffffffffffffffffffffffffffffffff16905081600760006101000a81548173ffffffffffffffffffffffffffffffffffffffff021916908373ffffffffffffffffffffffffffffffffffffffff1602179055508173ffffffffffffffffffffffffffffffffffffffff168173ffffffffffffffffffffffffffffffffffffffff167f8be0079c531659141344cd1fd0a4f28419497f9722a3daafe3b4186f6b6457e060405160405180910390a35050565b8280546200018b90620004b2565b90600052602060002090601f016020900481019282620001af5760008555620001fb565b82601f10620001ca57805160ff1916838001178555620001fb565b82800160010185558215620001fb579182015b82811115620001fa578251825591602001919060010190620001dd565b5b5090506200020a91906200020e565b5090565b5b80821115620002295760008160009055506001016200020f565b5090565b6000604051905090565b600080fd5b600080fd5b600080fd5b600080fd5b6000601f19601f8301169050919050565b7f4e487b7100000000000000000000000000000000000000000000000000000000600052604160045260246000fd5b62000296826200024b565b810181811067ffffffffffffffff82111715620002b857620002b76200025c565b5b80604052505050565b6000620002cd6200022d565b9050620002db82826200028b565b919050565b600067ffffffffffffffff821115620002fe57620002fd6200025c565b5b62000309826200024b565b9050602081019050919050565b60005b838110156200033657808201518184015260208101905062000319565b8381111562000346576000848401525b50505050565b6000620003636200035d84620002e0565b620002c1565b90508281526020810184848401111562000382576200038162000246565b5b6200038f84828562000316565b509392505050565b600082601f830112620003af57620003ae62000241565b5b8151620003c18482602086016200034c565b91505092915050565b600080600060608486031215620003e657620003e562000237565b5b600084015167ffffffffffffffff8111156200040757620004066200023c565b5b620004158682870162000397565b935050602084015167ffffffffffffffff8111156200043957620004386200023c565b5b620004478682870162000397565b925050604084015167ffffffffffffffff8111156200046b576200046a6200023c565b5b620004798682870162000397565b9150509250925092565b7f4e487b7100000000000000000000000000000000000000000000000000000000600052602260045260246000fd5b60006002820490506001821680620004cb57607f821691505b60208210811415620004e257620004e162000483565b5b50919050565b614f6180620004f86000396000f3fe608060405234801561001057600080fd5b50600436106101c45760003560e01c8063715018a6116100f9578063c87b56dd11610097578063e985e9c511610071578063e985e9c5146104f1578063f2fde38b14610521578063f9dabbb01461053d578063fe4737d714610559576101c4565b8063c87b56dd14610475578063d4df8f68146104a5578063dc7b5e0a146104c1576101c4565b806394bf804d116100d357806394bf804d1461040357806395d89b411461041f578063a22cb4651461043d578063b88d4fde14610459576101c4565b8063715018a6146103bd5780638c04e6a1146103c75780638da5cb5b146103e5576101c4565b80631bc6c0e8116101665780634a55385c116101405780634a55385c146103115780634eeea7ad146103415780636352211e1461035d57806370a082311461038d576101c4565b80631bc6c0e8146102bb57806323b872dd146102d957806342842e0e146102f5576101c4565b8063081812fc116101a2578063081812fc14610235578063095ea7b3146102655780630e0f27321461028157806318160ddd1461029d576101c4565b806301ffc9a7146101c957806304ed63e6146101f957806306fdde0314610217575b600080fd5b6101e360048036038101906101de9190613442565b610575565b6040516101f0919061348a565b60405180910390f35b610201610657565b60405161020e9190613600565b60405180910390f35b61021f610667565b60405161022c91906136bb565b60405180910390f35b61024f600480360381019061024a9190613709565b6106f9565b60405161025c9190613777565b60405180910390f35b61027f600480360381019061027a91906137be565b61077e565b005b61029b6004803603810190610296919061382a565b610896565b005b6102a561096e565b6040516102b29190613879565b60405180910390f35b6102c361097b565b6040516102d09190613879565b60405180910390f35b6102f360048036038101906102ee9190613894565b61098c565b005b61030f600480360381019061030a9190613894565b6109ec565b005b61032b600480360381019061032691906138e7565b610a0c565b6040516103389190613600565b60405180910390f35b61035b60048036038101906103569190613914565b610c45565b005b61037760048036038101906103729190613709565b610eff565b6040516103849190613777565b60405180910390f35b6103a760048036038101906103a291906138e7565b610fb1565b6040516103b49190613879565b60405180910390f35b6103c5611069565b005b6103cf6110f1565b6040516103dc9190613600565b60405180910390f35b6103ed6111ca565b6040516103fa9190613777565b60405180910390f35b61041d60048036038101906104189190613954565b6111f4565b005b610427611876565b60405161043491906136bb565b60405180910390f35b610457600480360381019061045291906139c0565b611908565b005b610473600480360381019061046e9190613b35565b611a89565b005b61048f600480360381019061048a9190613709565b611aeb565b60405161049c91906136bb565b60405180910390f35b6104bf60048036038101906104ba9190613c59565b611b1f565b005b6104db60048036038101906104d69190613709565b611bcd565b6040516104e89190613d1d565b60405180910390f35b61050b60048036038101906105069190613d38565b611be5565b604051610518919061348a565b60405180910390f35b61053b600480360381019061053691906138e7565b611c79565b005b610557600480360381019061055291906138e7565b611d71565b005b610573600480360381019061056e91906138e7565b611e48565b005b60007f80ac58cd000000000000000000000000000000000000000000000000000000007bffffffffffffffffffffffffffffffffffffffffffffffffffffffff1916827bffffffffffffffffffffffffffffffffffffffffffffffffffffffff1916148061064057507f5b5e139f000000000000000000000000000000000000000000000000000000007bffffffffffffffffffffffffffffffffffffffffffffffffffffffff1916827bffffffffffffffffffffffffffffffffffffffffffffffffffffffff1916145b80610650575061064f82611f16565b5b9050919050565b606061066233610a0c565b905090565b60606000805461067690613da7565b80601f01602080910402602001604051908101604052809291908181526020018280546106a290613da7565b80156106ef5780601f106106c4576101008083540402835291602001916106ef565b820191906000526020600020905b8154815290600101906020018083116106d257829003601f168201915b5050505050905090565b600061070482611f80565b610743576040517f08c379a000000000000000000000000000000000000000000000000000000000815260040161073a90613e4b565b60405180910390fd5b6004600083815260200190815260200160002060009054906101000a900473ffffffffffffffffffffffffffffffffffffffff169050919050565b600061078982610eff565b90508073ffffffffffffffffffffffffffffffffffffffff168373ffffffffffffffffffffffffffffffffffffffff1614156107fa576040517f08c379a00000000000000000000000000000000000000000000000000000000081526004016107f190613edd565b60405180910390fd5b8073ffffffffffffffffffffffffffffffffffffffff16610819611fec565b73ffffffffffffffffffffffffffffffffffffffff161480610848575061084781610842611fec565b611be5565b5b610887576040517f08c379a000000000000000000000000000000000000000000000000000000000815260040161087e90613f6f565b60405180910390fd5b6108918383611ff4565b505050565b61089e611fec565b73ffffffffffffffffffffffffffffffffffffffff166108bc6111ca565b73ffffffffffffffffffffffffffffffffffffffff1614610912576040517f08c379a000000000000000000000000000000000000000000000000000000000815260040161090990613fdb565b60405180910390fd5b80600960008460ff1660ff16815260200190815260200160002060006101000a81548173ffffffffffffffffffffffffffffffffffffffff021916908373ffffffffffffffffffffffffffffffffffffffff1602179055505050565b6000600c80549050905090565b6000610987600b6120ad565b905090565b61099d610997611fec565b826120bb565b6109dc576040517f08c379a00000000000000000000000000000000000000000000000000000000081526004016109d39061406d565b60405180910390fd5b6109e7838383612199565b505050565b610a0783838360405180602001604052806000815250611a89565b505050565b60606000610a1983610fb1565b90506000811415610a8157600067ffffffffffffffff811115610a3f57610a3e613a0a565b5b604051908082528060200260200182016040528015610a7857816020015b610a656132ba565b815260200190600190039081610a5d5790505b50915050610c40565b60008167ffffffffffffffff811115610a9d57610a9c613a0a565b5b604051908082528060200260200182016040528015610ad657816020015b610ac36132ba565b815260200190600190039081610abb5790505b50905060008060009050600091505b600c80549050821015610c38578573ffffffffffffffffffffffffffffffffffffffff16610b37600c8481548110610b2057610b1f61408d565b5b906000526020600020906002020160000154610eff565b73ffffffffffffffffffffffffffffffffffffffff161415610c2557600c8281548110610b6757610b6661408d565b5b90600052602060002090600202016040518060a0016040529081600082015481526020016001820160009054906101000a900460ff1660ff1660ff1681526020016001820160019054906101000a900460ff1660ff1660ff1681526020016001820160029054906101000a900460ff161515151581526020016001820160039054906101000a900460ff161515151581525050838280610c06906140eb565b935081518110610c1957610c1861408d565b5b60200260200101819052505b8180610c30906140eb565b925050610ae5565b829450505050505b919050565b610c4e81610eff565b73ffffffffffffffffffffffffffffffffffffffff163373ffffffffffffffffffffffffffffffffffffffff1614610cbb576040517f08c379a0000000000000000000000000000000000000000000000000000000008152600401610cb290614180565b60405180910390fd5b6000610cc6826123f5565b90506000600a826040015160ff16148015610ce85750600a826020015160ff16145b15610cf65760009050610d47565b6064826040015160ff16148015610d1457506032826020015160ff16145b15610d225760019050610d46565b816060015115610d355760029050610d45565b816080015115610d4457600390505b5b5b5b600073ffffffffffffffffffffffffffffffffffffffff16600960008360ff1660ff16815260200190815260200160002060009054906101000a900473ffffffffffffffffffffffffffffffffffffffff1673ffffffffffffffffffffffffffffffffffffffff161415610df0576040517f08c379a0000000000000000000000000000000000000000000000000000000008152600401610de7906141ec565b60405180910390fd5b600960008260ff1660ff16815260200190815260200160002060009054906101000a900473ffffffffffffffffffffffffffffffffffffffff1673ffffffffffffffffffffffffffffffffffffffff1663c302f1018584336040518463ffffffff1660e01b8152600401610e669392919061420c565b600060405180830381600087803b158015610e8057600080fd5b505af1158015610e94573d6000803e3d6000fd5b50505050610ea1836124fd565b610eaa836126ba565b823373ffffffffffffffffffffffffffffffffffffffff167f68bfd164513ccb2f6170301badd50fc8a26ad2854cc3325e2756caa8f4496d7383604051610ef19190614252565b60405180910390a350505050565b6000806002600084815260200190815260200160002060009054906101000a900473ffffffffffffffffffffffffffffffffffffffff169050600073ffffffffffffffffffffffffffffffffffffffff168173ffffffffffffffffffffffffffffffffffffffff161415610fa8576040517f08c379a0000000000000000000000000000000000000000000000000000000008152600401610f9f906142df565b60405180910390fd5b80915050919050565b60008073ffffffffffffffffffffffffffffffffffffffff168273ffffffffffffffffffffffffffffffffffffffff161415611022576040517f08c379a000000000000000000000000000000000000000000000000000000000815260040161101990614371565b60405180910390fd5b600360008373ffffffffffffffffffffffffffffffffffffffff1673ffffffffffffffffffffffffffffffffffffffff168152602001908152602001600020549050919050565b611071611fec565b73ffffffffffffffffffffffffffffffffffffffff1661108f6111ca565b73ffffffffffffffffffffffffffffffffffffffff16146110e5576040517f08c379a00000000000000000000000000000000000000000000000000000000081526004016110dc90613fdb565b60405180910390fd5b6110ef600061270d565b565b6060600c805480602002602001604051908101604052809291908181526020016000905b828210156111c157838290600052602060002090600202016040518060a0016040529081600082015481526020016001820160009054906101000a900460ff1660ff1660ff1681526020016001820160019054906101000a900460ff1660ff1660ff1681526020016001820160029054906101000a900460ff161515151581526020016001820160039054906101000a900460ff16151515158152505081526020019060010190611115565b50505050905090565b6000600760009054906101000a900473ffffffffffffffffffffffffffffffffffffffff16905090565b60086000611200611fec565b73ffffffffffffffffffffffffffffffffffffffff1673ffffffffffffffffffffffffffffffffffffffff16815260200190815260200160002060009054906101000a900460ff16611287576040517f08c379a000000000000000000000000000000000000000000000000000000000815260040161127e90614403565b60405180910390fd5b6000611293600b6120ad565b9050600060016112a5836103e86127d3565b6112af9190614423565b905060007fffffffffffffffffffffffffffffffffffffffffffffffffffffffffffffffff90506102ee8211611794576112e984846128ef565b6112f3600b61290d565b6101f482116113f357600c6040518060a00160405280858152602001600a60ff168152602001600a60ff1681526020016000151581526020016000151581525090806001815401808255809150506001900390600052602060002090600202016000909190919091506000820151816000015560208201518160010160006101000a81548160ff021916908360ff16021790555060408201518160010160016101000a81548160ff021916908360ff16021790555060608201518160010160026101000a81548160ff02191690831515021790555060808201518160010160036101000a81548160ff0219169083151502179055505050600090506116e8565b61025882116114f357600c6040518060a00160405280858152602001600060ff168152602001600060ff1681526020016001151581526020016000151581525090806001815401808255809150506001900390600052602060002090600202016000909190919091506000820151816000015560208201518160010160006101000a81548160ff021916908360ff16021790555060408201518160010160016101000a81548160ff021916908360ff16021790555060608201518160010160026101000a81548160ff02191690831515021790555060808201518160010160036101000a81548160ff0219169083151502179055505050600290506116e7565b6102bc82116115f357600c6040518060a00160405280858152602001600060ff168152602001600060ff1681526020016000151581526020016001151581525090806001815401808255809150506001900390600052602060002090600202016000909190919091506000820151816000015560208201518160010160006101000a81548160ff021916908360ff16021790555060408201518160010160016101000a81548160ff021916908360ff16021790555060608201518160010160026101000a81548160ff02191690831515021790555060808201518160010160036101000a81548160ff0219169083151502179055505050600390506116e6565b600c6040518060a00160405280858152602001603260ff168152602001606460ff1681526020016000151581526020016000151581525090806001815401808255809150506001900390600052602060002090600202016000909190919091506000820151816000015560208201518160010160006101000a81548160ff021916908360ff16021790555060408201518160010160016101000a81548160ff021916908360ff16021790555060608201518160010160026101000a81548160ff02191690831515021790555060808201518160010160036101000a81548160ff0219169083151502179055505050600190505b5b5b61179383600a60008460ff1660ff168152602001908152602001600020805461171090613da7565b80601f016020809104026020016040519081016040528092919081815260200182805461173c90613da7565b80156117895780601f1061175e57610100808354040283529160200191611789565b820191906000526020600020905b81548152906001019060200180831161176c57829003601f168201915b5050505050612923565b5b7fffffffffffffffffffffffffffffffffffffffffffffffffffffffffffffffff8160000b14156118145784838573ffffffffffffffffffffffffffffffffffffffff167f3568608b2c87722b6c985a673a73c2a0f8eaa4e65e7b7f2cc5064ba261ee3eac8460405161180791906144bb565b60405180910390a461186f565b84838573ffffffffffffffffffffffffffffffffffffffff167f3568608b2c87722b6c985a673a73c2a0f8eaa4e65e7b7f2cc5064ba261ee3eac8461185888611aeb565b6040516118669291906144e9565b60405180910390a45b5050505050565b60606001805461188590613da7565b80601f01602080910402602001604051908101604052809291908181526020018280546118b190613da7565b80156118fe5780601f106118d3576101008083540402835291602001916118fe565b820191906000526020600020905b8154815290600101906020018083116118e157829003601f168201915b5050505050905090565b611910611fec565b73ffffffffffffffffffffffffffffffffffffffff168273ffffffffffffffffffffffffffffffffffffffff16141561197e576040517f08c379a000000000000000000000000000000000000000000000000000000000815260040161197590614565565b60405180910390fd5b806005600061198b611fec565b73ffffffffffffffffffffffffffffffffffffffff1673ffffffffffffffffffffffffffffffffffffffff16815260200190815260200160002060008473ffffffffffffffffffffffffffffffffffffffff1673ffffffffffffffffffffffffffffffffffffffff16815260200190815260200160002060006101000a81548160ff0219169083151502179055508173ffffffffffffffffffffffffffffffffffffffff16611a38611fec565b73ffffffffffffffffffffffffffffffffffffffff167f17307eab39ab6107e8899845ad3d59bd9653f200f220920489ca2b5937696c3183604051611a7d919061348a565b60405180910390a35050565b611a9a611a94611fec565b836120bb565b611ad9576040517f08c379a0000000000000000000000000000000000000000000000000000000008152600401611ad09061406d565b60405180910390fd5b611ae584848484612997565b50505050565b6060600d611af8836129f3565b604051602001611b09929190614655565b6040516020818303038152906040529050919050565b611b27611fec565b73ffffffffffffffffffffffffffffffffffffffff16611b456111ca565b73ffffffffffffffffffffffffffffffffffffffff1614611b9b576040517f08c379a0000000000000000000000000000000000000000000000000000000008152600401611b9290613fdb565b60405180910390fd5b80600a60008460ff1660ff1681526020019081526020016000209080519060200190611bc89291906132f3565b505050565b611bd56132ba565b611bde826123f5565b9050919050565b6000600560008473ffffffffffffffffffffffffffffffffffffffff1673ffffffffffffffffffffffffffffffffffffffff16815260200190815260200160002060008373ffffffffffffffffffffffffffffffffffffffff1673ffffffffffffffffffffffffffffffffffffffff16815260200190815260200160002060009054906101000a900460ff16905092915050565b611c81611fec565b73ffffffffffffffffffffffffffffffffffffffff16611c9f6111ca565b73ffffffffffffffffffffffffffffffffffffffff1614611cf5576040517f08c379a0000000000000000000000000000000000000000000000000000000008152600401611cec90613fdb565b60405180910390fd5b600073ffffffffffffffffffffffffffffffffffffffff168173ffffffffffffffffffffffffffffffffffffffff161415611d65576040517f08c379a0000000000000000000000000000000000000000000000000000000008152600401611d5c906146eb565b60405180910390fd5b611d6e8161270d565b50565b611d79611fec565b73ffffffffffffffffffffffffffffffffffffffff16611d976111ca565b73ffffffffffffffffffffffffffffffffffffffff1614611ded576040517f08c379a0000000000000000000000000000000000000000000000000000000008152600401611de490613fdb565b60405180910390fd5b6001600860008373ffffffffffffffffffffffffffffffffffffffff1673ffffffffffffffffffffffffffffffffffffffff16815260200190815260200160002060006101000a81548160ff02191690831515021790555050565b611e50611fec565b73ffffffffffffffffffffffffffffffffffffffff16611e6e6111ca565b73ffffffffffffffffffffffffffffffffffffffff1614611ec4576040517f08c379a0000000000000000000000000000000000000000000000000000000008152600401611ebb90613fdb565b60405180910390fd5b600860008273ffffffffffffffffffffffffffffffffffffffff1673ffffffffffffffffffffffffffffffffffffffff16815260200190815260200160002060006101000a81549060ff021916905550565b60007f01ffc9a7000000000000000000000000000000000000000000000000000000007bffffffffffffffffffffffffffffffffffffffffffffffffffffffff1916827bffffffffffffffffffffffffffffffffffffffffffffffffffffffff1916149050919050565b60008073ffffffffffffffffffffffffffffffffffffffff166002600084815260200190815260200160002060009054906101000a900473ffffffffffffffffffffffffffffffffffffffff1673ffffffffffffffffffffffffffffffffffffffff1614159050919050565b600033905090565b816004600083815260200190815260200160002060006101000a81548173ffffffffffffffffffffffffffffffffffffffff021916908373ffffffffffffffffffffffffffffffffffffffff160217905550808273ffffffffffffffffffffffffffffffffffffffff1661206783610eff565b73ffffffffffffffffffffffffffffffffffffffff167f8c5be1e5ebec7d5bd14f71427d1e84f3dd0314c0f7b2291e5b200ac8c7c3b92560405160405180910390a45050565b600081600001549050919050565b60006120c682611f80565b612105576040517f08c379a00000000000000000000000000000000000000000000000000000000081526004016120fc9061477d565b60405180910390fd5b600061211083610eff565b90508073ffffffffffffffffffffffffffffffffffffffff168473ffffffffffffffffffffffffffffffffffffffff16148061217f57508373ffffffffffffffffffffffffffffffffffffffff16612167846106f9565b73ffffffffffffffffffffffffffffffffffffffff16145b80612190575061218f8185611be5565b5b91505092915050565b8273ffffffffffffffffffffffffffffffffffffffff166121b982610eff565b73ffffffffffffffffffffffffffffffffffffffff161461220f576040517f08c379a00000000000000000000000000000000000000000000000000000000081526004016122069061480f565b60405180910390fd5b600073ffffffffffffffffffffffffffffffffffffffff168273ffffffffffffffffffffffffffffffffffffffff16141561227f576040517f08c379a0000000000000000000000000000000000000000000000000000000008152600401612276906148a1565b60405180910390fd5b61228a838383612b45565b612295600082611ff4565b6001600360008573ffffffffffffffffffffffffffffffffffffffff1673ffffffffffffffffffffffffffffffffffffffff16815260200190815260200160002060008282546122e591906148c1565b925050819055506001600360008473ffffffffffffffffffffffffffffffffffffffff1673ffffffffffffffffffffffffffffffffffffffff168152602001908152602001600020600082825461233c9190614423565b92505081905550816002600083815260200190815260200160002060006101000a81548173ffffffffffffffffffffffffffffffffffffffff021916908373ffffffffffffffffffffffffffffffffffffffff160217905550808273ffffffffffffffffffffffffffffffffffffffff168473ffffffffffffffffffffffffffffffffffffffff167fddf252ad1be2c89b69c2b068fc378daa952ba7f163c4a11628f55a4df523b3ef60405160405180910390a4505050565b6123fd6132ba565b60005b600c805490508110156124f75782600c82815481106124225761242161408d565b5b90600052602060002090600202016000015414156124e457600c818154811061244e5761244d61408d565b5b90600052602060002090600202016040518060a0016040529081600082015481526020016001820160009054906101000a900460ff1660ff1660ff1681526020016001820160019054906101000a900460ff1660ff1660ff1681526020016001820160029054906101000a900460ff161515151581526020016001820160039054906101000a900460ff16151515158152505091505b80806124ef906140eb565b915050612400565b50919050565b600061250882612b4a565b9050600c80549050811061251b57600080fd5b600c6001600c8054905061252f91906148c1565b815481106125405761253f61408d565b5b9060005260206000209060020201600c82815481106125625761256161408d565b5b9060005260206000209060020201600082015481600001556001820160009054906101000a900460ff168160010160006101000a81548160ff021916908360ff1602179055506001820160019054906101000a900460ff168160010160016101000a81548160ff021916908360ff1602179055506001820160029054906101000a900460ff168160010160026101000a81548160ff0219169083151502179055506001820160039054906101000a900460ff168160010160036101000a81548160ff021916908315150217905550905050600c805480612645576126446148f5565b5b60019003818190600052602060002090600202016000808201600090556001820160006101000a81549060ff02191690556001820160016101000a81549060ff02191690556001820160026101000a81549060ff02191690556001820160036101000a81549060ff0219169055505090555050565b6126c381612bb7565b60006006600083815260200190815260200160002080546126e390613da7565b90501461270a576006600082815260200190815260200160002060006127099190613379565b5b50565b6000600760009054906101000a900473ffffffffffffffffffffffffffffffffffffffff16905081600760006101000a81548173ffffffffffffffffffffffffffffffffffffffff021916908373ffffffffffffffffffffffffffffffffffffffff1602179055508173ffffffffffffffffffffffffffffffffffffffff168173ffffffffffffffffffffffffffffffffffffffff167f8be0079c531659141344cd1fd0a4f28419497f9722a3daafe3b4186f6b6457e060405160405180910390a35050565b6000804342336040516020016127e9919061496c565b6040516020818303038152906040528051906020012060001c61280c91906149b6565b45424160405160200161281f9190614a22565b6040516020818303038152906040528051906020012060001c61284291906149b6565b87444261284f9190614423565b6128599190614423565b6128639190614423565b61286d9190614423565b6128779190614423565b6128819190614423565b6040516020016128919190614a5e565b6040516020818303038152906040528051906020012060001c90506001836128b99190614423565b6001846128c69190614423565b826128d191906149b6565b6128db9190614a79565b816128e691906148c1565b91505092915050565b612909828260405180602001604052806000815250612cc8565b5050565b6001816000016000828254019250508190555050565b61292c82611f80565b61296b576040517f08c379a000000000000000000000000000000000000000000000000000000000815260040161296290614b45565b60405180910390fd5b806006600084815260200190815260200160002090805190602001906129929291906132f3565b505050565b6129a2848484612199565b6129ae84848484612d23565b6129ed576040517f08c379a00000000000000000000000000000000000000000000000000000000081526004016129e490614bd7565b60405180910390fd5b50505050565b60606129fe82611f80565b612a3d576040517f08c379a0000000000000000000000000000000000000000000000000000000008152600401612a3490614c69565b60405180910390fd5b6000600660008481526020019081526020016000208054612a5d90613da7565b80601f0160208091040260200160405190810160405280929190818152602001828054612a8990613da7565b8015612ad65780601f10612aab57610100808354040283529160200191612ad6565b820191906000526020600020905b815481529060010190602001808311612ab957829003601f168201915b505050505090506000612ae7612eba565b9050600081511415612afd578192505050612b40565b600082511115612b32578082604051602001612b1a929190614c89565b60405160208183030381529060405292505050612b40565b612b3b84612ed1565b925050505b919050565b505050565b600080600090505b600c80549050811015612ba857600c8181548110612b7357612b7261408d565b5b906000526020600020906002020160000154831415612b955780915050612bb2565b8080612ba0906140eb565b915050612b52565b50600c8054905090505b919050565b6000612bc282610eff565b9050612bd081600084612b45565b612bdb600083611ff4565b6001600360008373ffffffffffffffffffffffffffffffffffffffff1673ffffffffffffffffffffffffffffffffffffffff1681526020019081526020016000206000828254612c2b91906148c1565b925050819055506002600083815260200190815260200160002060006101000a81549073ffffffffffffffffffffffffffffffffffffffff021916905581600073ffffffffffffffffffffffffffffffffffffffff168273ffffffffffffffffffffffffffffffffffffffff167fddf252ad1be2c89b69c2b068fc378daa952ba7f163c4a11628f55a4df523b3ef60405160405180910390a45050565b612cd28383612f78565b612cdf6000848484612d23565b612d1e576040517f08c379a0000000000000000000000000000000000000000000000000000000008152600401612d1590614bd7565b60405180910390fd5b505050565b6000612d448473ffffffffffffffffffffffffffffffffffffffff16613146565b15612ead578373ffffffffffffffffffffffffffffffffffffffff1663150b7a02612d6d611fec565b8786866040518563ffffffff1660e01b8152600401612d8f9493929190614d02565b602060405180830381600087803b158015612da957600080fd5b505af1925050508015612dda57506040513d601f19601f82011682018060405250810190612dd79190614d63565b60015b612e5d573d8060008114612e0a576040519150601f19603f3d011682016040523d82523d6000602084013e612e0f565b606091505b50600081511415612e55576040517f08c379a0000000000000000000000000000000000000000000000000000000008152600401612e4c90614bd7565b60405180910390fd5b805181602001fd5b63150b7a0260e01b7bffffffffffffffffffffffffffffffffffffffffffffffffffffffff1916817bffffffffffffffffffffffffffffffffffffffffffffffffffffffff191614915050612eb2565b600190505b949350505050565b606060405180602001604052806000815250905090565b6060612edc82611f80565b612f1b576040517f08c379a0000000000000000000000000000000000000000000000000000000008152600401612f1290614e02565b60405180910390fd5b6000612f25612eba565b90506000815111612f455760405180602001604052806000815250612f70565b80612f4f84613159565b604051602001612f60929190614c89565b6040516020818303038152906040525b915050919050565b600073ffffffffffffffffffffffffffffffffffffffff168273ffffffffffffffffffffffffffffffffffffffff161415612fe8576040517f08c379a0000000000000000000000000000000000000000000000000000000008152600401612fdf90614e6e565b60405180910390fd5b612ff181611f80565b15613031576040517f08c379a000000000000000000000000000000000000000000000000000000000815260040161302890614eda565b60405180910390fd5b61303d60008383612b45565b6001600360008473ffffffffffffffffffffffffffffffffffffffff1673ffffffffffffffffffffffffffffffffffffffff168152602001908152602001600020600082825461308d9190614423565b92505081905550816002600083815260200190815260200160002060006101000a81548173ffffffffffffffffffffffffffffffffffffffff021916908373ffffffffffffffffffffffffffffffffffffffff160217905550808273ffffffffffffffffffffffffffffffffffffffff16600073ffffffffffffffffffffffffffffffffffffffff167fddf252ad1be2c89b69c2b068fc378daa952ba7f163c4a11628f55a4df523b3ef60405160405180910390a45050565b600080823b905060008111915050919050565b606060008214156131a1576040518060400160405280600181526020017f300000000000000000000000000000000000000000000000000000000000000081525090506132b5565b600082905060005b600082146131d35780806131bc906140eb565b915050600a826131cc91906149b6565b91506131a9565b60008167ffffffffffffffff8111156131ef576131ee613a0a565b5b6040519080825280601f01601f1916602001820160405280156132215781602001600182028036833780820191505090505b5090505b600085146132ae5760018261323a91906148c1565b9150600a856132499190614efa565b60306132559190614423565b60f81b81838151811061326b5761326a61408d565b5b60200101907effffffffffffffffffffffffffffffffffffffffffffffffffffffffffffff1916908160001a905350600a856132a791906149b6565b9450613225565b8093505050505b919050565b6040518060a0016040528060008152602001600060ff168152602001600060ff1681526020016000151581526020016000151581525090565b8280546132ff90613da7565b90600052602060002090601f0160209004810192826133215760008555613368565b82601f1061333a57805160ff1916838001178555613368565b82800160010185558215613368579182015b8281111561336757825182559160200191906001019061334c565b5b50905061337591906133b9565b5090565b50805461338590613da7565b6000825580601f1061339757506133b6565b601f0160209004906000526020600020908101906133b591906133b9565b5b50565b5b808211156133d25760008160009055506001016133ba565b5090565b6000604051905090565b600080fd5b600080fd5b60007fffffffff0000000000000000000000000000000000000000000000000000000082169050919050565b61341f816133ea565b811461342a57600080fd5b50565b60008135905061343c81613416565b92915050565b600060208284031215613458576134576133e0565b5b60006134668482850161342d565b91505092915050565b60008115159050919050565b6134848161346f565b82525050565b600060208201905061349f600083018461347b565b92915050565b600081519050919050565b600082825260208201905092915050565b6000819050602082019050919050565b6000819050919050565b6134e4816134d1565b82525050565b600060ff82169050919050565b613500816134ea565b82525050565b61350f8161346f565b82525050565b60a08201600082015161352b60008501826134db565b50602082015161353e60208501826134f7565b50604082015161355160408501826134f7565b5060608201516135646060850182613506565b5060808201516135776080850182613506565b50505050565b60006135898383613515565b60a08301905092915050565b6000602082019050919050565b60006135ad826134a5565b6135b781856134b0565b93506135c2836134c1565b8060005b838110156135f35781516135da888261357d565b97506135e583613595565b9250506001810190506135c6565b5085935050505092915050565b6000602082019050818103600083015261361a81846135a2565b905092915050565b600081519050919050565b600082825260208201905092915050565b60005b8381101561365c578082015181840152602081019050613641565b8381111561366b576000848401525b50505050565b6000601f19601f8301169050919050565b600061368d82613622565b613697818561362d565b93506136a781856020860161363e565b6136b081613671565b840191505092915050565b600060208201905081810360008301526136d58184613682565b905092915050565b6136e6816134d1565b81146136f157600080fd5b50565b600081359050613703816136dd565b92915050565b60006020828403121561371f5761371e6133e0565b5b600061372d848285016136f4565b91505092915050565b600073ffffffffffffffffffffffffffffffffffffffff82169050919050565b600061376182613736565b9050919050565b61377181613756565b82525050565b600060208201905061378c6000830184613768565b92915050565b61379b81613756565b81146137a657600080fd5b50565b6000813590506137b881613792565b92915050565b600080604083850312156137d5576137d46133e0565b5b60006137e3858286016137a9565b92505060206137f4858286016136f4565b9150509250929050565b613807816134ea565b811461381257600080fd5b50565b600081359050613824816137fe565b92915050565b60008060408385031215613841576138406133e0565b5b600061384f85828601613815565b9250506020613860858286016137a9565b9150509250929050565b613873816134d1565b82525050565b600060208201905061388e600083018461386a565b92915050565b6000806000606084860312156138ad576138ac6133e0565b5b60006138bb868287016137a9565b93505060206138cc868287016137a9565b92505060406138dd868287016136f4565b9150509250925092565b6000602082840312156138fd576138fc6133e0565b5b600061390b848285016137a9565b91505092915050565b6000806040838503121561392b5761392a6133e0565b5b6000613939858286016136f4565b925050602061394a858286016136f4565b9150509250929050565b6000806040838503121561396b5761396a6133e0565b5b6000613979858286016136f4565b925050602061398a858286016137a9565b9150509250929050565b61399d8161346f565b81146139a857600080fd5b50565b6000813590506139ba81613994565b92915050565b600080604083850312156139d7576139d66133e0565b5b60006139e5858286016137a9565b92505060206139f6858286016139ab565b9150509250929050565b600080fd5b600080fd5b7f4e487b7100000000000000000000000000000000000000000000000000000000600052604160045260246000fd5b613a4282613671565b810181811067ffffffffffffffff82111715613a6157613a60613a0a565b5b80604052505050565b6000613a746133d6565b9050613a808282613a39565b919050565b600067ffffffffffffffff821115613aa057613a9f613a0a565b5b613aa982613671565b9050602081019050919050565b82818337600083830152505050565b6000613ad8613ad384613a85565b613a6a565b905082815260208101848484011115613af457613af3613a05565b5b613aff848285613ab6565b509392505050565b600082601f830112613b1c57613b1b613a00565b5b8135613b2c848260208601613ac5565b91505092915050565b60008060008060808587031215613b4f57613b4e6133e0565b5b6000613b5d878288016137a9565b9450506020613b6e878288016137a9565b9350506040613b7f878288016136f4565b925050606085013567ffffffffffffffff811115613ba057613b9f6133e5565b5b613bac87828801613b07565b91505092959194509250565b600067ffffffffffffffff821115613bd357613bd2613a0a565b5b613bdc82613671565b9050602081019050919050565b6000613bfc613bf784613bb8565b613a6a565b905082815260208101848484011115613c1857613c17613a05565b5b613c23848285613ab6565b509392505050565b600082601f830112613c4057613c3f613a00565b5b8135613c50848260208601613be9565b91505092915050565b60008060408385031215613c7057613c6f6133e0565b5b6000613c7e85828601613815565b925050602083013567ffffffffffffffff811115613c9f57613c9e6133e5565b5b613cab85828601613c2b565b9150509250929050565b60a082016000820151613ccb60008501826134db565b506020820151613cde60208501826134f7565b506040820151613cf160408501826134f7565b506060820151613d046060850182613506565b506080820151613d176080850182613506565b50505050565b600060a082019050613d326000830184613cb5565b92915050565b60008060408385031215613d4f57613d4e6133e0565b5b6000613d5d858286016137a9565b9250506020613d6e858286016137a9565b9150509250929050565b7f4e487b7100000000000000000000000000000000000000000000000000000000600052602260045260246000fd5b60006002820490506001821680613dbf57607f821691505b60208210811415613dd357613dd2613d78565b5b50919050565b7f4552433732313a20617070726f76656420717565727920666f72206e6f6e657860008201527f697374656e7420746f6b656e0000000000000000000000000000000000000000602082015250565b6000613e35602c8361362d565b9150613e4082613dd9565b604082019050919050565b60006020820190508181036000830152613e6481613e28565b9050919050565b7f4552433732313a20617070726f76616c20746f2063757272656e74206f776e6560008201527f7200000000000000000000000000000000000000000000000000000000000000602082015250565b6000613ec760218361362d565b9150613ed282613e6b565b604082019050919050565b60006020820190508181036000830152613ef681613eba565b9050919050565b7f4552433732313a20617070726f76652063616c6c6572206973206e6f74206f7760008201527f6e6572206e6f7220617070726f76656420666f7220616c6c0000000000000000602082015250565b6000613f5960388361362d565b9150613f6482613efd565b604082019050919050565b60006020820190508181036000830152613f8881613f4c565b9050919050565b7f4f776e61626c653a2063616c6c6572206973206e6f7420746865206f776e6572600082015250565b6000613fc560208361362d565b9150613fd082613f8f565b602082019050919050565b60006020820190508181036000830152613ff481613fb8565b9050919050565b7f4552433732313a207472616e736665722063616c6c6572206973206e6f74206f60008201527f776e6572206e6f7220617070726f766564000000000000000000000000000000602082015250565b600061405760318361362d565b915061406282613ffb565b604082019050919050565b600060208201905081810360008301526140868161404a565b9050919050565b7f4e487b7100000000000000000000000000000000000000000000000000000000600052603260045260246000fd5b7f4e487b7100000000000000000000000000000000000000000000000000000000600052601160045260246000fd5b60006140f6826134d1565b91507fffffffffffffffffffffffffffffffffffffffffffffffffffffffffffffffff821415614129576141286140bc565b5b600182019050919050565b7f4e6f74206f776e65720000000000000000000000000000000000000000000000600082015250565b600061416a60098361362d565b915061417582614134565b602082019050919050565b600060208201905081810360008301526141998161415d565b9050919050565b7f436f6e73756d61626c65207265736f6c766572206e6f7420646566696e656400600082015250565b60006141d6601f8361362d565b91506141e1826141a0565b602082019050919050565b60006020820190508181036000830152614205816141c9565b9050919050565b600060e082019050614221600083018661386a565b61422e6020830185613cb5565b61423b60c0830184613768565b949350505050565b61424c816134ea565b82525050565b60006020820190506142676000830184614243565b92915050565b7f4552433732313a206f776e657220717565727920666f72206e6f6e657869737460008201527f656e7420746f6b656e0000000000000000000000000000000000000000000000602082015250565b60006142c960298361362d565b91506142d48261426d565b604082019050919050565b600060208201905081810360008301526142f8816142bc565b9050919050565b7f4552433732313a2062616c616e636520717565727920666f7220746865207a6560008201527f726f206164647265737300000000000000000000000000000000000000000000602082015250565b600061435b602a8361362d565b9150614366826142ff565b604082019050919050565b6000602082019050818103600083015261438a8161434e565b9050919050565b7f4f6e6c79207065726d697474656420616464726573732063616e20657865637560008201527f7465207468697320616374696f6e000000000000000000000000000000000000602082015250565b60006143ed602e8361362d565b91506143f882614391565b604082019050919050565b6000602082019050818103600083015261441c816143e0565b9050919050565b600061442e826134d1565b9150614439836134d1565b9250827fffffffffffffffffffffffffffffffffffffffffffffffffffffffffffffffff0382111561446e5761446d6140bc565b5b828201905092915050565b60008160000b9050919050565b61448f81614479565b82525050565b50565b60006144a560008361362d565b91506144b082614495565b600082019050919050565b60006040820190506144d06000830184614486565b81810360208301526144e181614498565b905092915050565b60006040820190506144fe6000830185614486565b81810360208301526145108184613682565b90509392505050565b7f4552433732313a20617070726f766520746f2063616c6c657200000000000000600082015250565b600061454f60198361362d565b915061455a82614519565b602082019050919050565b6000602082019050818103600083015261457e81614542565b9050919050565b600081905092915050565b60008190508160005260206000209050919050565b600081546145b281613da7565b6145bc8186614585565b945060018216600081146145d757600181146145e85761461b565b60ff1983168652818601935061461b565b6145f185614590565b60005b83811015614613578154818901526001820191506020810190506145f4565b838801955050505b50505092915050565b600061462f82613622565b6146398185614585565b935061464981856020860161363e565b80840191505092915050565b600061466182856145a5565b915061466d8284614624565b91508190509392505050565b7f4f776e61626c653a206e6577206f776e657220697320746865207a65726f206160008201527f6464726573730000000000000000000000000000000000000000000000000000602082015250565b60006146d560268361362d565b91506146e082614679565b604082019050919050565b60006020820190508181036000830152614704816146c8565b9050919050565b7f4552433732313a206f70657261746f7220717565727920666f72206e6f6e657860008201527f697374656e7420746f6b656e0000000000000000000000000000000000000000602082015250565b6000614767602c8361362d565b91506147728261470b565b604082019050919050565b600060208201905081810360008301526147968161475a565b9050919050565b7f4552433732313a207472616e73666572206f6620746f6b656e2074686174206960008201527f73206e6f74206f776e0000000000000000000000000000000000000000000000602082015250565b60006147f960298361362d565b91506148048261479d565b604082019050919050565b60006020820190508181036000830152614828816147ec565b9050919050565b7f4552433732313a207472616e7366657220746f20746865207a65726f2061646460008201527f7265737300000000000000000000000000000000000000000000000000000000602082015250565b600061488b60248361362d565b91506148968261482f565b604082019050919050565b600060208201905081810360008301526148ba8161487e565b9050919050565b60006148cc826134d1565b91506148d7836134d1565b9250828210156148ea576148e96140bc565b5b828203905092915050565b7f4e487b7100000000000000000000000000000000000000000000000000000000600052603160045260246000fd5b60008160601b9050919050565b600061493c82614924565b9050919050565b600061494e82614931565b9050919050565b61496661496182613756565b614943565b82525050565b60006149788284614955565b60148201915081905092915050565b7f4e487b7100000000000000000000000000000000000000000000000000000000600052601260045260246000fd5b60006149c1826134d1565b91506149cc836134d1565b9250826149dc576149db614987565b5b828204905092915050565b60006149f282613736565b9050919050565b6000614a0482614931565b9050919050565b614a1c614a17826149e7565b6149f9565b82525050565b6000614a2e8284614a0b565b60148201915081905092915050565b6000819050919050565b614a58614a53826134d1565b614a3d565b82525050565b6000614a6a8284614a47565b60208201915081905092915050565b6000614a84826134d1565b9150614a8f836134d1565b9250817fffffffffffffffffffffffffffffffffffffffffffffffffffffffffffffffff0483118215151615614ac857614ac76140bc565b5b828202905092915050565b7f45524337323155524953746f726167653a2055524920736574206f66206e6f6e60008201527f6578697374656e7420746f6b656e000000000000000000000000000000000000602082015250565b6000614b2f602e8361362d565b9150614b3a82614ad3565b604082019050919050565b60006020820190508181036000830152614b5e81614b22565b9050919050565b7f4552433732313a207472616e7366657220746f206e6f6e20455243373231526560008201527f63656976657220696d706c656d656e7465720000000000000000000000000000602082015250565b6000614bc160328361362d565b9150614bcc82614b65565b604082019050919050565b60006020820190508181036000830152614bf081614bb4565b9050919050565b7f45524337323155524953746f726167653a2055524920717565727920666f722060008201527f6e6f6e6578697374656e7420746f6b656e000000000000000000000000000000602082015250565b6000614c5360318361362d565b9150614c5e82614bf7565b604082019050919050565b60006020820190508181036000830152614c8281614c46565b9050919050565b6000614c958285614624565b9150614ca18284614624565b91508190509392505050565b600081519050919050565b600082825260208201905092915050565b6000614cd482614cad565b614cde8185614cb8565b9350614cee81856020860161363e565b614cf781613671565b840191505092915050565b6000608082019050614d176000830187613768565b614d246020830186613768565b614d31604083018561386a565b8181036060830152614d438184614cc9565b905095945050505050565b600081519050614d5d81613416565b92915050565b600060208284031215614d7957614d786133e0565b5b6000614d8784828501614d4e565b91505092915050565b7f4552433732314d657461646174613a2055524920717565727920666f72206e6f60008201527f6e6578697374656e7420746f6b656e0000000000000000000000000000000000602082015250565b6000614dec602f8361362d565b9150614df782614d90565b604082019050919050565b60006020820190508181036000830152614e1b81614ddf565b9050919050565b7f4552433732313a206d696e7420746f20746865207a65726f2061646472657373600082015250565b6000614e5860208361362d565b9150614e6382614e22565b602082019050919050565b60006020820190508181036000830152614e8781614e4b565b9050919050565b7f4552433732313a20746f6b656e20616c7265616479206d696e74656400000000600082015250565b6000614ec4601c8361362d565b9150614ecf82614e8e565b602082019050919050565b60006020820190508181036000830152614ef381614eb7565b9050919050565b6000614f05826134d1565b9150614f10836134d1565b925082614f2057614f1f614987565b5b82820690509291505056fea264697066735822122077eae8fc5de00c23caac249ea81caf7e9c51c14077e2a4288b4bb651e8eef9b664736f6c63430008090033",
  "immutableReferences": {},
  "source": "// SPDX-License-Identifier: MIT\npragma solidity 0.8.9;\n\nimport \"../node_modules/@openzeppelin/contracts/token/ERC721/extensions/ERC721URIStorage.sol\";\nimport \"../node_modules/@openzeppelin/contracts/utils/Counters.sol\";\nimport \"../node_modules/@openzeppelin/contracts/access/Ownable.sol\";\nimport \"./interfaces/IConsumable.sol\";\nimport \"./interfaces/IConsumableResolver.sol\";\nimport \"./library/SharedStructs.sol\";\n\ncontract Consumable is IConsumable, ERC721URIStorage, Ownable {\n    event ConsumableMinted(\n        address indexed owner,\n        uint256 indexed tokenId,\n        uint256 indexed heroId,\n        int8 consumableType,\n        string tokenURI\n    );\n    event ConsumableUsed(\n        address indexed owner,\n        uint256 indexed tokenId,\n        uint8 consumableType\n    );\n\n    mapping(address => bool) private _mintPermittedAddress;\n    mapping(uint8 => address) private _consumableResolversAddress;\n    mapping(uint8 => string) private _consumableTokenURI;\n\n    using Counters for Counters.Counter;\n    Counters.Counter private _currentConsumableId;\n\n    SharedStructs.Consumable[] private _consumables;\n\n    string private _baseTokenURI;\n\n    constructor(\n        string memory name,\n        string memory symbol,\n        string memory baseTokenURI\n    ) ERC721(name, symbol) {\n        _baseTokenURI = baseTokenURI;\n    }\n\n    function totalSupply() external view returns (uint256) {\n        return _consumables.length;\n    }\n\n    function setConsumableTokenURI(uint8 _type, string memory _tokenURI)\n        external\n        onlyOwner\n    {\n        _consumableTokenURI[_type] = _tokenURI;\n    }\n\n    function setConsumableResolversAddress(uint8 _type, address _newAddress)\n        external\n        onlyOwner\n    {\n        _consumableResolversAddress[_type] = _newAddress;\n    }\n\n    function addMintPermittedAddress(address newAddress) external onlyOwner {\n        _mintPermittedAddress[newAddress] = true;\n    }\n\n    function removeMintPermittedAddress(address newAddress) external onlyOwner {\n        delete _mintPermittedAddress[newAddress];\n    }\n\n    modifier onlyPermittedAddress() {\n        require(\n            _mintPermittedAddress[_msgSender()],\n            \"Only permitted address can execute this action\"\n        );\n        _;\n    }\n\n    function getConsumables()\n        external\n        view\n        returns (SharedStructs.Consumable[] memory)\n    {\n        return _consumables;\n    }\n\n    function getNextConsumableId() external view returns (uint256) {\n        return _currentConsumableId.current();\n    }\n\n    function mint(uint256 heroId, address owner) external onlyPermittedAddress {\n        uint256 newConsumableId = _currentConsumableId.current();\n\n        uint256 consumableChance = rand(newConsumableId, 1000) + 1;\n        int8 consumableType = -1;\n\n        if (consumableChance <= 750) {\n            _safeMint(owner, newConsumableId);\n            _currentConsumableId.increment();\n            if (consumableChance <= 500) {\n                _consumables.push(\n                    SharedStructs.Consumable(\n                        newConsumableId,\n                        10,\n                        10,\n                        false,\n                        false\n                    )\n                );\n                consumableType = 0;\n            } else if (consumableChance <= 600) {\n                _consumables.push(\n                    SharedStructs.Consumable(newConsumableId, 0, 0, true, false)\n                );\n                consumableType = 2;\n            } else if (consumableChance <= 700) {\n                _consumables.push(\n                    SharedStructs.Consumable(newConsumableId, 0, 0, false, true)\n                );\n                consumableType = 3;\n            } else {\n                _consumables.push(\n                    SharedStructs.Consumable(\n                        newConsumableId,\n                        50,\n                        100,\n                        false,\n                        false\n                    )\n                );\n                consumableType = 1;\n            }\n\n            _setTokenURI(\n                newConsumableId,\n                _consumableTokenURI[uint8(consumableType)]\n            );\n        }\n        if (consumableType == -1) {\n            emit ConsumableMinted(\n                owner,\n                newConsumableId,\n                heroId,\n                consumableType,\n                \"\"\n            );\n        } else {\n            emit ConsumableMinted(\n                owner,\n                newConsumableId,\n                heroId,\n                consumableType,\n                tokenURI(newConsumableId)\n            );\n        }\n    }\n\n    function getConsumablesByAddress(address owner)\n        public\n        view\n        returns (SharedStructs.Consumable[] memory)\n    {\n        uint256 consumableCount = balanceOf(owner);\n\n        if (consumableCount == 0) {\n            return new SharedStructs.Consumable[](0);\n        } else {\n            SharedStructs.Consumable[]\n                memory ret = new SharedStructs.Consumable[](consumableCount);\n            uint256 i;\n            uint256 curIndex = 0;\n\n            for (i = 0; i < _consumables.length; i++) {\n                if (ownerOf(_consumables[i].id) == owner) {\n                    ret[curIndex++] = _consumables[i];\n                }\n            }\n\n            return ret;\n        }\n    }\n\n    function getMyConsumables()\n        external\n        view\n        returns (SharedStructs.Consumable[] memory)\n    {\n        return getConsumablesByAddress(msg.sender);\n    }\n\n    function getConsumable(uint256 _consumableId)\n        external\n        view\n        returns (SharedStructs.Consumable memory)\n    {\n        return _getConsumable(_consumableId);\n    }\n\n    function _getConsumable(uint256 _consumableId)\n        internal\n        view\n        returns (SharedStructs.Consumable memory ret)\n    {\n        for (uint256 index = 0; index < _consumables.length; index++) {\n            if (_consumables[index].id == _consumableId) {\n                ret = _consumables[index];\n            }\n        }\n    }\n\n    function consume(uint256 _token, uint256 _consumableId) external {\n        require(msg.sender == ownerOf(_consumableId), \"Not owner\");\n\n        SharedStructs.Consumable memory consumable = _getConsumable(\n            _consumableId\n        );\n\n        uint8 consumableType;\n\n        if (consumable.maxXPGain == 10 && consumable.percXPGain == 10) {\n            consumableType = 0;\n        } else if (consumable.maxXPGain == 100 && consumable.percXPGain == 50) {\n            consumableType = 1;\n        } else if (consumable.generateArenaTicket) {\n            consumableType = 2;\n        } else if (consumable.generateEquipment) {\n            consumableType = 3;\n        }\n\n        require(\n            _consumableResolversAddress[consumableType] != address(0),\n            \"Consumable resolver not defined\"\n        );\n\n        IConsumableResolver(_consumableResolversAddress[consumableType])\n            .resolve(_token, consumable, msg.sender);\n\n        _removeConsumable(_consumableId);\n        _burn(_consumableId);\n\n        emit ConsumableUsed(msg.sender, _consumableId, consumableType);\n    }\n\n    function _removeConsumable(uint256 _consumableId) internal {\n        uint256 index = _getIndexConsumable(_consumableId);\n\n        require(index < _consumables.length);\n        _consumables[index] = _consumables[_consumables.length - 1];\n        _consumables.pop();\n    }\n\n    function _getIndexConsumable(uint256 _consumableId)\n        internal\n        view\n        returns (uint256)\n    {\n        for (uint256 i = 0; i < _consumables.length; i++) {\n            if (_consumableId == _consumables[i].id) {\n                return i;\n            }\n        }\n        return _consumables.length;\n    }\n\n    function rand(uint256 seed1, uint256 limit) private view returns (uint256) {\n        uint256 seed = uint256(\n            keccak256(\n                abi.encodePacked(\n                    block.timestamp +\n                        block.difficulty +\n                        seed1 +\n                        ((\n                            uint256(keccak256(abi.encodePacked(block.coinbase)))\n                        ) / (block.timestamp)) +\n                        block.gaslimit +\n                        ((uint256(keccak256(abi.encodePacked(msg.sender)))) /\n                            (block.timestamp)) +\n                        block.number\n                )\n            )\n        );\n\n        return (seed - ((seed / (limit + 1)) * (limit + 1)));\n    }\n\n    function tokenURI(uint256 tokenId)\n        public\n        view\n        virtual\n        override\n        returns (string memory)\n    {\n        return string(abi.encodePacked(_baseTokenURI, super.tokenURI(tokenId)));\n    }\n}\n",
  "sourcePath": "/home/rfaita/game/nft-game/contract/contracts/Consumable.sol",
  "compiler": {
    "name": "solc",
    "version": "0.8.9+commit.e5eed63a.Emscripten.clang"
  },
  "schemaVersion": "3.4.4",
  "updatedAt": "2022-03-03T20:07:49.258Z",
  "networkType": "ethereum",
  "devdoc": {
    "kind": "dev",
    "methods": {
      "approve(address,uint256)": {
        "details": "See {IERC721-approve}."
      },
      "balanceOf(address)": {
        "details": "See {IERC721-balanceOf}."
      },
      "getApproved(uint256)": {
        "details": "See {IERC721-getApproved}."
      },
      "isApprovedForAll(address,address)": {
        "details": "See {IERC721-isApprovedForAll}."
      },
      "name()": {
        "details": "See {IERC721Metadata-name}."
      },
      "owner()": {
        "details": "Returns the address of the current owner."
      },
      "ownerOf(uint256)": {
        "details": "See {IERC721-ownerOf}."
      },
      "renounceOwnership()": {
        "details": "Leaves the contract without owner. It will not be possible to call `onlyOwner` functions anymore. Can only be called by the current owner. NOTE: Renouncing ownership will leave the contract without an owner, thereby removing any functionality that is only available to the owner."
      },
      "safeTransferFrom(address,address,uint256)": {
        "details": "See {IERC721-safeTransferFrom}."
      },
      "safeTransferFrom(address,address,uint256,bytes)": {
        "details": "See {IERC721-safeTransferFrom}."
      },
      "setApprovalForAll(address,bool)": {
        "details": "See {IERC721-setApprovalForAll}."
      },
      "supportsInterface(bytes4)": {
        "details": "See {IERC165-supportsInterface}."
      },
      "symbol()": {
        "details": "See {IERC721Metadata-symbol}."
      },
      "tokenURI(uint256)": {
        "details": "See {IERC721Metadata-tokenURI}."
      },
      "transferFrom(address,address,uint256)": {
        "details": "See {IERC721-transferFrom}."
      },
      "transferOwnership(address)": {
        "details": "Transfers ownership of the contract to a new account (`newOwner`). Can only be called by the current owner."
      }
    },
    "version": 1
  },
  "userdoc": {
    "kind": "user",
    "methods": {},
    "version": 1
  }
}