{
  "contractName": "Consumable",
  "abi": [
    {
      "inputs": [
        {
          "internalType": "string",
          "name": "name",
          "type": "string"
        },
        {
          "internalType": "string",
          "name": "symbol",
          "type": "string"
        },
        {
          "internalType": "string",
          "name": "baseTokenURI",
          "type": "string"
        }
      ],
      "stateMutability": "nonpayable",
      "type": "constructor"
    },
    {
      "anonymous": false,
      "inputs": [
        {
          "indexed": true,
          "internalType": "address",
          "name": "owner",
          "type": "address"
        },
        {
          "indexed": true,
          "internalType": "address",
          "name": "approved",
          "type": "address"
        },
        {
          "indexed": true,
          "internalType": "uint256",
          "name": "tokenId",
          "type": "uint256"
        }
      ],
      "name": "Approval",
      "type": "event"
    },
    {
      "anonymous": false,
      "inputs": [
        {
          "indexed": true,
          "internalType": "address",
          "name": "owner",
          "type": "address"
        },
        {
          "indexed": true,
          "internalType": "address",
          "name": "operator",
          "type": "address"
        },
        {
          "indexed": false,
          "internalType": "bool",
          "name": "approved",
          "type": "bool"
        }
      ],
      "name": "ApprovalForAll",
      "type": "event"
    },
    {
      "anonymous": false,
      "inputs": [
        {
          "indexed": true,
          "internalType": "address",
          "name": "previousOwner",
          "type": "address"
        },
        {
          "indexed": true,
          "internalType": "address",
          "name": "newOwner",
          "type": "address"
        }
      ],
      "name": "OwnershipTransferred",
      "type": "event"
    },
    {
      "anonymous": false,
      "inputs": [
        {
          "indexed": true,
          "internalType": "address",
          "name": "from",
          "type": "address"
        },
        {
          "indexed": true,
          "internalType": "address",
          "name": "to",
          "type": "address"
        },
        {
          "indexed": true,
          "internalType": "uint256",
          "name": "tokenId",
          "type": "uint256"
        }
      ],
      "name": "Transfer",
      "type": "event"
    },
    {
      "inputs": [
        {
          "internalType": "address",
          "name": "to",
          "type": "address"
        },
        {
          "internalType": "uint256",
          "name": "tokenId",
          "type": "uint256"
        }
      ],
      "name": "approve",
      "outputs": [],
      "stateMutability": "nonpayable",
      "type": "function"
    },
    {
      "inputs": [
        {
          "internalType": "address",
          "name": "owner",
          "type": "address"
        }
      ],
      "name": "balanceOf",
      "outputs": [
        {
          "internalType": "uint256",
          "name": "",
          "type": "uint256"
        }
      ],
      "stateMutability": "view",
      "type": "function",
      "constant": true
    },
    {
      "inputs": [
        {
          "internalType": "uint256",
          "name": "tokenId",
          "type": "uint256"
        }
      ],
      "name": "getApproved",
      "outputs": [
        {
          "internalType": "address",
          "name": "",
          "type": "address"
        }
      ],
      "stateMutability": "view",
      "type": "function",
      "constant": true
    },
    {
      "inputs": [
        {
          "internalType": "address",
          "name": "owner",
          "type": "address"
        },
        {
          "internalType": "address",
          "name": "operator",
          "type": "address"
        }
      ],
      "name": "isApprovedForAll",
      "outputs": [
        {
          "internalType": "bool",
          "name": "",
          "type": "bool"
        }
      ],
      "stateMutability": "view",
      "type": "function",
      "constant": true
    },
    {
      "inputs": [],
      "name": "name",
      "outputs": [
        {
          "internalType": "string",
          "name": "",
          "type": "string"
        }
      ],
      "stateMutability": "view",
      "type": "function",
      "constant": true
    },
    {
      "inputs": [],
      "name": "owner",
      "outputs": [
        {
          "internalType": "address",
          "name": "",
          "type": "address"
        }
      ],
      "stateMutability": "view",
      "type": "function",
      "constant": true
    },
    {
      "inputs": [
        {
          "internalType": "uint256",
          "name": "tokenId",
          "type": "uint256"
        }
      ],
      "name": "ownerOf",
      "outputs": [
        {
          "internalType": "address",
          "name": "",
          "type": "address"
        }
      ],
      "stateMutability": "view",
      "type": "function",
      "constant": true
    },
    {
      "inputs": [],
      "name": "renounceOwnership",
      "outputs": [],
      "stateMutability": "nonpayable",
      "type": "function"
    },
    {
      "inputs": [
        {
          "internalType": "address",
          "name": "from",
          "type": "address"
        },
        {
          "internalType": "address",
          "name": "to",
          "type": "address"
        },
        {
          "internalType": "uint256",
          "name": "tokenId",
          "type": "uint256"
        }
      ],
      "name": "safeTransferFrom",
      "outputs": [],
      "stateMutability": "nonpayable",
      "type": "function"
    },
    {
      "inputs": [
        {
          "internalType": "address",
          "name": "from",
          "type": "address"
        },
        {
          "internalType": "address",
          "name": "to",
          "type": "address"
        },
        {
          "internalType": "uint256",
          "name": "tokenId",
          "type": "uint256"
        },
        {
          "internalType": "bytes",
          "name": "_data",
          "type": "bytes"
        }
      ],
      "name": "safeTransferFrom",
      "outputs": [],
      "stateMutability": "nonpayable",
      "type": "function"
    },
    {
      "inputs": [
        {
          "internalType": "address",
          "name": "operator",
          "type": "address"
        },
        {
          "internalType": "bool",
          "name": "approved",
          "type": "bool"
        }
      ],
      "name": "setApprovalForAll",
      "outputs": [],
      "stateMutability": "nonpayable",
      "type": "function"
    },
    {
      "inputs": [
        {
          "internalType": "bytes4",
          "name": "interfaceId",
          "type": "bytes4"
        }
      ],
      "name": "supportsInterface",
      "outputs": [
        {
          "internalType": "bool",
          "name": "",
          "type": "bool"
        }
      ],
      "stateMutability": "view",
      "type": "function",
      "constant": true
    },
    {
      "inputs": [],
      "name": "symbol",
      "outputs": [
        {
          "internalType": "string",
          "name": "",
          "type": "string"
        }
      ],
      "stateMutability": "view",
      "type": "function",
      "constant": true
    },
    {
      "inputs": [
        {
          "internalType": "address",
          "name": "from",
          "type": "address"
        },
        {
          "internalType": "address",
          "name": "to",
          "type": "address"
        },
        {
          "internalType": "uint256",
          "name": "tokenId",
          "type": "uint256"
        }
      ],
      "name": "transferFrom",
      "outputs": [],
      "stateMutability": "nonpayable",
      "type": "function"
    },
    {
      "inputs": [
        {
          "internalType": "address",
          "name": "newOwner",
          "type": "address"
        }
      ],
      "name": "transferOwnership",
      "outputs": [],
      "stateMutability": "nonpayable",
      "type": "function"
    },
    {
      "inputs": [
        {
          "internalType": "address",
          "name": "newAddress",
          "type": "address"
        }
      ],
      "name": "addMintPermittedAddress",
      "outputs": [],
      "stateMutability": "nonpayable",
      "type": "function"
    },
    {
      "inputs": [
        {
          "internalType": "address",
          "name": "newAddress",
          "type": "address"
        }
      ],
      "name": "removeMintPermittedAddress",
      "outputs": [],
      "stateMutability": "nonpayable",
      "type": "function"
    },
    {
      "inputs": [],
      "name": "getConsumables",
      "outputs": [
        {
          "components": [
            {
              "internalType": "uint8",
              "name": "percXPGain",
              "type": "uint8"
            },
            {
              "internalType": "uint8",
              "name": "maxXPGain",
              "type": "uint8"
            },
            {
              "internalType": "bool",
              "name": "generateArenaTicket",
              "type": "bool"
            },
            {
              "internalType": "bool",
              "name": "generateEquipment",
              "type": "bool"
            },
            {
              "internalType": "bool",
              "name": "generateMysteriousChest",
              "type": "bool"
            }
          ],
          "internalType": "struct SharedStructs.Consumable[]",
          "name": "",
          "type": "tuple[]"
        }
      ],
      "stateMutability": "view",
      "type": "function",
      "constant": true
    },
    {
      "inputs": [],
      "name": "getNextConsumableId",
      "outputs": [
        {
          "internalType": "uint256",
          "name": "",
          "type": "uint256"
        }
      ],
      "stateMutability": "view",
      "type": "function",
      "constant": true
    },
    {
      "inputs": [
        {
          "internalType": "address",
          "name": "owner",
          "type": "address"
        }
      ],
      "name": "mint",
      "outputs": [],
      "stateMutability": "nonpayable",
      "type": "function"
    },
    {
      "inputs": [
        {
          "internalType": "address",
          "name": "owner",
          "type": "address"
        }
      ],
      "name": "getConsumablesByAddress",
      "outputs": [
        {
          "internalType": "uint256[]",
          "name": "",
          "type": "uint256[]"
        }
      ],
      "stateMutability": "view",
      "type": "function",
      "constant": true
    },
    {
      "inputs": [],
      "name": "getMyConsumables",
      "outputs": [
        {
          "internalType": "uint256[]",
          "name": "",
          "type": "uint256[]"
        }
      ],
      "stateMutability": "view",
      "type": "function",
      "constant": true
    },
    {
      "inputs": [
        {
          "internalType": "uint256",
          "name": "_consumableId",
          "type": "uint256"
        }
      ],
      "name": "getConsumable",
      "outputs": [
        {
          "components": [
            {
              "internalType": "uint8",
              "name": "percXPGain",
              "type": "uint8"
            },
            {
              "internalType": "uint8",
              "name": "maxXPGain",
              "type": "uint8"
            },
            {
              "internalType": "bool",
              "name": "generateArenaTicket",
              "type": "bool"
            },
            {
              "internalType": "bool",
              "name": "generateEquipment",
              "type": "bool"
            },
            {
              "internalType": "bool",
              "name": "generateMysteriousChest",
              "type": "bool"
            }
          ],
          "internalType": "struct SharedStructs.Consumable",
          "name": "",
          "type": "tuple"
        }
      ],
      "stateMutability": "view",
      "type": "function",
      "constant": true
    },
    {
      "inputs": [
        {
          "internalType": "uint256",
          "name": "tokenId",
          "type": "uint256"
        }
      ],
      "name": "tokenURI",
      "outputs": [
        {
          "internalType": "string",
          "name": "",
          "type": "string"
        }
      ],
      "stateMutability": "view",
      "type": "function",
      "constant": true
    }
  ],
  "bytecode": "0x60806040523480156200001157600080fd5b50604051620046fe380380620046fe8339818101604052810190620000379190620003ca565b82828160009080519060200190620000519291906200017d565b5080600190805190602001906200006a9291906200017d565b5050506200008d62000081620000af60201b60201c565b620000b760201b60201c565b80600b9080519060200190620000a59291906200017d565b50505050620004e8565b600033905090565b6000600760009054906101000a900473ffffffffffffffffffffffffffffffffffffffff16905081600760006101000a81548173ffffffffffffffffffffffffffffffffffffffff021916908373ffffffffffffffffffffffffffffffffffffffff1602179055508173ffffffffffffffffffffffffffffffffffffffff168173ffffffffffffffffffffffffffffffffffffffff167f8be0079c531659141344cd1fd0a4f28419497f9722a3daafe3b4186f6b6457e060405160405180910390a35050565b8280546200018b90620004b2565b90600052602060002090601f016020900481019282620001af5760008555620001fb565b82601f10620001ca57805160ff1916838001178555620001fb565b82800160010185558215620001fb579182015b82811115620001fa578251825591602001919060010190620001dd565b5b5090506200020a91906200020e565b5090565b5b80821115620002295760008160009055506001016200020f565b5090565b6000604051905090565b600080fd5b600080fd5b600080fd5b600080fd5b6000601f19601f8301169050919050565b7f4e487b7100000000000000000000000000000000000000000000000000000000600052604160045260246000fd5b62000296826200024b565b810181811067ffffffffffffffff82111715620002b857620002b76200025c565b5b80604052505050565b6000620002cd6200022d565b9050620002db82826200028b565b919050565b600067ffffffffffffffff821115620002fe57620002fd6200025c565b5b62000309826200024b565b9050602081019050919050565b60005b838110156200033657808201518184015260208101905062000319565b8381111562000346576000848401525b50505050565b6000620003636200035d84620002e0565b620002c1565b90508281526020810184848401111562000382576200038162000246565b5b6200038f84828562000316565b509392505050565b600082601f830112620003af57620003ae62000241565b5b8151620003c18482602086016200034c565b91505092915050565b600080600060608486031215620003e657620003e562000237565b5b600084015167ffffffffffffffff8111156200040757620004066200023c565b5b620004158682870162000397565b935050602084015167ffffffffffffffff8111156200043957620004386200023c565b5b620004478682870162000397565b925050604084015167ffffffffffffffff8111156200046b576200046a6200023c565b5b620004798682870162000397565b9150509250925092565b7f4e487b7100000000000000000000000000000000000000000000000000000000600052602260045260246000fd5b60006002820490506001821680620004cb57607f821691505b60208210811415620004e257620004e162000483565b5b50919050565b61420680620004f86000396000f3fe608060405234801561001057600080fd5b50600436106101585760003560e01c8063715018a6116100c3578063c87b56dd1161007c578063c87b56dd146103b3578063dc7b5e0a146103e3578063e985e9c514610413578063f2fde38b14610443578063f9dabbb01461045f578063fe4737d71461047b57610158565b8063715018a6146103175780638c04e6a1146103215780638da5cb5b1461033f57806395d89b411461035d578063a22cb4651461037b578063b88d4fde1461039757610158565b806323b872dd1161011557806323b872dd1461023357806342842e0e1461024f5780634a55385c1461026b5780636352211e1461029b5780636a627842146102cb57806370a08231146102e757610158565b806301ffc9a71461015d57806304ed63e61461018d57806306fdde03146101ab578063081812fc146101c9578063095ea7b3146101f95780631bc6c0e814610215575b600080fd5b61017760048036038101906101729190612a07565b610497565b6040516101849190612a4f565b60405180910390f35b610195610579565b6040516101a29190612b32565b60405180910390f35b6101b3610589565b6040516101c09190612bed565b60405180910390f35b6101e360048036038101906101de9190612c3b565b61061b565b6040516101f09190612ca9565b60405180910390f35b610213600480360381019061020e9190612cf0565b6106a0565b005b61021d6107b8565b60405161022a9190612d3f565b60405180910390f35b61024d60048036038101906102489190612d5a565b6107c9565b005b61026960048036038101906102649190612d5a565b610829565b005b61028560048036038101906102809190612dad565b610849565b6040516102929190612b32565b60405180910390f35b6102b560048036038101906102b09190612c3b565b6109a6565b6040516102c29190612ca9565b60405180910390f35b6102e560048036038101906102e09190612dad565b610a58565b005b61030160048036038101906102fc9190612dad565b6110c2565b60405161030e9190612d3f565b60405180910390f35b61031f61117a565b005b610329611202565b6040516103369190612f1c565b60405180910390f35b6103476112e8565b6040516103549190612ca9565b60405180910390f35b610365611312565b6040516103729190612bed565b60405180910390f35b61039560048036038101906103909190612f6a565b6113a4565b005b6103b160048036038101906103ac91906130df565b611525565b005b6103cd60048036038101906103c89190612c3b565b611587565b6040516103da9190612bed565b60405180910390f35b6103fd60048036038101906103f89190612c3b565b6115bb565b60405161040a91906131ca565b60405180910390f35b61042d600480360381019061042891906131e5565b61167e565b60405161043a9190612a4f565b60405180910390f35b61045d60048036038101906104589190612dad565b611712565b005b61047960048036038101906104749190612dad565b61180a565b005b61049560048036038101906104909190612dad565b6118e1565b005b60007f80ac58cd000000000000000000000000000000000000000000000000000000007bffffffffffffffffffffffffffffffffffffffffffffffffffffffff1916827bffffffffffffffffffffffffffffffffffffffffffffffffffffffff1916148061056257507f5b5e139f000000000000000000000000000000000000000000000000000000007bffffffffffffffffffffffffffffffffffffffffffffffffffffffff1916827bffffffffffffffffffffffffffffffffffffffffffffffffffffffff1916145b806105725750610571826119af565b5b9050919050565b606061058433610849565b905090565b60606000805461059890613254565b80601f01602080910402602001604051908101604052809291908181526020018280546105c490613254565b80156106115780601f106105e657610100808354040283529160200191610611565b820191906000526020600020905b8154815290600101906020018083116105f457829003601f168201915b5050505050905090565b600061062682611a19565b610665576040517f08c379a000000000000000000000000000000000000000000000000000000000815260040161065c906132f8565b60405180910390fd5b6004600083815260200190815260200160002060009054906101000a900473ffffffffffffffffffffffffffffffffffffffff169050919050565b60006106ab826109a6565b90508073ffffffffffffffffffffffffffffffffffffffff168373ffffffffffffffffffffffffffffffffffffffff16141561071c576040517f08c379a00000000000000000000000000000000000000000000000000000000081526004016107139061338a565b60405180910390fd5b8073ffffffffffffffffffffffffffffffffffffffff1661073b611a85565b73ffffffffffffffffffffffffffffffffffffffff16148061076a575061076981610764611a85565b61167e565b5b6107a9576040517f08c379a00000000000000000000000000000000000000000000000000000000081526004016107a09061341c565b60405180910390fd5b6107b38383611a8d565b505050565b60006107c46009611b46565b905090565b6107da6107d4611a85565b82611b54565b610819576040517f08c379a0000000000000000000000000000000000000000000000000000000008152600401610810906134ae565b60405180910390fd5b610824838383611c32565b505050565b61084483838360405180602001604052806000815250611525565b505050565b60606000610856836110c2565b905060008114156108b357600067ffffffffffffffff81111561087c5761087b612fb4565b5b6040519080825280602002602001820160405280156108aa5781602001602082028036833780820191505090505b509150506109a1565b60008167ffffffffffffffff8111156108cf576108ce612fb4565b5b6040519080825280602002602001820160405280156108fd5781602001602082028036833780820191505090505b50905060008060009050600091505b6109166009611b46565b821015610999578573ffffffffffffffffffffffffffffffffffffffff1661093d836109a6565b73ffffffffffffffffffffffffffffffffffffffff1614156109865781838280610966906134fd565b93508151811061097957610978613546565b5b6020026020010181815250505b8180610991906134fd565b92505061090c565b829450505050505b919050565b6000806002600084815260200190815260200160002060009054906101000a900473ffffffffffffffffffffffffffffffffffffffff169050600073ffffffffffffffffffffffffffffffffffffffff168173ffffffffffffffffffffffffffffffffffffffff161415610a4f576040517f08c379a0000000000000000000000000000000000000000000000000000000008152600401610a46906135e7565b60405180910390fd5b80915050919050565b60086000610a64611a85565b73ffffffffffffffffffffffffffffffffffffffff1673ffffffffffffffffffffffffffffffffffffffff16815260200190815260200160002060009054906101000a900460ff16610aeb576040517f08c379a0000000000000000000000000000000000000000000000000000000008152600401610ae290613679565b60405180910390fd5b6000610af76009611b46565b905060006001610b09836103e8611e8e565b610b139190613699565b90506102ef81116110bd57610b288383611faa565b610b326009611fc8565b6101f48111610c4357600a6040518060a00160405280600a60ff168152602001600a60ff168152602001600015158152602001600015158152602001600015158152509080600181540180825580915050600190039060005260206000200160009091909190915060008201518160000160006101000a81548160ff021916908360ff16021790555060208201518160000160016101000a81548160ff021916908360ff16021790555060408201518160000160026101000a81548160ff02191690831515021790555060608201518160000160036101000a81548160ff02191690831515021790555060808201518160000160046101000a81548160ff021916908315150217905550505061107d565b6102588111610d5457600a6040518060a00160405280600060ff168152602001600060ff168152602001600115158152602001600015158152602001600015158152509080600181540180825580915050600190039060005260206000200160009091909190915060008201518160000160006101000a81548160ff021916908360ff16021790555060208201518160000160016101000a81548160ff021916908360ff16021790555060408201518160000160026101000a81548160ff02191690831515021790555060608201518160000160036101000a81548160ff02191690831515021790555060808201518160000160046101000a81548160ff021916908315150217905550505061107c565b6102bc8111610e6557600a6040518060a00160405280600060ff168152602001600060ff168152602001600015158152602001600115158152602001600015158152509080600181540180825580915050600190039060005260206000200160009091909190915060008201518160000160006101000a81548160ff021916908360ff16021790555060208201518160000160016101000a81548160ff021916908360ff16021790555060408201518160000160026101000a81548160ff02191690831515021790555060608201518160000160036101000a81548160ff02191690831515021790555060808201518160000160046101000a81548160ff021916908315150217905550505061107b565b6102ee8111610f7657600a6040518060a00160405280603260ff168152602001606460ff168152602001600015158152602001600015158152602001600015158152509080600181540180825580915050600190039060005260206000200160009091909190915060008201518160000160006101000a81548160ff021916908360ff16021790555060208201518160000160016101000a81548160ff021916908360ff16021790555060408201518160000160026101000a81548160ff02191690831515021790555060608201518160000160036101000a81548160ff02191690831515021790555060808201518160000160046101000a81548160ff021916908315150217905550505061107a565b600a6040518060a00160405280600060ff168152602001600060ff168152602001600015158152602001600015158152602001600115158152509080600181540180825580915050600190039060005260206000200160009091909190915060008201518160000160006101000a81548160ff021916908360ff16021790555060208201518160000160016101000a81548160ff021916908360ff16021790555060408201518160000160026101000a81548160ff02191690831515021790555060608201518160000160036101000a81548160ff02191690831515021790555060808201518160000160046101000a81548160ff02191690831515021790555050505b5b5b5b6110bc826040518060400160405280600981526020017f4348414e47452049540000000000000000000000000000000000000000000000815250611fde565b5b505050565b60008073ffffffffffffffffffffffffffffffffffffffff168273ffffffffffffffffffffffffffffffffffffffff161415611133576040517f08c379a000000000000000000000000000000000000000000000000000000000815260040161112a90613761565b60405180910390fd5b600360008373ffffffffffffffffffffffffffffffffffffffff1673ffffffffffffffffffffffffffffffffffffffff168152602001908152602001600020549050919050565b611182611a85565b73ffffffffffffffffffffffffffffffffffffffff166111a06112e8565b73ffffffffffffffffffffffffffffffffffffffff16146111f6576040517f08c379a00000000000000000000000000000000000000000000000000000000081526004016111ed906137cd565b60405180910390fd5b6112006000612052565b565b6060600a805480602002602001604051908101604052809291908181526020016000905b828210156112df578382906000526020600020016040518060a00160405290816000820160009054906101000a900460ff1660ff1660ff1681526020016000820160019054906101000a900460ff1660ff1660ff1681526020016000820160029054906101000a900460ff161515151581526020016000820160039054906101000a900460ff161515151581526020016000820160049054906101000a900460ff16151515158152505081526020019060010190611226565b50505050905090565b6000600760009054906101000a900473ffffffffffffffffffffffffffffffffffffffff16905090565b60606001805461132190613254565b80601f016020809104026020016040519081016040528092919081815260200182805461134d90613254565b801561139a5780601f1061136f5761010080835404028352916020019161139a565b820191906000526020600020905b81548152906001019060200180831161137d57829003601f168201915b5050505050905090565b6113ac611a85565b73ffffffffffffffffffffffffffffffffffffffff168273ffffffffffffffffffffffffffffffffffffffff16141561141a576040517f08c379a000000000000000000000000000000000000000000000000000000000815260040161141190613839565b60405180910390fd5b8060056000611427611a85565b73ffffffffffffffffffffffffffffffffffffffff1673ffffffffffffffffffffffffffffffffffffffff16815260200190815260200160002060008473ffffffffffffffffffffffffffffffffffffffff1673ffffffffffffffffffffffffffffffffffffffff16815260200190815260200160002060006101000a81548160ff0219169083151502179055508173ffffffffffffffffffffffffffffffffffffffff166114d4611a85565b73ffffffffffffffffffffffffffffffffffffffff167f17307eab39ab6107e8899845ad3d59bd9653f200f220920489ca2b5937696c31836040516115199190612a4f565b60405180910390a35050565b611536611530611a85565b83611b54565b611575576040517f08c379a000000000000000000000000000000000000000000000000000000000815260040161156c906134ae565b60405180910390fd5b61158184848484612118565b50505050565b6060600b61159483612174565b6040516020016115a5929190613929565b6040516020818303038152906040529050919050565b6115c36128bd565b600a82815481106115d7576115d6613546565b5b906000526020600020016040518060a00160405290816000820160009054906101000a900460ff1660ff1660ff1681526020016000820160019054906101000a900460ff1660ff1660ff1681526020016000820160029054906101000a900460ff161515151581526020016000820160039054906101000a900460ff161515151581526020016000820160049054906101000a900460ff1615151515815250509050919050565b6000600560008473ffffffffffffffffffffffffffffffffffffffff1673ffffffffffffffffffffffffffffffffffffffff16815260200190815260200160002060008373ffffffffffffffffffffffffffffffffffffffff1673ffffffffffffffffffffffffffffffffffffffff16815260200190815260200160002060009054906101000a900460ff16905092915050565b61171a611a85565b73ffffffffffffffffffffffffffffffffffffffff166117386112e8565b73ffffffffffffffffffffffffffffffffffffffff161461178e576040517f08c379a0000000000000000000000000000000000000000000000000000000008152600401611785906137cd565b60405180910390fd5b600073ffffffffffffffffffffffffffffffffffffffff168173ffffffffffffffffffffffffffffffffffffffff1614156117fe576040517f08c379a00000000000000000000000000000000000000000000000000000000081526004016117f5906139bf565b60405180910390fd5b61180781612052565b50565b611812611a85565b73ffffffffffffffffffffffffffffffffffffffff166118306112e8565b73ffffffffffffffffffffffffffffffffffffffff1614611886576040517f08c379a000000000000000000000000000000000000000000000000000000000815260040161187d906137cd565b60405180910390fd5b6001600860008373ffffffffffffffffffffffffffffffffffffffff1673ffffffffffffffffffffffffffffffffffffffff16815260200190815260200160002060006101000a81548160ff02191690831515021790555050565b6118e9611a85565b73ffffffffffffffffffffffffffffffffffffffff166119076112e8565b73ffffffffffffffffffffffffffffffffffffffff161461195d576040517f08c379a0000000000000000000000000000000000000000000000000000000008152600401611954906137cd565b60405180910390fd5b600860008273ffffffffffffffffffffffffffffffffffffffff1673ffffffffffffffffffffffffffffffffffffffff16815260200190815260200160002060006101000a81549060ff021916905550565b60007f01ffc9a7000000000000000000000000000000000000000000000000000000007bffffffffffffffffffffffffffffffffffffffffffffffffffffffff1916827bffffffffffffffffffffffffffffffffffffffffffffffffffffffff1916149050919050565b60008073ffffffffffffffffffffffffffffffffffffffff166002600084815260200190815260200160002060009054906101000a900473ffffffffffffffffffffffffffffffffffffffff1673ffffffffffffffffffffffffffffffffffffffff1614159050919050565b600033905090565b816004600083815260200190815260200160002060006101000a81548173ffffffffffffffffffffffffffffffffffffffff021916908373ffffffffffffffffffffffffffffffffffffffff160217905550808273ffffffffffffffffffffffffffffffffffffffff16611b00836109a6565b73ffffffffffffffffffffffffffffffffffffffff167f8c5be1e5ebec7d5bd14f71427d1e84f3dd0314c0f7b2291e5b200ac8c7c3b92560405160405180910390a45050565b600081600001549050919050565b6000611b5f82611a19565b611b9e576040517f08c379a0000000000000000000000000000000000000000000000000000000008152600401611b9590613a51565b60405180910390fd5b6000611ba9836109a6565b90508073ffffffffffffffffffffffffffffffffffffffff168473ffffffffffffffffffffffffffffffffffffffff161480611c1857508373ffffffffffffffffffffffffffffffffffffffff16611c008461061b565b73ffffffffffffffffffffffffffffffffffffffff16145b80611c295750611c28818561167e565b5b91505092915050565b8273ffffffffffffffffffffffffffffffffffffffff16611c52826109a6565b73ffffffffffffffffffffffffffffffffffffffff1614611ca8576040517f08c379a0000000000000000000000000000000000000000000000000000000008152600401611c9f90613ae3565b60405180910390fd5b600073ffffffffffffffffffffffffffffffffffffffff168273ffffffffffffffffffffffffffffffffffffffff161415611d18576040517f08c379a0000000000000000000000000000000000000000000000000000000008152600401611d0f90613b75565b60405180910390fd5b611d238383836122c6565b611d2e600082611a8d565b6001600360008573ffffffffffffffffffffffffffffffffffffffff1673ffffffffffffffffffffffffffffffffffffffff1681526020019081526020016000206000828254611d7e9190613b95565b925050819055506001600360008473ffffffffffffffffffffffffffffffffffffffff1673ffffffffffffffffffffffffffffffffffffffff1681526020019081526020016000206000828254611dd59190613699565b92505081905550816002600083815260200190815260200160002060006101000a81548173ffffffffffffffffffffffffffffffffffffffff021916908373ffffffffffffffffffffffffffffffffffffffff160217905550808273ffffffffffffffffffffffffffffffffffffffff168473ffffffffffffffffffffffffffffffffffffffff167fddf252ad1be2c89b69c2b068fc378daa952ba7f163c4a11628f55a4df523b3ef60405160405180910390a4505050565b600080434233604051602001611ea49190613c11565b6040516020818303038152906040528051906020012060001c611ec79190613c5b565b454241604051602001611eda9190613cc7565b6040516020818303038152906040528051906020012060001c611efd9190613c5b565b874442611f0a9190613699565b611f149190613699565b611f1e9190613699565b611f289190613699565b611f329190613699565b611f3c9190613699565b604051602001611f4c9190613d03565b6040516020818303038152906040528051906020012060001c9050600183611f749190613699565b600184611f819190613699565b82611f8c9190613c5b565b611f969190613d1e565b81611fa19190613b95565b91505092915050565b611fc48282604051806020016040528060008152506122cb565b5050565b6001816000016000828254019250508190555050565b611fe782611a19565b612026576040517f08c379a000000000000000000000000000000000000000000000000000000000815260040161201d90613dea565b60405180910390fd5b8060066000848152602001908152602001600020908051906020019061204d9291906128f8565b505050565b6000600760009054906101000a900473ffffffffffffffffffffffffffffffffffffffff16905081600760006101000a81548173ffffffffffffffffffffffffffffffffffffffff021916908373ffffffffffffffffffffffffffffffffffffffff1602179055508173ffffffffffffffffffffffffffffffffffffffff168173ffffffffffffffffffffffffffffffffffffffff167f8be0079c531659141344cd1fd0a4f28419497f9722a3daafe3b4186f6b6457e060405160405180910390a35050565b612123848484611c32565b61212f84848484612326565b61216e576040517f08c379a000000000000000000000000000000000000000000000000000000000815260040161216590613e7c565b60405180910390fd5b50505050565b606061217f82611a19565b6121be576040517f08c379a00000000000000000000000000000000000000000000000000000000081526004016121b590613f0e565b60405180910390fd5b60006006600084815260200190815260200160002080546121de90613254565b80601f016020809104026020016040519081016040528092919081815260200182805461220a90613254565b80156122575780601f1061222c57610100808354040283529160200191612257565b820191906000526020600020905b81548152906001019060200180831161223a57829003601f168201915b5050505050905060006122686124bd565b905060008151141561227e5781925050506122c1565b6000825111156122b357808260405160200161229b929190613f2e565b604051602081830303815290604052925050506122c1565b6122bc846124d4565b925050505b919050565b505050565b6122d5838361257b565b6122e26000848484612326565b612321576040517f08c379a000000000000000000000000000000000000000000000000000000000815260040161231890613e7c565b60405180910390fd5b505050565b60006123478473ffffffffffffffffffffffffffffffffffffffff16612749565b156124b0578373ffffffffffffffffffffffffffffffffffffffff1663150b7a02612370611a85565b8786866040518563ffffffff1660e01b81526004016123929493929190613fa7565b602060405180830381600087803b1580156123ac57600080fd5b505af19250505080156123dd57506040513d601f19601f820116820180604052508101906123da9190614008565b60015b612460573d806000811461240d576040519150601f19603f3d011682016040523d82523d6000602084013e612412565b606091505b50600081511415612458576040517f08c379a000000000000000000000000000000000000000000000000000000000815260040161244f90613e7c565b60405180910390fd5b805181602001fd5b63150b7a0260e01b7bffffffffffffffffffffffffffffffffffffffffffffffffffffffff1916817bffffffffffffffffffffffffffffffffffffffffffffffffffffffff1916149150506124b5565b600190505b949350505050565b606060405180602001604052806000815250905090565b60606124df82611a19565b61251e576040517f08c379a0000000000000000000000000000000000000000000000000000000008152600401612515906140a7565b60405180910390fd5b60006125286124bd565b905060008151116125485760405180602001604052806000815250612573565b806125528461275c565b604051602001612563929190613f2e565b6040516020818303038152906040525b915050919050565b600073ffffffffffffffffffffffffffffffffffffffff168273ffffffffffffffffffffffffffffffffffffffff1614156125eb576040517f08c379a00000000000000000000000000000000000000000000000000000000081526004016125e290614113565b60405180910390fd5b6125f481611a19565b15612634576040517f08c379a000000000000000000000000000000000000000000000000000000000815260040161262b9061417f565b60405180910390fd5b612640600083836122c6565b6001600360008473ffffffffffffffffffffffffffffffffffffffff1673ffffffffffffffffffffffffffffffffffffffff16815260200190815260200160002060008282546126909190613699565b92505081905550816002600083815260200190815260200160002060006101000a81548173ffffffffffffffffffffffffffffffffffffffff021916908373ffffffffffffffffffffffffffffffffffffffff160217905550808273ffffffffffffffffffffffffffffffffffffffff16600073ffffffffffffffffffffffffffffffffffffffff167fddf252ad1be2c89b69c2b068fc378daa952ba7f163c4a11628f55a4df523b3ef60405160405180910390a45050565b600080823b905060008111915050919050565b606060008214156127a4576040518060400160405280600181526020017f300000000000000000000000000000000000000000000000000000000000000081525090506128b8565b600082905060005b600082146127d65780806127bf906134fd565b915050600a826127cf9190613c5b565b91506127ac565b60008167ffffffffffffffff8111156127f2576127f1612fb4565b5b6040519080825280601f01601f1916602001820160405280156128245781602001600182028036833780820191505090505b5090505b600085146128b15760018261283d9190613b95565b9150600a8561284c919061419f565b60306128589190613699565b60f81b81838151811061286e5761286d613546565b5b60200101907effffffffffffffffffffffffffffffffffffffffffffffffffffffffffffff1916908160001a905350600a856128aa9190613c5b565b9450612828565b8093505050505b919050565b6040518060a00160405280600060ff168152602001600060ff1681526020016000151581526020016000151581526020016000151581525090565b82805461290490613254565b90600052602060002090601f016020900481019282612926576000855561296d565b82601f1061293f57805160ff191683800117855561296d565b8280016001018555821561296d579182015b8281111561296c578251825591602001919060010190612951565b5b50905061297a919061297e565b5090565b5b8082111561299757600081600090555060010161297f565b5090565b6000604051905090565b600080fd5b600080fd5b60007fffffffff0000000000000000000000000000000000000000000000000000000082169050919050565b6129e4816129af565b81146129ef57600080fd5b50565b600081359050612a01816129db565b92915050565b600060208284031215612a1d57612a1c6129a5565b5b6000612a2b848285016129f2565b91505092915050565b60008115159050919050565b612a4981612a34565b82525050565b6000602082019050612a646000830184612a40565b92915050565b600081519050919050565b600082825260208201905092915050565b6000819050602082019050919050565b6000819050919050565b612aa981612a96565b82525050565b6000612abb8383612aa0565b60208301905092915050565b6000602082019050919050565b6000612adf82612a6a565b612ae98185612a75565b9350612af483612a86565b8060005b83811015612b25578151612b0c8882612aaf565b9750612b1783612ac7565b925050600181019050612af8565b5085935050505092915050565b60006020820190508181036000830152612b4c8184612ad4565b905092915050565b600081519050919050565b600082825260208201905092915050565b60005b83811015612b8e578082015181840152602081019050612b73565b83811115612b9d576000848401525b50505050565b6000601f19601f8301169050919050565b6000612bbf82612b54565b612bc98185612b5f565b9350612bd9818560208601612b70565b612be281612ba3565b840191505092915050565b60006020820190508181036000830152612c078184612bb4565b905092915050565b612c1881612a96565b8114612c2357600080fd5b50565b600081359050612c3581612c0f565b92915050565b600060208284031215612c5157612c506129a5565b5b6000612c5f84828501612c26565b91505092915050565b600073ffffffffffffffffffffffffffffffffffffffff82169050919050565b6000612c9382612c68565b9050919050565b612ca381612c88565b82525050565b6000602082019050612cbe6000830184612c9a565b92915050565b612ccd81612c88565b8114612cd857600080fd5b50565b600081359050612cea81612cc4565b92915050565b60008060408385031215612d0757612d066129a5565b5b6000612d1585828601612cdb565b9250506020612d2685828601612c26565b9150509250929050565b612d3981612a96565b82525050565b6000602082019050612d546000830184612d30565b92915050565b600080600060608486031215612d7357612d726129a5565b5b6000612d8186828701612cdb565b9350506020612d9286828701612cdb565b9250506040612da386828701612c26565b9150509250925092565b600060208284031215612dc357612dc26129a5565b5b6000612dd184828501612cdb565b91505092915050565b600081519050919050565b600082825260208201905092915050565b6000819050602082019050919050565b600060ff82169050919050565b612e1c81612e06565b82525050565b612e2b81612a34565b82525050565b60a082016000820151612e476000850182612e13565b506020820151612e5a6020850182612e13565b506040820151612e6d6040850182612e22565b506060820151612e806060850182612e22565b506080820151612e936080850182612e22565b50505050565b6000612ea58383612e31565b60a08301905092915050565b6000602082019050919050565b6000612ec982612dda565b612ed38185612de5565b9350612ede83612df6565b8060005b83811015612f0f578151612ef68882612e99565b9750612f0183612eb1565b925050600181019050612ee2565b5085935050505092915050565b60006020820190508181036000830152612f368184612ebe565b905092915050565b612f4781612a34565b8114612f5257600080fd5b50565b600081359050612f6481612f3e565b92915050565b60008060408385031215612f8157612f806129a5565b5b6000612f8f85828601612cdb565b9250506020612fa085828601612f55565b9150509250929050565b600080fd5b600080fd5b7f4e487b7100000000000000000000000000000000000000000000000000000000600052604160045260246000fd5b612fec82612ba3565b810181811067ffffffffffffffff8211171561300b5761300a612fb4565b5b80604052505050565b600061301e61299b565b905061302a8282612fe3565b919050565b600067ffffffffffffffff82111561304a57613049612fb4565b5b61305382612ba3565b9050602081019050919050565b82818337600083830152505050565b600061308261307d8461302f565b613014565b90508281526020810184848401111561309e5761309d612faf565b5b6130a9848285613060565b509392505050565b600082601f8301126130c6576130c5612faa565b5b81356130d684826020860161306f565b91505092915050565b600080600080608085870312156130f9576130f86129a5565b5b600061310787828801612cdb565b945050602061311887828801612cdb565b935050604061312987828801612c26565b925050606085013567ffffffffffffffff81111561314a576131496129aa565b5b613156878288016130b1565b91505092959194509250565b60a0820160008201516131786000850182612e13565b50602082015161318b6020850182612e13565b50604082015161319e6040850182612e22565b5060608201516131b16060850182612e22565b5060808201516131c46080850182612e22565b50505050565b600060a0820190506131df6000830184613162565b92915050565b600080604083850312156131fc576131fb6129a5565b5b600061320a85828601612cdb565b925050602061321b85828601612cdb565b9150509250929050565b7f4e487b7100000000000000000000000000000000000000000000000000000000600052602260045260246000fd5b6000600282049050600182168061326c57607f821691505b602082108114156132805761327f613225565b5b50919050565b7f4552433732313a20617070726f76656420717565727920666f72206e6f6e657860008201527f697374656e7420746f6b656e0000000000000000000000000000000000000000602082015250565b60006132e2602c83612b5f565b91506132ed82613286565b604082019050919050565b60006020820190508181036000830152613311816132d5565b9050919050565b7f4552433732313a20617070726f76616c20746f2063757272656e74206f776e6560008201527f7200000000000000000000000000000000000000000000000000000000000000602082015250565b6000613374602183612b5f565b915061337f82613318565b604082019050919050565b600060208201905081810360008301526133a381613367565b9050919050565b7f4552433732313a20617070726f76652063616c6c6572206973206e6f74206f7760008201527f6e6572206e6f7220617070726f76656420666f7220616c6c0000000000000000602082015250565b6000613406603883612b5f565b9150613411826133aa565b604082019050919050565b60006020820190508181036000830152613435816133f9565b9050919050565b7f4552433732313a207472616e736665722063616c6c6572206973206e6f74206f60008201527f776e6572206e6f7220617070726f766564000000000000000000000000000000602082015250565b6000613498603183612b5f565b91506134a38261343c565b604082019050919050565b600060208201905081810360008301526134c78161348b565b9050919050565b7f4e487b7100000000000000000000000000000000000000000000000000000000600052601160045260246000fd5b600061350882612a96565b91507fffffffffffffffffffffffffffffffffffffffffffffffffffffffffffffffff82141561353b5761353a6134ce565b5b600182019050919050565b7f4e487b7100000000000000000000000000000000000000000000000000000000600052603260045260246000fd5b7f4552433732313a206f776e657220717565727920666f72206e6f6e657869737460008201527f656e7420746f6b656e0000000000000000000000000000000000000000000000602082015250565b60006135d1602983612b5f565b91506135dc82613575565b604082019050919050565b60006020820190508181036000830152613600816135c4565b9050919050565b7f4f6e6c79207065726d697474656420616464726573732063616e20657865637560008201527f7465207468697320616374696f6e000000000000000000000000000000000000602082015250565b6000613663602e83612b5f565b915061366e82613607565b604082019050919050565b6000602082019050818103600083015261369281613656565b9050919050565b60006136a482612a96565b91506136af83612a96565b9250827fffffffffffffffffffffffffffffffffffffffffffffffffffffffffffffffff038211156136e4576136e36134ce565b5b828201905092915050565b7f4552433732313a2062616c616e636520717565727920666f7220746865207a6560008201527f726f206164647265737300000000000000000000000000000000000000000000602082015250565b600061374b602a83612b5f565b9150613756826136ef565b604082019050919050565b6000602082019050818103600083015261377a8161373e565b9050919050565b7f4f776e61626c653a2063616c6c6572206973206e6f7420746865206f776e6572600082015250565b60006137b7602083612b5f565b91506137c282613781565b602082019050919050565b600060208201905081810360008301526137e6816137aa565b9050919050565b7f4552433732313a20617070726f766520746f2063616c6c657200000000000000600082015250565b6000613823601983612b5f565b915061382e826137ed565b602082019050919050565b6000602082019050818103600083015261385281613816565b9050919050565b600081905092915050565b60008190508160005260206000209050919050565b6000815461388681613254565b6138908186613859565b945060018216600081146138ab57600181146138bc576138ef565b60ff198316865281860193506138ef565b6138c585613864565b60005b838110156138e7578154818901526001820191506020810190506138c8565b838801955050505b50505092915050565b600061390382612b54565b61390d8185613859565b935061391d818560208601612b70565b80840191505092915050565b60006139358285613879565b915061394182846138f8565b91508190509392505050565b7f4f776e61626c653a206e6577206f776e657220697320746865207a65726f206160008201527f6464726573730000000000000000000000000000000000000000000000000000602082015250565b60006139a9602683612b5f565b91506139b48261394d565b604082019050919050565b600060208201905081810360008301526139d88161399c565b9050919050565b7f4552433732313a206f70657261746f7220717565727920666f72206e6f6e657860008201527f697374656e7420746f6b656e0000000000000000000000000000000000000000602082015250565b6000613a3b602c83612b5f565b9150613a46826139df565b604082019050919050565b60006020820190508181036000830152613a6a81613a2e565b9050919050565b7f4552433732313a207472616e73666572206f6620746f6b656e2074686174206960008201527f73206e6f74206f776e0000000000000000000000000000000000000000000000602082015250565b6000613acd602983612b5f565b9150613ad882613a71565b604082019050919050565b60006020820190508181036000830152613afc81613ac0565b9050919050565b7f4552433732313a207472616e7366657220746f20746865207a65726f2061646460008201527f7265737300000000000000000000000000000000000000000000000000000000602082015250565b6000613b5f602483612b5f565b9150613b6a82613b03565b604082019050919050565b60006020820190508181036000830152613b8e81613b52565b9050919050565b6000613ba082612a96565b9150613bab83612a96565b925082821015613bbe57613bbd6134ce565b5b828203905092915050565b60008160601b9050919050565b6000613be182613bc9565b9050919050565b6000613bf382613bd6565b9050919050565b613c0b613c0682612c88565b613be8565b82525050565b6000613c1d8284613bfa565b60148201915081905092915050565b7f4e487b7100000000000000000000000000000000000000000000000000000000600052601260045260246000fd5b6000613c6682612a96565b9150613c7183612a96565b925082613c8157613c80613c2c565b5b828204905092915050565b6000613c9782612c68565b9050919050565b6000613ca982613bd6565b9050919050565b613cc1613cbc82613c8c565b613c9e565b82525050565b6000613cd38284613cb0565b60148201915081905092915050565b6000819050919050565b613cfd613cf882612a96565b613ce2565b82525050565b6000613d0f8284613cec565b60208201915081905092915050565b6000613d2982612a96565b9150613d3483612a96565b9250817fffffffffffffffffffffffffffffffffffffffffffffffffffffffffffffffff0483118215151615613d6d57613d6c6134ce565b5b828202905092915050565b7f45524337323155524953746f726167653a2055524920736574206f66206e6f6e60008201527f6578697374656e7420746f6b656e000000000000000000000000000000000000602082015250565b6000613dd4602e83612b5f565b9150613ddf82613d78565b604082019050919050565b60006020820190508181036000830152613e0381613dc7565b9050919050565b7f4552433732313a207472616e7366657220746f206e6f6e20455243373231526560008201527f63656976657220696d706c656d656e7465720000000000000000000000000000602082015250565b6000613e66603283612b5f565b9150613e7182613e0a565b604082019050919050565b60006020820190508181036000830152613e9581613e59565b9050919050565b7f45524337323155524953746f726167653a2055524920717565727920666f722060008201527f6e6f6e6578697374656e7420746f6b656e000000000000000000000000000000602082015250565b6000613ef8603183612b5f565b9150613f0382613e9c565b604082019050919050565b60006020820190508181036000830152613f2781613eeb565b9050919050565b6000613f3a82856138f8565b9150613f4682846138f8565b91508190509392505050565b600081519050919050565b600082825260208201905092915050565b6000613f7982613f52565b613f838185613f5d565b9350613f93818560208601612b70565b613f9c81612ba3565b840191505092915050565b6000608082019050613fbc6000830187612c9a565b613fc96020830186612c9a565b613fd66040830185612d30565b8181036060830152613fe88184613f6e565b905095945050505050565b600081519050614002816129db565b92915050565b60006020828403121561401e5761401d6129a5565b5b600061402c84828501613ff3565b91505092915050565b7f4552433732314d657461646174613a2055524920717565727920666f72206e6f60008201527f6e6578697374656e7420746f6b656e0000000000000000000000000000000000602082015250565b6000614091602f83612b5f565b915061409c82614035565b604082019050919050565b600060208201905081810360008301526140c081614084565b9050919050565b7f4552433732313a206d696e7420746f20746865207a65726f2061646472657373600082015250565b60006140fd602083612b5f565b9150614108826140c7565b602082019050919050565b6000602082019050818103600083015261412c816140f0565b9050919050565b7f4552433732313a20746f6b656e20616c7265616479206d696e74656400000000600082015250565b6000614169601c83612b5f565b915061417482614133565b602082019050919050565b600060208201905081810360008301526141988161415c565b9050919050565b60006141aa82612a96565b91506141b583612a96565b9250826141c5576141c4613c2c565b5b82820690509291505056fea264697066735822122006d77d77d2176a49bcd814bba070381b8aa043a1d656ca621a0f5234112182d464736f6c63430008090033",
  "immutableReferences": {},
  "source": "pragma solidity 0.8.9;\n\nimport \"../node_modules/@openzeppelin/contracts/token/ERC721/extensions/ERC721URIStorage.sol\";\nimport \"../node_modules/@openzeppelin/contracts/utils/Counters.sol\";\nimport \"../node_modules/@openzeppelin/contracts/access/Ownable.sol\";\nimport \"./interfaces/IConsumable.sol\";\nimport \"./library/SharedStructs.sol\";\n\ncontract Consumable is IConsumable, ERC721URIStorage, Ownable {\n    mapping(address => bool) private _mintPermittedAddress;\n\n    using Counters for Counters.Counter;\n    Counters.Counter private _currentConsumableId;\n\n    SharedStructs.Consumable[] private _consumables;\n\n    string private _baseTokenURI;\n\n    constructor(\n        string memory name,\n        string memory symbol,\n        string memory baseTokenURI\n    ) ERC721(name, symbol) {\n        _baseTokenURI = baseTokenURI;\n    }\n\n    function addMintPermittedAddress(address newAddress) external onlyOwner {\n        _mintPermittedAddress[newAddress] = true;\n    }\n\n    function removeMintPermittedAddress(address newAddress) external onlyOwner {\n        delete _mintPermittedAddress[newAddress];\n    }\n\n    modifier onlyPermittedAddress() {\n        require(\n            _mintPermittedAddress[_msgSender()],\n            \"Only permitted address can execute this action\"\n        );\n        _;\n    }\n\n    function getConsumables()\n        external\n        view\n        returns (SharedStructs.Consumable[] memory)\n    {\n        return _consumables;\n    }\n\n    function getNextConsumableId() external view returns (uint256) {\n        return _currentConsumableId.current();\n    }\n\n    function mint(address owner) external onlyPermittedAddress {\n        uint256 newConsumableId = _currentConsumableId.current();\n\n        uint256 consumableChance = rand(newConsumableId, 1000) + 1;\n\n        if (consumableChance <= 751) {\n            _safeMint(owner, newConsumableId);\n            _currentConsumableId.increment();\n            if (consumableChance <= 500) {\n                _consumables.push(\n                    SharedStructs.Consumable(10, 10, false, false, false)\n                );\n            } else if (consumableChance <= 600) {\n                _consumables.push(\n                    SharedStructs.Consumable(0, 0, true, false, false)\n                );\n            } else if (consumableChance <= 700) {\n                _consumables.push(\n                    SharedStructs.Consumable(0, 0, false, true, false)\n                );\n            } else if (consumableChance <= 750) {\n                _consumables.push(\n                    SharedStructs.Consumable(50, 100, false, false, false)\n                );\n            } else {\n                _consumables.push(\n                    SharedStructs.Consumable(0, 0, false, false, true)\n                );\n            }\n            \n            _setTokenURI(newConsumableId, \"CHANGE IT\");\n            \n        }\n    }\n\n    function getConsumablesByAddress(address owner)\n        public\n        view\n        returns (uint256[] memory)\n    {\n        uint256 consumableCount = balanceOf(owner);\n\n        if (consumableCount == 0) {\n            return new uint256[](0);\n        } else {\n            uint256[] memory ret = new uint256[](consumableCount);\n            uint256 i;\n            uint256 curIndex = 0;\n\n            for (i = 0; i < _currentConsumableId.current(); i++) {\n                if (ownerOf(i) == owner) {\n                    ret[curIndex++] = i;\n                }\n            }\n\n            return ret;\n        }\n    }\n\n    function getMyConsumables() external view returns (uint256[] memory) {\n        return getConsumablesByAddress(msg.sender);\n    }\n\n    function getConsumable(uint256 _consumableId)\n        external\n        view\n        returns (SharedStructs.Consumable memory)\n    {\n        return _consumables[_consumableId];\n    }\n\n    function rand(uint256 seed1, uint256 limit) private view returns (uint256) {\n        uint256 seed = uint256(\n            keccak256(\n                abi.encodePacked(\n                    block.timestamp +\n                        block.difficulty +\n                        seed1 +\n                        ((\n                            uint256(keccak256(abi.encodePacked(block.coinbase)))\n                        ) / (block.timestamp)) +\n                        block.gaslimit +\n                        ((uint256(keccak256(abi.encodePacked(msg.sender)))) /\n                            (block.timestamp)) +\n                        block.number\n                )\n            )\n        );\n\n        return (seed - ((seed / (limit + 1)) * (limit + 1)));\n    }\n\n    function tokenURI(uint256 tokenId)\n        public\n        view\n        virtual\n        override\n        returns (string memory)\n    {\n        return string(abi.encodePacked(_baseTokenURI, super.tokenURI(tokenId)));\n    }\n}\n",
  "sourcePath": "/home/rfaita/game/nft-game/contract/contracts/Consumable.sol",
  "compiler": {
    "name": "solc",
    "version": "0.8.9+commit.e5eed63a.Emscripten.clang"
  },
  "schemaVersion": "3.4.3",
  "updatedAt": "2021-11-23T12:34:07.219Z",
  "networkType": "ethereum",
  "devdoc": {
    "kind": "dev",
    "methods": {
      "approve(address,uint256)": {
        "details": "See {IERC721-approve}."
      },
      "balanceOf(address)": {
        "details": "See {IERC721-balanceOf}."
      },
      "getApproved(uint256)": {
        "details": "See {IERC721-getApproved}."
      },
      "isApprovedForAll(address,address)": {
        "details": "See {IERC721-isApprovedForAll}."
      },
      "name()": {
        "details": "See {IERC721Metadata-name}."
      },
      "owner()": {
        "details": "Returns the address of the current owner."
      },
      "ownerOf(uint256)": {
        "details": "See {IERC721-ownerOf}."
      },
      "renounceOwnership()": {
        "details": "Leaves the contract without owner. It will not be possible to call `onlyOwner` functions anymore. Can only be called by the current owner. NOTE: Renouncing ownership will leave the contract without an owner, thereby removing any functionality that is only available to the owner."
      },
      "safeTransferFrom(address,address,uint256)": {
        "details": "See {IERC721-safeTransferFrom}."
      },
      "safeTransferFrom(address,address,uint256,bytes)": {
        "details": "See {IERC721-safeTransferFrom}."
      },
      "setApprovalForAll(address,bool)": {
        "details": "See {IERC721-setApprovalForAll}."
      },
      "supportsInterface(bytes4)": {
        "details": "See {IERC165-supportsInterface}."
      },
      "symbol()": {
        "details": "See {IERC721Metadata-symbol}."
      },
      "tokenURI(uint256)": {
        "details": "See {IERC721Metadata-tokenURI}."
      },
      "transferFrom(address,address,uint256)": {
        "details": "See {IERC721-transferFrom}."
      },
      "transferOwnership(address)": {
        "details": "Transfers ownership of the contract to a new account (`newOwner`). Can only be called by the current owner."
      }
    },
    "version": 1
  },
  "userdoc": {
    "kind": "user",
    "methods": {},
    "version": 1
  }
}