{
  "contractName": "Consumable",
  "abi": [
    {
      "inputs": [
        {
          "internalType": "string",
          "name": "name",
          "type": "string"
        },
        {
          "internalType": "string",
          "name": "symbol",
          "type": "string"
        },
        {
          "internalType": "string",
          "name": "baseTokenURI",
          "type": "string"
        }
      ],
      "stateMutability": "nonpayable",
      "type": "constructor"
    },
    {
      "anonymous": false,
      "inputs": [
        {
          "indexed": true,
          "internalType": "address",
          "name": "owner",
          "type": "address"
        },
        {
          "indexed": true,
          "internalType": "address",
          "name": "approved",
          "type": "address"
        },
        {
          "indexed": true,
          "internalType": "uint256",
          "name": "tokenId",
          "type": "uint256"
        }
      ],
      "name": "Approval",
      "type": "event"
    },
    {
      "anonymous": false,
      "inputs": [
        {
          "indexed": true,
          "internalType": "address",
          "name": "owner",
          "type": "address"
        },
        {
          "indexed": true,
          "internalType": "address",
          "name": "operator",
          "type": "address"
        },
        {
          "indexed": false,
          "internalType": "bool",
          "name": "approved",
          "type": "bool"
        }
      ],
      "name": "ApprovalForAll",
      "type": "event"
    },
    {
      "anonymous": false,
      "inputs": [
        {
          "indexed": true,
          "internalType": "uint256",
          "name": "tokenId",
          "type": "uint256"
        },
        {
          "indexed": false,
          "internalType": "uint8",
          "name": "consumableType",
          "type": "uint8"
        }
      ],
      "name": "ConsumableMinted",
      "type": "event"
    },
    {
      "anonymous": false,
      "inputs": [
        {
          "indexed": true,
          "internalType": "uint256",
          "name": "tokenId",
          "type": "uint256"
        },
        {
          "indexed": false,
          "internalType": "uint8",
          "name": "consumableType",
          "type": "uint8"
        }
      ],
      "name": "ConsumableUsed",
      "type": "event"
    },
    {
      "anonymous": false,
      "inputs": [
        {
          "indexed": true,
          "internalType": "address",
          "name": "previousOwner",
          "type": "address"
        },
        {
          "indexed": true,
          "internalType": "address",
          "name": "newOwner",
          "type": "address"
        }
      ],
      "name": "OwnershipTransferred",
      "type": "event"
    },
    {
      "anonymous": false,
      "inputs": [
        {
          "indexed": true,
          "internalType": "address",
          "name": "from",
          "type": "address"
        },
        {
          "indexed": true,
          "internalType": "address",
          "name": "to",
          "type": "address"
        },
        {
          "indexed": true,
          "internalType": "uint256",
          "name": "tokenId",
          "type": "uint256"
        }
      ],
      "name": "Transfer",
      "type": "event"
    },
    {
      "inputs": [
        {
          "internalType": "address",
          "name": "to",
          "type": "address"
        },
        {
          "internalType": "uint256",
          "name": "tokenId",
          "type": "uint256"
        }
      ],
      "name": "approve",
      "outputs": [],
      "stateMutability": "nonpayable",
      "type": "function"
    },
    {
      "inputs": [
        {
          "internalType": "address",
          "name": "owner",
          "type": "address"
        }
      ],
      "name": "balanceOf",
      "outputs": [
        {
          "internalType": "uint256",
          "name": "",
          "type": "uint256"
        }
      ],
      "stateMutability": "view",
      "type": "function",
      "constant": true
    },
    {
      "inputs": [
        {
          "internalType": "uint256",
          "name": "tokenId",
          "type": "uint256"
        }
      ],
      "name": "getApproved",
      "outputs": [
        {
          "internalType": "address",
          "name": "",
          "type": "address"
        }
      ],
      "stateMutability": "view",
      "type": "function",
      "constant": true
    },
    {
      "inputs": [
        {
          "internalType": "address",
          "name": "owner",
          "type": "address"
        },
        {
          "internalType": "address",
          "name": "operator",
          "type": "address"
        }
      ],
      "name": "isApprovedForAll",
      "outputs": [
        {
          "internalType": "bool",
          "name": "",
          "type": "bool"
        }
      ],
      "stateMutability": "view",
      "type": "function",
      "constant": true
    },
    {
      "inputs": [],
      "name": "name",
      "outputs": [
        {
          "internalType": "string",
          "name": "",
          "type": "string"
        }
      ],
      "stateMutability": "view",
      "type": "function",
      "constant": true
    },
    {
      "inputs": [],
      "name": "owner",
      "outputs": [
        {
          "internalType": "address",
          "name": "",
          "type": "address"
        }
      ],
      "stateMutability": "view",
      "type": "function",
      "constant": true
    },
    {
      "inputs": [
        {
          "internalType": "uint256",
          "name": "tokenId",
          "type": "uint256"
        }
      ],
      "name": "ownerOf",
      "outputs": [
        {
          "internalType": "address",
          "name": "",
          "type": "address"
        }
      ],
      "stateMutability": "view",
      "type": "function",
      "constant": true
    },
    {
      "inputs": [],
      "name": "renounceOwnership",
      "outputs": [],
      "stateMutability": "nonpayable",
      "type": "function"
    },
    {
      "inputs": [
        {
          "internalType": "address",
          "name": "from",
          "type": "address"
        },
        {
          "internalType": "address",
          "name": "to",
          "type": "address"
        },
        {
          "internalType": "uint256",
          "name": "tokenId",
          "type": "uint256"
        }
      ],
      "name": "safeTransferFrom",
      "outputs": [],
      "stateMutability": "nonpayable",
      "type": "function"
    },
    {
      "inputs": [
        {
          "internalType": "address",
          "name": "from",
          "type": "address"
        },
        {
          "internalType": "address",
          "name": "to",
          "type": "address"
        },
        {
          "internalType": "uint256",
          "name": "tokenId",
          "type": "uint256"
        },
        {
          "internalType": "bytes",
          "name": "_data",
          "type": "bytes"
        }
      ],
      "name": "safeTransferFrom",
      "outputs": [],
      "stateMutability": "nonpayable",
      "type": "function"
    },
    {
      "inputs": [
        {
          "internalType": "address",
          "name": "operator",
          "type": "address"
        },
        {
          "internalType": "bool",
          "name": "approved",
          "type": "bool"
        }
      ],
      "name": "setApprovalForAll",
      "outputs": [],
      "stateMutability": "nonpayable",
      "type": "function"
    },
    {
      "inputs": [
        {
          "internalType": "bytes4",
          "name": "interfaceId",
          "type": "bytes4"
        }
      ],
      "name": "supportsInterface",
      "outputs": [
        {
          "internalType": "bool",
          "name": "",
          "type": "bool"
        }
      ],
      "stateMutability": "view",
      "type": "function",
      "constant": true
    },
    {
      "inputs": [],
      "name": "symbol",
      "outputs": [
        {
          "internalType": "string",
          "name": "",
          "type": "string"
        }
      ],
      "stateMutability": "view",
      "type": "function",
      "constant": true
    },
    {
      "inputs": [
        {
          "internalType": "address",
          "name": "from",
          "type": "address"
        },
        {
          "internalType": "address",
          "name": "to",
          "type": "address"
        },
        {
          "internalType": "uint256",
          "name": "tokenId",
          "type": "uint256"
        }
      ],
      "name": "transferFrom",
      "outputs": [],
      "stateMutability": "nonpayable",
      "type": "function"
    },
    {
      "inputs": [
        {
          "internalType": "address",
          "name": "newOwner",
          "type": "address"
        }
      ],
      "name": "transferOwnership",
      "outputs": [],
      "stateMutability": "nonpayable",
      "type": "function"
    },
    {
      "inputs": [
        {
          "internalType": "uint8",
          "name": "_type",
          "type": "uint8"
        },
        {
          "internalType": "string",
          "name": "_tokenURI",
          "type": "string"
        }
      ],
      "name": "setConsumableTokenURI",
      "outputs": [],
      "stateMutability": "nonpayable",
      "type": "function"
    },
    {
      "inputs": [
        {
          "internalType": "uint8",
          "name": "_type",
          "type": "uint8"
        },
        {
          "internalType": "address",
          "name": "_newAddress",
          "type": "address"
        }
      ],
      "name": "setConsumableResolversAddress",
      "outputs": [],
      "stateMutability": "nonpayable",
      "type": "function"
    },
    {
      "inputs": [
        {
          "internalType": "address",
          "name": "newAddress",
          "type": "address"
        }
      ],
      "name": "addMintPermittedAddress",
      "outputs": [],
      "stateMutability": "nonpayable",
      "type": "function"
    },
    {
      "inputs": [
        {
          "internalType": "address",
          "name": "newAddress",
          "type": "address"
        }
      ],
      "name": "removeMintPermittedAddress",
      "outputs": [],
      "stateMutability": "nonpayable",
      "type": "function"
    },
    {
      "inputs": [],
      "name": "getConsumables",
      "outputs": [
        {
          "components": [
            {
              "internalType": "uint256",
              "name": "id",
              "type": "uint256"
            },
            {
              "internalType": "uint8",
              "name": "percXPGain",
              "type": "uint8"
            },
            {
              "internalType": "uint8",
              "name": "maxXPGain",
              "type": "uint8"
            },
            {
              "internalType": "bool",
              "name": "generateArenaTicket",
              "type": "bool"
            },
            {
              "internalType": "bool",
              "name": "generateEquipment",
              "type": "bool"
            },
            {
              "internalType": "bool",
              "name": "generateMysteriousChest",
              "type": "bool"
            }
          ],
          "internalType": "struct SharedStructs.Consumable[]",
          "name": "",
          "type": "tuple[]"
        }
      ],
      "stateMutability": "view",
      "type": "function",
      "constant": true
    },
    {
      "inputs": [],
      "name": "getNextConsumableId",
      "outputs": [
        {
          "internalType": "uint256",
          "name": "",
          "type": "uint256"
        }
      ],
      "stateMutability": "view",
      "type": "function",
      "constant": true
    },
    {
      "inputs": [
        {
          "internalType": "address",
          "name": "owner",
          "type": "address"
        }
      ],
      "name": "mint",
      "outputs": [],
      "stateMutability": "nonpayable",
      "type": "function"
    },
    {
      "inputs": [
        {
          "internalType": "address",
          "name": "owner",
          "type": "address"
        }
      ],
      "name": "getConsumablesByAddress",
      "outputs": [
        {
          "components": [
            {
              "internalType": "uint256",
              "name": "id",
              "type": "uint256"
            },
            {
              "internalType": "uint8",
              "name": "percXPGain",
              "type": "uint8"
            },
            {
              "internalType": "uint8",
              "name": "maxXPGain",
              "type": "uint8"
            },
            {
              "internalType": "bool",
              "name": "generateArenaTicket",
              "type": "bool"
            },
            {
              "internalType": "bool",
              "name": "generateEquipment",
              "type": "bool"
            },
            {
              "internalType": "bool",
              "name": "generateMysteriousChest",
              "type": "bool"
            }
          ],
          "internalType": "struct SharedStructs.Consumable[]",
          "name": "",
          "type": "tuple[]"
        }
      ],
      "stateMutability": "view",
      "type": "function",
      "constant": true
    },
    {
      "inputs": [],
      "name": "getMyConsumables",
      "outputs": [
        {
          "components": [
            {
              "internalType": "uint256",
              "name": "id",
              "type": "uint256"
            },
            {
              "internalType": "uint8",
              "name": "percXPGain",
              "type": "uint8"
            },
            {
              "internalType": "uint8",
              "name": "maxXPGain",
              "type": "uint8"
            },
            {
              "internalType": "bool",
              "name": "generateArenaTicket",
              "type": "bool"
            },
            {
              "internalType": "bool",
              "name": "generateEquipment",
              "type": "bool"
            },
            {
              "internalType": "bool",
              "name": "generateMysteriousChest",
              "type": "bool"
            }
          ],
          "internalType": "struct SharedStructs.Consumable[]",
          "name": "",
          "type": "tuple[]"
        }
      ],
      "stateMutability": "view",
      "type": "function",
      "constant": true
    },
    {
      "inputs": [
        {
          "internalType": "uint256",
          "name": "_consumableId",
          "type": "uint256"
        }
      ],
      "name": "getConsumable",
      "outputs": [
        {
          "components": [
            {
              "internalType": "uint256",
              "name": "id",
              "type": "uint256"
            },
            {
              "internalType": "uint8",
              "name": "percXPGain",
              "type": "uint8"
            },
            {
              "internalType": "uint8",
              "name": "maxXPGain",
              "type": "uint8"
            },
            {
              "internalType": "bool",
              "name": "generateArenaTicket",
              "type": "bool"
            },
            {
              "internalType": "bool",
              "name": "generateEquipment",
              "type": "bool"
            },
            {
              "internalType": "bool",
              "name": "generateMysteriousChest",
              "type": "bool"
            }
          ],
          "internalType": "struct SharedStructs.Consumable",
          "name": "",
          "type": "tuple"
        }
      ],
      "stateMutability": "view",
      "type": "function",
      "constant": true
    },
    {
      "inputs": [
        {
          "internalType": "uint256",
          "name": "_token",
          "type": "uint256"
        },
        {
          "internalType": "uint256",
          "name": "_consumableId",
          "type": "uint256"
        }
      ],
      "name": "consume",
      "outputs": [],
      "stateMutability": "nonpayable",
      "type": "function"
    },
    {
      "inputs": [
        {
          "internalType": "uint256",
          "name": "tokenId",
          "type": "uint256"
        }
      ],
      "name": "tokenURI",
      "outputs": [
        {
          "internalType": "string",
          "name": "",
          "type": "string"
        }
      ],
      "stateMutability": "view",
      "type": "function",
      "constant": true
    }
  ],
  "bytecode": "0x60806040523480156200001157600080fd5b50604051620054ee380380620054ee8339818101604052810190620000379190620003ca565b82828160009080519060200190620000519291906200017d565b5080600190805190602001906200006a9291906200017d565b5050506200008d62000081620000af60201b60201c565b620000b760201b60201c565b80600d9080519060200190620000a59291906200017d565b50505050620004e8565b600033905090565b6000600760009054906101000a900473ffffffffffffffffffffffffffffffffffffffff16905081600760006101000a81548173ffffffffffffffffffffffffffffffffffffffff021916908373ffffffffffffffffffffffffffffffffffffffff1602179055508173ffffffffffffffffffffffffffffffffffffffff168173ffffffffffffffffffffffffffffffffffffffff167f8be0079c531659141344cd1fd0a4f28419497f9722a3daafe3b4186f6b6457e060405160405180910390a35050565b8280546200018b90620004b2565b90600052602060002090601f016020900481019282620001af5760008555620001fb565b82601f10620001ca57805160ff1916838001178555620001fb565b82800160010185558215620001fb579182015b82811115620001fa578251825591602001919060010190620001dd565b5b5090506200020a91906200020e565b5090565b5b80821115620002295760008160009055506001016200020f565b5090565b6000604051905090565b600080fd5b600080fd5b600080fd5b600080fd5b6000601f19601f8301169050919050565b7f4e487b7100000000000000000000000000000000000000000000000000000000600052604160045260246000fd5b62000296826200024b565b810181811067ffffffffffffffff82111715620002b857620002b76200025c565b5b80604052505050565b6000620002cd6200022d565b9050620002db82826200028b565b919050565b600067ffffffffffffffff821115620002fe57620002fd6200025c565b5b62000309826200024b565b9050602081019050919050565b60005b838110156200033657808201518184015260208101905062000319565b8381111562000346576000848401525b50505050565b6000620003636200035d84620002e0565b620002c1565b90508281526020810184848401111562000382576200038162000246565b5b6200038f84828562000316565b509392505050565b600082601f830112620003af57620003ae62000241565b5b8151620003c18482602086016200034c565b91505092915050565b600080600060608486031215620003e657620003e562000237565b5b600084015167ffffffffffffffff8111156200040757620004066200023c565b5b620004158682870162000397565b935050602084015167ffffffffffffffff8111156200043957620004386200023c565b5b620004478682870162000397565b925050604084015167ffffffffffffffff8111156200046b576200046a6200023c565b5b620004798682870162000397565b9150509250925092565b7f4e487b7100000000000000000000000000000000000000000000000000000000600052602260045260246000fd5b60006002820490506001821680620004cb57607f821691505b60208210811415620004e257620004e162000483565b5b50919050565b614ff680620004f86000396000f3fe608060405234801561001057600080fd5b50600436106101a95760003560e01c806370a08231116100f9578063c87b56dd11610097578063e985e9c511610071578063e985e9c5146104b8578063f2fde38b146104e8578063f9dabbb014610504578063fe4737d714610520576101a9565b8063c87b56dd1461043c578063d4df8f681461046c578063dc7b5e0a14610488576101a9565b80638da5cb5b116100d35780638da5cb5b146103c857806395d89b41146103e6578063a22cb46514610404578063b88d4fde14610420576101a9565b806370a0823114610370578063715018a6146103a05780638c04e6a1146103aa576101a9565b80631bc6c0e8116101665780634a55385c116101405780634a55385c146102d85780634eeea7ad146103085780636352211e146103245780636a62784214610354576101a9565b80631bc6c0e81461028257806323b872dd146102a057806342842e0e146102bc576101a9565b806301ffc9a7146101ae57806304ed63e6146101de57806306fdde03146101fc578063081812fc1461021a578063095ea7b31461024a5780630e0f273214610266575b600080fd5b6101c860048036038101906101c3919061359f565b61053c565b6040516101d591906135e7565b60405180910390f35b6101e661061e565b6040516101f39190613770565b60405180910390f35b61020461062e565b604051610211919061382b565b60405180910390f35b610234600480360381019061022f9190613879565b6106c0565b60405161024191906138e7565b60405180910390f35b610264600480360381019061025f919061392e565b610745565b005b610280600480360381019061027b919061399a565b61085d565b005b61028a610935565b60405161029791906139e9565b60405180910390f35b6102ba60048036038101906102b59190613a04565b610946565b005b6102d660048036038101906102d19190613a04565b6109a6565b005b6102f260048036038101906102ed9190613a57565b6109c6565b6040516102ff9190613770565b60405180910390f35b610322600480360381019061031d9190613a84565b610c1a565b005b61033e60048036038101906103399190613879565b610ecf565b60405161034b91906138e7565b60405180910390f35b61036e60048036038101906103699190613a57565b610f81565b005b61038a60048036038101906103859190613a57565b61170a565b60405161039791906139e9565b60405180910390f35b6103a86117c2565b005b6103b261184a565b6040516103bf9190613770565b60405180910390f35b6103d061193e565b6040516103dd91906138e7565b60405180910390f35b6103ee611968565b6040516103fb919061382b565b60405180910390f35b61041e60048036038101906104199190613af0565b6119fa565b005b61043a60048036038101906104359190613c65565b611b7b565b005b61045660048036038101906104519190613879565b611bdd565b604051610463919061382b565b60405180910390f35b61048660048036038101906104819190613d89565b611c11565b005b6104a2600480360381019061049d9190613879565b611cbf565b6040516104af9190613e60565b60405180910390f35b6104d260048036038101906104cd9190613e7b565b611cd7565b6040516104df91906135e7565b60405180910390f35b61050260048036038101906104fd9190613a57565b611d6b565b005b61051e60048036038101906105199190613a57565b611e63565b005b61053a60048036038101906105359190613a57565b611f3a565b005b60007f80ac58cd000000000000000000000000000000000000000000000000000000007bffffffffffffffffffffffffffffffffffffffffffffffffffffffff1916827bffffffffffffffffffffffffffffffffffffffffffffffffffffffff1916148061060757507f5b5e139f000000000000000000000000000000000000000000000000000000007bffffffffffffffffffffffffffffffffffffffffffffffffffffffff1916827bffffffffffffffffffffffffffffffffffffffffffffffffffffffff1916145b80610617575061061682612008565b5b9050919050565b6060610629336109c6565b905090565b60606000805461063d90613eea565b80601f016020809104026020016040519081016040528092919081815260200182805461066990613eea565b80156106b65780601f1061068b576101008083540402835291602001916106b6565b820191906000526020600020905b81548152906001019060200180831161069957829003601f168201915b5050505050905090565b60006106cb82612072565b61070a576040517f08c379a000000000000000000000000000000000000000000000000000000000815260040161070190613f8e565b60405180910390fd5b6004600083815260200190815260200160002060009054906101000a900473ffffffffffffffffffffffffffffffffffffffff169050919050565b600061075082610ecf565b90508073ffffffffffffffffffffffffffffffffffffffff168373ffffffffffffffffffffffffffffffffffffffff1614156107c1576040517f08c379a00000000000000000000000000000000000000000000000000000000081526004016107b890614020565b60405180910390fd5b8073ffffffffffffffffffffffffffffffffffffffff166107e06120de565b73ffffffffffffffffffffffffffffffffffffffff16148061080f575061080e816108096120de565b611cd7565b5b61084e576040517f08c379a0000000000000000000000000000000000000000000000000000000008152600401610845906140b2565b60405180910390fd5b61085883836120e6565b505050565b6108656120de565b73ffffffffffffffffffffffffffffffffffffffff1661088361193e565b73ffffffffffffffffffffffffffffffffffffffff16146108d9576040517f08c379a00000000000000000000000000000000000000000000000000000000081526004016108d09061411e565b60405180910390fd5b80600960008460ff1660ff16815260200190815260200160002060006101000a81548173ffffffffffffffffffffffffffffffffffffffff021916908373ffffffffffffffffffffffffffffffffffffffff1602179055505050565b6000610941600b61219f565b905090565b6109576109516120de565b826121ad565b610996576040517f08c379a000000000000000000000000000000000000000000000000000000000815260040161098d906141b0565b60405180910390fd5b6109a183838361228b565b505050565b6109c183838360405180602001604052806000815250611b7b565b505050565b606060006109d38361170a565b90506000811415610a3b57600067ffffffffffffffff8111156109f9576109f8613b3a565b5b604051908082528060200260200182016040528015610a3257816020015b610a1f61340e565b815260200190600190039081610a175790505b50915050610c15565b60008167ffffffffffffffff811115610a5757610a56613b3a565b5b604051908082528060200260200182016040528015610a9057816020015b610a7d61340e565b815260200190600190039081610a755790505b50905060008060009050600091505b600c80549050821015610c0d578573ffffffffffffffffffffffffffffffffffffffff16610af1600c8481548110610ada57610ad96141d0565b5b906000526020600020906002020160000154610ecf565b73ffffffffffffffffffffffffffffffffffffffff161415610bfa57600c8281548110610b2157610b206141d0565b5b90600052602060002090600202016040518060c0016040529081600082015481526020016001820160009054906101000a900460ff1660ff1660ff1681526020016001820160019054906101000a900460ff1660ff1660ff1681526020016001820160029054906101000a900460ff161515151581526020016001820160039054906101000a900460ff161515151581526020016001820160049054906101000a900460ff161515151581525050838280610bdb9061422e565b935081518110610bee57610bed6141d0565b5b60200260200101819052505b8180610c059061422e565b925050610a9f565b829450505050505b919050565b610c2381610ecf565b73ffffffffffffffffffffffffffffffffffffffff163373ffffffffffffffffffffffffffffffffffffffff1614610c90576040517f08c379a0000000000000000000000000000000000000000000000000000000008152600401610c87906142c3565b60405180910390fd5b6000610c9b826124e7565b90506000600a826040015160ff16148015610cbd5750600a826020015160ff16145b15610ccb5760009050610d30565b6064826040015160ff16148015610ce957506032826020015160ff16145b15610cf75760019050610d2f565b816060015115610d0a5760029050610d2e565b816080015115610d1d5760039050610d2d565b8160a0015115610d2c57600490505b5b5b5b5b600073ffffffffffffffffffffffffffffffffffffffff16600960008360ff1660ff16815260200190815260200160002060009054906101000a900473ffffffffffffffffffffffffffffffffffffffff1673ffffffffffffffffffffffffffffffffffffffff161415610dd9576040517f08c379a0000000000000000000000000000000000000000000000000000000008152600401610dd09061432f565b60405180910390fd5b600960008260ff1660ff16815260200190815260200160002060009054906101000a900473ffffffffffffffffffffffffffffffffffffffff1673ffffffffffffffffffffffffffffffffffffffff1663b427489a85846040518363ffffffff1660e01b8152600401610e4d92919061434f565b600060405180830381600087803b158015610e6757600080fd5b505af1158015610e7b573d6000803e3d6000fd5b50505050610e8883612610565b610e918361280e565b827fd49fca5afae7faa81ff67b631d127a9f68feaa41f46dfe18ee1eeecdb4ae73d982604051610ec19190614387565b60405180910390a250505050565b6000806002600084815260200190815260200160002060009054906101000a900473ffffffffffffffffffffffffffffffffffffffff169050600073ffffffffffffffffffffffffffffffffffffffff168173ffffffffffffffffffffffffffffffffffffffff161415610f78576040517f08c379a0000000000000000000000000000000000000000000000000000000008152600401610f6f90614414565b60405180910390fd5b80915050919050565b60086000610f8d6120de565b73ffffffffffffffffffffffffffffffffffffffff1673ffffffffffffffffffffffffffffffffffffffff16815260200190815260200160002060009054906101000a900460ff16611014576040517f08c379a000000000000000000000000000000000000000000000000000000000815260040161100b906144a6565b60405180910390fd5b6000611020600b61219f565b905060006001611032836103e8612861565b61103c91906144c6565b905060006102ef821161170457611053848461297d565b61105d600b61299b565b6101f4821161118657600c6040518060c00160405280858152602001600a60ff168152602001600a60ff1681526020016000151581526020016000151581526020016000151581525090806001815401808255809150506001900390600052602060002090600202016000909190919091506000820151816000015560208201518160010160006101000a81548160ff021916908360ff16021790555060408201518160010160016101000a81548160ff021916908360ff16021790555060608201518160010160026101000a81548160ff02191690831515021790555060808201518160010160036101000a81548160ff02191690831515021790555060a08201518160010160046101000a81548160ff021916908315150217905550505060009050611620565b61025882116112af57600c6040518060c00160405280858152602001600060ff168152602001600060ff1681526020016001151581526020016000151581526020016000151581525090806001815401808255809150506001900390600052602060002090600202016000909190919091506000820151816000015560208201518160010160006101000a81548160ff021916908360ff16021790555060408201518160010160016101000a81548160ff021916908360ff16021790555060608201518160010160026101000a81548160ff02191690831515021790555060808201518160010160036101000a81548160ff02191690831515021790555060a08201518160010160046101000a81548160ff02191690831515021790555050506002905061161f565b6102bc82116113d857600c6040518060c00160405280858152602001600060ff168152602001600060ff1681526020016000151581526020016001151581526020016000151581525090806001815401808255809150506001900390600052602060002090600202016000909190919091506000820151816000015560208201518160010160006101000a81548160ff021916908360ff16021790555060408201518160010160016101000a81548160ff021916908360ff16021790555060608201518160010160026101000a81548160ff02191690831515021790555060808201518160010160036101000a81548160ff02191690831515021790555060a08201518160010160046101000a81548160ff02191690831515021790555050506003905061161e565b6102ee821161150157600c6040518060c00160405280858152602001603260ff168152602001606460ff1681526020016000151581526020016000151581526020016000151581525090806001815401808255809150506001900390600052602060002090600202016000909190919091506000820151816000015560208201518160010160006101000a81548160ff021916908360ff16021790555060408201518160010160016101000a81548160ff021916908360ff16021790555060608201518160010160026101000a81548160ff02191690831515021790555060808201518160010160036101000a81548160ff02191690831515021790555060a08201518160010160046101000a81548160ff02191690831515021790555050506001905061161d565b600c6040518060c00160405280858152602001600060ff168152602001600060ff1681526020016000151581526020016000151581526020016001151581525090806001815401808255809150506001900390600052602060002090600202016000909190919091506000820151816000015560208201518160010160006101000a81548160ff021916908360ff16021790555060408201518160010160016101000a81548160ff021916908360ff16021790555060608201518160010160026101000a81548160ff02191690831515021790555060808201518160010160036101000a81548160ff02191690831515021790555060a08201518160010160046101000a81548160ff0219169083151502179055505050600490505b5b5b5b6116cb83600a60008460ff1660ff168152602001908152602001600020805461164890613eea565b80601f016020809104026020016040519081016040528092919081815260200182805461167490613eea565b80156116c15780601f10611696576101008083540402835291602001916116c1565b820191906000526020600020905b8154815290600101906020018083116116a457829003601f168201915b50505050506129b1565b827f8efa5d1420311de3bdb10dd98949d1e432f54b167842edcb82a216fa69e66b55826040516116fb9190614387565b60405180910390a25b50505050565b60008073ffffffffffffffffffffffffffffffffffffffff168273ffffffffffffffffffffffffffffffffffffffff16141561177b576040517f08c379a00000000000000000000000000000000000000000000000000000000081526004016117729061458e565b60405180910390fd5b600360008373ffffffffffffffffffffffffffffffffffffffff1673ffffffffffffffffffffffffffffffffffffffff168152602001908152602001600020549050919050565b6117ca6120de565b73ffffffffffffffffffffffffffffffffffffffff166117e861193e565b73ffffffffffffffffffffffffffffffffffffffff161461183e576040517f08c379a00000000000000000000000000000000000000000000000000000000081526004016118359061411e565b60405180910390fd5b6118486000612a25565b565b6060600c805480602002602001604051908101604052809291908181526020016000905b8282101561193557838290600052602060002090600202016040518060c0016040529081600082015481526020016001820160009054906101000a900460ff1660ff1660ff1681526020016001820160019054906101000a900460ff1660ff1660ff1681526020016001820160029054906101000a900460ff161515151581526020016001820160039054906101000a900460ff161515151581526020016001820160049054906101000a900460ff1615151515815250508152602001906001019061186e565b50505050905090565b6000600760009054906101000a900473ffffffffffffffffffffffffffffffffffffffff16905090565b60606001805461197790613eea565b80601f01602080910402602001604051908101604052809291908181526020018280546119a390613eea565b80156119f05780601f106119c5576101008083540402835291602001916119f0565b820191906000526020600020905b8154815290600101906020018083116119d357829003601f168201915b5050505050905090565b611a026120de565b73ffffffffffffffffffffffffffffffffffffffff168273ffffffffffffffffffffffffffffffffffffffff161415611a70576040517f08c379a0000000000000000000000000000000000000000000000000000000008152600401611a67906145fa565b60405180910390fd5b8060056000611a7d6120de565b73ffffffffffffffffffffffffffffffffffffffff1673ffffffffffffffffffffffffffffffffffffffff16815260200190815260200160002060008473ffffffffffffffffffffffffffffffffffffffff1673ffffffffffffffffffffffffffffffffffffffff16815260200190815260200160002060006101000a81548160ff0219169083151502179055508173ffffffffffffffffffffffffffffffffffffffff16611b2a6120de565b73ffffffffffffffffffffffffffffffffffffffff167f17307eab39ab6107e8899845ad3d59bd9653f200f220920489ca2b5937696c3183604051611b6f91906135e7565b60405180910390a35050565b611b8c611b866120de565b836121ad565b611bcb576040517f08c379a0000000000000000000000000000000000000000000000000000000008152600401611bc2906141b0565b60405180910390fd5b611bd784848484612aeb565b50505050565b6060600d611bea83612b47565b604051602001611bfb9291906146ea565b6040516020818303038152906040529050919050565b611c196120de565b73ffffffffffffffffffffffffffffffffffffffff16611c3761193e565b73ffffffffffffffffffffffffffffffffffffffff1614611c8d576040517f08c379a0000000000000000000000000000000000000000000000000000000008152600401611c849061411e565b60405180910390fd5b80600a60008460ff1660ff1681526020019081526020016000209080519060200190611cba929190613450565b505050565b611cc761340e565b611cd0826124e7565b9050919050565b6000600560008473ffffffffffffffffffffffffffffffffffffffff1673ffffffffffffffffffffffffffffffffffffffff16815260200190815260200160002060008373ffffffffffffffffffffffffffffffffffffffff1673ffffffffffffffffffffffffffffffffffffffff16815260200190815260200160002060009054906101000a900460ff16905092915050565b611d736120de565b73ffffffffffffffffffffffffffffffffffffffff16611d9161193e565b73ffffffffffffffffffffffffffffffffffffffff1614611de7576040517f08c379a0000000000000000000000000000000000000000000000000000000008152600401611dde9061411e565b60405180910390fd5b600073ffffffffffffffffffffffffffffffffffffffff168173ffffffffffffffffffffffffffffffffffffffff161415611e57576040517f08c379a0000000000000000000000000000000000000000000000000000000008152600401611e4e90614780565b60405180910390fd5b611e6081612a25565b50565b611e6b6120de565b73ffffffffffffffffffffffffffffffffffffffff16611e8961193e565b73ffffffffffffffffffffffffffffffffffffffff1614611edf576040517f08c379a0000000000000000000000000000000000000000000000000000000008152600401611ed69061411e565b60405180910390fd5b6001600860008373ffffffffffffffffffffffffffffffffffffffff1673ffffffffffffffffffffffffffffffffffffffff16815260200190815260200160002060006101000a81548160ff02191690831515021790555050565b611f426120de565b73ffffffffffffffffffffffffffffffffffffffff16611f6061193e565b73ffffffffffffffffffffffffffffffffffffffff1614611fb6576040517f08c379a0000000000000000000000000000000000000000000000000000000008152600401611fad9061411e565b60405180910390fd5b600860008273ffffffffffffffffffffffffffffffffffffffff1673ffffffffffffffffffffffffffffffffffffffff16815260200190815260200160002060006101000a81549060ff021916905550565b60007f01ffc9a7000000000000000000000000000000000000000000000000000000007bffffffffffffffffffffffffffffffffffffffffffffffffffffffff1916827bffffffffffffffffffffffffffffffffffffffffffffffffffffffff1916149050919050565b60008073ffffffffffffffffffffffffffffffffffffffff166002600084815260200190815260200160002060009054906101000a900473ffffffffffffffffffffffffffffffffffffffff1673ffffffffffffffffffffffffffffffffffffffff1614159050919050565b600033905090565b816004600083815260200190815260200160002060006101000a81548173ffffffffffffffffffffffffffffffffffffffff021916908373ffffffffffffffffffffffffffffffffffffffff160217905550808273ffffffffffffffffffffffffffffffffffffffff1661215983610ecf565b73ffffffffffffffffffffffffffffffffffffffff167f8c5be1e5ebec7d5bd14f71427d1e84f3dd0314c0f7b2291e5b200ac8c7c3b92560405160405180910390a45050565b600081600001549050919050565b60006121b882612072565b6121f7576040517f08c379a00000000000000000000000000000000000000000000000000000000081526004016121ee90614812565b60405180910390fd5b600061220283610ecf565b90508073ffffffffffffffffffffffffffffffffffffffff168473ffffffffffffffffffffffffffffffffffffffff16148061227157508373ffffffffffffffffffffffffffffffffffffffff16612259846106c0565b73ffffffffffffffffffffffffffffffffffffffff16145b8061228257506122818185611cd7565b5b91505092915050565b8273ffffffffffffffffffffffffffffffffffffffff166122ab82610ecf565b73ffffffffffffffffffffffffffffffffffffffff1614612301576040517f08c379a00000000000000000000000000000000000000000000000000000000081526004016122f8906148a4565b60405180910390fd5b600073ffffffffffffffffffffffffffffffffffffffff168273ffffffffffffffffffffffffffffffffffffffff161415612371576040517f08c379a000000000000000000000000000000000000000000000000000000000815260040161236890614936565b60405180910390fd5b61237c838383612c99565b6123876000826120e6565b6001600360008573ffffffffffffffffffffffffffffffffffffffff1673ffffffffffffffffffffffffffffffffffffffff16815260200190815260200160002060008282546123d79190614956565b925050819055506001600360008473ffffffffffffffffffffffffffffffffffffffff1673ffffffffffffffffffffffffffffffffffffffff168152602001908152602001600020600082825461242e91906144c6565b92505081905550816002600083815260200190815260200160002060006101000a81548173ffffffffffffffffffffffffffffffffffffffff021916908373ffffffffffffffffffffffffffffffffffffffff160217905550808273ffffffffffffffffffffffffffffffffffffffff168473ffffffffffffffffffffffffffffffffffffffff167fddf252ad1be2c89b69c2b068fc378daa952ba7f163c4a11628f55a4df523b3ef60405160405180910390a4505050565b6124ef61340e565b60005b600c805490508110156126095782600c8281548110612514576125136141d0565b5b90600052602060002090600202016000015414156125f657600c81815481106125405761253f6141d0565b5b90600052602060002090600202016040518060c0016040529081600082015481526020016001820160009054906101000a900460ff1660ff1660ff1681526020016001820160019054906101000a900460ff1660ff1660ff1681526020016001820160029054906101000a900460ff161515151581526020016001820160039054906101000a900460ff161515151581526020016001820160049054906101000a900460ff16151515158152505091505061260b565b80806126019061422e565b9150506124f2565b505b919050565b600061261b82612c9e565b9050600c80549050811061262e57600080fd5b600c6001600c805490506126429190614956565b81548110612653576126526141d0565b5b9060005260206000209060020201600c8281548110612675576126746141d0565b5b9060005260206000209060020201600082015481600001556001820160009054906101000a900460ff168160010160006101000a81548160ff021916908360ff1602179055506001820160019054906101000a900460ff168160010160016101000a81548160ff021916908360ff1602179055506001820160029054906101000a900460ff168160010160026101000a81548160ff0219169083151502179055506001820160039054906101000a900460ff168160010160036101000a81548160ff0219169083151502179055506001820160049054906101000a900460ff168160010160046101000a81548160ff021916908315150217905550905050600c8054806127855761278461498a565b5b60019003818190600052602060002090600202016000808201600090556001820160006101000a81549060ff02191690556001820160016101000a81549060ff02191690556001820160026101000a81549060ff02191690556001820160036101000a81549060ff02191690556001820160046101000a81549060ff0219169055505090555050565b61281781612d0b565b600060066000838152602001908152602001600020805461283790613eea565b90501461285e5760066000828152602001908152602001600020600061285d91906134d6565b5b50565b6000804342336040516020016128779190614a01565b6040516020818303038152906040528051906020012060001c61289a9190614a4b565b4542416040516020016128ad9190614ab7565b6040516020818303038152906040528051906020012060001c6128d09190614a4b565b8744426128dd91906144c6565b6128e791906144c6565b6128f191906144c6565b6128fb91906144c6565b61290591906144c6565b61290f91906144c6565b60405160200161291f9190614af3565b6040516020818303038152906040528051906020012060001c905060018361294791906144c6565b60018461295491906144c6565b8261295f9190614a4b565b6129699190614b0e565b816129749190614956565b91505092915050565b612997828260405180602001604052806000815250612e1c565b5050565b6001816000016000828254019250508190555050565b6129ba82612072565b6129f9576040517f08c379a00000000000000000000000000000000000000000000000000000000081526004016129f090614bda565b60405180910390fd5b80600660008481526020019081526020016000209080519060200190612a20929190613450565b505050565b6000600760009054906101000a900473ffffffffffffffffffffffffffffffffffffffff16905081600760006101000a81548173ffffffffffffffffffffffffffffffffffffffff021916908373ffffffffffffffffffffffffffffffffffffffff1602179055508173ffffffffffffffffffffffffffffffffffffffff168173ffffffffffffffffffffffffffffffffffffffff167f8be0079c531659141344cd1fd0a4f28419497f9722a3daafe3b4186f6b6457e060405160405180910390a35050565b612af684848461228b565b612b0284848484612e77565b612b41576040517f08c379a0000000000000000000000000000000000000000000000000000000008152600401612b3890614c6c565b60405180910390fd5b50505050565b6060612b5282612072565b612b91576040517f08c379a0000000000000000000000000000000000000000000000000000000008152600401612b8890614cfe565b60405180910390fd5b6000600660008481526020019081526020016000208054612bb190613eea565b80601f0160208091040260200160405190810160405280929190818152602001828054612bdd90613eea565b8015612c2a5780601f10612bff57610100808354040283529160200191612c2a565b820191906000526020600020905b815481529060010190602001808311612c0d57829003601f168201915b505050505090506000612c3b61300e565b9050600081511415612c51578192505050612c94565b600082511115612c86578082604051602001612c6e929190614d1e565b60405160208183030381529060405292505050612c94565b612c8f84613025565b925050505b919050565b505050565b600080600090505b600c80549050811015612cfc57600c8181548110612cc757612cc66141d0565b5b906000526020600020906002020160000154831415612ce95780915050612d06565b8080612cf49061422e565b915050612ca6565b50600c8054905090505b919050565b6000612d1682610ecf565b9050612d2481600084612c99565b612d2f6000836120e6565b6001600360008373ffffffffffffffffffffffffffffffffffffffff1673ffffffffffffffffffffffffffffffffffffffff1681526020019081526020016000206000828254612d7f9190614956565b925050819055506002600083815260200190815260200160002060006101000a81549073ffffffffffffffffffffffffffffffffffffffff021916905581600073ffffffffffffffffffffffffffffffffffffffff168273ffffffffffffffffffffffffffffffffffffffff167fddf252ad1be2c89b69c2b068fc378daa952ba7f163c4a11628f55a4df523b3ef60405160405180910390a45050565b612e2683836130cc565b612e336000848484612e77565b612e72576040517f08c379a0000000000000000000000000000000000000000000000000000000008152600401612e6990614c6c565b60405180910390fd5b505050565b6000612e988473ffffffffffffffffffffffffffffffffffffffff1661329a565b15613001578373ffffffffffffffffffffffffffffffffffffffff1663150b7a02612ec16120de565b8786866040518563ffffffff1660e01b8152600401612ee39493929190614d97565b602060405180830381600087803b158015612efd57600080fd5b505af1925050508015612f2e57506040513d601f19601f82011682018060405250810190612f2b9190614df8565b60015b612fb1573d8060008114612f5e576040519150601f19603f3d011682016040523d82523d6000602084013e612f63565b606091505b50600081511415612fa9576040517f08c379a0000000000000000000000000000000000000000000000000000000008152600401612fa090614c6c565b60405180910390fd5b805181602001fd5b63150b7a0260e01b7bffffffffffffffffffffffffffffffffffffffffffffffffffffffff1916817bffffffffffffffffffffffffffffffffffffffffffffffffffffffff191614915050613006565b600190505b949350505050565b606060405180602001604052806000815250905090565b606061303082612072565b61306f576040517f08c379a000000000000000000000000000000000000000000000000000000000815260040161306690614e97565b60405180910390fd5b600061307961300e565b9050600081511161309957604051806020016040528060008152506130c4565b806130a3846132ad565b6040516020016130b4929190614d1e565b6040516020818303038152906040525b915050919050565b600073ffffffffffffffffffffffffffffffffffffffff168273ffffffffffffffffffffffffffffffffffffffff16141561313c576040517f08c379a000000000000000000000000000000000000000000000000000000000815260040161313390614f03565b60405180910390fd5b61314581612072565b15613185576040517f08c379a000000000000000000000000000000000000000000000000000000000815260040161317c90614f6f565b60405180910390fd5b61319160008383612c99565b6001600360008473ffffffffffffffffffffffffffffffffffffffff1673ffffffffffffffffffffffffffffffffffffffff16815260200190815260200160002060008282546131e191906144c6565b92505081905550816002600083815260200190815260200160002060006101000a81548173ffffffffffffffffffffffffffffffffffffffff021916908373ffffffffffffffffffffffffffffffffffffffff160217905550808273ffffffffffffffffffffffffffffffffffffffff16600073ffffffffffffffffffffffffffffffffffffffff167fddf252ad1be2c89b69c2b068fc378daa952ba7f163c4a11628f55a4df523b3ef60405160405180910390a45050565b600080823b905060008111915050919050565b606060008214156132f5576040518060400160405280600181526020017f30000000000000000000000000000000000000000000000000000000000000008152509050613409565b600082905060005b600082146133275780806133109061422e565b915050600a826133209190614a4b565b91506132fd565b60008167ffffffffffffffff81111561334357613342613b3a565b5b6040519080825280601f01601f1916602001820160405280156133755781602001600182028036833780820191505090505b5090505b600085146134025760018261338e9190614956565b9150600a8561339d9190614f8f565b60306133a991906144c6565b60f81b8183815181106133bf576133be6141d0565b5b60200101907effffffffffffffffffffffffffffffffffffffffffffffffffffffffffffff1916908160001a905350600a856133fb9190614a4b565b9450613379565b8093505050505b919050565b6040518060c0016040528060008152602001600060ff168152602001600060ff1681526020016000151581526020016000151581526020016000151581525090565b82805461345c90613eea565b90600052602060002090601f01602090048101928261347e57600085556134c5565b82601f1061349757805160ff19168380011785556134c5565b828001600101855582156134c5579182015b828111156134c45782518255916020019190600101906134a9565b5b5090506134d29190613516565b5090565b5080546134e290613eea565b6000825580601f106134f45750613513565b601f0160209004906000526020600020908101906135129190613516565b5b50565b5b8082111561352f576000816000905550600101613517565b5090565b6000604051905090565b600080fd5b600080fd5b60007fffffffff0000000000000000000000000000000000000000000000000000000082169050919050565b61357c81613547565b811461358757600080fd5b50565b60008135905061359981613573565b92915050565b6000602082840312156135b5576135b461353d565b5b60006135c38482850161358a565b91505092915050565b60008115159050919050565b6135e1816135cc565b82525050565b60006020820190506135fc60008301846135d8565b92915050565b600081519050919050565b600082825260208201905092915050565b6000819050602082019050919050565b6000819050919050565b6136418161362e565b82525050565b600060ff82169050919050565b61365d81613647565b82525050565b61366c816135cc565b82525050565b60c0820160008201516136886000850182613638565b50602082015161369b6020850182613654565b5060408201516136ae6040850182613654565b5060608201516136c16060850182613663565b5060808201516136d46080850182613663565b5060a08201516136e760a0850182613663565b50505050565b60006136f98383613672565b60c08301905092915050565b6000602082019050919050565b600061371d82613602565b613727818561360d565b93506137328361361e565b8060005b8381101561376357815161374a88826136ed565b975061375583613705565b925050600181019050613736565b5085935050505092915050565b6000602082019050818103600083015261378a8184613712565b905092915050565b600081519050919050565b600082825260208201905092915050565b60005b838110156137cc5780820151818401526020810190506137b1565b838111156137db576000848401525b50505050565b6000601f19601f8301169050919050565b60006137fd82613792565b613807818561379d565b93506138178185602086016137ae565b613820816137e1565b840191505092915050565b6000602082019050818103600083015261384581846137f2565b905092915050565b6138568161362e565b811461386157600080fd5b50565b6000813590506138738161384d565b92915050565b60006020828403121561388f5761388e61353d565b5b600061389d84828501613864565b91505092915050565b600073ffffffffffffffffffffffffffffffffffffffff82169050919050565b60006138d1826138a6565b9050919050565b6138e1816138c6565b82525050565b60006020820190506138fc60008301846138d8565b92915050565b61390b816138c6565b811461391657600080fd5b50565b60008135905061392881613902565b92915050565b600080604083850312156139455761394461353d565b5b600061395385828601613919565b925050602061396485828601613864565b9150509250929050565b61397781613647565b811461398257600080fd5b50565b6000813590506139948161396e565b92915050565b600080604083850312156139b1576139b061353d565b5b60006139bf85828601613985565b92505060206139d085828601613919565b9150509250929050565b6139e38161362e565b82525050565b60006020820190506139fe60008301846139da565b92915050565b600080600060608486031215613a1d57613a1c61353d565b5b6000613a2b86828701613919565b9350506020613a3c86828701613919565b9250506040613a4d86828701613864565b9150509250925092565b600060208284031215613a6d57613a6c61353d565b5b6000613a7b84828501613919565b91505092915050565b60008060408385031215613a9b57613a9a61353d565b5b6000613aa985828601613864565b9250506020613aba85828601613864565b9150509250929050565b613acd816135cc565b8114613ad857600080fd5b50565b600081359050613aea81613ac4565b92915050565b60008060408385031215613b0757613b0661353d565b5b6000613b1585828601613919565b9250506020613b2685828601613adb565b9150509250929050565b600080fd5b600080fd5b7f4e487b7100000000000000000000000000000000000000000000000000000000600052604160045260246000fd5b613b72826137e1565b810181811067ffffffffffffffff82111715613b9157613b90613b3a565b5b80604052505050565b6000613ba4613533565b9050613bb08282613b69565b919050565b600067ffffffffffffffff821115613bd057613bcf613b3a565b5b613bd9826137e1565b9050602081019050919050565b82818337600083830152505050565b6000613c08613c0384613bb5565b613b9a565b905082815260208101848484011115613c2457613c23613b35565b5b613c2f848285613be6565b509392505050565b600082601f830112613c4c57613c4b613b30565b5b8135613c5c848260208601613bf5565b91505092915050565b60008060008060808587031215613c7f57613c7e61353d565b5b6000613c8d87828801613919565b9450506020613c9e87828801613919565b9350506040613caf87828801613864565b925050606085013567ffffffffffffffff811115613cd057613ccf613542565b5b613cdc87828801613c37565b91505092959194509250565b600067ffffffffffffffff821115613d0357613d02613b3a565b5b613d0c826137e1565b9050602081019050919050565b6000613d2c613d2784613ce8565b613b9a565b905082815260208101848484011115613d4857613d47613b35565b5b613d53848285613be6565b509392505050565b600082601f830112613d7057613d6f613b30565b5b8135613d80848260208601613d19565b91505092915050565b60008060408385031215613da057613d9f61353d565b5b6000613dae85828601613985565b925050602083013567ffffffffffffffff811115613dcf57613dce613542565b5b613ddb85828601613d5b565b9150509250929050565b60c082016000820151613dfb6000850182613638565b506020820151613e0e6020850182613654565b506040820151613e216040850182613654565b506060820151613e346060850182613663565b506080820151613e476080850182613663565b5060a0820151613e5a60a0850182613663565b50505050565b600060c082019050613e756000830184613de5565b92915050565b60008060408385031215613e9257613e9161353d565b5b6000613ea085828601613919565b9250506020613eb185828601613919565b9150509250929050565b7f4e487b7100000000000000000000000000000000000000000000000000000000600052602260045260246000fd5b60006002820490506001821680613f0257607f821691505b60208210811415613f1657613f15613ebb565b5b50919050565b7f4552433732313a20617070726f76656420717565727920666f72206e6f6e657860008201527f697374656e7420746f6b656e0000000000000000000000000000000000000000602082015250565b6000613f78602c8361379d565b9150613f8382613f1c565b604082019050919050565b60006020820190508181036000830152613fa781613f6b565b9050919050565b7f4552433732313a20617070726f76616c20746f2063757272656e74206f776e6560008201527f7200000000000000000000000000000000000000000000000000000000000000602082015250565b600061400a60218361379d565b915061401582613fae565b604082019050919050565b6000602082019050818103600083015261403981613ffd565b9050919050565b7f4552433732313a20617070726f76652063616c6c6572206973206e6f74206f7760008201527f6e6572206e6f7220617070726f76656420666f7220616c6c0000000000000000602082015250565b600061409c60388361379d565b91506140a782614040565b604082019050919050565b600060208201905081810360008301526140cb8161408f565b9050919050565b7f4f776e61626c653a2063616c6c6572206973206e6f7420746865206f776e6572600082015250565b600061410860208361379d565b9150614113826140d2565b602082019050919050565b60006020820190508181036000830152614137816140fb565b9050919050565b7f4552433732313a207472616e736665722063616c6c6572206973206e6f74206f60008201527f776e6572206e6f7220617070726f766564000000000000000000000000000000602082015250565b600061419a60318361379d565b91506141a58261413e565b604082019050919050565b600060208201905081810360008301526141c98161418d565b9050919050565b7f4e487b7100000000000000000000000000000000000000000000000000000000600052603260045260246000fd5b7f4e487b7100000000000000000000000000000000000000000000000000000000600052601160045260246000fd5b60006142398261362e565b91507fffffffffffffffffffffffffffffffffffffffffffffffffffffffffffffffff82141561426c5761426b6141ff565b5b600182019050919050565b7f4e6f74206f776e65720000000000000000000000000000000000000000000000600082015250565b60006142ad60098361379d565b91506142b882614277565b602082019050919050565b600060208201905081810360008301526142dc816142a0565b9050919050565b7f436f6e73756d61626c65207265736f6c766572206e6f7420646566696e656400600082015250565b6000614319601f8361379d565b9150614324826142e3565b602082019050919050565b600060208201905081810360008301526143488161430c565b9050919050565b600060e08201905061436460008301856139da565b6143716020830184613de5565b9392505050565b61438181613647565b82525050565b600060208201905061439c6000830184614378565b92915050565b7f4552433732313a206f776e657220717565727920666f72206e6f6e657869737460008201527f656e7420746f6b656e0000000000000000000000000000000000000000000000602082015250565b60006143fe60298361379d565b9150614409826143a2565b604082019050919050565b6000602082019050818103600083015261442d816143f1565b9050919050565b7f4f6e6c79207065726d697474656420616464726573732063616e20657865637560008201527f7465207468697320616374696f6e000000000000000000000000000000000000602082015250565b6000614490602e8361379d565b915061449b82614434565b604082019050919050565b600060208201905081810360008301526144bf81614483565b9050919050565b60006144d18261362e565b91506144dc8361362e565b9250827fffffffffffffffffffffffffffffffffffffffffffffffffffffffffffffffff03821115614511576145106141ff565b5b828201905092915050565b7f4552433732313a2062616c616e636520717565727920666f7220746865207a6560008201527f726f206164647265737300000000000000000000000000000000000000000000602082015250565b6000614578602a8361379d565b91506145838261451c565b604082019050919050565b600060208201905081810360008301526145a78161456b565b9050919050565b7f4552433732313a20617070726f766520746f2063616c6c657200000000000000600082015250565b60006145e460198361379d565b91506145ef826145ae565b602082019050919050565b60006020820190508181036000830152614613816145d7565b9050919050565b600081905092915050565b60008190508160005260206000209050919050565b6000815461464781613eea565b614651818661461a565b9450600182166000811461466c576001811461467d576146b0565b60ff198316865281860193506146b0565b61468685614625565b60005b838110156146a857815481890152600182019150602081019050614689565b838801955050505b50505092915050565b60006146c482613792565b6146ce818561461a565b93506146de8185602086016137ae565b80840191505092915050565b60006146f6828561463a565b915061470282846146b9565b91508190509392505050565b7f4f776e61626c653a206e6577206f776e657220697320746865207a65726f206160008201527f6464726573730000000000000000000000000000000000000000000000000000602082015250565b600061476a60268361379d565b91506147758261470e565b604082019050919050565b600060208201905081810360008301526147998161475d565b9050919050565b7f4552433732313a206f70657261746f7220717565727920666f72206e6f6e657860008201527f697374656e7420746f6b656e0000000000000000000000000000000000000000602082015250565b60006147fc602c8361379d565b9150614807826147a0565b604082019050919050565b6000602082019050818103600083015261482b816147ef565b9050919050565b7f4552433732313a207472616e73666572206f6620746f6b656e2074686174206960008201527f73206e6f74206f776e0000000000000000000000000000000000000000000000602082015250565b600061488e60298361379d565b915061489982614832565b604082019050919050565b600060208201905081810360008301526148bd81614881565b9050919050565b7f4552433732313a207472616e7366657220746f20746865207a65726f2061646460008201527f7265737300000000000000000000000000000000000000000000000000000000602082015250565b600061492060248361379d565b915061492b826148c4565b604082019050919050565b6000602082019050818103600083015261494f81614913565b9050919050565b60006149618261362e565b915061496c8361362e565b92508282101561497f5761497e6141ff565b5b828203905092915050565b7f4e487b7100000000000000000000000000000000000000000000000000000000600052603160045260246000fd5b60008160601b9050919050565b60006149d1826149b9565b9050919050565b60006149e3826149c6565b9050919050565b6149fb6149f6826138c6565b6149d8565b82525050565b6000614a0d82846149ea565b60148201915081905092915050565b7f4e487b7100000000000000000000000000000000000000000000000000000000600052601260045260246000fd5b6000614a568261362e565b9150614a618361362e565b925082614a7157614a70614a1c565b5b828204905092915050565b6000614a87826138a6565b9050919050565b6000614a99826149c6565b9050919050565b614ab1614aac82614a7c565b614a8e565b82525050565b6000614ac38284614aa0565b60148201915081905092915050565b6000819050919050565b614aed614ae88261362e565b614ad2565b82525050565b6000614aff8284614adc565b60208201915081905092915050565b6000614b198261362e565b9150614b248361362e565b9250817fffffffffffffffffffffffffffffffffffffffffffffffffffffffffffffffff0483118215151615614b5d57614b5c6141ff565b5b828202905092915050565b7f45524337323155524953746f726167653a2055524920736574206f66206e6f6e60008201527f6578697374656e7420746f6b656e000000000000000000000000000000000000602082015250565b6000614bc4602e8361379d565b9150614bcf82614b68565b604082019050919050565b60006020820190508181036000830152614bf381614bb7565b9050919050565b7f4552433732313a207472616e7366657220746f206e6f6e20455243373231526560008201527f63656976657220696d706c656d656e7465720000000000000000000000000000602082015250565b6000614c5660328361379d565b9150614c6182614bfa565b604082019050919050565b60006020820190508181036000830152614c8581614c49565b9050919050565b7f45524337323155524953746f726167653a2055524920717565727920666f722060008201527f6e6f6e6578697374656e7420746f6b656e000000000000000000000000000000602082015250565b6000614ce860318361379d565b9150614cf382614c8c565b604082019050919050565b60006020820190508181036000830152614d1781614cdb565b9050919050565b6000614d2a82856146b9565b9150614d3682846146b9565b91508190509392505050565b600081519050919050565b600082825260208201905092915050565b6000614d6982614d42565b614d738185614d4d565b9350614d838185602086016137ae565b614d8c816137e1565b840191505092915050565b6000608082019050614dac60008301876138d8565b614db960208301866138d8565b614dc660408301856139da565b8181036060830152614dd88184614d5e565b905095945050505050565b600081519050614df281613573565b92915050565b600060208284031215614e0e57614e0d61353d565b5b6000614e1c84828501614de3565b91505092915050565b7f4552433732314d657461646174613a2055524920717565727920666f72206e6f60008201527f6e6578697374656e7420746f6b656e0000000000000000000000000000000000602082015250565b6000614e81602f8361379d565b9150614e8c82614e25565b604082019050919050565b60006020820190508181036000830152614eb081614e74565b9050919050565b7f4552433732313a206d696e7420746f20746865207a65726f2061646472657373600082015250565b6000614eed60208361379d565b9150614ef882614eb7565b602082019050919050565b60006020820190508181036000830152614f1c81614ee0565b9050919050565b7f4552433732313a20746f6b656e20616c7265616479206d696e74656400000000600082015250565b6000614f59601c8361379d565b9150614f6482614f23565b602082019050919050565b60006020820190508181036000830152614f8881614f4c565b9050919050565b6000614f9a8261362e565b9150614fa58361362e565b925082614fb557614fb4614a1c565b5b82820690509291505056fea2646970667358221220c5e60e9d51aa52cb220e2be762cef84b2d67ddc9492df425d8336adf4773e88564736f6c63430008090033",
  "immutableReferences": {},
  "source": "// SPDX-License-Identifier: MIT\npragma solidity 0.8.9;\n\nimport \"../node_modules/@openzeppelin/contracts/token/ERC721/extensions/ERC721URIStorage.sol\";\nimport \"../node_modules/@openzeppelin/contracts/utils/Counters.sol\";\nimport \"../node_modules/@openzeppelin/contracts/access/Ownable.sol\";\nimport \"./interfaces/IConsumable.sol\";\nimport \"./interfaces/IConsumableResolver.sol\";\nimport \"./library/SharedStructs.sol\";\n\ncontract Consumable is IConsumable, ERC721URIStorage, Ownable {\n    event ConsumableMinted(uint256 indexed tokenId, uint8 consumableType);\n    event ConsumableUsed(uint256 indexed tokenId, uint8 consumableType);\n\n    mapping(address => bool) private _mintPermittedAddress;\n    mapping(uint8 => address) private _consumableResolversAddress;\n    mapping(uint8 => string) private _consumableTokenURI;\n\n    using Counters for Counters.Counter;\n    Counters.Counter private _currentConsumableId;\n\n    SharedStructs.Consumable[] private _consumables;\n\n    string private _baseTokenURI;\n\n    constructor(\n        string memory name,\n        string memory symbol,\n        string memory baseTokenURI\n    ) ERC721(name, symbol) {\n        _baseTokenURI = baseTokenURI;\n    }\n\n    function setConsumableTokenURI(uint8 _type, string memory _tokenURI)\n        external\n        onlyOwner\n    {\n        _consumableTokenURI[_type] = _tokenURI;\n    }\n\n    function setConsumableResolversAddress(uint8 _type, address _newAddress)\n        external\n        onlyOwner\n    {\n        _consumableResolversAddress[_type] = _newAddress;\n    }\n\n    function addMintPermittedAddress(address newAddress) external onlyOwner {\n        _mintPermittedAddress[newAddress] = true;\n    }\n\n    function removeMintPermittedAddress(address newAddress) external onlyOwner {\n        delete _mintPermittedAddress[newAddress];\n    }\n\n    modifier onlyPermittedAddress() {\n        require(\n            _mintPermittedAddress[_msgSender()],\n            \"Only permitted address can execute this action\"\n        );\n        _;\n    }\n\n    function getConsumables()\n        external\n        view\n        returns (SharedStructs.Consumable[] memory)\n    {\n        return _consumables;\n    }\n\n    function getNextConsumableId() external view returns (uint256) {\n        return _currentConsumableId.current();\n    }\n\n    function mint(address owner) external onlyPermittedAddress {\n        uint256 newConsumableId = _currentConsumableId.current();\n\n        uint256 consumableChance = rand(newConsumableId, 1000) + 1;\n        uint8 consumableType;\n\n        if (consumableChance <= 751) {\n            _safeMint(owner, newConsumableId);\n            _currentConsumableId.increment();\n            if (consumableChance <= 500) {\n                _consumables.push(\n                    SharedStructs.Consumable(\n                        newConsumableId,\n                        10,\n                        10,\n                        false,\n                        false,\n                        false\n                    )\n                );\n                consumableType = 0;\n            } else if (consumableChance <= 600) {\n                _consumables.push(\n                    SharedStructs.Consumable(\n                        newConsumableId,\n                        0,\n                        0,\n                        true,\n                        false,\n                        false\n                    )\n                );\n                consumableType = 2;\n            } else if (consumableChance <= 700) {\n                _consumables.push(\n                    SharedStructs.Consumable(\n                        newConsumableId,\n                        0,\n                        0,\n                        false,\n                        true,\n                        false\n                    )\n                );\n                consumableType = 3;\n            } else if (consumableChance <= 750) {\n                _consumables.push(\n                    SharedStructs.Consumable(\n                        newConsumableId,\n                        50,\n                        100,\n                        false,\n                        false,\n                        false\n                    )\n                );\n                consumableType = 1;\n            } else {\n                _consumables.push(\n                    SharedStructs.Consumable(\n                        newConsumableId,\n                        0,\n                        0,\n                        false,\n                        false,\n                        true\n                    )\n                );\n                consumableType = 4;\n            }\n\n            _setTokenURI(newConsumableId, _consumableTokenURI[consumableType]);\n\n            emit ConsumableMinted(newConsumableId, consumableType);\n        }\n    }\n\n    function getConsumablesByAddress(address owner)\n        public\n        view\n        returns (SharedStructs.Consumable[] memory)\n    {\n        uint256 consumableCount = balanceOf(owner);\n\n        if (consumableCount == 0) {\n            return new SharedStructs.Consumable[](0);\n        } else {\n            SharedStructs.Consumable[]\n                memory ret = new SharedStructs.Consumable[](consumableCount);\n            uint256 i;\n            uint256 curIndex = 0;\n\n            for (i = 0; i < _consumables.length; i++) {\n                if (ownerOf(_consumables[i].id) == owner) {\n                    ret[curIndex++] = _consumables[i];\n                }\n            }\n\n            return ret;\n        }\n    }\n\n    function getMyConsumables()\n        external\n        view\n        returns (SharedStructs.Consumable[] memory)\n    {\n        return getConsumablesByAddress(msg.sender);\n    }\n\n    function getConsumable(uint256 _consumableId)\n        external\n        view\n        returns (SharedStructs.Consumable memory)\n    {\n        return _getConsumable(_consumableId);\n    }\n\n    function _getConsumable(uint256 _consumableId)\n        internal\n        view\n        returns (SharedStructs.Consumable memory)\n    {\n        for (uint256 index = 0; index < _consumables.length; index++) {\n            if (_consumables[index].id == _consumableId) {\n                return _consumables[index];\n            }\n        }\n    }\n\n    function consume(uint256 _token, uint256 _consumableId) external {\n        require(msg.sender == ownerOf(_consumableId), \"Not owner\");\n\n        SharedStructs.Consumable memory consumable = _getConsumable(\n            _consumableId\n        );\n\n        uint8 consumableType;\n\n        if (consumable.maxXPGain == 10 && consumable.percXPGain == 10) {\n            consumableType = 0;\n        } else if (consumable.maxXPGain == 100 && consumable.percXPGain == 50) {\n            consumableType = 1;\n        } else if (consumable.generateArenaTicket) {\n            consumableType = 2;\n        } else if (consumable.generateEquipment) {\n            consumableType = 3;\n        } else if (consumable.generateMysteriousChest) {\n            consumableType = 4;\n        }\n\n        require(\n            _consumableResolversAddress[consumableType] != address(0),\n            \"Consumable resolver not defined\"\n        );\n\n        IConsumableResolver(_consumableResolversAddress[consumableType])\n            .resolve(_token, consumable);\n\n        _removeConsumable(_consumableId);\n        _burn(_consumableId);\n\n        emit ConsumableUsed(_consumableId, consumableType);\n    }\n\n    function _removeConsumable(uint256 _consumableId) internal {\n        uint256 index = _getIndexConsumable(_consumableId);\n\n        require(index < _consumables.length);\n        _consumables[index] = _consumables[_consumables.length - 1];\n        _consumables.pop();\n    }\n\n    function _getIndexConsumable(uint256 _consumableId)\n        internal\n        view\n        returns (uint256)\n    {\n        for (uint256 i = 0; i < _consumables.length; i++) {\n            if (_consumableId == _consumables[i].id) {\n                return i;\n            }\n        }\n        return _consumables.length;\n    }\n\n    function rand(uint256 seed1, uint256 limit) private view returns (uint256) {\n        uint256 seed = uint256(\n            keccak256(\n                abi.encodePacked(\n                    block.timestamp +\n                        block.difficulty +\n                        seed1 +\n                        ((\n                            uint256(keccak256(abi.encodePacked(block.coinbase)))\n                        ) / (block.timestamp)) +\n                        block.gaslimit +\n                        ((uint256(keccak256(abi.encodePacked(msg.sender)))) /\n                            (block.timestamp)) +\n                        block.number\n                )\n            )\n        );\n\n        return (seed - ((seed / (limit + 1)) * (limit + 1)));\n    }\n\n    function tokenURI(uint256 tokenId)\n        public\n        view\n        virtual\n        override\n        returns (string memory)\n    {\n        return string(abi.encodePacked(_baseTokenURI, super.tokenURI(tokenId)));\n    }\n}\n",
  "sourcePath": "/home/rfaita/game/nft-game/contract/contracts/Consumable.sol",
  "compiler": {
    "name": "solc",
    "version": "0.8.9+commit.e5eed63a.Emscripten.clang"
  },
  "schemaVersion": "3.4.3",
  "updatedAt": "2021-11-30T13:53:13.061Z",
  "networkType": "ethereum",
  "devdoc": {
    "kind": "dev",
    "methods": {
      "approve(address,uint256)": {
        "details": "See {IERC721-approve}."
      },
      "balanceOf(address)": {
        "details": "See {IERC721-balanceOf}."
      },
      "getApproved(uint256)": {
        "details": "See {IERC721-getApproved}."
      },
      "isApprovedForAll(address,address)": {
        "details": "See {IERC721-isApprovedForAll}."
      },
      "name()": {
        "details": "See {IERC721Metadata-name}."
      },
      "owner()": {
        "details": "Returns the address of the current owner."
      },
      "ownerOf(uint256)": {
        "details": "See {IERC721-ownerOf}."
      },
      "renounceOwnership()": {
        "details": "Leaves the contract without owner. It will not be possible to call `onlyOwner` functions anymore. Can only be called by the current owner. NOTE: Renouncing ownership will leave the contract without an owner, thereby removing any functionality that is only available to the owner."
      },
      "safeTransferFrom(address,address,uint256)": {
        "details": "See {IERC721-safeTransferFrom}."
      },
      "safeTransferFrom(address,address,uint256,bytes)": {
        "details": "See {IERC721-safeTransferFrom}."
      },
      "setApprovalForAll(address,bool)": {
        "details": "See {IERC721-setApprovalForAll}."
      },
      "supportsInterface(bytes4)": {
        "details": "See {IERC165-supportsInterface}."
      },
      "symbol()": {
        "details": "See {IERC721Metadata-symbol}."
      },
      "tokenURI(uint256)": {
        "details": "See {IERC721Metadata-tokenURI}."
      },
      "transferFrom(address,address,uint256)": {
        "details": "See {IERC721-transferFrom}."
      },
      "transferOwnership(address)": {
        "details": "Transfers ownership of the contract to a new account (`newOwner`). Can only be called by the current owner."
      }
    },
    "version": 1
  },
  "userdoc": {
    "kind": "user",
    "methods": {},
    "version": 1
  }
}