{
  "contractName": "GameToken",
  "abi": [
    {
      "inputs": [
        {
          "internalType": "string",
          "name": "name",
          "type": "string"
        },
        {
          "internalType": "string",
          "name": "symbol",
          "type": "string"
        },
        {
          "internalType": "string",
          "name": "baseTokenURI",
          "type": "string"
        }
      ],
      "stateMutability": "nonpayable",
      "type": "constructor"
    },
    {
      "anonymous": false,
      "inputs": [
        {
          "indexed": true,
          "internalType": "address",
          "name": "owner",
          "type": "address"
        },
        {
          "indexed": true,
          "internalType": "address",
          "name": "approved",
          "type": "address"
        },
        {
          "indexed": true,
          "internalType": "uint256",
          "name": "tokenId",
          "type": "uint256"
        }
      ],
      "name": "Approval",
      "type": "event"
    },
    {
      "anonymous": false,
      "inputs": [
        {
          "indexed": true,
          "internalType": "address",
          "name": "owner",
          "type": "address"
        },
        {
          "indexed": true,
          "internalType": "address",
          "name": "operator",
          "type": "address"
        },
        {
          "indexed": false,
          "internalType": "bool",
          "name": "approved",
          "type": "bool"
        }
      ],
      "name": "ApprovalForAll",
      "type": "event"
    },
    {
      "anonymous": false,
      "inputs": [
        {
          "indexed": true,
          "internalType": "uint256",
          "name": "tokenId",
          "type": "uint256"
        },
        {
          "indexed": true,
          "internalType": "uint8",
          "name": "level",
          "type": "uint8"
        }
      ],
      "name": "HeroLevelUp",
      "type": "event"
    },
    {
      "anonymous": false,
      "inputs": [
        {
          "indexed": true,
          "internalType": "uint256",
          "name": "tokenId",
          "type": "uint256"
        },
        {
          "indexed": true,
          "internalType": "uint16",
          "name": "currXP",
          "type": "uint16"
        }
      ],
      "name": "NewCurrXP",
      "type": "event"
    },
    {
      "anonymous": false,
      "inputs": [
        {
          "indexed": true,
          "internalType": "address",
          "name": "previousOwner",
          "type": "address"
        },
        {
          "indexed": true,
          "internalType": "address",
          "name": "newOwner",
          "type": "address"
        }
      ],
      "name": "OwnershipTransferred",
      "type": "event"
    },
    {
      "anonymous": false,
      "inputs": [
        {
          "indexed": true,
          "internalType": "address",
          "name": "from",
          "type": "address"
        },
        {
          "indexed": true,
          "internalType": "address",
          "name": "to",
          "type": "address"
        },
        {
          "indexed": true,
          "internalType": "uint256",
          "name": "tokenId",
          "type": "uint256"
        }
      ],
      "name": "Transfer",
      "type": "event"
    },
    {
      "inputs": [
        {
          "internalType": "address",
          "name": "to",
          "type": "address"
        },
        {
          "internalType": "uint256",
          "name": "tokenId",
          "type": "uint256"
        }
      ],
      "name": "approve",
      "outputs": [],
      "stateMutability": "nonpayable",
      "type": "function"
    },
    {
      "inputs": [
        {
          "internalType": "address",
          "name": "owner",
          "type": "address"
        }
      ],
      "name": "balanceOf",
      "outputs": [
        {
          "internalType": "uint256",
          "name": "",
          "type": "uint256"
        }
      ],
      "stateMutability": "view",
      "type": "function",
      "constant": true
    },
    {
      "inputs": [
        {
          "internalType": "uint256",
          "name": "tokenId",
          "type": "uint256"
        }
      ],
      "name": "getApproved",
      "outputs": [
        {
          "internalType": "address",
          "name": "",
          "type": "address"
        }
      ],
      "stateMutability": "view",
      "type": "function",
      "constant": true
    },
    {
      "inputs": [
        {
          "internalType": "address",
          "name": "owner",
          "type": "address"
        },
        {
          "internalType": "address",
          "name": "operator",
          "type": "address"
        }
      ],
      "name": "isApprovedForAll",
      "outputs": [
        {
          "internalType": "bool",
          "name": "",
          "type": "bool"
        }
      ],
      "stateMutability": "view",
      "type": "function",
      "constant": true
    },
    {
      "inputs": [],
      "name": "name",
      "outputs": [
        {
          "internalType": "string",
          "name": "",
          "type": "string"
        }
      ],
      "stateMutability": "view",
      "type": "function",
      "constant": true
    },
    {
      "inputs": [],
      "name": "owner",
      "outputs": [
        {
          "internalType": "address",
          "name": "",
          "type": "address"
        }
      ],
      "stateMutability": "view",
      "type": "function",
      "constant": true
    },
    {
      "inputs": [
        {
          "internalType": "uint256",
          "name": "tokenId",
          "type": "uint256"
        }
      ],
      "name": "ownerOf",
      "outputs": [
        {
          "internalType": "address",
          "name": "",
          "type": "address"
        }
      ],
      "stateMutability": "view",
      "type": "function",
      "constant": true
    },
    {
      "inputs": [],
      "name": "renounceOwnership",
      "outputs": [],
      "stateMutability": "nonpayable",
      "type": "function"
    },
    {
      "inputs": [
        {
          "internalType": "address",
          "name": "from",
          "type": "address"
        },
        {
          "internalType": "address",
          "name": "to",
          "type": "address"
        },
        {
          "internalType": "uint256",
          "name": "tokenId",
          "type": "uint256"
        }
      ],
      "name": "safeTransferFrom",
      "outputs": [],
      "stateMutability": "nonpayable",
      "type": "function"
    },
    {
      "inputs": [
        {
          "internalType": "address",
          "name": "from",
          "type": "address"
        },
        {
          "internalType": "address",
          "name": "to",
          "type": "address"
        },
        {
          "internalType": "uint256",
          "name": "tokenId",
          "type": "uint256"
        },
        {
          "internalType": "bytes",
          "name": "_data",
          "type": "bytes"
        }
      ],
      "name": "safeTransferFrom",
      "outputs": [],
      "stateMutability": "nonpayable",
      "type": "function"
    },
    {
      "inputs": [
        {
          "internalType": "address",
          "name": "operator",
          "type": "address"
        },
        {
          "internalType": "bool",
          "name": "approved",
          "type": "bool"
        }
      ],
      "name": "setApprovalForAll",
      "outputs": [],
      "stateMutability": "nonpayable",
      "type": "function"
    },
    {
      "inputs": [
        {
          "internalType": "bytes4",
          "name": "interfaceId",
          "type": "bytes4"
        }
      ],
      "name": "supportsInterface",
      "outputs": [
        {
          "internalType": "bool",
          "name": "",
          "type": "bool"
        }
      ],
      "stateMutability": "view",
      "type": "function",
      "constant": true
    },
    {
      "inputs": [],
      "name": "symbol",
      "outputs": [
        {
          "internalType": "string",
          "name": "",
          "type": "string"
        }
      ],
      "stateMutability": "view",
      "type": "function",
      "constant": true
    },
    {
      "inputs": [
        {
          "internalType": "address",
          "name": "from",
          "type": "address"
        },
        {
          "internalType": "address",
          "name": "to",
          "type": "address"
        },
        {
          "internalType": "uint256",
          "name": "tokenId",
          "type": "uint256"
        }
      ],
      "name": "transferFrom",
      "outputs": [],
      "stateMutability": "nonpayable",
      "type": "function"
    },
    {
      "inputs": [
        {
          "internalType": "address",
          "name": "newOwner",
          "type": "address"
        }
      ],
      "name": "transferOwnership",
      "outputs": [],
      "stateMutability": "nonpayable",
      "type": "function"
    },
    {
      "inputs": [
        {
          "internalType": "address",
          "name": "newAddress",
          "type": "address"
        }
      ],
      "name": "addLevelUpPermittedAddress",
      "outputs": [],
      "stateMutability": "nonpayable",
      "type": "function"
    },
    {
      "inputs": [
        {
          "internalType": "address",
          "name": "newAddress",
          "type": "address"
        }
      ],
      "name": "removeLevelUpPermittedAddress",
      "outputs": [],
      "stateMutability": "nonpayable",
      "type": "function"
    },
    {
      "inputs": [],
      "name": "getHeroes",
      "outputs": [
        {
          "components": [
            {
              "internalType": "string",
              "name": "name",
              "type": "string"
            },
            {
              "internalType": "enum GameToken.HeroType",
              "name": "heroType",
              "type": "uint8"
            },
            {
              "internalType": "enum GameToken.HeroRarity",
              "name": "rarity",
              "type": "uint8"
            },
            {
              "internalType": "uint8",
              "name": "str",
              "type": "uint8"
            },
            {
              "internalType": "uint8",
              "name": "con",
              "type": "uint8"
            },
            {
              "internalType": "uint8",
              "name": "dex",
              "type": "uint8"
            },
            {
              "internalType": "uint8",
              "name": "wis",
              "type": "uint8"
            },
            {
              "internalType": "uint8",
              "name": "level",
              "type": "uint8"
            },
            {
              "internalType": "uint16",
              "name": "currXP",
              "type": "uint16"
            }
          ],
          "internalType": "struct GameToken.Hero[]",
          "name": "",
          "type": "tuple[]"
        }
      ],
      "stateMutability": "view",
      "type": "function",
      "constant": true
    },
    {
      "inputs": [],
      "name": "getNextHeroId",
      "outputs": [
        {
          "internalType": "uint256",
          "name": "",
          "type": "uint256"
        }
      ],
      "stateMutability": "view",
      "type": "function",
      "constant": true
    },
    {
      "inputs": [
        {
          "internalType": "enum GameToken.HeroType",
          "name": "_heroType",
          "type": "uint8"
        },
        {
          "internalType": "enum GameToken.HeroRarity",
          "name": "_heroRarity",
          "type": "uint8"
        },
        {
          "internalType": "string",
          "name": "_tokenURI",
          "type": "string"
        }
      ],
      "name": "mint",
      "outputs": [],
      "stateMutability": "nonpayable",
      "type": "function"
    },
    {
      "inputs": [
        {
          "internalType": "address",
          "name": "owner",
          "type": "address"
        }
      ],
      "name": "getHeroesByAddress",
      "outputs": [
        {
          "internalType": "uint256[]",
          "name": "",
          "type": "uint256[]"
        }
      ],
      "stateMutability": "view",
      "type": "function",
      "constant": true
    },
    {
      "inputs": [],
      "name": "getMyHeroes",
      "outputs": [
        {
          "internalType": "uint256[]",
          "name": "",
          "type": "uint256[]"
        }
      ],
      "stateMutability": "view",
      "type": "function",
      "constant": true
    },
    {
      "inputs": [
        {
          "internalType": "uint256",
          "name": "_heroId",
          "type": "uint256"
        }
      ],
      "name": "getHero",
      "outputs": [
        {
          "components": [
            {
              "internalType": "string",
              "name": "name",
              "type": "string"
            },
            {
              "internalType": "enum GameToken.HeroType",
              "name": "heroType",
              "type": "uint8"
            },
            {
              "internalType": "enum GameToken.HeroRarity",
              "name": "rarity",
              "type": "uint8"
            },
            {
              "internalType": "uint8",
              "name": "str",
              "type": "uint8"
            },
            {
              "internalType": "uint8",
              "name": "con",
              "type": "uint8"
            },
            {
              "internalType": "uint8",
              "name": "dex",
              "type": "uint8"
            },
            {
              "internalType": "uint8",
              "name": "wis",
              "type": "uint8"
            },
            {
              "internalType": "uint8",
              "name": "level",
              "type": "uint8"
            },
            {
              "internalType": "uint16",
              "name": "currXP",
              "type": "uint16"
            }
          ],
          "internalType": "struct GameToken.Hero",
          "name": "",
          "type": "tuple"
        }
      ],
      "stateMutability": "view",
      "type": "function",
      "constant": true
    },
    {
      "inputs": [
        {
          "internalType": "uint256",
          "name": "_heroId",
          "type": "uint256"
        }
      ],
      "name": "getHeroComplete",
      "outputs": [
        {
          "components": [
            {
              "internalType": "string",
              "name": "name",
              "type": "string"
            },
            {
              "internalType": "enum GameToken.HeroType",
              "name": "heroType",
              "type": "uint8"
            },
            {
              "internalType": "enum GameToken.HeroRarity",
              "name": "rarity",
              "type": "uint8"
            },
            {
              "internalType": "uint8",
              "name": "str",
              "type": "uint8"
            },
            {
              "internalType": "uint8",
              "name": "con",
              "type": "uint8"
            },
            {
              "internalType": "uint8",
              "name": "dex",
              "type": "uint8"
            },
            {
              "internalType": "uint8",
              "name": "wis",
              "type": "uint8"
            },
            {
              "internalType": "uint8",
              "name": "level",
              "type": "uint8"
            },
            {
              "internalType": "uint16",
              "name": "currXP",
              "type": "uint16"
            },
            {
              "internalType": "address",
              "name": "owner",
              "type": "address"
            },
            {
              "internalType": "string",
              "name": "tokenURI",
              "type": "string"
            }
          ],
          "internalType": "struct GameToken.HeroDTO",
          "name": "",
          "type": "tuple"
        }
      ],
      "stateMutability": "view",
      "type": "function",
      "constant": true
    },
    {
      "inputs": [
        {
          "internalType": "uint256",
          "name": "_heroId",
          "type": "uint256"
        },
        {
          "internalType": "string",
          "name": "_name",
          "type": "string"
        }
      ],
      "name": "setName",
      "outputs": [],
      "stateMutability": "nonpayable",
      "type": "function"
    },
    {
      "inputs": [
        {
          "internalType": "uint256",
          "name": "_heroId",
          "type": "uint256"
        },
        {
          "internalType": "uint16",
          "name": "_xp",
          "type": "uint16"
        }
      ],
      "name": "levelUp",
      "outputs": [],
      "stateMutability": "nonpayable",
      "type": "function"
    },
    {
      "inputs": [
        {
          "internalType": "uint256",
          "name": "tokenId",
          "type": "uint256"
        }
      ],
      "name": "tokenURI",
      "outputs": [
        {
          "internalType": "string",
          "name": "",
          "type": "string"
        }
      ],
      "stateMutability": "view",
      "type": "function",
      "constant": true
    }
  ],
  "bytecode": "0x60806040523480156200001157600080fd5b5060405162005c5238038062005c528339818101604052810190620000379190620006c6565b8282816000908051906020019062000051929190620003cb565b5080600190805190602001906200006a929190620003cb565b5050506200008d62000081620002fd60201b60201c565b6200030560201b60201c565b80600b9080519060200190620000a5929190620003cb565b506040518060c00160405280600060ff168152602001600160ff168152602001600060ff168152602001600260ff168152602001600360ff168152602001600160ff16815250600c60008060038111156200010557620001046200077f565b5b60038111156200011a57620001196200077f565b5b8152602001908152602001600020906006620001389291906200045c565b506040518060c00160405280600260ff168152602001600260ff168152602001600060ff168152602001600360ff168152602001600060ff168152602001600260ff16815250600c6000600160038111156200019957620001986200077f565b5b6003811115620001ae57620001ad6200077f565b5b8152602001908152602001600020906006620001cc9291906200045c565b506040518060c00160405280600360ff168152602001600360ff168152602001600260ff168152602001600160ff168152602001600060ff168152602001600360ff16815250600c6000600260038111156200022d576200022c6200077f565b5b60038111156200024257620002416200077f565b5b8152602001908152602001600020906006620002609291906200045c565b506040518060c00160405280600160ff168152602001600160ff168152602001600060ff168152602001600260ff168152602001600360ff168152602001600160ff16815250600c6000600380811115620002c057620002bf6200077f565b5b6003811115620002d557620002d46200077f565b5b8152602001908152602001600020906006620002f39291906200045c565b5050505062000813565b600033905090565b6000600760009054906101000a900473ffffffffffffffffffffffffffffffffffffffff16905081600760006101000a81548173ffffffffffffffffffffffffffffffffffffffff021916908373ffffffffffffffffffffffffffffffffffffffff1602179055508173ffffffffffffffffffffffffffffffffffffffff168173ffffffffffffffffffffffffffffffffffffffff167f8be0079c531659141344cd1fd0a4f28419497f9722a3daafe3b4186f6b6457e060405160405180910390a35050565b828054620003d990620007dd565b90600052602060002090601f016020900481019282620003fd576000855562000449565b82601f106200041857805160ff191683800117855562000449565b8280016001018555821562000449579182015b82811115620004485782518255916020019190600101906200042b565b5b5090506200045891906200050a565b5090565b82805482825590600052602060002090601f01602090048101928215620004f75791602002820160005b83821115620004c657835183826101000a81548160ff021916908360ff160217905550926020019260010160208160000104928301926001030262000486565b8015620004f55782816101000a81549060ff0219169055600101602081600001049283019260010302620004c6565b505b5090506200050691906200050a565b5090565b5b80821115620005255760008160009055506001016200050b565b5090565b6000604051905090565b600080fd5b600080fd5b600080fd5b600080fd5b6000601f19601f8301169050919050565b7f4e487b7100000000000000000000000000000000000000000000000000000000600052604160045260246000fd5b620005928262000547565b810181811067ffffffffffffffff82111715620005b457620005b362000558565b5b80604052505050565b6000620005c962000529565b9050620005d7828262000587565b919050565b600067ffffffffffffffff821115620005fa57620005f962000558565b5b620006058262000547565b9050602081019050919050565b60005b838110156200063257808201518184015260208101905062000615565b8381111562000642576000848401525b50505050565b60006200065f6200065984620005dc565b620005bd565b9050828152602081018484840111156200067e576200067d62000542565b5b6200068b84828562000612565b509392505050565b600082601f830112620006ab57620006aa6200053d565b5b8151620006bd84826020860162000648565b91505092915050565b600080600060608486031215620006e257620006e162000533565b5b600084015167ffffffffffffffff81111562000703576200070262000538565b5b620007118682870162000693565b935050602084015167ffffffffffffffff81111562000735576200073462000538565b5b620007438682870162000693565b925050604084015167ffffffffffffffff81111562000767576200076662000538565b5b620007758682870162000693565b9150509250925092565b7f4e487b7100000000000000000000000000000000000000000000000000000000600052602160045260246000fd5b7f4e487b7100000000000000000000000000000000000000000000000000000000600052602260045260246000fd5b60006002820490506001821680620007f657607f821691505b602082108114156200080d576200080c620007ae565b5b50919050565b61542f80620008236000396000f3fe608060405234801561001057600080fd5b50600436106101a85760003560e01c806370a08231116100f9578063a22cb46511610097578063c87b56dd11610071578063c87b56dd146104b7578063e985e9c5146104e7578063f2fde38b14610517578063fe55932a14610533576101a8565b8063a22cb46514610463578063a8b242501461047f578063b88d4fde1461049b576101a8565b80638302adfb116100d35780638302adfb146103eb5780638da5cb5b1461040957806395d89b41146104275780639a8d288214610445576101a8565b806370a0823114610393578063715018a6146103c3578063806f5283146103cd576101a8565b806321d8011111610166578063472899611161014057806347289961146102fb578063484a203214610317578063503f30ac146103335780636352211e14610363576101a8565b806321d801111461029357806323b872dd146102c357806342842e0e146102df576101a8565b80625597e3146101ad57806301ffc9a7146101dd57806306fdde031461020d578063081812fc1461022b578063095ea7b31461025b57806310d44ae014610277575b600080fd5b6101c760048036038101906101c2919061344b565b61054f565b6040516101d49190613540565b60405180910390f35b6101f760048036038101906101f291906135ba565b6106ac565b6040516102049190613602565b60405180910390f35b61021561078e565b60405161022291906136b6565b60405180910390f35b61024560048036038101906102409190613704565b610820565b6040516102529190613740565b60405180910390f35b6102756004803603810190610270919061375b565b6108a5565b005b610291600480360381019061028c919061391a565b6109bd565b005b6102ad60048036038101906102a89190613704565b610f99565b6040516102ba9190613b90565b60405180910390f35b6102dd60048036038101906102d89190613bb2565b61118f565b005b6102f960048036038101906102f49190613bb2565b6111ef565b005b6103156004803603810190610310919061344b565b61120f565b005b610331600480360381019061032c9190613c31565b6112e6565b005b61034d60048036038101906103489190613704565b611628565b60405161035a9190613d76565b60405180910390f35b61037d60048036038101906103789190613704565b6118f1565b60405161038a9190613740565b60405180910390f35b6103ad60048036038101906103a8919061344b565b6119a3565b6040516103ba9190613da7565b60405180910390f35b6103cb611a5b565b005b6103d5611ae3565b6040516103e29190613540565b60405180910390f35b6103f3611af3565b6040516104009190613da7565b60405180910390f35b610411611b04565b60405161041e9190613740565b60405180910390f35b61042f611b2e565b60405161043c91906136b6565b60405180910390f35b61044d611bc0565b60405161045a9190613f49565b60405180910390f35b61047d60048036038101906104789190613f97565b611dd9565b005b6104996004803603810190610494919061344b565b611f5a565b005b6104b560048036038101906104b09190614078565b612028565b005b6104d160048036038101906104cc9190613704565b61208a565b6040516104de91906136b6565b60405180910390f35b61050160048036038101906104fc91906140fb565b6120be565b60405161050e9190613602565b60405180910390f35b610531600480360381019061052c919061344b565b612152565b005b61054d6004803603810190610548919061413b565b61224a565b005b6060600061055c836119a3565b905060008114156105b957600067ffffffffffffffff811115610582576105816137ef565b5b6040519080825280602002602001820160405280156105b05781602001602082028036833780820191505090505b509150506106a7565b60008167ffffffffffffffff8111156105d5576105d46137ef565b5b6040519080825280602002602001820160405280156106035781602001602082028036833780820191505090505b50905060008060009050600091505b61061c6008612304565b82101561069f578573ffffffffffffffffffffffffffffffffffffffff16610643836118f1565b73ffffffffffffffffffffffffffffffffffffffff16141561068c578183828061066c906141c6565b93508151811061067f5761067e61420f565b5b6020026020010181815250505b8180610697906141c6565b925050610612565b829450505050505b919050565b60007f80ac58cd000000000000000000000000000000000000000000000000000000007bffffffffffffffffffffffffffffffffffffffffffffffffffffffff1916827bffffffffffffffffffffffffffffffffffffffffffffffffffffffff1916148061077757507f5b5e139f000000000000000000000000000000000000000000000000000000007bffffffffffffffffffffffffffffffffffffffffffffffffffffffff1916827bffffffffffffffffffffffffffffffffffffffffffffffffffffffff1916145b80610787575061078682612312565b5b9050919050565b60606000805461079d9061426d565b80601f01602080910402602001604051908101604052809291908181526020018280546107c99061426d565b80156108165780601f106107eb57610100808354040283529160200191610816565b820191906000526020600020905b8154815290600101906020018083116107f957829003601f168201915b5050505050905090565b600061082b8261237c565b61086a576040517f08c379a000000000000000000000000000000000000000000000000000000000815260040161086190614311565b60405180910390fd5b6004600083815260200190815260200160002060009054906101000a900473ffffffffffffffffffffffffffffffffffffffff169050919050565b60006108b0826118f1565b90508073ffffffffffffffffffffffffffffffffffffffff168373ffffffffffffffffffffffffffffffffffffffff161415610921576040517f08c379a0000000000000000000000000000000000000000000000000000000008152600401610918906143a3565b60405180910390fd5b8073ffffffffffffffffffffffffffffffffffffffff166109406123e8565b73ffffffffffffffffffffffffffffffffffffffff16148061096f575061096e816109696123e8565b6120be565b5b6109ae576040517f08c379a00000000000000000000000000000000000000000000000000000000081526004016109a590614435565b60405180910390fd5b6109b883836123f0565b505050565b6109c56123e8565b73ffffffffffffffffffffffffffffffffffffffff166109e3611b04565b73ffffffffffffffffffffffffffffffffffffffff1614610a39576040517f08c379a0000000000000000000000000000000000000000000000000000000008152600401610a30906144a1565b60405180910390fd5b6000610a456008612304565b905060008060006003811115610a5e57610a5d6139d3565b5b856003811115610a7157610a706139d3565b5b1415610a84576004915060069050610b03565b60016003811115610a9857610a976139d3565b5b856003811115610aab57610aaa6139d3565b5b1415610abe576007915060089050610b02565b60026003811115610ad257610ad16139d3565b5b856003811115610ae557610ae46139d3565b5b1415610af85760099150600a9050610b01565b600b9150600c90505b5b5b60008260ff16610b1d8484610b1891906144c1565b6124a9565b610b2791906144f5565b90506000600467ffffffffffffffff811115610b4657610b456137ef565b5b604051908082528060200260200182016040528015610b745781602001602082028036833780820191505090505b509050600181600081518110610b8d57610b8c61420f565b5b602002602001019060ff16908160ff1681525050600181600181518110610bb757610bb661420f565b5b602002602001019060ff16908160ff1681525050600181600281518110610be157610be061420f565b5b602002602001019060ff16908160ff1681525050600181600381518110610c0b57610c0a61420f565b5b602002602001019060ff16908160ff1681525050600080600190505b838160ff1611610d085782600c60008c6003811115610c4957610c486139d3565b5b6003811115610c5b57610c5a6139d3565b5b81526020019081526020016000208360ff1681548110610c7e57610c7d61420f565b5b90600052602060002090602091828204019190069054906101000a900460ff1660ff1681518110610cb257610cb161420f565b5b602002602001018051809190610cc79061454b565b60ff1660ff168152505060058260ff161415610ce65760009150610cf5565b8180610cf19061454b565b9250505b8080610d009061454b565b915050610c27565b50610d1333876125bf565b610d1d86886125dd565b600a6040518061012001604052806040518060200160405280600081525081526020018b6003811115610d5357610d526139d3565b5b81526020018a6003811115610d6b57610d6a6139d3565b5b815260200184600081518110610d8457610d8361420f565b5b602002602001015160ff16815260200184600181518110610da857610da761420f565b5b602002602001015160ff16815260200184600281518110610dcc57610dcb61420f565b5b602002602001015160ff16815260200184600381518110610df057610def61420f565b5b602002602001015160ff168152602001600160ff168152602001600061ffff1681525090806001815401808255809150506001900390600052602060002090600202016000909190919091506000820151816000019080519060200190610e5892919061320c565b5060208201518160010160006101000a81548160ff02191690836003811115610e8457610e836139d3565b5b021790555060408201518160010160016101000a81548160ff02191690836003811115610eb457610eb36139d3565b5b021790555060608201518160010160026101000a81548160ff021916908360ff16021790555060808201518160010160036101000a81548160ff021916908360ff16021790555060a08201518160010160046101000a81548160ff021916908360ff16021790555060c08201518160010160056101000a81548160ff021916908360ff16021790555060e08201518160010160066101000a81548160ff021916908360ff1602179055506101008201518160010160076101000a81548161ffff021916908361ffff1602179055505050610f8e6008612651565b505050505050505050565b610fa1613292565b600a8281548110610fb557610fb461420f565b5b906000526020600020906002020160405180610120016040529081600082018054610fdf9061426d565b80601f016020809104026020016040519081016040528092919081815260200182805461100b9061426d565b80156110585780601f1061102d57610100808354040283529160200191611058565b820191906000526020600020905b81548152906001019060200180831161103b57829003601f168201915b505050505081526020016001820160009054906101000a900460ff166003811115611086576110856139d3565b5b6003811115611098576110976139d3565b5b81526020016001820160019054906101000a900460ff1660038111156110c1576110c06139d3565b5b60038111156110d3576110d26139d3565b5b81526020016001820160029054906101000a900460ff1660ff1660ff1681526020016001820160039054906101000a900460ff1660ff1660ff1681526020016001820160049054906101000a900460ff1660ff1660ff1681526020016001820160059054906101000a900460ff1660ff1660ff1681526020016001820160069054906101000a900460ff1660ff1660ff1681526020016001820160079054906101000a900461ffff1661ffff1661ffff16815250509050919050565b6111a061119a6123e8565b82612667565b6111df576040517f08c379a00000000000000000000000000000000000000000000000000000000081526004016111d6906145e7565b60405180910390fd5b6111ea838383612745565b505050565b61120a83838360405180602001604052806000815250612028565b505050565b6112176123e8565b73ffffffffffffffffffffffffffffffffffffffff16611235611b04565b73ffffffffffffffffffffffffffffffffffffffff161461128b576040517f08c379a0000000000000000000000000000000000000000000000000000000008152600401611282906144a1565b60405180910390fd5b6001600960008373ffffffffffffffffffffffffffffffffffffffff1673ffffffffffffffffffffffffffffffffffffffff16815260200190815260200160002060006101000a81548160ff02191690831515021790555050565b600960006112f26123e8565b73ffffffffffffffffffffffffffffffffffffffff1673ffffffffffffffffffffffffffffffffffffffff16815260200190815260200160002060009054906101000a900460ff16611379576040517f08c379a000000000000000000000000000000000000000000000000000000000815260040161137090614679565b60405180910390fd5b6000600a838154811061138f5761138e61420f565b5b90600052602060002090600202019050818160010160078282829054906101000a900461ffff166113c09190614699565b92506101000a81548161ffff021916908361ffff1602179055508060010160079054906101000a900461ffff1661ffff16837f5e4984a28872a040fc1a681e4330b49cbce17ae15a7202ad2fa0e330aa3654d960405160405180910390a38060010160069054906101000a900460ff16600261143c9190614804565b8160010160079054906101000a900461ffff1661ffff16106116235780600101600681819054906101000a900460ff16809291906114799061454b565b91906101000a81548160ff021916908360ff1602179055505060008160010160076101000a81548161ffff021916908361ffff16021790555060006114be60036124a9565b905060008114156115085781600101600281819054906101000a900460ff16809291906114ea9061454b565b91906101000a81548160ff021916908360ff160217905550506115df565b60018114156115505781600101600381819054906101000a900460ff16809291906115329061454b565b91906101000a81548160ff021916908360ff160217905550506115de565b60028114156115985781600101600481819054906101000a900460ff168092919061157a9061454b565b91906101000a81548160ff021916908360ff160217905550506115dd565b60038114156115dc5781600101600581819054906101000a900460ff16809291906115c29061454b565b91906101000a81548160ff021916908360ff160217905550505b5b5b5b8160010160069054906101000a900460ff1660ff16847fad739759ba8930019bd1c3be6ed5fcd01b01d8281b167965f3268c8995a69c6160405160405180910390a3505b505050565b611630613315565b6000600a83815481106116465761164561420f565b5b9060005260206000209060020201604051806101200160405290816000820180546116709061426d565b80601f016020809104026020016040519081016040528092919081815260200182805461169c9061426d565b80156116e95780601f106116be576101008083540402835291602001916116e9565b820191906000526020600020905b8154815290600101906020018083116116cc57829003601f168201915b505050505081526020016001820160009054906101000a900460ff166003811115611717576117166139d3565b5b6003811115611729576117286139d3565b5b81526020016001820160019054906101000a900460ff166003811115611752576117516139d3565b5b6003811115611764576117636139d3565b5b81526020016001820160029054906101000a900460ff1660ff1660ff1681526020016001820160039054906101000a900460ff1660ff1660ff1681526020016001820160049054906101000a900460ff1660ff1660ff1681526020016001820160059054906101000a900460ff1660ff1660ff1681526020016001820160069054906101000a900460ff1660ff1660ff1681526020016001820160079054906101000a900461ffff1661ffff1661ffff168152505090506040518061016001604052808260000151815260200182602001516003811115611848576118476139d3565b5b815260200182604001516003811115611864576118636139d3565b5b8152602001826060015160ff168152602001826080015160ff1681526020018260a0015160ff1681526020018260c0015160ff1681526020018260e0015160ff16815260200182610100015161ffff1681526020016118c2856118f1565b73ffffffffffffffffffffffffffffffffffffffff1681526020016118e68561208a565b815250915050919050565b6000806002600084815260200190815260200160002060009054906101000a900473ffffffffffffffffffffffffffffffffffffffff169050600073ffffffffffffffffffffffffffffffffffffffff168173ffffffffffffffffffffffffffffffffffffffff16141561199a576040517f08c379a0000000000000000000000000000000000000000000000000000000008152600401611991906148c1565b60405180910390fd5b80915050919050565b60008073ffffffffffffffffffffffffffffffffffffffff168273ffffffffffffffffffffffffffffffffffffffff161415611a14576040517f08c379a0000000000000000000000000000000000000000000000000000000008152600401611a0b90614953565b60405180910390fd5b600360008373ffffffffffffffffffffffffffffffffffffffff1673ffffffffffffffffffffffffffffffffffffffff168152602001908152602001600020549050919050565b611a636123e8565b73ffffffffffffffffffffffffffffffffffffffff16611a81611b04565b73ffffffffffffffffffffffffffffffffffffffff1614611ad7576040517f08c379a0000000000000000000000000000000000000000000000000000000008152600401611ace906144a1565b60405180910390fd5b611ae160006129a1565b565b6060611aee3361054f565b905090565b6000611aff6008612304565b905090565b6000600760009054906101000a900473ffffffffffffffffffffffffffffffffffffffff16905090565b606060018054611b3d9061426d565b80601f0160208091040260200160405190810160405280929190818152602001828054611b699061426d565b8015611bb65780601f10611b8b57610100808354040283529160200191611bb6565b820191906000526020600020905b815481529060010190602001808311611b9957829003601f168201915b5050505050905090565b6060600a805480602002602001604051908101604052809291908181526020016000905b82821015611dd0578382906000526020600020906002020160405180610120016040529081600082018054611c189061426d565b80601f0160208091040260200160405190810160405280929190818152602001828054611c449061426d565b8015611c915780601f10611c6657610100808354040283529160200191611c91565b820191906000526020600020905b815481529060010190602001808311611c7457829003601f168201915b505050505081526020016001820160009054906101000a900460ff166003811115611cbf57611cbe6139d3565b5b6003811115611cd157611cd06139d3565b5b81526020016001820160019054906101000a900460ff166003811115611cfa57611cf96139d3565b5b6003811115611d0c57611d0b6139d3565b5b81526020016001820160029054906101000a900460ff1660ff1660ff1681526020016001820160039054906101000a900460ff1660ff1660ff1681526020016001820160049054906101000a900460ff1660ff1660ff1681526020016001820160059054906101000a900460ff1660ff1660ff1681526020016001820160069054906101000a900460ff1660ff1660ff1681526020016001820160079054906101000a900461ffff1661ffff1661ffff168152505081526020019060010190611be4565b50505050905090565b611de16123e8565b73ffffffffffffffffffffffffffffffffffffffff168273ffffffffffffffffffffffffffffffffffffffff161415611e4f576040517f08c379a0000000000000000000000000000000000000000000000000000000008152600401611e46906149bf565b60405180910390fd5b8060056000611e5c6123e8565b73ffffffffffffffffffffffffffffffffffffffff1673ffffffffffffffffffffffffffffffffffffffff16815260200190815260200160002060008473ffffffffffffffffffffffffffffffffffffffff1673ffffffffffffffffffffffffffffffffffffffff16815260200190815260200160002060006101000a81548160ff0219169083151502179055508173ffffffffffffffffffffffffffffffffffffffff16611f096123e8565b73ffffffffffffffffffffffffffffffffffffffff167f17307eab39ab6107e8899845ad3d59bd9653f200f220920489ca2b5937696c3183604051611f4e9190613602565b60405180910390a35050565b611f626123e8565b73ffffffffffffffffffffffffffffffffffffffff16611f80611b04565b73ffffffffffffffffffffffffffffffffffffffff1614611fd6576040517f08c379a0000000000000000000000000000000000000000000000000000000008152600401611fcd906144a1565b60405180910390fd5b600960008273ffffffffffffffffffffffffffffffffffffffff1673ffffffffffffffffffffffffffffffffffffffff16815260200190815260200160002060006101000a81549060ff021916905550565b6120396120336123e8565b83612667565b612078576040517f08c379a000000000000000000000000000000000000000000000000000000000815260040161206f906145e7565b60405180910390fd5b61208484848484612a67565b50505050565b6060600b61209783612ac3565b6040516020016120a8929190614aaf565b6040516020818303038152906040529050919050565b6000600560008473ffffffffffffffffffffffffffffffffffffffff1673ffffffffffffffffffffffffffffffffffffffff16815260200190815260200160002060008373ffffffffffffffffffffffffffffffffffffffff1673ffffffffffffffffffffffffffffffffffffffff16815260200190815260200160002060009054906101000a900460ff16905092915050565b61215a6123e8565b73ffffffffffffffffffffffffffffffffffffffff16612178611b04565b73ffffffffffffffffffffffffffffffffffffffff16146121ce576040517f08c379a00000000000000000000000000000000000000000000000000000000081526004016121c5906144a1565b60405180910390fd5b600073ffffffffffffffffffffffffffffffffffffffff168173ffffffffffffffffffffffffffffffffffffffff16141561223e576040517f08c379a000000000000000000000000000000000000000000000000000000000815260040161223590614b45565b60405180910390fd5b612247816129a1565b50565b612253826118f1565b73ffffffffffffffffffffffffffffffffffffffff163373ffffffffffffffffffffffffffffffffffffffff16146122c0576040517f08c379a00000000000000000000000000000000000000000000000000000000081526004016122b790614bb1565b60405180910390fd5b6000600a83815481106122d6576122d561420f565b5b90600052602060002090600202019050818160000190805190602001906122fe92919061320c565b50505050565b600081600001549050919050565b60007f01ffc9a7000000000000000000000000000000000000000000000000000000007bffffffffffffffffffffffffffffffffffffffffffffffffffffffff1916827bffffffffffffffffffffffffffffffffffffffffffffffffffffffff1916149050919050565b60008073ffffffffffffffffffffffffffffffffffffffff166002600084815260200190815260200160002060009054906101000a900473ffffffffffffffffffffffffffffffffffffffff1673ffffffffffffffffffffffffffffffffffffffff1614159050919050565b600033905090565b816004600083815260200190815260200160002060006101000a81548173ffffffffffffffffffffffffffffffffffffffff021916908373ffffffffffffffffffffffffffffffffffffffff160217905550808273ffffffffffffffffffffffffffffffffffffffff16612463836118f1565b73ffffffffffffffffffffffffffffffffffffffff167f8c5be1e5ebec7d5bd14f71427d1e84f3dd0314c0f7b2291e5b200ac8c7c3b92560405160405180910390a45050565b6000804342336040516020016124bf9190614c19565b6040516020818303038152906040528051906020012060001c6124e29190614c63565b4542416040516020016124f59190614ccf565b6040516020818303038152906040528051906020012060001c6125189190614c63565b444261252491906144f5565b61252e91906144f5565b61253891906144f5565b61254291906144f5565b61254c91906144f5565b60405160200161255c9190614d0b565b6040516020818303038152906040528051906020012060001c90506001836125849190614d26565b60ff166001846125949190614d26565b60ff16826125a29190614c63565b6125ac9190614d5d565b816125b79190614db7565b915050919050565b6125d9828260405180602001604052806000815250612c15565b5050565b6125e68261237c565b612625576040517f08c379a000000000000000000000000000000000000000000000000000000000815260040161261c90614e5d565b60405180910390fd5b8060066000848152602001908152602001600020908051906020019061264c92919061320c565b505050565b6001816000016000828254019250508190555050565b60006126728261237c565b6126b1576040517f08c379a00000000000000000000000000000000000000000000000000000000081526004016126a890614eef565b60405180910390fd5b60006126bc836118f1565b90508073ffffffffffffffffffffffffffffffffffffffff168473ffffffffffffffffffffffffffffffffffffffff16148061272b57508373ffffffffffffffffffffffffffffffffffffffff1661271384610820565b73ffffffffffffffffffffffffffffffffffffffff16145b8061273c575061273b81856120be565b5b91505092915050565b8273ffffffffffffffffffffffffffffffffffffffff16612765826118f1565b73ffffffffffffffffffffffffffffffffffffffff16146127bb576040517f08c379a00000000000000000000000000000000000000000000000000000000081526004016127b290614f81565b60405180910390fd5b600073ffffffffffffffffffffffffffffffffffffffff168273ffffffffffffffffffffffffffffffffffffffff16141561282b576040517f08c379a000000000000000000000000000000000000000000000000000000000815260040161282290615013565b60405180910390fd5b612836838383612c70565b6128416000826123f0565b6001600360008573ffffffffffffffffffffffffffffffffffffffff1673ffffffffffffffffffffffffffffffffffffffff16815260200190815260200160002060008282546128919190614db7565b925050819055506001600360008473ffffffffffffffffffffffffffffffffffffffff1673ffffffffffffffffffffffffffffffffffffffff16815260200190815260200160002060008282546128e891906144f5565b92505081905550816002600083815260200190815260200160002060006101000a81548173ffffffffffffffffffffffffffffffffffffffff021916908373ffffffffffffffffffffffffffffffffffffffff160217905550808273ffffffffffffffffffffffffffffffffffffffff168473ffffffffffffffffffffffffffffffffffffffff167fddf252ad1be2c89b69c2b068fc378daa952ba7f163c4a11628f55a4df523b3ef60405160405180910390a4505050565b6000600760009054906101000a900473ffffffffffffffffffffffffffffffffffffffff16905081600760006101000a81548173ffffffffffffffffffffffffffffffffffffffff021916908373ffffffffffffffffffffffffffffffffffffffff1602179055508173ffffffffffffffffffffffffffffffffffffffff168173ffffffffffffffffffffffffffffffffffffffff167f8be0079c531659141344cd1fd0a4f28419497f9722a3daafe3b4186f6b6457e060405160405180910390a35050565b612a72848484612745565b612a7e84848484612c75565b612abd576040517f08c379a0000000000000000000000000000000000000000000000000000000008152600401612ab4906150a5565b60405180910390fd5b50505050565b6060612ace8261237c565b612b0d576040517f08c379a0000000000000000000000000000000000000000000000000000000008152600401612b0490615137565b60405180910390fd5b6000600660008481526020019081526020016000208054612b2d9061426d565b80601f0160208091040260200160405190810160405280929190818152602001828054612b599061426d565b8015612ba65780601f10612b7b57610100808354040283529160200191612ba6565b820191906000526020600020905b815481529060010190602001808311612b8957829003601f168201915b505050505090506000612bb7612e0c565b9050600081511415612bcd578192505050612c10565b600082511115612c02578082604051602001612bea929190615157565b60405160208183030381529060405292505050612c10565b612c0b84612e23565b925050505b919050565b612c1f8383612eca565b612c2c6000848484612c75565b612c6b576040517f08c379a0000000000000000000000000000000000000000000000000000000008152600401612c62906150a5565b60405180910390fd5b505050565b505050565b6000612c968473ffffffffffffffffffffffffffffffffffffffff16613098565b15612dff578373ffffffffffffffffffffffffffffffffffffffff1663150b7a02612cbf6123e8565b8786866040518563ffffffff1660e01b8152600401612ce194939291906151d0565b602060405180830381600087803b158015612cfb57600080fd5b505af1925050508015612d2c57506040513d601f19601f82011682018060405250810190612d299190615231565b60015b612daf573d8060008114612d5c576040519150601f19603f3d011682016040523d82523d6000602084013e612d61565b606091505b50600081511415612da7576040517f08c379a0000000000000000000000000000000000000000000000000000000008152600401612d9e906150a5565b60405180910390fd5b805181602001fd5b63150b7a0260e01b7bffffffffffffffffffffffffffffffffffffffffffffffffffffffff1916817bffffffffffffffffffffffffffffffffffffffffffffffffffffffff191614915050612e04565b600190505b949350505050565b606060405180602001604052806000815250905090565b6060612e2e8261237c565b612e6d576040517f08c379a0000000000000000000000000000000000000000000000000000000008152600401612e64906152d0565b60405180910390fd5b6000612e77612e0c565b90506000815111612e975760405180602001604052806000815250612ec2565b80612ea1846130ab565b604051602001612eb2929190615157565b6040516020818303038152906040525b915050919050565b600073ffffffffffffffffffffffffffffffffffffffff168273ffffffffffffffffffffffffffffffffffffffff161415612f3a576040517f08c379a0000000000000000000000000000000000000000000000000000000008152600401612f319061533c565b60405180910390fd5b612f438161237c565b15612f83576040517f08c379a0000000000000000000000000000000000000000000000000000000008152600401612f7a906153a8565b60405180910390fd5b612f8f60008383612c70565b6001600360008473ffffffffffffffffffffffffffffffffffffffff1673ffffffffffffffffffffffffffffffffffffffff1681526020019081526020016000206000828254612fdf91906144f5565b92505081905550816002600083815260200190815260200160002060006101000a81548173ffffffffffffffffffffffffffffffffffffffff021916908373ffffffffffffffffffffffffffffffffffffffff160217905550808273ffffffffffffffffffffffffffffffffffffffff16600073ffffffffffffffffffffffffffffffffffffffff167fddf252ad1be2c89b69c2b068fc378daa952ba7f163c4a11628f55a4df523b3ef60405160405180910390a45050565b600080823b905060008111915050919050565b606060008214156130f3576040518060400160405280600181526020017f30000000000000000000000000000000000000000000000000000000000000008152509050613207565b600082905060005b6000821461312557808061310e906141c6565b915050600a8261311e9190614c63565b91506130fb565b60008167ffffffffffffffff811115613141576131406137ef565b5b6040519080825280601f01601f1916602001820160405280156131735781602001600182028036833780820191505090505b5090505b600085146132005760018261318c9190614db7565b9150600a8561319b91906153c8565b60306131a791906144f5565b60f81b8183815181106131bd576131bc61420f565b5b60200101907effffffffffffffffffffffffffffffffffffffffffffffffffffffffffffff1916908160001a905350600a856131f99190614c63565b9450613177565b8093505050505b919050565b8280546132189061426d565b90600052602060002090601f01602090048101928261323a5760008555613281565b82601f1061325357805160ff1916838001178555613281565b82800160010185558215613281579182015b82811115613280578251825591602001919060010190613265565b5b50905061328e91906133bc565b5090565b60405180610120016040528060608152602001600060038111156132b9576132b86139d3565b5b8152602001600060038111156132d2576132d16139d3565b5b8152602001600060ff168152602001600060ff168152602001600060ff168152602001600060ff168152602001600060ff168152602001600061ffff1681525090565b604051806101600160405280606081526020016000600381111561333c5761333b6139d3565b5b815260200160006003811115613355576133546139d3565b5b8152602001600060ff168152602001600060ff168152602001600060ff168152602001600060ff168152602001600060ff168152602001600061ffff168152602001600073ffffffffffffffffffffffffffffffffffffffff168152602001606081525090565b5b808211156133d55760008160009055506001016133bd565b5090565b6000604051905090565b600080fd5b600080fd5b600073ffffffffffffffffffffffffffffffffffffffff82169050919050565b6000613418826133ed565b9050919050565b6134288161340d565b811461343357600080fd5b50565b6000813590506134458161341f565b92915050565b600060208284031215613461576134606133e3565b5b600061346f84828501613436565b91505092915050565b600081519050919050565b600082825260208201905092915050565b6000819050602082019050919050565b6000819050919050565b6134b7816134a4565b82525050565b60006134c983836134ae565b60208301905092915050565b6000602082019050919050565b60006134ed82613478565b6134f78185613483565b935061350283613494565b8060005b8381101561353357815161351a88826134bd565b9750613525836134d5565b925050600181019050613506565b5085935050505092915050565b6000602082019050818103600083015261355a81846134e2565b905092915050565b60007fffffffff0000000000000000000000000000000000000000000000000000000082169050919050565b61359781613562565b81146135a257600080fd5b50565b6000813590506135b48161358e565b92915050565b6000602082840312156135d0576135cf6133e3565b5b60006135de848285016135a5565b91505092915050565b60008115159050919050565b6135fc816135e7565b82525050565b600060208201905061361760008301846135f3565b92915050565b600081519050919050565b600082825260208201905092915050565b60005b8381101561365757808201518184015260208101905061363c565b83811115613666576000848401525b50505050565b6000601f19601f8301169050919050565b60006136888261361d565b6136928185613628565b93506136a2818560208601613639565b6136ab8161366c565b840191505092915050565b600060208201905081810360008301526136d0818461367d565b905092915050565b6136e1816134a4565b81146136ec57600080fd5b50565b6000813590506136fe816136d8565b92915050565b60006020828403121561371a576137196133e3565b5b6000613728848285016136ef565b91505092915050565b61373a8161340d565b82525050565b60006020820190506137556000830184613731565b92915050565b60008060408385031215613772576137716133e3565b5b600061378085828601613436565b9250506020613791858286016136ef565b9150509250929050565b600481106137a857600080fd5b50565b6000813590506137ba8161379b565b92915050565b600481106137cd57600080fd5b50565b6000813590506137df816137c0565b92915050565b600080fd5b600080fd5b7f4e487b7100000000000000000000000000000000000000000000000000000000600052604160045260246000fd5b6138278261366c565b810181811067ffffffffffffffff82111715613846576138456137ef565b5b80604052505050565b60006138596133d9565b9050613865828261381e565b919050565b600067ffffffffffffffff821115613885576138846137ef565b5b61388e8261366c565b9050602081019050919050565b82818337600083830152505050565b60006138bd6138b88461386a565b61384f565b9050828152602081018484840111156138d9576138d86137ea565b5b6138e484828561389b565b509392505050565b600082601f830112613901576139006137e5565b5b81356139118482602086016138aa565b91505092915050565b600080600060608486031215613933576139326133e3565b5b6000613941868287016137ab565b9350506020613952868287016137d0565b925050604084013567ffffffffffffffff811115613973576139726133e8565b5b61397f868287016138ec565b9150509250925092565b600082825260208201905092915050565b60006139a58261361d565b6139af8185613989565b93506139bf818560208601613639565b6139c88161366c565b840191505092915050565b7f4e487b7100000000000000000000000000000000000000000000000000000000600052602160045260246000fd5b60048110613a1357613a126139d3565b5b50565b6000819050613a2482613a02565b919050565b6000613a3482613a16565b9050919050565b613a4481613a29565b82525050565b60048110613a5b57613a5a6139d3565b5b50565b6000819050613a6c82613a4a565b919050565b6000613a7c82613a5e565b9050919050565b613a8c81613a71565b82525050565b600060ff82169050919050565b613aa881613a92565b82525050565b600061ffff82169050919050565b613ac581613aae565b82525050565b6000610120830160008301518482036000860152613ae9828261399a565b9150506020830151613afe6020860182613a3b565b506040830151613b116040860182613a83565b506060830151613b246060860182613a9f565b506080830151613b376080860182613a9f565b5060a0830151613b4a60a0860182613a9f565b5060c0830151613b5d60c0860182613a9f565b5060e0830151613b7060e0860182613a9f565b50610100830151613b85610100860182613abc565b508091505092915050565b60006020820190508181036000830152613baa8184613acb565b905092915050565b600080600060608486031215613bcb57613bca6133e3565b5b6000613bd986828701613436565b9350506020613bea86828701613436565b9250506040613bfb868287016136ef565b9150509250925092565b613c0e81613aae565b8114613c1957600080fd5b50565b600081359050613c2b81613c05565b92915050565b60008060408385031215613c4857613c476133e3565b5b6000613c56858286016136ef565b9250506020613c6785828601613c1c565b9150509250929050565b613c7a8161340d565b82525050565b6000610160830160008301518482036000860152613c9e828261399a565b9150506020830151613cb36020860182613a3b565b506040830151613cc66040860182613a83565b506060830151613cd96060860182613a9f565b506080830151613cec6080860182613a9f565b5060a0830151613cff60a0860182613a9f565b5060c0830151613d1260c0860182613a9f565b5060e0830151613d2560e0860182613a9f565b50610100830151613d3a610100860182613abc565b50610120830151613d4f610120860182613c71565b50610140830151848203610140860152613d69828261399a565b9150508091505092915050565b60006020820190508181036000830152613d908184613c80565b905092915050565b613da1816134a4565b82525050565b6000602082019050613dbc6000830184613d98565b92915050565b600081519050919050565b600082825260208201905092915050565b6000819050602082019050919050565b6000610120830160008301518482036000860152613e0c828261399a565b9150506020830151613e216020860182613a3b565b506040830151613e346040860182613a83565b506060830151613e476060860182613a9f565b506080830151613e5a6080860182613a9f565b5060a0830151613e6d60a0860182613a9f565b5060c0830151613e8060c0860182613a9f565b5060e0830151613e9360e0860182613a9f565b50610100830151613ea8610100860182613abc565b508091505092915050565b6000613ebf8383613dee565b905092915050565b6000602082019050919050565b6000613edf82613dc2565b613ee98185613dcd565b935083602082028501613efb85613dde565b8060005b85811015613f375784840389528151613f188582613eb3565b9450613f2383613ec7565b925060208a01995050600181019050613eff565b50829750879550505050505092915050565b60006020820190508181036000830152613f638184613ed4565b905092915050565b613f74816135e7565b8114613f7f57600080fd5b50565b600081359050613f9181613f6b565b92915050565b60008060408385031215613fae57613fad6133e3565b5b6000613fbc85828601613436565b9250506020613fcd85828601613f82565b9150509250929050565b600067ffffffffffffffff821115613ff257613ff16137ef565b5b613ffb8261366c565b9050602081019050919050565b600061401b61401684613fd7565b61384f565b905082815260208101848484011115614037576140366137ea565b5b61404284828561389b565b509392505050565b600082601f83011261405f5761405e6137e5565b5b813561406f848260208601614008565b91505092915050565b60008060008060808587031215614092576140916133e3565b5b60006140a087828801613436565b94505060206140b187828801613436565b93505060406140c2878288016136ef565b925050606085013567ffffffffffffffff8111156140e3576140e26133e8565b5b6140ef8782880161404a565b91505092959194509250565b60008060408385031215614112576141116133e3565b5b600061412085828601613436565b925050602061413185828601613436565b9150509250929050565b60008060408385031215614152576141516133e3565b5b6000614160858286016136ef565b925050602083013567ffffffffffffffff811115614181576141806133e8565b5b61418d858286016138ec565b9150509250929050565b7f4e487b7100000000000000000000000000000000000000000000000000000000600052601160045260246000fd5b60006141d1826134a4565b91507fffffffffffffffffffffffffffffffffffffffffffffffffffffffffffffffff82141561420457614203614197565b5b600182019050919050565b7f4e487b7100000000000000000000000000000000000000000000000000000000600052603260045260246000fd5b7f4e487b7100000000000000000000000000000000000000000000000000000000600052602260045260246000fd5b6000600282049050600182168061428557607f821691505b602082108114156142995761429861423e565b5b50919050565b7f4552433732313a20617070726f76656420717565727920666f72206e6f6e657860008201527f697374656e7420746f6b656e0000000000000000000000000000000000000000602082015250565b60006142fb602c83613628565b91506143068261429f565b604082019050919050565b6000602082019050818103600083015261432a816142ee565b9050919050565b7f4552433732313a20617070726f76616c20746f2063757272656e74206f776e6560008201527f7200000000000000000000000000000000000000000000000000000000000000602082015250565b600061438d602183613628565b915061439882614331565b604082019050919050565b600060208201905081810360008301526143bc81614380565b9050919050565b7f4552433732313a20617070726f76652063616c6c6572206973206e6f74206f7760008201527f6e6572206e6f7220617070726f76656420666f7220616c6c0000000000000000602082015250565b600061441f603883613628565b915061442a826143c3565b604082019050919050565b6000602082019050818103600083015261444e81614412565b9050919050565b7f4f776e61626c653a2063616c6c6572206973206e6f7420746865206f776e6572600082015250565b600061448b602083613628565b915061449682614455565b602082019050919050565b600060208201905081810360008301526144ba8161447e565b9050919050565b60006144cc82613a92565b91506144d783613a92565b9250828210156144ea576144e9614197565b5b828203905092915050565b6000614500826134a4565b915061450b836134a4565b9250827fffffffffffffffffffffffffffffffffffffffffffffffffffffffffffffffff038211156145405761453f614197565b5b828201905092915050565b600061455682613a92565b915060ff82141561456a57614569614197565b5b600182019050919050565b7f4552433732313a207472616e736665722063616c6c6572206973206e6f74206f60008201527f776e6572206e6f7220617070726f766564000000000000000000000000000000602082015250565b60006145d1603183613628565b91506145dc82614575565b604082019050919050565b60006020820190508181036000830152614600816145c4565b9050919050565b7f4f6e6c79207065726d697474656420616464726573732063616e20657865637560008201527f7465207468697320616374696f6e000000000000000000000000000000000000602082015250565b6000614663602e83613628565b915061466e82614607565b604082019050919050565b6000602082019050818103600083015261469281614656565b9050919050565b60006146a482613aae565b91506146af83613aae565b92508261ffff038211156146c6576146c5614197565b5b828201905092915050565b60008160011c9050919050565b6000808291508390505b60018511156147285780860481111561470457614703614197565b5b60018516156147135780820291505b8081029050614721856146d1565b94506146e8565b94509492505050565b60008261474157600190506147fd565b8161474f57600090506147fd565b8160018114614765576002811461476f5761479e565b60019150506147fd565b60ff84111561478157614780614197565b5b8360020a91508482111561479857614797614197565b5b506147fd565b5060208310610133831016604e8410600b84101617156147d35782820a9050838111156147ce576147cd614197565b5b6147fd565b6147e084848460016146de565b925090508184048111156147f7576147f6614197565b5b81810290505b9392505050565b600061480f826134a4565b915061481a83613a92565b92506148477fffffffffffffffffffffffffffffffffffffffffffffffffffffffffffffffff8484614731565b905092915050565b7f4552433732313a206f776e657220717565727920666f72206e6f6e657869737460008201527f656e7420746f6b656e0000000000000000000000000000000000000000000000602082015250565b60006148ab602983613628565b91506148b68261484f565b604082019050919050565b600060208201905081810360008301526148da8161489e565b9050919050565b7f4552433732313a2062616c616e636520717565727920666f7220746865207a6560008201527f726f206164647265737300000000000000000000000000000000000000000000602082015250565b600061493d602a83613628565b9150614948826148e1565b604082019050919050565b6000602082019050818103600083015261496c81614930565b9050919050565b7f4552433732313a20617070726f766520746f2063616c6c657200000000000000600082015250565b60006149a9601983613628565b91506149b482614973565b602082019050919050565b600060208201905081810360008301526149d88161499c565b9050919050565b600081905092915050565b60008190508160005260206000209050919050565b60008154614a0c8161426d565b614a1681866149df565b94506001821660008114614a315760018114614a4257614a75565b60ff19831686528186019350614a75565b614a4b856149ea565b60005b83811015614a6d57815481890152600182019150602081019050614a4e565b838801955050505b50505092915050565b6000614a898261361d565b614a9381856149df565b9350614aa3818560208601613639565b80840191505092915050565b6000614abb82856149ff565b9150614ac78284614a7e565b91508190509392505050565b7f4f776e61626c653a206e6577206f776e657220697320746865207a65726f206160008201527f6464726573730000000000000000000000000000000000000000000000000000602082015250565b6000614b2f602683613628565b9150614b3a82614ad3565b604082019050919050565b60006020820190508181036000830152614b5e81614b22565b9050919050565b7f4e6f74206f776e65720000000000000000000000000000000000000000000000600082015250565b6000614b9b600983613628565b9150614ba682614b65565b602082019050919050565b60006020820190508181036000830152614bca81614b8e565b9050919050565b60008160601b9050919050565b6000614be982614bd1565b9050919050565b6000614bfb82614bde565b9050919050565b614c13614c0e8261340d565b614bf0565b82525050565b6000614c258284614c02565b60148201915081905092915050565b7f4e487b7100000000000000000000000000000000000000000000000000000000600052601260045260246000fd5b6000614c6e826134a4565b9150614c79836134a4565b925082614c8957614c88614c34565b5b828204905092915050565b6000614c9f826133ed565b9050919050565b6000614cb182614bde565b9050919050565b614cc9614cc482614c94565b614ca6565b82525050565b6000614cdb8284614cb8565b60148201915081905092915050565b6000819050919050565b614d05614d00826134a4565b614cea565b82525050565b6000614d178284614cf4565b60208201915081905092915050565b6000614d3182613a92565b9150614d3c83613a92565b92508260ff03821115614d5257614d51614197565b5b828201905092915050565b6000614d68826134a4565b9150614d73836134a4565b9250817fffffffffffffffffffffffffffffffffffffffffffffffffffffffffffffffff0483118215151615614dac57614dab614197565b5b828202905092915050565b6000614dc2826134a4565b9150614dcd836134a4565b925082821015614de057614ddf614197565b5b828203905092915050565b7f45524337323155524953746f726167653a2055524920736574206f66206e6f6e60008201527f6578697374656e7420746f6b656e000000000000000000000000000000000000602082015250565b6000614e47602e83613628565b9150614e5282614deb565b604082019050919050565b60006020820190508181036000830152614e7681614e3a565b9050919050565b7f4552433732313a206f70657261746f7220717565727920666f72206e6f6e657860008201527f697374656e7420746f6b656e0000000000000000000000000000000000000000602082015250565b6000614ed9602c83613628565b9150614ee482614e7d565b604082019050919050565b60006020820190508181036000830152614f0881614ecc565b9050919050565b7f4552433732313a207472616e73666572206f6620746f6b656e2074686174206960008201527f73206e6f74206f776e0000000000000000000000000000000000000000000000602082015250565b6000614f6b602983613628565b9150614f7682614f0f565b604082019050919050565b60006020820190508181036000830152614f9a81614f5e565b9050919050565b7f4552433732313a207472616e7366657220746f20746865207a65726f2061646460008201527f7265737300000000000000000000000000000000000000000000000000000000602082015250565b6000614ffd602483613628565b915061500882614fa1565b604082019050919050565b6000602082019050818103600083015261502c81614ff0565b9050919050565b7f4552433732313a207472616e7366657220746f206e6f6e20455243373231526560008201527f63656976657220696d706c656d656e7465720000000000000000000000000000602082015250565b600061508f603283613628565b915061509a82615033565b604082019050919050565b600060208201905081810360008301526150be81615082565b9050919050565b7f45524337323155524953746f726167653a2055524920717565727920666f722060008201527f6e6f6e6578697374656e7420746f6b656e000000000000000000000000000000602082015250565b6000615121603183613628565b915061512c826150c5565b604082019050919050565b6000602082019050818103600083015261515081615114565b9050919050565b60006151638285614a7e565b915061516f8284614a7e565b91508190509392505050565b600081519050919050565b600082825260208201905092915050565b60006151a28261517b565b6151ac8185615186565b93506151bc818560208601613639565b6151c58161366c565b840191505092915050565b60006080820190506151e56000830187613731565b6151f26020830186613731565b6151ff6040830185613d98565b81810360608301526152118184615197565b905095945050505050565b60008151905061522b8161358e565b92915050565b600060208284031215615247576152466133e3565b5b60006152558482850161521c565b91505092915050565b7f4552433732314d657461646174613a2055524920717565727920666f72206e6f60008201527f6e6578697374656e7420746f6b656e0000000000000000000000000000000000602082015250565b60006152ba602f83613628565b91506152c58261525e565b604082019050919050565b600060208201905081810360008301526152e9816152ad565b9050919050565b7f4552433732313a206d696e7420746f20746865207a65726f2061646472657373600082015250565b6000615326602083613628565b9150615331826152f0565b602082019050919050565b6000602082019050818103600083015261535581615319565b9050919050565b7f4552433732313a20746f6b656e20616c7265616479206d696e74656400000000600082015250565b6000615392601c83613628565b915061539d8261535c565b602082019050919050565b600060208201905081810360008301526153c181615385565b9050919050565b60006153d3826134a4565b91506153de836134a4565b9250826153ee576153ed614c34565b5b82820690509291505056fea26469706673582212208899d6385aba087e8a0f0aacfcba0635ea5c2e742617b76672124891c0751e1464736f6c63430008090033",
  "immutableReferences": {},
  "source": "// SPDX-License-Identifier: MIT\npragma solidity 0.8.9;\n\nimport \"../node_modules/@openzeppelin/contracts/token/ERC721/extensions/ERC721URIStorage.sol\";\nimport \"../node_modules/@openzeppelin/contracts/utils/Counters.sol\";\nimport \"../node_modules/@openzeppelin/contracts/access/Ownable.sol\";\n\ncontract GameToken is ERC721URIStorage, Ownable {\n    event HeroLevelUp(uint256 indexed tokenId, uint8 indexed level);\n    event NewCurrXP(uint256 indexed tokenId, uint16 indexed currXP);\n\n    using Counters for Counters.Counter;\n    Counters.Counter private _currentHeroId;\n\n    mapping(address => bool) private _levelUpPermittedAddress;\n\n    enum HeroType {\n        FIGHTER,\n        ROGUE,\n        MAGE,\n        TANK\n    }\n    enum HeroRarity {\n        COMMON,\n        UNCOMMON,\n        RARE,\n        LEGENDARY\n    }\n\n    struct Hero {\n        string name;\n        HeroType heroType;\n        HeroRarity rarity;\n        uint8 str;\n        uint8 con;\n        uint8 dex;\n        uint8 wis;\n        uint8 level;\n        uint16 currXP;\n    }\n\n    struct HeroDTO {\n        string name;\n        HeroType heroType;\n        HeroRarity rarity;\n        uint8 str;\n        uint8 con;\n        uint8 dex;\n        uint8 wis;\n        uint8 level;\n        uint16 currXP;\n        address owner;\n        string tokenURI;\n    }\n\n    Hero[] private _heroes;\n\n    string private _baseTokenURI;\n\n    mapping(HeroType => uint8[]) private _mapMint;\n\n    constructor(\n        string memory name,\n        string memory symbol,\n        string memory baseTokenURI\n    ) ERC721(name, symbol) {\n        _baseTokenURI = baseTokenURI;\n\n        _mapMint[HeroType.FIGHTER] = [0, 1, 0, 2, 3, 1];\n        _mapMint[HeroType.ROGUE] = [2, 2, 0, 3, 0, 2];\n        _mapMint[HeroType.MAGE] = [3, 3, 2, 1, 0, 3];\n        _mapMint[HeroType.TANK] = [1, 1, 0, 2, 3, 1];\n    }\n\n    function addLevelUpPermittedAddress(address newAddress) external onlyOwner {\n        _levelUpPermittedAddress[newAddress] = true;\n    }\n\n    function removeLevelUpPermittedAddress(address newAddress)\n        external\n        onlyOwner\n    {\n        delete _levelUpPermittedAddress[newAddress];\n    }\n\n    modifier onlyLevelUpPermittedAddress() {\n        require(\n            _levelUpPermittedAddress[_msgSender()],\n            \"Only permitted address can execute this action\"\n        );\n        _;\n    }\n\n    function getHeroes() external view returns (Hero[] memory) {\n        return _heroes;\n    }\n\n    function getNextHeroId() external view returns (uint256) {\n        return _currentHeroId.current();\n    }\n\n    function mint(\n        HeroType _heroType,\n        HeroRarity _heroRarity,\n        string memory _tokenURI\n    ) public onlyOwner {\n        uint256 newHeroId = _currentHeroId.current();\n\n        uint8 minAttr;\n        uint8 maxAttr;\n\n        if (_heroRarity == HeroRarity.COMMON) {\n            minAttr = 4;\n            maxAttr = 6;\n        } else if (_heroRarity == HeroRarity.UNCOMMON) {\n            minAttr = 7;\n            maxAttr = 8;\n        } else if (_heroRarity == HeroRarity.RARE) {\n            minAttr = 9;\n            maxAttr = 10;\n        } else {\n            minAttr = 11;\n            maxAttr = 12;\n        }\n\n        uint256 attrsSize = rand(maxAttr - minAttr) + minAttr;\n\n        uint8[] memory attrs = new uint8[](4);\n        attrs[0] = 1;\n        attrs[1] = 1;\n        attrs[2] = 1;\n        attrs[3] = 1;\n        uint8 attrCounter = 0;\n\n        for (uint8 i = 1; i <= attrsSize; i++) {\n            attrs[_mapMint[_heroType][attrCounter]]++;\n            if (attrCounter == 5) {\n                attrCounter = 0;\n            } else {\n                attrCounter++;\n            }\n        }\n\n        _safeMint(msg.sender, newHeroId);\n        _setTokenURI(newHeroId, _tokenURI);\n        _heroes.push(\n            Hero(\n                \"\",\n                _heroType,\n                _heroRarity,\n                attrs[0],\n                attrs[1],\n                attrs[2],\n                attrs[3],\n                1,\n                0\n            )\n        );\n\n        _currentHeroId.increment();\n    }\n\n    function getHeroesByAddress(address owner)\n        public\n        view\n        returns (uint256[] memory)\n    {\n        uint256 heroCount = balanceOf(owner);\n\n        if (heroCount == 0) {\n            return new uint256[](0);\n        } else {\n            uint256[] memory ret = new uint256[](heroCount);\n            uint256 i;\n            uint256 curIndex = 0;\n\n            for (i = 0; i < _currentHeroId.current(); i++) {\n                if (ownerOf(i) == owner) {\n                    ret[curIndex++] = i;\n                }\n            }\n\n            return ret;\n        }\n    }\n\n    function getMyHeroes() external view returns (uint256[] memory) {\n        return getHeroesByAddress(msg.sender);\n    }\n\n    function getHero(uint256 _heroId) external view returns (Hero memory) {\n        return _heroes[_heroId];\n    }\n\n    function getHeroComplete(uint256 _heroId)\n        external\n        view\n        returns (HeroDTO memory)\n    {\n        Hero memory h = _heroes[_heroId];\n\n        return\n            HeroDTO(\n                h.name,\n                h.heroType,\n                h.rarity,\n                h.str,\n                h.con,\n                h.dex,\n                h.wis,\n                h.level,\n                h.currXP,\n                ownerOf(_heroId),\n                tokenURI(_heroId)\n            );\n    }\n\n    function setName(uint256 _heroId, string memory _name) external {\n        require(msg.sender == ownerOf(_heroId), \"Not owner\");\n        Hero storage hero = _heroes[_heroId];\n\n        hero.name = _name;\n    }\n\n    function levelUp(uint256 _heroId, uint16 _xp) external onlyLevelUpPermittedAddress {\n        Hero storage hero = _heroes[_heroId];\n\n        hero.currXP += _xp;\n\n        emit NewCurrXP(_heroId, hero.currXP);\n\n        if (hero.currXP >= 2**hero.level) {\n            hero.level++;\n            hero.currXP = 0;\n\n            uint256 random = rand(3);\n\n            if (random == 0) {\n                hero.str++;\n            } else if (random == 1) {\n                hero.con++;\n            } else if (random == 2) {\n                hero.dex++;\n            } else if (random == 3) {\n                hero.wis++;\n            }\n\n            emit HeroLevelUp(_heroId, hero.level);\n        }\n    }\n\n    function rand(uint8 limit) private view returns (uint256) {\n        uint256 seed = uint256(\n            keccak256(\n                abi.encodePacked(\n                    block.timestamp +\n                        block.difficulty +\n                        ((\n                            uint256(keccak256(abi.encodePacked(block.coinbase)))\n                        ) / (block.timestamp)) +\n                        block.gaslimit +\n                        ((uint256(keccak256(abi.encodePacked(msg.sender)))) /\n                            (block.timestamp)) +\n                        block.number\n                )\n            )\n        );\n\n        return (seed - ((seed / (limit + 1)) * (limit + 1)));\n    }\n\n    function tokenURI(uint256 tokenId)\n        public\n        view\n        virtual\n        override\n        returns (string memory)\n    {\n        return string(abi.encodePacked(_baseTokenURI, super.tokenURI(tokenId)));\n    }\n}\n",
  "sourcePath": "/home/rfaita/game/nft-game/contract/contracts/GameToken.sol",
  "compiler": {
    "name": "solc",
    "version": "0.8.9+commit.e5eed63a.Emscripten.clang"
  },
  "schemaVersion": "3.4.3",
  "updatedAt": "2021-11-30T14:02:46.468Z",
  "networkType": "ethereum",
  "devdoc": {
    "kind": "dev",
    "methods": {
      "approve(address,uint256)": {
        "details": "See {IERC721-approve}."
      },
      "balanceOf(address)": {
        "details": "See {IERC721-balanceOf}."
      },
      "getApproved(uint256)": {
        "details": "See {IERC721-getApproved}."
      },
      "isApprovedForAll(address,address)": {
        "details": "See {IERC721-isApprovedForAll}."
      },
      "name()": {
        "details": "See {IERC721Metadata-name}."
      },
      "owner()": {
        "details": "Returns the address of the current owner."
      },
      "ownerOf(uint256)": {
        "details": "See {IERC721-ownerOf}."
      },
      "renounceOwnership()": {
        "details": "Leaves the contract without owner. It will not be possible to call `onlyOwner` functions anymore. Can only be called by the current owner. NOTE: Renouncing ownership will leave the contract without an owner, thereby removing any functionality that is only available to the owner."
      },
      "safeTransferFrom(address,address,uint256)": {
        "details": "See {IERC721-safeTransferFrom}."
      },
      "safeTransferFrom(address,address,uint256,bytes)": {
        "details": "See {IERC721-safeTransferFrom}."
      },
      "setApprovalForAll(address,bool)": {
        "details": "See {IERC721-setApprovalForAll}."
      },
      "supportsInterface(bytes4)": {
        "details": "See {IERC165-supportsInterface}."
      },
      "symbol()": {
        "details": "See {IERC721Metadata-symbol}."
      },
      "tokenURI(uint256)": {
        "details": "See {IERC721Metadata-tokenURI}."
      },
      "transferFrom(address,address,uint256)": {
        "details": "See {IERC721-transferFrom}."
      },
      "transferOwnership(address)": {
        "details": "Transfers ownership of the contract to a new account (`newOwner`). Can only be called by the current owner."
      }
    },
    "version": 1
  },
  "userdoc": {
    "kind": "user",
    "methods": {},
    "version": 1
  }
}