{
  "contractName": "GameToken",
  "abi": [
    {
      "inputs": [
        {
          "internalType": "string",
          "name": "name",
          "type": "string"
        },
        {
          "internalType": "string",
          "name": "symbol",
          "type": "string"
        }
      ],
      "stateMutability": "nonpayable",
      "type": "constructor"
    },
    {
      "anonymous": false,
      "inputs": [
        {
          "indexed": true,
          "internalType": "address",
          "name": "owner",
          "type": "address"
        },
        {
          "indexed": true,
          "internalType": "address",
          "name": "approved",
          "type": "address"
        },
        {
          "indexed": true,
          "internalType": "uint256",
          "name": "tokenId",
          "type": "uint256"
        }
      ],
      "name": "Approval",
      "type": "event"
    },
    {
      "anonymous": false,
      "inputs": [
        {
          "indexed": true,
          "internalType": "address",
          "name": "owner",
          "type": "address"
        },
        {
          "indexed": true,
          "internalType": "address",
          "name": "operator",
          "type": "address"
        },
        {
          "indexed": false,
          "internalType": "bool",
          "name": "approved",
          "type": "bool"
        }
      ],
      "name": "ApprovalForAll",
      "type": "event"
    },
    {
      "anonymous": false,
      "inputs": [
        {
          "indexed": true,
          "internalType": "address",
          "name": "previousOwner",
          "type": "address"
        },
        {
          "indexed": true,
          "internalType": "address",
          "name": "newOwner",
          "type": "address"
        }
      ],
      "name": "OwnershipTransferred",
      "type": "event"
    },
    {
      "anonymous": false,
      "inputs": [
        {
          "indexed": true,
          "internalType": "address",
          "name": "from",
          "type": "address"
        },
        {
          "indexed": true,
          "internalType": "address",
          "name": "to",
          "type": "address"
        },
        {
          "indexed": true,
          "internalType": "uint256",
          "name": "tokenId",
          "type": "uint256"
        }
      ],
      "name": "Transfer",
      "type": "event"
    },
    {
      "inputs": [
        {
          "internalType": "address",
          "name": "to",
          "type": "address"
        },
        {
          "internalType": "uint256",
          "name": "tokenId",
          "type": "uint256"
        }
      ],
      "name": "approve",
      "outputs": [],
      "stateMutability": "nonpayable",
      "type": "function"
    },
    {
      "inputs": [
        {
          "internalType": "address",
          "name": "owner",
          "type": "address"
        }
      ],
      "name": "balanceOf",
      "outputs": [
        {
          "internalType": "uint256",
          "name": "",
          "type": "uint256"
        }
      ],
      "stateMutability": "view",
      "type": "function",
      "constant": true
    },
    {
      "inputs": [
        {
          "internalType": "uint256",
          "name": "tokenId",
          "type": "uint256"
        }
      ],
      "name": "getApproved",
      "outputs": [
        {
          "internalType": "address",
          "name": "",
          "type": "address"
        }
      ],
      "stateMutability": "view",
      "type": "function",
      "constant": true
    },
    {
      "inputs": [
        {
          "internalType": "address",
          "name": "owner",
          "type": "address"
        },
        {
          "internalType": "address",
          "name": "operator",
          "type": "address"
        }
      ],
      "name": "isApprovedForAll",
      "outputs": [
        {
          "internalType": "bool",
          "name": "",
          "type": "bool"
        }
      ],
      "stateMutability": "view",
      "type": "function",
      "constant": true
    },
    {
      "inputs": [],
      "name": "name",
      "outputs": [
        {
          "internalType": "string",
          "name": "",
          "type": "string"
        }
      ],
      "stateMutability": "view",
      "type": "function",
      "constant": true
    },
    {
      "inputs": [],
      "name": "owner",
      "outputs": [
        {
          "internalType": "address",
          "name": "",
          "type": "address"
        }
      ],
      "stateMutability": "view",
      "type": "function",
      "constant": true
    },
    {
      "inputs": [
        {
          "internalType": "uint256",
          "name": "tokenId",
          "type": "uint256"
        }
      ],
      "name": "ownerOf",
      "outputs": [
        {
          "internalType": "address",
          "name": "",
          "type": "address"
        }
      ],
      "stateMutability": "view",
      "type": "function",
      "constant": true
    },
    {
      "inputs": [],
      "name": "renounceOwnership",
      "outputs": [],
      "stateMutability": "nonpayable",
      "type": "function"
    },
    {
      "inputs": [
        {
          "internalType": "address",
          "name": "from",
          "type": "address"
        },
        {
          "internalType": "address",
          "name": "to",
          "type": "address"
        },
        {
          "internalType": "uint256",
          "name": "tokenId",
          "type": "uint256"
        }
      ],
      "name": "safeTransferFrom",
      "outputs": [],
      "stateMutability": "nonpayable",
      "type": "function"
    },
    {
      "inputs": [
        {
          "internalType": "address",
          "name": "from",
          "type": "address"
        },
        {
          "internalType": "address",
          "name": "to",
          "type": "address"
        },
        {
          "internalType": "uint256",
          "name": "tokenId",
          "type": "uint256"
        },
        {
          "internalType": "bytes",
          "name": "_data",
          "type": "bytes"
        }
      ],
      "name": "safeTransferFrom",
      "outputs": [],
      "stateMutability": "nonpayable",
      "type": "function"
    },
    {
      "inputs": [
        {
          "internalType": "address",
          "name": "operator",
          "type": "address"
        },
        {
          "internalType": "bool",
          "name": "approved",
          "type": "bool"
        }
      ],
      "name": "setApprovalForAll",
      "outputs": [],
      "stateMutability": "nonpayable",
      "type": "function"
    },
    {
      "inputs": [
        {
          "internalType": "bytes4",
          "name": "interfaceId",
          "type": "bytes4"
        }
      ],
      "name": "supportsInterface",
      "outputs": [
        {
          "internalType": "bool",
          "name": "",
          "type": "bool"
        }
      ],
      "stateMutability": "view",
      "type": "function",
      "constant": true
    },
    {
      "inputs": [],
      "name": "symbol",
      "outputs": [
        {
          "internalType": "string",
          "name": "",
          "type": "string"
        }
      ],
      "stateMutability": "view",
      "type": "function",
      "constant": true
    },
    {
      "inputs": [
        {
          "internalType": "uint256",
          "name": "tokenId",
          "type": "uint256"
        }
      ],
      "name": "tokenURI",
      "outputs": [
        {
          "internalType": "string",
          "name": "",
          "type": "string"
        }
      ],
      "stateMutability": "view",
      "type": "function",
      "constant": true
    },
    {
      "inputs": [
        {
          "internalType": "address",
          "name": "from",
          "type": "address"
        },
        {
          "internalType": "address",
          "name": "to",
          "type": "address"
        },
        {
          "internalType": "uint256",
          "name": "tokenId",
          "type": "uint256"
        }
      ],
      "name": "transferFrom",
      "outputs": [],
      "stateMutability": "nonpayable",
      "type": "function"
    },
    {
      "inputs": [
        {
          "internalType": "address",
          "name": "newOwner",
          "type": "address"
        }
      ],
      "name": "transferOwnership",
      "outputs": [],
      "stateMutability": "nonpayable",
      "type": "function"
    },
    {
      "inputs": [
        {
          "internalType": "uint16",
          "name": "_newMinBidIncrement",
          "type": "uint16"
        }
      ],
      "name": "setMinBidIncrement",
      "outputs": [],
      "stateMutability": "nonpayable",
      "type": "function"
    },
    {
      "inputs": [
        {
          "internalType": "uint16",
          "name": "_newMinAuctionTime",
          "type": "uint16"
        }
      ],
      "name": "setMinAuctionTime",
      "outputs": [],
      "stateMutability": "nonpayable",
      "type": "function"
    },
    {
      "inputs": [
        {
          "internalType": "enum GameToken.HeroType",
          "name": "_heroType",
          "type": "uint8"
        },
        {
          "internalType": "enum GameToken.HeroRarity",
          "name": "_heroRarity",
          "type": "uint8"
        }
      ],
      "name": "mint",
      "outputs": [],
      "stateMutability": "nonpayable",
      "type": "function"
    },
    {
      "inputs": [
        {
          "internalType": "address",
          "name": "owner",
          "type": "address"
        }
      ],
      "name": "getHeroesByAddress",
      "outputs": [
        {
          "internalType": "uint256[]",
          "name": "",
          "type": "uint256[]"
        }
      ],
      "stateMutability": "view",
      "type": "function",
      "constant": true
    },
    {
      "inputs": [],
      "name": "getMyHeroes",
      "outputs": [
        {
          "internalType": "uint256[]",
          "name": "",
          "type": "uint256[]"
        }
      ],
      "stateMutability": "view",
      "type": "function",
      "constant": true
    },
    {
      "inputs": [
        {
          "internalType": "uint256",
          "name": "_heroId",
          "type": "uint256"
        }
      ],
      "name": "getHero",
      "outputs": [
        {
          "components": [
            {
              "internalType": "string",
              "name": "name",
              "type": "string"
            },
            {
              "internalType": "enum GameToken.HeroType",
              "name": "heroType",
              "type": "uint8"
            },
            {
              "internalType": "enum GameToken.HeroRarity",
              "name": "rarity",
              "type": "uint8"
            },
            {
              "internalType": "uint8",
              "name": "str",
              "type": "uint8"
            },
            {
              "internalType": "uint8",
              "name": "con",
              "type": "uint8"
            },
            {
              "internalType": "uint8",
              "name": "dex",
              "type": "uint8"
            },
            {
              "internalType": "uint8",
              "name": "inte",
              "type": "uint8"
            },
            {
              "internalType": "uint8",
              "name": "level",
              "type": "uint8"
            }
          ],
          "internalType": "struct GameToken.Hero",
          "name": "",
          "type": "tuple"
        }
      ],
      "stateMutability": "view",
      "type": "function",
      "constant": true
    },
    {
      "inputs": [
        {
          "internalType": "uint256",
          "name": "_heroId",
          "type": "uint256"
        }
      ],
      "name": "getAuction",
      "outputs": [
        {
          "components": [
            {
              "internalType": "uint256",
              "name": "endTime",
              "type": "uint256"
            },
            {
              "internalType": "uint256",
              "name": "minValue",
              "type": "uint256"
            },
            {
              "internalType": "uint256",
              "name": "currValue",
              "type": "uint256"
            },
            {
              "internalType": "address",
              "name": "lastBidAddress",
              "type": "address"
            }
          ],
          "internalType": "struct GameToken.Auction",
          "name": "",
          "type": "tuple"
        }
      ],
      "stateMutability": "view",
      "type": "function",
      "constant": true
    },
    {
      "inputs": [
        {
          "internalType": "uint256",
          "name": "_heroId",
          "type": "uint256"
        }
      ],
      "name": "levelUp",
      "outputs": [],
      "stateMutability": "nonpayable",
      "type": "function"
    },
    {
      "inputs": [
        {
          "internalType": "uint256",
          "name": "_heroId",
          "type": "uint256"
        },
        {
          "internalType": "uint256",
          "name": "_price",
          "type": "uint256"
        }
      ],
      "name": "allowBuy",
      "outputs": [],
      "stateMutability": "nonpayable",
      "type": "function"
    },
    {
      "inputs": [
        {
          "internalType": "uint256",
          "name": "_heroId",
          "type": "uint256"
        }
      ],
      "name": "disallowBuy",
      "outputs": [],
      "stateMutability": "nonpayable",
      "type": "function"
    },
    {
      "inputs": [
        {
          "internalType": "uint256",
          "name": "_heroId",
          "type": "uint256"
        }
      ],
      "name": "buy",
      "outputs": [],
      "stateMutability": "payable",
      "type": "function",
      "payable": true
    },
    {
      "inputs": [
        {
          "internalType": "uint256",
          "name": "_heroId",
          "type": "uint256"
        },
        {
          "internalType": "uint256",
          "name": "_endTime",
          "type": "uint256"
        },
        {
          "internalType": "uint256",
          "name": "_minPrice",
          "type": "uint256"
        }
      ],
      "name": "createAuction",
      "outputs": [],
      "stateMutability": "nonpayable",
      "type": "function"
    },
    {
      "inputs": [
        {
          "internalType": "uint256",
          "name": "_heroId",
          "type": "uint256"
        }
      ],
      "name": "cancelAuction",
      "outputs": [],
      "stateMutability": "nonpayable",
      "type": "function"
    },
    {
      "inputs": [
        {
          "internalType": "uint256",
          "name": "_heroId",
          "type": "uint256"
        }
      ],
      "name": "bid",
      "outputs": [],
      "stateMutability": "payable",
      "type": "function",
      "payable": true
    },
    {
      "inputs": [
        {
          "internalType": "uint256",
          "name": "_heroId",
          "type": "uint256"
        }
      ],
      "name": "finishAuction",
      "outputs": [],
      "stateMutability": "nonpayable",
      "type": "function"
    },
    {
      "inputs": [],
      "name": "receiver",
      "outputs": [],
      "stateMutability": "payable",
      "type": "function",
      "payable": true
    }
  ],
  "bytecode": "0x6080604052606e600c60006101000a81548161ffff021916908361ffff160217905550603c600c60026101000a81548161ffff021916908361ffff1602179055503480156200004d57600080fd5b506040516200617b3803806200617b8339818101604052810190620000739190620006e8565b818181600090805190602001906200008d929190620003ed565b508060019080519060200190620000a6929190620003ed565b505050620000c9620000bd6200031f60201b60201c565b6200032760201b60201c565b6040518060c00160405280600060ff168152602001600160ff168152602001600060ff168152602001600260ff168152602001600360ff168152602001600160ff16815250600d60008060038111156200012857620001276200076d565b5b60038111156200013d576200013c6200076d565b5b81526020019081526020016000209060066200015b9291906200047e565b506040518060c00160405280600260ff168152602001600260ff168152602001600060ff168152602001600360ff168152602001600060ff168152602001600260ff16815250600d600060016003811115620001bc57620001bb6200076d565b5b6003811115620001d157620001d06200076d565b5b8152602001908152602001600020906006620001ef9291906200047e565b506040518060c00160405280600360ff168152602001600360ff168152602001600260ff168152602001600160ff168152602001600060ff168152602001600360ff16815250600d60006002600381111562000250576200024f6200076d565b5b60038111156200026557620002646200076d565b5b8152602001908152602001600020906006620002839291906200047e565b506040518060c00160405280600160ff168152602001600160ff168152602001600060ff168152602001600260ff168152602001600360ff168152602001600160ff16815250600d6000600380811115620002e357620002e26200076d565b5b6003811115620002f857620002f76200076d565b5b8152602001908152602001600020906006620003169291906200047e565b50505062000801565b600033905090565b6000600760009054906101000a900473ffffffffffffffffffffffffffffffffffffffff16905081600760006101000a81548173ffffffffffffffffffffffffffffffffffffffff021916908373ffffffffffffffffffffffffffffffffffffffff1602179055508173ffffffffffffffffffffffffffffffffffffffff168173ffffffffffffffffffffffffffffffffffffffff167f8be0079c531659141344cd1fd0a4f28419497f9722a3daafe3b4186f6b6457e060405160405180910390a35050565b828054620003fb90620007cb565b90600052602060002090601f0160209004810192826200041f57600085556200046b565b82601f106200043a57805160ff19168380011785556200046b565b828001600101855582156200046b579182015b828111156200046a5782518255916020019190600101906200044d565b5b5090506200047a91906200052c565b5090565b82805482825590600052602060002090601f01602090048101928215620005195791602002820160005b83821115620004e857835183826101000a81548160ff021916908360ff1602179055509260200192600101602081600001049283019260010302620004a8565b8015620005175782816101000a81549060ff0219169055600101602081600001049283019260010302620004e8565b505b5090506200052891906200052c565b5090565b5b80821115620005475760008160009055506001016200052d565b5090565b6000604051905090565b600080fd5b600080fd5b600080fd5b600080fd5b6000601f19601f8301169050919050565b7f4e487b7100000000000000000000000000000000000000000000000000000000600052604160045260246000fd5b620005b48262000569565b810181811067ffffffffffffffff82111715620005d657620005d56200057a565b5b80604052505050565b6000620005eb6200054b565b9050620005f98282620005a9565b919050565b600067ffffffffffffffff8211156200061c576200061b6200057a565b5b620006278262000569565b9050602081019050919050565b60005b838110156200065457808201518184015260208101905062000637565b8381111562000664576000848401525b50505050565b6000620006816200067b84620005fe565b620005df565b905082815260208101848484011115620006a0576200069f62000564565b5b620006ad84828562000634565b509392505050565b600082601f830112620006cd57620006cc6200055f565b5b8151620006df8482602086016200066a565b91505092915050565b6000806040838503121562000702576200070162000555565b5b600083015167ffffffffffffffff8111156200072357620007226200055a565b5b6200073185828601620006b5565b925050602083015167ffffffffffffffff8111156200075557620007546200055a565b5b6200076385828601620006b5565b9150509250929050565b7f4e487b7100000000000000000000000000000000000000000000000000000000600052602160045260246000fd5b7f4e487b7100000000000000000000000000000000000000000000000000000000600052602260045260246000fd5b60006002820490506001821680620007e457607f821691505b60208210811415620007fb57620007fa6200079c565b5b50919050565b61596a80620008116000396000f3fe6080604052600436106101e25760003560e01c806378bd793511610102578063c87b56dd11610095578063d96a094a11610064578063d96a094a146106ec578063e985e9c514610708578063f2fde38b14610745578063f7260d3e1461076e576101e2565b8063c87b56dd14610634578063cda4beef14610671578063cf266ed01461069a578063d4991312146106c3576101e2565b806396b5a755116100d157806396b5a75514610590578063a22cb465146105b9578063b88d4fde146105e2578063bbb5e8d31461060b576101e2565b806378bd7935146104d2578063806f52831461050f5780638da5cb5b1461053a57806395d89b4114610565576101e2565b806322f535a71161017a578063454a2ab311610149578063454a2ab3146104255780636352211e1461044157806370a082311461047e578063715018a6146104bb576101e2565b806322f535a71461038157806323b872dd146103aa57806329a0eee8146103d357806342842e0e146103fc576101e2565b8063095ea7b3116101b6578063095ea7b3146102c95780630ce90ec2146102f2578063145c0cc21461031b57806321d8011114610344576101e2565b80625597e3146101e757806301ffc9a71461022457806306fdde0314610261578063081812fc1461028c575b600080fd5b3480156101f357600080fd5b5061020e60048036038101906102099190613a4b565b610778565b60405161021b9190613b40565b60405180910390f35b34801561023057600080fd5b5061024b60048036038101906102469190613bba565b6108c9565b6040516102589190613c02565b60405180910390f35b34801561026d57600080fd5b506102766109ab565b6040516102839190613cb6565b60405180910390f35b34801561029857600080fd5b506102b360048036038101906102ae9190613d04565b610a3d565b6040516102c09190613d40565b60405180910390f35b3480156102d557600080fd5b506102f060048036038101906102eb9190613d5b565b610ac2565b005b3480156102fe57600080fd5b5061031960048036038101906103149190613d04565b610bda565b005b34801561032757600080fd5b50610342600480360381019061033d9190613dd5565b610dd3565b005b34801561035057600080fd5b5061036b60048036038101906103669190613d04565b610e6f565b6040516103789190613fd7565b60405180910390f35b34801561038d57600080fd5b506103a860048036038101906103a39190613dd5565b611036565b005b3480156103b657600080fd5b506103d160048036038101906103cc9190613ff9565b6110d2565b005b3480156103df57600080fd5b506103fa60048036038101906103f59190614096565b611132565b005b34801561040857600080fd5b50610423600480360381019061041e9190613ff9565b6116fc565b005b61043f600480360381019061043a9190613d04565b61171c565b005b34801561044d57600080fd5b5061046860048036038101906104639190613d04565b61195c565b6040516104759190613d40565b60405180910390f35b34801561048a57600080fd5b506104a560048036038101906104a09190613a4b565b611a0e565b6040516104b291906140e5565b60405180910390f35b3480156104c757600080fd5b506104d0611ac6565b005b3480156104de57600080fd5b506104f960048036038101906104f49190613d04565b611b4e565b6040516105069190614164565b60405180910390f35b34801561051b57600080fd5b50610524611bef565b6040516105319190613b40565b60405180910390f35b34801561054657600080fd5b5061054f611bff565b60405161055c9190613d40565b60405180910390f35b34801561057157600080fd5b5061057a611c29565b6040516105879190613cb6565b60405180910390f35b34801561059c57600080fd5b506105b760048036038101906105b29190613d04565b611cbb565b005b3480156105c557600080fd5b506105e060048036038101906105db91906141ab565b611e68565b005b3480156105ee57600080fd5b5061060960048036038101906106049190614320565b611fe9565b005b34801561061757600080fd5b50610632600480360381019061062d91906143a3565b61204b565b005b34801561064057600080fd5b5061065b60048036038101906106569190613d04565b61217a565b6040516106689190613cb6565b60405180910390f35b34801561067d57600080fd5b50610698600480360381019061069391906143e3565b6122cc565b005b3480156106a657600080fd5b506106c160048036038101906106bc9190613d04565b61255e565b005b3480156106cf57600080fd5b506106ea60048036038101906106e59190613d04565b612780565b005b61070660048036038101906107019190613d04565b612812565b005b34801561071457600080fd5b5061072f600480360381019061072a9190614436565b61293c565b60405161073c9190613c02565b60405180910390f35b34801561075157600080fd5b5061076c60048036038101906107679190613a4b565b6129d0565b005b610776612ac8565b005b6060600061078583611a0e565b905060008114156107e257600067ffffffffffffffff8111156107ab576107aa6141f5565b5b6040519080825280602002602001820160405280156107d95781602001602082028036833780820191505090505b509150506108c4565b60008167ffffffffffffffff8111156107fe576107fd6141f5565b5b60405190808252806020026020018201604052801561082c5781602001602082028036833780820191505090505b50905060008060009050600091505b6108456008612aca565b8210156108bc578573ffffffffffffffffffffffffffffffffffffffff1661086c8361195c565b73ffffffffffffffffffffffffffffffffffffffff1614156108a9578183828151811061089c5761089b614476565b5b6020026020010181815250505b81806108b4906144d4565b92505061083b565b829450505050505b919050565b60007f80ac58cd000000000000000000000000000000000000000000000000000000007bffffffffffffffffffffffffffffffffffffffffffffffffffffffff1916827bffffffffffffffffffffffffffffffffffffffffffffffffffffffff1916148061099457507f5b5e139f000000000000000000000000000000000000000000000000000000007bffffffffffffffffffffffffffffffffffffffffffffffffffffffff1916827bffffffffffffffffffffffffffffffffffffffffffffffffffffffff1916145b806109a457506109a382612ad8565b5b9050919050565b6060600080546109ba9061454c565b80601f01602080910402602001604051908101604052809291908181526020018280546109e69061454c565b8015610a335780601f10610a0857610100808354040283529160200191610a33565b820191906000526020600020905b815481529060010190602001808311610a1657829003601f168201915b5050505050905090565b6000610a4882612b42565b610a87576040517f08c379a0000000000000000000000000000000000000000000000000000000008152600401610a7e906145f0565b60405180910390fd5b6004600083815260200190815260200160002060009054906101000a900473ffffffffffffffffffffffffffffffffffffffff169050919050565b6000610acd8261195c565b90508073ffffffffffffffffffffffffffffffffffffffff168373ffffffffffffffffffffffffffffffffffffffff161415610b3e576040517f08c379a0000000000000000000000000000000000000000000000000000000008152600401610b3590614682565b60405180910390fd5b8073ffffffffffffffffffffffffffffffffffffffff16610b5d612bae565b73ffffffffffffffffffffffffffffffffffffffff161480610b8c5750610b8b81610b86612bae565b61293c565b5b610bcb576040517f08c379a0000000000000000000000000000000000000000000000000000000008152600401610bc290614714565b60405180910390fd5b610bd58383612bb6565b505050565b610be38161195c565b73ffffffffffffffffffffffffffffffffffffffff163373ffffffffffffffffffffffffffffffffffffffff1614610c50576040517f08c379a0000000000000000000000000000000000000000000000000000000008152600401610c4790614780565b60405180910390fd5b600060096000838152602001908152602001600020905080600101600681819054906101000a900460ff1680929190610c88906147a0565b91906101000a81548160ff021916908360ff160217905550506000610cad6003612c6f565b90506000811415610cf75781600101600281819054906101000a900460ff1680929190610cd9906147a0565b91906101000a81548160ff021916908360ff16021790555050610dce565b6001811415610d3f5781600101600381819054906101000a900460ff1680929190610d21906147a0565b91906101000a81548160ff021916908360ff16021790555050610dcd565b6002811415610d875781600101600481819054906101000a900460ff1680929190610d69906147a0565b91906101000a81548160ff021916908360ff16021790555050610dcc565b6003811415610dcb5781600101600581819054906101000a900460ff1680929190610db1906147a0565b91906101000a81548160ff021916908360ff160217905550505b5b5b5b505050565b610ddb612bae565b73ffffffffffffffffffffffffffffffffffffffff16610df9611bff565b73ffffffffffffffffffffffffffffffffffffffff1614610e4f576040517f08c379a0000000000000000000000000000000000000000000000000000000008152600401610e4690614816565b60405180910390fd5b80600c60006101000a81548161ffff021916908361ffff16021790555050565b610e77613880565b6009600083815260200190815260200160002060405180610100016040529081600082018054610ea69061454c565b80601f0160208091040260200160405190810160405280929190818152602001828054610ed29061454c565b8015610f1f5780601f10610ef457610100808354040283529160200191610f1f565b820191906000526020600020905b815481529060010190602001808311610f0257829003601f168201915b505050505081526020016001820160009054906101000a900460ff166003811115610f4d57610f4c613e4c565b5b6003811115610f5f57610f5e613e4c565b5b81526020016001820160019054906101000a900460ff166003811115610f8857610f87613e4c565b5b6003811115610f9a57610f99613e4c565b5b81526020016001820160029054906101000a900460ff1660ff1660ff1681526020016001820160039054906101000a900460ff1660ff1660ff1681526020016001820160049054906101000a900460ff1660ff1660ff1681526020016001820160059054906101000a900460ff1660ff1660ff1681526020016001820160069054906101000a900460ff1660ff1660ff16815250509050919050565b61103e612bae565b73ffffffffffffffffffffffffffffffffffffffff1661105c611bff565b73ffffffffffffffffffffffffffffffffffffffff16146110b2576040517f08c379a00000000000000000000000000000000000000000000000000000000081526004016110a990614816565b60405180910390fd5b80600c60026101000a81548161ffff021916908361ffff16021790555050565b6110e36110dd612bae565b82612d85565b611122576040517f08c379a0000000000000000000000000000000000000000000000000000000008152600401611119906148a8565b60405180910390fd5b61112d838383612e63565b505050565b61113a612bae565b73ffffffffffffffffffffffffffffffffffffffff16611158611bff565b73ffffffffffffffffffffffffffffffffffffffff16146111ae576040517f08c379a00000000000000000000000000000000000000000000000000000000081526004016111a590614816565b60405180910390fd5b60006111ba6008612aca565b9050600080600060038111156111d3576111d2613e4c565b5b8460038111156111e6576111e5613e4c565b5b14156111f9576004915060069050611278565b6001600381111561120d5761120c613e4c565b5b8460038111156112205761121f613e4c565b5b1415611233576007915060089050611277565b6002600381111561124757611246613e4c565b5b84600381111561125a57611259613e4c565b5b141561126d5760099150600a9050611276565b600b9150600c90505b5b5b60008260ff16611292848461128d91906148c8565b612c6f565b61129c91906148fc565b90506000600467ffffffffffffffff8111156112bb576112ba6141f5565b5b6040519080825280602002602001820160405280156112e95781602001602082028036833780820191505090505b50905060018160008151811061130257611301614476565b5b602002602001019060ff16908160ff168152505060018160018151811061132c5761132b614476565b5b602002602001019060ff16908160ff168152505060018160028151811061135657611355614476565b5b602002602001019060ff16908160ff16815250506001816003815181106113805761137f614476565b5b602002602001019060ff16908160ff1681525050600080600190505b838160ff161161147d5782600d60008b60038111156113be576113bd613e4c565b5b60038111156113d0576113cf613e4c565b5b81526020019081526020016000208360ff16815481106113f3576113f2614476565b5b90600052602060002090602091828204019190069054906101000a900460ff1660ff168151811061142757611426614476565b5b60200260200101805180919061143c906147a0565b60ff1660ff168152505060058260ff16141561145b576000915061146a565b8180611466906147a0565b9250505b8080611475906147a0565b91505061139c565b5061148833876130bf565b6114c7866040518060400160405280600581526020017f74657374650000000000000000000000000000000000000000000000000000008152506130dd565b6040518061010001604052806040518060200160405280600081525081526020018960038111156114fb576114fa613e4c565b5b815260200188600381111561151357611512613e4c565b5b81526020018360008151811061152c5761152b614476565b5b602002602001015160ff168152602001836001815181106115505761154f614476565b5b602002602001015160ff1681526020018360028151811061157457611573614476565b5b602002602001015160ff1681526020018360038151811061159857611597614476565b5b602002602001015160ff168152602001600160ff168152506009600088815260200190815260200160002060008201518160000190805190602001906115df9291906138f8565b5060208201518160010160006101000a81548160ff0219169083600381111561160b5761160a613e4c565b5b021790555060408201518160010160016101000a81548160ff0219169083600381111561163b5761163a613e4c565b5b021790555060608201518160010160026101000a81548160ff021916908360ff16021790555060808201518160010160036101000a81548160ff021916908360ff16021790555060a08201518160010160046101000a81548160ff021916908360ff16021790555060c08201518160010160056101000a81548160ff021916908360ff16021790555060e08201518160010160066101000a81548160ff021916908360ff1602179055509050506116f26008613151565b5050505050505050565b61171783838360405180602001604052806000815250611fe9565b505050565b6000600b600083815260200190815260200160002090506000600b6000848152602001908152602001600020600001541161178c576040517f08c379a00000000000000000000000000000000000000000000000000000000081526004016117839061499e565b60405180910390fd5b428160000154116117d2576040517f08c379a00000000000000000000000000000000000000000000000000000000081526004016117c990614a0a565b60405180910390fd5b6064600c60009054906101000a900461ffff1661ffff1682600201546117f89190614a2a565b6118029190614ab3565b341015611844576040517f08c379a000000000000000000000000000000000000000000000000000000000815260040161183b90614b30565b60405180910390fd5b600073ffffffffffffffffffffffffffffffffffffffff168160030160009054906101000a900473ffffffffffffffffffffffffffffffffffffffff1673ffffffffffffffffffffffffffffffffffffffff161461190c578060030160009054906101000a900473ffffffffffffffffffffffffffffffffffffffff1673ffffffffffffffffffffffffffffffffffffffff166108fc82600201549081150290604051600060405180830381858888f1935050505015801561190a573d6000803e3d6000fd5b505b348160020181905550338160030160006101000a81548173ffffffffffffffffffffffffffffffffffffffff021916908373ffffffffffffffffffffffffffffffffffffffff1602179055505050565b6000806002600084815260200190815260200160002060009054906101000a900473ffffffffffffffffffffffffffffffffffffffff169050600073ffffffffffffffffffffffffffffffffffffffff168173ffffffffffffffffffffffffffffffffffffffff161415611a05576040517f08c379a00000000000000000000000000000000000000000000000000000000081526004016119fc90614bc2565b60405180910390fd5b80915050919050565b60008073ffffffffffffffffffffffffffffffffffffffff168273ffffffffffffffffffffffffffffffffffffffff161415611a7f576040517f08c379a0000000000000000000000000000000000000000000000000000000008152600401611a7690614c54565b60405180910390fd5b600360008373ffffffffffffffffffffffffffffffffffffffff1673ffffffffffffffffffffffffffffffffffffffff168152602001908152602001600020549050919050565b611ace612bae565b73ffffffffffffffffffffffffffffffffffffffff16611aec611bff565b73ffffffffffffffffffffffffffffffffffffffff1614611b42576040517f08c379a0000000000000000000000000000000000000000000000000000000008152600401611b3990614816565b60405180910390fd5b611b4c6000613167565b565b611b5661397e565b600b60008381526020019081526020016000206040518060800160405290816000820154815260200160018201548152602001600282015481526020016003820160009054906101000a900473ffffffffffffffffffffffffffffffffffffffff1673ffffffffffffffffffffffffffffffffffffffff1673ffffffffffffffffffffffffffffffffffffffff16815250509050919050565b6060611bfa33610778565b905090565b6000600760009054906101000a900473ffffffffffffffffffffffffffffffffffffffff16905090565b606060018054611c389061454c565b80601f0160208091040260200160405190810160405280929190818152602001828054611c649061454c565b8015611cb15780601f10611c8657610100808354040283529160200191611cb1565b820191906000526020600020905b815481529060010190602001808311611c9457829003601f168201915b5050505050905090565b611cc48161195c565b73ffffffffffffffffffffffffffffffffffffffff163373ffffffffffffffffffffffffffffffffffffffff1614611d31576040517f08c379a0000000000000000000000000000000000000000000000000000000008152600401611d2890614780565b60405180910390fd5b6000600b60008381526020019081526020016000206040518060800160405290816000820154815260200160018201548152602001600282015481526020016003820160009054906101000a900473ffffffffffffffffffffffffffffffffffffffff1673ffffffffffffffffffffffffffffffffffffffff1673ffffffffffffffffffffffffffffffffffffffff16815250509050600081604001511115611e0f576040517f08c379a0000000000000000000000000000000000000000000000000000000008152600401611e0690614ce6565b60405180910390fd5b600b6000838152602001908152602001600020600080820160009055600182016000905560028201600090556003820160006101000a81549073ffffffffffffffffffffffffffffffffffffffff021916905550505050565b611e70612bae565b73ffffffffffffffffffffffffffffffffffffffff168273ffffffffffffffffffffffffffffffffffffffff161415611ede576040517f08c379a0000000000000000000000000000000000000000000000000000000008152600401611ed590614d52565b60405180910390fd5b8060056000611eeb612bae565b73ffffffffffffffffffffffffffffffffffffffff1673ffffffffffffffffffffffffffffffffffffffff16815260200190815260200160002060008473ffffffffffffffffffffffffffffffffffffffff1673ffffffffffffffffffffffffffffffffffffffff16815260200190815260200160002060006101000a81548160ff0219169083151502179055508173ffffffffffffffffffffffffffffffffffffffff16611f98612bae565b73ffffffffffffffffffffffffffffffffffffffff167f17307eab39ab6107e8899845ad3d59bd9653f200f220920489ca2b5937696c3183604051611fdd9190613c02565b60405180910390a35050565b611ffa611ff4612bae565b83612d85565b612039576040517f08c379a0000000000000000000000000000000000000000000000000000000008152600401612030906148a8565b60405180910390fd5b6120458484848461322d565b50505050565b6120548261195c565b73ffffffffffffffffffffffffffffffffffffffff163373ffffffffffffffffffffffffffffffffffffffff16146120c1576040517f08c379a00000000000000000000000000000000000000000000000000000000081526004016120b890614780565b60405180910390fd5b60008111612104576040517f08c379a00000000000000000000000000000000000000000000000000000000081526004016120fb90614dbe565b60405180910390fd5b6000600b600084815260200190815260200160002060000154111561215e576040517f08c379a000000000000000000000000000000000000000000000000000000000815260040161215590614e2a565b60405180910390fd5b80600a6000848152602001908152602001600020819055505050565b606061218582612b42565b6121c4576040517f08c379a00000000000000000000000000000000000000000000000000000000081526004016121bb90614ebc565b60405180910390fd5b60006006600084815260200190815260200160002080546121e49061454c565b80601f01602080910402602001604051908101604052809291908181526020018280546122109061454c565b801561225d5780601f106122325761010080835404028352916020019161225d565b820191906000526020600020905b81548152906001019060200180831161224057829003601f168201915b50505050509050600061226e613289565b90506000815114156122845781925050506122c7565b6000825111156122b95780826040516020016122a1929190614f18565b604051602081830303815290604052925050506122c7565b6122c2846132a0565b925050505b919050565b6122d58361195c565b73ffffffffffffffffffffffffffffffffffffffff163373ffffffffffffffffffffffffffffffffffffffff1614612342576040517f08c379a000000000000000000000000000000000000000000000000000000000815260040161233990614780565b60405180910390fd5b6103e8600c60029054906101000a900461ffff1661ffff164261236591906148fc565b61236f9190614a2a565b8210156123b1576040517f08c379a00000000000000000000000000000000000000000000000000000000081526004016123a890614fae565b60405180910390fd5b600081116123f4576040517f08c379a00000000000000000000000000000000000000000000000000000000081526004016123eb9061501a565b60405180910390fd5b6000600b600085815260200190815260200160002060000154111561244e576040517f08c379a000000000000000000000000000000000000000000000000000000000815260040161244590615086565b60405180910390fd5b6000600a60008581526020019081526020016000205411156124a5576040517f08c379a000000000000000000000000000000000000000000000000000000000815260040161249c906150f2565b60405180910390fd5b604051806080016040528083815260200182815260200160008152602001600073ffffffffffffffffffffffffffffffffffffffff16815250600b600085815260200190815260200160002060008201518160000155602082015181600101556040820151816002015560608201518160030160006101000a81548173ffffffffffffffffffffffffffffffffffffffff021916908373ffffffffffffffffffffffffffffffffffffffff160217905550905050505050565b6000600b60008381526020019081526020016000206040518060800160405290816000820154815260200160018201548152602001600282015481526020016003820160009054906101000a900473ffffffffffffffffffffffffffffffffffffffff1673ffffffffffffffffffffffffffffffffffffffff1673ffffffffffffffffffffffffffffffffffffffff168152505090506000600b6000848152602001908152602001600020600001541161264d576040517f08c379a00000000000000000000000000000000000000000000000000000000081526004016126449061499e565b60405180910390fd5b6103e84261265b9190614a2a565b816000015111156126a1576040517f08c379a00000000000000000000000000000000000000000000000000000000081526004016126989061515e565b60405180910390fd5b6000816040015111156127275760006126b98361195c565b90508073ffffffffffffffffffffffffffffffffffffffff166108fc83604001519081150290604051600060405180830381858888f19350505050158015612705573d6000803e3d6000fd5b50612725818360600151856040518060200160405280600081525061322d565b505b600b6000838152602001908152602001600020600080820160009055600182016000905560028201600090556003820160006101000a81549073ffffffffffffffffffffffffffffffffffffffff021916905550505050565b6127898161195c565b73ffffffffffffffffffffffffffffffffffffffff163373ffffffffffffffffffffffffffffffffffffffff16146127f6576040517f08c379a00000000000000000000000000000000000000000000000000000000081526004016127ed90614780565b60405180910390fd5b6000600a60008381526020019081526020016000208190555050565b6000600a60008381526020019081526020016000205490506000811161286d576040517f08c379a0000000000000000000000000000000000000000000000000000000008152600401612864906151ca565b60405180910390fd5b8034146128af576040517f08c379a00000000000000000000000000000000000000000000000000000000081526004016128a690614b30565b60405180910390fd5b60006128ba8361195c565b90508073ffffffffffffffffffffffffffffffffffffffff166108fc349081150290604051600060405180830381858888f19350505050158015612902573d6000803e3d6000fd5b5061291e8133856040518060200160405280600081525061322d565b6000600a600085815260200190815260200160002081905550505050565b6000600560008473ffffffffffffffffffffffffffffffffffffffff1673ffffffffffffffffffffffffffffffffffffffff16815260200190815260200160002060008373ffffffffffffffffffffffffffffffffffffffff1673ffffffffffffffffffffffffffffffffffffffff16815260200190815260200160002060009054906101000a900460ff16905092915050565b6129d8612bae565b73ffffffffffffffffffffffffffffffffffffffff166129f6611bff565b73ffffffffffffffffffffffffffffffffffffffff1614612a4c576040517f08c379a0000000000000000000000000000000000000000000000000000000008152600401612a4390614816565b60405180910390fd5b600073ffffffffffffffffffffffffffffffffffffffff168173ffffffffffffffffffffffffffffffffffffffff161415612abc576040517f08c379a0000000000000000000000000000000000000000000000000000000008152600401612ab39061525c565b60405180910390fd5b612ac581613167565b50565b565b600081600001549050919050565b60007f01ffc9a7000000000000000000000000000000000000000000000000000000007bffffffffffffffffffffffffffffffffffffffffffffffffffffffff1916827bffffffffffffffffffffffffffffffffffffffffffffffffffffffff1916149050919050565b60008073ffffffffffffffffffffffffffffffffffffffff166002600084815260200190815260200160002060009054906101000a900473ffffffffffffffffffffffffffffffffffffffff1673ffffffffffffffffffffffffffffffffffffffff1614159050919050565b600033905090565b816004600083815260200190815260200160002060006101000a81548173ffffffffffffffffffffffffffffffffffffffff021916908373ffffffffffffffffffffffffffffffffffffffff160217905550808273ffffffffffffffffffffffffffffffffffffffff16612c298361195c565b73ffffffffffffffffffffffffffffffffffffffff167f8c5be1e5ebec7d5bd14f71427d1e84f3dd0314c0f7b2291e5b200ac8c7c3b92560405160405180910390a45050565b600080434233604051602001612c8591906152c4565b6040516020818303038152906040528051906020012060001c612ca89190614ab3565b454241604051602001612cbb919061531a565b6040516020818303038152906040528051906020012060001c612cde9190614ab3565b4442612cea91906148fc565b612cf491906148fc565b612cfe91906148fc565b612d0891906148fc565b612d1291906148fc565b604051602001612d229190615356565b6040516020818303038152906040528051906020012060001c9050600183612d4a9190615371565b60ff16600184612d5a9190615371565b60ff1682612d689190614ab3565b612d729190614a2a565b81612d7d91906153a8565b915050919050565b6000612d9082612b42565b612dcf576040517f08c379a0000000000000000000000000000000000000000000000000000000008152600401612dc69061544e565b60405180910390fd5b6000612dda8361195c565b90508073ffffffffffffffffffffffffffffffffffffffff168473ffffffffffffffffffffffffffffffffffffffff161480612e4957508373ffffffffffffffffffffffffffffffffffffffff16612e3184610a3d565b73ffffffffffffffffffffffffffffffffffffffff16145b80612e5a5750612e59818561293c565b5b91505092915050565b8273ffffffffffffffffffffffffffffffffffffffff16612e838261195c565b73ffffffffffffffffffffffffffffffffffffffff1614612ed9576040517f08c379a0000000000000000000000000000000000000000000000000000000008152600401612ed0906154e0565b60405180910390fd5b600073ffffffffffffffffffffffffffffffffffffffff168273ffffffffffffffffffffffffffffffffffffffff161415612f49576040517f08c379a0000000000000000000000000000000000000000000000000000000008152600401612f4090615572565b60405180910390fd5b612f54838383613347565b612f5f600082612bb6565b6001600360008573ffffffffffffffffffffffffffffffffffffffff1673ffffffffffffffffffffffffffffffffffffffff1681526020019081526020016000206000828254612faf91906153a8565b925050819055506001600360008473ffffffffffffffffffffffffffffffffffffffff1673ffffffffffffffffffffffffffffffffffffffff168152602001908152602001600020600082825461300691906148fc565b92505081905550816002600083815260200190815260200160002060006101000a81548173ffffffffffffffffffffffffffffffffffffffff021916908373ffffffffffffffffffffffffffffffffffffffff160217905550808273ffffffffffffffffffffffffffffffffffffffff168473ffffffffffffffffffffffffffffffffffffffff167fddf252ad1be2c89b69c2b068fc378daa952ba7f163c4a11628f55a4df523b3ef60405160405180910390a4505050565b6130d982826040518060200160405280600081525061334c565b5050565b6130e682612b42565b613125576040517f08c379a000000000000000000000000000000000000000000000000000000000815260040161311c90615604565b60405180910390fd5b8060066000848152602001908152602001600020908051906020019061314c9291906138f8565b505050565b6001816000016000828254019250508190555050565b6000600760009054906101000a900473ffffffffffffffffffffffffffffffffffffffff16905081600760006101000a81548173ffffffffffffffffffffffffffffffffffffffff021916908373ffffffffffffffffffffffffffffffffffffffff1602179055508173ffffffffffffffffffffffffffffffffffffffff168173ffffffffffffffffffffffffffffffffffffffff167f8be0079c531659141344cd1fd0a4f28419497f9722a3daafe3b4186f6b6457e060405160405180910390a35050565b613238848484612e63565b613244848484846133a7565b613283576040517f08c379a000000000000000000000000000000000000000000000000000000000815260040161327a90615696565b60405180910390fd5b50505050565b606060405180602001604052806000815250905090565b60606132ab82612b42565b6132ea576040517f08c379a00000000000000000000000000000000000000000000000000000000081526004016132e190615728565b60405180910390fd5b60006132f4613289565b90506000815111613314576040518060200160405280600081525061333f565b8061331e8461353e565b60405160200161332f929190614f18565b6040516020818303038152906040525b915050919050565b505050565b613356838361369f565b61336360008484846133a7565b6133a2576040517f08c379a000000000000000000000000000000000000000000000000000000000815260040161339990615696565b60405180910390fd5b505050565b60006133c88473ffffffffffffffffffffffffffffffffffffffff1661386d565b15613531578373ffffffffffffffffffffffffffffffffffffffff1663150b7a026133f1612bae565b8786866040518563ffffffff1660e01b8152600401613413949392919061579d565b602060405180830381600087803b15801561342d57600080fd5b505af192505050801561345e57506040513d601f19601f8201168201806040525081019061345b91906157fe565b60015b6134e1573d806000811461348e576040519150601f19603f3d011682016040523d82523d6000602084013e613493565b606091505b506000815114156134d9576040517f08c379a00000000000000000000000000000000000000000000000000000000081526004016134d090615696565b60405180910390fd5b805181602001fd5b63150b7a0260e01b7bffffffffffffffffffffffffffffffffffffffffffffffffffffffff1916817bffffffffffffffffffffffffffffffffffffffffffffffffffffffff191614915050613536565b600190505b949350505050565b60606000821415613586576040518060400160405280600181526020017f3000000000000000000000000000000000000000000000000000000000000000815250905061369a565b600082905060005b600082146135b85780806135a1906144d4565b915050600a826135b19190614ab3565b915061358e565b60008167ffffffffffffffff8111156135d4576135d36141f5565b5b6040519080825280601f01601f1916602001820160405280156136065781602001600182028036833780820191505090505b5090505b600085146136935760018261361f91906153a8565b9150600a8561362e919061582b565b603061363a91906148fc565b60f81b8183815181106136505761364f614476565b5b60200101907effffffffffffffffffffffffffffffffffffffffffffffffffffffffffffff1916908160001a905350600a8561368c9190614ab3565b945061360a565b8093505050505b919050565b600073ffffffffffffffffffffffffffffffffffffffff168273ffffffffffffffffffffffffffffffffffffffff16141561370f576040517f08c379a0000000000000000000000000000000000000000000000000000000008152600401613706906158a8565b60405180910390fd5b61371881612b42565b15613758576040517f08c379a000000000000000000000000000000000000000000000000000000000815260040161374f90615914565b60405180910390fd5b61376460008383613347565b6001600360008473ffffffffffffffffffffffffffffffffffffffff1673ffffffffffffffffffffffffffffffffffffffff16815260200190815260200160002060008282546137b491906148fc565b92505081905550816002600083815260200190815260200160002060006101000a81548173ffffffffffffffffffffffffffffffffffffffff021916908373ffffffffffffffffffffffffffffffffffffffff160217905550808273ffffffffffffffffffffffffffffffffffffffff16600073ffffffffffffffffffffffffffffffffffffffff167fddf252ad1be2c89b69c2b068fc378daa952ba7f163c4a11628f55a4df523b3ef60405160405180910390a45050565b600080823b905060008111915050919050565b60405180610100016040528060608152602001600060038111156138a7576138a6613e4c565b5b8152602001600060038111156138c0576138bf613e4c565b5b8152602001600060ff168152602001600060ff168152602001600060ff168152602001600060ff168152602001600060ff1681525090565b8280546139049061454c565b90600052602060002090601f016020900481019282613926576000855561396d565b82601f1061393f57805160ff191683800117855561396d565b8280016001018555821561396d579182015b8281111561396c578251825591602001919060010190613951565b5b50905061397a91906139bc565b5090565b6040518060800160405280600081526020016000815260200160008152602001600073ffffffffffffffffffffffffffffffffffffffff1681525090565b5b808211156139d55760008160009055506001016139bd565b5090565b6000604051905090565b600080fd5b600080fd5b600073ffffffffffffffffffffffffffffffffffffffff82169050919050565b6000613a18826139ed565b9050919050565b613a2881613a0d565b8114613a3357600080fd5b50565b600081359050613a4581613a1f565b92915050565b600060208284031215613a6157613a606139e3565b5b6000613a6f84828501613a36565b91505092915050565b600081519050919050565b600082825260208201905092915050565b6000819050602082019050919050565b6000819050919050565b613ab781613aa4565b82525050565b6000613ac98383613aae565b60208301905092915050565b6000602082019050919050565b6000613aed82613a78565b613af78185613a83565b9350613b0283613a94565b8060005b83811015613b33578151613b1a8882613abd565b9750613b2583613ad5565b925050600181019050613b06565b5085935050505092915050565b60006020820190508181036000830152613b5a8184613ae2565b905092915050565b60007fffffffff0000000000000000000000000000000000000000000000000000000082169050919050565b613b9781613b62565b8114613ba257600080fd5b50565b600081359050613bb481613b8e565b92915050565b600060208284031215613bd057613bcf6139e3565b5b6000613bde84828501613ba5565b91505092915050565b60008115159050919050565b613bfc81613be7565b82525050565b6000602082019050613c176000830184613bf3565b92915050565b600081519050919050565b600082825260208201905092915050565b60005b83811015613c57578082015181840152602081019050613c3c565b83811115613c66576000848401525b50505050565b6000601f19601f8301169050919050565b6000613c8882613c1d565b613c928185613c28565b9350613ca2818560208601613c39565b613cab81613c6c565b840191505092915050565b60006020820190508181036000830152613cd08184613c7d565b905092915050565b613ce181613aa4565b8114613cec57600080fd5b50565b600081359050613cfe81613cd8565b92915050565b600060208284031215613d1a57613d196139e3565b5b6000613d2884828501613cef565b91505092915050565b613d3a81613a0d565b82525050565b6000602082019050613d556000830184613d31565b92915050565b60008060408385031215613d7257613d716139e3565b5b6000613d8085828601613a36565b9250506020613d9185828601613cef565b9150509250929050565b600061ffff82169050919050565b613db281613d9b565b8114613dbd57600080fd5b50565b600081359050613dcf81613da9565b92915050565b600060208284031215613deb57613dea6139e3565b5b6000613df984828501613dc0565b91505092915050565b600082825260208201905092915050565b6000613e1e82613c1d565b613e288185613e02565b9350613e38818560208601613c39565b613e4181613c6c565b840191505092915050565b7f4e487b7100000000000000000000000000000000000000000000000000000000600052602160045260246000fd5b60048110613e8c57613e8b613e4c565b5b50565b6000819050613e9d82613e7b565b919050565b6000613ead82613e8f565b9050919050565b613ebd81613ea2565b82525050565b60048110613ed457613ed3613e4c565b5b50565b6000819050613ee582613ec3565b919050565b6000613ef582613ed7565b9050919050565b613f0581613eea565b82525050565b600060ff82169050919050565b613f2181613f0b565b82525050565b6000610100830160008301518482036000860152613f458282613e13565b9150506020830151613f5a6020860182613eb4565b506040830151613f6d6040860182613efc565b506060830151613f806060860182613f18565b506080830151613f936080860182613f18565b5060a0830151613fa660a0860182613f18565b5060c0830151613fb960c0860182613f18565b5060e0830151613fcc60e0860182613f18565b508091505092915050565b60006020820190508181036000830152613ff18184613f27565b905092915050565b600080600060608486031215614012576140116139e3565b5b600061402086828701613a36565b935050602061403186828701613a36565b925050604061404286828701613cef565b9150509250925092565b6004811061405957600080fd5b50565b60008135905061406b8161404c565b92915050565b6004811061407e57600080fd5b50565b60008135905061409081614071565b92915050565b600080604083850312156140ad576140ac6139e3565b5b60006140bb8582860161405c565b92505060206140cc85828601614081565b9150509250929050565b6140df81613aa4565b82525050565b60006020820190506140fa60008301846140d6565b92915050565b61410981613a0d565b82525050565b6080820160008201516141256000850182613aae565b5060208201516141386020850182613aae565b50604082015161414b6040850182613aae565b50606082015161415e6060850182614100565b50505050565b6000608082019050614179600083018461410f565b92915050565b61418881613be7565b811461419357600080fd5b50565b6000813590506141a58161417f565b92915050565b600080604083850312156141c2576141c16139e3565b5b60006141d085828601613a36565b92505060206141e185828601614196565b9150509250929050565b600080fd5b600080fd5b7f4e487b7100000000000000000000000000000000000000000000000000000000600052604160045260246000fd5b61422d82613c6c565b810181811067ffffffffffffffff8211171561424c5761424b6141f5565b5b80604052505050565b600061425f6139d9565b905061426b8282614224565b919050565b600067ffffffffffffffff82111561428b5761428a6141f5565b5b61429482613c6c565b9050602081019050919050565b82818337600083830152505050565b60006142c36142be84614270565b614255565b9050828152602081018484840111156142df576142de6141f0565b5b6142ea8482856142a1565b509392505050565b600082601f830112614307576143066141eb565b5b81356143178482602086016142b0565b91505092915050565b6000806000806080858703121561433a576143396139e3565b5b600061434887828801613a36565b945050602061435987828801613a36565b935050604061436a87828801613cef565b925050606085013567ffffffffffffffff81111561438b5761438a6139e8565b5b614397878288016142f2565b91505092959194509250565b600080604083850312156143ba576143b96139e3565b5b60006143c885828601613cef565b92505060206143d985828601613cef565b9150509250929050565b6000806000606084860312156143fc576143fb6139e3565b5b600061440a86828701613cef565b935050602061441b86828701613cef565b925050604061442c86828701613cef565b9150509250925092565b6000806040838503121561444d5761444c6139e3565b5b600061445b85828601613a36565b925050602061446c85828601613a36565b9150509250929050565b7f4e487b7100000000000000000000000000000000000000000000000000000000600052603260045260246000fd5b7f4e487b7100000000000000000000000000000000000000000000000000000000600052601160045260246000fd5b60006144df82613aa4565b91507fffffffffffffffffffffffffffffffffffffffffffffffffffffffffffffffff821415614512576145116144a5565b5b600182019050919050565b7f4e487b7100000000000000000000000000000000000000000000000000000000600052602260045260246000fd5b6000600282049050600182168061456457607f821691505b602082108114156145785761457761451d565b5b50919050565b7f4552433732313a20617070726f76656420717565727920666f72206e6f6e657860008201527f697374656e7420746f6b656e0000000000000000000000000000000000000000602082015250565b60006145da602c83613c28565b91506145e58261457e565b604082019050919050565b60006020820190508181036000830152614609816145cd565b9050919050565b7f4552433732313a20617070726f76616c20746f2063757272656e74206f776e6560008201527f7200000000000000000000000000000000000000000000000000000000000000602082015250565b600061466c602183613c28565b915061467782614610565b604082019050919050565b6000602082019050818103600083015261469b8161465f565b9050919050565b7f4552433732313a20617070726f76652063616c6c6572206973206e6f74206f7760008201527f6e6572206e6f7220617070726f76656420666f7220616c6c0000000000000000602082015250565b60006146fe603883613c28565b9150614709826146a2565b604082019050919050565b6000602082019050818103600083015261472d816146f1565b9050919050565b7f4e6f74206f776e6572206f662074686973206865726f00000000000000000000600082015250565b600061476a601683613c28565b915061477582614734565b602082019050919050565b600060208201905081810360008301526147998161475d565b9050919050565b60006147ab82613f0b565b915060ff8214156147bf576147be6144a5565b5b600182019050919050565b7f4f776e61626c653a2063616c6c6572206973206e6f7420746865206f776e6572600082015250565b6000614800602083613c28565b915061480b826147ca565b602082019050919050565b6000602082019050818103600083015261482f816147f3565b9050919050565b7f4552433732313a207472616e736665722063616c6c6572206973206e6f74206f60008201527f776e6572206e6f7220617070726f766564000000000000000000000000000000602082015250565b6000614892603183613c28565b915061489d82614836565b604082019050919050565b600060208201905081810360008301526148c181614885565b9050919050565b60006148d382613f0b565b91506148de83613f0b565b9250828210156148f1576148f06144a5565b5b828203905092915050565b600061490782613aa4565b915061491283613aa4565b9250827fffffffffffffffffffffffffffffffffffffffffffffffffffffffffffffffff03821115614947576149466144a5565b5b828201905092915050565b7f41756374696f6e206e6f7420666f756e64000000000000000000000000000000600082015250565b6000614988601183613c28565b915061499382614952565b602082019050919050565b600060208201905081810360008301526149b78161497b565b9050919050565b7f41756374696f6e20656e64656400000000000000000000000000000000000000600082015250565b60006149f4600d83613c28565b91506149ff826149be565b602082019050919050565b60006020820190508181036000830152614a23816149e7565b9050919050565b6000614a3582613aa4565b9150614a4083613aa4565b9250817fffffffffffffffffffffffffffffffffffffffffffffffffffffffffffffffff0483118215151615614a7957614a786144a5565b5b828202905092915050565b7f4e487b7100000000000000000000000000000000000000000000000000000000600052601260045260246000fd5b6000614abe82613aa4565b9150614ac983613aa4565b925082614ad957614ad8614a84565b5b828204905092915050565b7f496e636f72726563742076616c75650000000000000000000000000000000000600082015250565b6000614b1a600f83613c28565b9150614b2582614ae4565b602082019050919050565b60006020820190508181036000830152614b4981614b0d565b9050919050565b7f4552433732313a206f776e657220717565727920666f72206e6f6e657869737460008201527f656e7420746f6b656e0000000000000000000000000000000000000000000000602082015250565b6000614bac602983613c28565b9150614bb782614b50565b604082019050919050565b60006020820190508181036000830152614bdb81614b9f565b9050919050565b7f4552433732313a2062616c616e636520717565727920666f7220746865207a6560008201527f726f206164647265737300000000000000000000000000000000000000000000602082015250565b6000614c3e602a83613c28565b9150614c4982614be2565b604082019050919050565b60006020820190508181036000830152614c6d81614c31565b9050919050565b7f416c7265616479206861732061206269642c2063616e206e6f742063616e636560008201527f6c20746869732061756374696f6e206d6f726500000000000000000000000000602082015250565b6000614cd0603383613c28565b9150614cdb82614c74565b604082019050919050565b60006020820190508181036000830152614cff81614cc3565b9050919050565b7f4552433732313a20617070726f766520746f2063616c6c657200000000000000600082015250565b6000614d3c601983613c28565b9150614d4782614d06565b602082019050919050565b60006020820190508181036000830152614d6b81614d2f565b9050919050565b7f5072696365207a65726f00000000000000000000000000000000000000000000600082015250565b6000614da8600a83613c28565b9150614db382614d72565b602082019050919050565b60006020820190508181036000830152614dd781614d9b565b9050919050565b7f54686572652069732061206163746976652061756374696f6e00000000000000600082015250565b6000614e14601983613c28565b9150614e1f82614dde565b602082019050919050565b60006020820190508181036000830152614e4381614e07565b9050919050565b7f45524337323155524953746f726167653a2055524920717565727920666f722060008201527f6e6f6e6578697374656e7420746f6b656e000000000000000000000000000000602082015250565b6000614ea6603183613c28565b9150614eb182614e4a565b604082019050919050565b60006020820190508181036000830152614ed581614e99565b9050919050565b600081905092915050565b6000614ef282613c1d565b614efc8185614edc565b9350614f0c818560208601613c39565b80840191505092915050565b6000614f248285614ee7565b9150614f308284614ee7565b91508190509392505050565b7f41756374696f6e206d757374206861766520656e642074696d65206f66206d6960008201527f6e696d756d206f662074656e206d696e75746573000000000000000000000000602082015250565b6000614f98603483613c28565b9150614fa382614f3c565b604082019050919050565b60006020820190508181036000830152614fc781614f8b565b9050919050565b7f4d696e696d756d2050726963652067726561746572207468656e207a65726f00600082015250565b6000615004601f83613c28565b915061500f82614fce565b602082019050919050565b6000602082019050818103600083015261503381614ff7565b9050919050565b7f41756374696f6e20616c72656164792063726561746564000000000000000000600082015250565b6000615070601783613c28565b915061507b8261503a565b602082019050919050565b6000602082019050818103600083015261509f81615063565b9050919050565b7f5468697320746f6b656e2069732073657474656420746f2073656c6c00000000600082015250565b60006150dc601c83613c28565b91506150e7826150a6565b602082019050919050565b6000602082019050818103600083015261510b816150cf565b9050919050565b7f41756374696f6e206e6f7420656e646564000000000000000000000000000000600082015250565b6000615148601183613c28565b915061515382615112565b602082019050919050565b600060208201905081810360008301526151778161513b565b9050919050565b7f54686973206865726f206973206e6f7420666f722073616c6500000000000000600082015250565b60006151b4601983613c28565b91506151bf8261517e565b602082019050919050565b600060208201905081810360008301526151e3816151a7565b9050919050565b7f4f776e61626c653a206e6577206f776e657220697320746865207a65726f206160008201527f6464726573730000000000000000000000000000000000000000000000000000602082015250565b6000615246602683613c28565b9150615251826151ea565b604082019050919050565b6000602082019050818103600083015261527581615239565b9050919050565b60008160601b9050919050565b60006152948261527c565b9050919050565b60006152a682615289565b9050919050565b6152be6152b982613a0d565b61529b565b82525050565b60006152d082846152ad565b60148201915081905092915050565b60006152ea826139ed565b9050919050565b60006152fc82615289565b9050919050565b61531461530f826152df565b6152f1565b82525050565b60006153268284615303565b60148201915081905092915050565b6000819050919050565b61535061534b82613aa4565b615335565b82525050565b6000615362828461533f565b60208201915081905092915050565b600061537c82613f0b565b915061538783613f0b565b92508260ff0382111561539d5761539c6144a5565b5b828201905092915050565b60006153b382613aa4565b91506153be83613aa4565b9250828210156153d1576153d06144a5565b5b828203905092915050565b7f4552433732313a206f70657261746f7220717565727920666f72206e6f6e657860008201527f697374656e7420746f6b656e0000000000000000000000000000000000000000602082015250565b6000615438602c83613c28565b9150615443826153dc565b604082019050919050565b600060208201905081810360008301526154678161542b565b9050919050565b7f4552433732313a207472616e73666572206f6620746f6b656e2074686174206960008201527f73206e6f74206f776e0000000000000000000000000000000000000000000000602082015250565b60006154ca602983613c28565b91506154d58261546e565b604082019050919050565b600060208201905081810360008301526154f9816154bd565b9050919050565b7f4552433732313a207472616e7366657220746f20746865207a65726f2061646460008201527f7265737300000000000000000000000000000000000000000000000000000000602082015250565b600061555c602483613c28565b915061556782615500565b604082019050919050565b6000602082019050818103600083015261558b8161554f565b9050919050565b7f45524337323155524953746f726167653a2055524920736574206f66206e6f6e60008201527f6578697374656e7420746f6b656e000000000000000000000000000000000000602082015250565b60006155ee602e83613c28565b91506155f982615592565b604082019050919050565b6000602082019050818103600083015261561d816155e1565b9050919050565b7f4552433732313a207472616e7366657220746f206e6f6e20455243373231526560008201527f63656976657220696d706c656d656e7465720000000000000000000000000000602082015250565b6000615680603283613c28565b915061568b82615624565b604082019050919050565b600060208201905081810360008301526156af81615673565b9050919050565b7f4552433732314d657461646174613a2055524920717565727920666f72206e6f60008201527f6e6578697374656e7420746f6b656e0000000000000000000000000000000000602082015250565b6000615712602f83613c28565b915061571d826156b6565b604082019050919050565b6000602082019050818103600083015261574181615705565b9050919050565b600081519050919050565b600082825260208201905092915050565b600061576f82615748565b6157798185615753565b9350615789818560208601613c39565b61579281613c6c565b840191505092915050565b60006080820190506157b26000830187613d31565b6157bf6020830186613d31565b6157cc60408301856140d6565b81810360608301526157de8184615764565b905095945050505050565b6000815190506157f881613b8e565b92915050565b600060208284031215615814576158136139e3565b5b6000615822848285016157e9565b91505092915050565b600061583682613aa4565b915061584183613aa4565b92508261585157615850614a84565b5b828206905092915050565b7f4552433732313a206d696e7420746f20746865207a65726f2061646472657373600082015250565b6000615892602083613c28565b915061589d8261585c565b602082019050919050565b600060208201905081810360008301526158c181615885565b9050919050565b7f4552433732313a20746f6b656e20616c7265616479206d696e74656400000000600082015250565b60006158fe601c83613c28565b9150615909826158c8565b602082019050919050565b6000602082019050818103600083015261592d816158f1565b905091905056fea2646970667358221220ee6791b3489c25cf819386366538eb0722458bcd75f4cac995159e10c0e0343564736f6c63430008090033",
  "immutableReferences": {},
  "source": "pragma solidity 0.8.9;\n\nimport \"../node_modules/@openzeppelin/contracts/token/ERC721/extensions/ERC721URIStorage.sol\";\nimport \"../node_modules/@openzeppelin/contracts/utils/Counters.sol\";\nimport \"../node_modules/@openzeppelin/contracts/access/Ownable.sol\";\n\ncontract GameToken is ERC721URIStorage, Ownable {\n    using Counters for Counters.Counter;\n    Counters.Counter private _currentHeroId;\n\n    enum HeroType {\n        FIGHTER,\n        ROGUE,\n        MAGE,\n        TANK\n    }\n    enum HeroRarity {\n        COMMON,\n        UNCOMMON,\n        RARE,\n        LEGENDARY\n    }\n\n    struct Hero {\n        string name;\n        HeroType heroType;\n        HeroRarity rarity;\n        uint8 str;\n        uint8 con;\n        uint8 dex;\n        uint8 inte;\n        uint8 level;\n    }\n\n    struct Auction {\n        uint256 endTime;\n        uint256 minValue;\n        uint256 currValue;\n        address lastBidAddress;\n    }\n\n    mapping(uint256 => Hero) private _heroes;\n    mapping(uint256 => uint256) private _sellingHeroes;\n\n    mapping(uint256 => Auction) private _sellingHeroesAuction;\n\n    uint16 private _minBidIncrement = 110;\n    uint16 private _minAuctionTime = 60;\n\n    mapping(HeroType => uint8[]) private _mapMint;\n\n    constructor(string memory name, string memory symbol) ERC721(name, symbol) {\n        _mapMint[HeroType.FIGHTER] = [0, 1, 0, 2, 3, 1];\n        _mapMint[HeroType.ROGUE] = [2, 2, 0, 3, 0, 2];\n        _mapMint[HeroType.MAGE] = [3, 3, 2, 1, 0, 3];\n        _mapMint[HeroType.TANK] = [1, 1, 0, 2, 3, 1];\n    }\n\n    function setMinBidIncrement(uint16 _newMinBidIncrement) public onlyOwner {\n        _minBidIncrement = _newMinBidIncrement;\n    }\n\n    function setMinAuctionTime(uint16 _newMinAuctionTime) public onlyOwner {\n        _minAuctionTime = _newMinAuctionTime;\n    }\n\n    function mint(HeroType _heroType, HeroRarity _heroRarity) public onlyOwner {\n        uint256 newHeroId = _currentHeroId.current();\n\n        uint8 minAttr;\n        uint8 maxAttr;\n\n        if (_heroRarity == HeroRarity.COMMON) {\n            minAttr = 4;\n            maxAttr = 6;\n        } else if (_heroRarity == HeroRarity.UNCOMMON) {\n            minAttr = 7;\n            maxAttr = 8;\n        } else if (_heroRarity == HeroRarity.RARE) {\n            minAttr = 9;\n            maxAttr = 10;\n        } else {\n            minAttr = 11;\n            maxAttr = 12;\n        }\n\n        uint256 attrsSize = rand(maxAttr - minAttr) + minAttr;\n\n        uint8[] memory attrs = new uint8[](4);\n        attrs[0] = 1;\n        attrs[1] = 1;\n        attrs[2] = 1;\n        attrs[3] = 1;\n        uint8 attrCounter = 0;\n\n        for (uint8 i = 1; i <= attrsSize; i++) {\n            attrs[_mapMint[_heroType][attrCounter]]++;\n            if (attrCounter == 5) {\n                attrCounter = 0;\n            } else {\n                attrCounter++;\n            }\n        }\n\n        _safeMint(msg.sender, newHeroId);\n        _setTokenURI(newHeroId, \"teste\");\n        _heroes[newHeroId] = Hero(\n            \"\",\n            _heroType,\n            _heroRarity,\n            attrs[0],\n            attrs[1],\n            attrs[2],\n            attrs[3],\n            1\n        );\n\n        _currentHeroId.increment();\n    }\n\n    function getHeroesByAddress(address owner)\n        public\n        view\n        returns (uint256[] memory)\n    {\n        uint256 heroCount = balanceOf(owner);\n\n        if (heroCount == 0) {\n            return new uint256[](0);\n        } else {\n            uint256[] memory ret = new uint256[](heroCount);\n            uint256 i;\n            uint256 curIndex = 0;\n\n            for (i = 0; i < _currentHeroId.current(); i++) {\n                if (ownerOf(i) == owner) {\n                    ret[curIndex] = i;\n                }\n            }\n\n            return ret;\n        }\n    }\n\n    function getMyHeroes() external view returns (uint256[] memory) {\n        return getHeroesByAddress(msg.sender);\n    }\n\n    function getHero(uint256 _heroId) external view returns (Hero memory) {\n        return _heroes[_heroId];\n    }\n\n    function getAuction(uint256 _heroId)\n        external\n        view\n        returns (Auction memory)\n    {\n        return _sellingHeroesAuction[_heroId];\n    }\n\n    function levelUp(uint256 _heroId) external {\n        require(msg.sender == ownerOf(_heroId), \"Not owner of this hero\");\n\n        Hero storage hero = _heroes[_heroId];\n\n        hero.level++;\n\n        uint256 random = rand(3);\n\n        if (random == 0) {\n            hero.str++;\n        } else if (random == 1) {\n            hero.con++;\n        } else if (random == 2) {\n            hero.dex++;\n        } else if (random == 3) {\n            hero.inte++;\n        }\n    }\n\n    function allowBuy(uint256 _heroId, uint256 _price) external {\n        require(msg.sender == ownerOf(_heroId), \"Not owner of this hero\");\n        require(_price > 0, \"Price zero\");\n\n        require(\n            _sellingHeroesAuction[_heroId].endTime <= 0,\n            \"There is a active auction\"\n        );\n\n        _sellingHeroes[_heroId] = _price;\n    }\n\n    function disallowBuy(uint256 _heroId) external {\n        require(msg.sender == ownerOf(_heroId), \"Not owner of this hero\");\n        _sellingHeroes[_heroId] = 0;\n    }\n\n    function buy(uint256 _heroId) external payable {\n        uint256 price = _sellingHeroes[_heroId];\n        require(price > 0, \"This hero is not for sale\");\n        require(msg.value == price, \"Incorrect value\");\n\n        address seller = ownerOf(_heroId);\n\n        payable(seller).transfer(msg.value);\n\n        _safeTransfer(seller, msg.sender, _heroId, \"\");\n        _sellingHeroes[_heroId] = 0;\n    }\n\n    function createAuction(\n        uint256 _heroId,\n        uint256 _endTime,\n        uint256 _minPrice\n    ) external {\n        require(msg.sender == ownerOf(_heroId), \"Not owner of this hero\");\n        require(\n            _endTime >= (block.timestamp + _minAuctionTime) * 1_000,\n            \"Auction must have end time of minimum of ten minutes\"\n        );\n        require(_minPrice > 0, \"Minimum Price greater then zero\");\n        require(\n            _sellingHeroesAuction[_heroId].endTime <= 0,\n            \"Auction already created\"\n        );\n        require(\n            _sellingHeroes[_heroId] <= 0,\n            \"This token is setted to sell\"\n        );\n\n\n        _sellingHeroesAuction[_heroId] = Auction(\n            _endTime,\n            _minPrice,\n            0,\n            address(0)\n        );\n    }\n\n    function cancelAuction(uint256 _heroId) external {\n        require(msg.sender == ownerOf(_heroId), \"Not owner of this hero\");\n\n        Auction memory auction = _sellingHeroesAuction[_heroId];\n\n        require(\n            auction.currValue <= 0,\n            \"Already has a bid, can not cancel this auction more\"\n        );\n\n        delete _sellingHeroesAuction[_heroId];\n    }\n\n    function bid(uint256 _heroId) external payable {\n        Auction storage auction = _sellingHeroesAuction[_heroId];\n        require(\n            _sellingHeroesAuction[_heroId].endTime > 0,\n            \"Auction not found\"\n        );\n        require(auction.endTime > block.timestamp, \"Auction ended\");\n        require(\n            msg.value >= uint256((auction.currValue * _minBidIncrement) / 100),\n            \"Incorrect value\"\n        );\n\n        //payable(address(this)).transfer(msg.value);\n\n        if (auction.lastBidAddress != address(0)) {\n            payable(auction.lastBidAddress).transfer(auction.currValue);\n        }\n\n        auction.currValue = msg.value;\n        auction.lastBidAddress = msg.sender;\n    }\n\n    function finishAuction(uint256 _heroId) external {\n        Auction memory auction = _sellingHeroesAuction[_heroId];\n\n        require(\n            _sellingHeroesAuction[_heroId].endTime > 0,\n            \"Auction not found\"\n        );\n        require(auction.endTime <= block.timestamp * 1_000, \"Auction not ended\");\n\n        if (auction.currValue > 0) {\n\n            address seller = ownerOf(_heroId);\n\n            payable(seller).transfer(auction.currValue);\n            _safeTransfer(seller, auction.lastBidAddress, _heroId, \"\");\n\n        }\n\n        delete _sellingHeroesAuction[_heroId];\n    }\n\n    function rand(uint8 limit) private view returns (uint256) {\n        uint256 seed = uint256(\n            keccak256(\n                abi.encodePacked(\n                    block.timestamp +\n                        block.difficulty +\n                        ((\n                            uint256(keccak256(abi.encodePacked(block.coinbase)))\n                        ) / (block.timestamp)) +\n                        block.gaslimit +\n                        ((uint256(keccak256(abi.encodePacked(msg.sender)))) /\n                            (block.timestamp)) +\n                        block.number\n                )\n            )\n        );\n\n        return (seed - ((seed / (limit + 1)) * (limit + 1)));\n    }\n\n    function receiver() external payable {}\n}\n",
  "sourcePath": "/home/rfaita/game/nft-game/contract/contracts/GameToken.sol",
  "compiler": {
    "name": "solc",
    "version": "0.8.9+commit.e5eed63a.Emscripten.clang"
  },
  "schemaVersion": "3.4.3",
  "updatedAt": "2021-11-09T19:36:15.517Z",
  "networkType": "ethereum",
  "devdoc": {
    "kind": "dev",
    "methods": {
      "approve(address,uint256)": {
        "details": "See {IERC721-approve}."
      },
      "balanceOf(address)": {
        "details": "See {IERC721-balanceOf}."
      },
      "getApproved(uint256)": {
        "details": "See {IERC721-getApproved}."
      },
      "isApprovedForAll(address,address)": {
        "details": "See {IERC721-isApprovedForAll}."
      },
      "name()": {
        "details": "See {IERC721Metadata-name}."
      },
      "owner()": {
        "details": "Returns the address of the current owner."
      },
      "ownerOf(uint256)": {
        "details": "See {IERC721-ownerOf}."
      },
      "renounceOwnership()": {
        "details": "Leaves the contract without owner. It will not be possible to call `onlyOwner` functions anymore. Can only be called by the current owner. NOTE: Renouncing ownership will leave the contract without an owner, thereby removing any functionality that is only available to the owner."
      },
      "safeTransferFrom(address,address,uint256)": {
        "details": "See {IERC721-safeTransferFrom}."
      },
      "safeTransferFrom(address,address,uint256,bytes)": {
        "details": "See {IERC721-safeTransferFrom}."
      },
      "setApprovalForAll(address,bool)": {
        "details": "See {IERC721-setApprovalForAll}."
      },
      "supportsInterface(bytes4)": {
        "details": "See {IERC165-supportsInterface}."
      },
      "symbol()": {
        "details": "See {IERC721Metadata-symbol}."
      },
      "tokenURI(uint256)": {
        "details": "See {IERC721Metadata-tokenURI}."
      },
      "transferFrom(address,address,uint256)": {
        "details": "See {IERC721-transferFrom}."
      },
      "transferOwnership(address)": {
        "details": "Transfers ownership of the contract to a new account (`newOwner`). Can only be called by the current owner."
      }
    },
    "version": 1
  },
  "userdoc": {
    "kind": "user",
    "methods": {},
    "version": 1
  }
}