{
  "contractName": "GameToken",
  "abi": [
    {
      "inputs": [
        {
          "internalType": "string",
          "name": "name",
          "type": "string"
        },
        {
          "internalType": "string",
          "name": "symbol",
          "type": "string"
        },
        {
          "internalType": "string",
          "name": "baseTokenURI",
          "type": "string"
        }
      ],
      "stateMutability": "nonpayable",
      "type": "constructor"
    },
    {
      "anonymous": false,
      "inputs": [
        {
          "indexed": true,
          "internalType": "address",
          "name": "owner",
          "type": "address"
        },
        {
          "indexed": true,
          "internalType": "address",
          "name": "approved",
          "type": "address"
        },
        {
          "indexed": true,
          "internalType": "uint256",
          "name": "tokenId",
          "type": "uint256"
        }
      ],
      "name": "Approval",
      "type": "event"
    },
    {
      "anonymous": false,
      "inputs": [
        {
          "indexed": true,
          "internalType": "address",
          "name": "owner",
          "type": "address"
        },
        {
          "indexed": true,
          "internalType": "address",
          "name": "operator",
          "type": "address"
        },
        {
          "indexed": false,
          "internalType": "bool",
          "name": "approved",
          "type": "bool"
        }
      ],
      "name": "ApprovalForAll",
      "type": "event"
    },
    {
      "anonymous": false,
      "inputs": [
        {
          "indexed": true,
          "internalType": "address",
          "name": "previousOwner",
          "type": "address"
        },
        {
          "indexed": true,
          "internalType": "address",
          "name": "newOwner",
          "type": "address"
        }
      ],
      "name": "OwnershipTransferred",
      "type": "event"
    },
    {
      "anonymous": false,
      "inputs": [
        {
          "indexed": true,
          "internalType": "address",
          "name": "from",
          "type": "address"
        },
        {
          "indexed": true,
          "internalType": "address",
          "name": "to",
          "type": "address"
        },
        {
          "indexed": true,
          "internalType": "uint256",
          "name": "tokenId",
          "type": "uint256"
        }
      ],
      "name": "Transfer",
      "type": "event"
    },
    {
      "inputs": [
        {
          "internalType": "address",
          "name": "to",
          "type": "address"
        },
        {
          "internalType": "uint256",
          "name": "tokenId",
          "type": "uint256"
        }
      ],
      "name": "approve",
      "outputs": [],
      "stateMutability": "nonpayable",
      "type": "function"
    },
    {
      "inputs": [
        {
          "internalType": "address",
          "name": "owner",
          "type": "address"
        }
      ],
      "name": "balanceOf",
      "outputs": [
        {
          "internalType": "uint256",
          "name": "",
          "type": "uint256"
        }
      ],
      "stateMutability": "view",
      "type": "function",
      "constant": true
    },
    {
      "inputs": [
        {
          "internalType": "uint256",
          "name": "tokenId",
          "type": "uint256"
        }
      ],
      "name": "getApproved",
      "outputs": [
        {
          "internalType": "address",
          "name": "",
          "type": "address"
        }
      ],
      "stateMutability": "view",
      "type": "function",
      "constant": true
    },
    {
      "inputs": [
        {
          "internalType": "address",
          "name": "owner",
          "type": "address"
        },
        {
          "internalType": "address",
          "name": "operator",
          "type": "address"
        }
      ],
      "name": "isApprovedForAll",
      "outputs": [
        {
          "internalType": "bool",
          "name": "",
          "type": "bool"
        }
      ],
      "stateMutability": "view",
      "type": "function",
      "constant": true
    },
    {
      "inputs": [],
      "name": "name",
      "outputs": [
        {
          "internalType": "string",
          "name": "",
          "type": "string"
        }
      ],
      "stateMutability": "view",
      "type": "function",
      "constant": true
    },
    {
      "inputs": [],
      "name": "owner",
      "outputs": [
        {
          "internalType": "address",
          "name": "",
          "type": "address"
        }
      ],
      "stateMutability": "view",
      "type": "function",
      "constant": true
    },
    {
      "inputs": [
        {
          "internalType": "uint256",
          "name": "tokenId",
          "type": "uint256"
        }
      ],
      "name": "ownerOf",
      "outputs": [
        {
          "internalType": "address",
          "name": "",
          "type": "address"
        }
      ],
      "stateMutability": "view",
      "type": "function",
      "constant": true
    },
    {
      "inputs": [],
      "name": "renounceOwnership",
      "outputs": [],
      "stateMutability": "nonpayable",
      "type": "function"
    },
    {
      "inputs": [
        {
          "internalType": "address",
          "name": "from",
          "type": "address"
        },
        {
          "internalType": "address",
          "name": "to",
          "type": "address"
        },
        {
          "internalType": "uint256",
          "name": "tokenId",
          "type": "uint256"
        }
      ],
      "name": "safeTransferFrom",
      "outputs": [],
      "stateMutability": "nonpayable",
      "type": "function"
    },
    {
      "inputs": [
        {
          "internalType": "address",
          "name": "from",
          "type": "address"
        },
        {
          "internalType": "address",
          "name": "to",
          "type": "address"
        },
        {
          "internalType": "uint256",
          "name": "tokenId",
          "type": "uint256"
        },
        {
          "internalType": "bytes",
          "name": "_data",
          "type": "bytes"
        }
      ],
      "name": "safeTransferFrom",
      "outputs": [],
      "stateMutability": "nonpayable",
      "type": "function"
    },
    {
      "inputs": [
        {
          "internalType": "address",
          "name": "operator",
          "type": "address"
        },
        {
          "internalType": "bool",
          "name": "approved",
          "type": "bool"
        }
      ],
      "name": "setApprovalForAll",
      "outputs": [],
      "stateMutability": "nonpayable",
      "type": "function"
    },
    {
      "inputs": [
        {
          "internalType": "bytes4",
          "name": "interfaceId",
          "type": "bytes4"
        }
      ],
      "name": "supportsInterface",
      "outputs": [
        {
          "internalType": "bool",
          "name": "",
          "type": "bool"
        }
      ],
      "stateMutability": "view",
      "type": "function",
      "constant": true
    },
    {
      "inputs": [],
      "name": "symbol",
      "outputs": [
        {
          "internalType": "string",
          "name": "",
          "type": "string"
        }
      ],
      "stateMutability": "view",
      "type": "function",
      "constant": true
    },
    {
      "inputs": [
        {
          "internalType": "address",
          "name": "from",
          "type": "address"
        },
        {
          "internalType": "address",
          "name": "to",
          "type": "address"
        },
        {
          "internalType": "uint256",
          "name": "tokenId",
          "type": "uint256"
        }
      ],
      "name": "transferFrom",
      "outputs": [],
      "stateMutability": "nonpayable",
      "type": "function"
    },
    {
      "inputs": [
        {
          "internalType": "address",
          "name": "newOwner",
          "type": "address"
        }
      ],
      "name": "transferOwnership",
      "outputs": [],
      "stateMutability": "nonpayable",
      "type": "function"
    },
    {
      "inputs": [],
      "name": "getHeroes",
      "outputs": [
        {
          "components": [
            {
              "internalType": "string",
              "name": "name",
              "type": "string"
            },
            {
              "internalType": "enum GameToken.HeroType",
              "name": "heroType",
              "type": "uint8"
            },
            {
              "internalType": "enum GameToken.HeroRarity",
              "name": "rarity",
              "type": "uint8"
            },
            {
              "internalType": "uint8",
              "name": "str",
              "type": "uint8"
            },
            {
              "internalType": "uint8",
              "name": "con",
              "type": "uint8"
            },
            {
              "internalType": "uint8",
              "name": "dex",
              "type": "uint8"
            },
            {
              "internalType": "uint8",
              "name": "inte",
              "type": "uint8"
            },
            {
              "internalType": "uint8",
              "name": "level",
              "type": "uint8"
            }
          ],
          "internalType": "struct GameToken.Hero[]",
          "name": "",
          "type": "tuple[]"
        }
      ],
      "stateMutability": "view",
      "type": "function",
      "constant": true
    },
    {
      "inputs": [
        {
          "internalType": "enum GameToken.HeroType",
          "name": "_heroType",
          "type": "uint8"
        },
        {
          "internalType": "enum GameToken.HeroRarity",
          "name": "_heroRarity",
          "type": "uint8"
        },
        {
          "internalType": "string",
          "name": "_tokenURI",
          "type": "string"
        }
      ],
      "name": "mint",
      "outputs": [],
      "stateMutability": "nonpayable",
      "type": "function"
    },
    {
      "inputs": [
        {
          "internalType": "address",
          "name": "owner",
          "type": "address"
        }
      ],
      "name": "getHeroesByAddress",
      "outputs": [
        {
          "internalType": "uint256[]",
          "name": "",
          "type": "uint256[]"
        }
      ],
      "stateMutability": "view",
      "type": "function",
      "constant": true
    },
    {
      "inputs": [],
      "name": "getMyHeroes",
      "outputs": [
        {
          "internalType": "uint256[]",
          "name": "",
          "type": "uint256[]"
        }
      ],
      "stateMutability": "view",
      "type": "function",
      "constant": true
    },
    {
      "inputs": [
        {
          "internalType": "uint256",
          "name": "_heroId",
          "type": "uint256"
        }
      ],
      "name": "getHero",
      "outputs": [
        {
          "components": [
            {
              "internalType": "string",
              "name": "name",
              "type": "string"
            },
            {
              "internalType": "enum GameToken.HeroType",
              "name": "heroType",
              "type": "uint8"
            },
            {
              "internalType": "enum GameToken.HeroRarity",
              "name": "rarity",
              "type": "uint8"
            },
            {
              "internalType": "uint8",
              "name": "str",
              "type": "uint8"
            },
            {
              "internalType": "uint8",
              "name": "con",
              "type": "uint8"
            },
            {
              "internalType": "uint8",
              "name": "dex",
              "type": "uint8"
            },
            {
              "internalType": "uint8",
              "name": "inte",
              "type": "uint8"
            },
            {
              "internalType": "uint8",
              "name": "level",
              "type": "uint8"
            }
          ],
          "internalType": "struct GameToken.Hero",
          "name": "",
          "type": "tuple"
        }
      ],
      "stateMutability": "view",
      "type": "function",
      "constant": true
    },
    {
      "inputs": [
        {
          "internalType": "uint256",
          "name": "_heroId",
          "type": "uint256"
        },
        {
          "internalType": "string",
          "name": "_name",
          "type": "string"
        }
      ],
      "name": "setName",
      "outputs": [],
      "stateMutability": "nonpayable",
      "type": "function"
    },
    {
      "inputs": [
        {
          "internalType": "uint256",
          "name": "_heroId",
          "type": "uint256"
        }
      ],
      "name": "levelUp",
      "outputs": [],
      "stateMutability": "nonpayable",
      "type": "function"
    },
    {
      "inputs": [
        {
          "internalType": "uint256",
          "name": "tokenId",
          "type": "uint256"
        }
      ],
      "name": "tokenURI",
      "outputs": [
        {
          "internalType": "string",
          "name": "",
          "type": "string"
        }
      ],
      "stateMutability": "view",
      "type": "function",
      "constant": true
    },
    {
      "inputs": [],
      "name": "receiver",
      "outputs": [],
      "stateMutability": "payable",
      "type": "function",
      "payable": true
    }
  ],
  "bytecode": "0x60806040523480156200001157600080fd5b50604051620051a9380380620051a98339818101604052810190620000379190620006c6565b8282816000908051906020019062000051929190620003cb565b5080600190805190602001906200006a929190620003cb565b5050506200008d62000081620002fd60201b60201c565b6200030560201b60201c565b80600a9080519060200190620000a5929190620003cb565b506040518060c00160405280600060ff168152602001600160ff168152602001600060ff168152602001600260ff168152602001600360ff168152602001600160ff16815250600b60008060038111156200010557620001046200077f565b5b60038111156200011a57620001196200077f565b5b8152602001908152602001600020906006620001389291906200045c565b506040518060c00160405280600260ff168152602001600260ff168152602001600060ff168152602001600360ff168152602001600060ff168152602001600260ff16815250600b6000600160038111156200019957620001986200077f565b5b6003811115620001ae57620001ad6200077f565b5b8152602001908152602001600020906006620001cc9291906200045c565b506040518060c00160405280600360ff168152602001600360ff168152602001600260ff168152602001600160ff168152602001600060ff168152602001600360ff16815250600b6000600260038111156200022d576200022c6200077f565b5b60038111156200024257620002416200077f565b5b8152602001908152602001600020906006620002609291906200045c565b506040518060c00160405280600160ff168152602001600160ff168152602001600060ff168152602001600260ff168152602001600360ff168152602001600160ff16815250600b6000600380811115620002c057620002bf6200077f565b5b6003811115620002d557620002d46200077f565b5b8152602001908152602001600020906006620002f39291906200045c565b5050505062000813565b600033905090565b6000600760009054906101000a900473ffffffffffffffffffffffffffffffffffffffff16905081600760006101000a81548173ffffffffffffffffffffffffffffffffffffffff021916908373ffffffffffffffffffffffffffffffffffffffff1602179055508173ffffffffffffffffffffffffffffffffffffffff168173ffffffffffffffffffffffffffffffffffffffff167f8be0079c531659141344cd1fd0a4f28419497f9722a3daafe3b4186f6b6457e060405160405180910390a35050565b828054620003d990620007dd565b90600052602060002090601f016020900481019282620003fd576000855562000449565b82601f106200041857805160ff191683800117855562000449565b8280016001018555821562000449579182015b82811115620004485782518255916020019190600101906200042b565b5b5090506200045891906200050a565b5090565b82805482825590600052602060002090601f01602090048101928215620004f75791602002820160005b83821115620004c657835183826101000a81548160ff021916908360ff160217905550926020019260010160208160000104928301926001030262000486565b8015620004f55782816101000a81549060ff0219169055600101602081600001049283019260010302620004c6565b505b5090506200050691906200050a565b5090565b5b80821115620005255760008160009055506001016200050b565b5090565b6000604051905090565b600080fd5b600080fd5b600080fd5b600080fd5b6000601f19601f8301169050919050565b7f4e487b7100000000000000000000000000000000000000000000000000000000600052604160045260246000fd5b620005928262000547565b810181811067ffffffffffffffff82111715620005b457620005b362000558565b5b80604052505050565b6000620005c962000529565b9050620005d7828262000587565b919050565b600067ffffffffffffffff821115620005fa57620005f962000558565b5b620006058262000547565b9050602081019050919050565b60005b838110156200063257808201518184015260208101905062000615565b8381111562000642576000848401525b50505050565b60006200065f6200065984620005dc565b620005bd565b9050828152602081018484840111156200067e576200067d62000542565b5b6200068b84828562000612565b509392505050565b600082601f830112620006ab57620006aa6200053d565b5b8151620006bd84826020860162000648565b91505092915050565b600080600060608486031215620006e257620006e162000533565b5b600084015167ffffffffffffffff81111562000703576200070262000538565b5b620007118682870162000693565b935050602084015167ffffffffffffffff81111562000735576200073462000538565b5b620007438682870162000693565b925050604084015167ffffffffffffffff81111562000767576200076662000538565b5b620007758682870162000693565b9150509250925092565b7f4e487b7100000000000000000000000000000000000000000000000000000000600052602160045260246000fd5b7f4e487b7100000000000000000000000000000000000000000000000000000000600052602260045260246000fd5b60006002820490506001821680620007f657607f821691505b602082108114156200080d576200080c620007ae565b5b50919050565b61498680620008236000396000f3fe60806040526004361061014a5760003560e01c8063715018a6116100b6578063b88d4fde1161006f578063b88d4fde146104a1578063c87b56dd146104ca578063e985e9c514610507578063f2fde38b14610544578063f7260d3e1461056d578063fe55932a146105775761014a565b8063715018a6146103b5578063806f5283146103cc5780638da5cb5b146103f757806395d89b41146104225780639a8d28821461044d578063a22cb465146104785761014a565b806310d44ae01161010857806310d44ae01461028357806321d80111146102ac57806323b872dd146102e957806342842e0e146103125780636352211e1461033b57806370a08231146103785761014a565b80625597e31461014f57806301ffc9a71461018c57806306fdde03146101c9578063081812fc146101f4578063095ea7b3146102315780630ce90ec21461025a575b600080fd5b34801561015b57600080fd5b5061017660048036038101906101719190612dc4565b6105a0565b6040516101839190612eb9565b60405180910390f35b34801561019857600080fd5b506101b360048036038101906101ae9190612f33565b6106fd565b6040516101c09190612f7b565b60405180910390f35b3480156101d557600080fd5b506101de6107df565b6040516101eb919061302f565b60405180910390f35b34801561020057600080fd5b5061021b6004803603810190610216919061307d565b610871565b60405161022891906130b9565b60405180910390f35b34801561023d57600080fd5b50610258600480360381019061025391906130d4565b6108f6565b005b34801561026657600080fd5b50610281600480360381019061027c919061307d565b610a0e565b005b34801561028f57600080fd5b506102aa60048036038101906102a59190613293565b610c16565b005b3480156102b857600080fd5b506102d360048036038101906102ce919061307d565b6111c3565b6040516102e091906134d7565b60405180910390f35b3480156102f557600080fd5b50610310600480360381019061030b91906134f9565b611399565b005b34801561031e57600080fd5b50610339600480360381019061033491906134f9565b6113f9565b005b34801561034757600080fd5b50610362600480360381019061035d919061307d565b611419565b60405161036f91906130b9565b60405180910390f35b34801561038457600080fd5b5061039f600480360381019061039a9190612dc4565b6114cb565b6040516103ac919061355b565b60405180910390f35b3480156103c157600080fd5b506103ca611583565b005b3480156103d857600080fd5b506103e161160b565b6040516103ee9190612eb9565b60405180910390f35b34801561040357600080fd5b5061040c61161b565b60405161041991906130b9565b60405180910390f35b34801561042e57600080fd5b50610437611645565b604051610444919061302f565b60405180910390f35b34801561045957600080fd5b506104626116d7565b60405161046f91906136e8565b60405180910390f35b34801561048457600080fd5b5061049f600480360381019061049a9190613736565b6118d0565b005b3480156104ad57600080fd5b506104c860048036038101906104c39190613817565b611a51565b005b3480156104d657600080fd5b506104f160048036038101906104ec919061307d565b611ab3565b6040516104fe919061302f565b60405180910390f35b34801561051357600080fd5b5061052e6004803603810190610529919061389a565b611ae7565b60405161053b9190612f7b565b60405180910390f35b34801561055057600080fd5b5061056b60048036038101906105669190612dc4565b611b7b565b005b610575611c73565b005b34801561058357600080fd5b5061059e600480360381019061059991906138da565b611c75565b005b606060006105ad836114cb565b9050600081141561060a57600067ffffffffffffffff8111156105d3576105d2613168565b5b6040519080825280602002602001820160405280156106015781602001602082028036833780820191505090505b509150506106f8565b60008167ffffffffffffffff81111561062657610625613168565b5b6040519080825280602002602001820160405280156106545781602001602082028036833780820191505090505b50905060008060009050600091505b61066d6008611d2f565b8210156106f0578573ffffffffffffffffffffffffffffffffffffffff1661069483611419565b73ffffffffffffffffffffffffffffffffffffffff1614156106dd57818382806106bd90613965565b9350815181106106d0576106cf6139ae565b5b6020026020010181815250505b81806106e890613965565b925050610663565b829450505050505b919050565b60007f80ac58cd000000000000000000000000000000000000000000000000000000007bffffffffffffffffffffffffffffffffffffffffffffffffffffffff1916827bffffffffffffffffffffffffffffffffffffffffffffffffffffffff191614806107c857507f5b5e139f000000000000000000000000000000000000000000000000000000007bffffffffffffffffffffffffffffffffffffffffffffffffffffffff1916827bffffffffffffffffffffffffffffffffffffffffffffffffffffffff1916145b806107d857506107d782611d3d565b5b9050919050565b6060600080546107ee90613a0c565b80601f016020809104026020016040519081016040528092919081815260200182805461081a90613a0c565b80156108675780601f1061083c57610100808354040283529160200191610867565b820191906000526020600020905b81548152906001019060200180831161084a57829003601f168201915b5050505050905090565b600061087c82611da7565b6108bb576040517f08c379a00000000000000000000000000000000000000000000000000000000081526004016108b290613ab0565b60405180910390fd5b6004600083815260200190815260200160002060009054906101000a900473ffffffffffffffffffffffffffffffffffffffff169050919050565b600061090182611419565b90508073ffffffffffffffffffffffffffffffffffffffff168373ffffffffffffffffffffffffffffffffffffffff161415610972576040517f08c379a000000000000000000000000000000000000000000000000000000000815260040161096990613b42565b60405180910390fd5b8073ffffffffffffffffffffffffffffffffffffffff16610991611e13565b73ffffffffffffffffffffffffffffffffffffffff1614806109c057506109bf816109ba611e13565b611ae7565b5b6109ff576040517f08c379a00000000000000000000000000000000000000000000000000000000081526004016109f690613bd4565b60405180910390fd5b610a098383611e1b565b505050565b610a1781611419565b73ffffffffffffffffffffffffffffffffffffffff163373ffffffffffffffffffffffffffffffffffffffff1614610a84576040517f08c379a0000000000000000000000000000000000000000000000000000000008152600401610a7b90613c40565b60405180910390fd5b600060098281548110610a9a57610a996139ae565b5b9060005260206000209060020201905080600101600681819054906101000a900460ff1680929190610acb90613c60565b91906101000a81548160ff021916908360ff160217905550506000610af06003611ed4565b90506000811415610b3a5781600101600281819054906101000a900460ff1680929190610b1c90613c60565b91906101000a81548160ff021916908360ff16021790555050610c11565b6001811415610b825781600101600381819054906101000a900460ff1680929190610b6490613c60565b91906101000a81548160ff021916908360ff16021790555050610c10565b6002811415610bca5781600101600481819054906101000a900460ff1680929190610bac90613c60565b91906101000a81548160ff021916908360ff16021790555050610c0f565b6003811415610c0e5781600101600581819054906101000a900460ff1680929190610bf490613c60565b91906101000a81548160ff021916908360ff160217905550505b5b5b5b505050565b610c1e611e13565b73ffffffffffffffffffffffffffffffffffffffff16610c3c61161b565b73ffffffffffffffffffffffffffffffffffffffff1614610c92576040517f08c379a0000000000000000000000000000000000000000000000000000000008152600401610c8990613cd6565b60405180910390fd5b6000610c9e6008611d2f565b905060008060006003811115610cb757610cb661334c565b5b856003811115610cca57610cc961334c565b5b1415610cdd576004915060069050610d5c565b60016003811115610cf157610cf061334c565b5b856003811115610d0457610d0361334c565b5b1415610d17576007915060089050610d5b565b60026003811115610d2b57610d2a61334c565b5b856003811115610d3e57610d3d61334c565b5b1415610d515760099150600a9050610d5a565b600b9150600c90505b5b5b60008260ff16610d768484610d719190613cf6565b611ed4565b610d809190613d2a565b90506000600467ffffffffffffffff811115610d9f57610d9e613168565b5b604051908082528060200260200182016040528015610dcd5781602001602082028036833780820191505090505b509050600181600081518110610de657610de56139ae565b5b602002602001019060ff16908160ff1681525050600181600181518110610e1057610e0f6139ae565b5b602002602001019060ff16908160ff1681525050600181600281518110610e3a57610e396139ae565b5b602002602001019060ff16908160ff1681525050600181600381518110610e6457610e636139ae565b5b602002602001019060ff16908160ff1681525050600080600190505b838160ff1611610f615782600b60008c6003811115610ea257610ea161334c565b5b6003811115610eb457610eb361334c565b5b81526020019081526020016000208360ff1681548110610ed757610ed66139ae565b5b90600052602060002090602091828204019190069054906101000a900460ff1660ff1681518110610f0b57610f0a6139ae565b5b602002602001018051809190610f2090613c60565b60ff1660ff168152505060058260ff161415610f3f5760009150610f4e565b8180610f4a90613c60565b9250505b8080610f5990613c60565b915050610e80565b50610f6c3387611fea565b610f768688612008565b60096040518061010001604052806040518060200160405280600081525081526020018b6003811115610fac57610fab61334c565b5b81526020018a6003811115610fc457610fc361334c565b5b815260200184600081518110610fdd57610fdc6139ae565b5b602002602001015160ff16815260200184600181518110611001576110006139ae565b5b602002602001015160ff16815260200184600281518110611025576110246139ae565b5b602002602001015160ff16815260200184600381518110611049576110486139ae565b5b602002602001015160ff168152602001600160ff16815250908060018154018082558091505060019003906000526020600020906002020160009091909190915060008201518160000190805190602001906110a6929190612c37565b5060208201518160010160006101000a81548160ff021916908360038111156110d2576110d161334c565b5b021790555060408201518160010160016101000a81548160ff021916908360038111156111025761110161334c565b5b021790555060608201518160010160026101000a81548160ff021916908360ff16021790555060808201518160010160036101000a81548160ff021916908360ff16021790555060a08201518160010160046101000a81548160ff021916908360ff16021790555060c08201518160010160056101000a81548160ff021916908360ff16021790555060e08201518160010160066101000a81548160ff021916908360ff16021790555050506111b8600861207c565b505050505050505050565b6111cb612cbd565b600982815481106111df576111de6139ae565b5b90600052602060002090600202016040518061010001604052908160008201805461120990613a0c565b80601f016020809104026020016040519081016040528092919081815260200182805461123590613a0c565b80156112825780601f1061125757610100808354040283529160200191611282565b820191906000526020600020905b81548152906001019060200180831161126557829003601f168201915b505050505081526020016001820160009054906101000a900460ff1660038111156112b0576112af61334c565b5b60038111156112c2576112c161334c565b5b81526020016001820160019054906101000a900460ff1660038111156112eb576112ea61334c565b5b60038111156112fd576112fc61334c565b5b81526020016001820160029054906101000a900460ff1660ff1660ff1681526020016001820160039054906101000a900460ff1660ff1660ff1681526020016001820160049054906101000a900460ff1660ff1660ff1681526020016001820160059054906101000a900460ff1660ff1660ff1681526020016001820160069054906101000a900460ff1660ff1660ff16815250509050919050565b6113aa6113a4611e13565b82612092565b6113e9576040517f08c379a00000000000000000000000000000000000000000000000000000000081526004016113e090613df2565b60405180910390fd5b6113f4838383612170565b505050565b61141483838360405180602001604052806000815250611a51565b505050565b6000806002600084815260200190815260200160002060009054906101000a900473ffffffffffffffffffffffffffffffffffffffff169050600073ffffffffffffffffffffffffffffffffffffffff168173ffffffffffffffffffffffffffffffffffffffff1614156114c2576040517f08c379a00000000000000000000000000000000000000000000000000000000081526004016114b990613e84565b60405180910390fd5b80915050919050565b60008073ffffffffffffffffffffffffffffffffffffffff168273ffffffffffffffffffffffffffffffffffffffff16141561153c576040517f08c379a000000000000000000000000000000000000000000000000000000000815260040161153390613f16565b60405180910390fd5b600360008373ffffffffffffffffffffffffffffffffffffffff1673ffffffffffffffffffffffffffffffffffffffff168152602001908152602001600020549050919050565b61158b611e13565b73ffffffffffffffffffffffffffffffffffffffff166115a961161b565b73ffffffffffffffffffffffffffffffffffffffff16146115ff576040517f08c379a00000000000000000000000000000000000000000000000000000000081526004016115f690613cd6565b60405180910390fd5b61160960006123cc565b565b6060611616336105a0565b905090565b6000600760009054906101000a900473ffffffffffffffffffffffffffffffffffffffff16905090565b60606001805461165490613a0c565b80601f016020809104026020016040519081016040528092919081815260200182805461168090613a0c565b80156116cd5780601f106116a2576101008083540402835291602001916116cd565b820191906000526020600020905b8154815290600101906020018083116116b057829003601f168201915b5050505050905090565b60606009805480602002602001604051908101604052809291908181526020016000905b828210156118c757838290600052602060002090600202016040518061010001604052908160008201805461172f90613a0c565b80601f016020809104026020016040519081016040528092919081815260200182805461175b90613a0c565b80156117a85780601f1061177d576101008083540402835291602001916117a8565b820191906000526020600020905b81548152906001019060200180831161178b57829003601f168201915b505050505081526020016001820160009054906101000a900460ff1660038111156117d6576117d561334c565b5b60038111156117e8576117e761334c565b5b81526020016001820160019054906101000a900460ff1660038111156118115761181061334c565b5b60038111156118235761182261334c565b5b81526020016001820160029054906101000a900460ff1660ff1660ff1681526020016001820160039054906101000a900460ff1660ff1660ff1681526020016001820160049054906101000a900460ff1660ff1660ff1681526020016001820160059054906101000a900460ff1660ff1660ff1681526020016001820160069054906101000a900460ff1660ff1660ff1681525050815260200190600101906116fb565b50505050905090565b6118d8611e13565b73ffffffffffffffffffffffffffffffffffffffff168273ffffffffffffffffffffffffffffffffffffffff161415611946576040517f08c379a000000000000000000000000000000000000000000000000000000000815260040161193d90613f82565b60405180910390fd5b8060056000611953611e13565b73ffffffffffffffffffffffffffffffffffffffff1673ffffffffffffffffffffffffffffffffffffffff16815260200190815260200160002060008473ffffffffffffffffffffffffffffffffffffffff1673ffffffffffffffffffffffffffffffffffffffff16815260200190815260200160002060006101000a81548160ff0219169083151502179055508173ffffffffffffffffffffffffffffffffffffffff16611a00611e13565b73ffffffffffffffffffffffffffffffffffffffff167f17307eab39ab6107e8899845ad3d59bd9653f200f220920489ca2b5937696c3183604051611a459190612f7b565b60405180910390a35050565b611a62611a5c611e13565b83612092565b611aa1576040517f08c379a0000000000000000000000000000000000000000000000000000000008152600401611a9890613df2565b60405180910390fd5b611aad84848484612492565b50505050565b6060600a611ac0836124ee565b604051602001611ad1929190614072565b6040516020818303038152906040529050919050565b6000600560008473ffffffffffffffffffffffffffffffffffffffff1673ffffffffffffffffffffffffffffffffffffffff16815260200190815260200160002060008373ffffffffffffffffffffffffffffffffffffffff1673ffffffffffffffffffffffffffffffffffffffff16815260200190815260200160002060009054906101000a900460ff16905092915050565b611b83611e13565b73ffffffffffffffffffffffffffffffffffffffff16611ba161161b565b73ffffffffffffffffffffffffffffffffffffffff1614611bf7576040517f08c379a0000000000000000000000000000000000000000000000000000000008152600401611bee90613cd6565b60405180910390fd5b600073ffffffffffffffffffffffffffffffffffffffff168173ffffffffffffffffffffffffffffffffffffffff161415611c67576040517f08c379a0000000000000000000000000000000000000000000000000000000008152600401611c5e90614108565b60405180910390fd5b611c70816123cc565b50565b565b611c7e82611419565b73ffffffffffffffffffffffffffffffffffffffff163373ffffffffffffffffffffffffffffffffffffffff1614611ceb576040517f08c379a0000000000000000000000000000000000000000000000000000000008152600401611ce290613c40565b60405180910390fd5b600060098381548110611d0157611d006139ae565b5b9060005260206000209060020201905081816000019080519060200190611d29929190612c37565b50505050565b600081600001549050919050565b60007f01ffc9a7000000000000000000000000000000000000000000000000000000007bffffffffffffffffffffffffffffffffffffffffffffffffffffffff1916827bffffffffffffffffffffffffffffffffffffffffffffffffffffffff1916149050919050565b60008073ffffffffffffffffffffffffffffffffffffffff166002600084815260200190815260200160002060009054906101000a900473ffffffffffffffffffffffffffffffffffffffff1673ffffffffffffffffffffffffffffffffffffffff1614159050919050565b600033905090565b816004600083815260200190815260200160002060006101000a81548173ffffffffffffffffffffffffffffffffffffffff021916908373ffffffffffffffffffffffffffffffffffffffff160217905550808273ffffffffffffffffffffffffffffffffffffffff16611e8e83611419565b73ffffffffffffffffffffffffffffffffffffffff167f8c5be1e5ebec7d5bd14f71427d1e84f3dd0314c0f7b2291e5b200ac8c7c3b92560405160405180910390a45050565b600080434233604051602001611eea9190614170565b6040516020818303038152906040528051906020012060001c611f0d91906141ba565b454241604051602001611f209190614226565b6040516020818303038152906040528051906020012060001c611f4391906141ba565b4442611f4f9190613d2a565b611f599190613d2a565b611f639190613d2a565b611f6d9190613d2a565b611f779190613d2a565b604051602001611f879190614262565b6040516020818303038152906040528051906020012060001c9050600183611faf919061427d565b60ff16600184611fbf919061427d565b60ff1682611fcd91906141ba565b611fd791906142b4565b81611fe2919061430e565b915050919050565b612004828260405180602001604052806000815250612640565b5050565b61201182611da7565b612050576040517f08c379a0000000000000000000000000000000000000000000000000000000008152600401612047906143b4565b60405180910390fd5b80600660008481526020019081526020016000209080519060200190612077929190612c37565b505050565b6001816000016000828254019250508190555050565b600061209d82611da7565b6120dc576040517f08c379a00000000000000000000000000000000000000000000000000000000081526004016120d390614446565b60405180910390fd5b60006120e783611419565b90508073ffffffffffffffffffffffffffffffffffffffff168473ffffffffffffffffffffffffffffffffffffffff16148061215657508373ffffffffffffffffffffffffffffffffffffffff1661213e84610871565b73ffffffffffffffffffffffffffffffffffffffff16145b8061216757506121668185611ae7565b5b91505092915050565b8273ffffffffffffffffffffffffffffffffffffffff1661219082611419565b73ffffffffffffffffffffffffffffffffffffffff16146121e6576040517f08c379a00000000000000000000000000000000000000000000000000000000081526004016121dd906144d8565b60405180910390fd5b600073ffffffffffffffffffffffffffffffffffffffff168273ffffffffffffffffffffffffffffffffffffffff161415612256576040517f08c379a000000000000000000000000000000000000000000000000000000000815260040161224d9061456a565b60405180910390fd5b61226183838361269b565b61226c600082611e1b565b6001600360008573ffffffffffffffffffffffffffffffffffffffff1673ffffffffffffffffffffffffffffffffffffffff16815260200190815260200160002060008282546122bc919061430e565b925050819055506001600360008473ffffffffffffffffffffffffffffffffffffffff1673ffffffffffffffffffffffffffffffffffffffff16815260200190815260200160002060008282546123139190613d2a565b92505081905550816002600083815260200190815260200160002060006101000a81548173ffffffffffffffffffffffffffffffffffffffff021916908373ffffffffffffffffffffffffffffffffffffffff160217905550808273ffffffffffffffffffffffffffffffffffffffff168473ffffffffffffffffffffffffffffffffffffffff167fddf252ad1be2c89b69c2b068fc378daa952ba7f163c4a11628f55a4df523b3ef60405160405180910390a4505050565b6000600760009054906101000a900473ffffffffffffffffffffffffffffffffffffffff16905081600760006101000a81548173ffffffffffffffffffffffffffffffffffffffff021916908373ffffffffffffffffffffffffffffffffffffffff1602179055508173ffffffffffffffffffffffffffffffffffffffff168173ffffffffffffffffffffffffffffffffffffffff167f8be0079c531659141344cd1fd0a4f28419497f9722a3daafe3b4186f6b6457e060405160405180910390a35050565b61249d848484612170565b6124a9848484846126a0565b6124e8576040517f08c379a00000000000000000000000000000000000000000000000000000000081526004016124df906145fc565b60405180910390fd5b50505050565b60606124f982611da7565b612538576040517f08c379a000000000000000000000000000000000000000000000000000000000815260040161252f9061468e565b60405180910390fd5b600060066000848152602001908152602001600020805461255890613a0c565b80601f016020809104026020016040519081016040528092919081815260200182805461258490613a0c565b80156125d15780601f106125a6576101008083540402835291602001916125d1565b820191906000526020600020905b8154815290600101906020018083116125b457829003601f168201915b5050505050905060006125e2612837565b90506000815114156125f857819250505061263b565b60008251111561262d5780826040516020016126159291906146ae565b6040516020818303038152906040529250505061263b565b6126368461284e565b925050505b919050565b61264a83836128f5565b61265760008484846126a0565b612696576040517f08c379a000000000000000000000000000000000000000000000000000000000815260040161268d906145fc565b60405180910390fd5b505050565b505050565b60006126c18473ffffffffffffffffffffffffffffffffffffffff16612ac3565b1561282a578373ffffffffffffffffffffffffffffffffffffffff1663150b7a026126ea611e13565b8786866040518563ffffffff1660e01b815260040161270c9493929190614727565b602060405180830381600087803b15801561272657600080fd5b505af192505050801561275757506040513d601f19601f820116820180604052508101906127549190614788565b60015b6127da573d8060008114612787576040519150601f19603f3d011682016040523d82523d6000602084013e61278c565b606091505b506000815114156127d2576040517f08c379a00000000000000000000000000000000000000000000000000000000081526004016127c9906145fc565b60405180910390fd5b805181602001fd5b63150b7a0260e01b7bffffffffffffffffffffffffffffffffffffffffffffffffffffffff1916817bffffffffffffffffffffffffffffffffffffffffffffffffffffffff19161491505061282f565b600190505b949350505050565b606060405180602001604052806000815250905090565b606061285982611da7565b612898576040517f08c379a000000000000000000000000000000000000000000000000000000000815260040161288f90614827565b60405180910390fd5b60006128a2612837565b905060008151116128c257604051806020016040528060008152506128ed565b806128cc84612ad6565b6040516020016128dd9291906146ae565b6040516020818303038152906040525b915050919050565b600073ffffffffffffffffffffffffffffffffffffffff168273ffffffffffffffffffffffffffffffffffffffff161415612965576040517f08c379a000000000000000000000000000000000000000000000000000000000815260040161295c90614893565b60405180910390fd5b61296e81611da7565b156129ae576040517f08c379a00000000000000000000000000000000000000000000000000000000081526004016129a5906148ff565b60405180910390fd5b6129ba6000838361269b565b6001600360008473ffffffffffffffffffffffffffffffffffffffff1673ffffffffffffffffffffffffffffffffffffffff1681526020019081526020016000206000828254612a0a9190613d2a565b92505081905550816002600083815260200190815260200160002060006101000a81548173ffffffffffffffffffffffffffffffffffffffff021916908373ffffffffffffffffffffffffffffffffffffffff160217905550808273ffffffffffffffffffffffffffffffffffffffff16600073ffffffffffffffffffffffffffffffffffffffff167fddf252ad1be2c89b69c2b068fc378daa952ba7f163c4a11628f55a4df523b3ef60405160405180910390a45050565b600080823b905060008111915050919050565b60606000821415612b1e576040518060400160405280600181526020017f30000000000000000000000000000000000000000000000000000000000000008152509050612c32565b600082905060005b60008214612b50578080612b3990613965565b915050600a82612b4991906141ba565b9150612b26565b60008167ffffffffffffffff811115612b6c57612b6b613168565b5b6040519080825280601f01601f191660200182016040528015612b9e5781602001600182028036833780820191505090505b5090505b60008514612c2b57600182612bb7919061430e565b9150600a85612bc6919061491f565b6030612bd29190613d2a565b60f81b818381518110612be857612be76139ae565b5b60200101907effffffffffffffffffffffffffffffffffffffffffffffffffffffffffffff1916908160001a905350600a85612c2491906141ba565b9450612ba2565b8093505050505b919050565b828054612c4390613a0c565b90600052602060002090601f016020900481019282612c655760008555612cac565b82601f10612c7e57805160ff1916838001178555612cac565b82800160010185558215612cac579182015b82811115612cab578251825591602001919060010190612c90565b5b509050612cb99190612d35565b5090565b6040518061010001604052806060815260200160006003811115612ce457612ce361334c565b5b815260200160006003811115612cfd57612cfc61334c565b5b8152602001600060ff168152602001600060ff168152602001600060ff168152602001600060ff168152602001600060ff1681525090565b5b80821115612d4e576000816000905550600101612d36565b5090565b6000604051905090565b600080fd5b600080fd5b600073ffffffffffffffffffffffffffffffffffffffff82169050919050565b6000612d9182612d66565b9050919050565b612da181612d86565b8114612dac57600080fd5b50565b600081359050612dbe81612d98565b92915050565b600060208284031215612dda57612dd9612d5c565b5b6000612de884828501612daf565b91505092915050565b600081519050919050565b600082825260208201905092915050565b6000819050602082019050919050565b6000819050919050565b612e3081612e1d565b82525050565b6000612e428383612e27565b60208301905092915050565b6000602082019050919050565b6000612e6682612df1565b612e708185612dfc565b9350612e7b83612e0d565b8060005b83811015612eac578151612e938882612e36565b9750612e9e83612e4e565b925050600181019050612e7f565b5085935050505092915050565b60006020820190508181036000830152612ed38184612e5b565b905092915050565b60007fffffffff0000000000000000000000000000000000000000000000000000000082169050919050565b612f1081612edb565b8114612f1b57600080fd5b50565b600081359050612f2d81612f07565b92915050565b600060208284031215612f4957612f48612d5c565b5b6000612f5784828501612f1e565b91505092915050565b60008115159050919050565b612f7581612f60565b82525050565b6000602082019050612f906000830184612f6c565b92915050565b600081519050919050565b600082825260208201905092915050565b60005b83811015612fd0578082015181840152602081019050612fb5565b83811115612fdf576000848401525b50505050565b6000601f19601f8301169050919050565b600061300182612f96565b61300b8185612fa1565b935061301b818560208601612fb2565b61302481612fe5565b840191505092915050565b600060208201905081810360008301526130498184612ff6565b905092915050565b61305a81612e1d565b811461306557600080fd5b50565b60008135905061307781613051565b92915050565b60006020828403121561309357613092612d5c565b5b60006130a184828501613068565b91505092915050565b6130b381612d86565b82525050565b60006020820190506130ce60008301846130aa565b92915050565b600080604083850312156130eb576130ea612d5c565b5b60006130f985828601612daf565b925050602061310a85828601613068565b9150509250929050565b6004811061312157600080fd5b50565b60008135905061313381613114565b92915050565b6004811061314657600080fd5b50565b60008135905061315881613139565b92915050565b600080fd5b600080fd5b7f4e487b7100000000000000000000000000000000000000000000000000000000600052604160045260246000fd5b6131a082612fe5565b810181811067ffffffffffffffff821117156131bf576131be613168565b5b80604052505050565b60006131d2612d52565b90506131de8282613197565b919050565b600067ffffffffffffffff8211156131fe576131fd613168565b5b61320782612fe5565b9050602081019050919050565b82818337600083830152505050565b6000613236613231846131e3565b6131c8565b90508281526020810184848401111561325257613251613163565b5b61325d848285613214565b509392505050565b600082601f83011261327a5761327961315e565b5b813561328a848260208601613223565b91505092915050565b6000806000606084860312156132ac576132ab612d5c565b5b60006132ba86828701613124565b93505060206132cb86828701613149565b925050604084013567ffffffffffffffff8111156132ec576132eb612d61565b5b6132f886828701613265565b9150509250925092565b600082825260208201905092915050565b600061331e82612f96565b6133288185613302565b9350613338818560208601612fb2565b61334181612fe5565b840191505092915050565b7f4e487b7100000000000000000000000000000000000000000000000000000000600052602160045260246000fd5b6004811061338c5761338b61334c565b5b50565b600081905061339d8261337b565b919050565b60006133ad8261338f565b9050919050565b6133bd816133a2565b82525050565b600481106133d4576133d361334c565b5b50565b60008190506133e5826133c3565b919050565b60006133f5826133d7565b9050919050565b613405816133ea565b82525050565b600060ff82169050919050565b6134218161340b565b82525050565b60006101008301600083015184820360008601526134458282613313565b915050602083015161345a60208601826133b4565b50604083015161346d60408601826133fc565b5060608301516134806060860182613418565b5060808301516134936080860182613418565b5060a08301516134a660a0860182613418565b5060c08301516134b960c0860182613418565b5060e08301516134cc60e0860182613418565b508091505092915050565b600060208201905081810360008301526134f18184613427565b905092915050565b60008060006060848603121561351257613511612d5c565b5b600061352086828701612daf565b935050602061353186828701612daf565b925050604061354286828701613068565b9150509250925092565b61355581612e1d565b82525050565b6000602082019050613570600083018461354c565b92915050565b600081519050919050565b600082825260208201905092915050565b6000819050602082019050919050565b60006101008301600083015184820360008601526135c08282613313565b91505060208301516135d560208601826133b4565b5060408301516135e860408601826133fc565b5060608301516135fb6060860182613418565b50608083015161360e6080860182613418565b5060a083015161362160a0860182613418565b5060c083015161363460c0860182613418565b5060e083015161364760e0860182613418565b508091505092915050565b600061365e83836135a2565b905092915050565b6000602082019050919050565b600061367e82613576565b6136888185613581565b93508360208202850161369a85613592565b8060005b858110156136d657848403895281516136b78582613652565b94506136c283613666565b925060208a0199505060018101905061369e565b50829750879550505050505092915050565b600060208201905081810360008301526137028184613673565b905092915050565b61371381612f60565b811461371e57600080fd5b50565b6000813590506137308161370a565b92915050565b6000806040838503121561374d5761374c612d5c565b5b600061375b85828601612daf565b925050602061376c85828601613721565b9150509250929050565b600067ffffffffffffffff82111561379157613790613168565b5b61379a82612fe5565b9050602081019050919050565b60006137ba6137b584613776565b6131c8565b9050828152602081018484840111156137d6576137d5613163565b5b6137e1848285613214565b509392505050565b600082601f8301126137fe576137fd61315e565b5b813561380e8482602086016137a7565b91505092915050565b6000806000806080858703121561383157613830612d5c565b5b600061383f87828801612daf565b945050602061385087828801612daf565b935050604061386187828801613068565b925050606085013567ffffffffffffffff81111561388257613881612d61565b5b61388e878288016137e9565b91505092959194509250565b600080604083850312156138b1576138b0612d5c565b5b60006138bf85828601612daf565b92505060206138d085828601612daf565b9150509250929050565b600080604083850312156138f1576138f0612d5c565b5b60006138ff85828601613068565b925050602083013567ffffffffffffffff8111156139205761391f612d61565b5b61392c85828601613265565b9150509250929050565b7f4e487b7100000000000000000000000000000000000000000000000000000000600052601160045260246000fd5b600061397082612e1d565b91507fffffffffffffffffffffffffffffffffffffffffffffffffffffffffffffffff8214156139a3576139a2613936565b5b600182019050919050565b7f4e487b7100000000000000000000000000000000000000000000000000000000600052603260045260246000fd5b7f4e487b7100000000000000000000000000000000000000000000000000000000600052602260045260246000fd5b60006002820490506001821680613a2457607f821691505b60208210811415613a3857613a376139dd565b5b50919050565b7f4552433732313a20617070726f76656420717565727920666f72206e6f6e657860008201527f697374656e7420746f6b656e0000000000000000000000000000000000000000602082015250565b6000613a9a602c83612fa1565b9150613aa582613a3e565b604082019050919050565b60006020820190508181036000830152613ac981613a8d565b9050919050565b7f4552433732313a20617070726f76616c20746f2063757272656e74206f776e6560008201527f7200000000000000000000000000000000000000000000000000000000000000602082015250565b6000613b2c602183612fa1565b9150613b3782613ad0565b604082019050919050565b60006020820190508181036000830152613b5b81613b1f565b9050919050565b7f4552433732313a20617070726f76652063616c6c6572206973206e6f74206f7760008201527f6e6572206e6f7220617070726f76656420666f7220616c6c0000000000000000602082015250565b6000613bbe603883612fa1565b9150613bc982613b62565b604082019050919050565b60006020820190508181036000830152613bed81613bb1565b9050919050565b7f4e6f74206f776e65720000000000000000000000000000000000000000000000600082015250565b6000613c2a600983612fa1565b9150613c3582613bf4565b602082019050919050565b60006020820190508181036000830152613c5981613c1d565b9050919050565b6000613c6b8261340b565b915060ff821415613c7f57613c7e613936565b5b600182019050919050565b7f4f776e61626c653a2063616c6c6572206973206e6f7420746865206f776e6572600082015250565b6000613cc0602083612fa1565b9150613ccb82613c8a565b602082019050919050565b60006020820190508181036000830152613cef81613cb3565b9050919050565b6000613d018261340b565b9150613d0c8361340b565b925082821015613d1f57613d1e613936565b5b828203905092915050565b6000613d3582612e1d565b9150613d4083612e1d565b9250827fffffffffffffffffffffffffffffffffffffffffffffffffffffffffffffffff03821115613d7557613d74613936565b5b828201905092915050565b7f4552433732313a207472616e736665722063616c6c6572206973206e6f74206f60008201527f776e6572206e6f7220617070726f766564000000000000000000000000000000602082015250565b6000613ddc603183612fa1565b9150613de782613d80565b604082019050919050565b60006020820190508181036000830152613e0b81613dcf565b9050919050565b7f4552433732313a206f776e657220717565727920666f72206e6f6e657869737460008201527f656e7420746f6b656e0000000000000000000000000000000000000000000000602082015250565b6000613e6e602983612fa1565b9150613e7982613e12565b604082019050919050565b60006020820190508181036000830152613e9d81613e61565b9050919050565b7f4552433732313a2062616c616e636520717565727920666f7220746865207a6560008201527f726f206164647265737300000000000000000000000000000000000000000000602082015250565b6000613f00602a83612fa1565b9150613f0b82613ea4565b604082019050919050565b60006020820190508181036000830152613f2f81613ef3565b9050919050565b7f4552433732313a20617070726f766520746f2063616c6c657200000000000000600082015250565b6000613f6c601983612fa1565b9150613f7782613f36565b602082019050919050565b60006020820190508181036000830152613f9b81613f5f565b9050919050565b600081905092915050565b60008190508160005260206000209050919050565b60008154613fcf81613a0c565b613fd98186613fa2565b94506001821660008114613ff4576001811461400557614038565b60ff19831686528186019350614038565b61400e85613fad565b60005b8381101561403057815481890152600182019150602081019050614011565b838801955050505b50505092915050565b600061404c82612f96565b6140568185613fa2565b9350614066818560208601612fb2565b80840191505092915050565b600061407e8285613fc2565b915061408a8284614041565b91508190509392505050565b7f4f776e61626c653a206e6577206f776e657220697320746865207a65726f206160008201527f6464726573730000000000000000000000000000000000000000000000000000602082015250565b60006140f2602683612fa1565b91506140fd82614096565b604082019050919050565b60006020820190508181036000830152614121816140e5565b9050919050565b60008160601b9050919050565b600061414082614128565b9050919050565b600061415282614135565b9050919050565b61416a61416582612d86565b614147565b82525050565b600061417c8284614159565b60148201915081905092915050565b7f4e487b7100000000000000000000000000000000000000000000000000000000600052601260045260246000fd5b60006141c582612e1d565b91506141d083612e1d565b9250826141e0576141df61418b565b5b828204905092915050565b60006141f682612d66565b9050919050565b600061420882614135565b9050919050565b61422061421b826141eb565b6141fd565b82525050565b6000614232828461420f565b60148201915081905092915050565b6000819050919050565b61425c61425782612e1d565b614241565b82525050565b600061426e828461424b565b60208201915081905092915050565b60006142888261340b565b91506142938361340b565b92508260ff038211156142a9576142a8613936565b5b828201905092915050565b60006142bf82612e1d565b91506142ca83612e1d565b9250817fffffffffffffffffffffffffffffffffffffffffffffffffffffffffffffffff048311821515161561430357614302613936565b5b828202905092915050565b600061431982612e1d565b915061432483612e1d565b92508282101561433757614336613936565b5b828203905092915050565b7f45524337323155524953746f726167653a2055524920736574206f66206e6f6e60008201527f6578697374656e7420746f6b656e000000000000000000000000000000000000602082015250565b600061439e602e83612fa1565b91506143a982614342565b604082019050919050565b600060208201905081810360008301526143cd81614391565b9050919050565b7f4552433732313a206f70657261746f7220717565727920666f72206e6f6e657860008201527f697374656e7420746f6b656e0000000000000000000000000000000000000000602082015250565b6000614430602c83612fa1565b915061443b826143d4565b604082019050919050565b6000602082019050818103600083015261445f81614423565b9050919050565b7f4552433732313a207472616e73666572206f6620746f6b656e2074686174206960008201527f73206e6f74206f776e0000000000000000000000000000000000000000000000602082015250565b60006144c2602983612fa1565b91506144cd82614466565b604082019050919050565b600060208201905081810360008301526144f1816144b5565b9050919050565b7f4552433732313a207472616e7366657220746f20746865207a65726f2061646460008201527f7265737300000000000000000000000000000000000000000000000000000000602082015250565b6000614554602483612fa1565b915061455f826144f8565b604082019050919050565b6000602082019050818103600083015261458381614547565b9050919050565b7f4552433732313a207472616e7366657220746f206e6f6e20455243373231526560008201527f63656976657220696d706c656d656e7465720000000000000000000000000000602082015250565b60006145e6603283612fa1565b91506145f18261458a565b604082019050919050565b60006020820190508181036000830152614615816145d9565b9050919050565b7f45524337323155524953746f726167653a2055524920717565727920666f722060008201527f6e6f6e6578697374656e7420746f6b656e000000000000000000000000000000602082015250565b6000614678603183612fa1565b91506146838261461c565b604082019050919050565b600060208201905081810360008301526146a78161466b565b9050919050565b60006146ba8285614041565b91506146c68284614041565b91508190509392505050565b600081519050919050565b600082825260208201905092915050565b60006146f9826146d2565b61470381856146dd565b9350614713818560208601612fb2565b61471c81612fe5565b840191505092915050565b600060808201905061473c60008301876130aa565b61474960208301866130aa565b614756604083018561354c565b818103606083015261476881846146ee565b905095945050505050565b60008151905061478281612f07565b92915050565b60006020828403121561479e5761479d612d5c565b5b60006147ac84828501614773565b91505092915050565b7f4552433732314d657461646174613a2055524920717565727920666f72206e6f60008201527f6e6578697374656e7420746f6b656e0000000000000000000000000000000000602082015250565b6000614811602f83612fa1565b915061481c826147b5565b604082019050919050565b6000602082019050818103600083015261484081614804565b9050919050565b7f4552433732313a206d696e7420746f20746865207a65726f2061646472657373600082015250565b600061487d602083612fa1565b915061488882614847565b602082019050919050565b600060208201905081810360008301526148ac81614870565b9050919050565b7f4552433732313a20746f6b656e20616c7265616479206d696e74656400000000600082015250565b60006148e9601c83612fa1565b91506148f4826148b3565b602082019050919050565b60006020820190508181036000830152614918816148dc565b9050919050565b600061492a82612e1d565b915061493583612e1d565b9250826149455761494461418b565b5b82820690509291505056fea26469706673582212200d2282e9841efa8ff0f22b31f0ff3e9bc79f648b79bb693ef421dfe08472e9d564736f6c63430008090033",
  "immutableReferences": {},
  "source": "pragma solidity 0.8.9;\n\nimport \"../node_modules/@openzeppelin/contracts/token/ERC721/extensions/ERC721URIStorage.sol\";\nimport \"../node_modules/@openzeppelin/contracts/utils/Counters.sol\";\nimport \"../node_modules/@openzeppelin/contracts/access/Ownable.sol\";\n\ncontract GameToken is ERC721URIStorage, Ownable {\n    using Counters for Counters.Counter;\n    Counters.Counter private _currentHeroId;\n\n    enum HeroType {\n        FIGHTER,\n        ROGUE,\n        MAGE,\n        TANK\n    }\n    enum HeroRarity {\n        COMMON,\n        UNCOMMON,\n        RARE,\n        LEGENDARY\n    }\n\n    struct Hero {\n        string name;\n        HeroType heroType;\n        HeroRarity rarity;\n        uint8 str;\n        uint8 con;\n        uint8 dex;\n        uint8 inte;\n        uint8 level;\n    }\n\n    Hero[] private _heroes;\n\n    string private _baseTokenURI;\n\n    //static final\n    mapping(HeroType => uint8[]) private _mapMint;\n\n    constructor(\n        string memory name,\n        string memory symbol,\n        string memory baseTokenURI\n    ) ERC721(name, symbol) {\n        _baseTokenURI = baseTokenURI;\n\n        _mapMint[HeroType.FIGHTER] = [0, 1, 0, 2, 3, 1];\n        _mapMint[HeroType.ROGUE] = [2, 2, 0, 3, 0, 2];\n        _mapMint[HeroType.MAGE] = [3, 3, 2, 1, 0, 3];\n        _mapMint[HeroType.TANK] = [1, 1, 0, 2, 3, 1];\n    }\n\n    function getHeroes() external view returns (Hero[] memory) {\n        return _heroes;\n    }\n\n    function mint(\n        HeroType _heroType,\n        HeroRarity _heroRarity,\n        string memory _tokenURI\n    ) public onlyOwner {\n        uint256 newHeroId = _currentHeroId.current();\n\n        uint8 minAttr;\n        uint8 maxAttr;\n\n        if (_heroRarity == HeroRarity.COMMON) {\n            minAttr = 4;\n            maxAttr = 6;\n        } else if (_heroRarity == HeroRarity.UNCOMMON) {\n            minAttr = 7;\n            maxAttr = 8;\n        } else if (_heroRarity == HeroRarity.RARE) {\n            minAttr = 9;\n            maxAttr = 10;\n        } else {\n            minAttr = 11;\n            maxAttr = 12;\n        }\n\n        uint256 attrsSize = rand(maxAttr - minAttr) + minAttr;\n\n        uint8[] memory attrs = new uint8[](4);\n        attrs[0] = 1;\n        attrs[1] = 1;\n        attrs[2] = 1;\n        attrs[3] = 1;\n        uint8 attrCounter = 0;\n\n        for (uint8 i = 1; i <= attrsSize; i++) {\n            attrs[_mapMint[_heroType][attrCounter]]++;\n            if (attrCounter == 5) {\n                attrCounter = 0;\n            } else {\n                attrCounter++;\n            }\n        }\n\n        _safeMint(msg.sender, newHeroId);\n        _setTokenURI(newHeroId, _tokenURI);\n        _heroes.push(\n            Hero(\n                \"\",\n                _heroType,\n                _heroRarity,\n                attrs[0],\n                attrs[1],\n                attrs[2],\n                attrs[3],\n                1\n            )\n        );\n\n        _currentHeroId.increment();\n    }\n\n    function getHeroesByAddress(address owner)\n        public\n        view\n        returns (uint256[] memory)\n    {\n        uint256 heroCount = balanceOf(owner);\n\n        if (heroCount == 0) {\n            return new uint256[](0);\n        } else {\n            uint256[] memory ret = new uint256[](heroCount);\n            uint256 i;\n            uint256 curIndex = 0;\n\n            for (i = 0; i < _currentHeroId.current(); i++) {\n                if (ownerOf(i) == owner) {\n                    ret[curIndex++] = i;\n                }\n            }\n\n            return ret;\n        }\n    }\n\n    function getMyHeroes() external view returns (uint256[] memory) {\n        return getHeroesByAddress(msg.sender);\n    }\n\n    function getHero(uint256 _heroId) external view returns (Hero memory) {\n        return _heroes[_heroId];\n    }\n\n    \n    function setName(uint256 _heroId, string memory _name) external {\n        require(msg.sender == ownerOf(_heroId), \"Not owner\");\n        Hero storage hero = _heroes[_heroId];\n\n        hero.name = _name;\n    }\n\n    function levelUp(uint256 _heroId) external {\n        require(msg.sender == ownerOf(_heroId), \"Not owner\");\n\n        Hero storage hero = _heroes[_heroId];\n\n        hero.level++;\n\n        uint256 random = rand(3);\n\n        if (random == 0) {\n            hero.str++;\n        } else if (random == 1) {\n            hero.con++;\n        } else if (random == 2) {\n            hero.dex++;\n        } else if (random == 3) {\n            hero.inte++;\n        }\n    }\n\n    function rand(uint8 limit) private view returns (uint256) {\n        uint256 seed = uint256(\n            keccak256(\n                abi.encodePacked(\n                    block.timestamp +\n                        block.difficulty +\n                        ((\n                            uint256(keccak256(abi.encodePacked(block.coinbase)))\n                        ) / (block.timestamp)) +\n                        block.gaslimit +\n                        ((uint256(keccak256(abi.encodePacked(msg.sender)))) /\n                            (block.timestamp)) +\n                        block.number\n                )\n            )\n        );\n\n        return (seed - ((seed / (limit + 1)) * (limit + 1)));\n    }\n\n    function tokenURI(uint256 tokenId)\n        public\n        view\n        virtual\n        override\n        returns (string memory)\n    {\n        return string(abi.encodePacked(_baseTokenURI, super.tokenURI(tokenId)));\n    }\n\n    function receiver() external payable {}\n}\n",
  "sourcePath": "/home/rfaita/game/nft-game/contract/contracts/GameToken.sol",
  "compiler": {
    "name": "solc",
    "version": "0.8.9+commit.e5eed63a.Emscripten.clang"
  },
  "schemaVersion": "3.4.3",
  "updatedAt": "2021-11-12T13:14:59.805Z",
  "networkType": "ethereum",
  "devdoc": {
    "kind": "dev",
    "methods": {
      "approve(address,uint256)": {
        "details": "See {IERC721-approve}."
      },
      "balanceOf(address)": {
        "details": "See {IERC721-balanceOf}."
      },
      "getApproved(uint256)": {
        "details": "See {IERC721-getApproved}."
      },
      "isApprovedForAll(address,address)": {
        "details": "See {IERC721-isApprovedForAll}."
      },
      "name()": {
        "details": "See {IERC721Metadata-name}."
      },
      "owner()": {
        "details": "Returns the address of the current owner."
      },
      "ownerOf(uint256)": {
        "details": "See {IERC721-ownerOf}."
      },
      "renounceOwnership()": {
        "details": "Leaves the contract without owner. It will not be possible to call `onlyOwner` functions anymore. Can only be called by the current owner. NOTE: Renouncing ownership will leave the contract without an owner, thereby removing any functionality that is only available to the owner."
      },
      "safeTransferFrom(address,address,uint256)": {
        "details": "See {IERC721-safeTransferFrom}."
      },
      "safeTransferFrom(address,address,uint256,bytes)": {
        "details": "See {IERC721-safeTransferFrom}."
      },
      "setApprovalForAll(address,bool)": {
        "details": "See {IERC721-setApprovalForAll}."
      },
      "supportsInterface(bytes4)": {
        "details": "See {IERC165-supportsInterface}."
      },
      "symbol()": {
        "details": "See {IERC721Metadata-symbol}."
      },
      "tokenURI(uint256)": {
        "details": "See {IERC721Metadata-tokenURI}."
      },
      "transferFrom(address,address,uint256)": {
        "details": "See {IERC721-transferFrom}."
      },
      "transferOwnership(address)": {
        "details": "Transfers ownership of the contract to a new account (`newOwner`). Can only be called by the current owner."
      }
    },
    "version": 1
  },
  "userdoc": {
    "kind": "user",
    "methods": {},
    "version": 1
  }
}