{
  "contractName": "GameToken",
  "abi": [
    {
      "inputs": [
        {
          "internalType": "string",
          "name": "name",
          "type": "string"
        },
        {
          "internalType": "string",
          "name": "symbol",
          "type": "string"
        },
        {
          "internalType": "string",
          "name": "baseTokenURI",
          "type": "string"
        }
      ],
      "stateMutability": "nonpayable",
      "type": "constructor"
    },
    {
      "anonymous": false,
      "inputs": [
        {
          "indexed": true,
          "internalType": "address",
          "name": "owner",
          "type": "address"
        },
        {
          "indexed": true,
          "internalType": "address",
          "name": "approved",
          "type": "address"
        },
        {
          "indexed": true,
          "internalType": "uint256",
          "name": "tokenId",
          "type": "uint256"
        }
      ],
      "name": "Approval",
      "type": "event"
    },
    {
      "anonymous": false,
      "inputs": [
        {
          "indexed": true,
          "internalType": "address",
          "name": "owner",
          "type": "address"
        },
        {
          "indexed": true,
          "internalType": "address",
          "name": "operator",
          "type": "address"
        },
        {
          "indexed": false,
          "internalType": "bool",
          "name": "approved",
          "type": "bool"
        }
      ],
      "name": "ApprovalForAll",
      "type": "event"
    },
    {
      "anonymous": false,
      "inputs": [
        {
          "indexed": true,
          "internalType": "uint256",
          "name": "tokenId",
          "type": "uint256"
        },
        {
          "indexed": true,
          "internalType": "uint8",
          "name": "level",
          "type": "uint8"
        }
      ],
      "name": "HeroLevelUp",
      "type": "event"
    },
    {
      "anonymous": false,
      "inputs": [
        {
          "indexed": true,
          "internalType": "uint256",
          "name": "tokenId",
          "type": "uint256"
        },
        {
          "indexed": true,
          "internalType": "uint16",
          "name": "currXP",
          "type": "uint16"
        }
      ],
      "name": "NewCurrXP",
      "type": "event"
    },
    {
      "anonymous": false,
      "inputs": [
        {
          "indexed": true,
          "internalType": "address",
          "name": "previousOwner",
          "type": "address"
        },
        {
          "indexed": true,
          "internalType": "address",
          "name": "newOwner",
          "type": "address"
        }
      ],
      "name": "OwnershipTransferred",
      "type": "event"
    },
    {
      "anonymous": false,
      "inputs": [
        {
          "indexed": true,
          "internalType": "address",
          "name": "from",
          "type": "address"
        },
        {
          "indexed": true,
          "internalType": "address",
          "name": "to",
          "type": "address"
        },
        {
          "indexed": true,
          "internalType": "uint256",
          "name": "tokenId",
          "type": "uint256"
        }
      ],
      "name": "Transfer",
      "type": "event"
    },
    {
      "inputs": [],
      "name": "_battleAddress",
      "outputs": [
        {
          "internalType": "address",
          "name": "",
          "type": "address"
        }
      ],
      "stateMutability": "view",
      "type": "function",
      "constant": true
    },
    {
      "inputs": [],
      "name": "_itemShopAddress",
      "outputs": [
        {
          "internalType": "address",
          "name": "",
          "type": "address"
        }
      ],
      "stateMutability": "view",
      "type": "function",
      "constant": true
    },
    {
      "inputs": [
        {
          "internalType": "address",
          "name": "to",
          "type": "address"
        },
        {
          "internalType": "uint256",
          "name": "tokenId",
          "type": "uint256"
        }
      ],
      "name": "approve",
      "outputs": [],
      "stateMutability": "nonpayable",
      "type": "function"
    },
    {
      "inputs": [
        {
          "internalType": "address",
          "name": "owner",
          "type": "address"
        }
      ],
      "name": "balanceOf",
      "outputs": [
        {
          "internalType": "uint256",
          "name": "",
          "type": "uint256"
        }
      ],
      "stateMutability": "view",
      "type": "function",
      "constant": true
    },
    {
      "inputs": [
        {
          "internalType": "uint256",
          "name": "tokenId",
          "type": "uint256"
        }
      ],
      "name": "getApproved",
      "outputs": [
        {
          "internalType": "address",
          "name": "",
          "type": "address"
        }
      ],
      "stateMutability": "view",
      "type": "function",
      "constant": true
    },
    {
      "inputs": [
        {
          "internalType": "address",
          "name": "owner",
          "type": "address"
        },
        {
          "internalType": "address",
          "name": "operator",
          "type": "address"
        }
      ],
      "name": "isApprovedForAll",
      "outputs": [
        {
          "internalType": "bool",
          "name": "",
          "type": "bool"
        }
      ],
      "stateMutability": "view",
      "type": "function",
      "constant": true
    },
    {
      "inputs": [],
      "name": "name",
      "outputs": [
        {
          "internalType": "string",
          "name": "",
          "type": "string"
        }
      ],
      "stateMutability": "view",
      "type": "function",
      "constant": true
    },
    {
      "inputs": [],
      "name": "owner",
      "outputs": [
        {
          "internalType": "address",
          "name": "",
          "type": "address"
        }
      ],
      "stateMutability": "view",
      "type": "function",
      "constant": true
    },
    {
      "inputs": [
        {
          "internalType": "uint256",
          "name": "tokenId",
          "type": "uint256"
        }
      ],
      "name": "ownerOf",
      "outputs": [
        {
          "internalType": "address",
          "name": "",
          "type": "address"
        }
      ],
      "stateMutability": "view",
      "type": "function",
      "constant": true
    },
    {
      "inputs": [],
      "name": "renounceOwnership",
      "outputs": [],
      "stateMutability": "nonpayable",
      "type": "function"
    },
    {
      "inputs": [
        {
          "internalType": "address",
          "name": "from",
          "type": "address"
        },
        {
          "internalType": "address",
          "name": "to",
          "type": "address"
        },
        {
          "internalType": "uint256",
          "name": "tokenId",
          "type": "uint256"
        }
      ],
      "name": "safeTransferFrom",
      "outputs": [],
      "stateMutability": "nonpayable",
      "type": "function"
    },
    {
      "inputs": [
        {
          "internalType": "address",
          "name": "from",
          "type": "address"
        },
        {
          "internalType": "address",
          "name": "to",
          "type": "address"
        },
        {
          "internalType": "uint256",
          "name": "tokenId",
          "type": "uint256"
        },
        {
          "internalType": "bytes",
          "name": "_data",
          "type": "bytes"
        }
      ],
      "name": "safeTransferFrom",
      "outputs": [],
      "stateMutability": "nonpayable",
      "type": "function"
    },
    {
      "inputs": [
        {
          "internalType": "address",
          "name": "operator",
          "type": "address"
        },
        {
          "internalType": "bool",
          "name": "approved",
          "type": "bool"
        }
      ],
      "name": "setApprovalForAll",
      "outputs": [],
      "stateMutability": "nonpayable",
      "type": "function"
    },
    {
      "inputs": [
        {
          "internalType": "bytes4",
          "name": "interfaceId",
          "type": "bytes4"
        }
      ],
      "name": "supportsInterface",
      "outputs": [
        {
          "internalType": "bool",
          "name": "",
          "type": "bool"
        }
      ],
      "stateMutability": "view",
      "type": "function",
      "constant": true
    },
    {
      "inputs": [],
      "name": "symbol",
      "outputs": [
        {
          "internalType": "string",
          "name": "",
          "type": "string"
        }
      ],
      "stateMutability": "view",
      "type": "function",
      "constant": true
    },
    {
      "inputs": [
        {
          "internalType": "address",
          "name": "from",
          "type": "address"
        },
        {
          "internalType": "address",
          "name": "to",
          "type": "address"
        },
        {
          "internalType": "uint256",
          "name": "tokenId",
          "type": "uint256"
        }
      ],
      "name": "transferFrom",
      "outputs": [],
      "stateMutability": "nonpayable",
      "type": "function"
    },
    {
      "inputs": [
        {
          "internalType": "address",
          "name": "newOwner",
          "type": "address"
        }
      ],
      "name": "transferOwnership",
      "outputs": [],
      "stateMutability": "nonpayable",
      "type": "function"
    },
    {
      "inputs": [
        {
          "internalType": "address",
          "name": "_newBattleAddress",
          "type": "address"
        }
      ],
      "name": "setBattleAddress",
      "outputs": [],
      "stateMutability": "nonpayable",
      "type": "function"
    },
    {
      "inputs": [
        {
          "internalType": "address",
          "name": "_newItemShopAddress",
          "type": "address"
        }
      ],
      "name": "setItemShopAddress",
      "outputs": [],
      "stateMutability": "nonpayable",
      "type": "function"
    },
    {
      "inputs": [],
      "name": "getHeroes",
      "outputs": [
        {
          "components": [
            {
              "internalType": "string",
              "name": "name",
              "type": "string"
            },
            {
              "internalType": "enum GameToken.HeroType",
              "name": "heroType",
              "type": "uint8"
            },
            {
              "internalType": "enum GameToken.HeroRarity",
              "name": "rarity",
              "type": "uint8"
            },
            {
              "internalType": "uint8",
              "name": "str",
              "type": "uint8"
            },
            {
              "internalType": "uint8",
              "name": "con",
              "type": "uint8"
            },
            {
              "internalType": "uint8",
              "name": "dex",
              "type": "uint8"
            },
            {
              "internalType": "uint8",
              "name": "wis",
              "type": "uint8"
            },
            {
              "internalType": "uint8",
              "name": "level",
              "type": "uint8"
            },
            {
              "internalType": "uint16",
              "name": "currXP",
              "type": "uint16"
            }
          ],
          "internalType": "struct GameToken.Hero[]",
          "name": "",
          "type": "tuple[]"
        }
      ],
      "stateMutability": "view",
      "type": "function",
      "constant": true
    },
    {
      "inputs": [],
      "name": "getNextHeroId",
      "outputs": [
        {
          "internalType": "uint256",
          "name": "",
          "type": "uint256"
        }
      ],
      "stateMutability": "view",
      "type": "function",
      "constant": true
    },
    {
      "inputs": [
        {
          "internalType": "enum GameToken.HeroType",
          "name": "_heroType",
          "type": "uint8"
        },
        {
          "internalType": "enum GameToken.HeroRarity",
          "name": "_heroRarity",
          "type": "uint8"
        },
        {
          "internalType": "string",
          "name": "_tokenURI",
          "type": "string"
        }
      ],
      "name": "mint",
      "outputs": [],
      "stateMutability": "nonpayable",
      "type": "function"
    },
    {
      "inputs": [
        {
          "internalType": "address",
          "name": "owner",
          "type": "address"
        }
      ],
      "name": "getHeroesByAddress",
      "outputs": [
        {
          "internalType": "uint256[]",
          "name": "",
          "type": "uint256[]"
        }
      ],
      "stateMutability": "view",
      "type": "function",
      "constant": true
    },
    {
      "inputs": [],
      "name": "getMyHeroes",
      "outputs": [
        {
          "internalType": "uint256[]",
          "name": "",
          "type": "uint256[]"
        }
      ],
      "stateMutability": "view",
      "type": "function",
      "constant": true
    },
    {
      "inputs": [
        {
          "internalType": "uint256",
          "name": "_heroId",
          "type": "uint256"
        }
      ],
      "name": "getHero",
      "outputs": [
        {
          "components": [
            {
              "internalType": "string",
              "name": "name",
              "type": "string"
            },
            {
              "internalType": "enum GameToken.HeroType",
              "name": "heroType",
              "type": "uint8"
            },
            {
              "internalType": "enum GameToken.HeroRarity",
              "name": "rarity",
              "type": "uint8"
            },
            {
              "internalType": "uint8",
              "name": "str",
              "type": "uint8"
            },
            {
              "internalType": "uint8",
              "name": "con",
              "type": "uint8"
            },
            {
              "internalType": "uint8",
              "name": "dex",
              "type": "uint8"
            },
            {
              "internalType": "uint8",
              "name": "wis",
              "type": "uint8"
            },
            {
              "internalType": "uint8",
              "name": "level",
              "type": "uint8"
            },
            {
              "internalType": "uint16",
              "name": "currXP",
              "type": "uint16"
            }
          ],
          "internalType": "struct GameToken.Hero",
          "name": "",
          "type": "tuple"
        }
      ],
      "stateMutability": "view",
      "type": "function",
      "constant": true
    },
    {
      "inputs": [
        {
          "internalType": "uint256",
          "name": "_heroId",
          "type": "uint256"
        }
      ],
      "name": "getHeroComplete",
      "outputs": [
        {
          "components": [
            {
              "internalType": "string",
              "name": "name",
              "type": "string"
            },
            {
              "internalType": "enum GameToken.HeroType",
              "name": "heroType",
              "type": "uint8"
            },
            {
              "internalType": "enum GameToken.HeroRarity",
              "name": "rarity",
              "type": "uint8"
            },
            {
              "internalType": "uint8",
              "name": "str",
              "type": "uint8"
            },
            {
              "internalType": "uint8",
              "name": "con",
              "type": "uint8"
            },
            {
              "internalType": "uint8",
              "name": "dex",
              "type": "uint8"
            },
            {
              "internalType": "uint8",
              "name": "wis",
              "type": "uint8"
            },
            {
              "internalType": "uint8",
              "name": "level",
              "type": "uint8"
            },
            {
              "internalType": "uint16",
              "name": "currXP",
              "type": "uint16"
            },
            {
              "internalType": "address",
              "name": "owner",
              "type": "address"
            },
            {
              "internalType": "string",
              "name": "tokenURI",
              "type": "string"
            }
          ],
          "internalType": "struct GameToken.HeroDTO",
          "name": "",
          "type": "tuple"
        }
      ],
      "stateMutability": "view",
      "type": "function",
      "constant": true
    },
    {
      "inputs": [
        {
          "internalType": "uint256",
          "name": "_heroId",
          "type": "uint256"
        },
        {
          "internalType": "string",
          "name": "_name",
          "type": "string"
        }
      ],
      "name": "setName",
      "outputs": [],
      "stateMutability": "nonpayable",
      "type": "function"
    },
    {
      "inputs": [
        {
          "internalType": "uint256",
          "name": "_heroId",
          "type": "uint256"
        },
        {
          "internalType": "uint16",
          "name": "_xp",
          "type": "uint16"
        }
      ],
      "name": "levelUp",
      "outputs": [],
      "stateMutability": "nonpayable",
      "type": "function"
    },
    {
      "inputs": [
        {
          "internalType": "uint256",
          "name": "tokenId",
          "type": "uint256"
        }
      ],
      "name": "tokenURI",
      "outputs": [
        {
          "internalType": "string",
          "name": "",
          "type": "string"
        }
      ],
      "stateMutability": "view",
      "type": "function",
      "constant": true
    }
  ],
  "bytecode": "0x60806040523480156200001157600080fd5b5060405162005d3038038062005d308339818101604052810190620000379190620006c6565b8282816000908051906020019062000051929190620003cb565b5080600190805190602001906200006a929190620003cb565b5050506200008d62000081620002fd60201b60201c565b6200030560201b60201c565b80600c9080519060200190620000a5929190620003cb565b506040518060c00160405280600060ff168152602001600160ff168152602001600060ff168152602001600260ff168152602001600360ff168152602001600160ff16815250600d60008060038111156200010557620001046200077f565b5b60038111156200011a57620001196200077f565b5b8152602001908152602001600020906006620001389291906200045c565b506040518060c00160405280600260ff168152602001600260ff168152602001600060ff168152602001600360ff168152602001600060ff168152602001600260ff16815250600d6000600160038111156200019957620001986200077f565b5b6003811115620001ae57620001ad6200077f565b5b8152602001908152602001600020906006620001cc9291906200045c565b506040518060c00160405280600360ff168152602001600360ff168152602001600260ff168152602001600160ff168152602001600060ff168152602001600360ff16815250600d6000600260038111156200022d576200022c6200077f565b5b60038111156200024257620002416200077f565b5b8152602001908152602001600020906006620002609291906200045c565b506040518060c00160405280600160ff168152602001600160ff168152602001600060ff168152602001600260ff168152602001600360ff168152602001600160ff16815250600d6000600380811115620002c057620002bf6200077f565b5b6003811115620002d557620002d46200077f565b5b8152602001908152602001600020906006620002f39291906200045c565b5050505062000813565b600033905090565b6000600760009054906101000a900473ffffffffffffffffffffffffffffffffffffffff16905081600760006101000a81548173ffffffffffffffffffffffffffffffffffffffff021916908373ffffffffffffffffffffffffffffffffffffffff1602179055508173ffffffffffffffffffffffffffffffffffffffff168173ffffffffffffffffffffffffffffffffffffffff167f8be0079c531659141344cd1fd0a4f28419497f9722a3daafe3b4186f6b6457e060405160405180910390a35050565b828054620003d990620007dd565b90600052602060002090601f016020900481019282620003fd576000855562000449565b82601f106200041857805160ff191683800117855562000449565b8280016001018555821562000449579182015b82811115620004485782518255916020019190600101906200042b565b5b5090506200045891906200050a565b5090565b82805482825590600052602060002090601f01602090048101928215620004f75791602002820160005b83821115620004c657835183826101000a81548160ff021916908360ff160217905550926020019260010160208160000104928301926001030262000486565b8015620004f55782816101000a81549060ff0219169055600101602081600001049283019260010302620004c6565b505b5090506200050691906200050a565b5090565b5b80821115620005255760008160009055506001016200050b565b5090565b6000604051905090565b600080fd5b600080fd5b600080fd5b600080fd5b6000601f19601f8301169050919050565b7f4e487b7100000000000000000000000000000000000000000000000000000000600052604160045260246000fd5b620005928262000547565b810181811067ffffffffffffffff82111715620005b457620005b362000558565b5b80604052505050565b6000620005c962000529565b9050620005d7828262000587565b919050565b600067ffffffffffffffff821115620005fa57620005f962000558565b5b620006058262000547565b9050602081019050919050565b60005b838110156200063257808201518184015260208101905062000615565b8381111562000642576000848401525b50505050565b60006200065f6200065984620005dc565b620005bd565b9050828152602081018484840111156200067e576200067d62000542565b5b6200068b84828562000612565b509392505050565b600082601f830112620006ab57620006aa6200053d565b5b8151620006bd84826020860162000648565b91505092915050565b600080600060608486031215620006e257620006e162000533565b5b600084015167ffffffffffffffff81111562000703576200070262000538565b5b620007118682870162000693565b935050602084015167ffffffffffffffff81111562000735576200073462000538565b5b620007438682870162000693565b925050604084015167ffffffffffffffff81111562000767576200076662000538565b5b620007758682870162000693565b9150509250925092565b7f4e487b7100000000000000000000000000000000000000000000000000000000600052602160045260246000fd5b7f4e487b7100000000000000000000000000000000000000000000000000000000600052602260045260246000fd5b60006002820490506001821680620007f657607f821691505b602082108114156200080d576200080c620007ae565b5b50919050565b61550d80620008236000396000f3fe608060405234801561001057600080fd5b50600436106101ce5760003560e01c806370a08231116101045780639a8d2882116100a2578063c87b56dd11610071578063c87b56dd14610519578063e985e9c514610549578063f2fde38b14610579578063fe55932a14610595576101ce565b80639a8d2882146104a7578063a22cb465146104c5578063b88d4fde146104e1578063c721b34b146104fd576101ce565b8063806f5283116100de578063806f52831461042f5780638302adfb1461044d5780638da5cb5b1461046b57806395d89b4114610489576101ce565b806370a08231146103d7578063715018a6146104075780637613939314610411576101ce565b806323b872dd11610171578063484a20321161014b578063484a20321461033f578063503f30ac1461035b578063518dec2c1461038b5780636352211e146103a7576101ce565b806323b872dd146102e957806329c794491461030557806342842e0e14610323576101ce565b8063081812fc116101ad578063081812fc14610251578063095ea7b31461028157806310d44ae01461029d57806321d80111146102b9576101ce565b80625597e3146101d357806301ffc9a71461020357806306fdde0314610233575b600080fd5b6101ed60048036038101906101e89190613529565b6105b1565b6040516101fa919061361e565b60405180910390f35b61021d60048036038101906102189190613698565b61070e565b60405161022a91906136e0565b60405180910390f35b61023b6107f0565b6040516102489190613794565b60405180910390f35b61026b600480360381019061026691906137e2565b610882565b604051610278919061381e565b60405180910390f35b61029b60048036038101906102969190613839565b610907565b005b6102b760048036038101906102b291906139f8565b610a1f565b005b6102d360048036038101906102ce91906137e2565b610ffb565b6040516102e09190613c6e565b60405180910390f35b61030360048036038101906102fe9190613c90565b6111f1565b005b61030d611251565b60405161031a919061381e565b60405180910390f35b61033d60048036038101906103389190613c90565b611277565b005b61035960048036038101906103549190613d0f565b611297565b005b610375600480360381019061037091906137e2565b61162e565b6040516103829190613e54565b60405180910390f35b6103a560048036038101906103a09190613529565b6118f7565b005b6103c160048036038101906103bc91906137e2565b6119b7565b6040516103ce919061381e565b60405180910390f35b6103f160048036038101906103ec9190613529565b611a69565b6040516103fe9190613e85565b60405180910390f35b61040f611b21565b005b610419611ba9565b604051610426919061381e565b60405180910390f35b610437611bcf565b604051610444919061361e565b60405180910390f35b610455611bdf565b6040516104629190613e85565b60405180910390f35b610473611bf0565b604051610480919061381e565b60405180910390f35b610491611c1a565b60405161049e9190613794565b60405180910390f35b6104af611cac565b6040516104bc9190614027565b60405180910390f35b6104df60048036038101906104da9190614075565b611ec5565b005b6104fb60048036038101906104f69190614156565b612046565b005b61051760048036038101906105129190613529565b6120a8565b005b610533600480360381019061052e91906137e2565b612168565b6040516105409190613794565b60405180910390f35b610563600480360381019061055e91906141d9565b61219c565b60405161057091906136e0565b60405180910390f35b610593600480360381019061058e9190613529565b612230565b005b6105af60048036038101906105aa9190614219565b612328565b005b606060006105be83611a69565b9050600081141561061b57600067ffffffffffffffff8111156105e4576105e36138cd565b5b6040519080825280602002602001820160405280156106125781602001602082028036833780820191505090505b50915050610709565b60008167ffffffffffffffff811115610637576106366138cd565b5b6040519080825280602002602001820160405280156106655781602001602082028036833780820191505090505b50905060008060009050600091505b61067e60086123e2565b821015610701578573ffffffffffffffffffffffffffffffffffffffff166106a5836119b7565b73ffffffffffffffffffffffffffffffffffffffff1614156106ee57818382806106ce906142a4565b9350815181106106e1576106e06142ed565b5b6020026020010181815250505b81806106f9906142a4565b925050610674565b829450505050505b919050565b60007f80ac58cd000000000000000000000000000000000000000000000000000000007bffffffffffffffffffffffffffffffffffffffffffffffffffffffff1916827bffffffffffffffffffffffffffffffffffffffffffffffffffffffff191614806107d957507f5b5e139f000000000000000000000000000000000000000000000000000000007bffffffffffffffffffffffffffffffffffffffffffffffffffffffff1916827bffffffffffffffffffffffffffffffffffffffffffffffffffffffff1916145b806107e957506107e8826123f0565b5b9050919050565b6060600080546107ff9061434b565b80601f016020809104026020016040519081016040528092919081815260200182805461082b9061434b565b80156108785780601f1061084d57610100808354040283529160200191610878565b820191906000526020600020905b81548152906001019060200180831161085b57829003601f168201915b5050505050905090565b600061088d8261245a565b6108cc576040517f08c379a00000000000000000000000000000000000000000000000000000000081526004016108c3906143ef565b60405180910390fd5b6004600083815260200190815260200160002060009054906101000a900473ffffffffffffffffffffffffffffffffffffffff169050919050565b6000610912826119b7565b90508073ffffffffffffffffffffffffffffffffffffffff168373ffffffffffffffffffffffffffffffffffffffff161415610983576040517f08c379a000000000000000000000000000000000000000000000000000000000815260040161097a90614481565b60405180910390fd5b8073ffffffffffffffffffffffffffffffffffffffff166109a26124c6565b73ffffffffffffffffffffffffffffffffffffffff1614806109d157506109d0816109cb6124c6565b61219c565b5b610a10576040517f08c379a0000000000000000000000000000000000000000000000000000000008152600401610a0790614513565b60405180910390fd5b610a1a83836124ce565b505050565b610a276124c6565b73ffffffffffffffffffffffffffffffffffffffff16610a45611bf0565b73ffffffffffffffffffffffffffffffffffffffff1614610a9b576040517f08c379a0000000000000000000000000000000000000000000000000000000008152600401610a929061457f565b60405180910390fd5b6000610aa760086123e2565b905060008060006003811115610ac057610abf613ab1565b5b856003811115610ad357610ad2613ab1565b5b1415610ae6576004915060069050610b65565b60016003811115610afa57610af9613ab1565b5b856003811115610b0d57610b0c613ab1565b5b1415610b20576007915060089050610b64565b60026003811115610b3457610b33613ab1565b5b856003811115610b4757610b46613ab1565b5b1415610b5a5760099150600a9050610b63565b600b9150600c90505b5b5b60008260ff16610b7f8484610b7a919061459f565b612587565b610b8991906145d3565b90506000600467ffffffffffffffff811115610ba857610ba76138cd565b5b604051908082528060200260200182016040528015610bd65781602001602082028036833780820191505090505b509050600181600081518110610bef57610bee6142ed565b5b602002602001019060ff16908160ff1681525050600181600181518110610c1957610c186142ed565b5b602002602001019060ff16908160ff1681525050600181600281518110610c4357610c426142ed565b5b602002602001019060ff16908160ff1681525050600181600381518110610c6d57610c6c6142ed565b5b602002602001019060ff16908160ff1681525050600080600190505b838160ff1611610d6a5782600d60008c6003811115610cab57610caa613ab1565b5b6003811115610cbd57610cbc613ab1565b5b81526020019081526020016000208360ff1681548110610ce057610cdf6142ed565b5b90600052602060002090602091828204019190069054906101000a900460ff1660ff1681518110610d1457610d136142ed565b5b602002602001018051809190610d2990614629565b60ff1660ff168152505060058260ff161415610d485760009150610d57565b8180610d5390614629565b9250505b8080610d6290614629565b915050610c89565b50610d75338761269d565b610d7f86886126bb565b600b6040518061012001604052806040518060200160405280600081525081526020018b6003811115610db557610db4613ab1565b5b81526020018a6003811115610dcd57610dcc613ab1565b5b815260200184600081518110610de657610de56142ed565b5b602002602001015160ff16815260200184600181518110610e0a57610e096142ed565b5b602002602001015160ff16815260200184600281518110610e2e57610e2d6142ed565b5b602002602001015160ff16815260200184600381518110610e5257610e516142ed565b5b602002602001015160ff168152602001600160ff168152602001600061ffff1681525090806001815401808255809150506001900390600052602060002090600202016000909190919091506000820151816000019080519060200190610eba9291906132ea565b5060208201518160010160006101000a81548160ff02191690836003811115610ee657610ee5613ab1565b5b021790555060408201518160010160016101000a81548160ff02191690836003811115610f1657610f15613ab1565b5b021790555060608201518160010160026101000a81548160ff021916908360ff16021790555060808201518160010160036101000a81548160ff021916908360ff16021790555060a08201518160010160046101000a81548160ff021916908360ff16021790555060c08201518160010160056101000a81548160ff021916908360ff16021790555060e08201518160010160066101000a81548160ff021916908360ff1602179055506101008201518160010160076101000a81548161ffff021916908361ffff1602179055505050610ff0600861272f565b505050505050505050565b611003613370565b600b8281548110611017576110166142ed565b5b9060005260206000209060020201604051806101200160405290816000820180546110419061434b565b80601f016020809104026020016040519081016040528092919081815260200182805461106d9061434b565b80156110ba5780601f1061108f576101008083540402835291602001916110ba565b820191906000526020600020905b81548152906001019060200180831161109d57829003601f168201915b505050505081526020016001820160009054906101000a900460ff1660038111156110e8576110e7613ab1565b5b60038111156110fa576110f9613ab1565b5b81526020016001820160019054906101000a900460ff16600381111561112357611122613ab1565b5b600381111561113557611134613ab1565b5b81526020016001820160029054906101000a900460ff1660ff1660ff1681526020016001820160039054906101000a900460ff1660ff1660ff1681526020016001820160049054906101000a900460ff1660ff1660ff1681526020016001820160059054906101000a900460ff1660ff1660ff1681526020016001820160069054906101000a900460ff1660ff1660ff1681526020016001820160079054906101000a900461ffff1661ffff1661ffff16815250509050919050565b6112026111fc6124c6565b82612745565b611241576040517f08c379a0000000000000000000000000000000000000000000000000000000008152600401611238906146c5565b60405180910390fd5b61124c838383612823565b505050565b600a60009054906101000a900473ffffffffffffffffffffffffffffffffffffffff1681565b61129283838360405180602001604052806000815250612046565b505050565b600960009054906101000a900473ffffffffffffffffffffffffffffffffffffffff1673ffffffffffffffffffffffffffffffffffffffff163373ffffffffffffffffffffffffffffffffffffffff1614806113405750600a60009054906101000a900473ffffffffffffffffffffffffffffffffffffffff1673ffffffffffffffffffffffffffffffffffffffff163373ffffffffffffffffffffffffffffffffffffffff16145b61137f576040517f08c379a000000000000000000000000000000000000000000000000000000000815260040161137690614757565b60405180910390fd5b6000600b8381548110611395576113946142ed565b5b90600052602060002090600202019050818160010160078282829054906101000a900461ffff166113c69190614777565b92506101000a81548161ffff021916908361ffff1602179055508060010160079054906101000a900461ffff1661ffff16837f5e4984a28872a040fc1a681e4330b49cbce17ae15a7202ad2fa0e330aa3654d960405160405180910390a38060010160069054906101000a900460ff16600261144291906148e2565b8160010160079054906101000a900461ffff1661ffff16106116295780600101600681819054906101000a900460ff168092919061147f90614629565b91906101000a81548160ff021916908360ff1602179055505060008160010160076101000a81548161ffff021916908361ffff16021790555060006114c46003612587565b9050600081141561150e5781600101600281819054906101000a900460ff16809291906114f090614629565b91906101000a81548160ff021916908360ff160217905550506115e5565b60018114156115565781600101600381819054906101000a900460ff168092919061153890614629565b91906101000a81548160ff021916908360ff160217905550506115e4565b600281141561159e5781600101600481819054906101000a900460ff168092919061158090614629565b91906101000a81548160ff021916908360ff160217905550506115e3565b60038114156115e25781600101600581819054906101000a900460ff16809291906115c890614629565b91906101000a81548160ff021916908360ff160217905550505b5b5b5b8160010160069054906101000a900460ff1660ff16847fad739759ba8930019bd1c3be6ed5fcd01b01d8281b167965f3268c8995a69c6160405160405180910390a3505b505050565b6116366133f3565b6000600b838154811061164c5761164b6142ed565b5b9060005260206000209060020201604051806101200160405290816000820180546116769061434b565b80601f01602080910402602001604051908101604052809291908181526020018280546116a29061434b565b80156116ef5780601f106116c4576101008083540402835291602001916116ef565b820191906000526020600020905b8154815290600101906020018083116116d257829003601f168201915b505050505081526020016001820160009054906101000a900460ff16600381111561171d5761171c613ab1565b5b600381111561172f5761172e613ab1565b5b81526020016001820160019054906101000a900460ff16600381111561175857611757613ab1565b5b600381111561176a57611769613ab1565b5b81526020016001820160029054906101000a900460ff1660ff1660ff1681526020016001820160039054906101000a900460ff1660ff1660ff1681526020016001820160049054906101000a900460ff1660ff1660ff1681526020016001820160059054906101000a900460ff1660ff1660ff1681526020016001820160069054906101000a900460ff1660ff1660ff1681526020016001820160079054906101000a900461ffff1661ffff1661ffff16815250509050604051806101600160405280826000015181526020018260200151600381111561184e5761184d613ab1565b5b81526020018260400151600381111561186a57611869613ab1565b5b8152602001826060015160ff168152602001826080015160ff1681526020018260a0015160ff1681526020018260c0015160ff1681526020018260e0015160ff16815260200182610100015161ffff1681526020016118c8856119b7565b73ffffffffffffffffffffffffffffffffffffffff1681526020016118ec85612168565b815250915050919050565b6118ff6124c6565b73ffffffffffffffffffffffffffffffffffffffff1661191d611bf0565b73ffffffffffffffffffffffffffffffffffffffff1614611973576040517f08c379a000000000000000000000000000000000000000000000000000000000815260040161196a9061457f565b60405180910390fd5b80600a60006101000a81548173ffffffffffffffffffffffffffffffffffffffff021916908373ffffffffffffffffffffffffffffffffffffffff16021790555050565b6000806002600084815260200190815260200160002060009054906101000a900473ffffffffffffffffffffffffffffffffffffffff169050600073ffffffffffffffffffffffffffffffffffffffff168173ffffffffffffffffffffffffffffffffffffffff161415611a60576040517f08c379a0000000000000000000000000000000000000000000000000000000008152600401611a579061499f565b60405180910390fd5b80915050919050565b60008073ffffffffffffffffffffffffffffffffffffffff168273ffffffffffffffffffffffffffffffffffffffff161415611ada576040517f08c379a0000000000000000000000000000000000000000000000000000000008152600401611ad190614a31565b60405180910390fd5b600360008373ffffffffffffffffffffffffffffffffffffffff1673ffffffffffffffffffffffffffffffffffffffff168152602001908152602001600020549050919050565b611b296124c6565b73ffffffffffffffffffffffffffffffffffffffff16611b47611bf0565b73ffffffffffffffffffffffffffffffffffffffff1614611b9d576040517f08c379a0000000000000000000000000000000000000000000000000000000008152600401611b949061457f565b60405180910390fd5b611ba76000612a7f565b565b600960009054906101000a900473ffffffffffffffffffffffffffffffffffffffff1681565b6060611bda336105b1565b905090565b6000611beb60086123e2565b905090565b6000600760009054906101000a900473ffffffffffffffffffffffffffffffffffffffff16905090565b606060018054611c299061434b565b80601f0160208091040260200160405190810160405280929190818152602001828054611c559061434b565b8015611ca25780601f10611c7757610100808354040283529160200191611ca2565b820191906000526020600020905b815481529060010190602001808311611c8557829003601f168201915b5050505050905090565b6060600b805480602002602001604051908101604052809291908181526020016000905b82821015611ebc578382906000526020600020906002020160405180610120016040529081600082018054611d049061434b565b80601f0160208091040260200160405190810160405280929190818152602001828054611d309061434b565b8015611d7d5780601f10611d5257610100808354040283529160200191611d7d565b820191906000526020600020905b815481529060010190602001808311611d6057829003601f168201915b505050505081526020016001820160009054906101000a900460ff166003811115611dab57611daa613ab1565b5b6003811115611dbd57611dbc613ab1565b5b81526020016001820160019054906101000a900460ff166003811115611de657611de5613ab1565b5b6003811115611df857611df7613ab1565b5b81526020016001820160029054906101000a900460ff1660ff1660ff1681526020016001820160039054906101000a900460ff1660ff1660ff1681526020016001820160049054906101000a900460ff1660ff1660ff1681526020016001820160059054906101000a900460ff1660ff1660ff1681526020016001820160069054906101000a900460ff1660ff1660ff1681526020016001820160079054906101000a900461ffff1661ffff1661ffff168152505081526020019060010190611cd0565b50505050905090565b611ecd6124c6565b73ffffffffffffffffffffffffffffffffffffffff168273ffffffffffffffffffffffffffffffffffffffff161415611f3b576040517f08c379a0000000000000000000000000000000000000000000000000000000008152600401611f3290614a9d565b60405180910390fd5b8060056000611f486124c6565b73ffffffffffffffffffffffffffffffffffffffff1673ffffffffffffffffffffffffffffffffffffffff16815260200190815260200160002060008473ffffffffffffffffffffffffffffffffffffffff1673ffffffffffffffffffffffffffffffffffffffff16815260200190815260200160002060006101000a81548160ff0219169083151502179055508173ffffffffffffffffffffffffffffffffffffffff16611ff56124c6565b73ffffffffffffffffffffffffffffffffffffffff167f17307eab39ab6107e8899845ad3d59bd9653f200f220920489ca2b5937696c318360405161203a91906136e0565b60405180910390a35050565b6120576120516124c6565b83612745565b612096576040517f08c379a000000000000000000000000000000000000000000000000000000000815260040161208d906146c5565b60405180910390fd5b6120a284848484612b45565b50505050565b6120b06124c6565b73ffffffffffffffffffffffffffffffffffffffff166120ce611bf0565b73ffffffffffffffffffffffffffffffffffffffff1614612124576040517f08c379a000000000000000000000000000000000000000000000000000000000815260040161211b9061457f565b60405180910390fd5b80600960006101000a81548173ffffffffffffffffffffffffffffffffffffffff021916908373ffffffffffffffffffffffffffffffffffffffff16021790555050565b6060600c61217583612ba1565b604051602001612186929190614b8d565b6040516020818303038152906040529050919050565b6000600560008473ffffffffffffffffffffffffffffffffffffffff1673ffffffffffffffffffffffffffffffffffffffff16815260200190815260200160002060008373ffffffffffffffffffffffffffffffffffffffff1673ffffffffffffffffffffffffffffffffffffffff16815260200190815260200160002060009054906101000a900460ff16905092915050565b6122386124c6565b73ffffffffffffffffffffffffffffffffffffffff16612256611bf0565b73ffffffffffffffffffffffffffffffffffffffff16146122ac576040517f08c379a00000000000000000000000000000000000000000000000000000000081526004016122a39061457f565b60405180910390fd5b600073ffffffffffffffffffffffffffffffffffffffff168173ffffffffffffffffffffffffffffffffffffffff16141561231c576040517f08c379a000000000000000000000000000000000000000000000000000000000815260040161231390614c23565b60405180910390fd5b61232581612a7f565b50565b612331826119b7565b73ffffffffffffffffffffffffffffffffffffffff163373ffffffffffffffffffffffffffffffffffffffff161461239e576040517f08c379a000000000000000000000000000000000000000000000000000000000815260040161239590614c8f565b60405180910390fd5b6000600b83815481106123b4576123b36142ed565b5b90600052602060002090600202019050818160000190805190602001906123dc9291906132ea565b50505050565b600081600001549050919050565b60007f01ffc9a7000000000000000000000000000000000000000000000000000000007bffffffffffffffffffffffffffffffffffffffffffffffffffffffff1916827bffffffffffffffffffffffffffffffffffffffffffffffffffffffff1916149050919050565b60008073ffffffffffffffffffffffffffffffffffffffff166002600084815260200190815260200160002060009054906101000a900473ffffffffffffffffffffffffffffffffffffffff1673ffffffffffffffffffffffffffffffffffffffff1614159050919050565b600033905090565b816004600083815260200190815260200160002060006101000a81548173ffffffffffffffffffffffffffffffffffffffff021916908373ffffffffffffffffffffffffffffffffffffffff160217905550808273ffffffffffffffffffffffffffffffffffffffff16612541836119b7565b73ffffffffffffffffffffffffffffffffffffffff167f8c5be1e5ebec7d5bd14f71427d1e84f3dd0314c0f7b2291e5b200ac8c7c3b92560405160405180910390a45050565b60008043423360405160200161259d9190614cf7565b6040516020818303038152906040528051906020012060001c6125c09190614d41565b4542416040516020016125d39190614dad565b6040516020818303038152906040528051906020012060001c6125f69190614d41565b444261260291906145d3565b61260c91906145d3565b61261691906145d3565b61262091906145d3565b61262a91906145d3565b60405160200161263a9190614de9565b6040516020818303038152906040528051906020012060001c90506001836126629190614e04565b60ff166001846126729190614e04565b60ff16826126809190614d41565b61268a9190614e3b565b816126959190614e95565b915050919050565b6126b7828260405180602001604052806000815250612cf3565b5050565b6126c48261245a565b612703576040517f08c379a00000000000000000000000000000000000000000000000000000000081526004016126fa90614f3b565b60405180910390fd5b8060066000848152602001908152602001600020908051906020019061272a9291906132ea565b505050565b6001816000016000828254019250508190555050565b60006127508261245a565b61278f576040517f08c379a000000000000000000000000000000000000000000000000000000000815260040161278690614fcd565b60405180910390fd5b600061279a836119b7565b90508073ffffffffffffffffffffffffffffffffffffffff168473ffffffffffffffffffffffffffffffffffffffff16148061280957508373ffffffffffffffffffffffffffffffffffffffff166127f184610882565b73ffffffffffffffffffffffffffffffffffffffff16145b8061281a5750612819818561219c565b5b91505092915050565b8273ffffffffffffffffffffffffffffffffffffffff16612843826119b7565b73ffffffffffffffffffffffffffffffffffffffff1614612899576040517f08c379a00000000000000000000000000000000000000000000000000000000081526004016128909061505f565b60405180910390fd5b600073ffffffffffffffffffffffffffffffffffffffff168273ffffffffffffffffffffffffffffffffffffffff161415612909576040517f08c379a0000000000000000000000000000000000000000000000000000000008152600401612900906150f1565b60405180910390fd5b612914838383612d4e565b61291f6000826124ce565b6001600360008573ffffffffffffffffffffffffffffffffffffffff1673ffffffffffffffffffffffffffffffffffffffff168152602001908152602001600020600082825461296f9190614e95565b925050819055506001600360008473ffffffffffffffffffffffffffffffffffffffff1673ffffffffffffffffffffffffffffffffffffffff16815260200190815260200160002060008282546129c691906145d3565b92505081905550816002600083815260200190815260200160002060006101000a81548173ffffffffffffffffffffffffffffffffffffffff021916908373ffffffffffffffffffffffffffffffffffffffff160217905550808273ffffffffffffffffffffffffffffffffffffffff168473ffffffffffffffffffffffffffffffffffffffff167fddf252ad1be2c89b69c2b068fc378daa952ba7f163c4a11628f55a4df523b3ef60405160405180910390a4505050565b6000600760009054906101000a900473ffffffffffffffffffffffffffffffffffffffff16905081600760006101000a81548173ffffffffffffffffffffffffffffffffffffffff021916908373ffffffffffffffffffffffffffffffffffffffff1602179055508173ffffffffffffffffffffffffffffffffffffffff168173ffffffffffffffffffffffffffffffffffffffff167f8be0079c531659141344cd1fd0a4f28419497f9722a3daafe3b4186f6b6457e060405160405180910390a35050565b612b50848484612823565b612b5c84848484612d53565b612b9b576040517f08c379a0000000000000000000000000000000000000000000000000000000008152600401612b9290615183565b60405180910390fd5b50505050565b6060612bac8261245a565b612beb576040517f08c379a0000000000000000000000000000000000000000000000000000000008152600401612be290615215565b60405180910390fd5b6000600660008481526020019081526020016000208054612c0b9061434b565b80601f0160208091040260200160405190810160405280929190818152602001828054612c379061434b565b8015612c845780601f10612c5957610100808354040283529160200191612c84565b820191906000526020600020905b815481529060010190602001808311612c6757829003601f168201915b505050505090506000612c95612eea565b9050600081511415612cab578192505050612cee565b600082511115612ce0578082604051602001612cc8929190615235565b60405160208183030381529060405292505050612cee565b612ce984612f01565b925050505b919050565b612cfd8383612fa8565b612d0a6000848484612d53565b612d49576040517f08c379a0000000000000000000000000000000000000000000000000000000008152600401612d4090615183565b60405180910390fd5b505050565b505050565b6000612d748473ffffffffffffffffffffffffffffffffffffffff16613176565b15612edd578373ffffffffffffffffffffffffffffffffffffffff1663150b7a02612d9d6124c6565b8786866040518563ffffffff1660e01b8152600401612dbf94939291906152ae565b602060405180830381600087803b158015612dd957600080fd5b505af1925050508015612e0a57506040513d601f19601f82011682018060405250810190612e07919061530f565b60015b612e8d573d8060008114612e3a576040519150601f19603f3d011682016040523d82523d6000602084013e612e3f565b606091505b50600081511415612e85576040517f08c379a0000000000000000000000000000000000000000000000000000000008152600401612e7c90615183565b60405180910390fd5b805181602001fd5b63150b7a0260e01b7bffffffffffffffffffffffffffffffffffffffffffffffffffffffff1916817bffffffffffffffffffffffffffffffffffffffffffffffffffffffff191614915050612ee2565b600190505b949350505050565b606060405180602001604052806000815250905090565b6060612f0c8261245a565b612f4b576040517f08c379a0000000000000000000000000000000000000000000000000000000008152600401612f42906153ae565b60405180910390fd5b6000612f55612eea565b90506000815111612f755760405180602001604052806000815250612fa0565b80612f7f84613189565b604051602001612f90929190615235565b6040516020818303038152906040525b915050919050565b600073ffffffffffffffffffffffffffffffffffffffff168273ffffffffffffffffffffffffffffffffffffffff161415613018576040517f08c379a000000000000000000000000000000000000000000000000000000000815260040161300f9061541a565b60405180910390fd5b6130218161245a565b15613061576040517f08c379a000000000000000000000000000000000000000000000000000000000815260040161305890615486565b60405180910390fd5b61306d60008383612d4e565b6001600360008473ffffffffffffffffffffffffffffffffffffffff1673ffffffffffffffffffffffffffffffffffffffff16815260200190815260200160002060008282546130bd91906145d3565b92505081905550816002600083815260200190815260200160002060006101000a81548173ffffffffffffffffffffffffffffffffffffffff021916908373ffffffffffffffffffffffffffffffffffffffff160217905550808273ffffffffffffffffffffffffffffffffffffffff16600073ffffffffffffffffffffffffffffffffffffffff167fddf252ad1be2c89b69c2b068fc378daa952ba7f163c4a11628f55a4df523b3ef60405160405180910390a45050565b600080823b905060008111915050919050565b606060008214156131d1576040518060400160405280600181526020017f300000000000000000000000000000000000000000000000000000000000000081525090506132e5565b600082905060005b600082146132035780806131ec906142a4565b915050600a826131fc9190614d41565b91506131d9565b60008167ffffffffffffffff81111561321f5761321e6138cd565b5b6040519080825280601f01601f1916602001820160405280156132515781602001600182028036833780820191505090505b5090505b600085146132de5760018261326a9190614e95565b9150600a8561327991906154a6565b603061328591906145d3565b60f81b81838151811061329b5761329a6142ed565b5b60200101907effffffffffffffffffffffffffffffffffffffffffffffffffffffffffffff1916908160001a905350600a856132d79190614d41565b9450613255565b8093505050505b919050565b8280546132f69061434b565b90600052602060002090601f016020900481019282613318576000855561335f565b82601f1061333157805160ff191683800117855561335f565b8280016001018555821561335f579182015b8281111561335e578251825591602001919060010190613343565b5b50905061336c919061349a565b5090565b604051806101200160405280606081526020016000600381111561339757613396613ab1565b5b8152602001600060038111156133b0576133af613ab1565b5b8152602001600060ff168152602001600060ff168152602001600060ff168152602001600060ff168152602001600060ff168152602001600061ffff1681525090565b604051806101600160405280606081526020016000600381111561341a57613419613ab1565b5b81526020016000600381111561343357613432613ab1565b5b8152602001600060ff168152602001600060ff168152602001600060ff168152602001600060ff168152602001600060ff168152602001600061ffff168152602001600073ffffffffffffffffffffffffffffffffffffffff168152602001606081525090565b5b808211156134b357600081600090555060010161349b565b5090565b6000604051905090565b600080fd5b600080fd5b600073ffffffffffffffffffffffffffffffffffffffff82169050919050565b60006134f6826134cb565b9050919050565b613506816134eb565b811461351157600080fd5b50565b600081359050613523816134fd565b92915050565b60006020828403121561353f5761353e6134c1565b5b600061354d84828501613514565b91505092915050565b600081519050919050565b600082825260208201905092915050565b6000819050602082019050919050565b6000819050919050565b61359581613582565b82525050565b60006135a7838361358c565b60208301905092915050565b6000602082019050919050565b60006135cb82613556565b6135d58185613561565b93506135e083613572565b8060005b838110156136115781516135f8888261359b565b9750613603836135b3565b9250506001810190506135e4565b5085935050505092915050565b6000602082019050818103600083015261363881846135c0565b905092915050565b60007fffffffff0000000000000000000000000000000000000000000000000000000082169050919050565b61367581613640565b811461368057600080fd5b50565b6000813590506136928161366c565b92915050565b6000602082840312156136ae576136ad6134c1565b5b60006136bc84828501613683565b91505092915050565b60008115159050919050565b6136da816136c5565b82525050565b60006020820190506136f560008301846136d1565b92915050565b600081519050919050565b600082825260208201905092915050565b60005b8381101561373557808201518184015260208101905061371a565b83811115613744576000848401525b50505050565b6000601f19601f8301169050919050565b6000613766826136fb565b6137708185613706565b9350613780818560208601613717565b6137898161374a565b840191505092915050565b600060208201905081810360008301526137ae818461375b565b905092915050565b6137bf81613582565b81146137ca57600080fd5b50565b6000813590506137dc816137b6565b92915050565b6000602082840312156137f8576137f76134c1565b5b6000613806848285016137cd565b91505092915050565b613818816134eb565b82525050565b6000602082019050613833600083018461380f565b92915050565b600080604083850312156138505761384f6134c1565b5b600061385e85828601613514565b925050602061386f858286016137cd565b9150509250929050565b6004811061388657600080fd5b50565b60008135905061389881613879565b92915050565b600481106138ab57600080fd5b50565b6000813590506138bd8161389e565b92915050565b600080fd5b600080fd5b7f4e487b7100000000000000000000000000000000000000000000000000000000600052604160045260246000fd5b6139058261374a565b810181811067ffffffffffffffff82111715613924576139236138cd565b5b80604052505050565b60006139376134b7565b905061394382826138fc565b919050565b600067ffffffffffffffff821115613963576139626138cd565b5b61396c8261374a565b9050602081019050919050565b82818337600083830152505050565b600061399b61399684613948565b61392d565b9050828152602081018484840111156139b7576139b66138c8565b5b6139c2848285613979565b509392505050565b600082601f8301126139df576139de6138c3565b5b81356139ef848260208601613988565b91505092915050565b600080600060608486031215613a1157613a106134c1565b5b6000613a1f86828701613889565b9350506020613a30868287016138ae565b925050604084013567ffffffffffffffff811115613a5157613a506134c6565b5b613a5d868287016139ca565b9150509250925092565b600082825260208201905092915050565b6000613a83826136fb565b613a8d8185613a67565b9350613a9d818560208601613717565b613aa68161374a565b840191505092915050565b7f4e487b7100000000000000000000000000000000000000000000000000000000600052602160045260246000fd5b60048110613af157613af0613ab1565b5b50565b6000819050613b0282613ae0565b919050565b6000613b1282613af4565b9050919050565b613b2281613b07565b82525050565b60048110613b3957613b38613ab1565b5b50565b6000819050613b4a82613b28565b919050565b6000613b5a82613b3c565b9050919050565b613b6a81613b4f565b82525050565b600060ff82169050919050565b613b8681613b70565b82525050565b600061ffff82169050919050565b613ba381613b8c565b82525050565b6000610120830160008301518482036000860152613bc78282613a78565b9150506020830151613bdc6020860182613b19565b506040830151613bef6040860182613b61565b506060830151613c026060860182613b7d565b506080830151613c156080860182613b7d565b5060a0830151613c2860a0860182613b7d565b5060c0830151613c3b60c0860182613b7d565b5060e0830151613c4e60e0860182613b7d565b50610100830151613c63610100860182613b9a565b508091505092915050565b60006020820190508181036000830152613c888184613ba9565b905092915050565b600080600060608486031215613ca957613ca86134c1565b5b6000613cb786828701613514565b9350506020613cc886828701613514565b9250506040613cd9868287016137cd565b9150509250925092565b613cec81613b8c565b8114613cf757600080fd5b50565b600081359050613d0981613ce3565b92915050565b60008060408385031215613d2657613d256134c1565b5b6000613d34858286016137cd565b9250506020613d4585828601613cfa565b9150509250929050565b613d58816134eb565b82525050565b6000610160830160008301518482036000860152613d7c8282613a78565b9150506020830151613d916020860182613b19565b506040830151613da46040860182613b61565b506060830151613db76060860182613b7d565b506080830151613dca6080860182613b7d565b5060a0830151613ddd60a0860182613b7d565b5060c0830151613df060c0860182613b7d565b5060e0830151613e0360e0860182613b7d565b50610100830151613e18610100860182613b9a565b50610120830151613e2d610120860182613d4f565b50610140830151848203610140860152613e478282613a78565b9150508091505092915050565b60006020820190508181036000830152613e6e8184613d5e565b905092915050565b613e7f81613582565b82525050565b6000602082019050613e9a6000830184613e76565b92915050565b600081519050919050565b600082825260208201905092915050565b6000819050602082019050919050565b6000610120830160008301518482036000860152613eea8282613a78565b9150506020830151613eff6020860182613b19565b506040830151613f126040860182613b61565b506060830151613f256060860182613b7d565b506080830151613f386080860182613b7d565b5060a0830151613f4b60a0860182613b7d565b5060c0830151613f5e60c0860182613b7d565b5060e0830151613f7160e0860182613b7d565b50610100830151613f86610100860182613b9a565b508091505092915050565b6000613f9d8383613ecc565b905092915050565b6000602082019050919050565b6000613fbd82613ea0565b613fc78185613eab565b935083602082028501613fd985613ebc565b8060005b858110156140155784840389528151613ff68582613f91565b945061400183613fa5565b925060208a01995050600181019050613fdd565b50829750879550505050505092915050565b600060208201905081810360008301526140418184613fb2565b905092915050565b614052816136c5565b811461405d57600080fd5b50565b60008135905061406f81614049565b92915050565b6000806040838503121561408c5761408b6134c1565b5b600061409a85828601613514565b92505060206140ab85828601614060565b9150509250929050565b600067ffffffffffffffff8211156140d0576140cf6138cd565b5b6140d98261374a565b9050602081019050919050565b60006140f96140f4846140b5565b61392d565b905082815260208101848484011115614115576141146138c8565b5b614120848285613979565b509392505050565b600082601f83011261413d5761413c6138c3565b5b813561414d8482602086016140e6565b91505092915050565b600080600080608085870312156141705761416f6134c1565b5b600061417e87828801613514565b945050602061418f87828801613514565b93505060406141a0878288016137cd565b925050606085013567ffffffffffffffff8111156141c1576141c06134c6565b5b6141cd87828801614128565b91505092959194509250565b600080604083850312156141f0576141ef6134c1565b5b60006141fe85828601613514565b925050602061420f85828601613514565b9150509250929050565b600080604083850312156142305761422f6134c1565b5b600061423e858286016137cd565b925050602083013567ffffffffffffffff81111561425f5761425e6134c6565b5b61426b858286016139ca565b9150509250929050565b7f4e487b7100000000000000000000000000000000000000000000000000000000600052601160045260246000fd5b60006142af82613582565b91507fffffffffffffffffffffffffffffffffffffffffffffffffffffffffffffffff8214156142e2576142e1614275565b5b600182019050919050565b7f4e487b7100000000000000000000000000000000000000000000000000000000600052603260045260246000fd5b7f4e487b7100000000000000000000000000000000000000000000000000000000600052602260045260246000fd5b6000600282049050600182168061436357607f821691505b602082108114156143775761437661431c565b5b50919050565b7f4552433732313a20617070726f76656420717565727920666f72206e6f6e657860008201527f697374656e7420746f6b656e0000000000000000000000000000000000000000602082015250565b60006143d9602c83613706565b91506143e48261437d565b604082019050919050565b60006020820190508181036000830152614408816143cc565b9050919050565b7f4552433732313a20617070726f76616c20746f2063757272656e74206f776e6560008201527f7200000000000000000000000000000000000000000000000000000000000000602082015250565b600061446b602183613706565b91506144768261440f565b604082019050919050565b6000602082019050818103600083015261449a8161445e565b9050919050565b7f4552433732313a20617070726f76652063616c6c6572206973206e6f74206f7760008201527f6e6572206e6f7220617070726f76656420666f7220616c6c0000000000000000602082015250565b60006144fd603883613706565b9150614508826144a1565b604082019050919050565b6000602082019050818103600083015261452c816144f0565b9050919050565b7f4f776e61626c653a2063616c6c6572206973206e6f7420746865206f776e6572600082015250565b6000614569602083613706565b915061457482614533565b602082019050919050565b600060208201905081810360008301526145988161455c565b9050919050565b60006145aa82613b70565b91506145b583613b70565b9250828210156145c8576145c7614275565b5b828203905092915050565b60006145de82613582565b91506145e983613582565b9250827fffffffffffffffffffffffffffffffffffffffffffffffffffffffffffffffff0382111561461e5761461d614275565b5b828201905092915050565b600061463482613b70565b915060ff82141561464857614647614275565b5b600182019050919050565b7f4552433732313a207472616e736665722063616c6c6572206973206e6f74206f60008201527f776e6572206e6f7220617070726f766564000000000000000000000000000000602082015250565b60006146af603183613706565b91506146ba82614653565b604082019050919050565b600060208201905081810360008301526146de816146a2565b9050919050565b7f4f6e6c7920626174746c65206f72206974656d2073686f7020636f6e7472616360008201527f742063616e206578656375746520697400000000000000000000000000000000602082015250565b6000614741603083613706565b915061474c826146e5565b604082019050919050565b6000602082019050818103600083015261477081614734565b9050919050565b600061478282613b8c565b915061478d83613b8c565b92508261ffff038211156147a4576147a3614275565b5b828201905092915050565b60008160011c9050919050565b6000808291508390505b6001851115614806578086048111156147e2576147e1614275565b5b60018516156147f15780820291505b80810290506147ff856147af565b94506147c6565b94509492505050565b60008261481f57600190506148db565b8161482d57600090506148db565b8160018114614843576002811461484d5761487c565b60019150506148db565b60ff84111561485f5761485e614275565b5b8360020a91508482111561487657614875614275565b5b506148db565b5060208310610133831016604e8410600b84101617156148b15782820a9050838111156148ac576148ab614275565b5b6148db565b6148be84848460016147bc565b925090508184048111156148d5576148d4614275565b5b81810290505b9392505050565b60006148ed82613582565b91506148f883613b70565b92506149257fffffffffffffffffffffffffffffffffffffffffffffffffffffffffffffffff848461480f565b905092915050565b7f4552433732313a206f776e657220717565727920666f72206e6f6e657869737460008201527f656e7420746f6b656e0000000000000000000000000000000000000000000000602082015250565b6000614989602983613706565b91506149948261492d565b604082019050919050565b600060208201905081810360008301526149b88161497c565b9050919050565b7f4552433732313a2062616c616e636520717565727920666f7220746865207a6560008201527f726f206164647265737300000000000000000000000000000000000000000000602082015250565b6000614a1b602a83613706565b9150614a26826149bf565b604082019050919050565b60006020820190508181036000830152614a4a81614a0e565b9050919050565b7f4552433732313a20617070726f766520746f2063616c6c657200000000000000600082015250565b6000614a87601983613706565b9150614a9282614a51565b602082019050919050565b60006020820190508181036000830152614ab681614a7a565b9050919050565b600081905092915050565b60008190508160005260206000209050919050565b60008154614aea8161434b565b614af48186614abd565b94506001821660008114614b0f5760018114614b2057614b53565b60ff19831686528186019350614b53565b614b2985614ac8565b60005b83811015614b4b57815481890152600182019150602081019050614b2c565b838801955050505b50505092915050565b6000614b67826136fb565b614b718185614abd565b9350614b81818560208601613717565b80840191505092915050565b6000614b998285614add565b9150614ba58284614b5c565b91508190509392505050565b7f4f776e61626c653a206e6577206f776e657220697320746865207a65726f206160008201527f6464726573730000000000000000000000000000000000000000000000000000602082015250565b6000614c0d602683613706565b9150614c1882614bb1565b604082019050919050565b60006020820190508181036000830152614c3c81614c00565b9050919050565b7f4e6f74206f776e65720000000000000000000000000000000000000000000000600082015250565b6000614c79600983613706565b9150614c8482614c43565b602082019050919050565b60006020820190508181036000830152614ca881614c6c565b9050919050565b60008160601b9050919050565b6000614cc782614caf565b9050919050565b6000614cd982614cbc565b9050919050565b614cf1614cec826134eb565b614cce565b82525050565b6000614d038284614ce0565b60148201915081905092915050565b7f4e487b7100000000000000000000000000000000000000000000000000000000600052601260045260246000fd5b6000614d4c82613582565b9150614d5783613582565b925082614d6757614d66614d12565b5b828204905092915050565b6000614d7d826134cb565b9050919050565b6000614d8f82614cbc565b9050919050565b614da7614da282614d72565b614d84565b82525050565b6000614db98284614d96565b60148201915081905092915050565b6000819050919050565b614de3614dde82613582565b614dc8565b82525050565b6000614df58284614dd2565b60208201915081905092915050565b6000614e0f82613b70565b9150614e1a83613b70565b92508260ff03821115614e3057614e2f614275565b5b828201905092915050565b6000614e4682613582565b9150614e5183613582565b9250817fffffffffffffffffffffffffffffffffffffffffffffffffffffffffffffffff0483118215151615614e8a57614e89614275565b5b828202905092915050565b6000614ea082613582565b9150614eab83613582565b925082821015614ebe57614ebd614275565b5b828203905092915050565b7f45524337323155524953746f726167653a2055524920736574206f66206e6f6e60008201527f6578697374656e7420746f6b656e000000000000000000000000000000000000602082015250565b6000614f25602e83613706565b9150614f3082614ec9565b604082019050919050565b60006020820190508181036000830152614f5481614f18565b9050919050565b7f4552433732313a206f70657261746f7220717565727920666f72206e6f6e657860008201527f697374656e7420746f6b656e0000000000000000000000000000000000000000602082015250565b6000614fb7602c83613706565b9150614fc282614f5b565b604082019050919050565b60006020820190508181036000830152614fe681614faa565b9050919050565b7f4552433732313a207472616e73666572206f6620746f6b656e2074686174206960008201527f73206e6f74206f776e0000000000000000000000000000000000000000000000602082015250565b6000615049602983613706565b915061505482614fed565b604082019050919050565b600060208201905081810360008301526150788161503c565b9050919050565b7f4552433732313a207472616e7366657220746f20746865207a65726f2061646460008201527f7265737300000000000000000000000000000000000000000000000000000000602082015250565b60006150db602483613706565b91506150e68261507f565b604082019050919050565b6000602082019050818103600083015261510a816150ce565b9050919050565b7f4552433732313a207472616e7366657220746f206e6f6e20455243373231526560008201527f63656976657220696d706c656d656e7465720000000000000000000000000000602082015250565b600061516d603283613706565b915061517882615111565b604082019050919050565b6000602082019050818103600083015261519c81615160565b9050919050565b7f45524337323155524953746f726167653a2055524920717565727920666f722060008201527f6e6f6e6578697374656e7420746f6b656e000000000000000000000000000000602082015250565b60006151ff603183613706565b915061520a826151a3565b604082019050919050565b6000602082019050818103600083015261522e816151f2565b9050919050565b60006152418285614b5c565b915061524d8284614b5c565b91508190509392505050565b600081519050919050565b600082825260208201905092915050565b600061528082615259565b61528a8185615264565b935061529a818560208601613717565b6152a38161374a565b840191505092915050565b60006080820190506152c3600083018761380f565b6152d0602083018661380f565b6152dd6040830185613e76565b81810360608301526152ef8184615275565b905095945050505050565b6000815190506153098161366c565b92915050565b600060208284031215615325576153246134c1565b5b6000615333848285016152fa565b91505092915050565b7f4552433732314d657461646174613a2055524920717565727920666f72206e6f60008201527f6e6578697374656e7420746f6b656e0000000000000000000000000000000000602082015250565b6000615398602f83613706565b91506153a38261533c565b604082019050919050565b600060208201905081810360008301526153c78161538b565b9050919050565b7f4552433732313a206d696e7420746f20746865207a65726f2061646472657373600082015250565b6000615404602083613706565b915061540f826153ce565b602082019050919050565b60006020820190508181036000830152615433816153f7565b9050919050565b7f4552433732313a20746f6b656e20616c7265616479206d696e74656400000000600082015250565b6000615470601c83613706565b915061547b8261543a565b602082019050919050565b6000602082019050818103600083015261549f81615463565b9050919050565b60006154b182613582565b91506154bc83613582565b9250826154cc576154cb614d12565b5b82820690509291505056fea2646970667358221220001aee64d0e6d77203ae2f2dd0c57f61d232083c53a741311ca0a52c54ee9d0564736f6c63430008090033",
  "immutableReferences": {},
  "source": "pragma solidity 0.8.9;\n\nimport \"../node_modules/@openzeppelin/contracts/token/ERC721/extensions/ERC721URIStorage.sol\";\nimport \"../node_modules/@openzeppelin/contracts/utils/Counters.sol\";\nimport \"../node_modules/@openzeppelin/contracts/access/Ownable.sol\";\n\ncontract GameToken is ERC721URIStorage, Ownable {\n    event HeroLevelUp(uint256 indexed tokenId, uint8 indexed level);\n    event NewCurrXP(uint256 indexed tokenId, uint16 indexed currXP);\n\n    using Counters for Counters.Counter;\n    Counters.Counter private _currentHeroId;\n\n    address public _battleAddress;\n    address public _itemShopAddress;\n\n    enum HeroType {\n        FIGHTER,\n        ROGUE,\n        MAGE,\n        TANK\n    }\n    enum HeroRarity {\n        COMMON,\n        UNCOMMON,\n        RARE,\n        LEGENDARY\n    }\n\n    struct Hero {\n        string name;\n        HeroType heroType;\n        HeroRarity rarity;\n        uint8 str;\n        uint8 con;\n        uint8 dex;\n        uint8 wis;\n        uint8 level;\n        uint16 currXP;\n    }\n\n    struct HeroDTO {\n        string name;\n        HeroType heroType;\n        HeroRarity rarity;\n        uint8 str;\n        uint8 con;\n        uint8 dex;\n        uint8 wis;\n        uint8 level;\n        uint16 currXP;\n        address owner;\n        string tokenURI;\n    }\n\n    Hero[] private _heroes;\n\n    string private _baseTokenURI;\n\n    mapping(HeroType => uint8[]) private _mapMint;\n\n    constructor(\n        string memory name,\n        string memory symbol,\n        string memory baseTokenURI\n    ) ERC721(name, symbol) {\n        _baseTokenURI = baseTokenURI;\n\n        _mapMint[HeroType.FIGHTER] = [0, 1, 0, 2, 3, 1];\n        _mapMint[HeroType.ROGUE] = [2, 2, 0, 3, 0, 2];\n        _mapMint[HeroType.MAGE] = [3, 3, 2, 1, 0, 3];\n        _mapMint[HeroType.TANK] = [1, 1, 0, 2, 3, 1];\n    }\n\n    function setBattleAddress(address _newBattleAddress) public onlyOwner {\n        _battleAddress = _newBattleAddress;\n    }\n\n    function setItemShopAddress(address _newItemShopAddress) public onlyOwner {\n        _itemShopAddress = _newItemShopAddress;\n    }\n\n    function getHeroes() external view returns (Hero[] memory) {\n        return _heroes;\n    }\n\n    function getNextHeroId() external view returns (uint256) {\n        return _currentHeroId.current();\n    }\n\n    function mint(\n        HeroType _heroType,\n        HeroRarity _heroRarity,\n        string memory _tokenURI\n    ) public onlyOwner {\n        uint256 newHeroId = _currentHeroId.current();\n\n        uint8 minAttr;\n        uint8 maxAttr;\n\n        if (_heroRarity == HeroRarity.COMMON) {\n            minAttr = 4;\n            maxAttr = 6;\n        } else if (_heroRarity == HeroRarity.UNCOMMON) {\n            minAttr = 7;\n            maxAttr = 8;\n        } else if (_heroRarity == HeroRarity.RARE) {\n            minAttr = 9;\n            maxAttr = 10;\n        } else {\n            minAttr = 11;\n            maxAttr = 12;\n        }\n\n        uint256 attrsSize = rand(maxAttr - minAttr) + minAttr;\n\n        uint8[] memory attrs = new uint8[](4);\n        attrs[0] = 1;\n        attrs[1] = 1;\n        attrs[2] = 1;\n        attrs[3] = 1;\n        uint8 attrCounter = 0;\n\n        for (uint8 i = 1; i <= attrsSize; i++) {\n            attrs[_mapMint[_heroType][attrCounter]]++;\n            if (attrCounter == 5) {\n                attrCounter = 0;\n            } else {\n                attrCounter++;\n            }\n        }\n\n        _safeMint(msg.sender, newHeroId);\n        _setTokenURI(newHeroId, _tokenURI);\n        _heroes.push(\n            Hero(\n                \"\",\n                _heroType,\n                _heroRarity,\n                attrs[0],\n                attrs[1],\n                attrs[2],\n                attrs[3],\n                1,\n                0\n            )\n        );\n\n        _currentHeroId.increment();\n    }\n\n    function getHeroesByAddress(address owner)\n        public\n        view\n        returns (uint256[] memory)\n    {\n        uint256 heroCount = balanceOf(owner);\n\n        if (heroCount == 0) {\n            return new uint256[](0);\n        } else {\n            uint256[] memory ret = new uint256[](heroCount);\n            uint256 i;\n            uint256 curIndex = 0;\n\n            for (i = 0; i < _currentHeroId.current(); i++) {\n                if (ownerOf(i) == owner) {\n                    ret[curIndex++] = i;\n                }\n            }\n\n            return ret;\n        }\n    }\n\n    function getMyHeroes() external view returns (uint256[] memory) {\n        return getHeroesByAddress(msg.sender);\n    }\n\n    function getHero(uint256 _heroId) external view returns (Hero memory) {\n        return _heroes[_heroId];\n    }\n\n    function getHeroComplete(uint256 _heroId)\n        external\n        view\n        returns (HeroDTO memory)\n    {\n        Hero memory h = _heroes[_heroId];\n\n        return\n            HeroDTO(\n                h.name,\n                h.heroType,\n                h.rarity,\n                h.str,\n                h.con,\n                h.dex,\n                h.wis,\n                h.level,\n                h.currXP,\n                ownerOf(_heroId),\n                tokenURI(_heroId)\n            );\n    }\n\n    function setName(uint256 _heroId, string memory _name) external {\n        require(msg.sender == ownerOf(_heroId), \"Not owner\");\n        Hero storage hero = _heroes[_heroId];\n\n        hero.name = _name;\n    }\n\n    function levelUp(uint256 _heroId, uint16 _xp) external {\n        require(\n            msg.sender == _battleAddress || msg.sender == _itemShopAddress,\n            \"Only battle or item shop contract can execute it\"\n        );\n\n        Hero storage hero = _heroes[_heroId];\n\n        hero.currXP += _xp;\n\n        emit NewCurrXP(_heroId, hero.currXP);\n\n        if (hero.currXP >= 2**hero.level) {\n            hero.level++;\n            hero.currXP = 0;\n\n            uint256 random = rand(3);\n\n            if (random == 0) {\n                hero.str++;\n            } else if (random == 1) {\n                hero.con++;\n            } else if (random == 2) {\n                hero.dex++;\n            } else if (random == 3) {\n                hero.wis++;\n            }\n\n            emit HeroLevelUp(_heroId, hero.level);\n        }\n    }\n\n    function rand(uint8 limit) private view returns (uint256) {\n        uint256 seed = uint256(\n            keccak256(\n                abi.encodePacked(\n                    block.timestamp +\n                        block.difficulty +\n                        ((\n                            uint256(keccak256(abi.encodePacked(block.coinbase)))\n                        ) / (block.timestamp)) +\n                        block.gaslimit +\n                        ((uint256(keccak256(abi.encodePacked(msg.sender)))) /\n                            (block.timestamp)) +\n                        block.number\n                )\n            )\n        );\n\n        return (seed - ((seed / (limit + 1)) * (limit + 1)));\n    }\n\n    function tokenURI(uint256 tokenId)\n        public\n        view\n        virtual\n        override\n        returns (string memory)\n    {\n        return string(abi.encodePacked(_baseTokenURI, super.tokenURI(tokenId)));\n    }\n}\n",
  "sourcePath": "/home/rfaita/game/nft-game/contract/contracts/GameToken.sol",
  "compiler": {
    "name": "solc",
    "version": "0.8.9+commit.e5eed63a.Emscripten.clang"
  },
  "schemaVersion": "3.4.3",
  "updatedAt": "2021-11-24T20:58:48.416Z",
  "networkType": "ethereum",
  "devdoc": {
    "kind": "dev",
    "methods": {
      "approve(address,uint256)": {
        "details": "See {IERC721-approve}."
      },
      "balanceOf(address)": {
        "details": "See {IERC721-balanceOf}."
      },
      "getApproved(uint256)": {
        "details": "See {IERC721-getApproved}."
      },
      "isApprovedForAll(address,address)": {
        "details": "See {IERC721-isApprovedForAll}."
      },
      "name()": {
        "details": "See {IERC721Metadata-name}."
      },
      "owner()": {
        "details": "Returns the address of the current owner."
      },
      "ownerOf(uint256)": {
        "details": "See {IERC721-ownerOf}."
      },
      "renounceOwnership()": {
        "details": "Leaves the contract without owner. It will not be possible to call `onlyOwner` functions anymore. Can only be called by the current owner. NOTE: Renouncing ownership will leave the contract without an owner, thereby removing any functionality that is only available to the owner."
      },
      "safeTransferFrom(address,address,uint256)": {
        "details": "See {IERC721-safeTransferFrom}."
      },
      "safeTransferFrom(address,address,uint256,bytes)": {
        "details": "See {IERC721-safeTransferFrom}."
      },
      "setApprovalForAll(address,bool)": {
        "details": "See {IERC721-setApprovalForAll}."
      },
      "supportsInterface(bytes4)": {
        "details": "See {IERC165-supportsInterface}."
      },
      "symbol()": {
        "details": "See {IERC721Metadata-symbol}."
      },
      "tokenURI(uint256)": {
        "details": "See {IERC721Metadata-tokenURI}."
      },
      "transferFrom(address,address,uint256)": {
        "details": "See {IERC721-transferFrom}."
      },
      "transferOwnership(address)": {
        "details": "Transfers ownership of the contract to a new account (`newOwner`). Can only be called by the current owner."
      }
    },
    "version": 1
  },
  "userdoc": {
    "kind": "user",
    "methods": {},
    "version": 1
  }
}