{
  "contractName": "GameToken",
  "abi": [
    {
      "inputs": [
        {
          "internalType": "string",
          "name": "name",
          "type": "string"
        },
        {
          "internalType": "string",
          "name": "symbol",
          "type": "string"
        },
        {
          "internalType": "string",
          "name": "baseTokenURI",
          "type": "string"
        }
      ],
      "stateMutability": "nonpayable",
      "type": "constructor"
    },
    {
      "anonymous": false,
      "inputs": [
        {
          "indexed": true,
          "internalType": "address",
          "name": "owner",
          "type": "address"
        },
        {
          "indexed": true,
          "internalType": "address",
          "name": "approved",
          "type": "address"
        },
        {
          "indexed": true,
          "internalType": "uint256",
          "name": "tokenId",
          "type": "uint256"
        }
      ],
      "name": "Approval",
      "type": "event"
    },
    {
      "anonymous": false,
      "inputs": [
        {
          "indexed": true,
          "internalType": "address",
          "name": "owner",
          "type": "address"
        },
        {
          "indexed": true,
          "internalType": "address",
          "name": "operator",
          "type": "address"
        },
        {
          "indexed": false,
          "internalType": "bool",
          "name": "approved",
          "type": "bool"
        }
      ],
      "name": "ApprovalForAll",
      "type": "event"
    },
    {
      "anonymous": false,
      "inputs": [
        {
          "indexed": true,
          "internalType": "uint256",
          "name": "tokenId",
          "type": "uint256"
        },
        {
          "indexed": true,
          "internalType": "uint8",
          "name": "level",
          "type": "uint8"
        }
      ],
      "name": "HeroLevelUp",
      "type": "event"
    },
    {
      "anonymous": false,
      "inputs": [
        {
          "indexed": true,
          "internalType": "address",
          "name": "previousOwner",
          "type": "address"
        },
        {
          "indexed": true,
          "internalType": "address",
          "name": "newOwner",
          "type": "address"
        }
      ],
      "name": "OwnershipTransferred",
      "type": "event"
    },
    {
      "anonymous": false,
      "inputs": [
        {
          "indexed": true,
          "internalType": "address",
          "name": "from",
          "type": "address"
        },
        {
          "indexed": true,
          "internalType": "address",
          "name": "to",
          "type": "address"
        },
        {
          "indexed": true,
          "internalType": "uint256",
          "name": "tokenId",
          "type": "uint256"
        }
      ],
      "name": "Transfer",
      "type": "event"
    },
    {
      "inputs": [],
      "name": "_battleAddress",
      "outputs": [
        {
          "internalType": "address",
          "name": "",
          "type": "address"
        }
      ],
      "stateMutability": "view",
      "type": "function",
      "constant": true
    },
    {
      "inputs": [],
      "name": "_itemShopAddress",
      "outputs": [
        {
          "internalType": "address",
          "name": "",
          "type": "address"
        }
      ],
      "stateMutability": "view",
      "type": "function",
      "constant": true
    },
    {
      "inputs": [
        {
          "internalType": "address",
          "name": "to",
          "type": "address"
        },
        {
          "internalType": "uint256",
          "name": "tokenId",
          "type": "uint256"
        }
      ],
      "name": "approve",
      "outputs": [],
      "stateMutability": "nonpayable",
      "type": "function"
    },
    {
      "inputs": [
        {
          "internalType": "address",
          "name": "owner",
          "type": "address"
        }
      ],
      "name": "balanceOf",
      "outputs": [
        {
          "internalType": "uint256",
          "name": "",
          "type": "uint256"
        }
      ],
      "stateMutability": "view",
      "type": "function",
      "constant": true
    },
    {
      "inputs": [
        {
          "internalType": "uint256",
          "name": "tokenId",
          "type": "uint256"
        }
      ],
      "name": "getApproved",
      "outputs": [
        {
          "internalType": "address",
          "name": "",
          "type": "address"
        }
      ],
      "stateMutability": "view",
      "type": "function",
      "constant": true
    },
    {
      "inputs": [
        {
          "internalType": "address",
          "name": "owner",
          "type": "address"
        },
        {
          "internalType": "address",
          "name": "operator",
          "type": "address"
        }
      ],
      "name": "isApprovedForAll",
      "outputs": [
        {
          "internalType": "bool",
          "name": "",
          "type": "bool"
        }
      ],
      "stateMutability": "view",
      "type": "function",
      "constant": true
    },
    {
      "inputs": [],
      "name": "name",
      "outputs": [
        {
          "internalType": "string",
          "name": "",
          "type": "string"
        }
      ],
      "stateMutability": "view",
      "type": "function",
      "constant": true
    },
    {
      "inputs": [],
      "name": "owner",
      "outputs": [
        {
          "internalType": "address",
          "name": "",
          "type": "address"
        }
      ],
      "stateMutability": "view",
      "type": "function",
      "constant": true
    },
    {
      "inputs": [
        {
          "internalType": "uint256",
          "name": "tokenId",
          "type": "uint256"
        }
      ],
      "name": "ownerOf",
      "outputs": [
        {
          "internalType": "address",
          "name": "",
          "type": "address"
        }
      ],
      "stateMutability": "view",
      "type": "function",
      "constant": true
    },
    {
      "inputs": [],
      "name": "renounceOwnership",
      "outputs": [],
      "stateMutability": "nonpayable",
      "type": "function"
    },
    {
      "inputs": [
        {
          "internalType": "address",
          "name": "from",
          "type": "address"
        },
        {
          "internalType": "address",
          "name": "to",
          "type": "address"
        },
        {
          "internalType": "uint256",
          "name": "tokenId",
          "type": "uint256"
        }
      ],
      "name": "safeTransferFrom",
      "outputs": [],
      "stateMutability": "nonpayable",
      "type": "function"
    },
    {
      "inputs": [
        {
          "internalType": "address",
          "name": "from",
          "type": "address"
        },
        {
          "internalType": "address",
          "name": "to",
          "type": "address"
        },
        {
          "internalType": "uint256",
          "name": "tokenId",
          "type": "uint256"
        },
        {
          "internalType": "bytes",
          "name": "_data",
          "type": "bytes"
        }
      ],
      "name": "safeTransferFrom",
      "outputs": [],
      "stateMutability": "nonpayable",
      "type": "function"
    },
    {
      "inputs": [
        {
          "internalType": "address",
          "name": "operator",
          "type": "address"
        },
        {
          "internalType": "bool",
          "name": "approved",
          "type": "bool"
        }
      ],
      "name": "setApprovalForAll",
      "outputs": [],
      "stateMutability": "nonpayable",
      "type": "function"
    },
    {
      "inputs": [
        {
          "internalType": "bytes4",
          "name": "interfaceId",
          "type": "bytes4"
        }
      ],
      "name": "supportsInterface",
      "outputs": [
        {
          "internalType": "bool",
          "name": "",
          "type": "bool"
        }
      ],
      "stateMutability": "view",
      "type": "function",
      "constant": true
    },
    {
      "inputs": [],
      "name": "symbol",
      "outputs": [
        {
          "internalType": "string",
          "name": "",
          "type": "string"
        }
      ],
      "stateMutability": "view",
      "type": "function",
      "constant": true
    },
    {
      "inputs": [
        {
          "internalType": "address",
          "name": "from",
          "type": "address"
        },
        {
          "internalType": "address",
          "name": "to",
          "type": "address"
        },
        {
          "internalType": "uint256",
          "name": "tokenId",
          "type": "uint256"
        }
      ],
      "name": "transferFrom",
      "outputs": [],
      "stateMutability": "nonpayable",
      "type": "function"
    },
    {
      "inputs": [
        {
          "internalType": "address",
          "name": "newOwner",
          "type": "address"
        }
      ],
      "name": "transferOwnership",
      "outputs": [],
      "stateMutability": "nonpayable",
      "type": "function"
    },
    {
      "inputs": [
        {
          "internalType": "address",
          "name": "_newBattleAddress",
          "type": "address"
        }
      ],
      "name": "setBattleAddress",
      "outputs": [],
      "stateMutability": "nonpayable",
      "type": "function"
    },
    {
      "inputs": [
        {
          "internalType": "address",
          "name": "_newItemShopAddress",
          "type": "address"
        }
      ],
      "name": "setItemShopAddress",
      "outputs": [],
      "stateMutability": "nonpayable",
      "type": "function"
    },
    {
      "inputs": [],
      "name": "getHeroes",
      "outputs": [
        {
          "components": [
            {
              "internalType": "string",
              "name": "name",
              "type": "string"
            },
            {
              "internalType": "enum GameToken.HeroType",
              "name": "heroType",
              "type": "uint8"
            },
            {
              "internalType": "enum GameToken.HeroRarity",
              "name": "rarity",
              "type": "uint8"
            },
            {
              "internalType": "uint8",
              "name": "str",
              "type": "uint8"
            },
            {
              "internalType": "uint8",
              "name": "con",
              "type": "uint8"
            },
            {
              "internalType": "uint8",
              "name": "dex",
              "type": "uint8"
            },
            {
              "internalType": "uint8",
              "name": "wis",
              "type": "uint8"
            },
            {
              "internalType": "uint8",
              "name": "level",
              "type": "uint8"
            },
            {
              "internalType": "uint16",
              "name": "currXP",
              "type": "uint16"
            }
          ],
          "internalType": "struct GameToken.Hero[]",
          "name": "",
          "type": "tuple[]"
        }
      ],
      "stateMutability": "view",
      "type": "function",
      "constant": true
    },
    {
      "inputs": [],
      "name": "getCurrentHeroId",
      "outputs": [
        {
          "internalType": "uint256",
          "name": "",
          "type": "uint256"
        }
      ],
      "stateMutability": "view",
      "type": "function",
      "constant": true
    },
    {
      "inputs": [
        {
          "internalType": "enum GameToken.HeroType",
          "name": "_heroType",
          "type": "uint8"
        },
        {
          "internalType": "enum GameToken.HeroRarity",
          "name": "_heroRarity",
          "type": "uint8"
        },
        {
          "internalType": "string",
          "name": "_tokenURI",
          "type": "string"
        }
      ],
      "name": "mint",
      "outputs": [],
      "stateMutability": "nonpayable",
      "type": "function"
    },
    {
      "inputs": [
        {
          "internalType": "address",
          "name": "owner",
          "type": "address"
        }
      ],
      "name": "getHeroesByAddress",
      "outputs": [
        {
          "internalType": "uint256[]",
          "name": "",
          "type": "uint256[]"
        }
      ],
      "stateMutability": "view",
      "type": "function",
      "constant": true
    },
    {
      "inputs": [],
      "name": "getMyHeroes",
      "outputs": [
        {
          "internalType": "uint256[]",
          "name": "",
          "type": "uint256[]"
        }
      ],
      "stateMutability": "view",
      "type": "function",
      "constant": true
    },
    {
      "inputs": [
        {
          "internalType": "uint256",
          "name": "_heroId",
          "type": "uint256"
        }
      ],
      "name": "getHero",
      "outputs": [
        {
          "components": [
            {
              "internalType": "string",
              "name": "name",
              "type": "string"
            },
            {
              "internalType": "enum GameToken.HeroType",
              "name": "heroType",
              "type": "uint8"
            },
            {
              "internalType": "enum GameToken.HeroRarity",
              "name": "rarity",
              "type": "uint8"
            },
            {
              "internalType": "uint8",
              "name": "str",
              "type": "uint8"
            },
            {
              "internalType": "uint8",
              "name": "con",
              "type": "uint8"
            },
            {
              "internalType": "uint8",
              "name": "dex",
              "type": "uint8"
            },
            {
              "internalType": "uint8",
              "name": "wis",
              "type": "uint8"
            },
            {
              "internalType": "uint8",
              "name": "level",
              "type": "uint8"
            },
            {
              "internalType": "uint16",
              "name": "currXP",
              "type": "uint16"
            }
          ],
          "internalType": "struct GameToken.Hero",
          "name": "",
          "type": "tuple"
        }
      ],
      "stateMutability": "view",
      "type": "function",
      "constant": true
    },
    {
      "inputs": [
        {
          "internalType": "uint256",
          "name": "_heroId",
          "type": "uint256"
        },
        {
          "internalType": "string",
          "name": "_name",
          "type": "string"
        }
      ],
      "name": "setName",
      "outputs": [],
      "stateMutability": "nonpayable",
      "type": "function"
    },
    {
      "inputs": [
        {
          "internalType": "uint256",
          "name": "_heroId",
          "type": "uint256"
        },
        {
          "internalType": "uint16",
          "name": "_xp",
          "type": "uint16"
        }
      ],
      "name": "levelUp",
      "outputs": [],
      "stateMutability": "nonpayable",
      "type": "function"
    },
    {
      "inputs": [
        {
          "internalType": "uint256",
          "name": "tokenId",
          "type": "uint256"
        }
      ],
      "name": "tokenURI",
      "outputs": [
        {
          "internalType": "string",
          "name": "",
          "type": "string"
        }
      ],
      "stateMutability": "view",
      "type": "function",
      "constant": true
    }
  ],
  "bytecode": "0x60806040523480156200001157600080fd5b5060405162005826380380620058268339818101604052810190620000379190620006c6565b8282816000908051906020019062000051929190620003cb565b5080600190805190602001906200006a929190620003cb565b5050506200008d62000081620002fd60201b60201c565b6200030560201b60201c565b80600c9080519060200190620000a5929190620003cb565b506040518060c00160405280600060ff168152602001600160ff168152602001600060ff168152602001600260ff168152602001600360ff168152602001600160ff16815250600d60008060038111156200010557620001046200077f565b5b60038111156200011a57620001196200077f565b5b8152602001908152602001600020906006620001389291906200045c565b506040518060c00160405280600260ff168152602001600260ff168152602001600060ff168152602001600360ff168152602001600060ff168152602001600260ff16815250600d6000600160038111156200019957620001986200077f565b5b6003811115620001ae57620001ad6200077f565b5b8152602001908152602001600020906006620001cc9291906200045c565b506040518060c00160405280600360ff168152602001600360ff168152602001600260ff168152602001600160ff168152602001600060ff168152602001600360ff16815250600d6000600260038111156200022d576200022c6200077f565b5b60038111156200024257620002416200077f565b5b8152602001908152602001600020906006620002609291906200045c565b506040518060c00160405280600160ff168152602001600160ff168152602001600060ff168152602001600260ff168152602001600360ff168152602001600160ff16815250600d6000600380811115620002c057620002bf6200077f565b5b6003811115620002d557620002d46200077f565b5b8152602001908152602001600020906006620002f39291906200045c565b5050505062000813565b600033905090565b6000600760009054906101000a900473ffffffffffffffffffffffffffffffffffffffff16905081600760006101000a81548173ffffffffffffffffffffffffffffffffffffffff021916908373ffffffffffffffffffffffffffffffffffffffff1602179055508173ffffffffffffffffffffffffffffffffffffffff168173ffffffffffffffffffffffffffffffffffffffff167f8be0079c531659141344cd1fd0a4f28419497f9722a3daafe3b4186f6b6457e060405160405180910390a35050565b828054620003d990620007dd565b90600052602060002090601f016020900481019282620003fd576000855562000449565b82601f106200041857805160ff191683800117855562000449565b8280016001018555821562000449579182015b82811115620004485782518255916020019190600101906200042b565b5b5090506200045891906200050a565b5090565b82805482825590600052602060002090601f01602090048101928215620004f75791602002820160005b83821115620004c657835183826101000a81548160ff021916908360ff160217905550926020019260010160208160000104928301926001030262000486565b8015620004f55782816101000a81549060ff0219169055600101602081600001049283019260010302620004c6565b505b5090506200050691906200050a565b5090565b5b80821115620005255760008160009055506001016200050b565b5090565b6000604051905090565b600080fd5b600080fd5b600080fd5b600080fd5b6000601f19601f8301169050919050565b7f4e487b7100000000000000000000000000000000000000000000000000000000600052604160045260246000fd5b620005928262000547565b810181811067ffffffffffffffff82111715620005b457620005b362000558565b5b80604052505050565b6000620005c962000529565b9050620005d7828262000587565b919050565b600067ffffffffffffffff821115620005fa57620005f962000558565b5b620006058262000547565b9050602081019050919050565b60005b838110156200063257808201518184015260208101905062000615565b8381111562000642576000848401525b50505050565b60006200065f6200065984620005dc565b620005bd565b9050828152602081018484840111156200067e576200067d62000542565b5b6200068b84828562000612565b509392505050565b600082601f830112620006ab57620006aa6200053d565b5b8151620006bd84826020860162000648565b91505092915050565b600080600060608486031215620006e257620006e162000533565b5b600084015167ffffffffffffffff81111562000703576200070262000538565b5b620007118682870162000693565b935050602084015167ffffffffffffffff81111562000735576200073462000538565b5b620007438682870162000693565b925050604084015167ffffffffffffffff81111562000767576200076662000538565b5b620007758682870162000693565b9150509250925092565b7f4e487b7100000000000000000000000000000000000000000000000000000000600052602160045260246000fd5b7f4e487b7100000000000000000000000000000000000000000000000000000000600052602260045260246000fd5b60006002820490506001821680620007f657607f821691505b602082108114156200080d576200080c620007ae565b5b50919050565b61500380620008236000396000f3fe608060405234801561001057600080fd5b50600436106101c35760003560e01c806370a08231116100f9578063a22cb46511610097578063c87b56dd11610071578063c87b56dd146104de578063e985e9c51461050e578063f2fde38b1461053e578063fe55932a1461055a576101c3565b8063a22cb4651461048a578063b88d4fde146104a6578063c721b34b146104c2576101c3565b8063806f5283116100d3578063806f5283146104125780638da5cb5b1461043057806395d89b411461044e5780639a8d28821461046c576101c3565b806370a08231146103ba578063715018a6146103ea57806376139393146103f4576101c3565b806323b872dd11610166578063484a203211610140578063484a203214610334578063518dec2c146103505780636352211e1461036c5780636d8411b01461039c576101c3565b806323b872dd146102de57806329c79449146102fa57806342842e0e14610318576101c3565b8063081812fc116101a2578063081812fc14610246578063095ea7b31461027657806310d44ae01461029257806321d80111146102ae576101c3565b80625597e3146101c857806301ffc9a7146101f857806306fdde0314610228575b600080fd5b6101e260048036038101906101dd9190613146565b610576565b6040516101ef919061323b565b60405180910390f35b610212600480360381019061020d91906132b5565b6106d3565b60405161021f91906132fd565b60405180910390f35b6102306107b5565b60405161023d91906133b1565b60405180910390f35b610260600480360381019061025b91906133ff565b610847565b60405161026d919061343b565b60405180910390f35b610290600480360381019061028b9190613456565b6108cc565b005b6102ac60048036038101906102a79190613615565b6109e4565b005b6102c860048036038101906102c391906133ff565b610fc0565b6040516102d5919061388b565b60405180910390f35b6102f860048036038101906102f391906138ad565b6111b6565b005b610302611216565b60405161030f919061343b565b60405180910390f35b610332600480360381019061032d91906138ad565b61123c565b005b61034e6004803603810190610349919061392c565b61125c565b005b61036a60048036038101906103659190613146565b6115bb565b005b610386600480360381019061038191906133ff565b61167b565b604051610393919061343b565b60405180910390f35b6103a461172d565b6040516103b1919061397b565b60405180910390f35b6103d460048036038101906103cf9190613146565b61173e565b6040516103e1919061397b565b60405180910390f35b6103f26117f6565b005b6103fc61187e565b604051610409919061343b565b60405180910390f35b61041a6118a4565b604051610427919061323b565b60405180910390f35b6104386118b4565b604051610445919061343b565b60405180910390f35b6104566118de565b60405161046391906133b1565b60405180910390f35b610474611970565b6040516104819190613b1d565b60405180910390f35b6104a4600480360381019061049f9190613b6b565b611b89565b005b6104c060048036038101906104bb9190613c4c565b611d0a565b005b6104dc60048036038101906104d79190613146565b611d6c565b005b6104f860048036038101906104f391906133ff565b611e2c565b60405161050591906133b1565b60405180910390f35b61052860048036038101906105239190613ccf565b611e60565b60405161053591906132fd565b60405180910390f35b61055860048036038101906105539190613146565b611ef4565b005b610574600480360381019061056f9190613d0f565b611fec565b005b606060006105838361173e565b905060008114156105e057600067ffffffffffffffff8111156105a9576105a86134ea565b5b6040519080825280602002602001820160405280156105d75781602001602082028036833780820191505090505b509150506106ce565b60008167ffffffffffffffff8111156105fc576105fb6134ea565b5b60405190808252806020026020018201604052801561062a5781602001602082028036833780820191505090505b50905060008060009050600091505b61064360086120a6565b8210156106c6578573ffffffffffffffffffffffffffffffffffffffff1661066a8361167b565b73ffffffffffffffffffffffffffffffffffffffff1614156106b3578183828061069390613d9a565b9350815181106106a6576106a5613de3565b5b6020026020010181815250505b81806106be90613d9a565b925050610639565b829450505050505b919050565b60007f80ac58cd000000000000000000000000000000000000000000000000000000007bffffffffffffffffffffffffffffffffffffffffffffffffffffffff1916827bffffffffffffffffffffffffffffffffffffffffffffffffffffffff1916148061079e57507f5b5e139f000000000000000000000000000000000000000000000000000000007bffffffffffffffffffffffffffffffffffffffffffffffffffffffff1916827bffffffffffffffffffffffffffffffffffffffffffffffffffffffff1916145b806107ae57506107ad826120b4565b5b9050919050565b6060600080546107c490613e41565b80601f01602080910402602001604051908101604052809291908181526020018280546107f090613e41565b801561083d5780601f106108125761010080835404028352916020019161083d565b820191906000526020600020905b81548152906001019060200180831161082057829003601f168201915b5050505050905090565b60006108528261211e565b610891576040517f08c379a000000000000000000000000000000000000000000000000000000000815260040161088890613ee5565b60405180910390fd5b6004600083815260200190815260200160002060009054906101000a900473ffffffffffffffffffffffffffffffffffffffff169050919050565b60006108d78261167b565b90508073ffffffffffffffffffffffffffffffffffffffff168373ffffffffffffffffffffffffffffffffffffffff161415610948576040517f08c379a000000000000000000000000000000000000000000000000000000000815260040161093f90613f77565b60405180910390fd5b8073ffffffffffffffffffffffffffffffffffffffff1661096761218a565b73ffffffffffffffffffffffffffffffffffffffff16148061099657506109958161099061218a565b611e60565b5b6109d5576040517f08c379a00000000000000000000000000000000000000000000000000000000081526004016109cc90614009565b60405180910390fd5b6109df8383612192565b505050565b6109ec61218a565b73ffffffffffffffffffffffffffffffffffffffff16610a0a6118b4565b73ffffffffffffffffffffffffffffffffffffffff1614610a60576040517f08c379a0000000000000000000000000000000000000000000000000000000008152600401610a5790614075565b60405180910390fd5b6000610a6c60086120a6565b905060008060006003811115610a8557610a846136ce565b5b856003811115610a9857610a976136ce565b5b1415610aab576004915060069050610b2a565b60016003811115610abf57610abe6136ce565b5b856003811115610ad257610ad16136ce565b5b1415610ae5576007915060089050610b29565b60026003811115610af957610af86136ce565b5b856003811115610b0c57610b0b6136ce565b5b1415610b1f5760099150600a9050610b28565b600b9150600c90505b5b5b60008260ff16610b448484610b3f9190614095565b61224b565b610b4e91906140c9565b90506000600467ffffffffffffffff811115610b6d57610b6c6134ea565b5b604051908082528060200260200182016040528015610b9b5781602001602082028036833780820191505090505b509050600181600081518110610bb457610bb3613de3565b5b602002602001019060ff16908160ff1681525050600181600181518110610bde57610bdd613de3565b5b602002602001019060ff16908160ff1681525050600181600281518110610c0857610c07613de3565b5b602002602001019060ff16908160ff1681525050600181600381518110610c3257610c31613de3565b5b602002602001019060ff16908160ff1681525050600080600190505b838160ff1611610d2f5782600d60008c6003811115610c7057610c6f6136ce565b5b6003811115610c8257610c816136ce565b5b81526020019081526020016000208360ff1681548110610ca557610ca4613de3565b5b90600052602060002090602091828204019190069054906101000a900460ff1660ff1681518110610cd957610cd8613de3565b5b602002602001018051809190610cee9061411f565b60ff1660ff168152505060058260ff161415610d0d5760009150610d1c565b8180610d189061411f565b9250505b8080610d279061411f565b915050610c4e565b50610d3a3387612361565b610d44868861237f565b600b6040518061012001604052806040518060200160405280600081525081526020018b6003811115610d7a57610d796136ce565b5b81526020018a6003811115610d9257610d916136ce565b5b815260200184600081518110610dab57610daa613de3565b5b602002602001015160ff16815260200184600181518110610dcf57610dce613de3565b5b602002602001015160ff16815260200184600281518110610df357610df2613de3565b5b602002602001015160ff16815260200184600381518110610e1757610e16613de3565b5b602002602001015160ff168152602001600160ff168152602001600061ffff1681525090806001815401808255809150506001900390600052602060002090600202016000909190919091506000820151816000019080519060200190610e7f929190612fae565b5060208201518160010160006101000a81548160ff02191690836003811115610eab57610eaa6136ce565b5b021790555060408201518160010160016101000a81548160ff02191690836003811115610edb57610eda6136ce565b5b021790555060608201518160010160026101000a81548160ff021916908360ff16021790555060808201518160010160036101000a81548160ff021916908360ff16021790555060a08201518160010160046101000a81548160ff021916908360ff16021790555060c08201518160010160056101000a81548160ff021916908360ff16021790555060e08201518160010160066101000a81548160ff021916908360ff1602179055506101008201518160010160076101000a81548161ffff021916908361ffff1602179055505050610fb560086123f3565b505050505050505050565b610fc8613034565b600b8281548110610fdc57610fdb613de3565b5b90600052602060002090600202016040518061012001604052908160008201805461100690613e41565b80601f016020809104026020016040519081016040528092919081815260200182805461103290613e41565b801561107f5780601f106110545761010080835404028352916020019161107f565b820191906000526020600020905b81548152906001019060200180831161106257829003601f168201915b505050505081526020016001820160009054906101000a900460ff1660038111156110ad576110ac6136ce565b5b60038111156110bf576110be6136ce565b5b81526020016001820160019054906101000a900460ff1660038111156110e8576110e76136ce565b5b60038111156110fa576110f96136ce565b5b81526020016001820160029054906101000a900460ff1660ff1660ff1681526020016001820160039054906101000a900460ff1660ff1660ff1681526020016001820160049054906101000a900460ff1660ff1660ff1681526020016001820160059054906101000a900460ff1660ff1660ff1681526020016001820160069054906101000a900460ff1660ff1660ff1681526020016001820160079054906101000a900461ffff1661ffff1661ffff16815250509050919050565b6111c76111c161218a565b82612409565b611206576040517f08c379a00000000000000000000000000000000000000000000000000000000081526004016111fd906141bb565b60405180910390fd5b6112118383836124e7565b505050565b600a60009054906101000a900473ffffffffffffffffffffffffffffffffffffffff1681565b61125783838360405180602001604052806000815250611d0a565b505050565b600960009054906101000a900473ffffffffffffffffffffffffffffffffffffffff1673ffffffffffffffffffffffffffffffffffffffff163373ffffffffffffffffffffffffffffffffffffffff1614806113055750600a60009054906101000a900473ffffffffffffffffffffffffffffffffffffffff1673ffffffffffffffffffffffffffffffffffffffff163373ffffffffffffffffffffffffffffffffffffffff16145b611344576040517f08c379a000000000000000000000000000000000000000000000000000000000815260040161133b9061424d565b60405180910390fd5b6000600b838154811061135a57611359613de3565b5b90600052602060002090600202019050818160010160078282829054906101000a900461ffff1661138b919061426d565b92506101000a81548161ffff021916908361ffff16021790555060018160010160069054906101000a900460ff166113c391906142a5565b60026113cf919061440f565b8160010160079054906101000a900461ffff1661ffff16106115b65780600101600681819054906101000a900460ff168092919061140c9061411f565b91906101000a81548160ff021916908360ff1602179055505060008160010160076101000a81548161ffff021916908361ffff1602179055506000611451600361224b565b9050600081141561149b5781600101600281819054906101000a900460ff168092919061147d9061411f565b91906101000a81548160ff021916908360ff16021790555050611572565b60018114156114e35781600101600381819054906101000a900460ff16809291906114c59061411f565b91906101000a81548160ff021916908360ff16021790555050611571565b600281141561152b5781600101600481819054906101000a900460ff168092919061150d9061411f565b91906101000a81548160ff021916908360ff16021790555050611570565b600381141561156f5781600101600581819054906101000a900460ff16809291906115559061411f565b91906101000a81548160ff021916908360ff160217905550505b5b5b5b8160010160069054906101000a900460ff1660ff16847fad739759ba8930019bd1c3be6ed5fcd01b01d8281b167965f3268c8995a69c6160405160405180910390a3505b505050565b6115c361218a565b73ffffffffffffffffffffffffffffffffffffffff166115e16118b4565b73ffffffffffffffffffffffffffffffffffffffff1614611637576040517f08c379a000000000000000000000000000000000000000000000000000000000815260040161162e90614075565b60405180910390fd5b80600a60006101000a81548173ffffffffffffffffffffffffffffffffffffffff021916908373ffffffffffffffffffffffffffffffffffffffff16021790555050565b6000806002600084815260200190815260200160002060009054906101000a900473ffffffffffffffffffffffffffffffffffffffff169050600073ffffffffffffffffffffffffffffffffffffffff168173ffffffffffffffffffffffffffffffffffffffff161415611724576040517f08c379a000000000000000000000000000000000000000000000000000000000815260040161171b906144cc565b60405180910390fd5b80915050919050565b600061173960086120a6565b905090565b60008073ffffffffffffffffffffffffffffffffffffffff168273ffffffffffffffffffffffffffffffffffffffff1614156117af576040517f08c379a00000000000000000000000000000000000000000000000000000000081526004016117a69061455e565b60405180910390fd5b600360008373ffffffffffffffffffffffffffffffffffffffff1673ffffffffffffffffffffffffffffffffffffffff168152602001908152602001600020549050919050565b6117fe61218a565b73ffffffffffffffffffffffffffffffffffffffff1661181c6118b4565b73ffffffffffffffffffffffffffffffffffffffff1614611872576040517f08c379a000000000000000000000000000000000000000000000000000000000815260040161186990614075565b60405180910390fd5b61187c6000612743565b565b600960009054906101000a900473ffffffffffffffffffffffffffffffffffffffff1681565b60606118af33610576565b905090565b6000600760009054906101000a900473ffffffffffffffffffffffffffffffffffffffff16905090565b6060600180546118ed90613e41565b80601f016020809104026020016040519081016040528092919081815260200182805461191990613e41565b80156119665780601f1061193b57610100808354040283529160200191611966565b820191906000526020600020905b81548152906001019060200180831161194957829003601f168201915b5050505050905090565b6060600b805480602002602001604051908101604052809291908181526020016000905b82821015611b805783829060005260206000209060020201604051806101200160405290816000820180546119c890613e41565b80601f01602080910402602001604051908101604052809291908181526020018280546119f490613e41565b8015611a415780601f10611a1657610100808354040283529160200191611a41565b820191906000526020600020905b815481529060010190602001808311611a2457829003601f168201915b505050505081526020016001820160009054906101000a900460ff166003811115611a6f57611a6e6136ce565b5b6003811115611a8157611a806136ce565b5b81526020016001820160019054906101000a900460ff166003811115611aaa57611aa96136ce565b5b6003811115611abc57611abb6136ce565b5b81526020016001820160029054906101000a900460ff1660ff1660ff1681526020016001820160039054906101000a900460ff1660ff1660ff1681526020016001820160049054906101000a900460ff1660ff1660ff1681526020016001820160059054906101000a900460ff1660ff1660ff1681526020016001820160069054906101000a900460ff1660ff1660ff1681526020016001820160079054906101000a900461ffff1661ffff1661ffff168152505081526020019060010190611994565b50505050905090565b611b9161218a565b73ffffffffffffffffffffffffffffffffffffffff168273ffffffffffffffffffffffffffffffffffffffff161415611bff576040517f08c379a0000000000000000000000000000000000000000000000000000000008152600401611bf6906145ca565b60405180910390fd5b8060056000611c0c61218a565b73ffffffffffffffffffffffffffffffffffffffff1673ffffffffffffffffffffffffffffffffffffffff16815260200190815260200160002060008473ffffffffffffffffffffffffffffffffffffffff1673ffffffffffffffffffffffffffffffffffffffff16815260200190815260200160002060006101000a81548160ff0219169083151502179055508173ffffffffffffffffffffffffffffffffffffffff16611cb961218a565b73ffffffffffffffffffffffffffffffffffffffff167f17307eab39ab6107e8899845ad3d59bd9653f200f220920489ca2b5937696c3183604051611cfe91906132fd565b60405180910390a35050565b611d1b611d1561218a565b83612409565b611d5a576040517f08c379a0000000000000000000000000000000000000000000000000000000008152600401611d51906141bb565b60405180910390fd5b611d6684848484612809565b50505050565b611d7461218a565b73ffffffffffffffffffffffffffffffffffffffff16611d926118b4565b73ffffffffffffffffffffffffffffffffffffffff1614611de8576040517f08c379a0000000000000000000000000000000000000000000000000000000008152600401611ddf90614075565b60405180910390fd5b80600960006101000a81548173ffffffffffffffffffffffffffffffffffffffff021916908373ffffffffffffffffffffffffffffffffffffffff16021790555050565b6060600c611e3983612865565b604051602001611e4a9291906146ba565b6040516020818303038152906040529050919050565b6000600560008473ffffffffffffffffffffffffffffffffffffffff1673ffffffffffffffffffffffffffffffffffffffff16815260200190815260200160002060008373ffffffffffffffffffffffffffffffffffffffff1673ffffffffffffffffffffffffffffffffffffffff16815260200190815260200160002060009054906101000a900460ff16905092915050565b611efc61218a565b73ffffffffffffffffffffffffffffffffffffffff16611f1a6118b4565b73ffffffffffffffffffffffffffffffffffffffff1614611f70576040517f08c379a0000000000000000000000000000000000000000000000000000000008152600401611f6790614075565b60405180910390fd5b600073ffffffffffffffffffffffffffffffffffffffff168173ffffffffffffffffffffffffffffffffffffffff161415611fe0576040517f08c379a0000000000000000000000000000000000000000000000000000000008152600401611fd790614750565b60405180910390fd5b611fe981612743565b50565b611ff58261167b565b73ffffffffffffffffffffffffffffffffffffffff163373ffffffffffffffffffffffffffffffffffffffff1614612062576040517f08c379a0000000000000000000000000000000000000000000000000000000008152600401612059906147bc565b60405180910390fd5b6000600b838154811061207857612077613de3565b5b90600052602060002090600202019050818160000190805190602001906120a0929190612fae565b50505050565b600081600001549050919050565b60007f01ffc9a7000000000000000000000000000000000000000000000000000000007bffffffffffffffffffffffffffffffffffffffffffffffffffffffff1916827bffffffffffffffffffffffffffffffffffffffffffffffffffffffff1916149050919050565b60008073ffffffffffffffffffffffffffffffffffffffff166002600084815260200190815260200160002060009054906101000a900473ffffffffffffffffffffffffffffffffffffffff1673ffffffffffffffffffffffffffffffffffffffff1614159050919050565b600033905090565b816004600083815260200190815260200160002060006101000a81548173ffffffffffffffffffffffffffffffffffffffff021916908373ffffffffffffffffffffffffffffffffffffffff160217905550808273ffffffffffffffffffffffffffffffffffffffff166122058361167b565b73ffffffffffffffffffffffffffffffffffffffff167f8c5be1e5ebec7d5bd14f71427d1e84f3dd0314c0f7b2291e5b200ac8c7c3b92560405160405180910390a45050565b6000804342336040516020016122619190614824565b6040516020818303038152906040528051906020012060001c612284919061486e565b45424160405160200161229791906148da565b6040516020818303038152906040528051906020012060001c6122ba919061486e565b44426122c691906140c9565b6122d091906140c9565b6122da91906140c9565b6122e491906140c9565b6122ee91906140c9565b6040516020016122fe9190614916565b6040516020818303038152906040528051906020012060001c905060018361232691906142a5565b60ff1660018461233691906142a5565b60ff1682612344919061486e565b61234e9190614931565b81612359919061498b565b915050919050565b61237b8282604051806020016040528060008152506129b7565b5050565b6123888261211e565b6123c7576040517f08c379a00000000000000000000000000000000000000000000000000000000081526004016123be90614a31565b60405180910390fd5b806006600084815260200190815260200160002090805190602001906123ee929190612fae565b505050565b6001816000016000828254019250508190555050565b60006124148261211e565b612453576040517f08c379a000000000000000000000000000000000000000000000000000000000815260040161244a90614ac3565b60405180910390fd5b600061245e8361167b565b90508073ffffffffffffffffffffffffffffffffffffffff168473ffffffffffffffffffffffffffffffffffffffff1614806124cd57508373ffffffffffffffffffffffffffffffffffffffff166124b584610847565b73ffffffffffffffffffffffffffffffffffffffff16145b806124de57506124dd8185611e60565b5b91505092915050565b8273ffffffffffffffffffffffffffffffffffffffff166125078261167b565b73ffffffffffffffffffffffffffffffffffffffff161461255d576040517f08c379a000000000000000000000000000000000000000000000000000000000815260040161255490614b55565b60405180910390fd5b600073ffffffffffffffffffffffffffffffffffffffff168273ffffffffffffffffffffffffffffffffffffffff1614156125cd576040517f08c379a00000000000000000000000000000000000000000000000000000000081526004016125c490614be7565b60405180910390fd5b6125d8838383612a12565b6125e3600082612192565b6001600360008573ffffffffffffffffffffffffffffffffffffffff1673ffffffffffffffffffffffffffffffffffffffff1681526020019081526020016000206000828254612633919061498b565b925050819055506001600360008473ffffffffffffffffffffffffffffffffffffffff1673ffffffffffffffffffffffffffffffffffffffff168152602001908152602001600020600082825461268a91906140c9565b92505081905550816002600083815260200190815260200160002060006101000a81548173ffffffffffffffffffffffffffffffffffffffff021916908373ffffffffffffffffffffffffffffffffffffffff160217905550808273ffffffffffffffffffffffffffffffffffffffff168473ffffffffffffffffffffffffffffffffffffffff167fddf252ad1be2c89b69c2b068fc378daa952ba7f163c4a11628f55a4df523b3ef60405160405180910390a4505050565b6000600760009054906101000a900473ffffffffffffffffffffffffffffffffffffffff16905081600760006101000a81548173ffffffffffffffffffffffffffffffffffffffff021916908373ffffffffffffffffffffffffffffffffffffffff1602179055508173ffffffffffffffffffffffffffffffffffffffff168173ffffffffffffffffffffffffffffffffffffffff167f8be0079c531659141344cd1fd0a4f28419497f9722a3daafe3b4186f6b6457e060405160405180910390a35050565b6128148484846124e7565b61282084848484612a17565b61285f576040517f08c379a000000000000000000000000000000000000000000000000000000000815260040161285690614c79565b60405180910390fd5b50505050565b60606128708261211e565b6128af576040517f08c379a00000000000000000000000000000000000000000000000000000000081526004016128a690614d0b565b60405180910390fd5b60006006600084815260200190815260200160002080546128cf90613e41565b80601f01602080910402602001604051908101604052809291908181526020018280546128fb90613e41565b80156129485780601f1061291d57610100808354040283529160200191612948565b820191906000526020600020905b81548152906001019060200180831161292b57829003601f168201915b505050505090506000612959612bae565b905060008151141561296f5781925050506129b2565b6000825111156129a457808260405160200161298c929190614d2b565b604051602081830303815290604052925050506129b2565b6129ad84612bc5565b925050505b919050565b6129c18383612c6c565b6129ce6000848484612a17565b612a0d576040517f08c379a0000000000000000000000000000000000000000000000000000000008152600401612a0490614c79565b60405180910390fd5b505050565b505050565b6000612a388473ffffffffffffffffffffffffffffffffffffffff16612e3a565b15612ba1578373ffffffffffffffffffffffffffffffffffffffff1663150b7a02612a6161218a565b8786866040518563ffffffff1660e01b8152600401612a839493929190614da4565b602060405180830381600087803b158015612a9d57600080fd5b505af1925050508015612ace57506040513d601f19601f82011682018060405250810190612acb9190614e05565b60015b612b51573d8060008114612afe576040519150601f19603f3d011682016040523d82523d6000602084013e612b03565b606091505b50600081511415612b49576040517f08c379a0000000000000000000000000000000000000000000000000000000008152600401612b4090614c79565b60405180910390fd5b805181602001fd5b63150b7a0260e01b7bffffffffffffffffffffffffffffffffffffffffffffffffffffffff1916817bffffffffffffffffffffffffffffffffffffffffffffffffffffffff191614915050612ba6565b600190505b949350505050565b606060405180602001604052806000815250905090565b6060612bd08261211e565b612c0f576040517f08c379a0000000000000000000000000000000000000000000000000000000008152600401612c0690614ea4565b60405180910390fd5b6000612c19612bae565b90506000815111612c395760405180602001604052806000815250612c64565b80612c4384612e4d565b604051602001612c54929190614d2b565b6040516020818303038152906040525b915050919050565b600073ffffffffffffffffffffffffffffffffffffffff168273ffffffffffffffffffffffffffffffffffffffff161415612cdc576040517f08c379a0000000000000000000000000000000000000000000000000000000008152600401612cd390614f10565b60405180910390fd5b612ce58161211e565b15612d25576040517f08c379a0000000000000000000000000000000000000000000000000000000008152600401612d1c90614f7c565b60405180910390fd5b612d3160008383612a12565b6001600360008473ffffffffffffffffffffffffffffffffffffffff1673ffffffffffffffffffffffffffffffffffffffff1681526020019081526020016000206000828254612d8191906140c9565b92505081905550816002600083815260200190815260200160002060006101000a81548173ffffffffffffffffffffffffffffffffffffffff021916908373ffffffffffffffffffffffffffffffffffffffff160217905550808273ffffffffffffffffffffffffffffffffffffffff16600073ffffffffffffffffffffffffffffffffffffffff167fddf252ad1be2c89b69c2b068fc378daa952ba7f163c4a11628f55a4df523b3ef60405160405180910390a45050565b600080823b905060008111915050919050565b60606000821415612e95576040518060400160405280600181526020017f30000000000000000000000000000000000000000000000000000000000000008152509050612fa9565b600082905060005b60008214612ec7578080612eb090613d9a565b915050600a82612ec0919061486e565b9150612e9d565b60008167ffffffffffffffff811115612ee357612ee26134ea565b5b6040519080825280601f01601f191660200182016040528015612f155781602001600182028036833780820191505090505b5090505b60008514612fa257600182612f2e919061498b565b9150600a85612f3d9190614f9c565b6030612f4991906140c9565b60f81b818381518110612f5f57612f5e613de3565b5b60200101907effffffffffffffffffffffffffffffffffffffffffffffffffffffffffffff1916908160001a905350600a85612f9b919061486e565b9450612f19565b8093505050505b919050565b828054612fba90613e41565b90600052602060002090601f016020900481019282612fdc5760008555613023565b82601f10612ff557805160ff1916838001178555613023565b82800160010185558215613023579182015b82811115613022578251825591602001919060010190613007565b5b50905061303091906130b7565b5090565b604051806101200160405280606081526020016000600381111561305b5761305a6136ce565b5b815260200160006003811115613074576130736136ce565b5b8152602001600060ff168152602001600060ff168152602001600060ff168152602001600060ff168152602001600060ff168152602001600061ffff1681525090565b5b808211156130d05760008160009055506001016130b8565b5090565b6000604051905090565b600080fd5b600080fd5b600073ffffffffffffffffffffffffffffffffffffffff82169050919050565b6000613113826130e8565b9050919050565b61312381613108565b811461312e57600080fd5b50565b6000813590506131408161311a565b92915050565b60006020828403121561315c5761315b6130de565b5b600061316a84828501613131565b91505092915050565b600081519050919050565b600082825260208201905092915050565b6000819050602082019050919050565b6000819050919050565b6131b28161319f565b82525050565b60006131c483836131a9565b60208301905092915050565b6000602082019050919050565b60006131e882613173565b6131f2818561317e565b93506131fd8361318f565b8060005b8381101561322e57815161321588826131b8565b9750613220836131d0565b925050600181019050613201565b5085935050505092915050565b6000602082019050818103600083015261325581846131dd565b905092915050565b60007fffffffff0000000000000000000000000000000000000000000000000000000082169050919050565b6132928161325d565b811461329d57600080fd5b50565b6000813590506132af81613289565b92915050565b6000602082840312156132cb576132ca6130de565b5b60006132d9848285016132a0565b91505092915050565b60008115159050919050565b6132f7816132e2565b82525050565b600060208201905061331260008301846132ee565b92915050565b600081519050919050565b600082825260208201905092915050565b60005b83811015613352578082015181840152602081019050613337565b83811115613361576000848401525b50505050565b6000601f19601f8301169050919050565b600061338382613318565b61338d8185613323565b935061339d818560208601613334565b6133a681613367565b840191505092915050565b600060208201905081810360008301526133cb8184613378565b905092915050565b6133dc8161319f565b81146133e757600080fd5b50565b6000813590506133f9816133d3565b92915050565b600060208284031215613415576134146130de565b5b6000613423848285016133ea565b91505092915050565b61343581613108565b82525050565b6000602082019050613450600083018461342c565b92915050565b6000806040838503121561346d5761346c6130de565b5b600061347b85828601613131565b925050602061348c858286016133ea565b9150509250929050565b600481106134a357600080fd5b50565b6000813590506134b581613496565b92915050565b600481106134c857600080fd5b50565b6000813590506134da816134bb565b92915050565b600080fd5b600080fd5b7f4e487b7100000000000000000000000000000000000000000000000000000000600052604160045260246000fd5b61352282613367565b810181811067ffffffffffffffff82111715613541576135406134ea565b5b80604052505050565b60006135546130d4565b90506135608282613519565b919050565b600067ffffffffffffffff8211156135805761357f6134ea565b5b61358982613367565b9050602081019050919050565b82818337600083830152505050565b60006135b86135b384613565565b61354a565b9050828152602081018484840111156135d4576135d36134e5565b5b6135df848285613596565b509392505050565b600082601f8301126135fc576135fb6134e0565b5b813561360c8482602086016135a5565b91505092915050565b60008060006060848603121561362e5761362d6130de565b5b600061363c868287016134a6565b935050602061364d868287016134cb565b925050604084013567ffffffffffffffff81111561366e5761366d6130e3565b5b61367a868287016135e7565b9150509250925092565b600082825260208201905092915050565b60006136a082613318565b6136aa8185613684565b93506136ba818560208601613334565b6136c381613367565b840191505092915050565b7f4e487b7100000000000000000000000000000000000000000000000000000000600052602160045260246000fd5b6004811061370e5761370d6136ce565b5b50565b600081905061371f826136fd565b919050565b600061372f82613711565b9050919050565b61373f81613724565b82525050565b60048110613756576137556136ce565b5b50565b600081905061376782613745565b919050565b600061377782613759565b9050919050565b6137878161376c565b82525050565b600060ff82169050919050565b6137a38161378d565b82525050565b600061ffff82169050919050565b6137c0816137a9565b82525050565b60006101208301600083015184820360008601526137e48282613695565b91505060208301516137f96020860182613736565b50604083015161380c604086018261377e565b50606083015161381f606086018261379a565b506080830151613832608086018261379a565b5060a083015161384560a086018261379a565b5060c083015161385860c086018261379a565b5060e083015161386b60e086018261379a565b506101008301516138806101008601826137b7565b508091505092915050565b600060208201905081810360008301526138a581846137c6565b905092915050565b6000806000606084860312156138c6576138c56130de565b5b60006138d486828701613131565b93505060206138e586828701613131565b92505060406138f6868287016133ea565b9150509250925092565b613909816137a9565b811461391457600080fd5b50565b60008135905061392681613900565b92915050565b60008060408385031215613943576139426130de565b5b6000613951858286016133ea565b925050602061396285828601613917565b9150509250929050565b6139758161319f565b82525050565b6000602082019050613990600083018461396c565b92915050565b600081519050919050565b600082825260208201905092915050565b6000819050602082019050919050565b60006101208301600083015184820360008601526139e08282613695565b91505060208301516139f56020860182613736565b506040830151613a08604086018261377e565b506060830151613a1b606086018261379a565b506080830151613a2e608086018261379a565b5060a0830151613a4160a086018261379a565b5060c0830151613a5460c086018261379a565b5060e0830151613a6760e086018261379a565b50610100830151613a7c6101008601826137b7565b508091505092915050565b6000613a9383836139c2565b905092915050565b6000602082019050919050565b6000613ab382613996565b613abd81856139a1565b935083602082028501613acf856139b2565b8060005b85811015613b0b5784840389528151613aec8582613a87565b9450613af783613a9b565b925060208a01995050600181019050613ad3565b50829750879550505050505092915050565b60006020820190508181036000830152613b378184613aa8565b905092915050565b613b48816132e2565b8114613b5357600080fd5b50565b600081359050613b6581613b3f565b92915050565b60008060408385031215613b8257613b816130de565b5b6000613b9085828601613131565b9250506020613ba185828601613b56565b9150509250929050565b600067ffffffffffffffff821115613bc657613bc56134ea565b5b613bcf82613367565b9050602081019050919050565b6000613bef613bea84613bab565b61354a565b905082815260208101848484011115613c0b57613c0a6134e5565b5b613c16848285613596565b509392505050565b600082601f830112613c3357613c326134e0565b5b8135613c43848260208601613bdc565b91505092915050565b60008060008060808587031215613c6657613c656130de565b5b6000613c7487828801613131565b9450506020613c8587828801613131565b9350506040613c96878288016133ea565b925050606085013567ffffffffffffffff811115613cb757613cb66130e3565b5b613cc387828801613c1e565b91505092959194509250565b60008060408385031215613ce657613ce56130de565b5b6000613cf485828601613131565b9250506020613d0585828601613131565b9150509250929050565b60008060408385031215613d2657613d256130de565b5b6000613d34858286016133ea565b925050602083013567ffffffffffffffff811115613d5557613d546130e3565b5b613d61858286016135e7565b9150509250929050565b7f4e487b7100000000000000000000000000000000000000000000000000000000600052601160045260246000fd5b6000613da58261319f565b91507fffffffffffffffffffffffffffffffffffffffffffffffffffffffffffffffff821415613dd857613dd7613d6b565b5b600182019050919050565b7f4e487b7100000000000000000000000000000000000000000000000000000000600052603260045260246000fd5b7f4e487b7100000000000000000000000000000000000000000000000000000000600052602260045260246000fd5b60006002820490506001821680613e5957607f821691505b60208210811415613e6d57613e6c613e12565b5b50919050565b7f4552433732313a20617070726f76656420717565727920666f72206e6f6e657860008201527f697374656e7420746f6b656e0000000000000000000000000000000000000000602082015250565b6000613ecf602c83613323565b9150613eda82613e73565b604082019050919050565b60006020820190508181036000830152613efe81613ec2565b9050919050565b7f4552433732313a20617070726f76616c20746f2063757272656e74206f776e6560008201527f7200000000000000000000000000000000000000000000000000000000000000602082015250565b6000613f61602183613323565b9150613f6c82613f05565b604082019050919050565b60006020820190508181036000830152613f9081613f54565b9050919050565b7f4552433732313a20617070726f76652063616c6c6572206973206e6f74206f7760008201527f6e6572206e6f7220617070726f76656420666f7220616c6c0000000000000000602082015250565b6000613ff3603883613323565b9150613ffe82613f97565b604082019050919050565b6000602082019050818103600083015261402281613fe6565b9050919050565b7f4f776e61626c653a2063616c6c6572206973206e6f7420746865206f776e6572600082015250565b600061405f602083613323565b915061406a82614029565b602082019050919050565b6000602082019050818103600083015261408e81614052565b9050919050565b60006140a08261378d565b91506140ab8361378d565b9250828210156140be576140bd613d6b565b5b828203905092915050565b60006140d48261319f565b91506140df8361319f565b9250827fffffffffffffffffffffffffffffffffffffffffffffffffffffffffffffffff0382111561411457614113613d6b565b5b828201905092915050565b600061412a8261378d565b915060ff82141561413e5761413d613d6b565b5b600182019050919050565b7f4552433732313a207472616e736665722063616c6c6572206973206e6f74206f60008201527f776e6572206e6f7220617070726f766564000000000000000000000000000000602082015250565b60006141a5603183613323565b91506141b082614149565b604082019050919050565b600060208201905081810360008301526141d481614198565b9050919050565b7f4f6e6c7920626174746c65206f72206974656d2073686f7020636f6e7472616360008201527f742063616e206578656375746520697400000000000000000000000000000000602082015250565b6000614237603083613323565b9150614242826141db565b604082019050919050565b600060208201905081810360008301526142668161422a565b9050919050565b6000614278826137a9565b9150614283836137a9565b92508261ffff0382111561429a57614299613d6b565b5b828201905092915050565b60006142b08261378d565b91506142bb8361378d565b92508260ff038211156142d1576142d0613d6b565b5b828201905092915050565b60008160011c9050919050565b6000808291508390505b60018511156143335780860481111561430f5761430e613d6b565b5b600185161561431e5780820291505b808102905061432c856142dc565b94506142f3565b94509492505050565b60008261434c5760019050614408565b8161435a5760009050614408565b8160018114614370576002811461437a576143a9565b6001915050614408565b60ff84111561438c5761438b613d6b565b5b8360020a9150848211156143a3576143a2613d6b565b5b50614408565b5060208310610133831016604e8410600b84101617156143de5782820a9050838111156143d9576143d8613d6b565b5b614408565b6143eb84848460016142e9565b9250905081840481111561440257614401613d6b565b5b81810290505b9392505050565b600061441a8261319f565b91506144258361378d565b92506144527fffffffffffffffffffffffffffffffffffffffffffffffffffffffffffffffff848461433c565b905092915050565b7f4552433732313a206f776e657220717565727920666f72206e6f6e657869737460008201527f656e7420746f6b656e0000000000000000000000000000000000000000000000602082015250565b60006144b6602983613323565b91506144c18261445a565b604082019050919050565b600060208201905081810360008301526144e5816144a9565b9050919050565b7f4552433732313a2062616c616e636520717565727920666f7220746865207a6560008201527f726f206164647265737300000000000000000000000000000000000000000000602082015250565b6000614548602a83613323565b9150614553826144ec565b604082019050919050565b600060208201905081810360008301526145778161453b565b9050919050565b7f4552433732313a20617070726f766520746f2063616c6c657200000000000000600082015250565b60006145b4601983613323565b91506145bf8261457e565b602082019050919050565b600060208201905081810360008301526145e3816145a7565b9050919050565b600081905092915050565b60008190508160005260206000209050919050565b6000815461461781613e41565b61462181866145ea565b9450600182166000811461463c576001811461464d57614680565b60ff19831686528186019350614680565b614656856145f5565b60005b8381101561467857815481890152600182019150602081019050614659565b838801955050505b50505092915050565b600061469482613318565b61469e81856145ea565b93506146ae818560208601613334565b80840191505092915050565b60006146c6828561460a565b91506146d28284614689565b91508190509392505050565b7f4f776e61626c653a206e6577206f776e657220697320746865207a65726f206160008201527f6464726573730000000000000000000000000000000000000000000000000000602082015250565b600061473a602683613323565b9150614745826146de565b604082019050919050565b600060208201905081810360008301526147698161472d565b9050919050565b7f4e6f74206f776e65720000000000000000000000000000000000000000000000600082015250565b60006147a6600983613323565b91506147b182614770565b602082019050919050565b600060208201905081810360008301526147d581614799565b9050919050565b60008160601b9050919050565b60006147f4826147dc565b9050919050565b6000614806826147e9565b9050919050565b61481e61481982613108565b6147fb565b82525050565b6000614830828461480d565b60148201915081905092915050565b7f4e487b7100000000000000000000000000000000000000000000000000000000600052601260045260246000fd5b60006148798261319f565b91506148848361319f565b9250826148945761489361483f565b5b828204905092915050565b60006148aa826130e8565b9050919050565b60006148bc826147e9565b9050919050565b6148d46148cf8261489f565b6148b1565b82525050565b60006148e682846148c3565b60148201915081905092915050565b6000819050919050565b61491061490b8261319f565b6148f5565b82525050565b600061492282846148ff565b60208201915081905092915050565b600061493c8261319f565b91506149478361319f565b9250817fffffffffffffffffffffffffffffffffffffffffffffffffffffffffffffffff04831182151516156149805761497f613d6b565b5b828202905092915050565b60006149968261319f565b91506149a18361319f565b9250828210156149b4576149b3613d6b565b5b828203905092915050565b7f45524337323155524953746f726167653a2055524920736574206f66206e6f6e60008201527f6578697374656e7420746f6b656e000000000000000000000000000000000000602082015250565b6000614a1b602e83613323565b9150614a26826149bf565b604082019050919050565b60006020820190508181036000830152614a4a81614a0e565b9050919050565b7f4552433732313a206f70657261746f7220717565727920666f72206e6f6e657860008201527f697374656e7420746f6b656e0000000000000000000000000000000000000000602082015250565b6000614aad602c83613323565b9150614ab882614a51565b604082019050919050565b60006020820190508181036000830152614adc81614aa0565b9050919050565b7f4552433732313a207472616e73666572206f6620746f6b656e2074686174206960008201527f73206e6f74206f776e0000000000000000000000000000000000000000000000602082015250565b6000614b3f602983613323565b9150614b4a82614ae3565b604082019050919050565b60006020820190508181036000830152614b6e81614b32565b9050919050565b7f4552433732313a207472616e7366657220746f20746865207a65726f2061646460008201527f7265737300000000000000000000000000000000000000000000000000000000602082015250565b6000614bd1602483613323565b9150614bdc82614b75565b604082019050919050565b60006020820190508181036000830152614c0081614bc4565b9050919050565b7f4552433732313a207472616e7366657220746f206e6f6e20455243373231526560008201527f63656976657220696d706c656d656e7465720000000000000000000000000000602082015250565b6000614c63603283613323565b9150614c6e82614c07565b604082019050919050565b60006020820190508181036000830152614c9281614c56565b9050919050565b7f45524337323155524953746f726167653a2055524920717565727920666f722060008201527f6e6f6e6578697374656e7420746f6b656e000000000000000000000000000000602082015250565b6000614cf5603183613323565b9150614d0082614c99565b604082019050919050565b60006020820190508181036000830152614d2481614ce8565b9050919050565b6000614d378285614689565b9150614d438284614689565b91508190509392505050565b600081519050919050565b600082825260208201905092915050565b6000614d7682614d4f565b614d808185614d5a565b9350614d90818560208601613334565b614d9981613367565b840191505092915050565b6000608082019050614db9600083018761342c565b614dc6602083018661342c565b614dd3604083018561396c565b8181036060830152614de58184614d6b565b905095945050505050565b600081519050614dff81613289565b92915050565b600060208284031215614e1b57614e1a6130de565b5b6000614e2984828501614df0565b91505092915050565b7f4552433732314d657461646174613a2055524920717565727920666f72206e6f60008201527f6e6578697374656e7420746f6b656e0000000000000000000000000000000000602082015250565b6000614e8e602f83613323565b9150614e9982614e32565b604082019050919050565b60006020820190508181036000830152614ebd81614e81565b9050919050565b7f4552433732313a206d696e7420746f20746865207a65726f2061646472657373600082015250565b6000614efa602083613323565b9150614f0582614ec4565b602082019050919050565b60006020820190508181036000830152614f2981614eed565b9050919050565b7f4552433732313a20746f6b656e20616c7265616479206d696e74656400000000600082015250565b6000614f66601c83613323565b9150614f7182614f30565b602082019050919050565b60006020820190508181036000830152614f9581614f59565b9050919050565b6000614fa78261319f565b9150614fb28361319f565b925082614fc257614fc161483f565b5b82820690509291505056fea26469706673582212203944d40e29f3cc9d4149b02bf041e4c54697ddfbee0e103bfaa8b6310995c16664736f6c63430008090033",
  "immutableReferences": {},
  "source": "pragma solidity 0.8.9;\n\nimport \"../node_modules/@openzeppelin/contracts/token/ERC721/extensions/ERC721URIStorage.sol\";\nimport \"../node_modules/@openzeppelin/contracts/utils/Counters.sol\";\nimport \"../node_modules/@openzeppelin/contracts/access/Ownable.sol\";\n\ncontract GameToken is ERC721URIStorage, Ownable {\n\n    event HeroLevelUp(uint256 indexed tokenId, uint8 indexed level);\n\n    using Counters for Counters.Counter;\n    Counters.Counter private _currentHeroId;\n\n    address public _battleAddress;\n    address public _itemShopAddress;\n\n    enum HeroType {\n        FIGHTER,\n        ROGUE,\n        MAGE,\n        TANK\n    }\n    enum HeroRarity {\n        COMMON,\n        UNCOMMON,\n        RARE,\n        LEGENDARY\n    }\n\n    struct Hero {\n        string name;\n        HeroType heroType;\n        HeroRarity rarity;\n        uint8 str;\n        uint8 con;\n        uint8 dex;\n        uint8 wis;\n        uint8 level;\n        uint16 currXP;\n    }\n\n    Hero[] private _heroes;\n\n    string private _baseTokenURI;\n\n    mapping(HeroType => uint8[]) private _mapMint;\n\n    constructor(\n        string memory name,\n        string memory symbol,\n        string memory baseTokenURI\n    ) ERC721(name, symbol) {\n        _baseTokenURI = baseTokenURI;\n\n        _mapMint[HeroType.FIGHTER] = [0, 1, 0, 2, 3, 1];\n        _mapMint[HeroType.ROGUE] = [2, 2, 0, 3, 0, 2];\n        _mapMint[HeroType.MAGE] = [3, 3, 2, 1, 0, 3];\n        _mapMint[HeroType.TANK] = [1, 1, 0, 2, 3, 1];\n    }\n\n    function setBattleAddress(address _newBattleAddress) public onlyOwner {\n        _battleAddress = _newBattleAddress;\n    }\n\n    function setItemShopAddress(address _newItemShopAddress) public onlyOwner {\n        _itemShopAddress = _newItemShopAddress;\n    }\n\n    function getHeroes() external view returns (Hero[] memory) {\n        return _heroes;\n    }\n\n    function getCurrentHeroId() external view returns (uint256) {\n        return _currentHeroId.current();\n    }\n\n    function mint(\n        HeroType _heroType,\n        HeroRarity _heroRarity,\n        string memory _tokenURI\n    ) public onlyOwner {\n        uint256 newHeroId = _currentHeroId.current();\n\n        uint8 minAttr;\n        uint8 maxAttr;\n\n        if (_heroRarity == HeroRarity.COMMON) {\n            minAttr = 4;\n            maxAttr = 6;\n        } else if (_heroRarity == HeroRarity.UNCOMMON) {\n            minAttr = 7;\n            maxAttr = 8;\n        } else if (_heroRarity == HeroRarity.RARE) {\n            minAttr = 9;\n            maxAttr = 10;\n        } else {\n            minAttr = 11;\n            maxAttr = 12;\n        }\n\n        uint256 attrsSize = rand(maxAttr - minAttr) + minAttr;\n\n        uint8[] memory attrs = new uint8[](4);\n        attrs[0] = 1;\n        attrs[1] = 1;\n        attrs[2] = 1;\n        attrs[3] = 1;\n        uint8 attrCounter = 0;\n\n        for (uint8 i = 1; i <= attrsSize; i++) {\n            attrs[_mapMint[_heroType][attrCounter]]++;\n            if (attrCounter == 5) {\n                attrCounter = 0;\n            } else {\n                attrCounter++;\n            }\n        }\n\n        _safeMint(msg.sender, newHeroId);\n        _setTokenURI(newHeroId, _tokenURI);\n        _heroes.push(\n            Hero(\n                \"\",\n                _heroType,\n                _heroRarity,\n                attrs[0],\n                attrs[1],\n                attrs[2],\n                attrs[3],\n                1,\n                0\n            )\n        );\n\n        _currentHeroId.increment();\n    }\n\n    function getHeroesByAddress(address owner)\n        public\n        view\n        returns (uint256[] memory)\n    {\n        uint256 heroCount = balanceOf(owner);\n\n        if (heroCount == 0) {\n            return new uint256[](0);\n        } else {\n            uint256[] memory ret = new uint256[](heroCount);\n            uint256 i;\n            uint256 curIndex = 0;\n\n            for (i = 0; i < _currentHeroId.current(); i++) {\n                if (ownerOf(i) == owner) {\n                    ret[curIndex++] = i;\n                }\n            }\n\n            return ret;\n        }\n    }\n\n    function getMyHeroes() external view returns (uint256[] memory) {\n        return getHeroesByAddress(msg.sender);\n    }\n\n    function getHero(uint256 _heroId) external view returns (Hero memory) {\n        return _heroes[_heroId];\n    }\n\n    function setName(uint256 _heroId, string memory _name) external {\n        require(msg.sender == ownerOf(_heroId), \"Not owner\");\n        Hero storage hero = _heroes[_heroId];\n\n        hero.name = _name;\n    }\n\n    function levelUp(uint256 _heroId, uint16 _xp) external {\n        require(\n            msg.sender == _battleAddress || msg.sender == _itemShopAddress ,\n            \"Only battle or item shop contract can execute it\"\n        );\n\n        Hero storage hero = _heroes[_heroId];\n\n        hero.currXP += _xp;\n\n        if (hero.currXP >= 2**(hero.level + 1)) {\n            hero.level++;\n            hero.currXP = 0;\n\n            uint256 random = rand(3);\n\n            if (random == 0) {\n                hero.str++;\n            } else if (random == 1) {\n                hero.con++;\n            } else if (random == 2) {\n                hero.dex++;\n            } else if (random == 3) {\n                hero.wis++;\n            }\n\n            emit HeroLevelUp(_heroId, hero.level);\n        }\n    }\n\n    function rand(uint8 limit) private view returns (uint256) {\n        uint256 seed = uint256(\n            keccak256(\n                abi.encodePacked(\n                    block.timestamp +\n                        block.difficulty +\n                        ((\n                            uint256(keccak256(abi.encodePacked(block.coinbase)))\n                        ) / (block.timestamp)) +\n                        block.gaslimit +\n                        ((uint256(keccak256(abi.encodePacked(msg.sender)))) /\n                            (block.timestamp)) +\n                        block.number\n                )\n            )\n        );\n\n        return (seed - ((seed / (limit + 1)) * (limit + 1)));\n    }\n\n    function tokenURI(uint256 tokenId)\n        public\n        view\n        virtual\n        override\n        returns (string memory)\n    {\n        return string(abi.encodePacked(_baseTokenURI, super.tokenURI(tokenId)));\n    }\n}\n",
  "sourcePath": "/home/rfaita/game/nft-game/contract/contracts/GameToken.sol",
  "compiler": {
    "name": "solc",
    "version": "0.8.9+commit.e5eed63a.Emscripten.clang"
  },
  "schemaVersion": "3.4.3",
  "updatedAt": "2021-11-16T20:59:16.222Z",
  "networkType": "ethereum",
  "devdoc": {
    "kind": "dev",
    "methods": {
      "approve(address,uint256)": {
        "details": "See {IERC721-approve}."
      },
      "balanceOf(address)": {
        "details": "See {IERC721-balanceOf}."
      },
      "getApproved(uint256)": {
        "details": "See {IERC721-getApproved}."
      },
      "isApprovedForAll(address,address)": {
        "details": "See {IERC721-isApprovedForAll}."
      },
      "name()": {
        "details": "See {IERC721Metadata-name}."
      },
      "owner()": {
        "details": "Returns the address of the current owner."
      },
      "ownerOf(uint256)": {
        "details": "See {IERC721-ownerOf}."
      },
      "renounceOwnership()": {
        "details": "Leaves the contract without owner. It will not be possible to call `onlyOwner` functions anymore. Can only be called by the current owner. NOTE: Renouncing ownership will leave the contract without an owner, thereby removing any functionality that is only available to the owner."
      },
      "safeTransferFrom(address,address,uint256)": {
        "details": "See {IERC721-safeTransferFrom}."
      },
      "safeTransferFrom(address,address,uint256,bytes)": {
        "details": "See {IERC721-safeTransferFrom}."
      },
      "setApprovalForAll(address,bool)": {
        "details": "See {IERC721-setApprovalForAll}."
      },
      "supportsInterface(bytes4)": {
        "details": "See {IERC165-supportsInterface}."
      },
      "symbol()": {
        "details": "See {IERC721Metadata-symbol}."
      },
      "tokenURI(uint256)": {
        "details": "See {IERC721Metadata-tokenURI}."
      },
      "transferFrom(address,address,uint256)": {
        "details": "See {IERC721-transferFrom}."
      },
      "transferOwnership(address)": {
        "details": "Transfers ownership of the contract to a new account (`newOwner`). Can only be called by the current owner."
      }
    },
    "version": 1
  },
  "userdoc": {
    "kind": "user",
    "methods": {},
    "version": 1
  }
}