{
  "contractName": "GameToken",
  "abi": [
    {
      "inputs": [
        {
          "internalType": "string",
          "name": "name",
          "type": "string"
        },
        {
          "internalType": "string",
          "name": "symbol",
          "type": "string"
        }
      ],
      "stateMutability": "nonpayable",
      "type": "constructor"
    },
    {
      "anonymous": false,
      "inputs": [
        {
          "indexed": true,
          "internalType": "address",
          "name": "owner",
          "type": "address"
        },
        {
          "indexed": true,
          "internalType": "address",
          "name": "approved",
          "type": "address"
        },
        {
          "indexed": true,
          "internalType": "uint256",
          "name": "tokenId",
          "type": "uint256"
        }
      ],
      "name": "Approval",
      "type": "event"
    },
    {
      "anonymous": false,
      "inputs": [
        {
          "indexed": true,
          "internalType": "address",
          "name": "owner",
          "type": "address"
        },
        {
          "indexed": true,
          "internalType": "address",
          "name": "operator",
          "type": "address"
        },
        {
          "indexed": false,
          "internalType": "bool",
          "name": "approved",
          "type": "bool"
        }
      ],
      "name": "ApprovalForAll",
      "type": "event"
    },
    {
      "anonymous": false,
      "inputs": [
        {
          "indexed": true,
          "internalType": "address",
          "name": "previousOwner",
          "type": "address"
        },
        {
          "indexed": true,
          "internalType": "address",
          "name": "newOwner",
          "type": "address"
        }
      ],
      "name": "OwnershipTransferred",
      "type": "event"
    },
    {
      "anonymous": false,
      "inputs": [
        {
          "indexed": true,
          "internalType": "address",
          "name": "from",
          "type": "address"
        },
        {
          "indexed": true,
          "internalType": "address",
          "name": "to",
          "type": "address"
        },
        {
          "indexed": true,
          "internalType": "uint256",
          "name": "tokenId",
          "type": "uint256"
        }
      ],
      "name": "Transfer",
      "type": "event"
    },
    {
      "inputs": [
        {
          "internalType": "address",
          "name": "to",
          "type": "address"
        },
        {
          "internalType": "uint256",
          "name": "tokenId",
          "type": "uint256"
        }
      ],
      "name": "approve",
      "outputs": [],
      "stateMutability": "nonpayable",
      "type": "function"
    },
    {
      "inputs": [
        {
          "internalType": "address",
          "name": "owner",
          "type": "address"
        }
      ],
      "name": "balanceOf",
      "outputs": [
        {
          "internalType": "uint256",
          "name": "",
          "type": "uint256"
        }
      ],
      "stateMutability": "view",
      "type": "function",
      "constant": true
    },
    {
      "inputs": [
        {
          "internalType": "uint256",
          "name": "tokenId",
          "type": "uint256"
        }
      ],
      "name": "getApproved",
      "outputs": [
        {
          "internalType": "address",
          "name": "",
          "type": "address"
        }
      ],
      "stateMutability": "view",
      "type": "function",
      "constant": true
    },
    {
      "inputs": [
        {
          "internalType": "address",
          "name": "owner",
          "type": "address"
        },
        {
          "internalType": "address",
          "name": "operator",
          "type": "address"
        }
      ],
      "name": "isApprovedForAll",
      "outputs": [
        {
          "internalType": "bool",
          "name": "",
          "type": "bool"
        }
      ],
      "stateMutability": "view",
      "type": "function",
      "constant": true
    },
    {
      "inputs": [],
      "name": "name",
      "outputs": [
        {
          "internalType": "string",
          "name": "",
          "type": "string"
        }
      ],
      "stateMutability": "view",
      "type": "function",
      "constant": true
    },
    {
      "inputs": [],
      "name": "owner",
      "outputs": [
        {
          "internalType": "address",
          "name": "",
          "type": "address"
        }
      ],
      "stateMutability": "view",
      "type": "function",
      "constant": true
    },
    {
      "inputs": [
        {
          "internalType": "uint256",
          "name": "tokenId",
          "type": "uint256"
        }
      ],
      "name": "ownerOf",
      "outputs": [
        {
          "internalType": "address",
          "name": "",
          "type": "address"
        }
      ],
      "stateMutability": "view",
      "type": "function",
      "constant": true
    },
    {
      "inputs": [],
      "name": "renounceOwnership",
      "outputs": [],
      "stateMutability": "nonpayable",
      "type": "function"
    },
    {
      "inputs": [
        {
          "internalType": "address",
          "name": "from",
          "type": "address"
        },
        {
          "internalType": "address",
          "name": "to",
          "type": "address"
        },
        {
          "internalType": "uint256",
          "name": "tokenId",
          "type": "uint256"
        }
      ],
      "name": "safeTransferFrom",
      "outputs": [],
      "stateMutability": "nonpayable",
      "type": "function"
    },
    {
      "inputs": [
        {
          "internalType": "address",
          "name": "from",
          "type": "address"
        },
        {
          "internalType": "address",
          "name": "to",
          "type": "address"
        },
        {
          "internalType": "uint256",
          "name": "tokenId",
          "type": "uint256"
        },
        {
          "internalType": "bytes",
          "name": "_data",
          "type": "bytes"
        }
      ],
      "name": "safeTransferFrom",
      "outputs": [],
      "stateMutability": "nonpayable",
      "type": "function"
    },
    {
      "inputs": [
        {
          "internalType": "address",
          "name": "operator",
          "type": "address"
        },
        {
          "internalType": "bool",
          "name": "approved",
          "type": "bool"
        }
      ],
      "name": "setApprovalForAll",
      "outputs": [],
      "stateMutability": "nonpayable",
      "type": "function"
    },
    {
      "inputs": [
        {
          "internalType": "bytes4",
          "name": "interfaceId",
          "type": "bytes4"
        }
      ],
      "name": "supportsInterface",
      "outputs": [
        {
          "internalType": "bool",
          "name": "",
          "type": "bool"
        }
      ],
      "stateMutability": "view",
      "type": "function",
      "constant": true
    },
    {
      "inputs": [],
      "name": "symbol",
      "outputs": [
        {
          "internalType": "string",
          "name": "",
          "type": "string"
        }
      ],
      "stateMutability": "view",
      "type": "function",
      "constant": true
    },
    {
      "inputs": [
        {
          "internalType": "uint256",
          "name": "tokenId",
          "type": "uint256"
        }
      ],
      "name": "tokenURI",
      "outputs": [
        {
          "internalType": "string",
          "name": "",
          "type": "string"
        }
      ],
      "stateMutability": "view",
      "type": "function",
      "constant": true
    },
    {
      "inputs": [
        {
          "internalType": "address",
          "name": "from",
          "type": "address"
        },
        {
          "internalType": "address",
          "name": "to",
          "type": "address"
        },
        {
          "internalType": "uint256",
          "name": "tokenId",
          "type": "uint256"
        }
      ],
      "name": "transferFrom",
      "outputs": [],
      "stateMutability": "nonpayable",
      "type": "function"
    },
    {
      "inputs": [
        {
          "internalType": "address",
          "name": "newOwner",
          "type": "address"
        }
      ],
      "name": "transferOwnership",
      "outputs": [],
      "stateMutability": "nonpayable",
      "type": "function"
    },
    {
      "inputs": [
        {
          "internalType": "string",
          "name": "name",
          "type": "string"
        },
        {
          "internalType": "enum GameToken.HeroType",
          "name": "heroType",
          "type": "uint8"
        },
        {
          "internalType": "uint8",
          "name": "str",
          "type": "uint8"
        },
        {
          "internalType": "uint8",
          "name": "con",
          "type": "uint8"
        },
        {
          "internalType": "uint8",
          "name": "dex",
          "type": "uint8"
        },
        {
          "internalType": "uint8",
          "name": "inte",
          "type": "uint8"
        }
      ],
      "name": "mint",
      "outputs": [],
      "stateMutability": "nonpayable",
      "type": "function"
    },
    {
      "inputs": [
        {
          "internalType": "address",
          "name": "owner",
          "type": "address"
        }
      ],
      "name": "getHeroesByAddress",
      "outputs": [
        {
          "internalType": "uint256[]",
          "name": "",
          "type": "uint256[]"
        }
      ],
      "stateMutability": "view",
      "type": "function",
      "constant": true
    },
    {
      "inputs": [],
      "name": "getMyHeroes",
      "outputs": [
        {
          "internalType": "uint256[]",
          "name": "",
          "type": "uint256[]"
        }
      ],
      "stateMutability": "view",
      "type": "function",
      "constant": true
    },
    {
      "inputs": [
        {
          "internalType": "uint256",
          "name": "_heroId",
          "type": "uint256"
        }
      ],
      "name": "getHero",
      "outputs": [
        {
          "components": [
            {
              "internalType": "string",
              "name": "name",
              "type": "string"
            },
            {
              "internalType": "enum GameToken.HeroType",
              "name": "heroType",
              "type": "uint8"
            },
            {
              "internalType": "uint8",
              "name": "str",
              "type": "uint8"
            },
            {
              "internalType": "uint8",
              "name": "con",
              "type": "uint8"
            },
            {
              "internalType": "uint8",
              "name": "dex",
              "type": "uint8"
            },
            {
              "internalType": "uint8",
              "name": "inte",
              "type": "uint8"
            },
            {
              "internalType": "uint16",
              "name": "level",
              "type": "uint16"
            }
          ],
          "internalType": "struct GameToken.Hero",
          "name": "",
          "type": "tuple"
        }
      ],
      "stateMutability": "view",
      "type": "function",
      "constant": true
    },
    {
      "inputs": [
        {
          "internalType": "uint256",
          "name": "_heroId",
          "type": "uint256"
        }
      ],
      "name": "levelUp",
      "outputs": [],
      "stateMutability": "nonpayable",
      "type": "function"
    },
    {
      "inputs": [
        {
          "internalType": "uint256",
          "name": "_heroId",
          "type": "uint256"
        },
        {
          "internalType": "uint256",
          "name": "_price",
          "type": "uint256"
        }
      ],
      "name": "allowBuy",
      "outputs": [],
      "stateMutability": "nonpayable",
      "type": "function"
    },
    {
      "inputs": [
        {
          "internalType": "uint256",
          "name": "_heroId",
          "type": "uint256"
        }
      ],
      "name": "disallowBuy",
      "outputs": [],
      "stateMutability": "nonpayable",
      "type": "function"
    },
    {
      "inputs": [
        {
          "internalType": "uint256",
          "name": "_heroId",
          "type": "uint256"
        }
      ],
      "name": "buy",
      "outputs": [],
      "stateMutability": "payable",
      "type": "function",
      "payable": true
    }
  ],
  "bytecode": "0x608060405260006007553480156200001657600080fd5b50604051620052343803806200523483398181016040528101906200003c919062000bb0565b818181600090805190602001906200005692919062000963565b5080600190805190602001906200006f92919062000963565b50505062000092620000866200018460201b60201c565b6200018c60201b60201c565b620000e06040518060400160405280600981526020017f6669727374206f6e65000000000000000000000000000000000000000000000081525060006001806001806200025260201b60201c565b6200012e6040518060400160405280600a81526020017f7365636f6e64206f6e650000000000000000000000000000000000000000000081525060018060018060016200025260201b60201c565b6200017c6040518060400160405280600981526020017f7468697264206f6e65000000000000000000000000000000000000000000000081525060026001806001806200025260201b60201c565b505062001142565b600033905090565b6000600660009054906101000a900473ffffffffffffffffffffffffffffffffffffffff16905081600660006101000a81548173ffffffffffffffffffffffffffffffffffffffff021916908373ffffffffffffffffffffffffffffffffffffffff1602179055508173ffffffffffffffffffffffffffffffffffffffff168173ffffffffffffffffffffffffffffffffffffffff167f8be0079c531659141344cd1fd0a4f28419497f9722a3daafe3b4186f6b6457e060405160405180910390a35050565b620002626200018460201b60201c565b73ffffffffffffffffffffffffffffffffffffffff16620002886200048160201b60201c565b73ffffffffffffffffffffffffffffffffffffffff1614620002e1576040517f08c379a0000000000000000000000000000000000000000000000000000000008152600401620002d89062000c96565b60405180910390fd5b620002f533600754620004ab60201b60201c565b6040518060e001604052808781526020018660038111156200031c576200031b62000cb8565b5b81526020018560ff1681526020018460ff1681526020018360ff1681526020018260ff168152602001600161ffff1681525060086000600754815260200190815260200160002060008201518160000190805190602001906200038192919062000963565b5060208201518160010160006101000a81548160ff02191690836003811115620003b057620003af62000cb8565b5b021790555060408201518160010160016101000a81548160ff021916908360ff16021790555060608201518160010160026101000a81548160ff021916908360ff16021790555060808201518160010160036101000a81548160ff021916908360ff16021790555060a08201518160010160046101000a81548160ff021916908360ff16021790555060c08201518160010160056101000a81548161ffff021916908361ffff16021790555090505060076000815480929190620004749062000d20565b9190505550505050505050565b6000600660009054906101000a900473ffffffffffffffffffffffffffffffffffffffff16905090565b620004cd828260405180602001604052806000815250620004d160201b60201c565b5050565b620004e383836200053f60201b60201c565b620004f860008484846200072560201b60201c565b6200053a576040517f08c379a0000000000000000000000000000000000000000000000000000000008152600401620005319062000de4565b60405180910390fd5b505050565b600073ffffffffffffffffffffffffffffffffffffffff168273ffffffffffffffffffffffffffffffffffffffff161415620005b2576040517f08c379a0000000000000000000000000000000000000000000000000000000008152600401620005a99062000e56565b60405180910390fd5b620005c381620008df60201b60201c565b1562000606576040517f08c379a0000000000000000000000000000000000000000000000000000000008152600401620005fd9062000ec8565b60405180910390fd5b6200061a600083836200094b60201b60201c565b6001600360008473ffffffffffffffffffffffffffffffffffffffff1673ffffffffffffffffffffffffffffffffffffffff16815260200190815260200160002060008282546200066c919062000eea565b92505081905550816002600083815260200190815260200160002060006101000a81548173ffffffffffffffffffffffffffffffffffffffff021916908373ffffffffffffffffffffffffffffffffffffffff160217905550808273ffffffffffffffffffffffffffffffffffffffff16600073ffffffffffffffffffffffffffffffffffffffff167fddf252ad1be2c89b69c2b068fc378daa952ba7f163c4a11628f55a4df523b3ef60405160405180910390a45050565b6000620007538473ffffffffffffffffffffffffffffffffffffffff166200095060201b620019841760201c565b15620008d2578373ffffffffffffffffffffffffffffffffffffffff1663150b7a02620007856200018460201b60201c565b8786866040518563ffffffff1660e01b8152600401620007a9949392919062000ffa565b602060405180830381600087803b158015620007c457600080fd5b505af1925050508015620007f857506040513d601f19601f82011682018060405250810190620007f59190620010ab565b60015b62000881573d80600081146200082b576040519150601f19603f3d011682016040523d82523d6000602084013e62000830565b606091505b5060008151141562000879576040517f08c379a0000000000000000000000000000000000000000000000000000000008152600401620008709062000de4565b60405180910390fd5b805181602001fd5b63150b7a0260e01b7bffffffffffffffffffffffffffffffffffffffffffffffffffffffff1916817bffffffffffffffffffffffffffffffffffffffffffffffffffffffff191614915050620008d7565b600190505b949350505050565b60008073ffffffffffffffffffffffffffffffffffffffff166002600084815260200190815260200160002060009054906101000a900473ffffffffffffffffffffffffffffffffffffffff1673ffffffffffffffffffffffffffffffffffffffff1614159050919050565b505050565b600080823b905060008111915050919050565b82805462000971906200110c565b90600052602060002090601f016020900481019282620009955760008555620009e1565b82601f10620009b057805160ff1916838001178555620009e1565b82800160010185558215620009e1579182015b82811115620009e0578251825591602001919060010190620009c3565b5b509050620009f09190620009f4565b5090565b5b8082111562000a0f576000816000905550600101620009f5565b5090565b6000604051905090565b600080fd5b600080fd5b600080fd5b600080fd5b6000601f19601f8301169050919050565b7f4e487b7100000000000000000000000000000000000000000000000000000000600052604160045260246000fd5b62000a7c8262000a31565b810181811067ffffffffffffffff8211171562000a9e5762000a9d62000a42565b5b80604052505050565b600062000ab362000a13565b905062000ac1828262000a71565b919050565b600067ffffffffffffffff82111562000ae45762000ae362000a42565b5b62000aef8262000a31565b9050602081019050919050565b60005b8381101562000b1c57808201518184015260208101905062000aff565b8381111562000b2c576000848401525b50505050565b600062000b4962000b438462000ac6565b62000aa7565b90508281526020810184848401111562000b685762000b6762000a2c565b5b62000b7584828562000afc565b509392505050565b600082601f83011262000b955762000b9462000a27565b5b815162000ba784826020860162000b32565b91505092915050565b6000806040838503121562000bca5762000bc962000a1d565b5b600083015167ffffffffffffffff81111562000beb5762000bea62000a22565b5b62000bf98582860162000b7d565b925050602083015167ffffffffffffffff81111562000c1d5762000c1c62000a22565b5b62000c2b8582860162000b7d565b9150509250929050565b600082825260208201905092915050565b7f4f776e61626c653a2063616c6c6572206973206e6f7420746865206f776e6572600082015250565b600062000c7e60208362000c35565b915062000c8b8262000c46565b602082019050919050565b6000602082019050818103600083015262000cb18162000c6f565b9050919050565b7f4e487b7100000000000000000000000000000000000000000000000000000000600052602160045260246000fd5b7f4e487b7100000000000000000000000000000000000000000000000000000000600052601160045260246000fd5b6000819050919050565b600062000d2d8262000d16565b91507fffffffffffffffffffffffffffffffffffffffffffffffffffffffffffffffff82141562000d635762000d6262000ce7565b5b600182019050919050565b7f4552433732313a207472616e7366657220746f206e6f6e20455243373231526560008201527f63656976657220696d706c656d656e7465720000000000000000000000000000602082015250565b600062000dcc60328362000c35565b915062000dd98262000d6e565b604082019050919050565b6000602082019050818103600083015262000dff8162000dbd565b9050919050565b7f4552433732313a206d696e7420746f20746865207a65726f2061646472657373600082015250565b600062000e3e60208362000c35565b915062000e4b8262000e06565b602082019050919050565b6000602082019050818103600083015262000e718162000e2f565b9050919050565b7f4552433732313a20746f6b656e20616c7265616479206d696e74656400000000600082015250565b600062000eb0601c8362000c35565b915062000ebd8262000e78565b602082019050919050565b6000602082019050818103600083015262000ee38162000ea1565b9050919050565b600062000ef78262000d16565b915062000f048362000d16565b9250827fffffffffffffffffffffffffffffffffffffffffffffffffffffffffffffffff0382111562000f3c5762000f3b62000ce7565b5b828201905092915050565b600073ffffffffffffffffffffffffffffffffffffffff82169050919050565b600062000f748262000f47565b9050919050565b62000f868162000f67565b82525050565b62000f978162000d16565b82525050565b600081519050919050565b600082825260208201905092915050565b600062000fc68262000f9d565b62000fd2818562000fa8565b935062000fe481856020860162000afc565b62000fef8162000a31565b840191505092915050565b600060808201905062001011600083018762000f7b565b62001020602083018662000f7b565b6200102f604083018562000f8c565b818103606083015262001043818462000fb9565b905095945050505050565b60007fffffffff0000000000000000000000000000000000000000000000000000000082169050919050565b62001085816200104e565b81146200109157600080fd5b50565b600081519050620010a5816200107a565b92915050565b600060208284031215620010c457620010c362000a1d565b5b6000620010d48482850162001094565b91505092915050565b7f4e487b7100000000000000000000000000000000000000000000000000000000600052602260045260246000fd5b600060028204905060018216806200112557607f821691505b602082108114156200113c576200113b620010dd565b5b50919050565b6140e280620011526000396000f3fe60806040526004361061014a5760003560e01c8063806f5283116100b6578063bbb5e8d31161006f578063bbb5e8d31461049f578063c87b56dd146104c8578063d499131214610505578063d96a094a1461052e578063e985e9c51461054a578063f2fde38b146105875761014a565b8063806f5283146103a35780638da5cb5b146103ce57806390df2bee146103f957806395d89b4114610422578063a22cb4651461044d578063b88d4fde146104765761014a565b806321d801111161010857806321d801111461028357806323b872dd146102c057806342842e0e146102e95780636352211e1461031257806370a082311461034f578063715018a61461038c5761014a565b80625597e31461014f57806301ffc9a71461018c57806306fdde03146101c9578063081812fc146101f4578063095ea7b3146102315780630ce90ec21461025a575b600080fd5b34801561015b57600080fd5b506101766004803603810190610171919061276f565b6105b0565b6040516101839190612864565b60405180910390f35b34801561019857600080fd5b506101b360048036038101906101ae91906128de565b6106fa565b6040516101c09190612926565b60405180910390f35b3480156101d557600080fd5b506101de6107dc565b6040516101eb91906129da565b60405180910390f35b34801561020057600080fd5b5061021b60048036038101906102169190612a28565b61086e565b6040516102289190612a64565b60405180910390f35b34801561023d57600080fd5b5061025860048036038101906102539190612a7f565b6108f3565b005b34801561026657600080fd5b50610281600480360381019061027c9190612a28565b610a0b565b005b34801561028f57600080fd5b506102aa60048036038101906102a59190612a28565b610c07565b6040516102b79190612c55565b60405180910390f35b3480156102cc57600080fd5b506102e760048036038101906102e29190612c77565b610d95565b005b3480156102f557600080fd5b50610310600480360381019061030b9190612c77565b610df5565b005b34801561031e57600080fd5b5061033960048036038101906103349190612a28565b610e15565b6040516103469190612a64565b60405180910390f35b34801561035b57600080fd5b506103766004803603810190610371919061276f565b610ec7565b6040516103839190612cd9565b60405180910390f35b34801561039857600080fd5b506103a1610f7f565b005b3480156103af57600080fd5b506103b8611007565b6040516103c59190612864565b60405180910390f35b3480156103da57600080fd5b506103e3611017565b6040516103f09190612a64565b60405180910390f35b34801561040557600080fd5b50610420600480360381019061041b9190612e7a565b611041565b005b34801561042e57600080fd5b5061043761124b565b60405161044491906129da565b60405180910390f35b34801561045957600080fd5b50610474600480360381019061046f9190612f4f565b6112dd565b005b34801561048257600080fd5b5061049d60048036038101906104989190613030565b61145e565b005b3480156104ab57600080fd5b506104c660048036038101906104c191906130b3565b6114c0565b005b3480156104d457600080fd5b506104ef60048036038101906104ea9190612a28565b611595565b6040516104fc91906129da565b60405180910390f35b34801561051157600080fd5b5061052c60048036038101906105279190612a28565b61163c565b005b61054860048036038101906105439190612a28565b6116ce565b005b34801561055657600080fd5b50610571600480360381019061056c91906130f3565b6117f8565b60405161057e9190612926565b60405180910390f35b34801561059357600080fd5b506105ae60048036038101906105a9919061276f565b61188c565b005b606060006105bd83610ec7565b9050600081141561061a57600067ffffffffffffffff8111156105e3576105e2612cfe565b5b6040519080825280602002602001820160405280156106115781602001602082028036833780820191505090505b509150506106f5565b60008167ffffffffffffffff81111561063657610635612cfe565b5b6040519080825280602002602001820160405280156106645781602001602082028036833780820191505090505b50905060008060009050600091505b6007548210156106ed578573ffffffffffffffffffffffffffffffffffffffff1661069d83610e15565b73ffffffffffffffffffffffffffffffffffffffff1614156106da57818382815181106106cd576106cc613133565b5b6020026020010181815250505b81806106e590613191565b925050610673565b829450505050505b919050565b60007f80ac58cd000000000000000000000000000000000000000000000000000000007bffffffffffffffffffffffffffffffffffffffffffffffffffffffff1916827bffffffffffffffffffffffffffffffffffffffffffffffffffffffff191614806107c557507f5b5e139f000000000000000000000000000000000000000000000000000000007bffffffffffffffffffffffffffffffffffffffffffffffffffffffff1916827bffffffffffffffffffffffffffffffffffffffffffffffffffffffff1916145b806107d557506107d482611997565b5b9050919050565b6060600080546107eb90613209565b80601f016020809104026020016040519081016040528092919081815260200182805461081790613209565b80156108645780601f1061083957610100808354040283529160200191610864565b820191906000526020600020905b81548152906001019060200180831161084757829003601f168201915b5050505050905090565b600061087982611a01565b6108b8576040517f08c379a00000000000000000000000000000000000000000000000000000000081526004016108af906132ad565b60405180910390fd5b6004600083815260200190815260200160002060009054906101000a900473ffffffffffffffffffffffffffffffffffffffff169050919050565b60006108fe82610e15565b90508073ffffffffffffffffffffffffffffffffffffffff168373ffffffffffffffffffffffffffffffffffffffff16141561096f576040517f08c379a00000000000000000000000000000000000000000000000000000000081526004016109669061333f565b60405180910390fd5b8073ffffffffffffffffffffffffffffffffffffffff1661098e611a6d565b73ffffffffffffffffffffffffffffffffffffffff1614806109bd57506109bc816109b7611a6d565b6117f8565b5b6109fc576040517f08c379a00000000000000000000000000000000000000000000000000000000081526004016109f3906133d1565b60405180910390fd5b610a068383611a75565b505050565b610a1481610e15565b73ffffffffffffffffffffffffffffffffffffffff163373ffffffffffffffffffffffffffffffffffffffff1614610a81576040517f08c379a0000000000000000000000000000000000000000000000000000000008152600401610a789061343d565b60405180910390fd5b600060086000838152602001908152602001600020905080600101600581819054906101000a900461ffff1680929190610aba9061345d565b91906101000a81548161ffff021916908361ffff160217905550506000610ae16003611b2e565b90506000811415610b2b5781600101600181819054906101000a900460ff1680929190610b0d90613488565b91906101000a81548160ff021916908360ff16021790555050610c02565b6001811415610b735781600101600281819054906101000a900460ff1680929190610b5590613488565b91906101000a81548160ff021916908360ff16021790555050610c01565b6002811415610bbb5781600101600381819054906101000a900460ff1680929190610b9d90613488565b91906101000a81548160ff021916908360ff16021790555050610c00565b6003811415610bff5781600101600481819054906101000a900460ff1680929190610be590613488565b91906101000a81548160ff021916908360ff160217905550505b5b5b5b505050565b610c0f6125fb565b600860008381526020019081526020016000206040518060e0016040529081600082018054610c3d90613209565b80601f0160208091040260200160405190810160405280929190818152602001828054610c6990613209565b8015610cb65780601f10610c8b57610100808354040283529160200191610cb6565b820191906000526020600020905b815481529060010190602001808311610c9957829003601f168201915b505050505081526020016001820160009054906101000a900460ff166003811115610ce457610ce3612b09565b5b6003811115610cf657610cf5612b09565b5b81526020016001820160019054906101000a900460ff1660ff1660ff1681526020016001820160029054906101000a900460ff1660ff1660ff1681526020016001820160039054906101000a900460ff1660ff1660ff1681526020016001820160049054906101000a900460ff1660ff1660ff1681526020016001820160059054906101000a900461ffff1661ffff1661ffff16815250509050919050565b610da6610da0611a6d565b82611c44565b610de5576040517f08c379a0000000000000000000000000000000000000000000000000000000008152600401610ddc90613524565b60405180910390fd5b610df0838383611d22565b505050565b610e108383836040518060200160405280600081525061145e565b505050565b6000806002600084815260200190815260200160002060009054906101000a900473ffffffffffffffffffffffffffffffffffffffff169050600073ffffffffffffffffffffffffffffffffffffffff168173ffffffffffffffffffffffffffffffffffffffff161415610ebe576040517f08c379a0000000000000000000000000000000000000000000000000000000008152600401610eb5906135b6565b60405180910390fd5b80915050919050565b60008073ffffffffffffffffffffffffffffffffffffffff168273ffffffffffffffffffffffffffffffffffffffff161415610f38576040517f08c379a0000000000000000000000000000000000000000000000000000000008152600401610f2f90613648565b60405180910390fd5b600360008373ffffffffffffffffffffffffffffffffffffffff1673ffffffffffffffffffffffffffffffffffffffff168152602001908152602001600020549050919050565b610f87611a6d565b73ffffffffffffffffffffffffffffffffffffffff16610fa5611017565b73ffffffffffffffffffffffffffffffffffffffff1614610ffb576040517f08c379a0000000000000000000000000000000000000000000000000000000008152600401610ff2906136b4565b60405180910390fd5b6110056000611f7e565b565b6060611012336105b0565b905090565b6000600660009054906101000a900473ffffffffffffffffffffffffffffffffffffffff16905090565b611049611a6d565b73ffffffffffffffffffffffffffffffffffffffff16611067611017565b73ffffffffffffffffffffffffffffffffffffffff16146110bd576040517f08c379a00000000000000000000000000000000000000000000000000000000081526004016110b4906136b4565b60405180910390fd5b6110c933600754612044565b6040518060e001604052808781526020018660038111156110ed576110ec612b09565b5b81526020018560ff1681526020018460ff1681526020018360ff1681526020018260ff168152602001600161ffff16815250600860006007548152602001908152602001600020600082015181600001908051906020019061115092919061265a565b5060208201518160010160006101000a81548160ff0219169083600381111561117c5761117b612b09565b5b021790555060408201518160010160016101000a81548160ff021916908360ff16021790555060608201518160010160026101000a81548160ff021916908360ff16021790555060808201518160010160036101000a81548160ff021916908360ff16021790555060a08201518160010160046101000a81548160ff021916908360ff16021790555060c08201518160010160056101000a81548161ffff021916908361ffff1602179055509050506007600081548092919061123e90613191565b9190505550505050505050565b60606001805461125a90613209565b80601f016020809104026020016040519081016040528092919081815260200182805461128690613209565b80156112d35780601f106112a8576101008083540402835291602001916112d3565b820191906000526020600020905b8154815290600101906020018083116112b657829003601f168201915b5050505050905090565b6112e5611a6d565b73ffffffffffffffffffffffffffffffffffffffff168273ffffffffffffffffffffffffffffffffffffffff161415611353576040517f08c379a000000000000000000000000000000000000000000000000000000000815260040161134a90613720565b60405180910390fd5b8060056000611360611a6d565b73ffffffffffffffffffffffffffffffffffffffff1673ffffffffffffffffffffffffffffffffffffffff16815260200190815260200160002060008473ffffffffffffffffffffffffffffffffffffffff1673ffffffffffffffffffffffffffffffffffffffff16815260200190815260200160002060006101000a81548160ff0219169083151502179055508173ffffffffffffffffffffffffffffffffffffffff1661140d611a6d565b73ffffffffffffffffffffffffffffffffffffffff167f17307eab39ab6107e8899845ad3d59bd9653f200f220920489ca2b5937696c31836040516114529190612926565b60405180910390a35050565b61146f611469611a6d565b83611c44565b6114ae576040517f08c379a00000000000000000000000000000000000000000000000000000000081526004016114a590613524565b60405180910390fd5b6114ba84848484612062565b50505050565b6114c982610e15565b73ffffffffffffffffffffffffffffffffffffffff163373ffffffffffffffffffffffffffffffffffffffff1614611536576040517f08c379a000000000000000000000000000000000000000000000000000000000815260040161152d9061343d565b60405180910390fd5b60008111611579576040517f08c379a00000000000000000000000000000000000000000000000000000000081526004016115709061378c565b60405180910390fd5b8060096000848152602001908152602001600020819055505050565b60606115a082611a01565b6115df576040517f08c379a00000000000000000000000000000000000000000000000000000000081526004016115d69061381e565b60405180910390fd5b60006115e96120be565b905060008151116116095760405180602001604052806000815250611634565b80611613846120d5565b60405160200161162492919061387a565b6040516020818303038152906040525b915050919050565b61164581610e15565b73ffffffffffffffffffffffffffffffffffffffff163373ffffffffffffffffffffffffffffffffffffffff16146116b2576040517f08c379a00000000000000000000000000000000000000000000000000000000081526004016116a99061343d565b60405180910390fd5b6000600960008381526020019081526020016000208190555050565b60006009600083815260200190815260200160002054905060008111611729576040517f08c379a0000000000000000000000000000000000000000000000000000000008152600401611720906138ea565b60405180910390fd5b80341461176b576040517f08c379a000000000000000000000000000000000000000000000000000000000815260040161176290613956565b60405180910390fd5b600061177683610e15565b90508073ffffffffffffffffffffffffffffffffffffffff166108fc349081150290604051600060405180830381858888f193505050501580156117be573d6000803e3d6000fd5b506117da81338560405180602001604052806000815250612062565b60006009600085815260200190815260200160002081905550505050565b6000600560008473ffffffffffffffffffffffffffffffffffffffff1673ffffffffffffffffffffffffffffffffffffffff16815260200190815260200160002060008373ffffffffffffffffffffffffffffffffffffffff1673ffffffffffffffffffffffffffffffffffffffff16815260200190815260200160002060009054906101000a900460ff16905092915050565b611894611a6d565b73ffffffffffffffffffffffffffffffffffffffff166118b2611017565b73ffffffffffffffffffffffffffffffffffffffff1614611908576040517f08c379a00000000000000000000000000000000000000000000000000000000081526004016118ff906136b4565b60405180910390fd5b600073ffffffffffffffffffffffffffffffffffffffff168173ffffffffffffffffffffffffffffffffffffffff161415611978576040517f08c379a000000000000000000000000000000000000000000000000000000000815260040161196f906139e8565b60405180910390fd5b61198181611f7e565b50565b600080823b905060008111915050919050565b60007f01ffc9a7000000000000000000000000000000000000000000000000000000007bffffffffffffffffffffffffffffffffffffffffffffffffffffffff1916827bffffffffffffffffffffffffffffffffffffffffffffffffffffffff1916149050919050565b60008073ffffffffffffffffffffffffffffffffffffffff166002600084815260200190815260200160002060009054906101000a900473ffffffffffffffffffffffffffffffffffffffff1673ffffffffffffffffffffffffffffffffffffffff1614159050919050565b600033905090565b816004600083815260200190815260200160002060006101000a81548173ffffffffffffffffffffffffffffffffffffffff021916908373ffffffffffffffffffffffffffffffffffffffff160217905550808273ffffffffffffffffffffffffffffffffffffffff16611ae883610e15565b73ffffffffffffffffffffffffffffffffffffffff167f8c5be1e5ebec7d5bd14f71427d1e84f3dd0314c0f7b2291e5b200ac8c7c3b92560405160405180910390a45050565b600080434233604051602001611b449190613a50565b6040516020818303038152906040528051906020012060001c611b679190613a9a565b454241604051602001611b7a9190613b06565b6040516020818303038152906040528051906020012060001c611b9d9190613a9a565b4442611ba99190613b21565b611bb39190613b21565b611bbd9190613b21565b611bc79190613b21565b611bd19190613b21565b604051602001611be19190613b98565b6040516020818303038152906040528051906020012060001c9050600183611c099190613bb3565b60ff16600184611c199190613bb3565b60ff1682611c279190613a9a565b611c319190613bea565b81611c3c9190613c44565b915050919050565b6000611c4f82611a01565b611c8e576040517f08c379a0000000000000000000000000000000000000000000000000000000008152600401611c8590613cea565b60405180910390fd5b6000611c9983610e15565b90508073ffffffffffffffffffffffffffffffffffffffff168473ffffffffffffffffffffffffffffffffffffffff161480611d0857508373ffffffffffffffffffffffffffffffffffffffff16611cf08461086e565b73ffffffffffffffffffffffffffffffffffffffff16145b80611d195750611d1881856117f8565b5b91505092915050565b8273ffffffffffffffffffffffffffffffffffffffff16611d4282610e15565b73ffffffffffffffffffffffffffffffffffffffff1614611d98576040517f08c379a0000000000000000000000000000000000000000000000000000000008152600401611d8f90613d7c565b60405180910390fd5b600073ffffffffffffffffffffffffffffffffffffffff168273ffffffffffffffffffffffffffffffffffffffff161415611e08576040517f08c379a0000000000000000000000000000000000000000000000000000000008152600401611dff90613e0e565b60405180910390fd5b611e13838383612236565b611e1e600082611a75565b6001600360008573ffffffffffffffffffffffffffffffffffffffff1673ffffffffffffffffffffffffffffffffffffffff1681526020019081526020016000206000828254611e6e9190613c44565b925050819055506001600360008473ffffffffffffffffffffffffffffffffffffffff1673ffffffffffffffffffffffffffffffffffffffff1681526020019081526020016000206000828254611ec59190613b21565b92505081905550816002600083815260200190815260200160002060006101000a81548173ffffffffffffffffffffffffffffffffffffffff021916908373ffffffffffffffffffffffffffffffffffffffff160217905550808273ffffffffffffffffffffffffffffffffffffffff168473ffffffffffffffffffffffffffffffffffffffff167fddf252ad1be2c89b69c2b068fc378daa952ba7f163c4a11628f55a4df523b3ef60405160405180910390a4505050565b6000600660009054906101000a900473ffffffffffffffffffffffffffffffffffffffff16905081600660006101000a81548173ffffffffffffffffffffffffffffffffffffffff021916908373ffffffffffffffffffffffffffffffffffffffff1602179055508173ffffffffffffffffffffffffffffffffffffffff168173ffffffffffffffffffffffffffffffffffffffff167f8be0079c531659141344cd1fd0a4f28419497f9722a3daafe3b4186f6b6457e060405160405180910390a35050565b61205e82826040518060200160405280600081525061223b565b5050565b61206d848484611d22565b61207984848484612296565b6120b8576040517f08c379a00000000000000000000000000000000000000000000000000000000081526004016120af90613ea0565b60405180910390fd5b50505050565b606060405180602001604052806000815250905090565b6060600082141561211d576040518060400160405280600181526020017f30000000000000000000000000000000000000000000000000000000000000008152509050612231565b600082905060005b6000821461214f57808061213890613191565b915050600a826121489190613a9a565b9150612125565b60008167ffffffffffffffff81111561216b5761216a612cfe565b5b6040519080825280601f01601f19166020018201604052801561219d5781602001600182028036833780820191505090505b5090505b6000851461222a576001826121b69190613c44565b9150600a856121c59190613ec0565b60306121d19190613b21565b60f81b8183815181106121e7576121e6613133565b5b60200101907effffffffffffffffffffffffffffffffffffffffffffffffffffffffffffff1916908160001a905350600a856122239190613a9a565b94506121a1565b8093505050505b919050565b505050565b612245838361242d565b6122526000848484612296565b612291576040517f08c379a000000000000000000000000000000000000000000000000000000000815260040161228890613ea0565b60405180910390fd5b505050565b60006122b78473ffffffffffffffffffffffffffffffffffffffff16611984565b15612420578373ffffffffffffffffffffffffffffffffffffffff1663150b7a026122e0611a6d565b8786866040518563ffffffff1660e01b81526004016123029493929190613f46565b602060405180830381600087803b15801561231c57600080fd5b505af192505050801561234d57506040513d601f19601f8201168201806040525081019061234a9190613fa7565b60015b6123d0573d806000811461237d576040519150601f19603f3d011682016040523d82523d6000602084013e612382565b606091505b506000815114156123c8576040517f08c379a00000000000000000000000000000000000000000000000000000000081526004016123bf90613ea0565b60405180910390fd5b805181602001fd5b63150b7a0260e01b7bffffffffffffffffffffffffffffffffffffffffffffffffffffffff1916817bffffffffffffffffffffffffffffffffffffffffffffffffffffffff191614915050612425565b600190505b949350505050565b600073ffffffffffffffffffffffffffffffffffffffff168273ffffffffffffffffffffffffffffffffffffffff16141561249d576040517f08c379a000000000000000000000000000000000000000000000000000000000815260040161249490614020565b60405180910390fd5b6124a681611a01565b156124e6576040517f08c379a00000000000000000000000000000000000000000000000000000000081526004016124dd9061408c565b60405180910390fd5b6124f260008383612236565b6001600360008473ffffffffffffffffffffffffffffffffffffffff1673ffffffffffffffffffffffffffffffffffffffff16815260200190815260200160002060008282546125429190613b21565b92505081905550816002600083815260200190815260200160002060006101000a81548173ffffffffffffffffffffffffffffffffffffffff021916908373ffffffffffffffffffffffffffffffffffffffff160217905550808273ffffffffffffffffffffffffffffffffffffffff16600073ffffffffffffffffffffffffffffffffffffffff167fddf252ad1be2c89b69c2b068fc378daa952ba7f163c4a11628f55a4df523b3ef60405160405180910390a45050565b6040518060e00160405280606081526020016000600381111561262157612620612b09565b5b8152602001600060ff168152602001600060ff168152602001600060ff168152602001600060ff168152602001600061ffff1681525090565b82805461266690613209565b90600052602060002090601f01602090048101928261268857600085556126cf565b82601f106126a157805160ff19168380011785556126cf565b828001600101855582156126cf579182015b828111156126ce5782518255916020019190600101906126b3565b5b5090506126dc91906126e0565b5090565b5b808211156126f95760008160009055506001016126e1565b5090565b6000604051905090565b600080fd5b600080fd5b600073ffffffffffffffffffffffffffffffffffffffff82169050919050565b600061273c82612711565b9050919050565b61274c81612731565b811461275757600080fd5b50565b60008135905061276981612743565b92915050565b60006020828403121561278557612784612707565b5b60006127938482850161275a565b91505092915050565b600081519050919050565b600082825260208201905092915050565b6000819050602082019050919050565b6000819050919050565b6127db816127c8565b82525050565b60006127ed83836127d2565b60208301905092915050565b6000602082019050919050565b60006128118261279c565b61281b81856127a7565b9350612826836127b8565b8060005b8381101561285757815161283e88826127e1565b9750612849836127f9565b92505060018101905061282a565b5085935050505092915050565b6000602082019050818103600083015261287e8184612806565b905092915050565b60007fffffffff0000000000000000000000000000000000000000000000000000000082169050919050565b6128bb81612886565b81146128c657600080fd5b50565b6000813590506128d8816128b2565b92915050565b6000602082840312156128f4576128f3612707565b5b6000612902848285016128c9565b91505092915050565b60008115159050919050565b6129208161290b565b82525050565b600060208201905061293b6000830184612917565b92915050565b600081519050919050565b600082825260208201905092915050565b60005b8381101561297b578082015181840152602081019050612960565b8381111561298a576000848401525b50505050565b6000601f19601f8301169050919050565b60006129ac82612941565b6129b6818561294c565b93506129c681856020860161295d565b6129cf81612990565b840191505092915050565b600060208201905081810360008301526129f481846129a1565b905092915050565b612a05816127c8565b8114612a1057600080fd5b50565b600081359050612a22816129fc565b92915050565b600060208284031215612a3e57612a3d612707565b5b6000612a4c84828501612a13565b91505092915050565b612a5e81612731565b82525050565b6000602082019050612a796000830184612a55565b92915050565b60008060408385031215612a9657612a95612707565b5b6000612aa48582860161275a565b9250506020612ab585828601612a13565b9150509250929050565b600082825260208201905092915050565b6000612adb82612941565b612ae58185612abf565b9350612af581856020860161295d565b612afe81612990565b840191505092915050565b7f4e487b7100000000000000000000000000000000000000000000000000000000600052602160045260246000fd5b60048110612b4957612b48612b09565b5b50565b6000819050612b5a82612b38565b919050565b6000612b6a82612b4c565b9050919050565b612b7a81612b5f565b82525050565b600060ff82169050919050565b612b9681612b80565b82525050565b600061ffff82169050919050565b612bb381612b9c565b82525050565b600060e0830160008301518482036000860152612bd68282612ad0565b9150506020830151612beb6020860182612b71565b506040830151612bfe6040860182612b8d565b506060830151612c116060860182612b8d565b506080830151612c246080860182612b8d565b5060a0830151612c3760a0860182612b8d565b5060c0830151612c4a60c0860182612baa565b508091505092915050565b60006020820190508181036000830152612c6f8184612bb9565b905092915050565b600080600060608486031215612c9057612c8f612707565b5b6000612c9e8682870161275a565b9350506020612caf8682870161275a565b9250506040612cc086828701612a13565b9150509250925092565b612cd3816127c8565b82525050565b6000602082019050612cee6000830184612cca565b92915050565b600080fd5b600080fd5b7f4e487b7100000000000000000000000000000000000000000000000000000000600052604160045260246000fd5b612d3682612990565b810181811067ffffffffffffffff82111715612d5557612d54612cfe565b5b80604052505050565b6000612d686126fd565b9050612d748282612d2d565b919050565b600067ffffffffffffffff821115612d9457612d93612cfe565b5b612d9d82612990565b9050602081019050919050565b82818337600083830152505050565b6000612dcc612dc784612d79565b612d5e565b905082815260208101848484011115612de857612de7612cf9565b5b612df3848285612daa565b509392505050565b600082601f830112612e1057612e0f612cf4565b5b8135612e20848260208601612db9565b91505092915050565b60048110612e3657600080fd5b50565b600081359050612e4881612e29565b92915050565b612e5781612b80565b8114612e6257600080fd5b50565b600081359050612e7481612e4e565b92915050565b60008060008060008060c08789031215612e9757612e96612707565b5b600087013567ffffffffffffffff811115612eb557612eb461270c565b5b612ec189828a01612dfb565b9650506020612ed289828a01612e39565b9550506040612ee389828a01612e65565b9450506060612ef489828a01612e65565b9350506080612f0589828a01612e65565b92505060a0612f1689828a01612e65565b9150509295509295509295565b612f2c8161290b565b8114612f3757600080fd5b50565b600081359050612f4981612f23565b92915050565b60008060408385031215612f6657612f65612707565b5b6000612f748582860161275a565b9250506020612f8585828601612f3a565b9150509250929050565b600067ffffffffffffffff821115612faa57612fa9612cfe565b5b612fb382612990565b9050602081019050919050565b6000612fd3612fce84612f8f565b612d5e565b905082815260208101848484011115612fef57612fee612cf9565b5b612ffa848285612daa565b509392505050565b600082601f83011261301757613016612cf4565b5b8135613027848260208601612fc0565b91505092915050565b6000806000806080858703121561304a57613049612707565b5b60006130588782880161275a565b94505060206130698782880161275a565b935050604061307a87828801612a13565b925050606085013567ffffffffffffffff81111561309b5761309a61270c565b5b6130a787828801613002565b91505092959194509250565b600080604083850312156130ca576130c9612707565b5b60006130d885828601612a13565b92505060206130e985828601612a13565b9150509250929050565b6000806040838503121561310a57613109612707565b5b60006131188582860161275a565b92505060206131298582860161275a565b9150509250929050565b7f4e487b7100000000000000000000000000000000000000000000000000000000600052603260045260246000fd5b7f4e487b7100000000000000000000000000000000000000000000000000000000600052601160045260246000fd5b600061319c826127c8565b91507fffffffffffffffffffffffffffffffffffffffffffffffffffffffffffffffff8214156131cf576131ce613162565b5b600182019050919050565b7f4e487b7100000000000000000000000000000000000000000000000000000000600052602260045260246000fd5b6000600282049050600182168061322157607f821691505b60208210811415613235576132346131da565b5b50919050565b7f4552433732313a20617070726f76656420717565727920666f72206e6f6e657860008201527f697374656e7420746f6b656e0000000000000000000000000000000000000000602082015250565b6000613297602c8361294c565b91506132a28261323b565b604082019050919050565b600060208201905081810360008301526132c68161328a565b9050919050565b7f4552433732313a20617070726f76616c20746f2063757272656e74206f776e6560008201527f7200000000000000000000000000000000000000000000000000000000000000602082015250565b600061332960218361294c565b9150613334826132cd565b604082019050919050565b600060208201905081810360008301526133588161331c565b9050919050565b7f4552433732313a20617070726f76652063616c6c6572206973206e6f74206f7760008201527f6e6572206e6f7220617070726f76656420666f7220616c6c0000000000000000602082015250565b60006133bb60388361294c565b91506133c68261335f565b604082019050919050565b600060208201905081810360008301526133ea816133ae565b9050919050565b7f4e6f74206f776e6572206f662074686973206865726f00000000000000000000600082015250565b600061342760168361294c565b9150613432826133f1565b602082019050919050565b600060208201905081810360008301526134568161341a565b9050919050565b600061346882612b9c565b915061ffff82141561347d5761347c613162565b5b600182019050919050565b600061349382612b80565b915060ff8214156134a7576134a6613162565b5b600182019050919050565b7f4552433732313a207472616e736665722063616c6c6572206973206e6f74206f60008201527f776e6572206e6f7220617070726f766564000000000000000000000000000000602082015250565b600061350e60318361294c565b9150613519826134b2565b604082019050919050565b6000602082019050818103600083015261353d81613501565b9050919050565b7f4552433732313a206f776e657220717565727920666f72206e6f6e657869737460008201527f656e7420746f6b656e0000000000000000000000000000000000000000000000602082015250565b60006135a060298361294c565b91506135ab82613544565b604082019050919050565b600060208201905081810360008301526135cf81613593565b9050919050565b7f4552433732313a2062616c616e636520717565727920666f7220746865207a6560008201527f726f206164647265737300000000000000000000000000000000000000000000602082015250565b6000613632602a8361294c565b915061363d826135d6565b604082019050919050565b6000602082019050818103600083015261366181613625565b9050919050565b7f4f776e61626c653a2063616c6c6572206973206e6f7420746865206f776e6572600082015250565b600061369e60208361294c565b91506136a982613668565b602082019050919050565b600060208201905081810360008301526136cd81613691565b9050919050565b7f4552433732313a20617070726f766520746f2063616c6c657200000000000000600082015250565b600061370a60198361294c565b9150613715826136d4565b602082019050919050565b60006020820190508181036000830152613739816136fd565b9050919050565b7f5072696365207a65726f00000000000000000000000000000000000000000000600082015250565b6000613776600a8361294c565b915061378182613740565b602082019050919050565b600060208201905081810360008301526137a581613769565b9050919050565b7f4552433732314d657461646174613a2055524920717565727920666f72206e6f60008201527f6e6578697374656e7420746f6b656e0000000000000000000000000000000000602082015250565b6000613808602f8361294c565b9150613813826137ac565b604082019050919050565b60006020820190508181036000830152613837816137fb565b9050919050565b600081905092915050565b600061385482612941565b61385e818561383e565b935061386e81856020860161295d565b80840191505092915050565b60006138868285613849565b91506138928284613849565b91508190509392505050565b7f54686973206865726f206973206e6f7420666f722073616c6500000000000000600082015250565b60006138d460198361294c565b91506138df8261389e565b602082019050919050565b60006020820190508181036000830152613903816138c7565b9050919050565b7f496e636f72726563742076616c75650000000000000000000000000000000000600082015250565b6000613940600f8361294c565b915061394b8261390a565b602082019050919050565b6000602082019050818103600083015261396f81613933565b9050919050565b7f4f776e61626c653a206e6577206f776e657220697320746865207a65726f206160008201527f6464726573730000000000000000000000000000000000000000000000000000602082015250565b60006139d260268361294c565b91506139dd82613976565b604082019050919050565b60006020820190508181036000830152613a01816139c5565b9050919050565b60008160601b9050919050565b6000613a2082613a08565b9050919050565b6000613a3282613a15565b9050919050565b613a4a613a4582612731565b613a27565b82525050565b6000613a5c8284613a39565b60148201915081905092915050565b7f4e487b7100000000000000000000000000000000000000000000000000000000600052601260045260246000fd5b6000613aa5826127c8565b9150613ab0836127c8565b925082613ac057613abf613a6b565b5b828204905092915050565b6000613ad682612711565b9050919050565b6000613ae882613a15565b9050919050565b613b00613afb82613acb565b613add565b82525050565b6000613b128284613aef565b60148201915081905092915050565b6000613b2c826127c8565b9150613b37836127c8565b9250827fffffffffffffffffffffffffffffffffffffffffffffffffffffffffffffffff03821115613b6c57613b6b613162565b5b828201905092915050565b6000819050919050565b613b92613b8d826127c8565b613b77565b82525050565b6000613ba48284613b81565b60208201915081905092915050565b6000613bbe82612b80565b9150613bc983612b80565b92508260ff03821115613bdf57613bde613162565b5b828201905092915050565b6000613bf5826127c8565b9150613c00836127c8565b9250817fffffffffffffffffffffffffffffffffffffffffffffffffffffffffffffffff0483118215151615613c3957613c38613162565b5b828202905092915050565b6000613c4f826127c8565b9150613c5a836127c8565b925082821015613c6d57613c6c613162565b5b828203905092915050565b7f4552433732313a206f70657261746f7220717565727920666f72206e6f6e657860008201527f697374656e7420746f6b656e0000000000000000000000000000000000000000602082015250565b6000613cd4602c8361294c565b9150613cdf82613c78565b604082019050919050565b60006020820190508181036000830152613d0381613cc7565b9050919050565b7f4552433732313a207472616e73666572206f6620746f6b656e2074686174206960008201527f73206e6f74206f776e0000000000000000000000000000000000000000000000602082015250565b6000613d6660298361294c565b9150613d7182613d0a565b604082019050919050565b60006020820190508181036000830152613d9581613d59565b9050919050565b7f4552433732313a207472616e7366657220746f20746865207a65726f2061646460008201527f7265737300000000000000000000000000000000000000000000000000000000602082015250565b6000613df860248361294c565b9150613e0382613d9c565b604082019050919050565b60006020820190508181036000830152613e2781613deb565b9050919050565b7f4552433732313a207472616e7366657220746f206e6f6e20455243373231526560008201527f63656976657220696d706c656d656e7465720000000000000000000000000000602082015250565b6000613e8a60328361294c565b9150613e9582613e2e565b604082019050919050565b60006020820190508181036000830152613eb981613e7d565b9050919050565b6000613ecb826127c8565b9150613ed6836127c8565b925082613ee657613ee5613a6b565b5b828206905092915050565b600081519050919050565b600082825260208201905092915050565b6000613f1882613ef1565b613f228185613efc565b9350613f3281856020860161295d565b613f3b81612990565b840191505092915050565b6000608082019050613f5b6000830187612a55565b613f686020830186612a55565b613f756040830185612cca565b8181036060830152613f878184613f0d565b905095945050505050565b600081519050613fa1816128b2565b92915050565b600060208284031215613fbd57613fbc612707565b5b6000613fcb84828501613f92565b91505092915050565b7f4552433732313a206d696e7420746f20746865207a65726f2061646472657373600082015250565b600061400a60208361294c565b915061401582613fd4565b602082019050919050565b6000602082019050818103600083015261403981613ffd565b9050919050565b7f4552433732313a20746f6b656e20616c7265616479206d696e74656400000000600082015250565b6000614076601c8361294c565b915061408182614040565b602082019050919050565b600060208201905081810360008301526140a581614069565b905091905056fea2646970667358221220e6e844268786c9369c0c2cc245bc2aad2bf215d87d1099a8643aff87e54a0fd664736f6c63430008090033",
  "immutableReferences": {},
  "source": "pragma solidity 0.8.9;\n\nimport \"../node_modules/@openzeppelin/contracts/token/ERC721/ERC721.sol\";\nimport \"../node_modules/@openzeppelin/contracts/access/Ownable.sol\";\n\ncontract GameToken is ERC721, Ownable {\n    enum HeroType {\n        TANK,\n        ROGUE,\n        MAGE,\n        FIGHTER\n    }\n    enum HeroRarity {\n        COMMON,\n        UNCOMMON,\n        LEGENDARY\n    }\n\n    struct Hero {\n        string name;\n        HeroType heroType;\n        uint8 str;\n        uint8 con;\n        uint8 dex;\n        uint8 inte;\n        uint16 level;\n    }\n\n    uint256 private _currentHeroId = 0;\n\n    mapping(uint256 => Hero) private _heroes;\n    mapping(uint256 => uint256) private _sellingHeroes;\n\n    constructor(string memory name, string memory symbol) ERC721(name, symbol) {\n        mint(\"first one\", HeroType.TANK, 1, 1, 1, 1);\n        mint(\"second one\", HeroType.ROGUE, 1, 1, 1, 1);\n        mint(\"third one\", HeroType.MAGE, 1, 1, 1, 1);\n    }\n\n    function mint(\n        string memory name,\n        HeroType heroType,\n        uint8 str,\n        uint8 con,\n        uint8 dex,\n        uint8 inte\n    ) public onlyOwner {\n        _safeMint(msg.sender, _currentHeroId);\n        _heroes[_currentHeroId] = Hero(name, heroType, str, con, dex, inte, 1);\n\n        _currentHeroId++;\n    }\n\n    function getHeroesByAddress(address owner)\n        public\n        view\n        returns (uint256[] memory)\n    {\n        uint256 heroCount = balanceOf(owner);\n\n        if (heroCount == 0) {\n            return new uint256[](0);\n        } else {\n            uint256[] memory ret = new uint256[](heroCount);\n            uint256 i;\n            uint256 curIndex = 0;\n\n            for (i = 0; i < _currentHeroId; i++) {\n                if (ownerOf(i) == owner) {\n                    ret[curIndex] = i;\n                }\n            }\n\n            return ret;\n        }\n    }\n\n    function getMyHeroes() external view returns (uint256[] memory) {\n        return getHeroesByAddress(msg.sender);\n    }\n\n    function getHero(uint256 _heroId) external view returns (Hero memory) {\n        return _heroes[_heroId];\n    }\n\n    function levelUp(uint256 _heroId) external {\n        require(msg.sender == ownerOf(_heroId), \"Not owner of this hero\");\n\n        Hero storage hero = _heroes[_heroId];\n\n        hero.level++;\n\n        uint256 random = rand(3);\n\n        if (random == 0) {\n            hero.str++;\n        } else if (random == 1) {\n            hero.con++;\n        } else if (random == 2) {\n            hero.dex++;\n        } else if (random == 3) {\n            hero.inte++;\n        }\n    }\n\n    function allowBuy(uint256 _heroId, uint256 _price) external {\n        require(msg.sender == ownerOf(_heroId), \"Not owner of this hero\");\n        require(_price > 0, \"Price zero\");\n        _sellingHeroes[_heroId] = _price;\n    }\n\n    function disallowBuy(uint256 _heroId) external {\n        require(msg.sender == ownerOf(_heroId), \"Not owner of this hero\");\n        _sellingHeroes[_heroId] = 0;\n    }\n\n    function buy(uint256 _heroId) external payable {\n        uint256 price = _sellingHeroes[_heroId];\n        require(price > 0, \"This hero is not for sale\");\n        require(msg.value == price, \"Incorrect value\");\n\n        address seller = ownerOf(_heroId);\n\n        payable(seller).transfer(msg.value);\n\n        _safeTransfer(seller, msg.sender, _heroId, \"\");\n        _sellingHeroes[_heroId] = 0;\n    }\n\n    function rand(uint8 limit) private view returns (uint256) {\n        uint256 seed = uint256(\n            keccak256(\n                abi.encodePacked(\n                    block.timestamp +\n                        block.difficulty +\n                        ((\n                            uint256(keccak256(abi.encodePacked(block.coinbase)))\n                        ) / (block.timestamp)) +\n                        block.gaslimit +\n                        ((uint256(keccak256(abi.encodePacked(msg.sender)))) /\n                            (block.timestamp)) +\n                        block.number\n                )\n            )\n        );\n\n        return (seed - ((seed / (limit + 1)) * (limit + 1)));\n    }\n}\n",
  "sourcePath": "/home/rfaita/game/contract/contracts/GameToken.sol",
  "compiler": {
    "name": "solc",
    "version": "0.8.9+commit.e5eed63a.Emscripten.clang"
  },
  "schemaVersion": "3.4.3",
  "updatedAt": "2021-11-05T19:07:05.025Z",
  "networkType": "ethereum",
  "devdoc": {
    "kind": "dev",
    "methods": {
      "approve(address,uint256)": {
        "details": "See {IERC721-approve}."
      },
      "balanceOf(address)": {
        "details": "See {IERC721-balanceOf}."
      },
      "getApproved(uint256)": {
        "details": "See {IERC721-getApproved}."
      },
      "isApprovedForAll(address,address)": {
        "details": "See {IERC721-isApprovedForAll}."
      },
      "name()": {
        "details": "See {IERC721Metadata-name}."
      },
      "owner()": {
        "details": "Returns the address of the current owner."
      },
      "ownerOf(uint256)": {
        "details": "See {IERC721-ownerOf}."
      },
      "renounceOwnership()": {
        "details": "Leaves the contract without owner. It will not be possible to call `onlyOwner` functions anymore. Can only be called by the current owner. NOTE: Renouncing ownership will leave the contract without an owner, thereby removing any functionality that is only available to the owner."
      },
      "safeTransferFrom(address,address,uint256)": {
        "details": "See {IERC721-safeTransferFrom}."
      },
      "safeTransferFrom(address,address,uint256,bytes)": {
        "details": "See {IERC721-safeTransferFrom}."
      },
      "setApprovalForAll(address,bool)": {
        "details": "See {IERC721-setApprovalForAll}."
      },
      "supportsInterface(bytes4)": {
        "details": "See {IERC165-supportsInterface}."
      },
      "symbol()": {
        "details": "See {IERC721Metadata-symbol}."
      },
      "tokenURI(uint256)": {
        "details": "See {IERC721Metadata-tokenURI}."
      },
      "transferFrom(address,address,uint256)": {
        "details": "See {IERC721-transferFrom}."
      },
      "transferOwnership(address)": {
        "details": "Transfers ownership of the contract to a new account (`newOwner`). Can only be called by the current owner."
      }
    },
    "version": 1
  },
  "userdoc": {
    "kind": "user",
    "methods": {},
    "version": 1
  }
}