{
  "contractName": "GameToken",
  "abi": [
    {
      "inputs": [
        {
          "internalType": "string",
          "name": "name",
          "type": "string"
        },
        {
          "internalType": "string",
          "name": "symbol",
          "type": "string"
        },
        {
          "internalType": "string",
          "name": "baseTokenURI",
          "type": "string"
        }
      ],
      "stateMutability": "nonpayable",
      "type": "constructor"
    },
    {
      "anonymous": false,
      "inputs": [
        {
          "indexed": true,
          "internalType": "address",
          "name": "owner",
          "type": "address"
        },
        {
          "indexed": true,
          "internalType": "address",
          "name": "approved",
          "type": "address"
        },
        {
          "indexed": true,
          "internalType": "uint256",
          "name": "tokenId",
          "type": "uint256"
        }
      ],
      "name": "Approval",
      "type": "event"
    },
    {
      "anonymous": false,
      "inputs": [
        {
          "indexed": true,
          "internalType": "address",
          "name": "owner",
          "type": "address"
        },
        {
          "indexed": true,
          "internalType": "address",
          "name": "operator",
          "type": "address"
        },
        {
          "indexed": false,
          "internalType": "bool",
          "name": "approved",
          "type": "bool"
        }
      ],
      "name": "ApprovalForAll",
      "type": "event"
    },
    {
      "anonymous": false,
      "inputs": [
        {
          "indexed": true,
          "internalType": "address",
          "name": "previousOwner",
          "type": "address"
        },
        {
          "indexed": true,
          "internalType": "address",
          "name": "newOwner",
          "type": "address"
        }
      ],
      "name": "OwnershipTransferred",
      "type": "event"
    },
    {
      "anonymous": false,
      "inputs": [
        {
          "indexed": true,
          "internalType": "address",
          "name": "from",
          "type": "address"
        },
        {
          "indexed": true,
          "internalType": "address",
          "name": "to",
          "type": "address"
        },
        {
          "indexed": true,
          "internalType": "uint256",
          "name": "tokenId",
          "type": "uint256"
        }
      ],
      "name": "Transfer",
      "type": "event"
    },
    {
      "inputs": [
        {
          "internalType": "address",
          "name": "to",
          "type": "address"
        },
        {
          "internalType": "uint256",
          "name": "tokenId",
          "type": "uint256"
        }
      ],
      "name": "approve",
      "outputs": [],
      "stateMutability": "nonpayable",
      "type": "function"
    },
    {
      "inputs": [
        {
          "internalType": "address",
          "name": "owner",
          "type": "address"
        }
      ],
      "name": "balanceOf",
      "outputs": [
        {
          "internalType": "uint256",
          "name": "",
          "type": "uint256"
        }
      ],
      "stateMutability": "view",
      "type": "function",
      "constant": true
    },
    {
      "inputs": [
        {
          "internalType": "uint256",
          "name": "tokenId",
          "type": "uint256"
        }
      ],
      "name": "getApproved",
      "outputs": [
        {
          "internalType": "address",
          "name": "",
          "type": "address"
        }
      ],
      "stateMutability": "view",
      "type": "function",
      "constant": true
    },
    {
      "inputs": [
        {
          "internalType": "address",
          "name": "owner",
          "type": "address"
        },
        {
          "internalType": "address",
          "name": "operator",
          "type": "address"
        }
      ],
      "name": "isApprovedForAll",
      "outputs": [
        {
          "internalType": "bool",
          "name": "",
          "type": "bool"
        }
      ],
      "stateMutability": "view",
      "type": "function",
      "constant": true
    },
    {
      "inputs": [],
      "name": "name",
      "outputs": [
        {
          "internalType": "string",
          "name": "",
          "type": "string"
        }
      ],
      "stateMutability": "view",
      "type": "function",
      "constant": true
    },
    {
      "inputs": [],
      "name": "owner",
      "outputs": [
        {
          "internalType": "address",
          "name": "",
          "type": "address"
        }
      ],
      "stateMutability": "view",
      "type": "function",
      "constant": true
    },
    {
      "inputs": [
        {
          "internalType": "uint256",
          "name": "tokenId",
          "type": "uint256"
        }
      ],
      "name": "ownerOf",
      "outputs": [
        {
          "internalType": "address",
          "name": "",
          "type": "address"
        }
      ],
      "stateMutability": "view",
      "type": "function",
      "constant": true
    },
    {
      "inputs": [],
      "name": "renounceOwnership",
      "outputs": [],
      "stateMutability": "nonpayable",
      "type": "function"
    },
    {
      "inputs": [
        {
          "internalType": "address",
          "name": "from",
          "type": "address"
        },
        {
          "internalType": "address",
          "name": "to",
          "type": "address"
        },
        {
          "internalType": "uint256",
          "name": "tokenId",
          "type": "uint256"
        }
      ],
      "name": "safeTransferFrom",
      "outputs": [],
      "stateMutability": "nonpayable",
      "type": "function"
    },
    {
      "inputs": [
        {
          "internalType": "address",
          "name": "from",
          "type": "address"
        },
        {
          "internalType": "address",
          "name": "to",
          "type": "address"
        },
        {
          "internalType": "uint256",
          "name": "tokenId",
          "type": "uint256"
        },
        {
          "internalType": "bytes",
          "name": "_data",
          "type": "bytes"
        }
      ],
      "name": "safeTransferFrom",
      "outputs": [],
      "stateMutability": "nonpayable",
      "type": "function"
    },
    {
      "inputs": [
        {
          "internalType": "address",
          "name": "operator",
          "type": "address"
        },
        {
          "internalType": "bool",
          "name": "approved",
          "type": "bool"
        }
      ],
      "name": "setApprovalForAll",
      "outputs": [],
      "stateMutability": "nonpayable",
      "type": "function"
    },
    {
      "inputs": [
        {
          "internalType": "bytes4",
          "name": "interfaceId",
          "type": "bytes4"
        }
      ],
      "name": "supportsInterface",
      "outputs": [
        {
          "internalType": "bool",
          "name": "",
          "type": "bool"
        }
      ],
      "stateMutability": "view",
      "type": "function",
      "constant": true
    },
    {
      "inputs": [],
      "name": "symbol",
      "outputs": [
        {
          "internalType": "string",
          "name": "",
          "type": "string"
        }
      ],
      "stateMutability": "view",
      "type": "function",
      "constant": true
    },
    {
      "inputs": [
        {
          "internalType": "address",
          "name": "from",
          "type": "address"
        },
        {
          "internalType": "address",
          "name": "to",
          "type": "address"
        },
        {
          "internalType": "uint256",
          "name": "tokenId",
          "type": "uint256"
        }
      ],
      "name": "transferFrom",
      "outputs": [],
      "stateMutability": "nonpayable",
      "type": "function"
    },
    {
      "inputs": [
        {
          "internalType": "address",
          "name": "newOwner",
          "type": "address"
        }
      ],
      "name": "transferOwnership",
      "outputs": [],
      "stateMutability": "nonpayable",
      "type": "function"
    },
    {
      "inputs": [
        {
          "internalType": "address",
          "name": "_newBattleAddress",
          "type": "address"
        }
      ],
      "name": "setBattleAddress",
      "outputs": [],
      "stateMutability": "nonpayable",
      "type": "function"
    },
    {
      "inputs": [],
      "name": "getHeroes",
      "outputs": [
        {
          "components": [
            {
              "internalType": "string",
              "name": "name",
              "type": "string"
            },
            {
              "internalType": "enum GameToken.HeroType",
              "name": "heroType",
              "type": "uint8"
            },
            {
              "internalType": "enum GameToken.HeroRarity",
              "name": "rarity",
              "type": "uint8"
            },
            {
              "internalType": "uint8",
              "name": "str",
              "type": "uint8"
            },
            {
              "internalType": "uint8",
              "name": "con",
              "type": "uint8"
            },
            {
              "internalType": "uint8",
              "name": "dex",
              "type": "uint8"
            },
            {
              "internalType": "uint8",
              "name": "inte",
              "type": "uint8"
            },
            {
              "internalType": "uint8",
              "name": "level",
              "type": "uint8"
            }
          ],
          "internalType": "struct GameToken.Hero[]",
          "name": "",
          "type": "tuple[]"
        }
      ],
      "stateMutability": "view",
      "type": "function",
      "constant": true
    },
    {
      "inputs": [],
      "name": "getCurrentHeroId",
      "outputs": [
        {
          "internalType": "uint256",
          "name": "",
          "type": "uint256"
        }
      ],
      "stateMutability": "view",
      "type": "function",
      "constant": true
    },
    {
      "inputs": [
        {
          "internalType": "enum GameToken.HeroType",
          "name": "_heroType",
          "type": "uint8"
        },
        {
          "internalType": "enum GameToken.HeroRarity",
          "name": "_heroRarity",
          "type": "uint8"
        },
        {
          "internalType": "string",
          "name": "_tokenURI",
          "type": "string"
        }
      ],
      "name": "mint",
      "outputs": [],
      "stateMutability": "nonpayable",
      "type": "function"
    },
    {
      "inputs": [
        {
          "internalType": "address",
          "name": "owner",
          "type": "address"
        }
      ],
      "name": "getHeroesByAddress",
      "outputs": [
        {
          "internalType": "uint256[]",
          "name": "",
          "type": "uint256[]"
        }
      ],
      "stateMutability": "view",
      "type": "function",
      "constant": true
    },
    {
      "inputs": [],
      "name": "getMyHeroes",
      "outputs": [
        {
          "internalType": "uint256[]",
          "name": "",
          "type": "uint256[]"
        }
      ],
      "stateMutability": "view",
      "type": "function",
      "constant": true
    },
    {
      "inputs": [
        {
          "internalType": "uint256",
          "name": "_heroId",
          "type": "uint256"
        }
      ],
      "name": "getHero",
      "outputs": [
        {
          "components": [
            {
              "internalType": "string",
              "name": "name",
              "type": "string"
            },
            {
              "internalType": "enum GameToken.HeroType",
              "name": "heroType",
              "type": "uint8"
            },
            {
              "internalType": "enum GameToken.HeroRarity",
              "name": "rarity",
              "type": "uint8"
            },
            {
              "internalType": "uint8",
              "name": "str",
              "type": "uint8"
            },
            {
              "internalType": "uint8",
              "name": "con",
              "type": "uint8"
            },
            {
              "internalType": "uint8",
              "name": "dex",
              "type": "uint8"
            },
            {
              "internalType": "uint8",
              "name": "inte",
              "type": "uint8"
            },
            {
              "internalType": "uint8",
              "name": "level",
              "type": "uint8"
            }
          ],
          "internalType": "struct GameToken.Hero",
          "name": "",
          "type": "tuple"
        }
      ],
      "stateMutability": "view",
      "type": "function",
      "constant": true
    },
    {
      "inputs": [
        {
          "internalType": "uint256",
          "name": "_heroId",
          "type": "uint256"
        },
        {
          "internalType": "string",
          "name": "_name",
          "type": "string"
        }
      ],
      "name": "setName",
      "outputs": [],
      "stateMutability": "nonpayable",
      "type": "function"
    },
    {
      "inputs": [
        {
          "internalType": "uint256",
          "name": "_heroId",
          "type": "uint256"
        }
      ],
      "name": "levelUp",
      "outputs": [],
      "stateMutability": "nonpayable",
      "type": "function"
    },
    {
      "inputs": [
        {
          "internalType": "uint256",
          "name": "tokenId",
          "type": "uint256"
        }
      ],
      "name": "tokenURI",
      "outputs": [
        {
          "internalType": "string",
          "name": "",
          "type": "string"
        }
      ],
      "stateMutability": "view",
      "type": "function",
      "constant": true
    },
    {
      "inputs": [],
      "name": "receiver",
      "outputs": [],
      "stateMutability": "payable",
      "type": "function",
      "payable": true
    }
  ],
  "bytecode": "0x60806040523480156200001157600080fd5b5060405162005488380380620054888339818101604052810190620000379190620006c6565b8282816000908051906020019062000051929190620003cb565b5080600190805190602001906200006a929190620003cb565b5050506200008d62000081620002fd60201b60201c565b6200030560201b60201c565b80600b9080519060200190620000a5929190620003cb565b506040518060c00160405280600060ff168152602001600160ff168152602001600060ff168152602001600260ff168152602001600360ff168152602001600160ff16815250600c60008060038111156200010557620001046200077f565b5b60038111156200011a57620001196200077f565b5b8152602001908152602001600020906006620001389291906200045c565b506040518060c00160405280600260ff168152602001600260ff168152602001600060ff168152602001600360ff168152602001600060ff168152602001600260ff16815250600c6000600160038111156200019957620001986200077f565b5b6003811115620001ae57620001ad6200077f565b5b8152602001908152602001600020906006620001cc9291906200045c565b506040518060c00160405280600360ff168152602001600360ff168152602001600260ff168152602001600160ff168152602001600060ff168152602001600360ff16815250600c6000600260038111156200022d576200022c6200077f565b5b60038111156200024257620002416200077f565b5b8152602001908152602001600020906006620002609291906200045c565b506040518060c00160405280600160ff168152602001600160ff168152602001600060ff168152602001600260ff168152602001600360ff168152602001600160ff16815250600c6000600380811115620002c057620002bf6200077f565b5b6003811115620002d557620002d46200077f565b5b8152602001908152602001600020906006620002f39291906200045c565b5050505062000813565b600033905090565b6000600760009054906101000a900473ffffffffffffffffffffffffffffffffffffffff16905081600760006101000a81548173ffffffffffffffffffffffffffffffffffffffff021916908373ffffffffffffffffffffffffffffffffffffffff1602179055508173ffffffffffffffffffffffffffffffffffffffff168173ffffffffffffffffffffffffffffffffffffffff167f8be0079c531659141344cd1fd0a4f28419497f9722a3daafe3b4186f6b6457e060405160405180910390a35050565b828054620003d990620007dd565b90600052602060002090601f016020900481019282620003fd576000855562000449565b82601f106200041857805160ff191683800117855562000449565b8280016001018555821562000449579182015b82811115620004485782518255916020019190600101906200042b565b5b5090506200045891906200050a565b5090565b82805482825590600052602060002090601f01602090048101928215620004f75791602002820160005b83821115620004c657835183826101000a81548160ff021916908360ff160217905550926020019260010160208160000104928301926001030262000486565b8015620004f55782816101000a81549060ff0219169055600101602081600001049283019260010302620004c6565b505b5090506200050691906200050a565b5090565b5b80821115620005255760008160009055506001016200050b565b5090565b6000604051905090565b600080fd5b600080fd5b600080fd5b600080fd5b6000601f19601f8301169050919050565b7f4e487b7100000000000000000000000000000000000000000000000000000000600052604160045260246000fd5b620005928262000547565b810181811067ffffffffffffffff82111715620005b457620005b362000558565b5b80604052505050565b6000620005c962000529565b9050620005d7828262000587565b919050565b600067ffffffffffffffff821115620005fa57620005f962000558565b5b620006058262000547565b9050602081019050919050565b60005b838110156200063257808201518184015260208101905062000615565b8381111562000642576000848401525b50505050565b60006200065f6200065984620005dc565b620005bd565b9050828152602081018484840111156200067e576200067d62000542565b5b6200068b84828562000612565b509392505050565b600082601f830112620006ab57620006aa6200053d565b5b8151620006bd84826020860162000648565b91505092915050565b600080600060608486031215620006e257620006e162000533565b5b600084015167ffffffffffffffff81111562000703576200070262000538565b5b620007118682870162000693565b935050602084015167ffffffffffffffff81111562000735576200073462000538565b5b620007438682870162000693565b925050604084015167ffffffffffffffff81111562000767576200076662000538565b5b620007758682870162000693565b9150509250925092565b7f4e487b7100000000000000000000000000000000000000000000000000000000600052602160045260246000fd5b7f4e487b7100000000000000000000000000000000000000000000000000000000600052602260045260246000fd5b60006002820490506001821680620007f657607f821691505b602082108114156200080d576200080c620007ae565b5b50919050565b614c6580620008236000396000f3fe6080604052600436106101805760003560e01c8063715018a6116100d1578063b88d4fde1161008a578063e985e9c511610064578063e985e9c514610591578063f2fde38b146105ce578063f7260d3e146105f7578063fe55932a1461060157610180565b8063b88d4fde14610502578063c721b34b1461052b578063c87b56dd1461055457610180565b8063715018a614610416578063806f52831461042d5780638da5cb5b1461045857806395d89b41146104835780639a8d2882146104ae578063a22cb465146104d957610180565b806310d44ae01161013e57806342842e0e1161011857806342842e0e146103485780636352211e146103715780636d8411b0146103ae57806370a08231146103d957610180565b806310d44ae0146102b957806321d80111146102e257806323b872dd1461031f57610180565b80625597e31461018557806301ffc9a7146101c257806306fdde03146101ff578063081812fc1461022a578063095ea7b3146102675780630ce90ec214610290575b600080fd5b34801561019157600080fd5b506101ac60048036038101906101a79190612fcb565b61062a565b6040516101b991906130c0565b60405180910390f35b3480156101ce57600080fd5b506101e960048036038101906101e4919061313a565b610787565b6040516101f69190613182565b60405180910390f35b34801561020b57600080fd5b50610214610869565b6040516102219190613236565b60405180910390f35b34801561023657600080fd5b50610251600480360381019061024c9190613284565b6108fb565b60405161025e91906132c0565b60405180910390f35b34801561027357600080fd5b5061028e600480360381019061028991906132db565b610980565b005b34801561029c57600080fd5b506102b760048036038101906102b29190613284565b610a98565b005b3480156102c557600080fd5b506102e060048036038101906102db919061349a565b610d4c565b005b3480156102ee57600080fd5b5061030960048036038101906103049190613284565b6112f9565b60405161031691906136de565b60405180910390f35b34801561032b57600080fd5b5061034660048036038101906103419190613700565b6114cf565b005b34801561035457600080fd5b5061036f600480360381019061036a9190613700565b61152f565b005b34801561037d57600080fd5b5061039860048036038101906103939190613284565b61154f565b6040516103a591906132c0565b60405180910390f35b3480156103ba57600080fd5b506103c3611601565b6040516103d09190613762565b60405180910390f35b3480156103e557600080fd5b5061040060048036038101906103fb9190612fcb565b611612565b60405161040d9190613762565b60405180910390f35b34801561042257600080fd5b5061042b6116ca565b005b34801561043957600080fd5b50610442611752565b60405161044f91906130c0565b60405180910390f35b34801561046457600080fd5b5061046d611762565b60405161047a91906132c0565b60405180910390f35b34801561048f57600080fd5b5061049861178c565b6040516104a59190613236565b60405180910390f35b3480156104ba57600080fd5b506104c361181e565b6040516104d091906138ef565b60405180910390f35b3480156104e557600080fd5b5061050060048036038101906104fb919061393d565b611a17565b005b34801561050e57600080fd5b5061052960048036038101906105249190613a1e565b611b98565b005b34801561053757600080fd5b50610552600480360381019061054d9190612fcb565b611bfa565b005b34801561056057600080fd5b5061057b60048036038101906105769190613284565b611cba565b6040516105889190613236565b60405180910390f35b34801561059d57600080fd5b506105b860048036038101906105b39190613aa1565b611cee565b6040516105c59190613182565b60405180910390f35b3480156105da57600080fd5b506105f560048036038101906105f09190612fcb565b611d82565b005b6105ff611e7a565b005b34801561060d57600080fd5b5061062860048036038101906106239190613ae1565b611e7c565b005b6060600061063783611612565b9050600081141561069457600067ffffffffffffffff81111561065d5761065c61336f565b5b60405190808252806020026020018201604052801561068b5781602001602082028036833780820191505090505b50915050610782565b60008167ffffffffffffffff8111156106b0576106af61336f565b5b6040519080825280602002602001820160405280156106de5781602001602082028036833780820191505090505b50905060008060009050600091505b6106f76008611f36565b82101561077a578573ffffffffffffffffffffffffffffffffffffffff1661071e8361154f565b73ffffffffffffffffffffffffffffffffffffffff161415610767578183828061074790613b6c565b93508151811061075a57610759613bb5565b5b6020026020010181815250505b818061077290613b6c565b9250506106ed565b829450505050505b919050565b60007f80ac58cd000000000000000000000000000000000000000000000000000000007bffffffffffffffffffffffffffffffffffffffffffffffffffffffff1916827bffffffffffffffffffffffffffffffffffffffffffffffffffffffff1916148061085257507f5b5e139f000000000000000000000000000000000000000000000000000000007bffffffffffffffffffffffffffffffffffffffffffffffffffffffff1916827bffffffffffffffffffffffffffffffffffffffffffffffffffffffff1916145b80610862575061086182611f44565b5b9050919050565b60606000805461087890613c13565b80601f01602080910402602001604051908101604052809291908181526020018280546108a490613c13565b80156108f15780601f106108c6576101008083540402835291602001916108f1565b820191906000526020600020905b8154815290600101906020018083116108d457829003601f168201915b5050505050905090565b600061090682611fae565b610945576040517f08c379a000000000000000000000000000000000000000000000000000000000815260040161093c90613cb7565b60405180910390fd5b6004600083815260200190815260200160002060009054906101000a900473ffffffffffffffffffffffffffffffffffffffff169050919050565b600061098b8261154f565b90508073ffffffffffffffffffffffffffffffffffffffff168373ffffffffffffffffffffffffffffffffffffffff1614156109fc576040517f08c379a00000000000000000000000000000000000000000000000000000000081526004016109f390613d49565b60405180910390fd5b8073ffffffffffffffffffffffffffffffffffffffff16610a1b61201a565b73ffffffffffffffffffffffffffffffffffffffff161480610a4a5750610a4981610a4461201a565b611cee565b5b610a89576040517f08c379a0000000000000000000000000000000000000000000000000000000008152600401610a8090613ddb565b60405180910390fd5b610a938383612022565b505050565b600073ffffffffffffffffffffffffffffffffffffffff16600960009054906101000a900473ffffffffffffffffffffffffffffffffffffffff1673ffffffffffffffffffffffffffffffffffffffff161415610b2a576040517f08c379a0000000000000000000000000000000000000000000000000000000008152600401610b2190613e47565b60405180910390fd5b600960009054906101000a900473ffffffffffffffffffffffffffffffffffffffff1673ffffffffffffffffffffffffffffffffffffffff163373ffffffffffffffffffffffffffffffffffffffff1614610bba576040517f08c379a0000000000000000000000000000000000000000000000000000000008152600401610bb190613eb3565b60405180910390fd5b6000600a8281548110610bd057610bcf613bb5565b5b9060005260206000209060020201905080600101600681819054906101000a900460ff1680929190610c0190613ed3565b91906101000a81548160ff021916908360ff160217905550506000610c2660036120db565b90506000811415610c705781600101600281819054906101000a900460ff1680929190610c5290613ed3565b91906101000a81548160ff021916908360ff16021790555050610d47565b6001811415610cb85781600101600381819054906101000a900460ff1680929190610c9a90613ed3565b91906101000a81548160ff021916908360ff16021790555050610d46565b6002811415610d005781600101600481819054906101000a900460ff1680929190610ce290613ed3565b91906101000a81548160ff021916908360ff16021790555050610d45565b6003811415610d445781600101600581819054906101000a900460ff1680929190610d2a90613ed3565b91906101000a81548160ff021916908360ff160217905550505b5b5b5b505050565b610d5461201a565b73ffffffffffffffffffffffffffffffffffffffff16610d72611762565b73ffffffffffffffffffffffffffffffffffffffff1614610dc8576040517f08c379a0000000000000000000000000000000000000000000000000000000008152600401610dbf90613f49565b60405180910390fd5b6000610dd46008611f36565b905060008060006003811115610ded57610dec613553565b5b856003811115610e0057610dff613553565b5b1415610e13576004915060069050610e92565b60016003811115610e2757610e26613553565b5b856003811115610e3a57610e39613553565b5b1415610e4d576007915060089050610e91565b60026003811115610e6157610e60613553565b5b856003811115610e7457610e73613553565b5b1415610e875760099150600a9050610e90565b600b9150600c90505b5b5b60008260ff16610eac8484610ea79190613f69565b6120db565b610eb69190613f9d565b90506000600467ffffffffffffffff811115610ed557610ed461336f565b5b604051908082528060200260200182016040528015610f035781602001602082028036833780820191505090505b509050600181600081518110610f1c57610f1b613bb5565b5b602002602001019060ff16908160ff1681525050600181600181518110610f4657610f45613bb5565b5b602002602001019060ff16908160ff1681525050600181600281518110610f7057610f6f613bb5565b5b602002602001019060ff16908160ff1681525050600181600381518110610f9a57610f99613bb5565b5b602002602001019060ff16908160ff1681525050600080600190505b838160ff16116110975782600c60008c6003811115610fd857610fd7613553565b5b6003811115610fea57610fe9613553565b5b81526020019081526020016000208360ff168154811061100d5761100c613bb5565b5b90600052602060002090602091828204019190069054906101000a900460ff1660ff168151811061104157611040613bb5565b5b60200260200101805180919061105690613ed3565b60ff1660ff168152505060058260ff1614156110755760009150611084565b818061108090613ed3565b9250505b808061108f90613ed3565b915050610fb6565b506110a233876121f1565b6110ac868861220f565b600a6040518061010001604052806040518060200160405280600081525081526020018b60038111156110e2576110e1613553565b5b81526020018a60038111156110fa576110f9613553565b5b81526020018460008151811061111357611112613bb5565b5b602002602001015160ff1681526020018460018151811061113757611136613bb5565b5b602002602001015160ff1681526020018460028151811061115b5761115a613bb5565b5b602002602001015160ff1681526020018460038151811061117f5761117e613bb5565b5b602002602001015160ff168152602001600160ff16815250908060018154018082558091505060019003906000526020600020906002020160009091909190915060008201518160000190805190602001906111dc929190612e3e565b5060208201518160010160006101000a81548160ff0219169083600381111561120857611207613553565b5b021790555060408201518160010160016101000a81548160ff0219169083600381111561123857611237613553565b5b021790555060608201518160010160026101000a81548160ff021916908360ff16021790555060808201518160010160036101000a81548160ff021916908360ff16021790555060a08201518160010160046101000a81548160ff021916908360ff16021790555060c08201518160010160056101000a81548160ff021916908360ff16021790555060e08201518160010160066101000a81548160ff021916908360ff16021790555050506112ee6008612283565b505050505050505050565b611301612ec4565b600a828154811061131557611314613bb5565b5b90600052602060002090600202016040518061010001604052908160008201805461133f90613c13565b80601f016020809104026020016040519081016040528092919081815260200182805461136b90613c13565b80156113b85780601f1061138d576101008083540402835291602001916113b8565b820191906000526020600020905b81548152906001019060200180831161139b57829003601f168201915b505050505081526020016001820160009054906101000a900460ff1660038111156113e6576113e5613553565b5b60038111156113f8576113f7613553565b5b81526020016001820160019054906101000a900460ff16600381111561142157611420613553565b5b600381111561143357611432613553565b5b81526020016001820160029054906101000a900460ff1660ff1660ff1681526020016001820160039054906101000a900460ff1660ff1660ff1681526020016001820160049054906101000a900460ff1660ff1660ff1681526020016001820160059054906101000a900460ff1660ff1660ff1681526020016001820160069054906101000a900460ff1660ff1660ff16815250509050919050565b6114e06114da61201a565b82612299565b61151f576040517f08c379a000000000000000000000000000000000000000000000000000000000815260040161151690614065565b60405180910390fd5b61152a838383612377565b505050565b61154a83838360405180602001604052806000815250611b98565b505050565b6000806002600084815260200190815260200160002060009054906101000a900473ffffffffffffffffffffffffffffffffffffffff169050600073ffffffffffffffffffffffffffffffffffffffff168173ffffffffffffffffffffffffffffffffffffffff1614156115f8576040517f08c379a00000000000000000000000000000000000000000000000000000000081526004016115ef906140f7565b60405180910390fd5b80915050919050565b600061160d6008611f36565b905090565b60008073ffffffffffffffffffffffffffffffffffffffff168273ffffffffffffffffffffffffffffffffffffffff161415611683576040517f08c379a000000000000000000000000000000000000000000000000000000000815260040161167a90614189565b60405180910390fd5b600360008373ffffffffffffffffffffffffffffffffffffffff1673ffffffffffffffffffffffffffffffffffffffff168152602001908152602001600020549050919050565b6116d261201a565b73ffffffffffffffffffffffffffffffffffffffff166116f0611762565b73ffffffffffffffffffffffffffffffffffffffff1614611746576040517f08c379a000000000000000000000000000000000000000000000000000000000815260040161173d90613f49565b60405180910390fd5b61175060006125d3565b565b606061175d3361062a565b905090565b6000600760009054906101000a900473ffffffffffffffffffffffffffffffffffffffff16905090565b60606001805461179b90613c13565b80601f01602080910402602001604051908101604052809291908181526020018280546117c790613c13565b80156118145780601f106117e957610100808354040283529160200191611814565b820191906000526020600020905b8154815290600101906020018083116117f757829003601f168201915b5050505050905090565b6060600a805480602002602001604051908101604052809291908181526020016000905b82821015611a0e57838290600052602060002090600202016040518061010001604052908160008201805461187690613c13565b80601f01602080910402602001604051908101604052809291908181526020018280546118a290613c13565b80156118ef5780601f106118c4576101008083540402835291602001916118ef565b820191906000526020600020905b8154815290600101906020018083116118d257829003601f168201915b505050505081526020016001820160009054906101000a900460ff16600381111561191d5761191c613553565b5b600381111561192f5761192e613553565b5b81526020016001820160019054906101000a900460ff16600381111561195857611957613553565b5b600381111561196a57611969613553565b5b81526020016001820160029054906101000a900460ff1660ff1660ff1681526020016001820160039054906101000a900460ff1660ff1660ff1681526020016001820160049054906101000a900460ff1660ff1660ff1681526020016001820160059054906101000a900460ff1660ff1660ff1681526020016001820160069054906101000a900460ff1660ff1660ff168152505081526020019060010190611842565b50505050905090565b611a1f61201a565b73ffffffffffffffffffffffffffffffffffffffff168273ffffffffffffffffffffffffffffffffffffffff161415611a8d576040517f08c379a0000000000000000000000000000000000000000000000000000000008152600401611a84906141f5565b60405180910390fd5b8060056000611a9a61201a565b73ffffffffffffffffffffffffffffffffffffffff1673ffffffffffffffffffffffffffffffffffffffff16815260200190815260200160002060008473ffffffffffffffffffffffffffffffffffffffff1673ffffffffffffffffffffffffffffffffffffffff16815260200190815260200160002060006101000a81548160ff0219169083151502179055508173ffffffffffffffffffffffffffffffffffffffff16611b4761201a565b73ffffffffffffffffffffffffffffffffffffffff167f17307eab39ab6107e8899845ad3d59bd9653f200f220920489ca2b5937696c3183604051611b8c9190613182565b60405180910390a35050565b611ba9611ba361201a565b83612299565b611be8576040517f08c379a0000000000000000000000000000000000000000000000000000000008152600401611bdf90614065565b60405180910390fd5b611bf484848484612699565b50505050565b611c0261201a565b73ffffffffffffffffffffffffffffffffffffffff16611c20611762565b73ffffffffffffffffffffffffffffffffffffffff1614611c76576040517f08c379a0000000000000000000000000000000000000000000000000000000008152600401611c6d90613f49565b60405180910390fd5b80600960006101000a81548173ffffffffffffffffffffffffffffffffffffffff021916908373ffffffffffffffffffffffffffffffffffffffff16021790555050565b6060600b611cc7836126f5565b604051602001611cd89291906142e5565b6040516020818303038152906040529050919050565b6000600560008473ffffffffffffffffffffffffffffffffffffffff1673ffffffffffffffffffffffffffffffffffffffff16815260200190815260200160002060008373ffffffffffffffffffffffffffffffffffffffff1673ffffffffffffffffffffffffffffffffffffffff16815260200190815260200160002060009054906101000a900460ff16905092915050565b611d8a61201a565b73ffffffffffffffffffffffffffffffffffffffff16611da8611762565b73ffffffffffffffffffffffffffffffffffffffff1614611dfe576040517f08c379a0000000000000000000000000000000000000000000000000000000008152600401611df590613f49565b60405180910390fd5b600073ffffffffffffffffffffffffffffffffffffffff168173ffffffffffffffffffffffffffffffffffffffff161415611e6e576040517f08c379a0000000000000000000000000000000000000000000000000000000008152600401611e659061437b565b60405180910390fd5b611e77816125d3565b50565b565b611e858261154f565b73ffffffffffffffffffffffffffffffffffffffff163373ffffffffffffffffffffffffffffffffffffffff1614611ef2576040517f08c379a0000000000000000000000000000000000000000000000000000000008152600401611ee9906143e7565b60405180910390fd5b6000600a8381548110611f0857611f07613bb5565b5b9060005260206000209060020201905081816000019080519060200190611f30929190612e3e565b50505050565b600081600001549050919050565b60007f01ffc9a7000000000000000000000000000000000000000000000000000000007bffffffffffffffffffffffffffffffffffffffffffffffffffffffff1916827bffffffffffffffffffffffffffffffffffffffffffffffffffffffff1916149050919050565b60008073ffffffffffffffffffffffffffffffffffffffff166002600084815260200190815260200160002060009054906101000a900473ffffffffffffffffffffffffffffffffffffffff1673ffffffffffffffffffffffffffffffffffffffff1614159050919050565b600033905090565b816004600083815260200190815260200160002060006101000a81548173ffffffffffffffffffffffffffffffffffffffff021916908373ffffffffffffffffffffffffffffffffffffffff160217905550808273ffffffffffffffffffffffffffffffffffffffff166120958361154f565b73ffffffffffffffffffffffffffffffffffffffff167f8c5be1e5ebec7d5bd14f71427d1e84f3dd0314c0f7b2291e5b200ac8c7c3b92560405160405180910390a45050565b6000804342336040516020016120f1919061444f565b6040516020818303038152906040528051906020012060001c6121149190614499565b4542416040516020016121279190614505565b6040516020818303038152906040528051906020012060001c61214a9190614499565b44426121569190613f9d565b6121609190613f9d565b61216a9190613f9d565b6121749190613f9d565b61217e9190613f9d565b60405160200161218e9190614541565b6040516020818303038152906040528051906020012060001c90506001836121b6919061455c565b60ff166001846121c6919061455c565b60ff16826121d49190614499565b6121de9190614593565b816121e991906145ed565b915050919050565b61220b828260405180602001604052806000815250612847565b5050565b61221882611fae565b612257576040517f08c379a000000000000000000000000000000000000000000000000000000000815260040161224e90614693565b60405180910390fd5b8060066000848152602001908152602001600020908051906020019061227e929190612e3e565b505050565b6001816000016000828254019250508190555050565b60006122a482611fae565b6122e3576040517f08c379a00000000000000000000000000000000000000000000000000000000081526004016122da90614725565b60405180910390fd5b60006122ee8361154f565b90508073ffffffffffffffffffffffffffffffffffffffff168473ffffffffffffffffffffffffffffffffffffffff16148061235d57508373ffffffffffffffffffffffffffffffffffffffff16612345846108fb565b73ffffffffffffffffffffffffffffffffffffffff16145b8061236e575061236d8185611cee565b5b91505092915050565b8273ffffffffffffffffffffffffffffffffffffffff166123978261154f565b73ffffffffffffffffffffffffffffffffffffffff16146123ed576040517f08c379a00000000000000000000000000000000000000000000000000000000081526004016123e4906147b7565b60405180910390fd5b600073ffffffffffffffffffffffffffffffffffffffff168273ffffffffffffffffffffffffffffffffffffffff16141561245d576040517f08c379a000000000000000000000000000000000000000000000000000000000815260040161245490614849565b60405180910390fd5b6124688383836128a2565b612473600082612022565b6001600360008573ffffffffffffffffffffffffffffffffffffffff1673ffffffffffffffffffffffffffffffffffffffff16815260200190815260200160002060008282546124c391906145ed565b925050819055506001600360008473ffffffffffffffffffffffffffffffffffffffff1673ffffffffffffffffffffffffffffffffffffffff168152602001908152602001600020600082825461251a9190613f9d565b92505081905550816002600083815260200190815260200160002060006101000a81548173ffffffffffffffffffffffffffffffffffffffff021916908373ffffffffffffffffffffffffffffffffffffffff160217905550808273ffffffffffffffffffffffffffffffffffffffff168473ffffffffffffffffffffffffffffffffffffffff167fddf252ad1be2c89b69c2b068fc378daa952ba7f163c4a11628f55a4df523b3ef60405160405180910390a4505050565b6000600760009054906101000a900473ffffffffffffffffffffffffffffffffffffffff16905081600760006101000a81548173ffffffffffffffffffffffffffffffffffffffff021916908373ffffffffffffffffffffffffffffffffffffffff1602179055508173ffffffffffffffffffffffffffffffffffffffff168173ffffffffffffffffffffffffffffffffffffffff167f8be0079c531659141344cd1fd0a4f28419497f9722a3daafe3b4186f6b6457e060405160405180910390a35050565b6126a4848484612377565b6126b0848484846128a7565b6126ef576040517f08c379a00000000000000000000000000000000000000000000000000000000081526004016126e6906148db565b60405180910390fd5b50505050565b606061270082611fae565b61273f576040517f08c379a00000000000000000000000000000000000000000000000000000000081526004016127369061496d565b60405180910390fd5b600060066000848152602001908152602001600020805461275f90613c13565b80601f016020809104026020016040519081016040528092919081815260200182805461278b90613c13565b80156127d85780601f106127ad576101008083540402835291602001916127d8565b820191906000526020600020905b8154815290600101906020018083116127bb57829003601f168201915b5050505050905060006127e9612a3e565b90506000815114156127ff578192505050612842565b60008251111561283457808260405160200161281c92919061498d565b60405160208183030381529060405292505050612842565b61283d84612a55565b925050505b919050565b6128518383612afc565b61285e60008484846128a7565b61289d576040517f08c379a0000000000000000000000000000000000000000000000000000000008152600401612894906148db565b60405180910390fd5b505050565b505050565b60006128c88473ffffffffffffffffffffffffffffffffffffffff16612cca565b15612a31578373ffffffffffffffffffffffffffffffffffffffff1663150b7a026128f161201a565b8786866040518563ffffffff1660e01b81526004016129139493929190614a06565b602060405180830381600087803b15801561292d57600080fd5b505af192505050801561295e57506040513d601f19601f8201168201806040525081019061295b9190614a67565b60015b6129e1573d806000811461298e576040519150601f19603f3d011682016040523d82523d6000602084013e612993565b606091505b506000815114156129d9576040517f08c379a00000000000000000000000000000000000000000000000000000000081526004016129d0906148db565b60405180910390fd5b805181602001fd5b63150b7a0260e01b7bffffffffffffffffffffffffffffffffffffffffffffffffffffffff1916817bffffffffffffffffffffffffffffffffffffffffffffffffffffffff191614915050612a36565b600190505b949350505050565b606060405180602001604052806000815250905090565b6060612a6082611fae565b612a9f576040517f08c379a0000000000000000000000000000000000000000000000000000000008152600401612a9690614b06565b60405180910390fd5b6000612aa9612a3e565b90506000815111612ac95760405180602001604052806000815250612af4565b80612ad384612cdd565b604051602001612ae492919061498d565b6040516020818303038152906040525b915050919050565b600073ffffffffffffffffffffffffffffffffffffffff168273ffffffffffffffffffffffffffffffffffffffff161415612b6c576040517f08c379a0000000000000000000000000000000000000000000000000000000008152600401612b6390614b72565b60405180910390fd5b612b7581611fae565b15612bb5576040517f08c379a0000000000000000000000000000000000000000000000000000000008152600401612bac90614bde565b60405180910390fd5b612bc1600083836128a2565b6001600360008473ffffffffffffffffffffffffffffffffffffffff1673ffffffffffffffffffffffffffffffffffffffff1681526020019081526020016000206000828254612c119190613f9d565b92505081905550816002600083815260200190815260200160002060006101000a81548173ffffffffffffffffffffffffffffffffffffffff021916908373ffffffffffffffffffffffffffffffffffffffff160217905550808273ffffffffffffffffffffffffffffffffffffffff16600073ffffffffffffffffffffffffffffffffffffffff167fddf252ad1be2c89b69c2b068fc378daa952ba7f163c4a11628f55a4df523b3ef60405160405180910390a45050565b600080823b905060008111915050919050565b60606000821415612d25576040518060400160405280600181526020017f30000000000000000000000000000000000000000000000000000000000000008152509050612e39565b600082905060005b60008214612d57578080612d4090613b6c565b915050600a82612d509190614499565b9150612d2d565b60008167ffffffffffffffff811115612d7357612d7261336f565b5b6040519080825280601f01601f191660200182016040528015612da55781602001600182028036833780820191505090505b5090505b60008514612e3257600182612dbe91906145ed565b9150600a85612dcd9190614bfe565b6030612dd99190613f9d565b60f81b818381518110612def57612dee613bb5565b5b60200101907effffffffffffffffffffffffffffffffffffffffffffffffffffffffffffff1916908160001a905350600a85612e2b9190614499565b9450612da9565b8093505050505b919050565b828054612e4a90613c13565b90600052602060002090601f016020900481019282612e6c5760008555612eb3565b82601f10612e8557805160ff1916838001178555612eb3565b82800160010185558215612eb3579182015b82811115612eb2578251825591602001919060010190612e97565b5b509050612ec09190612f3c565b5090565b6040518061010001604052806060815260200160006003811115612eeb57612eea613553565b5b815260200160006003811115612f0457612f03613553565b5b8152602001600060ff168152602001600060ff168152602001600060ff168152602001600060ff168152602001600060ff1681525090565b5b80821115612f55576000816000905550600101612f3d565b5090565b6000604051905090565b600080fd5b600080fd5b600073ffffffffffffffffffffffffffffffffffffffff82169050919050565b6000612f9882612f6d565b9050919050565b612fa881612f8d565b8114612fb357600080fd5b50565b600081359050612fc581612f9f565b92915050565b600060208284031215612fe157612fe0612f63565b5b6000612fef84828501612fb6565b91505092915050565b600081519050919050565b600082825260208201905092915050565b6000819050602082019050919050565b6000819050919050565b61303781613024565b82525050565b6000613049838361302e565b60208301905092915050565b6000602082019050919050565b600061306d82612ff8565b6130778185613003565b935061308283613014565b8060005b838110156130b357815161309a888261303d565b97506130a583613055565b925050600181019050613086565b5085935050505092915050565b600060208201905081810360008301526130da8184613062565b905092915050565b60007fffffffff0000000000000000000000000000000000000000000000000000000082169050919050565b613117816130e2565b811461312257600080fd5b50565b6000813590506131348161310e565b92915050565b6000602082840312156131505761314f612f63565b5b600061315e84828501613125565b91505092915050565b60008115159050919050565b61317c81613167565b82525050565b60006020820190506131976000830184613173565b92915050565b600081519050919050565b600082825260208201905092915050565b60005b838110156131d75780820151818401526020810190506131bc565b838111156131e6576000848401525b50505050565b6000601f19601f8301169050919050565b60006132088261319d565b61321281856131a8565b93506132228185602086016131b9565b61322b816131ec565b840191505092915050565b6000602082019050818103600083015261325081846131fd565b905092915050565b61326181613024565b811461326c57600080fd5b50565b60008135905061327e81613258565b92915050565b60006020828403121561329a57613299612f63565b5b60006132a88482850161326f565b91505092915050565b6132ba81612f8d565b82525050565b60006020820190506132d560008301846132b1565b92915050565b600080604083850312156132f2576132f1612f63565b5b600061330085828601612fb6565b92505060206133118582860161326f565b9150509250929050565b6004811061332857600080fd5b50565b60008135905061333a8161331b565b92915050565b6004811061334d57600080fd5b50565b60008135905061335f81613340565b92915050565b600080fd5b600080fd5b7f4e487b7100000000000000000000000000000000000000000000000000000000600052604160045260246000fd5b6133a7826131ec565b810181811067ffffffffffffffff821117156133c6576133c561336f565b5b80604052505050565b60006133d9612f59565b90506133e5828261339e565b919050565b600067ffffffffffffffff8211156134055761340461336f565b5b61340e826131ec565b9050602081019050919050565b82818337600083830152505050565b600061343d613438846133ea565b6133cf565b9050828152602081018484840111156134595761345861336a565b5b61346484828561341b565b509392505050565b600082601f83011261348157613480613365565b5b813561349184826020860161342a565b91505092915050565b6000806000606084860312156134b3576134b2612f63565b5b60006134c18682870161332b565b93505060206134d286828701613350565b925050604084013567ffffffffffffffff8111156134f3576134f2612f68565b5b6134ff8682870161346c565b9150509250925092565b600082825260208201905092915050565b60006135258261319d565b61352f8185613509565b935061353f8185602086016131b9565b613548816131ec565b840191505092915050565b7f4e487b7100000000000000000000000000000000000000000000000000000000600052602160045260246000fd5b6004811061359357613592613553565b5b50565b60008190506135a482613582565b919050565b60006135b482613596565b9050919050565b6135c4816135a9565b82525050565b600481106135db576135da613553565b5b50565b60008190506135ec826135ca565b919050565b60006135fc826135de565b9050919050565b61360c816135f1565b82525050565b600060ff82169050919050565b61362881613612565b82525050565b600061010083016000830151848203600086015261364c828261351a565b915050602083015161366160208601826135bb565b5060408301516136746040860182613603565b506060830151613687606086018261361f565b50608083015161369a608086018261361f565b5060a08301516136ad60a086018261361f565b5060c08301516136c060c086018261361f565b5060e08301516136d360e086018261361f565b508091505092915050565b600060208201905081810360008301526136f8818461362e565b905092915050565b60008060006060848603121561371957613718612f63565b5b600061372786828701612fb6565b935050602061373886828701612fb6565b92505060406137498682870161326f565b9150509250925092565b61375c81613024565b82525050565b60006020820190506137776000830184613753565b92915050565b600081519050919050565b600082825260208201905092915050565b6000819050602082019050919050565b60006101008301600083015184820360008601526137c7828261351a565b91505060208301516137dc60208601826135bb565b5060408301516137ef6040860182613603565b506060830151613802606086018261361f565b506080830151613815608086018261361f565b5060a083015161382860a086018261361f565b5060c083015161383b60c086018261361f565b5060e083015161384e60e086018261361f565b508091505092915050565b600061386583836137a9565b905092915050565b6000602082019050919050565b60006138858261377d565b61388f8185613788565b9350836020820285016138a185613799565b8060005b858110156138dd57848403895281516138be8582613859565b94506138c98361386d565b925060208a019950506001810190506138a5565b50829750879550505050505092915050565b60006020820190508181036000830152613909818461387a565b905092915050565b61391a81613167565b811461392557600080fd5b50565b60008135905061393781613911565b92915050565b6000806040838503121561395457613953612f63565b5b600061396285828601612fb6565b925050602061397385828601613928565b9150509250929050565b600067ffffffffffffffff8211156139985761399761336f565b5b6139a1826131ec565b9050602081019050919050565b60006139c16139bc8461397d565b6133cf565b9050828152602081018484840111156139dd576139dc61336a565b5b6139e884828561341b565b509392505050565b600082601f830112613a0557613a04613365565b5b8135613a158482602086016139ae565b91505092915050565b60008060008060808587031215613a3857613a37612f63565b5b6000613a4687828801612fb6565b9450506020613a5787828801612fb6565b9350506040613a688782880161326f565b925050606085013567ffffffffffffffff811115613a8957613a88612f68565b5b613a95878288016139f0565b91505092959194509250565b60008060408385031215613ab857613ab7612f63565b5b6000613ac685828601612fb6565b9250506020613ad785828601612fb6565b9150509250929050565b60008060408385031215613af857613af7612f63565b5b6000613b068582860161326f565b925050602083013567ffffffffffffffff811115613b2757613b26612f68565b5b613b338582860161346c565b9150509250929050565b7f4e487b7100000000000000000000000000000000000000000000000000000000600052601160045260246000fd5b6000613b7782613024565b91507fffffffffffffffffffffffffffffffffffffffffffffffffffffffffffffffff821415613baa57613ba9613b3d565b5b600182019050919050565b7f4e487b7100000000000000000000000000000000000000000000000000000000600052603260045260246000fd5b7f4e487b7100000000000000000000000000000000000000000000000000000000600052602260045260246000fd5b60006002820490506001821680613c2b57607f821691505b60208210811415613c3f57613c3e613be4565b5b50919050565b7f4552433732313a20617070726f76656420717565727920666f72206e6f6e657860008201527f697374656e7420746f6b656e0000000000000000000000000000000000000000602082015250565b6000613ca1602c836131a8565b9150613cac82613c45565b604082019050919050565b60006020820190508181036000830152613cd081613c94565b9050919050565b7f4552433732313a20617070726f76616c20746f2063757272656e74206f776e6560008201527f7200000000000000000000000000000000000000000000000000000000000000602082015250565b6000613d336021836131a8565b9150613d3e82613cd7565b604082019050919050565b60006020820190508181036000830152613d6281613d26565b9050919050565b7f4552433732313a20617070726f76652063616c6c6572206973206e6f74206f7760008201527f6e6572206e6f7220617070726f76656420666f7220616c6c0000000000000000602082015250565b6000613dc56038836131a8565b9150613dd082613d69565b604082019050919050565b60006020820190508181036000830152613df481613db8565b9050919050565b7f426174746c6520636f6e7472616374206e6f7420646566696e65640000000000600082015250565b6000613e31601b836131a8565b9150613e3c82613dfb565b602082019050919050565b60006020820190508181036000830152613e6081613e24565b9050919050565b7f4f6e6c7920626174746c6520636f6e74726163742063616e2065786563757465600082015250565b6000613e9d6020836131a8565b9150613ea882613e67565b602082019050919050565b60006020820190508181036000830152613ecc81613e90565b9050919050565b6000613ede82613612565b915060ff821415613ef257613ef1613b3d565b5b600182019050919050565b7f4f776e61626c653a2063616c6c6572206973206e6f7420746865206f776e6572600082015250565b6000613f336020836131a8565b9150613f3e82613efd565b602082019050919050565b60006020820190508181036000830152613f6281613f26565b9050919050565b6000613f7482613612565b9150613f7f83613612565b925082821015613f9257613f91613b3d565b5b828203905092915050565b6000613fa882613024565b9150613fb383613024565b9250827fffffffffffffffffffffffffffffffffffffffffffffffffffffffffffffffff03821115613fe857613fe7613b3d565b5b828201905092915050565b7f4552433732313a207472616e736665722063616c6c6572206973206e6f74206f60008201527f776e6572206e6f7220617070726f766564000000000000000000000000000000602082015250565b600061404f6031836131a8565b915061405a82613ff3565b604082019050919050565b6000602082019050818103600083015261407e81614042565b9050919050565b7f4552433732313a206f776e657220717565727920666f72206e6f6e657869737460008201527f656e7420746f6b656e0000000000000000000000000000000000000000000000602082015250565b60006140e16029836131a8565b91506140ec82614085565b604082019050919050565b60006020820190508181036000830152614110816140d4565b9050919050565b7f4552433732313a2062616c616e636520717565727920666f7220746865207a6560008201527f726f206164647265737300000000000000000000000000000000000000000000602082015250565b6000614173602a836131a8565b915061417e82614117565b604082019050919050565b600060208201905081810360008301526141a281614166565b9050919050565b7f4552433732313a20617070726f766520746f2063616c6c657200000000000000600082015250565b60006141df6019836131a8565b91506141ea826141a9565b602082019050919050565b6000602082019050818103600083015261420e816141d2565b9050919050565b600081905092915050565b60008190508160005260206000209050919050565b6000815461424281613c13565b61424c8186614215565b945060018216600081146142675760018114614278576142ab565b60ff198316865281860193506142ab565b61428185614220565b60005b838110156142a357815481890152600182019150602081019050614284565b838801955050505b50505092915050565b60006142bf8261319d565b6142c98185614215565b93506142d98185602086016131b9565b80840191505092915050565b60006142f18285614235565b91506142fd82846142b4565b91508190509392505050565b7f4f776e61626c653a206e6577206f776e657220697320746865207a65726f206160008201527f6464726573730000000000000000000000000000000000000000000000000000602082015250565b60006143656026836131a8565b915061437082614309565b604082019050919050565b6000602082019050818103600083015261439481614358565b9050919050565b7f4e6f74206f776e65720000000000000000000000000000000000000000000000600082015250565b60006143d16009836131a8565b91506143dc8261439b565b602082019050919050565b60006020820190508181036000830152614400816143c4565b9050919050565b60008160601b9050919050565b600061441f82614407565b9050919050565b600061443182614414565b9050919050565b61444961444482612f8d565b614426565b82525050565b600061445b8284614438565b60148201915081905092915050565b7f4e487b7100000000000000000000000000000000000000000000000000000000600052601260045260246000fd5b60006144a482613024565b91506144af83613024565b9250826144bf576144be61446a565b5b828204905092915050565b60006144d582612f6d565b9050919050565b60006144e782614414565b9050919050565b6144ff6144fa826144ca565b6144dc565b82525050565b600061451182846144ee565b60148201915081905092915050565b6000819050919050565b61453b61453682613024565b614520565b82525050565b600061454d828461452a565b60208201915081905092915050565b600061456782613612565b915061457283613612565b92508260ff0382111561458857614587613b3d565b5b828201905092915050565b600061459e82613024565b91506145a983613024565b9250817fffffffffffffffffffffffffffffffffffffffffffffffffffffffffffffffff04831182151516156145e2576145e1613b3d565b5b828202905092915050565b60006145f882613024565b915061460383613024565b92508282101561461657614615613b3d565b5b828203905092915050565b7f45524337323155524953746f726167653a2055524920736574206f66206e6f6e60008201527f6578697374656e7420746f6b656e000000000000000000000000000000000000602082015250565b600061467d602e836131a8565b915061468882614621565b604082019050919050565b600060208201905081810360008301526146ac81614670565b9050919050565b7f4552433732313a206f70657261746f7220717565727920666f72206e6f6e657860008201527f697374656e7420746f6b656e0000000000000000000000000000000000000000602082015250565b600061470f602c836131a8565b915061471a826146b3565b604082019050919050565b6000602082019050818103600083015261473e81614702565b9050919050565b7f4552433732313a207472616e73666572206f6620746f6b656e2074686174206960008201527f73206e6f74206f776e0000000000000000000000000000000000000000000000602082015250565b60006147a16029836131a8565b91506147ac82614745565b604082019050919050565b600060208201905081810360008301526147d081614794565b9050919050565b7f4552433732313a207472616e7366657220746f20746865207a65726f2061646460008201527f7265737300000000000000000000000000000000000000000000000000000000602082015250565b60006148336024836131a8565b915061483e826147d7565b604082019050919050565b6000602082019050818103600083015261486281614826565b9050919050565b7f4552433732313a207472616e7366657220746f206e6f6e20455243373231526560008201527f63656976657220696d706c656d656e7465720000000000000000000000000000602082015250565b60006148c56032836131a8565b91506148d082614869565b604082019050919050565b600060208201905081810360008301526148f4816148b8565b9050919050565b7f45524337323155524953746f726167653a2055524920717565727920666f722060008201527f6e6f6e6578697374656e7420746f6b656e000000000000000000000000000000602082015250565b60006149576031836131a8565b9150614962826148fb565b604082019050919050565b600060208201905081810360008301526149868161494a565b9050919050565b600061499982856142b4565b91506149a582846142b4565b91508190509392505050565b600081519050919050565b600082825260208201905092915050565b60006149d8826149b1565b6149e281856149bc565b93506149f28185602086016131b9565b6149fb816131ec565b840191505092915050565b6000608082019050614a1b60008301876132b1565b614a2860208301866132b1565b614a356040830185613753565b8181036060830152614a4781846149cd565b905095945050505050565b600081519050614a618161310e565b92915050565b600060208284031215614a7d57614a7c612f63565b5b6000614a8b84828501614a52565b91505092915050565b7f4552433732314d657461646174613a2055524920717565727920666f72206e6f60008201527f6e6578697374656e7420746f6b656e0000000000000000000000000000000000602082015250565b6000614af0602f836131a8565b9150614afb82614a94565b604082019050919050565b60006020820190508181036000830152614b1f81614ae3565b9050919050565b7f4552433732313a206d696e7420746f20746865207a65726f2061646472657373600082015250565b6000614b5c6020836131a8565b9150614b6782614b26565b602082019050919050565b60006020820190508181036000830152614b8b81614b4f565b9050919050565b7f4552433732313a20746f6b656e20616c7265616479206d696e74656400000000600082015250565b6000614bc8601c836131a8565b9150614bd382614b92565b602082019050919050565b60006020820190508181036000830152614bf781614bbb565b9050919050565b6000614c0982613024565b9150614c1483613024565b925082614c2457614c2361446a565b5b82820690509291505056fea26469706673582212201498e59bf28285cb4925f915ad9c59a5b88c1cef5bf153f0fab7b67814ced93764736f6c63430008090033",
  "immutableReferences": {},
  "source": "pragma solidity 0.8.9;\n\nimport \"../node_modules/@openzeppelin/contracts/token/ERC721/extensions/ERC721URIStorage.sol\";\nimport \"../node_modules/@openzeppelin/contracts/utils/Counters.sol\";\nimport \"../node_modules/@openzeppelin/contracts/access/Ownable.sol\";\n\ncontract GameToken is ERC721URIStorage, Ownable {\n    using Counters for Counters.Counter;\n    Counters.Counter private _currentHeroId;\n\n    address private _battleAddress;\n\n    enum HeroType {\n        FIGHTER,\n        ROGUE,\n        MAGE,\n        TANK\n    }\n    enum HeroRarity {\n        COMMON,\n        UNCOMMON,\n        RARE,\n        LEGENDARY\n    }\n\n    struct Hero {\n        string name;\n        HeroType heroType;\n        HeroRarity rarity;\n        uint8 str;\n        uint8 con;\n        uint8 dex;\n        uint8 inte;\n        uint8 level;\n    }\n\n    Hero[] private _heroes;\n\n    string private _baseTokenURI;\n\n    //static final\n    mapping(HeroType => uint8[]) private _mapMint;\n\n    constructor(\n        string memory name,\n        string memory symbol,\n        string memory baseTokenURI\n    ) ERC721(name, symbol) {\n        _baseTokenURI = baseTokenURI;\n\n        _mapMint[HeroType.FIGHTER] = [0, 1, 0, 2, 3, 1];\n        _mapMint[HeroType.ROGUE] = [2, 2, 0, 3, 0, 2];\n        _mapMint[HeroType.MAGE] = [3, 3, 2, 1, 0, 3];\n        _mapMint[HeroType.TANK] = [1, 1, 0, 2, 3, 1];\n    }\n\n    function setBattleAddress(address _newBattleAddress) public onlyOwner {\n        _battleAddress = _newBattleAddress;\n    }\n\n    function getHeroes() external view returns (Hero[] memory) {\n        return _heroes;\n    }\n\n    function getCurrentHeroId() external view returns (uint256) {\n        return _currentHeroId.current();\n    }\n\n    function mint(\n        HeroType _heroType,\n        HeroRarity _heroRarity,\n        string memory _tokenURI\n    ) public onlyOwner {\n        uint256 newHeroId = _currentHeroId.current();\n\n        uint8 minAttr;\n        uint8 maxAttr;\n\n        if (_heroRarity == HeroRarity.COMMON) {\n            minAttr = 4;\n            maxAttr = 6;\n        } else if (_heroRarity == HeroRarity.UNCOMMON) {\n            minAttr = 7;\n            maxAttr = 8;\n        } else if (_heroRarity == HeroRarity.RARE) {\n            minAttr = 9;\n            maxAttr = 10;\n        } else {\n            minAttr = 11;\n            maxAttr = 12;\n        }\n\n        uint256 attrsSize = rand(maxAttr - minAttr) + minAttr;\n\n        uint8[] memory attrs = new uint8[](4);\n        attrs[0] = 1;\n        attrs[1] = 1;\n        attrs[2] = 1;\n        attrs[3] = 1;\n        uint8 attrCounter = 0;\n\n        for (uint8 i = 1; i <= attrsSize; i++) {\n            attrs[_mapMint[_heroType][attrCounter]]++;\n            if (attrCounter == 5) {\n                attrCounter = 0;\n            } else {\n                attrCounter++;\n            }\n        }\n\n        _safeMint(msg.sender, newHeroId);\n        _setTokenURI(newHeroId, _tokenURI);\n        _heroes.push(\n            Hero(\n                \"\",\n                _heroType,\n                _heroRarity,\n                attrs[0],\n                attrs[1],\n                attrs[2],\n                attrs[3],\n                1\n            )\n        );\n\n        _currentHeroId.increment();\n    }\n\n    function getHeroesByAddress(address owner)\n        public\n        view\n        returns (uint256[] memory)\n    {\n        uint256 heroCount = balanceOf(owner);\n\n        if (heroCount == 0) {\n            return new uint256[](0);\n        } else {\n            uint256[] memory ret = new uint256[](heroCount);\n            uint256 i;\n            uint256 curIndex = 0;\n\n            for (i = 0; i < _currentHeroId.current(); i++) {\n                if (ownerOf(i) == owner) {\n                    ret[curIndex++] = i;\n                }\n            }\n\n            return ret;\n        }\n    }\n\n    function getMyHeroes() external view returns (uint256[] memory) {\n        return getHeroesByAddress(msg.sender);\n    }\n\n    function getHero(uint256 _heroId) external view returns (Hero memory) {\n        return _heroes[_heroId];\n    }\n\n    \n    function setName(uint256 _heroId, string memory _name) external {\n        require(msg.sender == ownerOf(_heroId), \"Not owner\");\n        Hero storage hero = _heroes[_heroId];\n\n        hero.name = _name;\n    }\n\n    function levelUp(uint256 _heroId) external {\n        require(_battleAddress != address(0), \"Battle contract not defined\");\n        require(msg.sender == _battleAddress, \"Only battle contract can execute\");\n\n        Hero storage hero = _heroes[_heroId];\n\n        hero.level++;\n\n        uint256 random = rand(3);\n\n        if (random == 0) {\n            hero.str++;\n        } else if (random == 1) {\n            hero.con++;\n        } else if (random == 2) {\n            hero.dex++;\n        } else if (random == 3) {\n            hero.inte++;\n        }\n    }\n\n    function rand(uint8 limit) private view returns (uint256) {\n        uint256 seed = uint256(\n            keccak256(\n                abi.encodePacked(\n                    block.timestamp +\n                        block.difficulty +\n                        ((\n                            uint256(keccak256(abi.encodePacked(block.coinbase)))\n                        ) / (block.timestamp)) +\n                        block.gaslimit +\n                        ((uint256(keccak256(abi.encodePacked(msg.sender)))) /\n                            (block.timestamp)) +\n                        block.number\n                )\n            )\n        );\n\n        return (seed - ((seed / (limit + 1)) * (limit + 1)));\n    }\n\n    function tokenURI(uint256 tokenId)\n        public\n        view\n        virtual\n        override\n        returns (string memory)\n    {\n        return string(abi.encodePacked(_baseTokenURI, super.tokenURI(tokenId)));\n    }\n\n    function receiver() external payable {}\n}\n",
  "sourcePath": "/home/rfaita/game/nft-game/contract/contracts/GameToken.sol",
  "compiler": {
    "name": "solc",
    "version": "0.8.9+commit.e5eed63a.Emscripten.clang"
  },
  "schemaVersion": "3.4.3",
  "updatedAt": "2021-11-12T19:34:21.751Z",
  "networkType": "ethereum",
  "devdoc": {
    "kind": "dev",
    "methods": {
      "approve(address,uint256)": {
        "details": "See {IERC721-approve}."
      },
      "balanceOf(address)": {
        "details": "See {IERC721-balanceOf}."
      },
      "getApproved(uint256)": {
        "details": "See {IERC721-getApproved}."
      },
      "isApprovedForAll(address,address)": {
        "details": "See {IERC721-isApprovedForAll}."
      },
      "name()": {
        "details": "See {IERC721Metadata-name}."
      },
      "owner()": {
        "details": "Returns the address of the current owner."
      },
      "ownerOf(uint256)": {
        "details": "See {IERC721-ownerOf}."
      },
      "renounceOwnership()": {
        "details": "Leaves the contract without owner. It will not be possible to call `onlyOwner` functions anymore. Can only be called by the current owner. NOTE: Renouncing ownership will leave the contract without an owner, thereby removing any functionality that is only available to the owner."
      },
      "safeTransferFrom(address,address,uint256)": {
        "details": "See {IERC721-safeTransferFrom}."
      },
      "safeTransferFrom(address,address,uint256,bytes)": {
        "details": "See {IERC721-safeTransferFrom}."
      },
      "setApprovalForAll(address,bool)": {
        "details": "See {IERC721-setApprovalForAll}."
      },
      "supportsInterface(bytes4)": {
        "details": "See {IERC165-supportsInterface}."
      },
      "symbol()": {
        "details": "See {IERC721Metadata-symbol}."
      },
      "tokenURI(uint256)": {
        "details": "See {IERC721Metadata-tokenURI}."
      },
      "transferFrom(address,address,uint256)": {
        "details": "See {IERC721-transferFrom}."
      },
      "transferOwnership(address)": {
        "details": "Transfers ownership of the contract to a new account (`newOwner`). Can only be called by the current owner."
      }
    },
    "version": 1
  },
  "userdoc": {
    "kind": "user",
    "methods": {},
    "version": 1
  }
}