{
  "contractName": "GameToken",
  "abi": [
    {
      "inputs": [
        {
          "internalType": "string",
          "name": "name",
          "type": "string"
        },
        {
          "internalType": "string",
          "name": "symbol",
          "type": "string"
        },
        {
          "internalType": "string",
          "name": "baseTokenURI",
          "type": "string"
        }
      ],
      "stateMutability": "nonpayable",
      "type": "constructor"
    },
    {
      "anonymous": false,
      "inputs": [
        {
          "indexed": true,
          "internalType": "address",
          "name": "owner",
          "type": "address"
        },
        {
          "indexed": true,
          "internalType": "address",
          "name": "approved",
          "type": "address"
        },
        {
          "indexed": true,
          "internalType": "uint256",
          "name": "tokenId",
          "type": "uint256"
        }
      ],
      "name": "Approval",
      "type": "event"
    },
    {
      "anonymous": false,
      "inputs": [
        {
          "indexed": true,
          "internalType": "address",
          "name": "owner",
          "type": "address"
        },
        {
          "indexed": true,
          "internalType": "address",
          "name": "operator",
          "type": "address"
        },
        {
          "indexed": false,
          "internalType": "bool",
          "name": "approved",
          "type": "bool"
        }
      ],
      "name": "ApprovalForAll",
      "type": "event"
    },
    {
      "anonymous": false,
      "inputs": [
        {
          "indexed": true,
          "internalType": "uint256",
          "name": "tokenId",
          "type": "uint256"
        },
        {
          "indexed": true,
          "internalType": "uint8",
          "name": "level",
          "type": "uint8"
        }
      ],
      "name": "HeroLevelUp",
      "type": "event"
    },
    {
      "anonymous": false,
      "inputs": [
        {
          "indexed": true,
          "internalType": "uint256",
          "name": "tokenId",
          "type": "uint256"
        },
        {
          "indexed": true,
          "internalType": "uint16",
          "name": "currXP",
          "type": "uint16"
        }
      ],
      "name": "NewCurrXP",
      "type": "event"
    },
    {
      "anonymous": false,
      "inputs": [
        {
          "indexed": true,
          "internalType": "address",
          "name": "previousOwner",
          "type": "address"
        },
        {
          "indexed": true,
          "internalType": "address",
          "name": "newOwner",
          "type": "address"
        }
      ],
      "name": "OwnershipTransferred",
      "type": "event"
    },
    {
      "anonymous": false,
      "inputs": [
        {
          "indexed": true,
          "internalType": "address",
          "name": "from",
          "type": "address"
        },
        {
          "indexed": true,
          "internalType": "address",
          "name": "to",
          "type": "address"
        },
        {
          "indexed": true,
          "internalType": "uint256",
          "name": "tokenId",
          "type": "uint256"
        }
      ],
      "name": "Transfer",
      "type": "event"
    },
    {
      "inputs": [],
      "name": "_battleAddress",
      "outputs": [
        {
          "internalType": "address",
          "name": "",
          "type": "address"
        }
      ],
      "stateMutability": "view",
      "type": "function",
      "constant": true
    },
    {
      "inputs": [],
      "name": "_itemShopAddress",
      "outputs": [
        {
          "internalType": "address",
          "name": "",
          "type": "address"
        }
      ],
      "stateMutability": "view",
      "type": "function",
      "constant": true
    },
    {
      "inputs": [
        {
          "internalType": "address",
          "name": "to",
          "type": "address"
        },
        {
          "internalType": "uint256",
          "name": "tokenId",
          "type": "uint256"
        }
      ],
      "name": "approve",
      "outputs": [],
      "stateMutability": "nonpayable",
      "type": "function"
    },
    {
      "inputs": [
        {
          "internalType": "address",
          "name": "owner",
          "type": "address"
        }
      ],
      "name": "balanceOf",
      "outputs": [
        {
          "internalType": "uint256",
          "name": "",
          "type": "uint256"
        }
      ],
      "stateMutability": "view",
      "type": "function",
      "constant": true
    },
    {
      "inputs": [
        {
          "internalType": "uint256",
          "name": "tokenId",
          "type": "uint256"
        }
      ],
      "name": "getApproved",
      "outputs": [
        {
          "internalType": "address",
          "name": "",
          "type": "address"
        }
      ],
      "stateMutability": "view",
      "type": "function",
      "constant": true
    },
    {
      "inputs": [
        {
          "internalType": "address",
          "name": "owner",
          "type": "address"
        },
        {
          "internalType": "address",
          "name": "operator",
          "type": "address"
        }
      ],
      "name": "isApprovedForAll",
      "outputs": [
        {
          "internalType": "bool",
          "name": "",
          "type": "bool"
        }
      ],
      "stateMutability": "view",
      "type": "function",
      "constant": true
    },
    {
      "inputs": [],
      "name": "name",
      "outputs": [
        {
          "internalType": "string",
          "name": "",
          "type": "string"
        }
      ],
      "stateMutability": "view",
      "type": "function",
      "constant": true
    },
    {
      "inputs": [],
      "name": "owner",
      "outputs": [
        {
          "internalType": "address",
          "name": "",
          "type": "address"
        }
      ],
      "stateMutability": "view",
      "type": "function",
      "constant": true
    },
    {
      "inputs": [
        {
          "internalType": "uint256",
          "name": "tokenId",
          "type": "uint256"
        }
      ],
      "name": "ownerOf",
      "outputs": [
        {
          "internalType": "address",
          "name": "",
          "type": "address"
        }
      ],
      "stateMutability": "view",
      "type": "function",
      "constant": true
    },
    {
      "inputs": [],
      "name": "renounceOwnership",
      "outputs": [],
      "stateMutability": "nonpayable",
      "type": "function"
    },
    {
      "inputs": [
        {
          "internalType": "address",
          "name": "from",
          "type": "address"
        },
        {
          "internalType": "address",
          "name": "to",
          "type": "address"
        },
        {
          "internalType": "uint256",
          "name": "tokenId",
          "type": "uint256"
        }
      ],
      "name": "safeTransferFrom",
      "outputs": [],
      "stateMutability": "nonpayable",
      "type": "function"
    },
    {
      "inputs": [
        {
          "internalType": "address",
          "name": "from",
          "type": "address"
        },
        {
          "internalType": "address",
          "name": "to",
          "type": "address"
        },
        {
          "internalType": "uint256",
          "name": "tokenId",
          "type": "uint256"
        },
        {
          "internalType": "bytes",
          "name": "_data",
          "type": "bytes"
        }
      ],
      "name": "safeTransferFrom",
      "outputs": [],
      "stateMutability": "nonpayable",
      "type": "function"
    },
    {
      "inputs": [
        {
          "internalType": "address",
          "name": "operator",
          "type": "address"
        },
        {
          "internalType": "bool",
          "name": "approved",
          "type": "bool"
        }
      ],
      "name": "setApprovalForAll",
      "outputs": [],
      "stateMutability": "nonpayable",
      "type": "function"
    },
    {
      "inputs": [
        {
          "internalType": "bytes4",
          "name": "interfaceId",
          "type": "bytes4"
        }
      ],
      "name": "supportsInterface",
      "outputs": [
        {
          "internalType": "bool",
          "name": "",
          "type": "bool"
        }
      ],
      "stateMutability": "view",
      "type": "function",
      "constant": true
    },
    {
      "inputs": [],
      "name": "symbol",
      "outputs": [
        {
          "internalType": "string",
          "name": "",
          "type": "string"
        }
      ],
      "stateMutability": "view",
      "type": "function",
      "constant": true
    },
    {
      "inputs": [
        {
          "internalType": "address",
          "name": "from",
          "type": "address"
        },
        {
          "internalType": "address",
          "name": "to",
          "type": "address"
        },
        {
          "internalType": "uint256",
          "name": "tokenId",
          "type": "uint256"
        }
      ],
      "name": "transferFrom",
      "outputs": [],
      "stateMutability": "nonpayable",
      "type": "function"
    },
    {
      "inputs": [
        {
          "internalType": "address",
          "name": "newOwner",
          "type": "address"
        }
      ],
      "name": "transferOwnership",
      "outputs": [],
      "stateMutability": "nonpayable",
      "type": "function"
    },
    {
      "inputs": [
        {
          "internalType": "address",
          "name": "_newBattleAddress",
          "type": "address"
        }
      ],
      "name": "setBattleAddress",
      "outputs": [],
      "stateMutability": "nonpayable",
      "type": "function"
    },
    {
      "inputs": [
        {
          "internalType": "address",
          "name": "_newItemShopAddress",
          "type": "address"
        }
      ],
      "name": "setItemShopAddress",
      "outputs": [],
      "stateMutability": "nonpayable",
      "type": "function"
    },
    {
      "inputs": [
        {
          "internalType": "uint8",
          "name": "size",
          "type": "uint8"
        },
        {
          "internalType": "uint256",
          "name": "page",
          "type": "uint256"
        }
      ],
      "name": "getHeroes",
      "outputs": [
        {
          "components": [
            {
              "internalType": "string",
              "name": "name",
              "type": "string"
            },
            {
              "internalType": "enum GameToken.HeroType",
              "name": "heroType",
              "type": "uint8"
            },
            {
              "internalType": "enum GameToken.HeroRarity",
              "name": "rarity",
              "type": "uint8"
            },
            {
              "internalType": "uint8",
              "name": "str",
              "type": "uint8"
            },
            {
              "internalType": "uint8",
              "name": "con",
              "type": "uint8"
            },
            {
              "internalType": "uint8",
              "name": "dex",
              "type": "uint8"
            },
            {
              "internalType": "uint8",
              "name": "wis",
              "type": "uint8"
            },
            {
              "internalType": "uint8",
              "name": "level",
              "type": "uint8"
            },
            {
              "internalType": "uint16",
              "name": "currXP",
              "type": "uint16"
            },
            {
              "internalType": "address",
              "name": "owner",
              "type": "address"
            },
            {
              "internalType": "string",
              "name": "tokenURI",
              "type": "string"
            }
          ],
          "internalType": "struct GameToken.HeroDTO[]",
          "name": "",
          "type": "tuple[]"
        }
      ],
      "stateMutability": "view",
      "type": "function",
      "constant": true
    },
    {
      "inputs": [],
      "name": "getNextHeroId",
      "outputs": [
        {
          "internalType": "uint256",
          "name": "",
          "type": "uint256"
        }
      ],
      "stateMutability": "view",
      "type": "function",
      "constant": true
    },
    {
      "inputs": [
        {
          "internalType": "enum GameToken.HeroType",
          "name": "_heroType",
          "type": "uint8"
        },
        {
          "internalType": "enum GameToken.HeroRarity",
          "name": "_heroRarity",
          "type": "uint8"
        },
        {
          "internalType": "string",
          "name": "_tokenURI",
          "type": "string"
        }
      ],
      "name": "mint",
      "outputs": [],
      "stateMutability": "nonpayable",
      "type": "function"
    },
    {
      "inputs": [
        {
          "internalType": "address",
          "name": "owner",
          "type": "address"
        }
      ],
      "name": "getHeroesByAddress",
      "outputs": [
        {
          "internalType": "uint256[]",
          "name": "",
          "type": "uint256[]"
        }
      ],
      "stateMutability": "view",
      "type": "function",
      "constant": true
    },
    {
      "inputs": [],
      "name": "getMyHeroes",
      "outputs": [
        {
          "internalType": "uint256[]",
          "name": "",
          "type": "uint256[]"
        }
      ],
      "stateMutability": "view",
      "type": "function",
      "constant": true
    },
    {
      "inputs": [
        {
          "internalType": "uint256",
          "name": "_heroId",
          "type": "uint256"
        }
      ],
      "name": "getHero",
      "outputs": [
        {
          "components": [
            {
              "internalType": "string",
              "name": "name",
              "type": "string"
            },
            {
              "internalType": "enum GameToken.HeroType",
              "name": "heroType",
              "type": "uint8"
            },
            {
              "internalType": "enum GameToken.HeroRarity",
              "name": "rarity",
              "type": "uint8"
            },
            {
              "internalType": "uint8",
              "name": "str",
              "type": "uint8"
            },
            {
              "internalType": "uint8",
              "name": "con",
              "type": "uint8"
            },
            {
              "internalType": "uint8",
              "name": "dex",
              "type": "uint8"
            },
            {
              "internalType": "uint8",
              "name": "wis",
              "type": "uint8"
            },
            {
              "internalType": "uint8",
              "name": "level",
              "type": "uint8"
            },
            {
              "internalType": "uint16",
              "name": "currXP",
              "type": "uint16"
            }
          ],
          "internalType": "struct GameToken.Hero",
          "name": "",
          "type": "tuple"
        }
      ],
      "stateMutability": "view",
      "type": "function",
      "constant": true
    },
    {
      "inputs": [
        {
          "internalType": "uint256",
          "name": "_heroId",
          "type": "uint256"
        }
      ],
      "name": "getHeroComplete",
      "outputs": [
        {
          "components": [
            {
              "internalType": "string",
              "name": "name",
              "type": "string"
            },
            {
              "internalType": "enum GameToken.HeroType",
              "name": "heroType",
              "type": "uint8"
            },
            {
              "internalType": "enum GameToken.HeroRarity",
              "name": "rarity",
              "type": "uint8"
            },
            {
              "internalType": "uint8",
              "name": "str",
              "type": "uint8"
            },
            {
              "internalType": "uint8",
              "name": "con",
              "type": "uint8"
            },
            {
              "internalType": "uint8",
              "name": "dex",
              "type": "uint8"
            },
            {
              "internalType": "uint8",
              "name": "wis",
              "type": "uint8"
            },
            {
              "internalType": "uint8",
              "name": "level",
              "type": "uint8"
            },
            {
              "internalType": "uint16",
              "name": "currXP",
              "type": "uint16"
            },
            {
              "internalType": "address",
              "name": "owner",
              "type": "address"
            },
            {
              "internalType": "string",
              "name": "tokenURI",
              "type": "string"
            }
          ],
          "internalType": "struct GameToken.HeroDTO",
          "name": "",
          "type": "tuple"
        }
      ],
      "stateMutability": "view",
      "type": "function",
      "constant": true
    },
    {
      "inputs": [
        {
          "internalType": "uint256",
          "name": "_heroId",
          "type": "uint256"
        },
        {
          "internalType": "string",
          "name": "_name",
          "type": "string"
        }
      ],
      "name": "setName",
      "outputs": [],
      "stateMutability": "nonpayable",
      "type": "function"
    },
    {
      "inputs": [
        {
          "internalType": "uint256",
          "name": "_heroId",
          "type": "uint256"
        },
        {
          "internalType": "uint16",
          "name": "_xp",
          "type": "uint16"
        }
      ],
      "name": "levelUp",
      "outputs": [],
      "stateMutability": "nonpayable",
      "type": "function"
    },
    {
      "inputs": [
        {
          "internalType": "uint256",
          "name": "tokenId",
          "type": "uint256"
        }
      ],
      "name": "tokenURI",
      "outputs": [
        {
          "internalType": "string",
          "name": "",
          "type": "string"
        }
      ],
      "stateMutability": "view",
      "type": "function",
      "constant": true
    }
  ],
  "bytecode": "0x60806040523480156200001157600080fd5b5060405162005f9438038062005f948339818101604052810190620000379190620006c6565b8282816000908051906020019062000051929190620003cb565b5080600190805190602001906200006a929190620003cb565b5050506200008d62000081620002fd60201b60201c565b6200030560201b60201c565b80600c9080519060200190620000a5929190620003cb565b506040518060c00160405280600060ff168152602001600160ff168152602001600060ff168152602001600260ff168152602001600360ff168152602001600160ff16815250600d60008060038111156200010557620001046200077f565b5b60038111156200011a57620001196200077f565b5b8152602001908152602001600020906006620001389291906200045c565b506040518060c00160405280600260ff168152602001600260ff168152602001600060ff168152602001600360ff168152602001600060ff168152602001600260ff16815250600d6000600160038111156200019957620001986200077f565b5b6003811115620001ae57620001ad6200077f565b5b8152602001908152602001600020906006620001cc9291906200045c565b506040518060c00160405280600360ff168152602001600360ff168152602001600260ff168152602001600160ff168152602001600060ff168152602001600360ff16815250600d6000600260038111156200022d576200022c6200077f565b5b60038111156200024257620002416200077f565b5b8152602001908152602001600020906006620002609291906200045c565b506040518060c00160405280600160ff168152602001600160ff168152602001600060ff168152602001600260ff168152602001600360ff168152602001600160ff16815250600d6000600380811115620002c057620002bf6200077f565b5b6003811115620002d557620002d46200077f565b5b8152602001908152602001600020906006620002f39291906200045c565b5050505062000813565b600033905090565b6000600760009054906101000a900473ffffffffffffffffffffffffffffffffffffffff16905081600760006101000a81548173ffffffffffffffffffffffffffffffffffffffff021916908373ffffffffffffffffffffffffffffffffffffffff1602179055508173ffffffffffffffffffffffffffffffffffffffff168173ffffffffffffffffffffffffffffffffffffffff167f8be0079c531659141344cd1fd0a4f28419497f9722a3daafe3b4186f6b6457e060405160405180910390a35050565b828054620003d990620007dd565b90600052602060002090601f016020900481019282620003fd576000855562000449565b82601f106200041857805160ff191683800117855562000449565b8280016001018555821562000449579182015b82811115620004485782518255916020019190600101906200042b565b5b5090506200045891906200050a565b5090565b82805482825590600052602060002090601f01602090048101928215620004f75791602002820160005b83821115620004c657835183826101000a81548160ff021916908360ff160217905550926020019260010160208160000104928301926001030262000486565b8015620004f55782816101000a81549060ff0219169055600101602081600001049283019260010302620004c6565b505b5090506200050691906200050a565b5090565b5b80821115620005255760008160009055506001016200050b565b5090565b6000604051905090565b600080fd5b600080fd5b600080fd5b600080fd5b6000601f19601f8301169050919050565b7f4e487b7100000000000000000000000000000000000000000000000000000000600052604160045260246000fd5b620005928262000547565b810181811067ffffffffffffffff82111715620005b457620005b362000558565b5b80604052505050565b6000620005c962000529565b9050620005d7828262000587565b919050565b600067ffffffffffffffff821115620005fa57620005f962000558565b5b620006058262000547565b9050602081019050919050565b60005b838110156200063257808201518184015260208101905062000615565b8381111562000642576000848401525b50505050565b60006200065f6200065984620005dc565b620005bd565b9050828152602081018484840111156200067e576200067d62000542565b5b6200068b84828562000612565b509392505050565b600082601f830112620006ab57620006aa6200053d565b5b8151620006bd84826020860162000648565b91505092915050565b600080600060608486031215620006e257620006e162000533565b5b600084015167ffffffffffffffff81111562000703576200070262000538565b5b620007118682870162000693565b935050602084015167ffffffffffffffff81111562000735576200073462000538565b5b620007438682870162000693565b925050604084015167ffffffffffffffff81111562000767576200076662000538565b5b620007758682870162000693565b9150509250925092565b7f4e487b7100000000000000000000000000000000000000000000000000000000600052602160045260246000fd5b7f4e487b7100000000000000000000000000000000000000000000000000000000600052602260045260246000fd5b60006002820490506001821680620007f657607f821691505b602082108114156200080d576200080c620007ae565b5b50919050565b61577180620008236000396000f3fe608060405234801561001057600080fd5b50600436106101ce5760003560e01c80636352211e1161010457806395d89b41116100a2578063c87b56dd11610071578063c87b56dd1461052b578063e985e9c51461055b578063f2fde38b1461058b578063fe55932a146105a7576101ce565b806395d89b41146104b9578063a22cb465146104d7578063b88d4fde146104f3578063c721b34b1461050f576101ce565b806376139393116100de5780637613939314610441578063806f52831461045f5780638302adfb1461047d5780638da5cb5b1461049b576101ce565b80636352211e146103d757806370a0823114610407578063715018a614610437576101ce565b806323b872dd1161017157806342842e0e1161014b57806342842e0e14610353578063484a20321461036f578063503f30ac1461038b578063518dec2c146103bb576101ce565b806323b872dd146102e95780632963851d1461030557806329c7944914610335576101ce565b8063081812fc116101ad578063081812fc14610251578063095ea7b31461028157806310d44ae01461029d57806321d80111146102b9576101ce565b80625597e3146101d357806301ffc9a71461020357806306fdde0314610233575b600080fd5b6101ed60048036038101906101e891906136f0565b6105c3565b6040516101fa91906137e5565b60405180910390f35b61021d6004803603810190610218919061385f565b610720565b60405161022a91906138a7565b60405180910390f35b61023b610802565b604051610248919061395b565b60405180910390f35b61026b600480360381019061026691906139a9565b610894565b60405161027891906139e5565b60405180910390f35b61029b60048036038101906102969190613a00565b610919565b005b6102b760048036038101906102b29190613bbf565b610a31565b005b6102d360048036038101906102ce91906139a9565b61100d565b6040516102e09190613e35565b60405180910390f35b61030360048036038101906102fe9190613e57565b611203565b005b61031f600480360381019061031a9190613ed6565b611263565b60405161032c91906140dd565b60405180910390f35b61033d611631565b60405161034a91906139e5565b60405180910390f35b61036d60048036038101906103689190613e57565b611657565b005b6103896004803603810190610384919061412b565b611677565b005b6103a560048036038101906103a091906139a9565b611a0e565b6040516103b29190614261565b60405180910390f35b6103d560048036038101906103d091906136f0565b611cd7565b005b6103f160048036038101906103ec91906139a9565b611d97565b6040516103fe91906139e5565b60405180910390f35b610421600480360381019061041c91906136f0565b611e49565b60405161042e9190614292565b60405180910390f35b61043f611f01565b005b610449611f89565b60405161045691906139e5565b60405180910390f35b610467611faf565b60405161047491906137e5565b60405180910390f35b610485611fbf565b6040516104929190614292565b60405180910390f35b6104a3611fd0565b6040516104b091906139e5565b60405180910390f35b6104c1611ffa565b6040516104ce919061395b565b60405180910390f35b6104f160048036038101906104ec91906142d9565b61208c565b005b61050d600480360381019061050891906143ba565b61220d565b005b610529600480360381019061052491906136f0565b61226f565b005b610545600480360381019061054091906139a9565b61232f565b604051610552919061395b565b60405180910390f35b6105756004803603810190610570919061443d565b612363565b60405161058291906138a7565b60405180910390f35b6105a560048036038101906105a091906136f0565b6123f7565b005b6105c160048036038101906105bc919061447d565b6124ef565b005b606060006105d083611e49565b9050600081141561062d57600067ffffffffffffffff8111156105f6576105f5613a94565b5b6040519080825280602002602001820160405280156106245781602001602082028036833780820191505090505b5091505061071b565b60008167ffffffffffffffff81111561064957610648613a94565b5b6040519080825280602002602001820160405280156106775781602001602082028036833780820191505090505b50905060008060009050600091505b61069060086125a9565b821015610713578573ffffffffffffffffffffffffffffffffffffffff166106b783611d97565b73ffffffffffffffffffffffffffffffffffffffff16141561070057818382806106e090614508565b9350815181106106f3576106f2614551565b5b6020026020010181815250505b818061070b90614508565b925050610686565b829450505050505b919050565b60007f80ac58cd000000000000000000000000000000000000000000000000000000007bffffffffffffffffffffffffffffffffffffffffffffffffffffffff1916827bffffffffffffffffffffffffffffffffffffffffffffffffffffffff191614806107eb57507f5b5e139f000000000000000000000000000000000000000000000000000000007bffffffffffffffffffffffffffffffffffffffffffffffffffffffff1916827bffffffffffffffffffffffffffffffffffffffffffffffffffffffff1916145b806107fb57506107fa826125b7565b5b9050919050565b606060008054610811906145af565b80601f016020809104026020016040519081016040528092919081815260200182805461083d906145af565b801561088a5780601f1061085f5761010080835404028352916020019161088a565b820191906000526020600020905b81548152906001019060200180831161086d57829003601f168201915b5050505050905090565b600061089f82612621565b6108de576040517f08c379a00000000000000000000000000000000000000000000000000000000081526004016108d590614653565b60405180910390fd5b6004600083815260200190815260200160002060009054906101000a900473ffffffffffffffffffffffffffffffffffffffff169050919050565b600061092482611d97565b90508073ffffffffffffffffffffffffffffffffffffffff168373ffffffffffffffffffffffffffffffffffffffff161415610995576040517f08c379a000000000000000000000000000000000000000000000000000000000815260040161098c906146e5565b60405180910390fd5b8073ffffffffffffffffffffffffffffffffffffffff166109b461268d565b73ffffffffffffffffffffffffffffffffffffffff1614806109e357506109e2816109dd61268d565b612363565b5b610a22576040517f08c379a0000000000000000000000000000000000000000000000000000000008152600401610a1990614777565b60405180910390fd5b610a2c8383612695565b505050565b610a3961268d565b73ffffffffffffffffffffffffffffffffffffffff16610a57611fd0565b73ffffffffffffffffffffffffffffffffffffffff1614610aad576040517f08c379a0000000000000000000000000000000000000000000000000000000008152600401610aa4906147e3565b60405180910390fd5b6000610ab960086125a9565b905060008060006003811115610ad257610ad1613c78565b5b856003811115610ae557610ae4613c78565b5b1415610af8576004915060069050610b77565b60016003811115610b0c57610b0b613c78565b5b856003811115610b1f57610b1e613c78565b5b1415610b32576007915060089050610b76565b60026003811115610b4657610b45613c78565b5b856003811115610b5957610b58613c78565b5b1415610b6c5760099150600a9050610b75565b600b9150600c90505b5b5b60008260ff16610b918484610b8c9190614803565b61274e565b610b9b9190614837565b90506000600467ffffffffffffffff811115610bba57610bb9613a94565b5b604051908082528060200260200182016040528015610be85781602001602082028036833780820191505090505b509050600181600081518110610c0157610c00614551565b5b602002602001019060ff16908160ff1681525050600181600181518110610c2b57610c2a614551565b5b602002602001019060ff16908160ff1681525050600181600281518110610c5557610c54614551565b5b602002602001019060ff16908160ff1681525050600181600381518110610c7f57610c7e614551565b5b602002602001019060ff16908160ff1681525050600080600190505b838160ff1611610d7c5782600d60008c6003811115610cbd57610cbc613c78565b5b6003811115610ccf57610cce613c78565b5b81526020019081526020016000208360ff1681548110610cf257610cf1614551565b5b90600052602060002090602091828204019190069054906101000a900460ff1660ff1681518110610d2657610d25614551565b5b602002602001018051809190610d3b9061488d565b60ff1660ff168152505060058260ff161415610d5a5760009150610d69565b8180610d659061488d565b9250505b8080610d749061488d565b915050610c9b565b50610d873387612864565b610d918688612882565b600b6040518061012001604052806040518060200160405280600081525081526020018b6003811115610dc757610dc6613c78565b5b81526020018a6003811115610ddf57610dde613c78565b5b815260200184600081518110610df857610df7614551565b5b602002602001015160ff16815260200184600181518110610e1c57610e1b614551565b5b602002602001015160ff16815260200184600281518110610e4057610e3f614551565b5b602002602001015160ff16815260200184600381518110610e6457610e63614551565b5b602002602001015160ff168152602001600160ff168152602001600061ffff1681525090806001815401808255809150506001900390600052602060002090600202016000909190919091506000820151816000019080519060200190610ecc9291906134b1565b5060208201518160010160006101000a81548160ff02191690836003811115610ef857610ef7613c78565b5b021790555060408201518160010160016101000a81548160ff02191690836003811115610f2857610f27613c78565b5b021790555060608201518160010160026101000a81548160ff021916908360ff16021790555060808201518160010160036101000a81548160ff021916908360ff16021790555060a08201518160010160046101000a81548160ff021916908360ff16021790555060c08201518160010160056101000a81548160ff021916908360ff16021790555060e08201518160010160066101000a81548160ff021916908360ff1602179055506101008201518160010160076101000a81548161ffff021916908361ffff160217905550505061100260086128f6565b505050505050505050565b611015613537565b600b828154811061102957611028614551565b5b906000526020600020906002020160405180610120016040529081600082018054611053906145af565b80601f016020809104026020016040519081016040528092919081815260200182805461107f906145af565b80156110cc5780601f106110a1576101008083540402835291602001916110cc565b820191906000526020600020905b8154815290600101906020018083116110af57829003601f168201915b505050505081526020016001820160009054906101000a900460ff1660038111156110fa576110f9613c78565b5b600381111561110c5761110b613c78565b5b81526020016001820160019054906101000a900460ff16600381111561113557611134613c78565b5b600381111561114757611146613c78565b5b81526020016001820160029054906101000a900460ff1660ff1660ff1681526020016001820160039054906101000a900460ff1660ff1660ff1681526020016001820160049054906101000a900460ff1660ff1660ff1681526020016001820160059054906101000a900460ff1660ff1660ff1681526020016001820160069054906101000a900460ff1660ff1660ff1681526020016001820160079054906101000a900461ffff1661ffff1661ffff16815250509050919050565b61121461120e61268d565b8261290c565b611253576040517f08c379a000000000000000000000000000000000000000000000000000000000815260040161124a90614929565b60405180910390fd5b61125e8383836129ea565b505050565b60606000828460ff166112769190614949565b905060008460ff169050600b805490508560ff16836112959190614837565b11156112af5781600b805490506112ac91906149a3565b90505b60008167ffffffffffffffff8111156112cb576112ca613a94565b5b60405190808252806020026020018201604052801561130457816020015b6112f16135ba565b8152602001906001900390816112e95790505b5090506000808490505b6001848661131c9190614837565b61132691906149a3565b8111611623576000600b828154811061134257611341614551565b5b90600052602060002090600202016040518061012001604052908160008201805461136c906145af565b80601f0160208091040260200160405190810160405280929190818152602001828054611398906145af565b80156113e55780601f106113ba576101008083540402835291602001916113e5565b820191906000526020600020905b8154815290600101906020018083116113c857829003601f168201915b505050505081526020016001820160009054906101000a900460ff16600381111561141357611412613c78565b5b600381111561142557611424613c78565b5b81526020016001820160019054906101000a900460ff16600381111561144e5761144d613c78565b5b60038111156114605761145f613c78565b5b81526020016001820160029054906101000a900460ff1660ff1660ff1681526020016001820160039054906101000a900460ff1660ff1660ff1681526020016001820160049054906101000a900460ff1660ff1660ff1681526020016001820160059054906101000a900460ff1660ff1660ff1681526020016001820160069054906101000a900460ff1660ff1660ff1681526020016001820160079054906101000a900461ffff1661ffff1661ffff16815250509050604051806101600160405280826000015181526020018260200151600381111561154457611543613c78565b5b8152602001826040015160038111156115605761155f613c78565b5b8152602001826060015160ff168152602001826080015160ff1681526020018260a0015160ff1681526020018260c0015160ff1681526020018260e0015160ff16815260200182610100015161ffff1681526020016115be84611d97565b73ffffffffffffffffffffffffffffffffffffffff1681526020016115e28461232f565b8152508484806115f190614508565b95508151811061160457611603614551565b5b602002602001018190525050808061161b90614508565b91505061130e565b508194505050505092915050565b600a60009054906101000a900473ffffffffffffffffffffffffffffffffffffffff1681565b6116728383836040518060200160405280600081525061220d565b505050565b600960009054906101000a900473ffffffffffffffffffffffffffffffffffffffff1673ffffffffffffffffffffffffffffffffffffffff163373ffffffffffffffffffffffffffffffffffffffff1614806117205750600a60009054906101000a900473ffffffffffffffffffffffffffffffffffffffff1673ffffffffffffffffffffffffffffffffffffffff163373ffffffffffffffffffffffffffffffffffffffff16145b61175f576040517f08c379a000000000000000000000000000000000000000000000000000000000815260040161175690614a49565b60405180910390fd5b6000600b838154811061177557611774614551565b5b90600052602060002090600202019050818160010160078282829054906101000a900461ffff166117a69190614a69565b92506101000a81548161ffff021916908361ffff1602179055508060010160079054906101000a900461ffff1661ffff16837f5e4984a28872a040fc1a681e4330b49cbce17ae15a7202ad2fa0e330aa3654d960405160405180910390a38060010160069054906101000a900460ff1660026118229190614bd4565b8160010160079054906101000a900461ffff1661ffff1610611a095780600101600681819054906101000a900460ff168092919061185f9061488d565b91906101000a81548160ff021916908360ff1602179055505060008160010160076101000a81548161ffff021916908361ffff16021790555060006118a4600361274e565b905060008114156118ee5781600101600281819054906101000a900460ff16809291906118d09061488d565b91906101000a81548160ff021916908360ff160217905550506119c5565b60018114156119365781600101600381819054906101000a900460ff16809291906119189061488d565b91906101000a81548160ff021916908360ff160217905550506119c4565b600281141561197e5781600101600481819054906101000a900460ff16809291906119609061488d565b91906101000a81548160ff021916908360ff160217905550506119c3565b60038114156119c25781600101600581819054906101000a900460ff16809291906119a89061488d565b91906101000a81548160ff021916908360ff160217905550505b5b5b5b8160010160069054906101000a900460ff1660ff16847fad739759ba8930019bd1c3be6ed5fcd01b01d8281b167965f3268c8995a69c6160405160405180910390a3505b505050565b611a166135ba565b6000600b8381548110611a2c57611a2b614551565b5b906000526020600020906002020160405180610120016040529081600082018054611a56906145af565b80601f0160208091040260200160405190810160405280929190818152602001828054611a82906145af565b8015611acf5780601f10611aa457610100808354040283529160200191611acf565b820191906000526020600020905b815481529060010190602001808311611ab257829003601f168201915b505050505081526020016001820160009054906101000a900460ff166003811115611afd57611afc613c78565b5b6003811115611b0f57611b0e613c78565b5b81526020016001820160019054906101000a900460ff166003811115611b3857611b37613c78565b5b6003811115611b4a57611b49613c78565b5b81526020016001820160029054906101000a900460ff1660ff1660ff1681526020016001820160039054906101000a900460ff1660ff1660ff1681526020016001820160049054906101000a900460ff1660ff1660ff1681526020016001820160059054906101000a900460ff1660ff1660ff1681526020016001820160069054906101000a900460ff1660ff1660ff1681526020016001820160079054906101000a900461ffff1661ffff1661ffff168152505090506040518061016001604052808260000151815260200182602001516003811115611c2e57611c2d613c78565b5b815260200182604001516003811115611c4a57611c49613c78565b5b8152602001826060015160ff168152602001826080015160ff1681526020018260a0015160ff1681526020018260c0015160ff1681526020018260e0015160ff16815260200182610100015161ffff168152602001611ca885611d97565b73ffffffffffffffffffffffffffffffffffffffff168152602001611ccc8561232f565b815250915050919050565b611cdf61268d565b73ffffffffffffffffffffffffffffffffffffffff16611cfd611fd0565b73ffffffffffffffffffffffffffffffffffffffff1614611d53576040517f08c379a0000000000000000000000000000000000000000000000000000000008152600401611d4a906147e3565b60405180910390fd5b80600a60006101000a81548173ffffffffffffffffffffffffffffffffffffffff021916908373ffffffffffffffffffffffffffffffffffffffff16021790555050565b6000806002600084815260200190815260200160002060009054906101000a900473ffffffffffffffffffffffffffffffffffffffff169050600073ffffffffffffffffffffffffffffffffffffffff168173ffffffffffffffffffffffffffffffffffffffff161415611e40576040517f08c379a0000000000000000000000000000000000000000000000000000000008152600401611e3790614c91565b60405180910390fd5b80915050919050565b60008073ffffffffffffffffffffffffffffffffffffffff168273ffffffffffffffffffffffffffffffffffffffff161415611eba576040517f08c379a0000000000000000000000000000000000000000000000000000000008152600401611eb190614d23565b60405180910390fd5b600360008373ffffffffffffffffffffffffffffffffffffffff1673ffffffffffffffffffffffffffffffffffffffff168152602001908152602001600020549050919050565b611f0961268d565b73ffffffffffffffffffffffffffffffffffffffff16611f27611fd0565b73ffffffffffffffffffffffffffffffffffffffff1614611f7d576040517f08c379a0000000000000000000000000000000000000000000000000000000008152600401611f74906147e3565b60405180910390fd5b611f876000612c46565b565b600960009054906101000a900473ffffffffffffffffffffffffffffffffffffffff1681565b6060611fba336105c3565b905090565b6000611fcb60086125a9565b905090565b6000600760009054906101000a900473ffffffffffffffffffffffffffffffffffffffff16905090565b606060018054612009906145af565b80601f0160208091040260200160405190810160405280929190818152602001828054612035906145af565b80156120825780601f1061205757610100808354040283529160200191612082565b820191906000526020600020905b81548152906001019060200180831161206557829003601f168201915b5050505050905090565b61209461268d565b73ffffffffffffffffffffffffffffffffffffffff168273ffffffffffffffffffffffffffffffffffffffff161415612102576040517f08c379a00000000000000000000000000000000000000000000000000000000081526004016120f990614d8f565b60405180910390fd5b806005600061210f61268d565b73ffffffffffffffffffffffffffffffffffffffff1673ffffffffffffffffffffffffffffffffffffffff16815260200190815260200160002060008473ffffffffffffffffffffffffffffffffffffffff1673ffffffffffffffffffffffffffffffffffffffff16815260200190815260200160002060006101000a81548160ff0219169083151502179055508173ffffffffffffffffffffffffffffffffffffffff166121bc61268d565b73ffffffffffffffffffffffffffffffffffffffff167f17307eab39ab6107e8899845ad3d59bd9653f200f220920489ca2b5937696c318360405161220191906138a7565b60405180910390a35050565b61221e61221861268d565b8361290c565b61225d576040517f08c379a000000000000000000000000000000000000000000000000000000000815260040161225490614929565b60405180910390fd5b61226984848484612d0c565b50505050565b61227761268d565b73ffffffffffffffffffffffffffffffffffffffff16612295611fd0565b73ffffffffffffffffffffffffffffffffffffffff16146122eb576040517f08c379a00000000000000000000000000000000000000000000000000000000081526004016122e2906147e3565b60405180910390fd5b80600960006101000a81548173ffffffffffffffffffffffffffffffffffffffff021916908373ffffffffffffffffffffffffffffffffffffffff16021790555050565b6060600c61233c83612d68565b60405160200161234d929190614e7f565b6040516020818303038152906040529050919050565b6000600560008473ffffffffffffffffffffffffffffffffffffffff1673ffffffffffffffffffffffffffffffffffffffff16815260200190815260200160002060008373ffffffffffffffffffffffffffffffffffffffff1673ffffffffffffffffffffffffffffffffffffffff16815260200190815260200160002060009054906101000a900460ff16905092915050565b6123ff61268d565b73ffffffffffffffffffffffffffffffffffffffff1661241d611fd0565b73ffffffffffffffffffffffffffffffffffffffff1614612473576040517f08c379a000000000000000000000000000000000000000000000000000000000815260040161246a906147e3565b60405180910390fd5b600073ffffffffffffffffffffffffffffffffffffffff168173ffffffffffffffffffffffffffffffffffffffff1614156124e3576040517f08c379a00000000000000000000000000000000000000000000000000000000081526004016124da90614f15565b60405180910390fd5b6124ec81612c46565b50565b6124f882611d97565b73ffffffffffffffffffffffffffffffffffffffff163373ffffffffffffffffffffffffffffffffffffffff1614612565576040517f08c379a000000000000000000000000000000000000000000000000000000000815260040161255c90614f81565b60405180910390fd5b6000600b838154811061257b5761257a614551565b5b90600052602060002090600202019050818160000190805190602001906125a39291906134b1565b50505050565b600081600001549050919050565b60007f01ffc9a7000000000000000000000000000000000000000000000000000000007bffffffffffffffffffffffffffffffffffffffffffffffffffffffff1916827bffffffffffffffffffffffffffffffffffffffffffffffffffffffff1916149050919050565b60008073ffffffffffffffffffffffffffffffffffffffff166002600084815260200190815260200160002060009054906101000a900473ffffffffffffffffffffffffffffffffffffffff1673ffffffffffffffffffffffffffffffffffffffff1614159050919050565b600033905090565b816004600083815260200190815260200160002060006101000a81548173ffffffffffffffffffffffffffffffffffffffff021916908373ffffffffffffffffffffffffffffffffffffffff160217905550808273ffffffffffffffffffffffffffffffffffffffff1661270883611d97565b73ffffffffffffffffffffffffffffffffffffffff167f8c5be1e5ebec7d5bd14f71427d1e84f3dd0314c0f7b2291e5b200ac8c7c3b92560405160405180910390a45050565b6000804342336040516020016127649190614fe9565b6040516020818303038152906040528051906020012060001c6127879190615033565b45424160405160200161279a919061509f565b6040516020818303038152906040528051906020012060001c6127bd9190615033565b44426127c99190614837565b6127d39190614837565b6127dd9190614837565b6127e79190614837565b6127f19190614837565b60405160200161280191906150db565b6040516020818303038152906040528051906020012060001c905060018361282991906150f6565b60ff1660018461283991906150f6565b60ff16826128479190615033565b6128519190614949565b8161285c91906149a3565b915050919050565b61287e828260405180602001604052806000815250612eba565b5050565b61288b82612621565b6128ca576040517f08c379a00000000000000000000000000000000000000000000000000000000081526004016128c19061519f565b60405180910390fd5b806006600084815260200190815260200160002090805190602001906128f19291906134b1565b505050565b6001816000016000828254019250508190555050565b600061291782612621565b612956576040517f08c379a000000000000000000000000000000000000000000000000000000000815260040161294d90615231565b60405180910390fd5b600061296183611d97565b90508073ffffffffffffffffffffffffffffffffffffffff168473ffffffffffffffffffffffffffffffffffffffff1614806129d057508373ffffffffffffffffffffffffffffffffffffffff166129b884610894565b73ffffffffffffffffffffffffffffffffffffffff16145b806129e157506129e08185612363565b5b91505092915050565b8273ffffffffffffffffffffffffffffffffffffffff16612a0a82611d97565b73ffffffffffffffffffffffffffffffffffffffff1614612a60576040517f08c379a0000000000000000000000000000000000000000000000000000000008152600401612a57906152c3565b60405180910390fd5b600073ffffffffffffffffffffffffffffffffffffffff168273ffffffffffffffffffffffffffffffffffffffff161415612ad0576040517f08c379a0000000000000000000000000000000000000000000000000000000008152600401612ac790615355565b60405180910390fd5b612adb838383612f15565b612ae6600082612695565b6001600360008573ffffffffffffffffffffffffffffffffffffffff1673ffffffffffffffffffffffffffffffffffffffff1681526020019081526020016000206000828254612b3691906149a3565b925050819055506001600360008473ffffffffffffffffffffffffffffffffffffffff1673ffffffffffffffffffffffffffffffffffffffff1681526020019081526020016000206000828254612b8d9190614837565b92505081905550816002600083815260200190815260200160002060006101000a81548173ffffffffffffffffffffffffffffffffffffffff021916908373ffffffffffffffffffffffffffffffffffffffff160217905550808273ffffffffffffffffffffffffffffffffffffffff168473ffffffffffffffffffffffffffffffffffffffff167fddf252ad1be2c89b69c2b068fc378daa952ba7f163c4a11628f55a4df523b3ef60405160405180910390a4505050565b6000600760009054906101000a900473ffffffffffffffffffffffffffffffffffffffff16905081600760006101000a81548173ffffffffffffffffffffffffffffffffffffffff021916908373ffffffffffffffffffffffffffffffffffffffff1602179055508173ffffffffffffffffffffffffffffffffffffffff168173ffffffffffffffffffffffffffffffffffffffff167f8be0079c531659141344cd1fd0a4f28419497f9722a3daafe3b4186f6b6457e060405160405180910390a35050565b612d178484846129ea565b612d2384848484612f1a565b612d62576040517f08c379a0000000000000000000000000000000000000000000000000000000008152600401612d59906153e7565b60405180910390fd5b50505050565b6060612d7382612621565b612db2576040517f08c379a0000000000000000000000000000000000000000000000000000000008152600401612da990615479565b60405180910390fd5b6000600660008481526020019081526020016000208054612dd2906145af565b80601f0160208091040260200160405190810160405280929190818152602001828054612dfe906145af565b8015612e4b5780601f10612e2057610100808354040283529160200191612e4b565b820191906000526020600020905b815481529060010190602001808311612e2e57829003601f168201915b505050505090506000612e5c6130b1565b9050600081511415612e72578192505050612eb5565b600082511115612ea7578082604051602001612e8f929190615499565b60405160208183030381529060405292505050612eb5565b612eb0846130c8565b925050505b919050565b612ec4838361316f565b612ed16000848484612f1a565b612f10576040517f08c379a0000000000000000000000000000000000000000000000000000000008152600401612f07906153e7565b60405180910390fd5b505050565b505050565b6000612f3b8473ffffffffffffffffffffffffffffffffffffffff1661333d565b156130a4578373ffffffffffffffffffffffffffffffffffffffff1663150b7a02612f6461268d565b8786866040518563ffffffff1660e01b8152600401612f869493929190615512565b602060405180830381600087803b158015612fa057600080fd5b505af1925050508015612fd157506040513d601f19601f82011682018060405250810190612fce9190615573565b60015b613054573d8060008114613001576040519150601f19603f3d011682016040523d82523d6000602084013e613006565b606091505b5060008151141561304c576040517f08c379a0000000000000000000000000000000000000000000000000000000008152600401613043906153e7565b60405180910390fd5b805181602001fd5b63150b7a0260e01b7bffffffffffffffffffffffffffffffffffffffffffffffffffffffff1916817bffffffffffffffffffffffffffffffffffffffffffffffffffffffff1916149150506130a9565b600190505b949350505050565b606060405180602001604052806000815250905090565b60606130d382612621565b613112576040517f08c379a000000000000000000000000000000000000000000000000000000000815260040161310990615612565b60405180910390fd5b600061311c6130b1565b9050600081511161313c5760405180602001604052806000815250613167565b8061314684613350565b604051602001613157929190615499565b6040516020818303038152906040525b915050919050565b600073ffffffffffffffffffffffffffffffffffffffff168273ffffffffffffffffffffffffffffffffffffffff1614156131df576040517f08c379a00000000000000000000000000000000000000000000000000000000081526004016131d69061567e565b60405180910390fd5b6131e881612621565b15613228576040517f08c379a000000000000000000000000000000000000000000000000000000000815260040161321f906156ea565b60405180910390fd5b61323460008383612f15565b6001600360008473ffffffffffffffffffffffffffffffffffffffff1673ffffffffffffffffffffffffffffffffffffffff16815260200190815260200160002060008282546132849190614837565b92505081905550816002600083815260200190815260200160002060006101000a81548173ffffffffffffffffffffffffffffffffffffffff021916908373ffffffffffffffffffffffffffffffffffffffff160217905550808273ffffffffffffffffffffffffffffffffffffffff16600073ffffffffffffffffffffffffffffffffffffffff167fddf252ad1be2c89b69c2b068fc378daa952ba7f163c4a11628f55a4df523b3ef60405160405180910390a45050565b600080823b905060008111915050919050565b60606000821415613398576040518060400160405280600181526020017f300000000000000000000000000000000000000000000000000000000000000081525090506134ac565b600082905060005b600082146133ca5780806133b390614508565b915050600a826133c39190615033565b91506133a0565b60008167ffffffffffffffff8111156133e6576133e5613a94565b5b6040519080825280601f01601f1916602001820160405280156134185781602001600182028036833780820191505090505b5090505b600085146134a55760018261343191906149a3565b9150600a85613440919061570a565b603061344c9190614837565b60f81b81838151811061346257613461614551565b5b60200101907effffffffffffffffffffffffffffffffffffffffffffffffffffffffffffff1916908160001a905350600a8561349e9190615033565b945061341c565b8093505050505b919050565b8280546134bd906145af565b90600052602060002090601f0160209004810192826134df5760008555613526565b82601f106134f857805160ff1916838001178555613526565b82800160010185558215613526579182015b8281111561352557825182559160200191906001019061350a565b5b5090506135339190613661565b5090565b604051806101200160405280606081526020016000600381111561355e5761355d613c78565b5b81526020016000600381111561357757613576613c78565b5b8152602001600060ff168152602001600060ff168152602001600060ff168152602001600060ff168152602001600060ff168152602001600061ffff1681525090565b60405180610160016040528060608152602001600060038111156135e1576135e0613c78565b5b8152602001600060038111156135fa576135f9613c78565b5b8152602001600060ff168152602001600060ff168152602001600060ff168152602001600060ff168152602001600060ff168152602001600061ffff168152602001600073ffffffffffffffffffffffffffffffffffffffff168152602001606081525090565b5b8082111561367a576000816000905550600101613662565b5090565b6000604051905090565b600080fd5b600080fd5b600073ffffffffffffffffffffffffffffffffffffffff82169050919050565b60006136bd82613692565b9050919050565b6136cd816136b2565b81146136d857600080fd5b50565b6000813590506136ea816136c4565b92915050565b60006020828403121561370657613705613688565b5b6000613714848285016136db565b91505092915050565b600081519050919050565b600082825260208201905092915050565b6000819050602082019050919050565b6000819050919050565b61375c81613749565b82525050565b600061376e8383613753565b60208301905092915050565b6000602082019050919050565b60006137928261371d565b61379c8185613728565b93506137a783613739565b8060005b838110156137d85781516137bf8882613762565b97506137ca8361377a565b9250506001810190506137ab565b5085935050505092915050565b600060208201905081810360008301526137ff8184613787565b905092915050565b60007fffffffff0000000000000000000000000000000000000000000000000000000082169050919050565b61383c81613807565b811461384757600080fd5b50565b60008135905061385981613833565b92915050565b60006020828403121561387557613874613688565b5b60006138838482850161384a565b91505092915050565b60008115159050919050565b6138a18161388c565b82525050565b60006020820190506138bc6000830184613898565b92915050565b600081519050919050565b600082825260208201905092915050565b60005b838110156138fc5780820151818401526020810190506138e1565b8381111561390b576000848401525b50505050565b6000601f19601f8301169050919050565b600061392d826138c2565b61393781856138cd565b93506139478185602086016138de565b61395081613911565b840191505092915050565b600060208201905081810360008301526139758184613922565b905092915050565b61398681613749565b811461399157600080fd5b50565b6000813590506139a38161397d565b92915050565b6000602082840312156139bf576139be613688565b5b60006139cd84828501613994565b91505092915050565b6139df816136b2565b82525050565b60006020820190506139fa60008301846139d6565b92915050565b60008060408385031215613a1757613a16613688565b5b6000613a25858286016136db565b9250506020613a3685828601613994565b9150509250929050565b60048110613a4d57600080fd5b50565b600081359050613a5f81613a40565b92915050565b60048110613a7257600080fd5b50565b600081359050613a8481613a65565b92915050565b600080fd5b600080fd5b7f4e487b7100000000000000000000000000000000000000000000000000000000600052604160045260246000fd5b613acc82613911565b810181811067ffffffffffffffff82111715613aeb57613aea613a94565b5b80604052505050565b6000613afe61367e565b9050613b0a8282613ac3565b919050565b600067ffffffffffffffff821115613b2a57613b29613a94565b5b613b3382613911565b9050602081019050919050565b82818337600083830152505050565b6000613b62613b5d84613b0f565b613af4565b905082815260208101848484011115613b7e57613b7d613a8f565b5b613b89848285613b40565b509392505050565b600082601f830112613ba657613ba5613a8a565b5b8135613bb6848260208601613b4f565b91505092915050565b600080600060608486031215613bd857613bd7613688565b5b6000613be686828701613a50565b9350506020613bf786828701613a75565b925050604084013567ffffffffffffffff811115613c1857613c1761368d565b5b613c2486828701613b91565b9150509250925092565b600082825260208201905092915050565b6000613c4a826138c2565b613c548185613c2e565b9350613c648185602086016138de565b613c6d81613911565b840191505092915050565b7f4e487b7100000000000000000000000000000000000000000000000000000000600052602160045260246000fd5b60048110613cb857613cb7613c78565b5b50565b6000819050613cc982613ca7565b919050565b6000613cd982613cbb565b9050919050565b613ce981613cce565b82525050565b60048110613d0057613cff613c78565b5b50565b6000819050613d1182613cef565b919050565b6000613d2182613d03565b9050919050565b613d3181613d16565b82525050565b600060ff82169050919050565b613d4d81613d37565b82525050565b600061ffff82169050919050565b613d6a81613d53565b82525050565b6000610120830160008301518482036000860152613d8e8282613c3f565b9150506020830151613da36020860182613ce0565b506040830151613db66040860182613d28565b506060830151613dc96060860182613d44565b506080830151613ddc6080860182613d44565b5060a0830151613def60a0860182613d44565b5060c0830151613e0260c0860182613d44565b5060e0830151613e1560e0860182613d44565b50610100830151613e2a610100860182613d61565b508091505092915050565b60006020820190508181036000830152613e4f8184613d70565b905092915050565b600080600060608486031215613e7057613e6f613688565b5b6000613e7e868287016136db565b9350506020613e8f868287016136db565b9250506040613ea086828701613994565b9150509250925092565b613eb381613d37565b8114613ebe57600080fd5b50565b600081359050613ed081613eaa565b92915050565b60008060408385031215613eed57613eec613688565b5b6000613efb85828601613ec1565b9250506020613f0c85828601613994565b9150509250929050565b600081519050919050565b600082825260208201905092915050565b6000819050602082019050919050565b613f4b816136b2565b82525050565b6000610160830160008301518482036000860152613f6f8282613c3f565b9150506020830151613f846020860182613ce0565b506040830151613f976040860182613d28565b506060830151613faa6060860182613d44565b506080830151613fbd6080860182613d44565b5060a0830151613fd060a0860182613d44565b5060c0830151613fe360c0860182613d44565b5060e0830151613ff660e0860182613d44565b5061010083015161400b610100860182613d61565b50610120830151614020610120860182613f42565b5061014083015184820361014086015261403a8282613c3f565b9150508091505092915050565b60006140538383613f51565b905092915050565b6000602082019050919050565b600061407382613f16565b61407d8185613f21565b93508360208202850161408f85613f32565b8060005b858110156140cb57848403895281516140ac8582614047565b94506140b78361405b565b925060208a01995050600181019050614093565b50829750879550505050505092915050565b600060208201905081810360008301526140f78184614068565b905092915050565b61410881613d53565b811461411357600080fd5b50565b600081359050614125816140ff565b92915050565b6000806040838503121561414257614141613688565b5b600061415085828601613994565b925050602061416185828601614116565b9150509250929050565b60006101608301600083015184820360008601526141898282613c3f565b915050602083015161419e6020860182613ce0565b5060408301516141b16040860182613d28565b5060608301516141c46060860182613d44565b5060808301516141d76080860182613d44565b5060a08301516141ea60a0860182613d44565b5060c08301516141fd60c0860182613d44565b5060e083015161421060e0860182613d44565b50610100830151614225610100860182613d61565b5061012083015161423a610120860182613f42565b506101408301518482036101408601526142548282613c3f565b9150508091505092915050565b6000602082019050818103600083015261427b818461416b565b905092915050565b61428c81613749565b82525050565b60006020820190506142a76000830184614283565b92915050565b6142b68161388c565b81146142c157600080fd5b50565b6000813590506142d3816142ad565b92915050565b600080604083850312156142f0576142ef613688565b5b60006142fe858286016136db565b925050602061430f858286016142c4565b9150509250929050565b600067ffffffffffffffff82111561433457614333613a94565b5b61433d82613911565b9050602081019050919050565b600061435d61435884614319565b613af4565b90508281526020810184848401111561437957614378613a8f565b5b614384848285613b40565b509392505050565b600082601f8301126143a1576143a0613a8a565b5b81356143b184826020860161434a565b91505092915050565b600080600080608085870312156143d4576143d3613688565b5b60006143e2878288016136db565b94505060206143f3878288016136db565b935050604061440487828801613994565b925050606085013567ffffffffffffffff8111156144255761442461368d565b5b6144318782880161438c565b91505092959194509250565b6000806040838503121561445457614453613688565b5b6000614462858286016136db565b9250506020614473858286016136db565b9150509250929050565b6000806040838503121561449457614493613688565b5b60006144a285828601613994565b925050602083013567ffffffffffffffff8111156144c3576144c261368d565b5b6144cf85828601613b91565b9150509250929050565b7f4e487b7100000000000000000000000000000000000000000000000000000000600052601160045260246000fd5b600061451382613749565b91507fffffffffffffffffffffffffffffffffffffffffffffffffffffffffffffffff821415614546576145456144d9565b5b600182019050919050565b7f4e487b7100000000000000000000000000000000000000000000000000000000600052603260045260246000fd5b7f4e487b7100000000000000000000000000000000000000000000000000000000600052602260045260246000fd5b600060028204905060018216806145c757607f821691505b602082108114156145db576145da614580565b5b50919050565b7f4552433732313a20617070726f76656420717565727920666f72206e6f6e657860008201527f697374656e7420746f6b656e0000000000000000000000000000000000000000602082015250565b600061463d602c836138cd565b9150614648826145e1565b604082019050919050565b6000602082019050818103600083015261466c81614630565b9050919050565b7f4552433732313a20617070726f76616c20746f2063757272656e74206f776e6560008201527f7200000000000000000000000000000000000000000000000000000000000000602082015250565b60006146cf6021836138cd565b91506146da82614673565b604082019050919050565b600060208201905081810360008301526146fe816146c2565b9050919050565b7f4552433732313a20617070726f76652063616c6c6572206973206e6f74206f7760008201527f6e6572206e6f7220617070726f76656420666f7220616c6c0000000000000000602082015250565b60006147616038836138cd565b915061476c82614705565b604082019050919050565b6000602082019050818103600083015261479081614754565b9050919050565b7f4f776e61626c653a2063616c6c6572206973206e6f7420746865206f776e6572600082015250565b60006147cd6020836138cd565b91506147d882614797565b602082019050919050565b600060208201905081810360008301526147fc816147c0565b9050919050565b600061480e82613d37565b915061481983613d37565b92508282101561482c5761482b6144d9565b5b828203905092915050565b600061484282613749565b915061484d83613749565b9250827fffffffffffffffffffffffffffffffffffffffffffffffffffffffffffffffff03821115614882576148816144d9565b5b828201905092915050565b600061489882613d37565b915060ff8214156148ac576148ab6144d9565b5b600182019050919050565b7f4552433732313a207472616e736665722063616c6c6572206973206e6f74206f60008201527f776e6572206e6f7220617070726f766564000000000000000000000000000000602082015250565b60006149136031836138cd565b915061491e826148b7565b604082019050919050565b6000602082019050818103600083015261494281614906565b9050919050565b600061495482613749565b915061495f83613749565b9250817fffffffffffffffffffffffffffffffffffffffffffffffffffffffffffffffff0483118215151615614998576149976144d9565b5b828202905092915050565b60006149ae82613749565b91506149b983613749565b9250828210156149cc576149cb6144d9565b5b828203905092915050565b7f4f6e6c7920626174746c65206f72206974656d2073686f7020636f6e7472616360008201527f742063616e206578656375746520697400000000000000000000000000000000602082015250565b6000614a336030836138cd565b9150614a3e826149d7565b604082019050919050565b60006020820190508181036000830152614a6281614a26565b9050919050565b6000614a7482613d53565b9150614a7f83613d53565b92508261ffff03821115614a9657614a956144d9565b5b828201905092915050565b60008160011c9050919050565b6000808291508390505b6001851115614af857808604811115614ad457614ad36144d9565b5b6001851615614ae35780820291505b8081029050614af185614aa1565b9450614ab8565b94509492505050565b600082614b115760019050614bcd565b81614b1f5760009050614bcd565b8160018114614b355760028114614b3f57614b6e565b6001915050614bcd565b60ff841115614b5157614b506144d9565b5b8360020a915084821115614b6857614b676144d9565b5b50614bcd565b5060208310610133831016604e8410600b8410161715614ba35782820a905083811115614b9e57614b9d6144d9565b5b614bcd565b614bb08484846001614aae565b92509050818404811115614bc757614bc66144d9565b5b81810290505b9392505050565b6000614bdf82613749565b9150614bea83613d37565b9250614c177fffffffffffffffffffffffffffffffffffffffffffffffffffffffffffffffff8484614b01565b905092915050565b7f4552433732313a206f776e657220717565727920666f72206e6f6e657869737460008201527f656e7420746f6b656e0000000000000000000000000000000000000000000000602082015250565b6000614c7b6029836138cd565b9150614c8682614c1f565b604082019050919050565b60006020820190508181036000830152614caa81614c6e565b9050919050565b7f4552433732313a2062616c616e636520717565727920666f7220746865207a6560008201527f726f206164647265737300000000000000000000000000000000000000000000602082015250565b6000614d0d602a836138cd565b9150614d1882614cb1565b604082019050919050565b60006020820190508181036000830152614d3c81614d00565b9050919050565b7f4552433732313a20617070726f766520746f2063616c6c657200000000000000600082015250565b6000614d796019836138cd565b9150614d8482614d43565b602082019050919050565b60006020820190508181036000830152614da881614d6c565b9050919050565b600081905092915050565b60008190508160005260206000209050919050565b60008154614ddc816145af565b614de68186614daf565b94506001821660008114614e015760018114614e1257614e45565b60ff19831686528186019350614e45565b614e1b85614dba565b60005b83811015614e3d57815481890152600182019150602081019050614e1e565b838801955050505b50505092915050565b6000614e59826138c2565b614e638185614daf565b9350614e738185602086016138de565b80840191505092915050565b6000614e8b8285614dcf565b9150614e978284614e4e565b91508190509392505050565b7f4f776e61626c653a206e6577206f776e657220697320746865207a65726f206160008201527f6464726573730000000000000000000000000000000000000000000000000000602082015250565b6000614eff6026836138cd565b9150614f0a82614ea3565b604082019050919050565b60006020820190508181036000830152614f2e81614ef2565b9050919050565b7f4e6f74206f776e65720000000000000000000000000000000000000000000000600082015250565b6000614f6b6009836138cd565b9150614f7682614f35565b602082019050919050565b60006020820190508181036000830152614f9a81614f5e565b9050919050565b60008160601b9050919050565b6000614fb982614fa1565b9050919050565b6000614fcb82614fae565b9050919050565b614fe3614fde826136b2565b614fc0565b82525050565b6000614ff58284614fd2565b60148201915081905092915050565b7f4e487b7100000000000000000000000000000000000000000000000000000000600052601260045260246000fd5b600061503e82613749565b915061504983613749565b92508261505957615058615004565b5b828204905092915050565b600061506f82613692565b9050919050565b600061508182614fae565b9050919050565b61509961509482615064565b615076565b82525050565b60006150ab8284615088565b60148201915081905092915050565b6000819050919050565b6150d56150d082613749565b6150ba565b82525050565b60006150e782846150c4565b60208201915081905092915050565b600061510182613d37565b915061510c83613d37565b92508260ff03821115615122576151216144d9565b5b828201905092915050565b7f45524337323155524953746f726167653a2055524920736574206f66206e6f6e60008201527f6578697374656e7420746f6b656e000000000000000000000000000000000000602082015250565b6000615189602e836138cd565b91506151948261512d565b604082019050919050565b600060208201905081810360008301526151b88161517c565b9050919050565b7f4552433732313a206f70657261746f7220717565727920666f72206e6f6e657860008201527f697374656e7420746f6b656e0000000000000000000000000000000000000000602082015250565b600061521b602c836138cd565b9150615226826151bf565b604082019050919050565b6000602082019050818103600083015261524a8161520e565b9050919050565b7f4552433732313a207472616e73666572206f6620746f6b656e2074686174206960008201527f73206e6f74206f776e0000000000000000000000000000000000000000000000602082015250565b60006152ad6029836138cd565b91506152b882615251565b604082019050919050565b600060208201905081810360008301526152dc816152a0565b9050919050565b7f4552433732313a207472616e7366657220746f20746865207a65726f2061646460008201527f7265737300000000000000000000000000000000000000000000000000000000602082015250565b600061533f6024836138cd565b915061534a826152e3565b604082019050919050565b6000602082019050818103600083015261536e81615332565b9050919050565b7f4552433732313a207472616e7366657220746f206e6f6e20455243373231526560008201527f63656976657220696d706c656d656e7465720000000000000000000000000000602082015250565b60006153d16032836138cd565b91506153dc82615375565b604082019050919050565b60006020820190508181036000830152615400816153c4565b9050919050565b7f45524337323155524953746f726167653a2055524920717565727920666f722060008201527f6e6f6e6578697374656e7420746f6b656e000000000000000000000000000000602082015250565b60006154636031836138cd565b915061546e82615407565b604082019050919050565b6000602082019050818103600083015261549281615456565b9050919050565b60006154a58285614e4e565b91506154b18284614e4e565b91508190509392505050565b600081519050919050565b600082825260208201905092915050565b60006154e4826154bd565b6154ee81856154c8565b93506154fe8185602086016138de565b61550781613911565b840191505092915050565b600060808201905061552760008301876139d6565b61553460208301866139d6565b6155416040830185614283565b818103606083015261555381846154d9565b905095945050505050565b60008151905061556d81613833565b92915050565b60006020828403121561558957615588613688565b5b60006155978482850161555e565b91505092915050565b7f4552433732314d657461646174613a2055524920717565727920666f72206e6f60008201527f6e6578697374656e7420746f6b656e0000000000000000000000000000000000602082015250565b60006155fc602f836138cd565b9150615607826155a0565b604082019050919050565b6000602082019050818103600083015261562b816155ef565b9050919050565b7f4552433732313a206d696e7420746f20746865207a65726f2061646472657373600082015250565b60006156686020836138cd565b915061567382615632565b602082019050919050565b600060208201905081810360008301526156978161565b565b9050919050565b7f4552433732313a20746f6b656e20616c7265616479206d696e74656400000000600082015250565b60006156d4601c836138cd565b91506156df8261569e565b602082019050919050565b60006020820190508181036000830152615703816156c7565b9050919050565b600061571582613749565b915061572083613749565b9250826157305761572f615004565b5b82820690509291505056fea26469706673582212205426994dd2476c714d870a8ae54940a53aabf14571029c3efb249746a64093ce64736f6c63430008090033",
  "immutableReferences": {},
  "source": "pragma solidity 0.8.9;\n\nimport \"../node_modules/@openzeppelin/contracts/token/ERC721/extensions/ERC721URIStorage.sol\";\nimport \"../node_modules/@openzeppelin/contracts/utils/Counters.sol\";\nimport \"../node_modules/@openzeppelin/contracts/access/Ownable.sol\";\n\ncontract GameToken is ERC721URIStorage, Ownable {\n    event HeroLevelUp(uint256 indexed tokenId, uint8 indexed level);\n    event NewCurrXP(uint256 indexed tokenId, uint16 indexed currXP);\n\n    using Counters for Counters.Counter;\n    Counters.Counter private _currentHeroId;\n\n    address public _battleAddress;\n    address public _itemShopAddress;\n\n    enum HeroType {\n        FIGHTER,\n        ROGUE,\n        MAGE,\n        TANK\n    }\n    enum HeroRarity {\n        COMMON,\n        UNCOMMON,\n        RARE,\n        LEGENDARY\n    }\n\n    struct Hero {\n        string name;\n        HeroType heroType;\n        HeroRarity rarity;\n        uint8 str;\n        uint8 con;\n        uint8 dex;\n        uint8 wis;\n        uint8 level;\n        uint16 currXP;\n    }\n\n    struct HeroDTO {\n        string name;\n        HeroType heroType;\n        HeroRarity rarity;\n        uint8 str;\n        uint8 con;\n        uint8 dex;\n        uint8 wis;\n        uint8 level;\n        uint16 currXP;\n        address owner;\n        string tokenURI;\n    }\n\n    Hero[] private _heroes;\n\n    string private _baseTokenURI;\n\n    mapping(HeroType => uint8[]) private _mapMint;\n\n    constructor(\n        string memory name,\n        string memory symbol,\n        string memory baseTokenURI\n    ) ERC721(name, symbol) {\n        _baseTokenURI = baseTokenURI;\n\n        _mapMint[HeroType.FIGHTER] = [0, 1, 0, 2, 3, 1];\n        _mapMint[HeroType.ROGUE] = [2, 2, 0, 3, 0, 2];\n        _mapMint[HeroType.MAGE] = [3, 3, 2, 1, 0, 3];\n        _mapMint[HeroType.TANK] = [1, 1, 0, 2, 3, 1];\n    }\n\n    function setBattleAddress(address _newBattleAddress) public onlyOwner {\n        _battleAddress = _newBattleAddress;\n    }\n\n    function setItemShopAddress(address _newItemShopAddress) public onlyOwner {\n        _itemShopAddress = _newItemShopAddress;\n    }\n\n    function getHeroes(uint8 size, uint256 page)\n        external\n        view\n        returns (HeroDTO[] memory)\n    {\n        uint256 initialIndex = size * page;\n\n        uint256 retSize = size;\n        if ((initialIndex + size) > _heroes.length) {\n            retSize = _heroes.length - initialIndex;\n        }\n\n        HeroDTO[] memory ret = new HeroDTO[](retSize);\n        uint256 retIndex = 0;\n\n        for (\n            uint256 currIndex = initialIndex;\n            currIndex <= (initialIndex + retSize - 1);\n            currIndex++\n        ) {\n            Hero memory h = _heroes[currIndex];\n            ret[retIndex++] = HeroDTO(\n                h.name,\n                h.heroType,\n                h.rarity,\n                h.str,\n                h.con,\n                h.dex,\n                h.wis,\n                h.level,\n                h.currXP,\n                ownerOf(currIndex),\n                tokenURI(currIndex)\n            );\n        }\n\n        return ret;\n    }\n\n    function getNextHeroId() external view returns (uint256) {\n        return _currentHeroId.current();\n    }\n\n    function mint(\n        HeroType _heroType,\n        HeroRarity _heroRarity,\n        string memory _tokenURI\n    ) public onlyOwner {\n        uint256 newHeroId = _currentHeroId.current();\n\n        uint8 minAttr;\n        uint8 maxAttr;\n\n        if (_heroRarity == HeroRarity.COMMON) {\n            minAttr = 4;\n            maxAttr = 6;\n        } else if (_heroRarity == HeroRarity.UNCOMMON) {\n            minAttr = 7;\n            maxAttr = 8;\n        } else if (_heroRarity == HeroRarity.RARE) {\n            minAttr = 9;\n            maxAttr = 10;\n        } else {\n            minAttr = 11;\n            maxAttr = 12;\n        }\n\n        uint256 attrsSize = rand(maxAttr - minAttr) + minAttr;\n\n        uint8[] memory attrs = new uint8[](4);\n        attrs[0] = 1;\n        attrs[1] = 1;\n        attrs[2] = 1;\n        attrs[3] = 1;\n        uint8 attrCounter = 0;\n\n        for (uint8 i = 1; i <= attrsSize; i++) {\n            attrs[_mapMint[_heroType][attrCounter]]++;\n            if (attrCounter == 5) {\n                attrCounter = 0;\n            } else {\n                attrCounter++;\n            }\n        }\n\n        _safeMint(msg.sender, newHeroId);\n        _setTokenURI(newHeroId, _tokenURI);\n        _heroes.push(\n            Hero(\n                \"\",\n                _heroType,\n                _heroRarity,\n                attrs[0],\n                attrs[1],\n                attrs[2],\n                attrs[3],\n                1,\n                0\n            )\n        );\n\n        _currentHeroId.increment();\n    }\n\n    function getHeroesByAddress(address owner)\n        public\n        view\n        returns (uint256[] memory)\n    {\n        uint256 heroCount = balanceOf(owner);\n\n        if (heroCount == 0) {\n            return new uint256[](0);\n        } else {\n            uint256[] memory ret = new uint256[](heroCount);\n            uint256 i;\n            uint256 curIndex = 0;\n\n            for (i = 0; i < _currentHeroId.current(); i++) {\n                if (ownerOf(i) == owner) {\n                    ret[curIndex++] = i;\n                }\n            }\n\n            return ret;\n        }\n    }\n\n    function getMyHeroes() external view returns (uint256[] memory) {\n        return getHeroesByAddress(msg.sender);\n    }\n\n    function getHero(uint256 _heroId) external view returns (Hero memory) {\n        return _heroes[_heroId];\n    }\n\n    function getHeroComplete(uint256 _heroId) external view returns (HeroDTO memory) {\n        Hero memory h = _heroes[_heroId];\n\n        return\n            HeroDTO(\n                h.name,\n                h.heroType,\n                h.rarity,\n                h.str,\n                h.con,\n                h.dex,\n                h.wis,\n                h.level,\n                h.currXP,\n                ownerOf(_heroId),\n                tokenURI(_heroId)\n            );\n    }\n\n    function setName(uint256 _heroId, string memory _name) external {\n        require(msg.sender == ownerOf(_heroId), \"Not owner\");\n        Hero storage hero = _heroes[_heroId];\n\n        hero.name = _name;\n    }\n\n    function levelUp(uint256 _heroId, uint16 _xp) external {\n        require(\n            msg.sender == _battleAddress || msg.sender == _itemShopAddress,\n            \"Only battle or item shop contract can execute it\"\n        );\n\n        Hero storage hero = _heroes[_heroId];\n\n        hero.currXP += _xp;\n\n        emit NewCurrXP(_heroId, hero.currXP);\n\n        if (hero.currXP >= 2**hero.level) {\n            hero.level++;\n            hero.currXP = 0;\n\n            uint256 random = rand(3);\n\n            if (random == 0) {\n                hero.str++;\n            } else if (random == 1) {\n                hero.con++;\n            } else if (random == 2) {\n                hero.dex++;\n            } else if (random == 3) {\n                hero.wis++;\n            }\n\n            emit HeroLevelUp(_heroId, hero.level);\n        }\n    }\n\n    function rand(uint8 limit) private view returns (uint256) {\n        uint256 seed = uint256(\n            keccak256(\n                abi.encodePacked(\n                    block.timestamp +\n                        block.difficulty +\n                        ((\n                            uint256(keccak256(abi.encodePacked(block.coinbase)))\n                        ) / (block.timestamp)) +\n                        block.gaslimit +\n                        ((uint256(keccak256(abi.encodePacked(msg.sender)))) /\n                            (block.timestamp)) +\n                        block.number\n                )\n            )\n        );\n\n        return (seed - ((seed / (limit + 1)) * (limit + 1)));\n    }\n\n    function tokenURI(uint256 tokenId)\n        public\n        view\n        virtual\n        override\n        returns (string memory)\n    {\n        return string(abi.encodePacked(_baseTokenURI, super.tokenURI(tokenId)));\n    }\n}\n",
  "sourcePath": "/home/rfaita/game/nft-game/contract/contracts/GameToken.sol",
  "compiler": {
    "name": "solc",
    "version": "0.8.9+commit.e5eed63a.Emscripten.clang"
  },
  "schemaVersion": "3.4.3",
  "updatedAt": "2021-11-23T12:34:06.901Z",
  "networkType": "ethereum",
  "devdoc": {
    "kind": "dev",
    "methods": {
      "approve(address,uint256)": {
        "details": "See {IERC721-approve}."
      },
      "balanceOf(address)": {
        "details": "See {IERC721-balanceOf}."
      },
      "getApproved(uint256)": {
        "details": "See {IERC721-getApproved}."
      },
      "isApprovedForAll(address,address)": {
        "details": "See {IERC721-isApprovedForAll}."
      },
      "name()": {
        "details": "See {IERC721Metadata-name}."
      },
      "owner()": {
        "details": "Returns the address of the current owner."
      },
      "ownerOf(uint256)": {
        "details": "See {IERC721-ownerOf}."
      },
      "renounceOwnership()": {
        "details": "Leaves the contract without owner. It will not be possible to call `onlyOwner` functions anymore. Can only be called by the current owner. NOTE: Renouncing ownership will leave the contract without an owner, thereby removing any functionality that is only available to the owner."
      },
      "safeTransferFrom(address,address,uint256)": {
        "details": "See {IERC721-safeTransferFrom}."
      },
      "safeTransferFrom(address,address,uint256,bytes)": {
        "details": "See {IERC721-safeTransferFrom}."
      },
      "setApprovalForAll(address,bool)": {
        "details": "See {IERC721-setApprovalForAll}."
      },
      "supportsInterface(bytes4)": {
        "details": "See {IERC165-supportsInterface}."
      },
      "symbol()": {
        "details": "See {IERC721Metadata-symbol}."
      },
      "tokenURI(uint256)": {
        "details": "See {IERC721Metadata-tokenURI}."
      },
      "transferFrom(address,address,uint256)": {
        "details": "See {IERC721-transferFrom}."
      },
      "transferOwnership(address)": {
        "details": "Transfers ownership of the contract to a new account (`newOwner`). Can only be called by the current owner."
      }
    },
    "version": 1
  },
  "userdoc": {
    "kind": "user",
    "methods": {},
    "version": 1
  }
}