{
  "contractName": "GameToken",
  "abi": [
    {
      "inputs": [
        {
          "internalType": "string",
          "name": "name",
          "type": "string"
        },
        {
          "internalType": "string",
          "name": "symbol",
          "type": "string"
        },
        {
          "internalType": "string",
          "name": "baseTokenURI",
          "type": "string"
        }
      ],
      "stateMutability": "nonpayable",
      "type": "constructor"
    },
    {
      "anonymous": false,
      "inputs": [
        {
          "indexed": true,
          "internalType": "address",
          "name": "owner",
          "type": "address"
        },
        {
          "indexed": true,
          "internalType": "address",
          "name": "approved",
          "type": "address"
        },
        {
          "indexed": true,
          "internalType": "uint256",
          "name": "tokenId",
          "type": "uint256"
        }
      ],
      "name": "Approval",
      "type": "event"
    },
    {
      "anonymous": false,
      "inputs": [
        {
          "indexed": true,
          "internalType": "address",
          "name": "owner",
          "type": "address"
        },
        {
          "indexed": true,
          "internalType": "address",
          "name": "operator",
          "type": "address"
        },
        {
          "indexed": false,
          "internalType": "bool",
          "name": "approved",
          "type": "bool"
        }
      ],
      "name": "ApprovalForAll",
      "type": "event"
    },
    {
      "anonymous": false,
      "inputs": [
        {
          "indexed": true,
          "internalType": "address",
          "name": "owner",
          "type": "address"
        },
        {
          "indexed": true,
          "internalType": "uint256",
          "name": "tokenId",
          "type": "uint256"
        },
        {
          "indexed": false,
          "internalType": "uint8",
          "name": "level",
          "type": "uint8"
        },
        {
          "indexed": false,
          "internalType": "uint256",
          "name": "currXP",
          "type": "uint256"
        },
        {
          "indexed": false,
          "internalType": "uint256",
          "name": "attribute",
          "type": "uint256"
        }
      ],
      "name": "HeroLevelUp",
      "type": "event"
    },
    {
      "anonymous": false,
      "inputs": [
        {
          "indexed": true,
          "internalType": "address",
          "name": "previousOwner",
          "type": "address"
        },
        {
          "indexed": true,
          "internalType": "address",
          "name": "newOwner",
          "type": "address"
        }
      ],
      "name": "OwnershipTransferred",
      "type": "event"
    },
    {
      "anonymous": false,
      "inputs": [
        {
          "indexed": true,
          "internalType": "address",
          "name": "from",
          "type": "address"
        },
        {
          "indexed": true,
          "internalType": "address",
          "name": "to",
          "type": "address"
        },
        {
          "indexed": true,
          "internalType": "uint256",
          "name": "tokenId",
          "type": "uint256"
        }
      ],
      "name": "Transfer",
      "type": "event"
    },
    {
      "inputs": [
        {
          "internalType": "address",
          "name": "to",
          "type": "address"
        },
        {
          "internalType": "uint256",
          "name": "tokenId",
          "type": "uint256"
        }
      ],
      "name": "approve",
      "outputs": [],
      "stateMutability": "nonpayable",
      "type": "function"
    },
    {
      "inputs": [
        {
          "internalType": "address",
          "name": "owner",
          "type": "address"
        }
      ],
      "name": "balanceOf",
      "outputs": [
        {
          "internalType": "uint256",
          "name": "",
          "type": "uint256"
        }
      ],
      "stateMutability": "view",
      "type": "function",
      "constant": true
    },
    {
      "inputs": [
        {
          "internalType": "uint256",
          "name": "tokenId",
          "type": "uint256"
        }
      ],
      "name": "getApproved",
      "outputs": [
        {
          "internalType": "address",
          "name": "",
          "type": "address"
        }
      ],
      "stateMutability": "view",
      "type": "function",
      "constant": true
    },
    {
      "inputs": [
        {
          "internalType": "address",
          "name": "owner",
          "type": "address"
        },
        {
          "internalType": "address",
          "name": "operator",
          "type": "address"
        }
      ],
      "name": "isApprovedForAll",
      "outputs": [
        {
          "internalType": "bool",
          "name": "",
          "type": "bool"
        }
      ],
      "stateMutability": "view",
      "type": "function",
      "constant": true
    },
    {
      "inputs": [],
      "name": "name",
      "outputs": [
        {
          "internalType": "string",
          "name": "",
          "type": "string"
        }
      ],
      "stateMutability": "view",
      "type": "function",
      "constant": true
    },
    {
      "inputs": [],
      "name": "owner",
      "outputs": [
        {
          "internalType": "address",
          "name": "",
          "type": "address"
        }
      ],
      "stateMutability": "view",
      "type": "function",
      "constant": true
    },
    {
      "inputs": [
        {
          "internalType": "uint256",
          "name": "tokenId",
          "type": "uint256"
        }
      ],
      "name": "ownerOf",
      "outputs": [
        {
          "internalType": "address",
          "name": "",
          "type": "address"
        }
      ],
      "stateMutability": "view",
      "type": "function",
      "constant": true
    },
    {
      "inputs": [],
      "name": "renounceOwnership",
      "outputs": [],
      "stateMutability": "nonpayable",
      "type": "function"
    },
    {
      "inputs": [
        {
          "internalType": "address",
          "name": "from",
          "type": "address"
        },
        {
          "internalType": "address",
          "name": "to",
          "type": "address"
        },
        {
          "internalType": "uint256",
          "name": "tokenId",
          "type": "uint256"
        }
      ],
      "name": "safeTransferFrom",
      "outputs": [],
      "stateMutability": "nonpayable",
      "type": "function"
    },
    {
      "inputs": [
        {
          "internalType": "address",
          "name": "from",
          "type": "address"
        },
        {
          "internalType": "address",
          "name": "to",
          "type": "address"
        },
        {
          "internalType": "uint256",
          "name": "tokenId",
          "type": "uint256"
        },
        {
          "internalType": "bytes",
          "name": "_data",
          "type": "bytes"
        }
      ],
      "name": "safeTransferFrom",
      "outputs": [],
      "stateMutability": "nonpayable",
      "type": "function"
    },
    {
      "inputs": [
        {
          "internalType": "address",
          "name": "operator",
          "type": "address"
        },
        {
          "internalType": "bool",
          "name": "approved",
          "type": "bool"
        }
      ],
      "name": "setApprovalForAll",
      "outputs": [],
      "stateMutability": "nonpayable",
      "type": "function"
    },
    {
      "inputs": [
        {
          "internalType": "bytes4",
          "name": "interfaceId",
          "type": "bytes4"
        }
      ],
      "name": "supportsInterface",
      "outputs": [
        {
          "internalType": "bool",
          "name": "",
          "type": "bool"
        }
      ],
      "stateMutability": "view",
      "type": "function",
      "constant": true
    },
    {
      "inputs": [],
      "name": "symbol",
      "outputs": [
        {
          "internalType": "string",
          "name": "",
          "type": "string"
        }
      ],
      "stateMutability": "view",
      "type": "function",
      "constant": true
    },
    {
      "inputs": [
        {
          "internalType": "address",
          "name": "from",
          "type": "address"
        },
        {
          "internalType": "address",
          "name": "to",
          "type": "address"
        },
        {
          "internalType": "uint256",
          "name": "tokenId",
          "type": "uint256"
        }
      ],
      "name": "transferFrom",
      "outputs": [],
      "stateMutability": "nonpayable",
      "type": "function"
    },
    {
      "inputs": [
        {
          "internalType": "address",
          "name": "newOwner",
          "type": "address"
        }
      ],
      "name": "transferOwnership",
      "outputs": [],
      "stateMutability": "nonpayable",
      "type": "function"
    },
    {
      "inputs": [],
      "name": "totalSupply",
      "outputs": [
        {
          "internalType": "uint256",
          "name": "",
          "type": "uint256"
        }
      ],
      "stateMutability": "view",
      "type": "function",
      "constant": true
    },
    {
      "inputs": [
        {
          "internalType": "string",
          "name": "_newBaseTokenURI",
          "type": "string"
        }
      ],
      "name": "setBaseTokenURI",
      "outputs": [],
      "stateMutability": "nonpayable",
      "type": "function"
    },
    {
      "inputs": [
        {
          "internalType": "address",
          "name": "newAddress",
          "type": "address"
        }
      ],
      "name": "addLevelUpPermittedAddress",
      "outputs": [],
      "stateMutability": "nonpayable",
      "type": "function"
    },
    {
      "inputs": [
        {
          "internalType": "address",
          "name": "newAddress",
          "type": "address"
        }
      ],
      "name": "removeLevelUpPermittedAddress",
      "outputs": [],
      "stateMutability": "nonpayable",
      "type": "function"
    },
    {
      "inputs": [],
      "name": "getHeroes",
      "outputs": [
        {
          "components": [
            {
              "internalType": "string",
              "name": "name",
              "type": "string"
            },
            {
              "internalType": "enum GameToken.HeroType",
              "name": "heroType",
              "type": "uint8"
            },
            {
              "internalType": "enum GameToken.HeroRarity",
              "name": "rarity",
              "type": "uint8"
            },
            {
              "internalType": "uint8",
              "name": "str",
              "type": "uint8"
            },
            {
              "internalType": "uint8",
              "name": "con",
              "type": "uint8"
            },
            {
              "internalType": "uint8",
              "name": "dex",
              "type": "uint8"
            },
            {
              "internalType": "uint8",
              "name": "wis",
              "type": "uint8"
            },
            {
              "internalType": "uint8",
              "name": "level",
              "type": "uint8"
            },
            {
              "internalType": "uint8",
              "name": "season",
              "type": "uint8"
            },
            {
              "internalType": "uint256",
              "name": "currXP",
              "type": "uint256"
            }
          ],
          "internalType": "struct GameToken.Hero[]",
          "name": "",
          "type": "tuple[]"
        }
      ],
      "stateMutability": "view",
      "type": "function",
      "constant": true
    },
    {
      "inputs": [],
      "name": "getNextHeroId",
      "outputs": [
        {
          "internalType": "uint256",
          "name": "",
          "type": "uint256"
        }
      ],
      "stateMutability": "view",
      "type": "function",
      "constant": true
    },
    {
      "inputs": [
        {
          "internalType": "uint8",
          "name": "_season",
          "type": "uint8"
        },
        {
          "internalType": "enum GameToken.HeroType",
          "name": "_heroType",
          "type": "uint8"
        },
        {
          "internalType": "enum GameToken.HeroRarity",
          "name": "_heroRarity",
          "type": "uint8"
        },
        {
          "internalType": "string",
          "name": "_tokenURI",
          "type": "string"
        }
      ],
      "name": "mint",
      "outputs": [],
      "stateMutability": "nonpayable",
      "type": "function"
    },
    {
      "inputs": [
        {
          "internalType": "address",
          "name": "owner",
          "type": "address"
        }
      ],
      "name": "getHeroesByAddress",
      "outputs": [
        {
          "internalType": "uint256[]",
          "name": "",
          "type": "uint256[]"
        }
      ],
      "stateMutability": "view",
      "type": "function",
      "constant": true
    },
    {
      "inputs": [],
      "name": "getMyHeroes",
      "outputs": [
        {
          "internalType": "uint256[]",
          "name": "",
          "type": "uint256[]"
        }
      ],
      "stateMutability": "view",
      "type": "function",
      "constant": true
    },
    {
      "inputs": [
        {
          "internalType": "uint256",
          "name": "_heroId",
          "type": "uint256"
        }
      ],
      "name": "getHero",
      "outputs": [
        {
          "components": [
            {
              "internalType": "string",
              "name": "name",
              "type": "string"
            },
            {
              "internalType": "enum GameToken.HeroType",
              "name": "heroType",
              "type": "uint8"
            },
            {
              "internalType": "enum GameToken.HeroRarity",
              "name": "rarity",
              "type": "uint8"
            },
            {
              "internalType": "uint8",
              "name": "str",
              "type": "uint8"
            },
            {
              "internalType": "uint8",
              "name": "con",
              "type": "uint8"
            },
            {
              "internalType": "uint8",
              "name": "dex",
              "type": "uint8"
            },
            {
              "internalType": "uint8",
              "name": "wis",
              "type": "uint8"
            },
            {
              "internalType": "uint8",
              "name": "level",
              "type": "uint8"
            },
            {
              "internalType": "uint8",
              "name": "season",
              "type": "uint8"
            },
            {
              "internalType": "uint256",
              "name": "currXP",
              "type": "uint256"
            }
          ],
          "internalType": "struct GameToken.Hero",
          "name": "",
          "type": "tuple"
        }
      ],
      "stateMutability": "view",
      "type": "function",
      "constant": true
    },
    {
      "inputs": [
        {
          "internalType": "uint256",
          "name": "_heroId",
          "type": "uint256"
        }
      ],
      "name": "getHeroComplete",
      "outputs": [
        {
          "components": [
            {
              "internalType": "string",
              "name": "name",
              "type": "string"
            },
            {
              "internalType": "enum GameToken.HeroType",
              "name": "heroType",
              "type": "uint8"
            },
            {
              "internalType": "enum GameToken.HeroRarity",
              "name": "rarity",
              "type": "uint8"
            },
            {
              "internalType": "uint8",
              "name": "str",
              "type": "uint8"
            },
            {
              "internalType": "uint8",
              "name": "con",
              "type": "uint8"
            },
            {
              "internalType": "uint8",
              "name": "dex",
              "type": "uint8"
            },
            {
              "internalType": "uint8",
              "name": "wis",
              "type": "uint8"
            },
            {
              "internalType": "uint8",
              "name": "level",
              "type": "uint8"
            },
            {
              "internalType": "uint8",
              "name": "season",
              "type": "uint8"
            },
            {
              "internalType": "uint256",
              "name": "currXP",
              "type": "uint256"
            },
            {
              "internalType": "address",
              "name": "owner",
              "type": "address"
            },
            {
              "internalType": "string",
              "name": "tokenURI",
              "type": "string"
            }
          ],
          "internalType": "struct GameToken.HeroDTO",
          "name": "",
          "type": "tuple"
        }
      ],
      "stateMutability": "view",
      "type": "function",
      "constant": true
    },
    {
      "inputs": [
        {
          "internalType": "uint256",
          "name": "_heroId",
          "type": "uint256"
        },
        {
          "internalType": "string",
          "name": "_name",
          "type": "string"
        }
      ],
      "name": "setName",
      "outputs": [],
      "stateMutability": "nonpayable",
      "type": "function"
    },
    {
      "inputs": [
        {
          "internalType": "uint256",
          "name": "_heroId",
          "type": "uint256"
        },
        {
          "internalType": "uint16",
          "name": "_xp",
          "type": "uint16"
        }
      ],
      "name": "levelUp",
      "outputs": [],
      "stateMutability": "nonpayable",
      "type": "function"
    },
    {
      "inputs": [
        {
          "internalType": "uint256",
          "name": "tokenId",
          "type": "uint256"
        }
      ],
      "name": "tokenURI",
      "outputs": [
        {
          "internalType": "string",
          "name": "",
          "type": "string"
        }
      ],
      "stateMutability": "view",
      "type": "function",
      "constant": true
    }
  ],
  "bytecode": "0x60806040523480156200001157600080fd5b5060405162005e0238038062005e028339818101604052810190620000379190620006c6565b8282816000908051906020019062000051929190620003cb565b5080600190805190602001906200006a929190620003cb565b5050506200008d62000081620002fd60201b60201c565b6200030560201b60201c565b80600b9080519060200190620000a5929190620003cb565b506040518060c00160405280600060ff168152602001600160ff168152602001600060ff168152602001600260ff168152602001600360ff168152602001600160ff16815250600c60008060038111156200010557620001046200077f565b5b60038111156200011a57620001196200077f565b5b8152602001908152602001600020906006620001389291906200045c565b506040518060c00160405280600260ff168152602001600260ff168152602001600060ff168152602001600360ff168152602001600060ff168152602001600260ff16815250600c6000600160038111156200019957620001986200077f565b5b6003811115620001ae57620001ad6200077f565b5b8152602001908152602001600020906006620001cc9291906200045c565b506040518060c00160405280600360ff168152602001600360ff168152602001600260ff168152602001600160ff168152602001600060ff168152602001600360ff16815250600c6000600260038111156200022d576200022c6200077f565b5b60038111156200024257620002416200077f565b5b8152602001908152602001600020906006620002609291906200045c565b506040518060c00160405280600160ff168152602001600160ff168152602001600060ff168152602001600260ff168152602001600360ff168152602001600160ff16815250600c6000600380811115620002c057620002bf6200077f565b5b6003811115620002d557620002d46200077f565b5b8152602001908152602001600020906006620002f39291906200045c565b5050505062000813565b600033905090565b6000600760009054906101000a900473ffffffffffffffffffffffffffffffffffffffff16905081600760006101000a81548173ffffffffffffffffffffffffffffffffffffffff021916908373ffffffffffffffffffffffffffffffffffffffff1602179055508173ffffffffffffffffffffffffffffffffffffffff168173ffffffffffffffffffffffffffffffffffffffff167f8be0079c531659141344cd1fd0a4f28419497f9722a3daafe3b4186f6b6457e060405160405180910390a35050565b828054620003d990620007dd565b90600052602060002090601f016020900481019282620003fd576000855562000449565b82601f106200041857805160ff191683800117855562000449565b8280016001018555821562000449579182015b82811115620004485782518255916020019190600101906200042b565b5b5090506200045891906200050a565b5090565b82805482825590600052602060002090601f01602090048101928215620004f75791602002820160005b83821115620004c657835183826101000a81548160ff021916908360ff160217905550926020019260010160208160000104928301926001030262000486565b8015620004f55782816101000a81549060ff0219169055600101602081600001049283019260010302620004c6565b505b5090506200050691906200050a565b5090565b5b80821115620005255760008160009055506001016200050b565b5090565b6000604051905090565b600080fd5b600080fd5b600080fd5b600080fd5b6000601f19601f8301169050919050565b7f4e487b7100000000000000000000000000000000000000000000000000000000600052604160045260246000fd5b620005928262000547565b810181811067ffffffffffffffff82111715620005b457620005b362000558565b5b80604052505050565b6000620005c962000529565b9050620005d7828262000587565b919050565b600067ffffffffffffffff821115620005fa57620005f962000558565b5b620006058262000547565b9050602081019050919050565b60005b838110156200063257808201518184015260208101905062000615565b8381111562000642576000848401525b50505050565b60006200065f6200065984620005dc565b620005bd565b9050828152602081018484840111156200067e576200067d62000542565b5b6200068b84828562000612565b509392505050565b600082601f830112620006ab57620006aa6200053d565b5b8151620006bd84826020860162000648565b91505092915050565b600080600060608486031215620006e257620006e162000533565b5b600084015167ffffffffffffffff81111562000703576200070262000538565b5b620007118682870162000693565b935050602084015167ffffffffffffffff81111562000735576200073462000538565b5b620007438682870162000693565b925050604084015167ffffffffffffffff81111562000767576200076662000538565b5b620007758682870162000693565b9150509250925092565b7f4e487b7100000000000000000000000000000000000000000000000000000000600052602160045260246000fd5b7f4e487b7100000000000000000000000000000000000000000000000000000000600052602260045260246000fd5b60006002820490506001821680620007f657607f821691505b602082108114156200080d576200080c620007ae565b5b50919050565b6155df80620008236000396000f3fe608060405234801561001057600080fd5b50600436106101ce5760003560e01c806370a0823111610104578063a22cb465116100a2578063d46eef2311610071578063d46eef231461052b578063e985e9c514610547578063f2fde38b14610577578063fe55932a14610593576101ce565b8063a22cb465146104a7578063a8b24250146104c3578063b88d4fde146104df578063c87b56dd146104fb576101ce565b80638302adfb116100de5780638302adfb1461042f5780638da5cb5b1461044d57806395d89b411461046b5780639a8d288214610489576101ce565b806370a08231146103d7578063715018a614610407578063806f528314610411576101ce565b806323b872dd11610171578063472899611161014b578063472899611461033f578063484a20321461035b578063503f30ac146103775780636352211e146103a7576101ce565b806323b872dd146102eb57806330176e131461030757806342842e0e14610323576101ce565b8063081812fc116101ad578063081812fc14610251578063095ea7b31461028157806318160ddd1461029d57806321d80111146102bb576101ce565b80625597e3146101d357806301ffc9a71461020357806306fdde0314610233575b600080fd5b6101ed60048036038101906101e89190613534565b6105af565b6040516101fa9190613629565b60405180910390f35b61021d600480360381019061021891906136a3565b61070c565b60405161022a91906136eb565b60405180910390f35b61023b6107ee565b604051610248919061379f565b60405180910390f35b61026b600480360381019061026691906137ed565b610880565b6040516102789190613829565b60405180910390f35b61029b60048036038101906102969190613844565b610905565b005b6102a5610a1d565b6040516102b29190613893565b60405180910390f35b6102d560048036038101906102d091906137ed565b610a2a565b6040516102e29190613aad565b60405180910390f35b61030560048036038101906103009190613acf565b610c27565b005b610321600480360381019061031c9190613c57565b610c87565b005b61033d60048036038101906103389190613acf565b610d1d565b005b61035960048036038101906103549190613534565b610d3d565b005b61037560048036038101906103709190613cda565b610e14565b005b610391600480360381019061038c91906137ed565b611102565b60405161039e9190613e34565b60405180910390f35b6103c160048036038101906103bc91906137ed565b6113dc565b6040516103ce9190613829565b60405180910390f35b6103f160048036038101906103ec9190613534565b61148e565b6040516103fe9190613893565b60405180910390f35b61040f611546565b005b6104196115ce565b6040516104269190613629565b60405180910390f35b6104376115de565b6040516104449190613893565b60405180910390f35b6104556115ef565b6040516104629190613829565b60405180910390f35b610473611619565b604051610480919061379f565b60405180910390f35b6104916116ab565b60405161049e9190613ff2565b60405180910390f35b6104c160048036038101906104bc9190614040565b6118cb565b005b6104dd60048036038101906104d89190613534565b611a4c565b005b6104f960048036038101906104f49190614121565b611b1a565b005b610515600480360381019061051091906137ed565b611b7c565b604051610522919061379f565b60405180910390f35b6105456004803603810190610540919061421a565b611bb0565b005b610561600480360381019061055c919061429d565b61219b565b60405161056e91906136eb565b60405180910390f35b610591600480360381019061058c9190613534565b61222f565b005b6105ad60048036038101906105a891906142dd565b612327565b005b606060006105bc8361148e565b9050600081141561061957600067ffffffffffffffff8111156105e2576105e1613b2c565b5b6040519080825280602002602001820160405280156106105781602001602082028036833780820191505090505b50915050610707565b60008167ffffffffffffffff81111561063557610634613b2c565b5b6040519080825280602002602001820160405280156106635781602001602082028036833780820191505090505b50905060008060009050600091505b61067c60086123e1565b8210156106ff578573ffffffffffffffffffffffffffffffffffffffff166106a3836113dc565b73ffffffffffffffffffffffffffffffffffffffff1614156106ec57818382806106cc90614368565b9350815181106106df576106de6143b1565b5b6020026020010181815250505b81806106f790614368565b925050610672565b829450505050505b919050565b60007f80ac58cd000000000000000000000000000000000000000000000000000000007bffffffffffffffffffffffffffffffffffffffffffffffffffffffff1916827bffffffffffffffffffffffffffffffffffffffffffffffffffffffff191614806107d757507f5b5e139f000000000000000000000000000000000000000000000000000000007bffffffffffffffffffffffffffffffffffffffffffffffffffffffff1916827bffffffffffffffffffffffffffffffffffffffffffffffffffffffff1916145b806107e757506107e6826123ef565b5b9050919050565b6060600080546107fd9061440f565b80601f01602080910402602001604051908101604052809291908181526020018280546108299061440f565b80156108765780601f1061084b57610100808354040283529160200191610876565b820191906000526020600020905b81548152906001019060200180831161085957829003601f168201915b5050505050905090565b600061088b82612459565b6108ca576040517f08c379a00000000000000000000000000000000000000000000000000000000081526004016108c1906144b3565b60405180910390fd5b6004600083815260200190815260200160002060009054906101000a900473ffffffffffffffffffffffffffffffffffffffff169050919050565b6000610910826113dc565b90508073ffffffffffffffffffffffffffffffffffffffff168373ffffffffffffffffffffffffffffffffffffffff161415610981576040517f08c379a000000000000000000000000000000000000000000000000000000000815260040161097890614545565b60405180910390fd5b8073ffffffffffffffffffffffffffffffffffffffff166109a06124c5565b73ffffffffffffffffffffffffffffffffffffffff1614806109cf57506109ce816109c96124c5565b61219b565b5b610a0e576040517f08c379a0000000000000000000000000000000000000000000000000000000008152600401610a05906145d7565b60405180910390fd5b610a1883836124cd565b505050565b6000600a80549050905090565b610a326132e9565b600a8281548110610a4657610a456143b1565b5b906000526020600020906003020160405180610140016040529081600082018054610a709061440f565b80601f0160208091040260200160405190810160405280929190818152602001828054610a9c9061440f565b8015610ae95780601f10610abe57610100808354040283529160200191610ae9565b820191906000526020600020905b815481529060010190602001808311610acc57829003601f168201915b505050505081526020016001820160009054906101000a900460ff166003811115610b1757610b166138f8565b5b6003811115610b2957610b286138f8565b5b81526020016001820160019054906101000a900460ff166003811115610b5257610b516138f8565b5b6003811115610b6457610b636138f8565b5b81526020016001820160029054906101000a900460ff1660ff1660ff1681526020016001820160039054906101000a900460ff1660ff1660ff1681526020016001820160049054906101000a900460ff1660ff1660ff1681526020016001820160059054906101000a900460ff1660ff1660ff1681526020016001820160069054906101000a900460ff1660ff1660ff1681526020016001820160079054906101000a900460ff1660ff1660ff1681526020016002820154815250509050919050565b610c38610c326124c5565b82612586565b610c77576040517f08c379a0000000000000000000000000000000000000000000000000000000008152600401610c6e90614669565b60405180910390fd5b610c82838383612664565b505050565b610c8f6124c5565b73ffffffffffffffffffffffffffffffffffffffff16610cad6115ef565b73ffffffffffffffffffffffffffffffffffffffff1614610d03576040517f08c379a0000000000000000000000000000000000000000000000000000000008152600401610cfa906146d5565b60405180910390fd5b80600b9080519060200190610d19929190613372565b5050565b610d3883838360405180602001604052806000815250611b1a565b505050565b610d456124c5565b73ffffffffffffffffffffffffffffffffffffffff16610d636115ef565b73ffffffffffffffffffffffffffffffffffffffff1614610db9576040517f08c379a0000000000000000000000000000000000000000000000000000000008152600401610db0906146d5565b60405180910390fd5b6001600960008373ffffffffffffffffffffffffffffffffffffffff1673ffffffffffffffffffffffffffffffffffffffff16815260200190815260200160002060006101000a81548160ff02191690831515021790555050565b60096000610e206124c5565b73ffffffffffffffffffffffffffffffffffffffff1673ffffffffffffffffffffffffffffffffffffffff16815260200190815260200160002060009054906101000a900460ff16610ea7576040517f08c379a0000000000000000000000000000000000000000000000000000000008152600401610e9e90614767565b60405180910390fd5b6000600a8381548110610ebd57610ebc6143b1565b5b906000526020600020906003020190508161ffff16816002016000828254610ee59190614787565b925050819055506000610ef7846113dc565b905060008260010160069054906101000a900460ff166002610f199190614910565b8360020154106110935782600101600681819054906101000a900460ff1680929190610f449061495b565b91906101000a81548160ff021916908360ff1602179055505060008360020181905550610f7160036128c0565b90506000811415610fbb5782600101600281819054906101000a900460ff1680929190610f9d9061495b565b91906101000a81548160ff021916908360ff16021790555050611092565b60018114156110035782600101600381819054906101000a900460ff1680929190610fe59061495b565b91906101000a81548160ff021916908360ff16021790555050611091565b600281141561104b5782600101600481819054906101000a900460ff168092919061102d9061495b565b91906101000a81548160ff021916908360ff16021790555050611090565b600381141561108f5782600101600581819054906101000a900460ff16809291906110759061495b565b91906101000a81548160ff021916908360ff160217905550505b5b5b5b5b848273ffffffffffffffffffffffffffffffffffffffff167f756b3854f86219a3f38542278162f1486bbf6d7c1a7505542d2398a6e13d39188560010160069054906101000a900460ff168660020154856040516110f393929190614994565b60405180910390a35050505050565b61110a6133f8565b6000600a83815481106111205761111f6143b1565b5b90600052602060002090600302016040518061014001604052908160008201805461114a9061440f565b80601f01602080910402602001604051908101604052809291908181526020018280546111769061440f565b80156111c35780601f10611198576101008083540402835291602001916111c3565b820191906000526020600020905b8154815290600101906020018083116111a657829003601f168201915b505050505081526020016001820160009054906101000a900460ff1660038111156111f1576111f06138f8565b5b6003811115611203576112026138f8565b5b81526020016001820160019054906101000a900460ff16600381111561122c5761122b6138f8565b5b600381111561123e5761123d6138f8565b5b81526020016001820160029054906101000a900460ff1660ff1660ff1681526020016001820160039054906101000a900460ff1660ff1660ff1681526020016001820160049054906101000a900460ff1660ff1660ff1681526020016001820160059054906101000a900460ff1660ff1660ff1681526020016001820160069054906101000a900460ff1660ff1660ff1681526020016001820160079054906101000a900460ff1660ff1660ff16815260200160028201548152505090506040518061018001604052808260000151815260200182602001516003811115611329576113286138f8565b5b815260200182604001516003811115611345576113446138f8565b5b8152602001826060015160ff168152602001826080015160ff1681526020018260a0015160ff1681526020018260c0015160ff1681526020018260e0015160ff16815260200182610100015160ff16815260200182610120015181526020016113ad856113dc565b73ffffffffffffffffffffffffffffffffffffffff1681526020016113d185611b7c565b815250915050919050565b6000806002600084815260200190815260200160002060009054906101000a900473ffffffffffffffffffffffffffffffffffffffff169050600073ffffffffffffffffffffffffffffffffffffffff168173ffffffffffffffffffffffffffffffffffffffff161415611485576040517f08c379a000000000000000000000000000000000000000000000000000000000815260040161147c90614a3d565b60405180910390fd5b80915050919050565b60008073ffffffffffffffffffffffffffffffffffffffff168273ffffffffffffffffffffffffffffffffffffffff1614156114ff576040517f08c379a00000000000000000000000000000000000000000000000000000000081526004016114f690614acf565b60405180910390fd5b600360008373ffffffffffffffffffffffffffffffffffffffff1673ffffffffffffffffffffffffffffffffffffffff168152602001908152602001600020549050919050565b61154e6124c5565b73ffffffffffffffffffffffffffffffffffffffff1661156c6115ef565b73ffffffffffffffffffffffffffffffffffffffff16146115c2576040517f08c379a00000000000000000000000000000000000000000000000000000000081526004016115b9906146d5565b60405180910390fd5b6115cc60006129d6565b565b60606115d9336105af565b905090565b60006115ea60086123e1565b905090565b6000600760009054906101000a900473ffffffffffffffffffffffffffffffffffffffff16905090565b6060600180546116289061440f565b80601f01602080910402602001604051908101604052809291908181526020018280546116549061440f565b80156116a15780601f10611676576101008083540402835291602001916116a1565b820191906000526020600020905b81548152906001019060200180831161168457829003601f168201915b5050505050905090565b6060600a805480602002602001604051908101604052809291908181526020016000905b828210156118c25783829060005260206000209060030201604051806101400160405290816000820180546117039061440f565b80601f016020809104026020016040519081016040528092919081815260200182805461172f9061440f565b801561177c5780601f106117515761010080835404028352916020019161177c565b820191906000526020600020905b81548152906001019060200180831161175f57829003601f168201915b505050505081526020016001820160009054906101000a900460ff1660038111156117aa576117a96138f8565b5b60038111156117bc576117bb6138f8565b5b81526020016001820160019054906101000a900460ff1660038111156117e5576117e46138f8565b5b60038111156117f7576117f66138f8565b5b81526020016001820160029054906101000a900460ff1660ff1660ff1681526020016001820160039054906101000a900460ff1660ff1660ff1681526020016001820160049054906101000a900460ff1660ff1660ff1681526020016001820160059054906101000a900460ff1660ff1660ff1681526020016001820160069054906101000a900460ff1660ff1660ff1681526020016001820160079054906101000a900460ff1660ff1660ff168152602001600282015481525050815260200190600101906116cf565b50505050905090565b6118d36124c5565b73ffffffffffffffffffffffffffffffffffffffff168273ffffffffffffffffffffffffffffffffffffffff161415611941576040517f08c379a000000000000000000000000000000000000000000000000000000000815260040161193890614b3b565b60405180910390fd5b806005600061194e6124c5565b73ffffffffffffffffffffffffffffffffffffffff1673ffffffffffffffffffffffffffffffffffffffff16815260200190815260200160002060008473ffffffffffffffffffffffffffffffffffffffff1673ffffffffffffffffffffffffffffffffffffffff16815260200190815260200160002060006101000a81548160ff0219169083151502179055508173ffffffffffffffffffffffffffffffffffffffff166119fb6124c5565b73ffffffffffffffffffffffffffffffffffffffff167f17307eab39ab6107e8899845ad3d59bd9653f200f220920489ca2b5937696c3183604051611a4091906136eb565b60405180910390a35050565b611a546124c5565b73ffffffffffffffffffffffffffffffffffffffff16611a726115ef565b73ffffffffffffffffffffffffffffffffffffffff1614611ac8576040517f08c379a0000000000000000000000000000000000000000000000000000000008152600401611abf906146d5565b60405180910390fd5b600960008273ffffffffffffffffffffffffffffffffffffffff1673ffffffffffffffffffffffffffffffffffffffff16815260200190815260200160002060006101000a81549060ff021916905550565b611b2b611b256124c5565b83612586565b611b6a576040517f08c379a0000000000000000000000000000000000000000000000000000000008152600401611b6190614669565b60405180910390fd5b611b7684848484612a9c565b50505050565b6060600b611b8983612af8565b604051602001611b9a929190614c2b565b6040516020818303038152906040529050919050565b611bb86124c5565b73ffffffffffffffffffffffffffffffffffffffff16611bd66115ef565b73ffffffffffffffffffffffffffffffffffffffff1614611c2c576040517f08c379a0000000000000000000000000000000000000000000000000000000008152600401611c23906146d5565b60405180910390fd5b6000611c3860086123e1565b9050611c443382612c4a565b611c4e6008612c68565b60008060006003811115611c6557611c646138f8565b5b856003811115611c7857611c776138f8565b5b1415611c8b576004915060069050611d0a565b60016003811115611c9f57611c9e6138f8565b5b856003811115611cb257611cb16138f8565b5b1415611cc5576007915060089050611d09565b60026003811115611cd957611cd86138f8565b5b856003811115611cec57611ceb6138f8565b5b1415611cff5760099150600a9050611d08565b600b9150600c90505b5b5b60008260ff16611d248484611d1f9190614c4f565b6128c0565b611d2e9190614787565b90506000600467ffffffffffffffff811115611d4d57611d4c613b2c565b5b604051908082528060200260200182016040528015611d7b5781602001602082028036833780820191505090505b509050600181600081518110611d9457611d936143b1565b5b602002602001019060ff16908160ff1681525050600181600181518110611dbe57611dbd6143b1565b5b602002602001019060ff16908160ff1681525050600181600281518110611de857611de76143b1565b5b602002602001019060ff16908160ff1681525050600181600381518110611e1257611e116143b1565b5b602002602001019060ff16908160ff1681525050600080600190505b838160ff1611611f0f5782600c60008c6003811115611e5057611e4f6138f8565b5b6003811115611e6257611e616138f8565b5b81526020019081526020016000208360ff1681548110611e8557611e846143b1565b5b90600052602060002090602091828204019190069054906101000a900460ff1660ff1681518110611eb957611eb86143b1565b5b602002602001018051809190611ece9061495b565b60ff1660ff168152505060058260ff161415611eed5760009150611efc565b8180611ef89061495b565b9250505b8080611f079061495b565b915050611e2e565b50611f1a8688612c7e565b600a6040518061014001604052806040518060200160405280600081525081526020018b6003811115611f5057611f4f6138f8565b5b81526020018a6003811115611f6857611f676138f8565b5b815260200184600081518110611f8157611f806143b1565b5b602002602001015160ff16815260200184600181518110611fa557611fa46143b1565b5b602002602001015160ff16815260200184600281518110611fc957611fc86143b1565b5b602002602001015160ff16815260200184600381518110611fed57611fec6143b1565b5b602002602001015160ff168152602001600160ff1681526020018c60ff16815260200160008152509080600181540180825580915050600190039060005260206000209060030201600090919091909150600082015181600001908051906020019061205a929190613372565b5060208201518160010160006101000a81548160ff02191690836003811115612086576120856138f8565b5b021790555060408201518160010160016101000a81548160ff021916908360038111156120b6576120b56138f8565b5b021790555060608201518160010160026101000a81548160ff021916908360ff16021790555060808201518160010160036101000a81548160ff021916908360ff16021790555060a08201518160010160046101000a81548160ff021916908360ff16021790555060c08201518160010160056101000a81548160ff021916908360ff16021790555060e08201518160010160066101000a81548160ff021916908360ff1602179055506101008201518160010160076101000a81548160ff021916908360ff1602179055506101208201518160020155505050505050505050505050565b6000600560008473ffffffffffffffffffffffffffffffffffffffff1673ffffffffffffffffffffffffffffffffffffffff16815260200190815260200160002060008373ffffffffffffffffffffffffffffffffffffffff1673ffffffffffffffffffffffffffffffffffffffff16815260200190815260200160002060009054906101000a900460ff16905092915050565b6122376124c5565b73ffffffffffffffffffffffffffffffffffffffff166122556115ef565b73ffffffffffffffffffffffffffffffffffffffff16146122ab576040517f08c379a00000000000000000000000000000000000000000000000000000000081526004016122a2906146d5565b60405180910390fd5b600073ffffffffffffffffffffffffffffffffffffffff168173ffffffffffffffffffffffffffffffffffffffff16141561231b576040517f08c379a000000000000000000000000000000000000000000000000000000000815260040161231290614cf5565b60405180910390fd5b612324816129d6565b50565b612330826113dc565b73ffffffffffffffffffffffffffffffffffffffff163373ffffffffffffffffffffffffffffffffffffffff161461239d576040517f08c379a000000000000000000000000000000000000000000000000000000000815260040161239490614d61565b60405180910390fd5b6000600a83815481106123b3576123b26143b1565b5b90600052602060002090600302019050818160000190805190602001906123db929190613372565b50505050565b600081600001549050919050565b60007f01ffc9a7000000000000000000000000000000000000000000000000000000007bffffffffffffffffffffffffffffffffffffffffffffffffffffffff1916827bffffffffffffffffffffffffffffffffffffffffffffffffffffffff1916149050919050565b60008073ffffffffffffffffffffffffffffffffffffffff166002600084815260200190815260200160002060009054906101000a900473ffffffffffffffffffffffffffffffffffffffff1673ffffffffffffffffffffffffffffffffffffffff1614159050919050565b600033905090565b816004600083815260200190815260200160002060006101000a81548173ffffffffffffffffffffffffffffffffffffffff021916908373ffffffffffffffffffffffffffffffffffffffff160217905550808273ffffffffffffffffffffffffffffffffffffffff16612540836113dc565b73ffffffffffffffffffffffffffffffffffffffff167f8c5be1e5ebec7d5bd14f71427d1e84f3dd0314c0f7b2291e5b200ac8c7c3b92560405160405180910390a45050565b600061259182612459565b6125d0576040517f08c379a00000000000000000000000000000000000000000000000000000000081526004016125c790614df3565b60405180910390fd5b60006125db836113dc565b90508073ffffffffffffffffffffffffffffffffffffffff168473ffffffffffffffffffffffffffffffffffffffff16148061264a57508373ffffffffffffffffffffffffffffffffffffffff1661263284610880565b73ffffffffffffffffffffffffffffffffffffffff16145b8061265b575061265a818561219b565b5b91505092915050565b8273ffffffffffffffffffffffffffffffffffffffff16612684826113dc565b73ffffffffffffffffffffffffffffffffffffffff16146126da576040517f08c379a00000000000000000000000000000000000000000000000000000000081526004016126d190614e85565b60405180910390fd5b600073ffffffffffffffffffffffffffffffffffffffff168273ffffffffffffffffffffffffffffffffffffffff16141561274a576040517f08c379a000000000000000000000000000000000000000000000000000000000815260040161274190614f17565b60405180910390fd5b612755838383612cf2565b6127606000826124cd565b6001600360008573ffffffffffffffffffffffffffffffffffffffff1673ffffffffffffffffffffffffffffffffffffffff16815260200190815260200160002060008282546127b09190614f37565b925050819055506001600360008473ffffffffffffffffffffffffffffffffffffffff1673ffffffffffffffffffffffffffffffffffffffff16815260200190815260200160002060008282546128079190614787565b92505081905550816002600083815260200190815260200160002060006101000a81548173ffffffffffffffffffffffffffffffffffffffff021916908373ffffffffffffffffffffffffffffffffffffffff160217905550808273ffffffffffffffffffffffffffffffffffffffff168473ffffffffffffffffffffffffffffffffffffffff167fddf252ad1be2c89b69c2b068fc378daa952ba7f163c4a11628f55a4df523b3ef60405160405180910390a4505050565b6000804342336040516020016128d69190614fb3565b6040516020818303038152906040528051906020012060001c6128f99190614ffd565b45424160405160200161290c9190615069565b6040516020818303038152906040528051906020012060001c61292f9190614ffd565b444261293b9190614787565b6129459190614787565b61294f9190614787565b6129599190614787565b6129639190614787565b60405160200161297391906150a5565b6040516020818303038152906040528051906020012060001c905060018361299b91906150c0565b60ff166001846129ab91906150c0565b60ff16826129b99190614ffd565b6129c391906150f7565b816129ce9190614f37565b915050919050565b6000600760009054906101000a900473ffffffffffffffffffffffffffffffffffffffff16905081600760006101000a81548173ffffffffffffffffffffffffffffffffffffffff021916908373ffffffffffffffffffffffffffffffffffffffff1602179055508173ffffffffffffffffffffffffffffffffffffffff168173ffffffffffffffffffffffffffffffffffffffff167f8be0079c531659141344cd1fd0a4f28419497f9722a3daafe3b4186f6b6457e060405160405180910390a35050565b612aa7848484612664565b612ab384848484612cf7565b612af2576040517f08c379a0000000000000000000000000000000000000000000000000000000008152600401612ae9906151c3565b60405180910390fd5b50505050565b6060612b0382612459565b612b42576040517f08c379a0000000000000000000000000000000000000000000000000000000008152600401612b3990615255565b60405180910390fd5b6000600660008481526020019081526020016000208054612b629061440f565b80601f0160208091040260200160405190810160405280929190818152602001828054612b8e9061440f565b8015612bdb5780601f10612bb057610100808354040283529160200191612bdb565b820191906000526020600020905b815481529060010190602001808311612bbe57829003601f168201915b505050505090506000612bec612e8e565b9050600081511415612c02578192505050612c45565b600082511115612c37578082604051602001612c1f929190615275565b60405160208183030381529060405292505050612c45565b612c4084612ea5565b925050505b919050565b612c64828260405180602001604052806000815250612f4c565b5050565b6001816000016000828254019250508190555050565b612c8782612459565b612cc6576040517f08c379a0000000000000000000000000000000000000000000000000000000008152600401612cbd9061530b565b60405180910390fd5b80600660008481526020019081526020016000209080519060200190612ced929190613372565b505050565b505050565b6000612d188473ffffffffffffffffffffffffffffffffffffffff16612fa7565b15612e81578373ffffffffffffffffffffffffffffffffffffffff1663150b7a02612d416124c5565b8786866040518563ffffffff1660e01b8152600401612d639493929190615380565b602060405180830381600087803b158015612d7d57600080fd5b505af1925050508015612dae57506040513d601f19601f82011682018060405250810190612dab91906153e1565b60015b612e31573d8060008114612dde576040519150601f19603f3d011682016040523d82523d6000602084013e612de3565b606091505b50600081511415612e29576040517f08c379a0000000000000000000000000000000000000000000000000000000008152600401612e20906151c3565b60405180910390fd5b805181602001fd5b63150b7a0260e01b7bffffffffffffffffffffffffffffffffffffffffffffffffffffffff1916817bffffffffffffffffffffffffffffffffffffffffffffffffffffffff191614915050612e86565b600190505b949350505050565b606060405180602001604052806000815250905090565b6060612eb082612459565b612eef576040517f08c379a0000000000000000000000000000000000000000000000000000000008152600401612ee690615480565b60405180910390fd5b6000612ef9612e8e565b90506000815111612f195760405180602001604052806000815250612f44565b80612f2384612fba565b604051602001612f34929190615275565b6040516020818303038152906040525b915050919050565b612f56838361311b565b612f636000848484612cf7565b612fa2576040517f08c379a0000000000000000000000000000000000000000000000000000000008152600401612f99906151c3565b60405180910390fd5b505050565b600080823b905060008111915050919050565b60606000821415613002576040518060400160405280600181526020017f30000000000000000000000000000000000000000000000000000000000000008152509050613116565b600082905060005b6000821461303457808061301d90614368565b915050600a8261302d9190614ffd565b915061300a565b60008167ffffffffffffffff8111156130505761304f613b2c565b5b6040519080825280601f01601f1916602001820160405280156130825781602001600182028036833780820191505090505b5090505b6000851461310f5760018261309b9190614f37565b9150600a856130aa91906154a0565b60306130b69190614787565b60f81b8183815181106130cc576130cb6143b1565b5b60200101907effffffffffffffffffffffffffffffffffffffffffffffffffffffffffffff1916908160001a905350600a856131089190614ffd565b9450613086565b8093505050505b919050565b600073ffffffffffffffffffffffffffffffffffffffff168273ffffffffffffffffffffffffffffffffffffffff16141561318b576040517f08c379a00000000000000000000000000000000000000000000000000000000081526004016131829061551d565b60405180910390fd5b61319481612459565b156131d4576040517f08c379a00000000000000000000000000000000000000000000000000000000081526004016131cb90615589565b60405180910390fd5b6131e060008383612cf2565b6001600360008473ffffffffffffffffffffffffffffffffffffffff1673ffffffffffffffffffffffffffffffffffffffff16815260200190815260200160002060008282546132309190614787565b92505081905550816002600083815260200190815260200160002060006101000a81548173ffffffffffffffffffffffffffffffffffffffff021916908373ffffffffffffffffffffffffffffffffffffffff160217905550808273ffffffffffffffffffffffffffffffffffffffff16600073ffffffffffffffffffffffffffffffffffffffff167fddf252ad1be2c89b69c2b068fc378daa952ba7f163c4a11628f55a4df523b3ef60405160405180910390a45050565b60405180610140016040528060608152602001600060038111156133105761330f6138f8565b5b815260200160006003811115613329576133286138f8565b5b8152602001600060ff168152602001600060ff168152602001600060ff168152602001600060ff168152602001600060ff168152602001600060ff168152602001600081525090565b82805461337e9061440f565b90600052602060002090601f0160209004810192826133a057600085556133e7565b82601f106133b957805160ff19168380011785556133e7565b828001600101855582156133e7579182015b828111156133e65782518255916020019190600101906133cb565b5b5090506133f491906134a5565b5090565b604051806101800160405280606081526020016000600381111561341f5761341e6138f8565b5b815260200160006003811115613438576134376138f8565b5b8152602001600060ff168152602001600060ff168152602001600060ff168152602001600060ff168152602001600060ff168152602001600060ff16815260200160008152602001600073ffffffffffffffffffffffffffffffffffffffff168152602001606081525090565b5b808211156134be5760008160009055506001016134a6565b5090565b6000604051905090565b600080fd5b600080fd5b600073ffffffffffffffffffffffffffffffffffffffff82169050919050565b6000613501826134d6565b9050919050565b613511816134f6565b811461351c57600080fd5b50565b60008135905061352e81613508565b92915050565b60006020828403121561354a576135496134cc565b5b60006135588482850161351f565b91505092915050565b600081519050919050565b600082825260208201905092915050565b6000819050602082019050919050565b6000819050919050565b6135a08161358d565b82525050565b60006135b28383613597565b60208301905092915050565b6000602082019050919050565b60006135d682613561565b6135e0818561356c565b93506135eb8361357d565b8060005b8381101561361c57815161360388826135a6565b975061360e836135be565b9250506001810190506135ef565b5085935050505092915050565b6000602082019050818103600083015261364381846135cb565b905092915050565b60007fffffffff0000000000000000000000000000000000000000000000000000000082169050919050565b6136808161364b565b811461368b57600080fd5b50565b60008135905061369d81613677565b92915050565b6000602082840312156136b9576136b86134cc565b5b60006136c78482850161368e565b91505092915050565b60008115159050919050565b6136e5816136d0565b82525050565b600060208201905061370060008301846136dc565b92915050565b600081519050919050565b600082825260208201905092915050565b60005b83811015613740578082015181840152602081019050613725565b8381111561374f576000848401525b50505050565b6000601f19601f8301169050919050565b600061377182613706565b61377b8185613711565b935061378b818560208601613722565b61379481613755565b840191505092915050565b600060208201905081810360008301526137b98184613766565b905092915050565b6137ca8161358d565b81146137d557600080fd5b50565b6000813590506137e7816137c1565b92915050565b600060208284031215613803576138026134cc565b5b6000613811848285016137d8565b91505092915050565b613823816134f6565b82525050565b600060208201905061383e600083018461381a565b92915050565b6000806040838503121561385b5761385a6134cc565b5b60006138698582860161351f565b925050602061387a858286016137d8565b9150509250929050565b61388d8161358d565b82525050565b60006020820190506138a86000830184613884565b92915050565b600082825260208201905092915050565b60006138ca82613706565b6138d481856138ae565b93506138e4818560208601613722565b6138ed81613755565b840191505092915050565b7f4e487b7100000000000000000000000000000000000000000000000000000000600052602160045260246000fd5b60048110613938576139376138f8565b5b50565b600081905061394982613927565b919050565b60006139598261393b565b9050919050565b6139698161394e565b82525050565b600481106139805761397f6138f8565b5b50565b60008190506139918261396f565b919050565b60006139a182613983565b9050919050565b6139b181613996565b82525050565b600060ff82169050919050565b6139cd816139b7565b82525050565b60006101408301600083015184820360008601526139f182826138bf565b9150506020830151613a066020860182613960565b506040830151613a1960408601826139a8565b506060830151613a2c60608601826139c4565b506080830151613a3f60808601826139c4565b5060a0830151613a5260a08601826139c4565b5060c0830151613a6560c08601826139c4565b5060e0830151613a7860e08601826139c4565b50610100830151613a8d6101008601826139c4565b50610120830151613aa2610120860182613597565b508091505092915050565b60006020820190508181036000830152613ac781846139d3565b905092915050565b600080600060608486031215613ae857613ae76134cc565b5b6000613af68682870161351f565b9350506020613b078682870161351f565b9250506040613b18868287016137d8565b9150509250925092565b600080fd5b600080fd5b7f4e487b7100000000000000000000000000000000000000000000000000000000600052604160045260246000fd5b613b6482613755565b810181811067ffffffffffffffff82111715613b8357613b82613b2c565b5b80604052505050565b6000613b966134c2565b9050613ba28282613b5b565b919050565b600067ffffffffffffffff821115613bc257613bc1613b2c565b5b613bcb82613755565b9050602081019050919050565b82818337600083830152505050565b6000613bfa613bf584613ba7565b613b8c565b905082815260208101848484011115613c1657613c15613b27565b5b613c21848285613bd8565b509392505050565b600082601f830112613c3e57613c3d613b22565b5b8135613c4e848260208601613be7565b91505092915050565b600060208284031215613c6d57613c6c6134cc565b5b600082013567ffffffffffffffff811115613c8b57613c8a6134d1565b5b613c9784828501613c29565b91505092915050565b600061ffff82169050919050565b613cb781613ca0565b8114613cc257600080fd5b50565b600081359050613cd481613cae565b92915050565b60008060408385031215613cf157613cf06134cc565b5b6000613cff858286016137d8565b9250506020613d1085828601613cc5565b9150509250929050565b613d23816134f6565b82525050565b6000610180830160008301518482036000860152613d4782826138bf565b9150506020830151613d5c6020860182613960565b506040830151613d6f60408601826139a8565b506060830151613d8260608601826139c4565b506080830151613d9560808601826139c4565b5060a0830151613da860a08601826139c4565b5060c0830151613dbb60c08601826139c4565b5060e0830151613dce60e08601826139c4565b50610100830151613de36101008601826139c4565b50610120830151613df8610120860182613597565b50610140830151613e0d610140860182613d1a565b50610160830151848203610160860152613e2782826138bf565b9150508091505092915050565b60006020820190508181036000830152613e4e8184613d29565b905092915050565b600081519050919050565b600082825260208201905092915050565b6000819050602082019050919050565b6000610140830160008301518482036000860152613ea082826138bf565b9150506020830151613eb56020860182613960565b506040830151613ec860408601826139a8565b506060830151613edb60608601826139c4565b506080830151613eee60808601826139c4565b5060a0830151613f0160a08601826139c4565b5060c0830151613f1460c08601826139c4565b5060e0830151613f2760e08601826139c4565b50610100830151613f3c6101008601826139c4565b50610120830151613f51610120860182613597565b508091505092915050565b6000613f688383613e82565b905092915050565b6000602082019050919050565b6000613f8882613e56565b613f928185613e61565b935083602082028501613fa485613e72565b8060005b85811015613fe05784840389528151613fc18582613f5c565b9450613fcc83613f70565b925060208a01995050600181019050613fa8565b50829750879550505050505092915050565b6000602082019050818103600083015261400c8184613f7d565b905092915050565b61401d816136d0565b811461402857600080fd5b50565b60008135905061403a81614014565b92915050565b60008060408385031215614057576140566134cc565b5b60006140658582860161351f565b92505060206140768582860161402b565b9150509250929050565b600067ffffffffffffffff82111561409b5761409a613b2c565b5b6140a482613755565b9050602081019050919050565b60006140c46140bf84614080565b613b8c565b9050828152602081018484840111156140e0576140df613b27565b5b6140eb848285613bd8565b509392505050565b600082601f83011261410857614107613b22565b5b81356141188482602086016140b1565b91505092915050565b6000806000806080858703121561413b5761413a6134cc565b5b60006141498782880161351f565b945050602061415a8782880161351f565b935050604061416b878288016137d8565b925050606085013567ffffffffffffffff81111561418c5761418b6134d1565b5b614198878288016140f3565b91505092959194509250565b6141ad816139b7565b81146141b857600080fd5b50565b6000813590506141ca816141a4565b92915050565b600481106141dd57600080fd5b50565b6000813590506141ef816141d0565b92915050565b6004811061420257600080fd5b50565b600081359050614214816141f5565b92915050565b60008060008060808587031215614234576142336134cc565b5b6000614242878288016141bb565b9450506020614253878288016141e0565b935050604061426487828801614205565b925050606085013567ffffffffffffffff811115614285576142846134d1565b5b61429187828801613c29565b91505092959194509250565b600080604083850312156142b4576142b36134cc565b5b60006142c28582860161351f565b92505060206142d38582860161351f565b9150509250929050565b600080604083850312156142f4576142f36134cc565b5b6000614302858286016137d8565b925050602083013567ffffffffffffffff811115614323576143226134d1565b5b61432f85828601613c29565b9150509250929050565b7f4e487b7100000000000000000000000000000000000000000000000000000000600052601160045260246000fd5b60006143738261358d565b91507fffffffffffffffffffffffffffffffffffffffffffffffffffffffffffffffff8214156143a6576143a5614339565b5b600182019050919050565b7f4e487b7100000000000000000000000000000000000000000000000000000000600052603260045260246000fd5b7f4e487b7100000000000000000000000000000000000000000000000000000000600052602260045260246000fd5b6000600282049050600182168061442757607f821691505b6020821081141561443b5761443a6143e0565b5b50919050565b7f4552433732313a20617070726f76656420717565727920666f72206e6f6e657860008201527f697374656e7420746f6b656e0000000000000000000000000000000000000000602082015250565b600061449d602c83613711565b91506144a882614441565b604082019050919050565b600060208201905081810360008301526144cc81614490565b9050919050565b7f4552433732313a20617070726f76616c20746f2063757272656e74206f776e6560008201527f7200000000000000000000000000000000000000000000000000000000000000602082015250565b600061452f602183613711565b915061453a826144d3565b604082019050919050565b6000602082019050818103600083015261455e81614522565b9050919050565b7f4552433732313a20617070726f76652063616c6c6572206973206e6f74206f7760008201527f6e6572206e6f7220617070726f76656420666f7220616c6c0000000000000000602082015250565b60006145c1603883613711565b91506145cc82614565565b604082019050919050565b600060208201905081810360008301526145f0816145b4565b9050919050565b7f4552433732313a207472616e736665722063616c6c6572206973206e6f74206f60008201527f776e6572206e6f7220617070726f766564000000000000000000000000000000602082015250565b6000614653603183613711565b915061465e826145f7565b604082019050919050565b6000602082019050818103600083015261468281614646565b9050919050565b7f4f776e61626c653a2063616c6c6572206973206e6f7420746865206f776e6572600082015250565b60006146bf602083613711565b91506146ca82614689565b602082019050919050565b600060208201905081810360008301526146ee816146b2565b9050919050565b7f4f6e6c79207065726d697474656420616464726573732063616e20657865637560008201527f7465207468697320616374696f6e000000000000000000000000000000000000602082015250565b6000614751602e83613711565b915061475c826146f5565b604082019050919050565b6000602082019050818103600083015261478081614744565b9050919050565b60006147928261358d565b915061479d8361358d565b9250827fffffffffffffffffffffffffffffffffffffffffffffffffffffffffffffffff038211156147d2576147d1614339565b5b828201905092915050565b60008160011c9050919050565b6000808291508390505b6001851115614834578086048111156148105761480f614339565b5b600185161561481f5780820291505b808102905061482d856147dd565b94506147f4565b94509492505050565b60008261484d5760019050614909565b8161485b5760009050614909565b8160018114614871576002811461487b576148aa565b6001915050614909565b60ff84111561488d5761488c614339565b5b8360020a9150848211156148a4576148a3614339565b5b50614909565b5060208310610133831016604e8410600b84101617156148df5782820a9050838111156148da576148d9614339565b5b614909565b6148ec84848460016147ea565b9250905081840481111561490357614902614339565b5b81810290505b9392505050565b600061491b8261358d565b9150614926836139b7565b92506149537fffffffffffffffffffffffffffffffffffffffffffffffffffffffffffffffff848461483d565b905092915050565b6000614966826139b7565b915060ff82141561497a57614979614339565b5b600182019050919050565b61498e816139b7565b82525050565b60006060820190506149a96000830186614985565b6149b66020830185613884565b6149c36040830184613884565b949350505050565b7f4552433732313a206f776e657220717565727920666f72206e6f6e657869737460008201527f656e7420746f6b656e0000000000000000000000000000000000000000000000602082015250565b6000614a27602983613711565b9150614a32826149cb565b604082019050919050565b60006020820190508181036000830152614a5681614a1a565b9050919050565b7f4552433732313a2062616c616e636520717565727920666f7220746865207a6560008201527f726f206164647265737300000000000000000000000000000000000000000000602082015250565b6000614ab9602a83613711565b9150614ac482614a5d565b604082019050919050565b60006020820190508181036000830152614ae881614aac565b9050919050565b7f4552433732313a20617070726f766520746f2063616c6c657200000000000000600082015250565b6000614b25601983613711565b9150614b3082614aef565b602082019050919050565b60006020820190508181036000830152614b5481614b18565b9050919050565b600081905092915050565b60008190508160005260206000209050919050565b60008154614b888161440f565b614b928186614b5b565b94506001821660008114614bad5760018114614bbe57614bf1565b60ff19831686528186019350614bf1565b614bc785614b66565b60005b83811015614be957815481890152600182019150602081019050614bca565b838801955050505b50505092915050565b6000614c0582613706565b614c0f8185614b5b565b9350614c1f818560208601613722565b80840191505092915050565b6000614c378285614b7b565b9150614c438284614bfa565b91508190509392505050565b6000614c5a826139b7565b9150614c65836139b7565b925082821015614c7857614c77614339565b5b828203905092915050565b7f4f776e61626c653a206e6577206f776e657220697320746865207a65726f206160008201527f6464726573730000000000000000000000000000000000000000000000000000602082015250565b6000614cdf602683613711565b9150614cea82614c83565b604082019050919050565b60006020820190508181036000830152614d0e81614cd2565b9050919050565b7f4e6f74206f776e65720000000000000000000000000000000000000000000000600082015250565b6000614d4b600983613711565b9150614d5682614d15565b602082019050919050565b60006020820190508181036000830152614d7a81614d3e565b9050919050565b7f4552433732313a206f70657261746f7220717565727920666f72206e6f6e657860008201527f697374656e7420746f6b656e0000000000000000000000000000000000000000602082015250565b6000614ddd602c83613711565b9150614de882614d81565b604082019050919050565b60006020820190508181036000830152614e0c81614dd0565b9050919050565b7f4552433732313a207472616e73666572206f6620746f6b656e2074686174206960008201527f73206e6f74206f776e0000000000000000000000000000000000000000000000602082015250565b6000614e6f602983613711565b9150614e7a82614e13565b604082019050919050565b60006020820190508181036000830152614e9e81614e62565b9050919050565b7f4552433732313a207472616e7366657220746f20746865207a65726f2061646460008201527f7265737300000000000000000000000000000000000000000000000000000000602082015250565b6000614f01602483613711565b9150614f0c82614ea5565b604082019050919050565b60006020820190508181036000830152614f3081614ef4565b9050919050565b6000614f428261358d565b9150614f4d8361358d565b925082821015614f6057614f5f614339565b5b828203905092915050565b60008160601b9050919050565b6000614f8382614f6b565b9050919050565b6000614f9582614f78565b9050919050565b614fad614fa8826134f6565b614f8a565b82525050565b6000614fbf8284614f9c565b60148201915081905092915050565b7f4e487b7100000000000000000000000000000000000000000000000000000000600052601260045260246000fd5b60006150088261358d565b91506150138361358d565b92508261502357615022614fce565b5b828204905092915050565b6000615039826134d6565b9050919050565b600061504b82614f78565b9050919050565b61506361505e8261502e565b615040565b82525050565b60006150758284615052565b60148201915081905092915050565b6000819050919050565b61509f61509a8261358d565b615084565b82525050565b60006150b1828461508e565b60208201915081905092915050565b60006150cb826139b7565b91506150d6836139b7565b92508260ff038211156150ec576150eb614339565b5b828201905092915050565b60006151028261358d565b915061510d8361358d565b9250817fffffffffffffffffffffffffffffffffffffffffffffffffffffffffffffffff048311821515161561514657615145614339565b5b828202905092915050565b7f4552433732313a207472616e7366657220746f206e6f6e20455243373231526560008201527f63656976657220696d706c656d656e7465720000000000000000000000000000602082015250565b60006151ad603283613711565b91506151b882615151565b604082019050919050565b600060208201905081810360008301526151dc816151a0565b9050919050565b7f45524337323155524953746f726167653a2055524920717565727920666f722060008201527f6e6f6e6578697374656e7420746f6b656e000000000000000000000000000000602082015250565b600061523f603183613711565b915061524a826151e3565b604082019050919050565b6000602082019050818103600083015261526e81615232565b9050919050565b60006152818285614bfa565b915061528d8284614bfa565b91508190509392505050565b7f45524337323155524953746f726167653a2055524920736574206f66206e6f6e60008201527f6578697374656e7420746f6b656e000000000000000000000000000000000000602082015250565b60006152f5602e83613711565b915061530082615299565b604082019050919050565b60006020820190508181036000830152615324816152e8565b9050919050565b600081519050919050565b600082825260208201905092915050565b60006153528261532b565b61535c8185615336565b935061536c818560208601613722565b61537581613755565b840191505092915050565b6000608082019050615395600083018761381a565b6153a2602083018661381a565b6153af6040830185613884565b81810360608301526153c18184615347565b905095945050505050565b6000815190506153db81613677565b92915050565b6000602082840312156153f7576153f66134cc565b5b6000615405848285016153cc565b91505092915050565b7f4552433732314d657461646174613a2055524920717565727920666f72206e6f60008201527f6e6578697374656e7420746f6b656e0000000000000000000000000000000000602082015250565b600061546a602f83613711565b91506154758261540e565b604082019050919050565b600060208201905081810360008301526154998161545d565b9050919050565b60006154ab8261358d565b91506154b68361358d565b9250826154c6576154c5614fce565b5b828206905092915050565b7f4552433732313a206d696e7420746f20746865207a65726f2061646472657373600082015250565b6000615507602083613711565b9150615512826154d1565b602082019050919050565b60006020820190508181036000830152615536816154fa565b9050919050565b7f4552433732313a20746f6b656e20616c7265616479206d696e74656400000000600082015250565b6000615573601c83613711565b915061557e8261553d565b602082019050919050565b600060208201905081810360008301526155a281615566565b905091905056fea264697066735822122028944d23b8b3cb3b6ba30716800b7a4b802e050ac5d42ee253a4caa736b4ddb464736f6c63430008090033",
  "immutableReferences": {},
  "source": "// SPDX-License-Identifier: MIT\npragma solidity 0.8.9;\n\nimport \"../node_modules/@openzeppelin/contracts/token/ERC721/extensions/ERC721URIStorage.sol\";\nimport \"../node_modules/@openzeppelin/contracts/utils/Counters.sol\";\nimport \"../node_modules/@openzeppelin/contracts/access/Ownable.sol\";\n\ncontract GameToken is ERC721URIStorage, Ownable {\n    event HeroLevelUp(\n        address indexed owner,\n        uint256 indexed tokenId,\n        uint8 level,\n        uint256 currXP,\n        uint256 attribute\n    );\n\n    using Counters for Counters.Counter;\n    Counters.Counter private _currentHeroId;\n\n    mapping(address => bool) private _levelUpPermittedAddress;\n\n    enum HeroType {\n        FIGHTER,\n        ROGUE,\n        MAGE,\n        TANK\n    }\n    enum HeroRarity {\n        COMMON,\n        UNCOMMON,\n        RARE,\n        LEGENDARY\n    }\n\n    struct Hero {\n        string name;\n        HeroType heroType;\n        HeroRarity rarity;\n        uint8 str;\n        uint8 con;\n        uint8 dex;\n        uint8 wis;\n        uint8 level;\n        uint8 season;\n        uint256 currXP;\n    }\n\n    struct HeroDTO {\n        string name;\n        HeroType heroType;\n        HeroRarity rarity;\n        uint8 str;\n        uint8 con;\n        uint8 dex;\n        uint8 wis;\n        uint8 level;\n        uint8 season;\n        uint256 currXP;\n        address owner;\n        string tokenURI;\n    }\n\n    Hero[] private _heroes;\n\n    string private _baseTokenURI;\n\n    mapping(HeroType => uint8[]) private _mapMint;\n\n    constructor(\n        string memory name,\n        string memory symbol,\n        string memory baseTokenURI\n    ) ERC721(name, symbol) {\n        _baseTokenURI = baseTokenURI;\n\n        _mapMint[HeroType.FIGHTER] = [0, 1, 0, 2, 3, 1];\n        _mapMint[HeroType.ROGUE] = [2, 2, 0, 3, 0, 2];\n        _mapMint[HeroType.MAGE] = [3, 3, 2, 1, 0, 3];\n        _mapMint[HeroType.TANK] = [1, 1, 0, 2, 3, 1];\n    }\n\n    function totalSupply() external view returns (uint256) {\n        return _heroes.length;\n    }\n\n    function setBaseTokenURI(string memory _newBaseTokenURI) external onlyOwner {\n        _baseTokenURI = _newBaseTokenURI;\n    }\n\n    function addLevelUpPermittedAddress(address newAddress) external onlyOwner {\n        _levelUpPermittedAddress[newAddress] = true;\n    }\n\n    function removeLevelUpPermittedAddress(address newAddress)\n        external\n        onlyOwner\n    {\n        delete _levelUpPermittedAddress[newAddress];\n    }\n\n    modifier onlyLevelUpPermittedAddress() {\n        require(\n            _levelUpPermittedAddress[_msgSender()],\n            \"Only permitted address can execute this action\"\n        );\n        _;\n    }\n\n    function getHeroes() external view returns (Hero[] memory) {\n        return _heroes;\n    }\n\n    function getNextHeroId() external view returns (uint256) {\n        return _currentHeroId.current();\n    }\n\n    function mint(\n        uint8 _season,\n        HeroType _heroType,\n        HeroRarity _heroRarity,\n        string memory _tokenURI\n    ) public onlyOwner {\n        uint256 newHeroId = _currentHeroId.current();\n\n        _safeMint(msg.sender, newHeroId);\n        _currentHeroId.increment();\n\n        uint8 minAttr;\n        uint8 maxAttr;\n\n        if (_heroRarity == HeroRarity.COMMON) {\n            minAttr = 4;\n            maxAttr = 6;\n        } else if (_heroRarity == HeroRarity.UNCOMMON) {\n            minAttr = 7;\n            maxAttr = 8;\n        } else if (_heroRarity == HeroRarity.RARE) {\n            minAttr = 9;\n            maxAttr = 10;\n        } else {\n            minAttr = 11;\n            maxAttr = 12;\n        }\n\n        uint256 attrsSize = rand(maxAttr - minAttr) + minAttr;\n\n        uint8[] memory attrs = new uint8[](4);\n        attrs[0] = 1;\n        attrs[1] = 1;\n        attrs[2] = 1;\n        attrs[3] = 1;\n        uint8 attrCounter = 0;\n\n        for (uint8 i = 1; i <= attrsSize; i++) {\n            attrs[_mapMint[_heroType][attrCounter]]++;\n            if (attrCounter == 5) {\n                attrCounter = 0;\n            } else {\n                attrCounter++;\n            }\n        }\n\n        _setTokenURI(newHeroId, _tokenURI);\n        _heroes.push(\n            Hero(\n                \"\",\n                _heroType,\n                _heroRarity,\n                attrs[0],\n                attrs[1],\n                attrs[2],\n                attrs[3],\n                1,\n                _season,\n                0\n            )\n        );\n    }\n\n    function getHeroesByAddress(address owner)\n        public\n        view\n        returns (uint256[] memory)\n    {\n        uint256 heroCount = balanceOf(owner);\n\n        if (heroCount == 0) {\n            return new uint256[](0);\n        } else {\n            uint256[] memory ret = new uint256[](heroCount);\n            uint256 i;\n            uint256 curIndex = 0;\n\n            for (i = 0; i < _currentHeroId.current(); i++) {\n                if (ownerOf(i) == owner) {\n                    ret[curIndex++] = i;\n                }\n            }\n\n            return ret;\n        }\n    }\n\n    function getMyHeroes() external view returns (uint256[] memory) {\n        return getHeroesByAddress(msg.sender);\n    }\n\n    function getHero(uint256 _heroId) external view returns (Hero memory) {\n        return _heroes[_heroId];\n    }\n\n    function getHeroComplete(uint256 _heroId)\n        external\n        view\n        returns (HeroDTO memory)\n    {\n        Hero memory h = _heroes[_heroId];\n\n        return\n            HeroDTO(\n                h.name,\n                h.heroType,\n                h.rarity,\n                h.str,\n                h.con,\n                h.dex,\n                h.wis,\n                h.level,\n                h.season,\n                h.currXP,\n                ownerOf(_heroId),\n                tokenURI(_heroId)\n            );\n    }\n\n    function setName(uint256 _heroId, string memory _name) external {\n        require(msg.sender == ownerOf(_heroId), \"Not owner\");\n        Hero storage hero = _heroes[_heroId];\n\n        hero.name = _name;\n    }\n\n    function levelUp(uint256 _heroId, uint16 _xp)\n        external\n        onlyLevelUpPermittedAddress\n    {\n        Hero storage hero = _heroes[_heroId];\n\n        hero.currXP += _xp;\n\n        address owner = ownerOf(_heroId);\n\n        uint256 random;\n\n        if (hero.currXP >= 2**hero.level) {\n            hero.level++;\n            hero.currXP = 0;\n\n            random = rand(3);\n\n            if (random == 0) {\n                hero.str++;\n            } else if (random == 1) {\n                hero.con++;\n            } else if (random == 2) {\n                hero.dex++;\n            } else if (random == 3) {\n                hero.wis++;\n            }\n        }\n\n        emit HeroLevelUp(owner, _heroId, hero.level, hero.currXP, random);\n    }\n\n    function rand(uint8 limit) private view returns (uint256) {\n        uint256 seed = uint256(\n            keccak256(\n                abi.encodePacked(\n                    block.timestamp +\n                        block.difficulty +\n                        ((\n                            uint256(keccak256(abi.encodePacked(block.coinbase)))\n                        ) / (block.timestamp)) +\n                        block.gaslimit +\n                        ((uint256(keccak256(abi.encodePacked(msg.sender)))) /\n                            (block.timestamp)) +\n                        block.number\n                )\n            )\n        );\n\n        return (seed - ((seed / (limit + 1)) * (limit + 1)));\n    }\n\n    function tokenURI(uint256 tokenId)\n        public\n        view\n        virtual\n        override\n        returns (string memory)\n    {\n        return string(abi.encodePacked(_baseTokenURI, super.tokenURI(tokenId)));\n    }\n}\n",
  "sourcePath": "/home/rfaita/game/nft-game/contract/contracts/GameToken.sol",
  "compiler": {
    "name": "solc",
    "version": "0.8.9+commit.e5eed63a.Emscripten.clang"
  },
  "schemaVersion": "3.4.4",
  "updatedAt": "2022-03-03T20:07:49.048Z",
  "networkType": "ethereum",
  "devdoc": {
    "kind": "dev",
    "methods": {
      "approve(address,uint256)": {
        "details": "See {IERC721-approve}."
      },
      "balanceOf(address)": {
        "details": "See {IERC721-balanceOf}."
      },
      "getApproved(uint256)": {
        "details": "See {IERC721-getApproved}."
      },
      "isApprovedForAll(address,address)": {
        "details": "See {IERC721-isApprovedForAll}."
      },
      "name()": {
        "details": "See {IERC721Metadata-name}."
      },
      "owner()": {
        "details": "Returns the address of the current owner."
      },
      "ownerOf(uint256)": {
        "details": "See {IERC721-ownerOf}."
      },
      "renounceOwnership()": {
        "details": "Leaves the contract without owner. It will not be possible to call `onlyOwner` functions anymore. Can only be called by the current owner. NOTE: Renouncing ownership will leave the contract without an owner, thereby removing any functionality that is only available to the owner."
      },
      "safeTransferFrom(address,address,uint256)": {
        "details": "See {IERC721-safeTransferFrom}."
      },
      "safeTransferFrom(address,address,uint256,bytes)": {
        "details": "See {IERC721-safeTransferFrom}."
      },
      "setApprovalForAll(address,bool)": {
        "details": "See {IERC721-setApprovalForAll}."
      },
      "supportsInterface(bytes4)": {
        "details": "See {IERC165-supportsInterface}."
      },
      "symbol()": {
        "details": "See {IERC721Metadata-symbol}."
      },
      "tokenURI(uint256)": {
        "details": "See {IERC721Metadata-tokenURI}."
      },
      "transferFrom(address,address,uint256)": {
        "details": "See {IERC721-transferFrom}."
      },
      "transferOwnership(address)": {
        "details": "Transfers ownership of the contract to a new account (`newOwner`). Can only be called by the current owner."
      }
    },
    "version": 1
  },
  "userdoc": {
    "kind": "user",
    "methods": {},
    "version": 1
  }
}