{
  "contractName": "GameToken",
  "abi": [
    {
      "inputs": [
        {
          "internalType": "string",
          "name": "name",
          "type": "string"
        },
        {
          "internalType": "string",
          "name": "symbol",
          "type": "string"
        },
        {
          "internalType": "string",
          "name": "baseTokenURI",
          "type": "string"
        }
      ],
      "stateMutability": "nonpayable",
      "type": "constructor"
    },
    {
      "anonymous": false,
      "inputs": [
        {
          "indexed": true,
          "internalType": "address",
          "name": "owner",
          "type": "address"
        },
        {
          "indexed": true,
          "internalType": "address",
          "name": "approved",
          "type": "address"
        },
        {
          "indexed": true,
          "internalType": "uint256",
          "name": "tokenId",
          "type": "uint256"
        }
      ],
      "name": "Approval",
      "type": "event"
    },
    {
      "anonymous": false,
      "inputs": [
        {
          "indexed": true,
          "internalType": "address",
          "name": "owner",
          "type": "address"
        },
        {
          "indexed": true,
          "internalType": "address",
          "name": "operator",
          "type": "address"
        },
        {
          "indexed": false,
          "internalType": "bool",
          "name": "approved",
          "type": "bool"
        }
      ],
      "name": "ApprovalForAll",
      "type": "event"
    },
    {
      "anonymous": false,
      "inputs": [
        {
          "indexed": true,
          "internalType": "address",
          "name": "previousOwner",
          "type": "address"
        },
        {
          "indexed": true,
          "internalType": "address",
          "name": "newOwner",
          "type": "address"
        }
      ],
      "name": "OwnershipTransferred",
      "type": "event"
    },
    {
      "anonymous": false,
      "inputs": [
        {
          "indexed": true,
          "internalType": "address",
          "name": "from",
          "type": "address"
        },
        {
          "indexed": true,
          "internalType": "address",
          "name": "to",
          "type": "address"
        },
        {
          "indexed": true,
          "internalType": "uint256",
          "name": "tokenId",
          "type": "uint256"
        }
      ],
      "name": "Transfer",
      "type": "event"
    },
    {
      "inputs": [
        {
          "internalType": "address",
          "name": "to",
          "type": "address"
        },
        {
          "internalType": "uint256",
          "name": "tokenId",
          "type": "uint256"
        }
      ],
      "name": "approve",
      "outputs": [],
      "stateMutability": "nonpayable",
      "type": "function"
    },
    {
      "inputs": [
        {
          "internalType": "address",
          "name": "owner",
          "type": "address"
        }
      ],
      "name": "balanceOf",
      "outputs": [
        {
          "internalType": "uint256",
          "name": "",
          "type": "uint256"
        }
      ],
      "stateMutability": "view",
      "type": "function",
      "constant": true
    },
    {
      "inputs": [
        {
          "internalType": "uint256",
          "name": "tokenId",
          "type": "uint256"
        }
      ],
      "name": "getApproved",
      "outputs": [
        {
          "internalType": "address",
          "name": "",
          "type": "address"
        }
      ],
      "stateMutability": "view",
      "type": "function",
      "constant": true
    },
    {
      "inputs": [
        {
          "internalType": "address",
          "name": "owner",
          "type": "address"
        },
        {
          "internalType": "address",
          "name": "operator",
          "type": "address"
        }
      ],
      "name": "isApprovedForAll",
      "outputs": [
        {
          "internalType": "bool",
          "name": "",
          "type": "bool"
        }
      ],
      "stateMutability": "view",
      "type": "function",
      "constant": true
    },
    {
      "inputs": [],
      "name": "name",
      "outputs": [
        {
          "internalType": "string",
          "name": "",
          "type": "string"
        }
      ],
      "stateMutability": "view",
      "type": "function",
      "constant": true
    },
    {
      "inputs": [],
      "name": "owner",
      "outputs": [
        {
          "internalType": "address",
          "name": "",
          "type": "address"
        }
      ],
      "stateMutability": "view",
      "type": "function",
      "constant": true
    },
    {
      "inputs": [
        {
          "internalType": "uint256",
          "name": "tokenId",
          "type": "uint256"
        }
      ],
      "name": "ownerOf",
      "outputs": [
        {
          "internalType": "address",
          "name": "",
          "type": "address"
        }
      ],
      "stateMutability": "view",
      "type": "function",
      "constant": true
    },
    {
      "inputs": [],
      "name": "renounceOwnership",
      "outputs": [],
      "stateMutability": "nonpayable",
      "type": "function"
    },
    {
      "inputs": [
        {
          "internalType": "address",
          "name": "from",
          "type": "address"
        },
        {
          "internalType": "address",
          "name": "to",
          "type": "address"
        },
        {
          "internalType": "uint256",
          "name": "tokenId",
          "type": "uint256"
        }
      ],
      "name": "safeTransferFrom",
      "outputs": [],
      "stateMutability": "nonpayable",
      "type": "function"
    },
    {
      "inputs": [
        {
          "internalType": "address",
          "name": "from",
          "type": "address"
        },
        {
          "internalType": "address",
          "name": "to",
          "type": "address"
        },
        {
          "internalType": "uint256",
          "name": "tokenId",
          "type": "uint256"
        },
        {
          "internalType": "bytes",
          "name": "_data",
          "type": "bytes"
        }
      ],
      "name": "safeTransferFrom",
      "outputs": [],
      "stateMutability": "nonpayable",
      "type": "function"
    },
    {
      "inputs": [
        {
          "internalType": "address",
          "name": "operator",
          "type": "address"
        },
        {
          "internalType": "bool",
          "name": "approved",
          "type": "bool"
        }
      ],
      "name": "setApprovalForAll",
      "outputs": [],
      "stateMutability": "nonpayable",
      "type": "function"
    },
    {
      "inputs": [
        {
          "internalType": "bytes4",
          "name": "interfaceId",
          "type": "bytes4"
        }
      ],
      "name": "supportsInterface",
      "outputs": [
        {
          "internalType": "bool",
          "name": "",
          "type": "bool"
        }
      ],
      "stateMutability": "view",
      "type": "function",
      "constant": true
    },
    {
      "inputs": [],
      "name": "symbol",
      "outputs": [
        {
          "internalType": "string",
          "name": "",
          "type": "string"
        }
      ],
      "stateMutability": "view",
      "type": "function",
      "constant": true
    },
    {
      "inputs": [
        {
          "internalType": "address",
          "name": "from",
          "type": "address"
        },
        {
          "internalType": "address",
          "name": "to",
          "type": "address"
        },
        {
          "internalType": "uint256",
          "name": "tokenId",
          "type": "uint256"
        }
      ],
      "name": "transferFrom",
      "outputs": [],
      "stateMutability": "nonpayable",
      "type": "function"
    },
    {
      "inputs": [
        {
          "internalType": "address",
          "name": "newOwner",
          "type": "address"
        }
      ],
      "name": "transferOwnership",
      "outputs": [],
      "stateMutability": "nonpayable",
      "type": "function"
    },
    {
      "inputs": [
        {
          "internalType": "address",
          "name": "_newBattleAddress",
          "type": "address"
        }
      ],
      "name": "setBattleAddress",
      "outputs": [],
      "stateMutability": "nonpayable",
      "type": "function"
    },
    {
      "inputs": [],
      "name": "getHeroes",
      "outputs": [
        {
          "components": [
            {
              "internalType": "string",
              "name": "name",
              "type": "string"
            },
            {
              "internalType": "enum GameToken.HeroType",
              "name": "heroType",
              "type": "uint8"
            },
            {
              "internalType": "enum GameToken.HeroRarity",
              "name": "rarity",
              "type": "uint8"
            },
            {
              "internalType": "uint8",
              "name": "str",
              "type": "uint8"
            },
            {
              "internalType": "uint8",
              "name": "con",
              "type": "uint8"
            },
            {
              "internalType": "uint8",
              "name": "dex",
              "type": "uint8"
            },
            {
              "internalType": "uint8",
              "name": "wis",
              "type": "uint8"
            },
            {
              "internalType": "uint8",
              "name": "level",
              "type": "uint8"
            }
          ],
          "internalType": "struct GameToken.Hero[]",
          "name": "",
          "type": "tuple[]"
        }
      ],
      "stateMutability": "view",
      "type": "function",
      "constant": true
    },
    {
      "inputs": [],
      "name": "getCurrentHeroId",
      "outputs": [
        {
          "internalType": "uint256",
          "name": "",
          "type": "uint256"
        }
      ],
      "stateMutability": "view",
      "type": "function",
      "constant": true
    },
    {
      "inputs": [
        {
          "internalType": "enum GameToken.HeroType",
          "name": "_heroType",
          "type": "uint8"
        },
        {
          "internalType": "enum GameToken.HeroRarity",
          "name": "_heroRarity",
          "type": "uint8"
        },
        {
          "internalType": "string",
          "name": "_tokenURI",
          "type": "string"
        }
      ],
      "name": "mint",
      "outputs": [],
      "stateMutability": "nonpayable",
      "type": "function"
    },
    {
      "inputs": [
        {
          "internalType": "address",
          "name": "owner",
          "type": "address"
        }
      ],
      "name": "getHeroesByAddress",
      "outputs": [
        {
          "internalType": "uint256[]",
          "name": "",
          "type": "uint256[]"
        }
      ],
      "stateMutability": "view",
      "type": "function",
      "constant": true
    },
    {
      "inputs": [],
      "name": "getMyHeroes",
      "outputs": [
        {
          "internalType": "uint256[]",
          "name": "",
          "type": "uint256[]"
        }
      ],
      "stateMutability": "view",
      "type": "function",
      "constant": true
    },
    {
      "inputs": [
        {
          "internalType": "uint256",
          "name": "_heroId",
          "type": "uint256"
        }
      ],
      "name": "getHero",
      "outputs": [
        {
          "components": [
            {
              "internalType": "string",
              "name": "name",
              "type": "string"
            },
            {
              "internalType": "enum GameToken.HeroType",
              "name": "heroType",
              "type": "uint8"
            },
            {
              "internalType": "enum GameToken.HeroRarity",
              "name": "rarity",
              "type": "uint8"
            },
            {
              "internalType": "uint8",
              "name": "str",
              "type": "uint8"
            },
            {
              "internalType": "uint8",
              "name": "con",
              "type": "uint8"
            },
            {
              "internalType": "uint8",
              "name": "dex",
              "type": "uint8"
            },
            {
              "internalType": "uint8",
              "name": "wis",
              "type": "uint8"
            },
            {
              "internalType": "uint8",
              "name": "level",
              "type": "uint8"
            }
          ],
          "internalType": "struct GameToken.Hero",
          "name": "",
          "type": "tuple"
        }
      ],
      "stateMutability": "view",
      "type": "function",
      "constant": true
    },
    {
      "inputs": [
        {
          "internalType": "uint256",
          "name": "_heroId",
          "type": "uint256"
        },
        {
          "internalType": "string",
          "name": "_name",
          "type": "string"
        }
      ],
      "name": "setName",
      "outputs": [],
      "stateMutability": "nonpayable",
      "type": "function"
    },
    {
      "inputs": [
        {
          "internalType": "uint256",
          "name": "_heroId",
          "type": "uint256"
        }
      ],
      "name": "levelUp",
      "outputs": [],
      "stateMutability": "nonpayable",
      "type": "function"
    },
    {
      "inputs": [
        {
          "internalType": "uint256",
          "name": "tokenId",
          "type": "uint256"
        }
      ],
      "name": "tokenURI",
      "outputs": [
        {
          "internalType": "string",
          "name": "",
          "type": "string"
        }
      ],
      "stateMutability": "view",
      "type": "function",
      "constant": true
    }
  ],
  "bytecode": "0x60806040523480156200001157600080fd5b5060405162005329380380620053298339818101604052810190620000379190620006c6565b8282816000908051906020019062000051929190620003cb565b5080600190805190602001906200006a929190620003cb565b5050506200008d62000081620002fd60201b60201c565b6200030560201b60201c565b80600b9080519060200190620000a5929190620003cb565b506040518060c00160405280600060ff168152602001600160ff168152602001600060ff168152602001600260ff168152602001600360ff168152602001600160ff16815250600c60008060038111156200010557620001046200077f565b5b60038111156200011a57620001196200077f565b5b8152602001908152602001600020906006620001389291906200045c565b506040518060c00160405280600260ff168152602001600260ff168152602001600060ff168152602001600360ff168152602001600060ff168152602001600260ff16815250600c6000600160038111156200019957620001986200077f565b5b6003811115620001ae57620001ad6200077f565b5b8152602001908152602001600020906006620001cc9291906200045c565b506040518060c00160405280600360ff168152602001600360ff168152602001600260ff168152602001600160ff168152602001600060ff168152602001600360ff16815250600c6000600260038111156200022d576200022c6200077f565b5b60038111156200024257620002416200077f565b5b8152602001908152602001600020906006620002609291906200045c565b506040518060c00160405280600160ff168152602001600160ff168152602001600060ff168152602001600260ff168152602001600360ff168152602001600160ff16815250600c6000600380811115620002c057620002bf6200077f565b5b6003811115620002d557620002d46200077f565b5b8152602001908152602001600020906006620002f39291906200045c565b5050505062000813565b600033905090565b6000600760009054906101000a900473ffffffffffffffffffffffffffffffffffffffff16905081600760006101000a81548173ffffffffffffffffffffffffffffffffffffffff021916908373ffffffffffffffffffffffffffffffffffffffff1602179055508173ffffffffffffffffffffffffffffffffffffffff168173ffffffffffffffffffffffffffffffffffffffff167f8be0079c531659141344cd1fd0a4f28419497f9722a3daafe3b4186f6b6457e060405160405180910390a35050565b828054620003d990620007dd565b90600052602060002090601f016020900481019282620003fd576000855562000449565b82601f106200041857805160ff191683800117855562000449565b8280016001018555821562000449579182015b82811115620004485782518255916020019190600101906200042b565b5b5090506200045891906200050a565b5090565b82805482825590600052602060002090601f01602090048101928215620004f75791602002820160005b83821115620004c657835183826101000a81548160ff021916908360ff160217905550926020019260010160208160000104928301926001030262000486565b8015620004f55782816101000a81549060ff0219169055600101602081600001049283019260010302620004c6565b505b5090506200050691906200050a565b5090565b5b80821115620005255760008160009055506001016200050b565b5090565b6000604051905090565b600080fd5b600080fd5b600080fd5b600080fd5b6000601f19601f8301169050919050565b7f4e487b7100000000000000000000000000000000000000000000000000000000600052604160045260246000fd5b620005928262000547565b810181811067ffffffffffffffff82111715620005b457620005b362000558565b5b80604052505050565b6000620005c962000529565b9050620005d7828262000587565b919050565b600067ffffffffffffffff821115620005fa57620005f962000558565b5b620006058262000547565b9050602081019050919050565b60005b838110156200063257808201518184015260208101905062000615565b8381111562000642576000848401525b50505050565b60006200065f6200065984620005dc565b620005bd565b9050828152602081018484840111156200067e576200067d62000542565b5b6200068b84828562000612565b509392505050565b600082601f830112620006ab57620006aa6200053d565b5b8151620006bd84826020860162000648565b91505092915050565b600080600060608486031215620006e257620006e162000533565b5b600084015167ffffffffffffffff81111562000703576200070262000538565b5b620007118682870162000693565b935050602084015167ffffffffffffffff81111562000735576200073462000538565b5b620007438682870162000693565b925050604084015167ffffffffffffffff81111562000767576200076662000538565b5b620007758682870162000693565b9150509250925092565b7f4e487b7100000000000000000000000000000000000000000000000000000000600052602160045260246000fd5b7f4e487b7100000000000000000000000000000000000000000000000000000000600052602260045260246000fd5b60006002820490506001821680620007f657607f821691505b602082108114156200080d576200080c620007ae565b5b50919050565b614b0680620008236000396000f3fe608060405234801561001057600080fd5b50600436106101725760003560e01c806370a08231116100de578063a22cb46511610097578063c87b56dd11610071578063c87b56dd14610435578063e985e9c514610465578063f2fde38b14610495578063fe55932a146104b157610172565b8063a22cb465146103e1578063b88d4fde146103fd578063c721b34b1461041957610172565b806370a082311461032f578063715018a61461035f578063806f5283146103695780638da5cb5b1461038757806395d89b41146103a55780639a8d2882146103c357610172565b806310d44ae01161013057806310d44ae01461025d57806321d801111461027957806323b872dd146102a957806342842e0e146102c55780636352211e146102e15780636d8411b01461031157610172565b80625597e31461017757806301ffc9a7146101a757806306fdde03146101d7578063081812fc146101f5578063095ea7b3146102255780630ce90ec214610241575b600080fd5b610191600480360381019061018c9190612e6c565b6104cd565b60405161019e9190612f61565b60405180910390f35b6101c160048036038101906101bc9190612fdb565b61062a565b6040516101ce9190613023565b60405180910390f35b6101df61070c565b6040516101ec91906130d7565b60405180910390f35b61020f600480360381019061020a9190613125565b61079e565b60405161021c9190613161565b60405180910390f35b61023f600480360381019061023a919061317c565b610823565b005b61025b60048036038101906102569190613125565b61093b565b005b6102776004803603810190610272919061333b565b610bef565b005b610293600480360381019061028e9190613125565b61119c565b6040516102a0919061357f565b60405180910390f35b6102c360048036038101906102be91906135a1565b611372565b005b6102df60048036038101906102da91906135a1565b6113d2565b005b6102fb60048036038101906102f69190613125565b6113f2565b6040516103089190613161565b60405180910390f35b6103196114a4565b6040516103269190613603565b60405180910390f35b61034960048036038101906103449190612e6c565b6114b5565b6040516103569190613603565b60405180910390f35b61036761156d565b005b6103716115f5565b60405161037e9190612f61565b60405180910390f35b61038f611605565b60405161039c9190613161565b60405180910390f35b6103ad61162f565b6040516103ba91906130d7565b60405180910390f35b6103cb6116c1565b6040516103d89190613790565b60405180910390f35b6103fb60048036038101906103f691906137de565b6118ba565b005b610417600480360381019061041291906138bf565b611a3b565b005b610433600480360381019061042e9190612e6c565b611a9d565b005b61044f600480360381019061044a9190613125565b611b5d565b60405161045c91906130d7565b60405180910390f35b61047f600480360381019061047a9190613942565b611b91565b60405161048c9190613023565b60405180910390f35b6104af60048036038101906104aa9190612e6c565b611c25565b005b6104cb60048036038101906104c69190613982565b611d1d565b005b606060006104da836114b5565b9050600081141561053757600067ffffffffffffffff811115610500576104ff613210565b5b60405190808252806020026020018201604052801561052e5781602001602082028036833780820191505090505b50915050610625565b60008167ffffffffffffffff81111561055357610552613210565b5b6040519080825280602002602001820160405280156105815781602001602082028036833780820191505090505b50905060008060009050600091505b61059a6008611dd7565b82101561061d578573ffffffffffffffffffffffffffffffffffffffff166105c1836113f2565b73ffffffffffffffffffffffffffffffffffffffff16141561060a57818382806105ea90613a0d565b9350815181106105fd576105fc613a56565b5b6020026020010181815250505b818061061590613a0d565b925050610590565b829450505050505b919050565b60007f80ac58cd000000000000000000000000000000000000000000000000000000007bffffffffffffffffffffffffffffffffffffffffffffffffffffffff1916827bffffffffffffffffffffffffffffffffffffffffffffffffffffffff191614806106f557507f5b5e139f000000000000000000000000000000000000000000000000000000007bffffffffffffffffffffffffffffffffffffffffffffffffffffffff1916827bffffffffffffffffffffffffffffffffffffffffffffffffffffffff1916145b80610705575061070482611de5565b5b9050919050565b60606000805461071b90613ab4565b80601f016020809104026020016040519081016040528092919081815260200182805461074790613ab4565b80156107945780601f1061076957610100808354040283529160200191610794565b820191906000526020600020905b81548152906001019060200180831161077757829003601f168201915b5050505050905090565b60006107a982611e4f565b6107e8576040517f08c379a00000000000000000000000000000000000000000000000000000000081526004016107df90613b58565b60405180910390fd5b6004600083815260200190815260200160002060009054906101000a900473ffffffffffffffffffffffffffffffffffffffff169050919050565b600061082e826113f2565b90508073ffffffffffffffffffffffffffffffffffffffff168373ffffffffffffffffffffffffffffffffffffffff16141561089f576040517f08c379a000000000000000000000000000000000000000000000000000000000815260040161089690613bea565b60405180910390fd5b8073ffffffffffffffffffffffffffffffffffffffff166108be611ebb565b73ffffffffffffffffffffffffffffffffffffffff1614806108ed57506108ec816108e7611ebb565b611b91565b5b61092c576040517f08c379a000000000000000000000000000000000000000000000000000000000815260040161092390613c7c565b60405180910390fd5b6109368383611ec3565b505050565b600073ffffffffffffffffffffffffffffffffffffffff16600960009054906101000a900473ffffffffffffffffffffffffffffffffffffffff1673ffffffffffffffffffffffffffffffffffffffff1614156109cd576040517f08c379a00000000000000000000000000000000000000000000000000000000081526004016109c490613ce8565b60405180910390fd5b600960009054906101000a900473ffffffffffffffffffffffffffffffffffffffff1673ffffffffffffffffffffffffffffffffffffffff163373ffffffffffffffffffffffffffffffffffffffff1614610a5d576040517f08c379a0000000000000000000000000000000000000000000000000000000008152600401610a5490613d54565b60405180910390fd5b6000600a8281548110610a7357610a72613a56565b5b9060005260206000209060020201905080600101600681819054906101000a900460ff1680929190610aa490613d74565b91906101000a81548160ff021916908360ff160217905550506000610ac96003611f7c565b90506000811415610b135781600101600281819054906101000a900460ff1680929190610af590613d74565b91906101000a81548160ff021916908360ff16021790555050610bea565b6001811415610b5b5781600101600381819054906101000a900460ff1680929190610b3d90613d74565b91906101000a81548160ff021916908360ff16021790555050610be9565b6002811415610ba35781600101600481819054906101000a900460ff1680929190610b8590613d74565b91906101000a81548160ff021916908360ff16021790555050610be8565b6003811415610be75781600101600581819054906101000a900460ff1680929190610bcd90613d74565b91906101000a81548160ff021916908360ff160217905550505b5b5b5b505050565b610bf7611ebb565b73ffffffffffffffffffffffffffffffffffffffff16610c15611605565b73ffffffffffffffffffffffffffffffffffffffff1614610c6b576040517f08c379a0000000000000000000000000000000000000000000000000000000008152600401610c6290613dea565b60405180910390fd5b6000610c776008611dd7565b905060008060006003811115610c9057610c8f6133f4565b5b856003811115610ca357610ca26133f4565b5b1415610cb6576004915060069050610d35565b60016003811115610cca57610cc96133f4565b5b856003811115610cdd57610cdc6133f4565b5b1415610cf0576007915060089050610d34565b60026003811115610d0457610d036133f4565b5b856003811115610d1757610d166133f4565b5b1415610d2a5760099150600a9050610d33565b600b9150600c90505b5b5b60008260ff16610d4f8484610d4a9190613e0a565b611f7c565b610d599190613e3e565b90506000600467ffffffffffffffff811115610d7857610d77613210565b5b604051908082528060200260200182016040528015610da65781602001602082028036833780820191505090505b509050600181600081518110610dbf57610dbe613a56565b5b602002602001019060ff16908160ff1681525050600181600181518110610de957610de8613a56565b5b602002602001019060ff16908160ff1681525050600181600281518110610e1357610e12613a56565b5b602002602001019060ff16908160ff1681525050600181600381518110610e3d57610e3c613a56565b5b602002602001019060ff16908160ff1681525050600080600190505b838160ff1611610f3a5782600c60008c6003811115610e7b57610e7a6133f4565b5b6003811115610e8d57610e8c6133f4565b5b81526020019081526020016000208360ff1681548110610eb057610eaf613a56565b5b90600052602060002090602091828204019190069054906101000a900460ff1660ff1681518110610ee457610ee3613a56565b5b602002602001018051809190610ef990613d74565b60ff1660ff168152505060058260ff161415610f185760009150610f27565b8180610f2390613d74565b9250505b8080610f3290613d74565b915050610e59565b50610f453387612092565b610f4f86886120b0565b600a6040518061010001604052806040518060200160405280600081525081526020018b6003811115610f8557610f846133f4565b5b81526020018a6003811115610f9d57610f9c6133f4565b5b815260200184600081518110610fb657610fb5613a56565b5b602002602001015160ff16815260200184600181518110610fda57610fd9613a56565b5b602002602001015160ff16815260200184600281518110610ffe57610ffd613a56565b5b602002602001015160ff1681526020018460038151811061102257611021613a56565b5b602002602001015160ff168152602001600160ff168152509080600181540180825580915050600190039060005260206000209060020201600090919091909150600082015181600001908051906020019061107f929190612cdf565b5060208201518160010160006101000a81548160ff021916908360038111156110ab576110aa6133f4565b5b021790555060408201518160010160016101000a81548160ff021916908360038111156110db576110da6133f4565b5b021790555060608201518160010160026101000a81548160ff021916908360ff16021790555060808201518160010160036101000a81548160ff021916908360ff16021790555060a08201518160010160046101000a81548160ff021916908360ff16021790555060c08201518160010160056101000a81548160ff021916908360ff16021790555060e08201518160010160066101000a81548160ff021916908360ff16021790555050506111916008612124565b505050505050505050565b6111a4612d65565b600a82815481106111b8576111b7613a56565b5b9060005260206000209060020201604051806101000160405290816000820180546111e290613ab4565b80601f016020809104026020016040519081016040528092919081815260200182805461120e90613ab4565b801561125b5780601f106112305761010080835404028352916020019161125b565b820191906000526020600020905b81548152906001019060200180831161123e57829003601f168201915b505050505081526020016001820160009054906101000a900460ff166003811115611289576112886133f4565b5b600381111561129b5761129a6133f4565b5b81526020016001820160019054906101000a900460ff1660038111156112c4576112c36133f4565b5b60038111156112d6576112d56133f4565b5b81526020016001820160029054906101000a900460ff1660ff1660ff1681526020016001820160039054906101000a900460ff1660ff1660ff1681526020016001820160049054906101000a900460ff1660ff1660ff1681526020016001820160059054906101000a900460ff1660ff1660ff1681526020016001820160069054906101000a900460ff1660ff1660ff16815250509050919050565b61138361137d611ebb565b8261213a565b6113c2576040517f08c379a00000000000000000000000000000000000000000000000000000000081526004016113b990613f06565b60405180910390fd5b6113cd838383612218565b505050565b6113ed83838360405180602001604052806000815250611a3b565b505050565b6000806002600084815260200190815260200160002060009054906101000a900473ffffffffffffffffffffffffffffffffffffffff169050600073ffffffffffffffffffffffffffffffffffffffff168173ffffffffffffffffffffffffffffffffffffffff16141561149b576040517f08c379a000000000000000000000000000000000000000000000000000000000815260040161149290613f98565b60405180910390fd5b80915050919050565b60006114b06008611dd7565b905090565b60008073ffffffffffffffffffffffffffffffffffffffff168273ffffffffffffffffffffffffffffffffffffffff161415611526576040517f08c379a000000000000000000000000000000000000000000000000000000000815260040161151d9061402a565b60405180910390fd5b600360008373ffffffffffffffffffffffffffffffffffffffff1673ffffffffffffffffffffffffffffffffffffffff168152602001908152602001600020549050919050565b611575611ebb565b73ffffffffffffffffffffffffffffffffffffffff16611593611605565b73ffffffffffffffffffffffffffffffffffffffff16146115e9576040517f08c379a00000000000000000000000000000000000000000000000000000000081526004016115e090613dea565b60405180910390fd5b6115f36000612474565b565b6060611600336104cd565b905090565b6000600760009054906101000a900473ffffffffffffffffffffffffffffffffffffffff16905090565b60606001805461163e90613ab4565b80601f016020809104026020016040519081016040528092919081815260200182805461166a90613ab4565b80156116b75780601f1061168c576101008083540402835291602001916116b7565b820191906000526020600020905b81548152906001019060200180831161169a57829003601f168201915b5050505050905090565b6060600a805480602002602001604051908101604052809291908181526020016000905b828210156118b157838290600052602060002090600202016040518061010001604052908160008201805461171990613ab4565b80601f016020809104026020016040519081016040528092919081815260200182805461174590613ab4565b80156117925780601f1061176757610100808354040283529160200191611792565b820191906000526020600020905b81548152906001019060200180831161177557829003601f168201915b505050505081526020016001820160009054906101000a900460ff1660038111156117c0576117bf6133f4565b5b60038111156117d2576117d16133f4565b5b81526020016001820160019054906101000a900460ff1660038111156117fb576117fa6133f4565b5b600381111561180d5761180c6133f4565b5b81526020016001820160029054906101000a900460ff1660ff1660ff1681526020016001820160039054906101000a900460ff1660ff1660ff1681526020016001820160049054906101000a900460ff1660ff1660ff1681526020016001820160059054906101000a900460ff1660ff1660ff1681526020016001820160069054906101000a900460ff1660ff1660ff1681525050815260200190600101906116e5565b50505050905090565b6118c2611ebb565b73ffffffffffffffffffffffffffffffffffffffff168273ffffffffffffffffffffffffffffffffffffffff161415611930576040517f08c379a000000000000000000000000000000000000000000000000000000000815260040161192790614096565b60405180910390fd5b806005600061193d611ebb565b73ffffffffffffffffffffffffffffffffffffffff1673ffffffffffffffffffffffffffffffffffffffff16815260200190815260200160002060008473ffffffffffffffffffffffffffffffffffffffff1673ffffffffffffffffffffffffffffffffffffffff16815260200190815260200160002060006101000a81548160ff0219169083151502179055508173ffffffffffffffffffffffffffffffffffffffff166119ea611ebb565b73ffffffffffffffffffffffffffffffffffffffff167f17307eab39ab6107e8899845ad3d59bd9653f200f220920489ca2b5937696c3183604051611a2f9190613023565b60405180910390a35050565b611a4c611a46611ebb565b8361213a565b611a8b576040517f08c379a0000000000000000000000000000000000000000000000000000000008152600401611a8290613f06565b60405180910390fd5b611a978484848461253a565b50505050565b611aa5611ebb565b73ffffffffffffffffffffffffffffffffffffffff16611ac3611605565b73ffffffffffffffffffffffffffffffffffffffff1614611b19576040517f08c379a0000000000000000000000000000000000000000000000000000000008152600401611b1090613dea565b60405180910390fd5b80600960006101000a81548173ffffffffffffffffffffffffffffffffffffffff021916908373ffffffffffffffffffffffffffffffffffffffff16021790555050565b6060600b611b6a83612596565b604051602001611b7b929190614186565b6040516020818303038152906040529050919050565b6000600560008473ffffffffffffffffffffffffffffffffffffffff1673ffffffffffffffffffffffffffffffffffffffff16815260200190815260200160002060008373ffffffffffffffffffffffffffffffffffffffff1673ffffffffffffffffffffffffffffffffffffffff16815260200190815260200160002060009054906101000a900460ff16905092915050565b611c2d611ebb565b73ffffffffffffffffffffffffffffffffffffffff16611c4b611605565b73ffffffffffffffffffffffffffffffffffffffff1614611ca1576040517f08c379a0000000000000000000000000000000000000000000000000000000008152600401611c9890613dea565b60405180910390fd5b600073ffffffffffffffffffffffffffffffffffffffff168173ffffffffffffffffffffffffffffffffffffffff161415611d11576040517f08c379a0000000000000000000000000000000000000000000000000000000008152600401611d089061421c565b60405180910390fd5b611d1a81612474565b50565b611d26826113f2565b73ffffffffffffffffffffffffffffffffffffffff163373ffffffffffffffffffffffffffffffffffffffff1614611d93576040517f08c379a0000000000000000000000000000000000000000000000000000000008152600401611d8a90614288565b60405180910390fd5b6000600a8381548110611da957611da8613a56565b5b9060005260206000209060020201905081816000019080519060200190611dd1929190612cdf565b50505050565b600081600001549050919050565b60007f01ffc9a7000000000000000000000000000000000000000000000000000000007bffffffffffffffffffffffffffffffffffffffffffffffffffffffff1916827bffffffffffffffffffffffffffffffffffffffffffffffffffffffff1916149050919050565b60008073ffffffffffffffffffffffffffffffffffffffff166002600084815260200190815260200160002060009054906101000a900473ffffffffffffffffffffffffffffffffffffffff1673ffffffffffffffffffffffffffffffffffffffff1614159050919050565b600033905090565b816004600083815260200190815260200160002060006101000a81548173ffffffffffffffffffffffffffffffffffffffff021916908373ffffffffffffffffffffffffffffffffffffffff160217905550808273ffffffffffffffffffffffffffffffffffffffff16611f36836113f2565b73ffffffffffffffffffffffffffffffffffffffff167f8c5be1e5ebec7d5bd14f71427d1e84f3dd0314c0f7b2291e5b200ac8c7c3b92560405160405180910390a45050565b600080434233604051602001611f9291906142f0565b6040516020818303038152906040528051906020012060001c611fb5919061433a565b454241604051602001611fc891906143a6565b6040516020818303038152906040528051906020012060001c611feb919061433a565b4442611ff79190613e3e565b6120019190613e3e565b61200b9190613e3e565b6120159190613e3e565b61201f9190613e3e565b60405160200161202f91906143e2565b6040516020818303038152906040528051906020012060001c905060018361205791906143fd565b60ff1660018461206791906143fd565b60ff1682612075919061433a565b61207f9190614434565b8161208a919061448e565b915050919050565b6120ac8282604051806020016040528060008152506126e8565b5050565b6120b982611e4f565b6120f8576040517f08c379a00000000000000000000000000000000000000000000000000000000081526004016120ef90614534565b60405180910390fd5b8060066000848152602001908152602001600020908051906020019061211f929190612cdf565b505050565b6001816000016000828254019250508190555050565b600061214582611e4f565b612184576040517f08c379a000000000000000000000000000000000000000000000000000000000815260040161217b906145c6565b60405180910390fd5b600061218f836113f2565b90508073ffffffffffffffffffffffffffffffffffffffff168473ffffffffffffffffffffffffffffffffffffffff1614806121fe57508373ffffffffffffffffffffffffffffffffffffffff166121e68461079e565b73ffffffffffffffffffffffffffffffffffffffff16145b8061220f575061220e8185611b91565b5b91505092915050565b8273ffffffffffffffffffffffffffffffffffffffff16612238826113f2565b73ffffffffffffffffffffffffffffffffffffffff161461228e576040517f08c379a000000000000000000000000000000000000000000000000000000000815260040161228590614658565b60405180910390fd5b600073ffffffffffffffffffffffffffffffffffffffff168273ffffffffffffffffffffffffffffffffffffffff1614156122fe576040517f08c379a00000000000000000000000000000000000000000000000000000000081526004016122f5906146ea565b60405180910390fd5b612309838383612743565b612314600082611ec3565b6001600360008573ffffffffffffffffffffffffffffffffffffffff1673ffffffffffffffffffffffffffffffffffffffff1681526020019081526020016000206000828254612364919061448e565b925050819055506001600360008473ffffffffffffffffffffffffffffffffffffffff1673ffffffffffffffffffffffffffffffffffffffff16815260200190815260200160002060008282546123bb9190613e3e565b92505081905550816002600083815260200190815260200160002060006101000a81548173ffffffffffffffffffffffffffffffffffffffff021916908373ffffffffffffffffffffffffffffffffffffffff160217905550808273ffffffffffffffffffffffffffffffffffffffff168473ffffffffffffffffffffffffffffffffffffffff167fddf252ad1be2c89b69c2b068fc378daa952ba7f163c4a11628f55a4df523b3ef60405160405180910390a4505050565b6000600760009054906101000a900473ffffffffffffffffffffffffffffffffffffffff16905081600760006101000a81548173ffffffffffffffffffffffffffffffffffffffff021916908373ffffffffffffffffffffffffffffffffffffffff1602179055508173ffffffffffffffffffffffffffffffffffffffff168173ffffffffffffffffffffffffffffffffffffffff167f8be0079c531659141344cd1fd0a4f28419497f9722a3daafe3b4186f6b6457e060405160405180910390a35050565b612545848484612218565b61255184848484612748565b612590576040517f08c379a00000000000000000000000000000000000000000000000000000000081526004016125879061477c565b60405180910390fd5b50505050565b60606125a182611e4f565b6125e0576040517f08c379a00000000000000000000000000000000000000000000000000000000081526004016125d79061480e565b60405180910390fd5b600060066000848152602001908152602001600020805461260090613ab4565b80601f016020809104026020016040519081016040528092919081815260200182805461262c90613ab4565b80156126795780601f1061264e57610100808354040283529160200191612679565b820191906000526020600020905b81548152906001019060200180831161265c57829003601f168201915b50505050509050600061268a6128df565b90506000815114156126a05781925050506126e3565b6000825111156126d55780826040516020016126bd92919061482e565b604051602081830303815290604052925050506126e3565b6126de846128f6565b925050505b919050565b6126f2838361299d565b6126ff6000848484612748565b61273e576040517f08c379a00000000000000000000000000000000000000000000000000000000081526004016127359061477c565b60405180910390fd5b505050565b505050565b60006127698473ffffffffffffffffffffffffffffffffffffffff16612b6b565b156128d2578373ffffffffffffffffffffffffffffffffffffffff1663150b7a02612792611ebb565b8786866040518563ffffffff1660e01b81526004016127b494939291906148a7565b602060405180830381600087803b1580156127ce57600080fd5b505af19250505080156127ff57506040513d601f19601f820116820180604052508101906127fc9190614908565b60015b612882573d806000811461282f576040519150601f19603f3d011682016040523d82523d6000602084013e612834565b606091505b5060008151141561287a576040517f08c379a00000000000000000000000000000000000000000000000000000000081526004016128719061477c565b60405180910390fd5b805181602001fd5b63150b7a0260e01b7bffffffffffffffffffffffffffffffffffffffffffffffffffffffff1916817bffffffffffffffffffffffffffffffffffffffffffffffffffffffff1916149150506128d7565b600190505b949350505050565b606060405180602001604052806000815250905090565b606061290182611e4f565b612940576040517f08c379a0000000000000000000000000000000000000000000000000000000008152600401612937906149a7565b60405180910390fd5b600061294a6128df565b9050600081511161296a5760405180602001604052806000815250612995565b8061297484612b7e565b60405160200161298592919061482e565b6040516020818303038152906040525b915050919050565b600073ffffffffffffffffffffffffffffffffffffffff168273ffffffffffffffffffffffffffffffffffffffff161415612a0d576040517f08c379a0000000000000000000000000000000000000000000000000000000008152600401612a0490614a13565b60405180910390fd5b612a1681611e4f565b15612a56576040517f08c379a0000000000000000000000000000000000000000000000000000000008152600401612a4d90614a7f565b60405180910390fd5b612a6260008383612743565b6001600360008473ffffffffffffffffffffffffffffffffffffffff1673ffffffffffffffffffffffffffffffffffffffff1681526020019081526020016000206000828254612ab29190613e3e565b92505081905550816002600083815260200190815260200160002060006101000a81548173ffffffffffffffffffffffffffffffffffffffff021916908373ffffffffffffffffffffffffffffffffffffffff160217905550808273ffffffffffffffffffffffffffffffffffffffff16600073ffffffffffffffffffffffffffffffffffffffff167fddf252ad1be2c89b69c2b068fc378daa952ba7f163c4a11628f55a4df523b3ef60405160405180910390a45050565b600080823b905060008111915050919050565b60606000821415612bc6576040518060400160405280600181526020017f30000000000000000000000000000000000000000000000000000000000000008152509050612cda565b600082905060005b60008214612bf8578080612be190613a0d565b915050600a82612bf1919061433a565b9150612bce565b60008167ffffffffffffffff811115612c1457612c13613210565b5b6040519080825280601f01601f191660200182016040528015612c465781602001600182028036833780820191505090505b5090505b60008514612cd357600182612c5f919061448e565b9150600a85612c6e9190614a9f565b6030612c7a9190613e3e565b60f81b818381518110612c9057612c8f613a56565b5b60200101907effffffffffffffffffffffffffffffffffffffffffffffffffffffffffffff1916908160001a905350600a85612ccc919061433a565b9450612c4a565b8093505050505b919050565b828054612ceb90613ab4565b90600052602060002090601f016020900481019282612d0d5760008555612d54565b82601f10612d2657805160ff1916838001178555612d54565b82800160010185558215612d54579182015b82811115612d53578251825591602001919060010190612d38565b5b509050612d619190612ddd565b5090565b6040518061010001604052806060815260200160006003811115612d8c57612d8b6133f4565b5b815260200160006003811115612da557612da46133f4565b5b8152602001600060ff168152602001600060ff168152602001600060ff168152602001600060ff168152602001600060ff1681525090565b5b80821115612df6576000816000905550600101612dde565b5090565b6000604051905090565b600080fd5b600080fd5b600073ffffffffffffffffffffffffffffffffffffffff82169050919050565b6000612e3982612e0e565b9050919050565b612e4981612e2e565b8114612e5457600080fd5b50565b600081359050612e6681612e40565b92915050565b600060208284031215612e8257612e81612e04565b5b6000612e9084828501612e57565b91505092915050565b600081519050919050565b600082825260208201905092915050565b6000819050602082019050919050565b6000819050919050565b612ed881612ec5565b82525050565b6000612eea8383612ecf565b60208301905092915050565b6000602082019050919050565b6000612f0e82612e99565b612f188185612ea4565b9350612f2383612eb5565b8060005b83811015612f54578151612f3b8882612ede565b9750612f4683612ef6565b925050600181019050612f27565b5085935050505092915050565b60006020820190508181036000830152612f7b8184612f03565b905092915050565b60007fffffffff0000000000000000000000000000000000000000000000000000000082169050919050565b612fb881612f83565b8114612fc357600080fd5b50565b600081359050612fd581612faf565b92915050565b600060208284031215612ff157612ff0612e04565b5b6000612fff84828501612fc6565b91505092915050565b60008115159050919050565b61301d81613008565b82525050565b60006020820190506130386000830184613014565b92915050565b600081519050919050565b600082825260208201905092915050565b60005b8381101561307857808201518184015260208101905061305d565b83811115613087576000848401525b50505050565b6000601f19601f8301169050919050565b60006130a98261303e565b6130b38185613049565b93506130c381856020860161305a565b6130cc8161308d565b840191505092915050565b600060208201905081810360008301526130f1818461309e565b905092915050565b61310281612ec5565b811461310d57600080fd5b50565b60008135905061311f816130f9565b92915050565b60006020828403121561313b5761313a612e04565b5b600061314984828501613110565b91505092915050565b61315b81612e2e565b82525050565b60006020820190506131766000830184613152565b92915050565b6000806040838503121561319357613192612e04565b5b60006131a185828601612e57565b92505060206131b285828601613110565b9150509250929050565b600481106131c957600080fd5b50565b6000813590506131db816131bc565b92915050565b600481106131ee57600080fd5b50565b600081359050613200816131e1565b92915050565b600080fd5b600080fd5b7f4e487b7100000000000000000000000000000000000000000000000000000000600052604160045260246000fd5b6132488261308d565b810181811067ffffffffffffffff8211171561326757613266613210565b5b80604052505050565b600061327a612dfa565b9050613286828261323f565b919050565b600067ffffffffffffffff8211156132a6576132a5613210565b5b6132af8261308d565b9050602081019050919050565b82818337600083830152505050565b60006132de6132d98461328b565b613270565b9050828152602081018484840111156132fa576132f961320b565b5b6133058482856132bc565b509392505050565b600082601f83011261332257613321613206565b5b81356133328482602086016132cb565b91505092915050565b60008060006060848603121561335457613353612e04565b5b6000613362868287016131cc565b9350506020613373868287016131f1565b925050604084013567ffffffffffffffff81111561339457613393612e09565b5b6133a08682870161330d565b9150509250925092565b600082825260208201905092915050565b60006133c68261303e565b6133d081856133aa565b93506133e081856020860161305a565b6133e98161308d565b840191505092915050565b7f4e487b7100000000000000000000000000000000000000000000000000000000600052602160045260246000fd5b60048110613434576134336133f4565b5b50565b600081905061344582613423565b919050565b600061345582613437565b9050919050565b6134658161344a565b82525050565b6004811061347c5761347b6133f4565b5b50565b600081905061348d8261346b565b919050565b600061349d8261347f565b9050919050565b6134ad81613492565b82525050565b600060ff82169050919050565b6134c9816134b3565b82525050565b60006101008301600083015184820360008601526134ed82826133bb565b9150506020830151613502602086018261345c565b50604083015161351560408601826134a4565b50606083015161352860608601826134c0565b50608083015161353b60808601826134c0565b5060a083015161354e60a08601826134c0565b5060c083015161356160c08601826134c0565b5060e083015161357460e08601826134c0565b508091505092915050565b6000602082019050818103600083015261359981846134cf565b905092915050565b6000806000606084860312156135ba576135b9612e04565b5b60006135c886828701612e57565b93505060206135d986828701612e57565b92505060406135ea86828701613110565b9150509250925092565b6135fd81612ec5565b82525050565b600060208201905061361860008301846135f4565b92915050565b600081519050919050565b600082825260208201905092915050565b6000819050602082019050919050565b600061010083016000830151848203600086015261366882826133bb565b915050602083015161367d602086018261345c565b50604083015161369060408601826134a4565b5060608301516136a360608601826134c0565b5060808301516136b660808601826134c0565b5060a08301516136c960a08601826134c0565b5060c08301516136dc60c08601826134c0565b5060e08301516136ef60e08601826134c0565b508091505092915050565b6000613706838361364a565b905092915050565b6000602082019050919050565b60006137268261361e565b6137308185613629565b9350836020820285016137428561363a565b8060005b8581101561377e578484038952815161375f85826136fa565b945061376a8361370e565b925060208a01995050600181019050613746565b50829750879550505050505092915050565b600060208201905081810360008301526137aa818461371b565b905092915050565b6137bb81613008565b81146137c657600080fd5b50565b6000813590506137d8816137b2565b92915050565b600080604083850312156137f5576137f4612e04565b5b600061380385828601612e57565b9250506020613814858286016137c9565b9150509250929050565b600067ffffffffffffffff82111561383957613838613210565b5b6138428261308d565b9050602081019050919050565b600061386261385d8461381e565b613270565b90508281526020810184848401111561387e5761387d61320b565b5b6138898482856132bc565b509392505050565b600082601f8301126138a6576138a5613206565b5b81356138b684826020860161384f565b91505092915050565b600080600080608085870312156138d9576138d8612e04565b5b60006138e787828801612e57565b94505060206138f887828801612e57565b935050604061390987828801613110565b925050606085013567ffffffffffffffff81111561392a57613929612e09565b5b61393687828801613891565b91505092959194509250565b6000806040838503121561395957613958612e04565b5b600061396785828601612e57565b925050602061397885828601612e57565b9150509250929050565b6000806040838503121561399957613998612e04565b5b60006139a785828601613110565b925050602083013567ffffffffffffffff8111156139c8576139c7612e09565b5b6139d48582860161330d565b9150509250929050565b7f4e487b7100000000000000000000000000000000000000000000000000000000600052601160045260246000fd5b6000613a1882612ec5565b91507fffffffffffffffffffffffffffffffffffffffffffffffffffffffffffffffff821415613a4b57613a4a6139de565b5b600182019050919050565b7f4e487b7100000000000000000000000000000000000000000000000000000000600052603260045260246000fd5b7f4e487b7100000000000000000000000000000000000000000000000000000000600052602260045260246000fd5b60006002820490506001821680613acc57607f821691505b60208210811415613ae057613adf613a85565b5b50919050565b7f4552433732313a20617070726f76656420717565727920666f72206e6f6e657860008201527f697374656e7420746f6b656e0000000000000000000000000000000000000000602082015250565b6000613b42602c83613049565b9150613b4d82613ae6565b604082019050919050565b60006020820190508181036000830152613b7181613b35565b9050919050565b7f4552433732313a20617070726f76616c20746f2063757272656e74206f776e6560008201527f7200000000000000000000000000000000000000000000000000000000000000602082015250565b6000613bd4602183613049565b9150613bdf82613b78565b604082019050919050565b60006020820190508181036000830152613c0381613bc7565b9050919050565b7f4552433732313a20617070726f76652063616c6c6572206973206e6f74206f7760008201527f6e6572206e6f7220617070726f76656420666f7220616c6c0000000000000000602082015250565b6000613c66603883613049565b9150613c7182613c0a565b604082019050919050565b60006020820190508181036000830152613c9581613c59565b9050919050565b7f426174746c6520636f6e7472616374206e6f7420646566696e65640000000000600082015250565b6000613cd2601b83613049565b9150613cdd82613c9c565b602082019050919050565b60006020820190508181036000830152613d0181613cc5565b9050919050565b7f4f6e6c7920626174746c6520636f6e74726163742063616e2065786563757465600082015250565b6000613d3e602083613049565b9150613d4982613d08565b602082019050919050565b60006020820190508181036000830152613d6d81613d31565b9050919050565b6000613d7f826134b3565b915060ff821415613d9357613d926139de565b5b600182019050919050565b7f4f776e61626c653a2063616c6c6572206973206e6f7420746865206f776e6572600082015250565b6000613dd4602083613049565b9150613ddf82613d9e565b602082019050919050565b60006020820190508181036000830152613e0381613dc7565b9050919050565b6000613e15826134b3565b9150613e20836134b3565b925082821015613e3357613e326139de565b5b828203905092915050565b6000613e4982612ec5565b9150613e5483612ec5565b9250827fffffffffffffffffffffffffffffffffffffffffffffffffffffffffffffffff03821115613e8957613e886139de565b5b828201905092915050565b7f4552433732313a207472616e736665722063616c6c6572206973206e6f74206f60008201527f776e6572206e6f7220617070726f766564000000000000000000000000000000602082015250565b6000613ef0603183613049565b9150613efb82613e94565b604082019050919050565b60006020820190508181036000830152613f1f81613ee3565b9050919050565b7f4552433732313a206f776e657220717565727920666f72206e6f6e657869737460008201527f656e7420746f6b656e0000000000000000000000000000000000000000000000602082015250565b6000613f82602983613049565b9150613f8d82613f26565b604082019050919050565b60006020820190508181036000830152613fb181613f75565b9050919050565b7f4552433732313a2062616c616e636520717565727920666f7220746865207a6560008201527f726f206164647265737300000000000000000000000000000000000000000000602082015250565b6000614014602a83613049565b915061401f82613fb8565b604082019050919050565b6000602082019050818103600083015261404381614007565b9050919050565b7f4552433732313a20617070726f766520746f2063616c6c657200000000000000600082015250565b6000614080601983613049565b915061408b8261404a565b602082019050919050565b600060208201905081810360008301526140af81614073565b9050919050565b600081905092915050565b60008190508160005260206000209050919050565b600081546140e381613ab4565b6140ed81866140b6565b9450600182166000811461410857600181146141195761414c565b60ff1983168652818601935061414c565b614122856140c1565b60005b8381101561414457815481890152600182019150602081019050614125565b838801955050505b50505092915050565b60006141608261303e565b61416a81856140b6565b935061417a81856020860161305a565b80840191505092915050565b600061419282856140d6565b915061419e8284614155565b91508190509392505050565b7f4f776e61626c653a206e6577206f776e657220697320746865207a65726f206160008201527f6464726573730000000000000000000000000000000000000000000000000000602082015250565b6000614206602683613049565b9150614211826141aa565b604082019050919050565b60006020820190508181036000830152614235816141f9565b9050919050565b7f4e6f74206f776e65720000000000000000000000000000000000000000000000600082015250565b6000614272600983613049565b915061427d8261423c565b602082019050919050565b600060208201905081810360008301526142a181614265565b9050919050565b60008160601b9050919050565b60006142c0826142a8565b9050919050565b60006142d2826142b5565b9050919050565b6142ea6142e582612e2e565b6142c7565b82525050565b60006142fc82846142d9565b60148201915081905092915050565b7f4e487b7100000000000000000000000000000000000000000000000000000000600052601260045260246000fd5b600061434582612ec5565b915061435083612ec5565b9250826143605761435f61430b565b5b828204905092915050565b600061437682612e0e565b9050919050565b6000614388826142b5565b9050919050565b6143a061439b8261436b565b61437d565b82525050565b60006143b2828461438f565b60148201915081905092915050565b6000819050919050565b6143dc6143d782612ec5565b6143c1565b82525050565b60006143ee82846143cb565b60208201915081905092915050565b6000614408826134b3565b9150614413836134b3565b92508260ff03821115614429576144286139de565b5b828201905092915050565b600061443f82612ec5565b915061444a83612ec5565b9250817fffffffffffffffffffffffffffffffffffffffffffffffffffffffffffffffff0483118215151615614483576144826139de565b5b828202905092915050565b600061449982612ec5565b91506144a483612ec5565b9250828210156144b7576144b66139de565b5b828203905092915050565b7f45524337323155524953746f726167653a2055524920736574206f66206e6f6e60008201527f6578697374656e7420746f6b656e000000000000000000000000000000000000602082015250565b600061451e602e83613049565b9150614529826144c2565b604082019050919050565b6000602082019050818103600083015261454d81614511565b9050919050565b7f4552433732313a206f70657261746f7220717565727920666f72206e6f6e657860008201527f697374656e7420746f6b656e0000000000000000000000000000000000000000602082015250565b60006145b0602c83613049565b91506145bb82614554565b604082019050919050565b600060208201905081810360008301526145df816145a3565b9050919050565b7f4552433732313a207472616e73666572206f6620746f6b656e2074686174206960008201527f73206e6f74206f776e0000000000000000000000000000000000000000000000602082015250565b6000614642602983613049565b915061464d826145e6565b604082019050919050565b6000602082019050818103600083015261467181614635565b9050919050565b7f4552433732313a207472616e7366657220746f20746865207a65726f2061646460008201527f7265737300000000000000000000000000000000000000000000000000000000602082015250565b60006146d4602483613049565b91506146df82614678565b604082019050919050565b60006020820190508181036000830152614703816146c7565b9050919050565b7f4552433732313a207472616e7366657220746f206e6f6e20455243373231526560008201527f63656976657220696d706c656d656e7465720000000000000000000000000000602082015250565b6000614766603283613049565b91506147718261470a565b604082019050919050565b6000602082019050818103600083015261479581614759565b9050919050565b7f45524337323155524953746f726167653a2055524920717565727920666f722060008201527f6e6f6e6578697374656e7420746f6b656e000000000000000000000000000000602082015250565b60006147f8603183613049565b91506148038261479c565b604082019050919050565b60006020820190508181036000830152614827816147eb565b9050919050565b600061483a8285614155565b91506148468284614155565b91508190509392505050565b600081519050919050565b600082825260208201905092915050565b600061487982614852565b614883818561485d565b935061489381856020860161305a565b61489c8161308d565b840191505092915050565b60006080820190506148bc6000830187613152565b6148c96020830186613152565b6148d660408301856135f4565b81810360608301526148e8818461486e565b905095945050505050565b60008151905061490281612faf565b92915050565b60006020828403121561491e5761491d612e04565b5b600061492c848285016148f3565b91505092915050565b7f4552433732314d657461646174613a2055524920717565727920666f72206e6f60008201527f6e6578697374656e7420746f6b656e0000000000000000000000000000000000602082015250565b6000614991602f83613049565b915061499c82614935565b604082019050919050565b600060208201905081810360008301526149c081614984565b9050919050565b7f4552433732313a206d696e7420746f20746865207a65726f2061646472657373600082015250565b60006149fd602083613049565b9150614a08826149c7565b602082019050919050565b60006020820190508181036000830152614a2c816149f0565b9050919050565b7f4552433732313a20746f6b656e20616c7265616479206d696e74656400000000600082015250565b6000614a69601c83613049565b9150614a7482614a33565b602082019050919050565b60006020820190508181036000830152614a9881614a5c565b9050919050565b6000614aaa82612ec5565b9150614ab583612ec5565b925082614ac557614ac461430b565b5b82820690509291505056fea2646970667358221220986002ed76a338cee921568626cf5841a46da17308d44a9cfa81caacf3ccc1f464736f6c63430008090033",
  "immutableReferences": {},
  "source": "pragma solidity 0.8.9;\n\nimport \"../node_modules/@openzeppelin/contracts/token/ERC721/extensions/ERC721URIStorage.sol\";\nimport \"../node_modules/@openzeppelin/contracts/utils/Counters.sol\";\nimport \"../node_modules/@openzeppelin/contracts/access/Ownable.sol\";\n\ncontract GameToken is ERC721URIStorage, Ownable {\n    using Counters for Counters.Counter;\n    Counters.Counter private _currentHeroId;\n\n    address private _battleAddress;\n\n    enum HeroType {\n        FIGHTER,\n        ROGUE,\n        MAGE,\n        TANK\n    }\n    enum HeroRarity {\n        COMMON,\n        UNCOMMON,\n        RARE,\n        LEGENDARY\n    }\n\n    struct Hero {\n        string name;\n        HeroType heroType;\n        HeroRarity rarity;\n        uint8 str;\n        uint8 con;\n        uint8 dex;\n        uint8 wis;\n        uint8 level;\n    }\n\n    Hero[] private _heroes;\n\n    string private _baseTokenURI;\n\n    mapping(HeroType => uint8[]) private _mapMint;\n\n    constructor(\n        string memory name,\n        string memory symbol,\n        string memory baseTokenURI\n    ) ERC721(name, symbol) {\n        _baseTokenURI = baseTokenURI;\n\n        _mapMint[HeroType.FIGHTER] = [0, 1, 0, 2, 3, 1];\n        _mapMint[HeroType.ROGUE] = [2, 2, 0, 3, 0, 2];\n        _mapMint[HeroType.MAGE] = [3, 3, 2, 1, 0, 3];\n        _mapMint[HeroType.TANK] = [1, 1, 0, 2, 3, 1];\n    }\n\n    function setBattleAddress(address _newBattleAddress) public onlyOwner {\n        _battleAddress = _newBattleAddress;\n    }\n\n    function getHeroes() external view returns (Hero[] memory) {\n        return _heroes;\n    }\n\n    function getCurrentHeroId() external view returns (uint256) {\n        return _currentHeroId.current();\n    }\n\n    function mint(\n        HeroType _heroType,\n        HeroRarity _heroRarity,\n        string memory _tokenURI\n    ) public onlyOwner {\n        uint256 newHeroId = _currentHeroId.current();\n\n        uint8 minAttr;\n        uint8 maxAttr;\n\n        if (_heroRarity == HeroRarity.COMMON) {\n            minAttr = 4;\n            maxAttr = 6;\n        } else if (_heroRarity == HeroRarity.UNCOMMON) {\n            minAttr = 7;\n            maxAttr = 8;\n        } else if (_heroRarity == HeroRarity.RARE) {\n            minAttr = 9;\n            maxAttr = 10;\n        } else {\n            minAttr = 11;\n            maxAttr = 12;\n        }\n\n        uint256 attrsSize = rand(maxAttr - minAttr) + minAttr;\n\n        uint8[] memory attrs = new uint8[](4);\n        attrs[0] = 1;\n        attrs[1] = 1;\n        attrs[2] = 1;\n        attrs[3] = 1;\n        uint8 attrCounter = 0;\n\n        for (uint8 i = 1; i <= attrsSize; i++) {\n            attrs[_mapMint[_heroType][attrCounter]]++;\n            if (attrCounter == 5) {\n                attrCounter = 0;\n            } else {\n                attrCounter++;\n            }\n        }\n\n        _safeMint(msg.sender, newHeroId);\n        _setTokenURI(newHeroId, _tokenURI);\n        _heroes.push(\n            Hero(\n                \"\",\n                _heroType,\n                _heroRarity,\n                attrs[0],\n                attrs[1],\n                attrs[2],\n                attrs[3],\n                1\n            )\n        );\n\n        _currentHeroId.increment();\n    }\n\n    function getHeroesByAddress(address owner)\n        public\n        view\n        returns (uint256[] memory)\n    {\n        uint256 heroCount = balanceOf(owner);\n\n        if (heroCount == 0) {\n            return new uint256[](0);\n        } else {\n            uint256[] memory ret = new uint256[](heroCount);\n            uint256 i;\n            uint256 curIndex = 0;\n\n            for (i = 0; i < _currentHeroId.current(); i++) {\n                if (ownerOf(i) == owner) {\n                    ret[curIndex++] = i;\n                }\n            }\n\n            return ret;\n        }\n    }\n\n    function getMyHeroes() external view returns (uint256[] memory) {\n        return getHeroesByAddress(msg.sender);\n    }\n\n    function getHero(uint256 _heroId) external view returns (Hero memory) {\n        return _heroes[_heroId];\n    }\n\n    \n    function setName(uint256 _heroId, string memory _name) external {\n        require(msg.sender == ownerOf(_heroId), \"Not owner\");\n        Hero storage hero = _heroes[_heroId];\n\n        hero.name = _name;\n    }\n\n    function levelUp(uint256 _heroId) external {\n        require(_battleAddress != address(0), \"Battle contract not defined\");\n        require(msg.sender == _battleAddress, \"Only battle contract can execute\");\n\n        Hero storage hero = _heroes[_heroId];\n\n        hero.level++;\n\n        uint256 random = rand(3);\n\n        if (random == 0) {\n            hero.str++;\n        } else if (random == 1) {\n            hero.con++;\n        } else if (random == 2) {\n            hero.dex++;\n        } else if (random == 3) {\n            hero.wis++;\n        }\n    }\n\n    function rand(uint8 limit) private view returns (uint256) {\n        uint256 seed = uint256(\n            keccak256(\n                abi.encodePacked(\n                    block.timestamp +\n                        block.difficulty +\n                        ((\n                            uint256(keccak256(abi.encodePacked(block.coinbase)))\n                        ) / (block.timestamp)) +\n                        block.gaslimit +\n                        ((uint256(keccak256(abi.encodePacked(msg.sender)))) /\n                            (block.timestamp)) +\n                        block.number\n                )\n            )\n        );\n\n        return (seed - ((seed / (limit + 1)) * (limit + 1)));\n    }\n\n    function tokenURI(uint256 tokenId)\n        public\n        view\n        virtual\n        override\n        returns (string memory)\n    {\n        return string(abi.encodePacked(_baseTokenURI, super.tokenURI(tokenId)));\n    }\n\n}\n",
  "sourcePath": "/home/rfaita/game/nft-game/contract/contracts/GameToken.sol",
  "compiler": {
    "name": "solc",
    "version": "0.8.9+commit.e5eed63a.Emscripten.clang"
  },
  "schemaVersion": "3.4.3",
  "updatedAt": "2021-11-16T13:15:19.554Z",
  "networkType": "ethereum",
  "devdoc": {
    "kind": "dev",
    "methods": {
      "approve(address,uint256)": {
        "details": "See {IERC721-approve}."
      },
      "balanceOf(address)": {
        "details": "See {IERC721-balanceOf}."
      },
      "getApproved(uint256)": {
        "details": "See {IERC721-getApproved}."
      },
      "isApprovedForAll(address,address)": {
        "details": "See {IERC721-isApprovedForAll}."
      },
      "name()": {
        "details": "See {IERC721Metadata-name}."
      },
      "owner()": {
        "details": "Returns the address of the current owner."
      },
      "ownerOf(uint256)": {
        "details": "See {IERC721-ownerOf}."
      },
      "renounceOwnership()": {
        "details": "Leaves the contract without owner. It will not be possible to call `onlyOwner` functions anymore. Can only be called by the current owner. NOTE: Renouncing ownership will leave the contract without an owner, thereby removing any functionality that is only available to the owner."
      },
      "safeTransferFrom(address,address,uint256)": {
        "details": "See {IERC721-safeTransferFrom}."
      },
      "safeTransferFrom(address,address,uint256,bytes)": {
        "details": "See {IERC721-safeTransferFrom}."
      },
      "setApprovalForAll(address,bool)": {
        "details": "See {IERC721-setApprovalForAll}."
      },
      "supportsInterface(bytes4)": {
        "details": "See {IERC165-supportsInterface}."
      },
      "symbol()": {
        "details": "See {IERC721Metadata-symbol}."
      },
      "tokenURI(uint256)": {
        "details": "See {IERC721Metadata-tokenURI}."
      },
      "transferFrom(address,address,uint256)": {
        "details": "See {IERC721-transferFrom}."
      },
      "transferOwnership(address)": {
        "details": "Transfers ownership of the contract to a new account (`newOwner`). Can only be called by the current owner."
      }
    },
    "version": 1
  },
  "userdoc": {
    "kind": "user",
    "methods": {},
    "version": 1
  }
}