{
  "contractName": "GameToken",
  "abi": [
    {
      "inputs": [
        {
          "internalType": "string",
          "name": "name",
          "type": "string"
        },
        {
          "internalType": "string",
          "name": "symbol",
          "type": "string"
        },
        {
          "internalType": "string",
          "name": "baseTokenURI",
          "type": "string"
        }
      ],
      "stateMutability": "nonpayable",
      "type": "constructor"
    },
    {
      "anonymous": false,
      "inputs": [
        {
          "indexed": true,
          "internalType": "address",
          "name": "owner",
          "type": "address"
        },
        {
          "indexed": true,
          "internalType": "address",
          "name": "approved",
          "type": "address"
        },
        {
          "indexed": true,
          "internalType": "uint256",
          "name": "tokenId",
          "type": "uint256"
        }
      ],
      "name": "Approval",
      "type": "event"
    },
    {
      "anonymous": false,
      "inputs": [
        {
          "indexed": true,
          "internalType": "address",
          "name": "owner",
          "type": "address"
        },
        {
          "indexed": true,
          "internalType": "address",
          "name": "operator",
          "type": "address"
        },
        {
          "indexed": false,
          "internalType": "bool",
          "name": "approved",
          "type": "bool"
        }
      ],
      "name": "ApprovalForAll",
      "type": "event"
    },
    {
      "anonymous": false,
      "inputs": [
        {
          "indexed": true,
          "internalType": "address",
          "name": "owner",
          "type": "address"
        },
        {
          "indexed": true,
          "internalType": "uint256",
          "name": "tokenId",
          "type": "uint256"
        },
        {
          "indexed": false,
          "internalType": "uint8",
          "name": "level",
          "type": "uint8"
        },
        {
          "indexed": false,
          "internalType": "uint16",
          "name": "currXP",
          "type": "uint16"
        },
        {
          "indexed": false,
          "internalType": "uint256",
          "name": "attribute",
          "type": "uint256"
        }
      ],
      "name": "HeroLevelUp",
      "type": "event"
    },
    {
      "anonymous": false,
      "inputs": [
        {
          "indexed": true,
          "internalType": "address",
          "name": "previousOwner",
          "type": "address"
        },
        {
          "indexed": true,
          "internalType": "address",
          "name": "newOwner",
          "type": "address"
        }
      ],
      "name": "OwnershipTransferred",
      "type": "event"
    },
    {
      "anonymous": false,
      "inputs": [
        {
          "indexed": true,
          "internalType": "address",
          "name": "from",
          "type": "address"
        },
        {
          "indexed": true,
          "internalType": "address",
          "name": "to",
          "type": "address"
        },
        {
          "indexed": true,
          "internalType": "uint256",
          "name": "tokenId",
          "type": "uint256"
        }
      ],
      "name": "Transfer",
      "type": "event"
    },
    {
      "inputs": [
        {
          "internalType": "address",
          "name": "to",
          "type": "address"
        },
        {
          "internalType": "uint256",
          "name": "tokenId",
          "type": "uint256"
        }
      ],
      "name": "approve",
      "outputs": [],
      "stateMutability": "nonpayable",
      "type": "function"
    },
    {
      "inputs": [
        {
          "internalType": "address",
          "name": "owner",
          "type": "address"
        }
      ],
      "name": "balanceOf",
      "outputs": [
        {
          "internalType": "uint256",
          "name": "",
          "type": "uint256"
        }
      ],
      "stateMutability": "view",
      "type": "function",
      "constant": true
    },
    {
      "inputs": [
        {
          "internalType": "uint256",
          "name": "tokenId",
          "type": "uint256"
        }
      ],
      "name": "getApproved",
      "outputs": [
        {
          "internalType": "address",
          "name": "",
          "type": "address"
        }
      ],
      "stateMutability": "view",
      "type": "function",
      "constant": true
    },
    {
      "inputs": [
        {
          "internalType": "address",
          "name": "owner",
          "type": "address"
        },
        {
          "internalType": "address",
          "name": "operator",
          "type": "address"
        }
      ],
      "name": "isApprovedForAll",
      "outputs": [
        {
          "internalType": "bool",
          "name": "",
          "type": "bool"
        }
      ],
      "stateMutability": "view",
      "type": "function",
      "constant": true
    },
    {
      "inputs": [],
      "name": "name",
      "outputs": [
        {
          "internalType": "string",
          "name": "",
          "type": "string"
        }
      ],
      "stateMutability": "view",
      "type": "function",
      "constant": true
    },
    {
      "inputs": [],
      "name": "owner",
      "outputs": [
        {
          "internalType": "address",
          "name": "",
          "type": "address"
        }
      ],
      "stateMutability": "view",
      "type": "function",
      "constant": true
    },
    {
      "inputs": [
        {
          "internalType": "uint256",
          "name": "tokenId",
          "type": "uint256"
        }
      ],
      "name": "ownerOf",
      "outputs": [
        {
          "internalType": "address",
          "name": "",
          "type": "address"
        }
      ],
      "stateMutability": "view",
      "type": "function",
      "constant": true
    },
    {
      "inputs": [],
      "name": "renounceOwnership",
      "outputs": [],
      "stateMutability": "nonpayable",
      "type": "function"
    },
    {
      "inputs": [
        {
          "internalType": "address",
          "name": "from",
          "type": "address"
        },
        {
          "internalType": "address",
          "name": "to",
          "type": "address"
        },
        {
          "internalType": "uint256",
          "name": "tokenId",
          "type": "uint256"
        }
      ],
      "name": "safeTransferFrom",
      "outputs": [],
      "stateMutability": "nonpayable",
      "type": "function"
    },
    {
      "inputs": [
        {
          "internalType": "address",
          "name": "from",
          "type": "address"
        },
        {
          "internalType": "address",
          "name": "to",
          "type": "address"
        },
        {
          "internalType": "uint256",
          "name": "tokenId",
          "type": "uint256"
        },
        {
          "internalType": "bytes",
          "name": "_data",
          "type": "bytes"
        }
      ],
      "name": "safeTransferFrom",
      "outputs": [],
      "stateMutability": "nonpayable",
      "type": "function"
    },
    {
      "inputs": [
        {
          "internalType": "address",
          "name": "operator",
          "type": "address"
        },
        {
          "internalType": "bool",
          "name": "approved",
          "type": "bool"
        }
      ],
      "name": "setApprovalForAll",
      "outputs": [],
      "stateMutability": "nonpayable",
      "type": "function"
    },
    {
      "inputs": [
        {
          "internalType": "bytes4",
          "name": "interfaceId",
          "type": "bytes4"
        }
      ],
      "name": "supportsInterface",
      "outputs": [
        {
          "internalType": "bool",
          "name": "",
          "type": "bool"
        }
      ],
      "stateMutability": "view",
      "type": "function",
      "constant": true
    },
    {
      "inputs": [],
      "name": "symbol",
      "outputs": [
        {
          "internalType": "string",
          "name": "",
          "type": "string"
        }
      ],
      "stateMutability": "view",
      "type": "function",
      "constant": true
    },
    {
      "inputs": [
        {
          "internalType": "address",
          "name": "from",
          "type": "address"
        },
        {
          "internalType": "address",
          "name": "to",
          "type": "address"
        },
        {
          "internalType": "uint256",
          "name": "tokenId",
          "type": "uint256"
        }
      ],
      "name": "transferFrom",
      "outputs": [],
      "stateMutability": "nonpayable",
      "type": "function"
    },
    {
      "inputs": [
        {
          "internalType": "address",
          "name": "newOwner",
          "type": "address"
        }
      ],
      "name": "transferOwnership",
      "outputs": [],
      "stateMutability": "nonpayable",
      "type": "function"
    },
    {
      "inputs": [],
      "name": "totalSupply",
      "outputs": [
        {
          "internalType": "uint256",
          "name": "",
          "type": "uint256"
        }
      ],
      "stateMutability": "view",
      "type": "function",
      "constant": true
    },
    {
      "inputs": [
        {
          "internalType": "address",
          "name": "newAddress",
          "type": "address"
        }
      ],
      "name": "addLevelUpPermittedAddress",
      "outputs": [],
      "stateMutability": "nonpayable",
      "type": "function"
    },
    {
      "inputs": [
        {
          "internalType": "address",
          "name": "newAddress",
          "type": "address"
        }
      ],
      "name": "removeLevelUpPermittedAddress",
      "outputs": [],
      "stateMutability": "nonpayable",
      "type": "function"
    },
    {
      "inputs": [],
      "name": "getHeroes",
      "outputs": [
        {
          "components": [
            {
              "internalType": "string",
              "name": "name",
              "type": "string"
            },
            {
              "internalType": "enum GameToken.HeroType",
              "name": "heroType",
              "type": "uint8"
            },
            {
              "internalType": "enum GameToken.HeroRarity",
              "name": "rarity",
              "type": "uint8"
            },
            {
              "internalType": "uint8",
              "name": "str",
              "type": "uint8"
            },
            {
              "internalType": "uint8",
              "name": "con",
              "type": "uint8"
            },
            {
              "internalType": "uint8",
              "name": "dex",
              "type": "uint8"
            },
            {
              "internalType": "uint8",
              "name": "wis",
              "type": "uint8"
            },
            {
              "internalType": "uint8",
              "name": "level",
              "type": "uint8"
            },
            {
              "internalType": "uint16",
              "name": "currXP",
              "type": "uint16"
            }
          ],
          "internalType": "struct GameToken.Hero[]",
          "name": "",
          "type": "tuple[]"
        }
      ],
      "stateMutability": "view",
      "type": "function",
      "constant": true
    },
    {
      "inputs": [],
      "name": "getNextHeroId",
      "outputs": [
        {
          "internalType": "uint256",
          "name": "",
          "type": "uint256"
        }
      ],
      "stateMutability": "view",
      "type": "function",
      "constant": true
    },
    {
      "inputs": [
        {
          "internalType": "enum GameToken.HeroType",
          "name": "_heroType",
          "type": "uint8"
        },
        {
          "internalType": "enum GameToken.HeroRarity",
          "name": "_heroRarity",
          "type": "uint8"
        },
        {
          "internalType": "string",
          "name": "_tokenURI",
          "type": "string"
        }
      ],
      "name": "mint",
      "outputs": [],
      "stateMutability": "nonpayable",
      "type": "function"
    },
    {
      "inputs": [
        {
          "internalType": "address",
          "name": "owner",
          "type": "address"
        }
      ],
      "name": "getHeroesByAddress",
      "outputs": [
        {
          "internalType": "uint256[]",
          "name": "",
          "type": "uint256[]"
        }
      ],
      "stateMutability": "view",
      "type": "function",
      "constant": true
    },
    {
      "inputs": [],
      "name": "getMyHeroes",
      "outputs": [
        {
          "internalType": "uint256[]",
          "name": "",
          "type": "uint256[]"
        }
      ],
      "stateMutability": "view",
      "type": "function",
      "constant": true
    },
    {
      "inputs": [
        {
          "internalType": "uint256",
          "name": "_heroId",
          "type": "uint256"
        }
      ],
      "name": "getHero",
      "outputs": [
        {
          "components": [
            {
              "internalType": "string",
              "name": "name",
              "type": "string"
            },
            {
              "internalType": "enum GameToken.HeroType",
              "name": "heroType",
              "type": "uint8"
            },
            {
              "internalType": "enum GameToken.HeroRarity",
              "name": "rarity",
              "type": "uint8"
            },
            {
              "internalType": "uint8",
              "name": "str",
              "type": "uint8"
            },
            {
              "internalType": "uint8",
              "name": "con",
              "type": "uint8"
            },
            {
              "internalType": "uint8",
              "name": "dex",
              "type": "uint8"
            },
            {
              "internalType": "uint8",
              "name": "wis",
              "type": "uint8"
            },
            {
              "internalType": "uint8",
              "name": "level",
              "type": "uint8"
            },
            {
              "internalType": "uint16",
              "name": "currXP",
              "type": "uint16"
            }
          ],
          "internalType": "struct GameToken.Hero",
          "name": "",
          "type": "tuple"
        }
      ],
      "stateMutability": "view",
      "type": "function",
      "constant": true
    },
    {
      "inputs": [
        {
          "internalType": "uint256",
          "name": "_heroId",
          "type": "uint256"
        }
      ],
      "name": "getHeroComplete",
      "outputs": [
        {
          "components": [
            {
              "internalType": "string",
              "name": "name",
              "type": "string"
            },
            {
              "internalType": "enum GameToken.HeroType",
              "name": "heroType",
              "type": "uint8"
            },
            {
              "internalType": "enum GameToken.HeroRarity",
              "name": "rarity",
              "type": "uint8"
            },
            {
              "internalType": "uint8",
              "name": "str",
              "type": "uint8"
            },
            {
              "internalType": "uint8",
              "name": "con",
              "type": "uint8"
            },
            {
              "internalType": "uint8",
              "name": "dex",
              "type": "uint8"
            },
            {
              "internalType": "uint8",
              "name": "wis",
              "type": "uint8"
            },
            {
              "internalType": "uint8",
              "name": "level",
              "type": "uint8"
            },
            {
              "internalType": "uint16",
              "name": "currXP",
              "type": "uint16"
            },
            {
              "internalType": "address",
              "name": "owner",
              "type": "address"
            },
            {
              "internalType": "string",
              "name": "tokenURI",
              "type": "string"
            }
          ],
          "internalType": "struct GameToken.HeroDTO",
          "name": "",
          "type": "tuple"
        }
      ],
      "stateMutability": "view",
      "type": "function",
      "constant": true
    },
    {
      "inputs": [
        {
          "internalType": "uint256",
          "name": "_heroId",
          "type": "uint256"
        },
        {
          "internalType": "string",
          "name": "_name",
          "type": "string"
        }
      ],
      "name": "setName",
      "outputs": [],
      "stateMutability": "nonpayable",
      "type": "function"
    },
    {
      "inputs": [
        {
          "internalType": "uint256",
          "name": "_heroId",
          "type": "uint256"
        },
        {
          "internalType": "uint16",
          "name": "_xp",
          "type": "uint16"
        }
      ],
      "name": "levelUp",
      "outputs": [],
      "stateMutability": "nonpayable",
      "type": "function"
    },
    {
      "inputs": [
        {
          "internalType": "uint256",
          "name": "tokenId",
          "type": "uint256"
        }
      ],
      "name": "tokenURI",
      "outputs": [
        {
          "internalType": "string",
          "name": "",
          "type": "string"
        }
      ],
      "stateMutability": "view",
      "type": "function",
      "constant": true
    }
  ],
  "bytecode": "0x60806040523480156200001157600080fd5b5060405162005ceb38038062005ceb8339818101604052810190620000379190620006c6565b8282816000908051906020019062000051929190620003cb565b5080600190805190602001906200006a929190620003cb565b5050506200008d62000081620002fd60201b60201c565b6200030560201b60201c565b80600b9080519060200190620000a5929190620003cb565b506040518060c00160405280600060ff168152602001600160ff168152602001600060ff168152602001600260ff168152602001600360ff168152602001600160ff16815250600c60008060038111156200010557620001046200077f565b5b60038111156200011a57620001196200077f565b5b8152602001908152602001600020906006620001389291906200045c565b506040518060c00160405280600260ff168152602001600260ff168152602001600060ff168152602001600360ff168152602001600060ff168152602001600260ff16815250600c6000600160038111156200019957620001986200077f565b5b6003811115620001ae57620001ad6200077f565b5b8152602001908152602001600020906006620001cc9291906200045c565b506040518060c00160405280600360ff168152602001600360ff168152602001600260ff168152602001600160ff168152602001600060ff168152602001600360ff16815250600c6000600260038111156200022d576200022c6200077f565b5b60038111156200024257620002416200077f565b5b8152602001908152602001600020906006620002609291906200045c565b506040518060c00160405280600160ff168152602001600160ff168152602001600060ff168152602001600260ff168152602001600360ff168152602001600160ff16815250600c6000600380811115620002c057620002bf6200077f565b5b6003811115620002d557620002d46200077f565b5b8152602001908152602001600020906006620002f39291906200045c565b5050505062000813565b600033905090565b6000600760009054906101000a900473ffffffffffffffffffffffffffffffffffffffff16905081600760006101000a81548173ffffffffffffffffffffffffffffffffffffffff021916908373ffffffffffffffffffffffffffffffffffffffff1602179055508173ffffffffffffffffffffffffffffffffffffffff168173ffffffffffffffffffffffffffffffffffffffff167f8be0079c531659141344cd1fd0a4f28419497f9722a3daafe3b4186f6b6457e060405160405180910390a35050565b828054620003d990620007dd565b90600052602060002090601f016020900481019282620003fd576000855562000449565b82601f106200041857805160ff191683800117855562000449565b8280016001018555821562000449579182015b82811115620004485782518255916020019190600101906200042b565b5b5090506200045891906200050a565b5090565b82805482825590600052602060002090601f01602090048101928215620004f75791602002820160005b83821115620004c657835183826101000a81548160ff021916908360ff160217905550926020019260010160208160000104928301926001030262000486565b8015620004f55782816101000a81549060ff0219169055600101602081600001049283019260010302620004c6565b505b5090506200050691906200050a565b5090565b5b80821115620005255760008160009055506001016200050b565b5090565b6000604051905090565b600080fd5b600080fd5b600080fd5b600080fd5b6000601f19601f8301169050919050565b7f4e487b7100000000000000000000000000000000000000000000000000000000600052604160045260246000fd5b620005928262000547565b810181811067ffffffffffffffff82111715620005b457620005b362000558565b5b80604052505050565b6000620005c962000529565b9050620005d7828262000587565b919050565b600067ffffffffffffffff821115620005fa57620005f962000558565b5b620006058262000547565b9050602081019050919050565b60005b838110156200063257808201518184015260208101905062000615565b8381111562000642576000848401525b50505050565b60006200065f6200065984620005dc565b620005bd565b9050828152602081018484840111156200067e576200067d62000542565b5b6200068b84828562000612565b509392505050565b600082601f830112620006ab57620006aa6200053d565b5b8151620006bd84826020860162000648565b91505092915050565b600080600060608486031215620006e257620006e162000533565b5b600084015167ffffffffffffffff81111562000703576200070262000538565b5b620007118682870162000693565b935050602084015167ffffffffffffffff81111562000735576200073462000538565b5b620007438682870162000693565b925050604084015167ffffffffffffffff81111562000767576200076662000538565b5b620007758682870162000693565b9150509250925092565b7f4e487b7100000000000000000000000000000000000000000000000000000000600052602160045260246000fd5b7f4e487b7100000000000000000000000000000000000000000000000000000000600052602260045260246000fd5b60006002820490506001821680620007f657607f821691505b602082108114156200080d576200080c620007ae565b5b50919050565b6154c880620008236000396000f3fe608060405234801561001057600080fd5b50600436106101c35760003560e01c806370a08231116100f9578063a22cb46511610097578063c87b56dd11610071578063c87b56dd146104f0578063e985e9c514610520578063f2fde38b14610550578063fe55932a1461056c576101c3565b8063a22cb4651461049c578063a8b24250146104b8578063b88d4fde146104d4576101c3565b80638302adfb116100d35780638302adfb146104245780638da5cb5b1461044257806395d89b41146104605780639a8d28821461047e576101c3565b806370a08231146103cc578063715018a6146103fc578063806f528314610406576101c3565b806321d801111161016657806347289961116101405780634728996114610334578063484a203214610350578063503f30ac1461036c5780636352211e1461039c576101c3565b806321d80111146102cc57806323b872dd146102fc57806342842e0e14610318576101c3565b8063081812fc116101a2578063081812fc14610246578063095ea7b31461027657806310d44ae01461029257806318160ddd146102ae576101c3565b80625597e3146101c857806301ffc9a7146101f857806306fdde0314610228575b600080fd5b6101e260048036038101906101dd919061348f565b610588565b6040516101ef9190613584565b60405180910390f35b610212600480360381019061020d91906135fe565b6106e5565b60405161021f9190613646565b60405180910390f35b6102306107c7565b60405161023d91906136fa565b60405180910390f35b610260600480360381019061025b9190613748565b610859565b60405161026d9190613784565b60405180910390f35b610290600480360381019061028b919061379f565b6108de565b005b6102ac60048036038101906102a7919061395e565b6109f6565b005b6102b6610fd2565b6040516102c391906139dc565b60405180910390f35b6102e660048036038101906102e19190613748565b610fdf565b6040516102f39190613bfe565b60405180910390f35b61031660048036038101906103119190613c20565b6111d5565b005b610332600480360381019061032d9190613c20565b611235565b005b61034e6004803603810190610349919061348f565b611255565b005b61036a60048036038101906103659190613c9f565b61132c565b005b61038660048036038101906103819190613748565b61166c565b6040516103939190613de4565b60405180910390f35b6103b660048036038101906103b19190613748565b611935565b6040516103c39190613784565b60405180910390f35b6103e660048036038101906103e1919061348f565b6119e7565b6040516103f391906139dc565b60405180910390f35b610404611a9f565b005b61040e611b27565b60405161041b9190613584565b60405180910390f35b61042c611b37565b60405161043991906139dc565b60405180910390f35b61044a611b48565b6040516104579190613784565b60405180910390f35b610468611b72565b60405161047591906136fa565b60405180910390f35b610486611c04565b6040516104939190613f8d565b60405180910390f35b6104b660048036038101906104b19190613fdb565b611e1d565b005b6104d260048036038101906104cd919061348f565b611f9e565b005b6104ee60048036038101906104e991906140bc565b61206c565b005b61050a60048036038101906105059190613748565b6120ce565b60405161051791906136fa565b60405180910390f35b61053a6004803603810190610535919061413f565b612102565b6040516105479190613646565b60405180910390f35b61056a6004803603810190610565919061348f565b612196565b005b6105866004803603810190610581919061417f565b61228e565b005b60606000610595836119e7565b905060008114156105f257600067ffffffffffffffff8111156105bb576105ba613833565b5b6040519080825280602002602001820160405280156105e95781602001602082028036833780820191505090505b509150506106e0565b60008167ffffffffffffffff81111561060e5761060d613833565b5b60405190808252806020026020018201604052801561063c5781602001602082028036833780820191505090505b50905060008060009050600091505b6106556008612348565b8210156106d8578573ffffffffffffffffffffffffffffffffffffffff1661067c83611935565b73ffffffffffffffffffffffffffffffffffffffff1614156106c557818382806106a59061420a565b9350815181106106b8576106b7614253565b5b6020026020010181815250505b81806106d09061420a565b92505061064b565b829450505050505b919050565b60007f80ac58cd000000000000000000000000000000000000000000000000000000007bffffffffffffffffffffffffffffffffffffffffffffffffffffffff1916827bffffffffffffffffffffffffffffffffffffffffffffffffffffffff191614806107b057507f5b5e139f000000000000000000000000000000000000000000000000000000007bffffffffffffffffffffffffffffffffffffffffffffffffffffffff1916827bffffffffffffffffffffffffffffffffffffffffffffffffffffffff1916145b806107c057506107bf82612356565b5b9050919050565b6060600080546107d6906142b1565b80601f0160208091040260200160405190810160405280929190818152602001828054610802906142b1565b801561084f5780601f106108245761010080835404028352916020019161084f565b820191906000526020600020905b81548152906001019060200180831161083257829003601f168201915b5050505050905090565b6000610864826123c0565b6108a3576040517f08c379a000000000000000000000000000000000000000000000000000000000815260040161089a90614355565b60405180910390fd5b6004600083815260200190815260200160002060009054906101000a900473ffffffffffffffffffffffffffffffffffffffff169050919050565b60006108e982611935565b90508073ffffffffffffffffffffffffffffffffffffffff168373ffffffffffffffffffffffffffffffffffffffff16141561095a576040517f08c379a0000000000000000000000000000000000000000000000000000000008152600401610951906143e7565b60405180910390fd5b8073ffffffffffffffffffffffffffffffffffffffff1661097961242c565b73ffffffffffffffffffffffffffffffffffffffff1614806109a857506109a7816109a261242c565b612102565b5b6109e7576040517f08c379a00000000000000000000000000000000000000000000000000000000081526004016109de90614479565b60405180910390fd5b6109f18383612434565b505050565b6109fe61242c565b73ffffffffffffffffffffffffffffffffffffffff16610a1c611b48565b73ffffffffffffffffffffffffffffffffffffffff1614610a72576040517f08c379a0000000000000000000000000000000000000000000000000000000008152600401610a69906144e5565b60405180910390fd5b6000610a7e6008612348565b9050610a8a33826124ed565b610a94600861250b565b60008060006003811115610aab57610aaa613a41565b5b856003811115610abe57610abd613a41565b5b1415610ad1576004915060069050610b50565b60016003811115610ae557610ae4613a41565b5b856003811115610af857610af7613a41565b5b1415610b0b576007915060089050610b4f565b60026003811115610b1f57610b1e613a41565b5b856003811115610b3257610b31613a41565b5b1415610b455760099150600a9050610b4e565b600b9150600c90505b5b5b60008260ff16610b6a8484610b659190614505565b612521565b610b749190614539565b90506000600467ffffffffffffffff811115610b9357610b92613833565b5b604051908082528060200260200182016040528015610bc15781602001602082028036833780820191505090505b509050600181600081518110610bda57610bd9614253565b5b602002602001019060ff16908160ff1681525050600181600181518110610c0457610c03614253565b5b602002602001019060ff16908160ff1681525050600181600281518110610c2e57610c2d614253565b5b602002602001019060ff16908160ff1681525050600181600381518110610c5857610c57614253565b5b602002602001019060ff16908160ff1681525050600080600190505b838160ff1611610d555782600c60008c6003811115610c9657610c95613a41565b5b6003811115610ca857610ca7613a41565b5b81526020019081526020016000208360ff1681548110610ccb57610cca614253565b5b90600052602060002090602091828204019190069054906101000a900460ff1660ff1681518110610cff57610cfe614253565b5b602002602001018051809190610d149061458f565b60ff1660ff168152505060058260ff161415610d335760009150610d42565b8180610d3e9061458f565b9250505b8080610d4d9061458f565b915050610c74565b50610d608688612637565b600a6040518061012001604052806040518060200160405280600081525081526020018b6003811115610d9657610d95613a41565b5b81526020018a6003811115610dae57610dad613a41565b5b815260200184600081518110610dc757610dc6614253565b5b602002602001015160ff16815260200184600181518110610deb57610dea614253565b5b602002602001015160ff16815260200184600281518110610e0f57610e0e614253565b5b602002602001015160ff16815260200184600381518110610e3357610e32614253565b5b602002602001015160ff168152602001600160ff168152602001600061ffff1681525090806001815401808255809150506001900390600052602060002090600202016000909190919091506000820151816000019080519060200190610e9b929190613250565b5060208201518160010160006101000a81548160ff02191690836003811115610ec757610ec6613a41565b5b021790555060408201518160010160016101000a81548160ff02191690836003811115610ef757610ef6613a41565b5b021790555060608201518160010160026101000a81548160ff021916908360ff16021790555060808201518160010160036101000a81548160ff021916908360ff16021790555060a08201518160010160046101000a81548160ff021916908360ff16021790555060c08201518160010160056101000a81548160ff021916908360ff16021790555060e08201518160010160066101000a81548160ff021916908360ff1602179055506101008201518160010160076101000a81548161ffff021916908361ffff1602179055505050505050505050505050565b6000600a80549050905090565b610fe76132d6565b600a8281548110610ffb57610ffa614253565b5b906000526020600020906002020160405180610120016040529081600082018054611025906142b1565b80601f0160208091040260200160405190810160405280929190818152602001828054611051906142b1565b801561109e5780601f106110735761010080835404028352916020019161109e565b820191906000526020600020905b81548152906001019060200180831161108157829003601f168201915b505050505081526020016001820160009054906101000a900460ff1660038111156110cc576110cb613a41565b5b60038111156110de576110dd613a41565b5b81526020016001820160019054906101000a900460ff16600381111561110757611106613a41565b5b600381111561111957611118613a41565b5b81526020016001820160029054906101000a900460ff1660ff1660ff1681526020016001820160039054906101000a900460ff1660ff1660ff1681526020016001820160049054906101000a900460ff1660ff1660ff1681526020016001820160059054906101000a900460ff1660ff1660ff1681526020016001820160069054906101000a900460ff1660ff1660ff1681526020016001820160079054906101000a900461ffff1661ffff1661ffff16815250509050919050565b6111e66111e061242c565b826126ab565b611225576040517f08c379a000000000000000000000000000000000000000000000000000000000815260040161121c9061462b565b60405180910390fd5b611230838383612789565b505050565b6112508383836040518060200160405280600081525061206c565b505050565b61125d61242c565b73ffffffffffffffffffffffffffffffffffffffff1661127b611b48565b73ffffffffffffffffffffffffffffffffffffffff16146112d1576040517f08c379a00000000000000000000000000000000000000000000000000000000081526004016112c8906144e5565b60405180910390fd5b6001600960008373ffffffffffffffffffffffffffffffffffffffff1673ffffffffffffffffffffffffffffffffffffffff16815260200190815260200160002060006101000a81548160ff02191690831515021790555050565b6009600061133861242c565b73ffffffffffffffffffffffffffffffffffffffff1673ffffffffffffffffffffffffffffffffffffffff16815260200190815260200160002060009054906101000a900460ff166113bf576040517f08c379a00000000000000000000000000000000000000000000000000000000081526004016113b6906146bd565b60405180910390fd5b6000600a83815481106113d5576113d4614253565b5b90600052602060002090600202019050818160010160078282829054906101000a900461ffff1661140691906146dd565b92506101000a81548161ffff021916908361ffff160217905550600061142b84611935565b905060008260010160069054906101000a900460ff16600261144d9190614848565b8360010160079054906101000a900461ffff1661ffff16106115ef5782600101600681819054906101000a900460ff168092919061148a9061458f565b91906101000a81548160ff021916908360ff1602179055505060008360010160076101000a81548161ffff021916908361ffff1602179055506114cd6003612521565b905060008114156115175782600101600281819054906101000a900460ff16809291906114f99061458f565b91906101000a81548160ff021916908360ff160217905550506115ee565b600181141561155f5782600101600381819054906101000a900460ff16809291906115419061458f565b91906101000a81548160ff021916908360ff160217905550506115ed565b60028114156115a75782600101600481819054906101000a900460ff16809291906115899061458f565b91906101000a81548160ff021916908360ff160217905550506115ec565b60038114156115eb5782600101600581819054906101000a900460ff16809291906115d19061458f565b91906101000a81548160ff021916908360ff160217905550505b5b5b5b5b848273ffffffffffffffffffffffffffffffffffffffff167f7eb23c81fc2bbe298f46004d15584744c37b2c48e9f4f934d79f9439161e4b598560010160069054906101000a900460ff168660010160079054906101000a900461ffff168560405161165d939291906148b1565b60405180910390a35050505050565b611674613359565b6000600a838154811061168a57611689614253565b5b9060005260206000209060020201604051806101200160405290816000820180546116b4906142b1565b80601f01602080910402602001604051908101604052809291908181526020018280546116e0906142b1565b801561172d5780601f106117025761010080835404028352916020019161172d565b820191906000526020600020905b81548152906001019060200180831161171057829003601f168201915b505050505081526020016001820160009054906101000a900460ff16600381111561175b5761175a613a41565b5b600381111561176d5761176c613a41565b5b81526020016001820160019054906101000a900460ff16600381111561179657611795613a41565b5b60038111156117a8576117a7613a41565b5b81526020016001820160029054906101000a900460ff1660ff1660ff1681526020016001820160039054906101000a900460ff1660ff1660ff1681526020016001820160049054906101000a900460ff1660ff1660ff1681526020016001820160059054906101000a900460ff1660ff1660ff1681526020016001820160069054906101000a900460ff1660ff1660ff1681526020016001820160079054906101000a900461ffff1661ffff1661ffff16815250509050604051806101600160405280826000015181526020018260200151600381111561188c5761188b613a41565b5b8152602001826040015160038111156118a8576118a7613a41565b5b8152602001826060015160ff168152602001826080015160ff1681526020018260a0015160ff1681526020018260c0015160ff1681526020018260e0015160ff16815260200182610100015161ffff16815260200161190685611935565b73ffffffffffffffffffffffffffffffffffffffff16815260200161192a856120ce565b815250915050919050565b6000806002600084815260200190815260200160002060009054906101000a900473ffffffffffffffffffffffffffffffffffffffff169050600073ffffffffffffffffffffffffffffffffffffffff168173ffffffffffffffffffffffffffffffffffffffff1614156119de576040517f08c379a00000000000000000000000000000000000000000000000000000000081526004016119d59061495a565b60405180910390fd5b80915050919050565b60008073ffffffffffffffffffffffffffffffffffffffff168273ffffffffffffffffffffffffffffffffffffffff161415611a58576040517f08c379a0000000000000000000000000000000000000000000000000000000008152600401611a4f906149ec565b60405180910390fd5b600360008373ffffffffffffffffffffffffffffffffffffffff1673ffffffffffffffffffffffffffffffffffffffff168152602001908152602001600020549050919050565b611aa761242c565b73ffffffffffffffffffffffffffffffffffffffff16611ac5611b48565b73ffffffffffffffffffffffffffffffffffffffff1614611b1b576040517f08c379a0000000000000000000000000000000000000000000000000000000008152600401611b12906144e5565b60405180910390fd5b611b2560006129e5565b565b6060611b3233610588565b905090565b6000611b436008612348565b905090565b6000600760009054906101000a900473ffffffffffffffffffffffffffffffffffffffff16905090565b606060018054611b81906142b1565b80601f0160208091040260200160405190810160405280929190818152602001828054611bad906142b1565b8015611bfa5780601f10611bcf57610100808354040283529160200191611bfa565b820191906000526020600020905b815481529060010190602001808311611bdd57829003601f168201915b5050505050905090565b6060600a805480602002602001604051908101604052809291908181526020016000905b82821015611e14578382906000526020600020906002020160405180610120016040529081600082018054611c5c906142b1565b80601f0160208091040260200160405190810160405280929190818152602001828054611c88906142b1565b8015611cd55780601f10611caa57610100808354040283529160200191611cd5565b820191906000526020600020905b815481529060010190602001808311611cb857829003601f168201915b505050505081526020016001820160009054906101000a900460ff166003811115611d0357611d02613a41565b5b6003811115611d1557611d14613a41565b5b81526020016001820160019054906101000a900460ff166003811115611d3e57611d3d613a41565b5b6003811115611d5057611d4f613a41565b5b81526020016001820160029054906101000a900460ff1660ff1660ff1681526020016001820160039054906101000a900460ff1660ff1660ff1681526020016001820160049054906101000a900460ff1660ff1660ff1681526020016001820160059054906101000a900460ff1660ff1660ff1681526020016001820160069054906101000a900460ff1660ff1660ff1681526020016001820160079054906101000a900461ffff1661ffff1661ffff168152505081526020019060010190611c28565b50505050905090565b611e2561242c565b73ffffffffffffffffffffffffffffffffffffffff168273ffffffffffffffffffffffffffffffffffffffff161415611e93576040517f08c379a0000000000000000000000000000000000000000000000000000000008152600401611e8a90614a58565b60405180910390fd5b8060056000611ea061242c565b73ffffffffffffffffffffffffffffffffffffffff1673ffffffffffffffffffffffffffffffffffffffff16815260200190815260200160002060008473ffffffffffffffffffffffffffffffffffffffff1673ffffffffffffffffffffffffffffffffffffffff16815260200190815260200160002060006101000a81548160ff0219169083151502179055508173ffffffffffffffffffffffffffffffffffffffff16611f4d61242c565b73ffffffffffffffffffffffffffffffffffffffff167f17307eab39ab6107e8899845ad3d59bd9653f200f220920489ca2b5937696c3183604051611f929190613646565b60405180910390a35050565b611fa661242c565b73ffffffffffffffffffffffffffffffffffffffff16611fc4611b48565b73ffffffffffffffffffffffffffffffffffffffff161461201a576040517f08c379a0000000000000000000000000000000000000000000000000000000008152600401612011906144e5565b60405180910390fd5b600960008273ffffffffffffffffffffffffffffffffffffffff1673ffffffffffffffffffffffffffffffffffffffff16815260200190815260200160002060006101000a81549060ff021916905550565b61207d61207761242c565b836126ab565b6120bc576040517f08c379a00000000000000000000000000000000000000000000000000000000081526004016120b39061462b565b60405180910390fd5b6120c884848484612aab565b50505050565b6060600b6120db83612b07565b6040516020016120ec929190614b48565b6040516020818303038152906040529050919050565b6000600560008473ffffffffffffffffffffffffffffffffffffffff1673ffffffffffffffffffffffffffffffffffffffff16815260200190815260200160002060008373ffffffffffffffffffffffffffffffffffffffff1673ffffffffffffffffffffffffffffffffffffffff16815260200190815260200160002060009054906101000a900460ff16905092915050565b61219e61242c565b73ffffffffffffffffffffffffffffffffffffffff166121bc611b48565b73ffffffffffffffffffffffffffffffffffffffff1614612212576040517f08c379a0000000000000000000000000000000000000000000000000000000008152600401612209906144e5565b60405180910390fd5b600073ffffffffffffffffffffffffffffffffffffffff168173ffffffffffffffffffffffffffffffffffffffff161415612282576040517f08c379a000000000000000000000000000000000000000000000000000000000815260040161227990614bde565b60405180910390fd5b61228b816129e5565b50565b61229782611935565b73ffffffffffffffffffffffffffffffffffffffff163373ffffffffffffffffffffffffffffffffffffffff1614612304576040517f08c379a00000000000000000000000000000000000000000000000000000000081526004016122fb90614c4a565b60405180910390fd5b6000600a838154811061231a57612319614253565b5b9060005260206000209060020201905081816000019080519060200190612342929190613250565b50505050565b600081600001549050919050565b60007f01ffc9a7000000000000000000000000000000000000000000000000000000007bffffffffffffffffffffffffffffffffffffffffffffffffffffffff1916827bffffffffffffffffffffffffffffffffffffffffffffffffffffffff1916149050919050565b60008073ffffffffffffffffffffffffffffffffffffffff166002600084815260200190815260200160002060009054906101000a900473ffffffffffffffffffffffffffffffffffffffff1673ffffffffffffffffffffffffffffffffffffffff1614159050919050565b600033905090565b816004600083815260200190815260200160002060006101000a81548173ffffffffffffffffffffffffffffffffffffffff021916908373ffffffffffffffffffffffffffffffffffffffff160217905550808273ffffffffffffffffffffffffffffffffffffffff166124a783611935565b73ffffffffffffffffffffffffffffffffffffffff167f8c5be1e5ebec7d5bd14f71427d1e84f3dd0314c0f7b2291e5b200ac8c7c3b92560405160405180910390a45050565b612507828260405180602001604052806000815250612c59565b5050565b6001816000016000828254019250508190555050565b6000804342336040516020016125379190614cb2565b6040516020818303038152906040528051906020012060001c61255a9190614cfc565b45424160405160200161256d9190614d68565b6040516020818303038152906040528051906020012060001c6125909190614cfc565b444261259c9190614539565b6125a69190614539565b6125b09190614539565b6125ba9190614539565b6125c49190614539565b6040516020016125d49190614da4565b6040516020818303038152906040528051906020012060001c90506001836125fc9190614dbf565b60ff1660018461260c9190614dbf565b60ff168261261a9190614cfc565b6126249190614df6565b8161262f9190614e50565b915050919050565b612640826123c0565b61267f576040517f08c379a000000000000000000000000000000000000000000000000000000000815260040161267690614ef6565b60405180910390fd5b806006600084815260200190815260200160002090805190602001906126a6929190613250565b505050565b60006126b6826123c0565b6126f5576040517f08c379a00000000000000000000000000000000000000000000000000000000081526004016126ec90614f88565b60405180910390fd5b600061270083611935565b90508073ffffffffffffffffffffffffffffffffffffffff168473ffffffffffffffffffffffffffffffffffffffff16148061276f57508373ffffffffffffffffffffffffffffffffffffffff1661275784610859565b73ffffffffffffffffffffffffffffffffffffffff16145b80612780575061277f8185612102565b5b91505092915050565b8273ffffffffffffffffffffffffffffffffffffffff166127a982611935565b73ffffffffffffffffffffffffffffffffffffffff16146127ff576040517f08c379a00000000000000000000000000000000000000000000000000000000081526004016127f69061501a565b60405180910390fd5b600073ffffffffffffffffffffffffffffffffffffffff168273ffffffffffffffffffffffffffffffffffffffff16141561286f576040517f08c379a0000000000000000000000000000000000000000000000000000000008152600401612866906150ac565b60405180910390fd5b61287a838383612cb4565b612885600082612434565b6001600360008573ffffffffffffffffffffffffffffffffffffffff1673ffffffffffffffffffffffffffffffffffffffff16815260200190815260200160002060008282546128d59190614e50565b925050819055506001600360008473ffffffffffffffffffffffffffffffffffffffff1673ffffffffffffffffffffffffffffffffffffffff168152602001908152602001600020600082825461292c9190614539565b92505081905550816002600083815260200190815260200160002060006101000a81548173ffffffffffffffffffffffffffffffffffffffff021916908373ffffffffffffffffffffffffffffffffffffffff160217905550808273ffffffffffffffffffffffffffffffffffffffff168473ffffffffffffffffffffffffffffffffffffffff167fddf252ad1be2c89b69c2b068fc378daa952ba7f163c4a11628f55a4df523b3ef60405160405180910390a4505050565b6000600760009054906101000a900473ffffffffffffffffffffffffffffffffffffffff16905081600760006101000a81548173ffffffffffffffffffffffffffffffffffffffff021916908373ffffffffffffffffffffffffffffffffffffffff1602179055508173ffffffffffffffffffffffffffffffffffffffff168173ffffffffffffffffffffffffffffffffffffffff167f8be0079c531659141344cd1fd0a4f28419497f9722a3daafe3b4186f6b6457e060405160405180910390a35050565b612ab6848484612789565b612ac284848484612cb9565b612b01576040517f08c379a0000000000000000000000000000000000000000000000000000000008152600401612af89061513e565b60405180910390fd5b50505050565b6060612b12826123c0565b612b51576040517f08c379a0000000000000000000000000000000000000000000000000000000008152600401612b48906151d0565b60405180910390fd5b6000600660008481526020019081526020016000208054612b71906142b1565b80601f0160208091040260200160405190810160405280929190818152602001828054612b9d906142b1565b8015612bea5780601f10612bbf57610100808354040283529160200191612bea565b820191906000526020600020905b815481529060010190602001808311612bcd57829003601f168201915b505050505090506000612bfb612e50565b9050600081511415612c11578192505050612c54565b600082511115612c46578082604051602001612c2e9291906151f0565b60405160208183030381529060405292505050612c54565b612c4f84612e67565b925050505b919050565b612c638383612f0e565b612c706000848484612cb9565b612caf576040517f08c379a0000000000000000000000000000000000000000000000000000000008152600401612ca69061513e565b60405180910390fd5b505050565b505050565b6000612cda8473ffffffffffffffffffffffffffffffffffffffff166130dc565b15612e43578373ffffffffffffffffffffffffffffffffffffffff1663150b7a02612d0361242c565b8786866040518563ffffffff1660e01b8152600401612d259493929190615269565b602060405180830381600087803b158015612d3f57600080fd5b505af1925050508015612d7057506040513d601f19601f82011682018060405250810190612d6d91906152ca565b60015b612df3573d8060008114612da0576040519150601f19603f3d011682016040523d82523d6000602084013e612da5565b606091505b50600081511415612deb576040517f08c379a0000000000000000000000000000000000000000000000000000000008152600401612de29061513e565b60405180910390fd5b805181602001fd5b63150b7a0260e01b7bffffffffffffffffffffffffffffffffffffffffffffffffffffffff1916817bffffffffffffffffffffffffffffffffffffffffffffffffffffffff191614915050612e48565b600190505b949350505050565b606060405180602001604052806000815250905090565b6060612e72826123c0565b612eb1576040517f08c379a0000000000000000000000000000000000000000000000000000000008152600401612ea890615369565b60405180910390fd5b6000612ebb612e50565b90506000815111612edb5760405180602001604052806000815250612f06565b80612ee5846130ef565b604051602001612ef69291906151f0565b6040516020818303038152906040525b915050919050565b600073ffffffffffffffffffffffffffffffffffffffff168273ffffffffffffffffffffffffffffffffffffffff161415612f7e576040517f08c379a0000000000000000000000000000000000000000000000000000000008152600401612f75906153d5565b60405180910390fd5b612f87816123c0565b15612fc7576040517f08c379a0000000000000000000000000000000000000000000000000000000008152600401612fbe90615441565b60405180910390fd5b612fd360008383612cb4565b6001600360008473ffffffffffffffffffffffffffffffffffffffff1673ffffffffffffffffffffffffffffffffffffffff16815260200190815260200160002060008282546130239190614539565b92505081905550816002600083815260200190815260200160002060006101000a81548173ffffffffffffffffffffffffffffffffffffffff021916908373ffffffffffffffffffffffffffffffffffffffff160217905550808273ffffffffffffffffffffffffffffffffffffffff16600073ffffffffffffffffffffffffffffffffffffffff167fddf252ad1be2c89b69c2b068fc378daa952ba7f163c4a11628f55a4df523b3ef60405160405180910390a45050565b600080823b905060008111915050919050565b60606000821415613137576040518060400160405280600181526020017f3000000000000000000000000000000000000000000000000000000000000000815250905061324b565b600082905060005b600082146131695780806131529061420a565b915050600a826131629190614cfc565b915061313f565b60008167ffffffffffffffff81111561318557613184613833565b5b6040519080825280601f01601f1916602001820160405280156131b75781602001600182028036833780820191505090505b5090505b60008514613244576001826131d09190614e50565b9150600a856131df9190615461565b60306131eb9190614539565b60f81b81838151811061320157613200614253565b5b60200101907effffffffffffffffffffffffffffffffffffffffffffffffffffffffffffff1916908160001a905350600a8561323d9190614cfc565b94506131bb565b8093505050505b919050565b82805461325c906142b1565b90600052602060002090601f01602090048101928261327e57600085556132c5565b82601f1061329757805160ff19168380011785556132c5565b828001600101855582156132c5579182015b828111156132c45782518255916020019190600101906132a9565b5b5090506132d29190613400565b5090565b60405180610120016040528060608152602001600060038111156132fd576132fc613a41565b5b81526020016000600381111561331657613315613a41565b5b8152602001600060ff168152602001600060ff168152602001600060ff168152602001600060ff168152602001600060ff168152602001600061ffff1681525090565b60405180610160016040528060608152602001600060038111156133805761337f613a41565b5b81526020016000600381111561339957613398613a41565b5b8152602001600060ff168152602001600060ff168152602001600060ff168152602001600060ff168152602001600060ff168152602001600061ffff168152602001600073ffffffffffffffffffffffffffffffffffffffff168152602001606081525090565b5b80821115613419576000816000905550600101613401565b5090565b6000604051905090565b600080fd5b600080fd5b600073ffffffffffffffffffffffffffffffffffffffff82169050919050565b600061345c82613431565b9050919050565b61346c81613451565b811461347757600080fd5b50565b60008135905061348981613463565b92915050565b6000602082840312156134a5576134a4613427565b5b60006134b38482850161347a565b91505092915050565b600081519050919050565b600082825260208201905092915050565b6000819050602082019050919050565b6000819050919050565b6134fb816134e8565b82525050565b600061350d83836134f2565b60208301905092915050565b6000602082019050919050565b6000613531826134bc565b61353b81856134c7565b9350613546836134d8565b8060005b8381101561357757815161355e8882613501565b975061356983613519565b92505060018101905061354a565b5085935050505092915050565b6000602082019050818103600083015261359e8184613526565b905092915050565b60007fffffffff0000000000000000000000000000000000000000000000000000000082169050919050565b6135db816135a6565b81146135e657600080fd5b50565b6000813590506135f8816135d2565b92915050565b60006020828403121561361457613613613427565b5b6000613622848285016135e9565b91505092915050565b60008115159050919050565b6136408161362b565b82525050565b600060208201905061365b6000830184613637565b92915050565b600081519050919050565b600082825260208201905092915050565b60005b8381101561369b578082015181840152602081019050613680565b838111156136aa576000848401525b50505050565b6000601f19601f8301169050919050565b60006136cc82613661565b6136d6818561366c565b93506136e681856020860161367d565b6136ef816136b0565b840191505092915050565b6000602082019050818103600083015261371481846136c1565b905092915050565b613725816134e8565b811461373057600080fd5b50565b6000813590506137428161371c565b92915050565b60006020828403121561375e5761375d613427565b5b600061376c84828501613733565b91505092915050565b61377e81613451565b82525050565b60006020820190506137996000830184613775565b92915050565b600080604083850312156137b6576137b5613427565b5b60006137c48582860161347a565b92505060206137d585828601613733565b9150509250929050565b600481106137ec57600080fd5b50565b6000813590506137fe816137df565b92915050565b6004811061381157600080fd5b50565b60008135905061382381613804565b92915050565b600080fd5b600080fd5b7f4e487b7100000000000000000000000000000000000000000000000000000000600052604160045260246000fd5b61386b826136b0565b810181811067ffffffffffffffff8211171561388a57613889613833565b5b80604052505050565b600061389d61341d565b90506138a98282613862565b919050565b600067ffffffffffffffff8211156138c9576138c8613833565b5b6138d2826136b0565b9050602081019050919050565b82818337600083830152505050565b60006139016138fc846138ae565b613893565b90508281526020810184848401111561391d5761391c61382e565b5b6139288482856138df565b509392505050565b600082601f83011261394557613944613829565b5b81356139558482602086016138ee565b91505092915050565b60008060006060848603121561397757613976613427565b5b6000613985868287016137ef565b935050602061399686828701613814565b925050604084013567ffffffffffffffff8111156139b7576139b661342c565b5b6139c386828701613930565b9150509250925092565b6139d6816134e8565b82525050565b60006020820190506139f160008301846139cd565b92915050565b600082825260208201905092915050565b6000613a1382613661565b613a1d81856139f7565b9350613a2d81856020860161367d565b613a36816136b0565b840191505092915050565b7f4e487b7100000000000000000000000000000000000000000000000000000000600052602160045260246000fd5b60048110613a8157613a80613a41565b5b50565b6000819050613a9282613a70565b919050565b6000613aa282613a84565b9050919050565b613ab281613a97565b82525050565b60048110613ac957613ac8613a41565b5b50565b6000819050613ada82613ab8565b919050565b6000613aea82613acc565b9050919050565b613afa81613adf565b82525050565b600060ff82169050919050565b613b1681613b00565b82525050565b600061ffff82169050919050565b613b3381613b1c565b82525050565b6000610120830160008301518482036000860152613b578282613a08565b9150506020830151613b6c6020860182613aa9565b506040830151613b7f6040860182613af1565b506060830151613b926060860182613b0d565b506080830151613ba56080860182613b0d565b5060a0830151613bb860a0860182613b0d565b5060c0830151613bcb60c0860182613b0d565b5060e0830151613bde60e0860182613b0d565b50610100830151613bf3610100860182613b2a565b508091505092915050565b60006020820190508181036000830152613c188184613b39565b905092915050565b600080600060608486031215613c3957613c38613427565b5b6000613c478682870161347a565b9350506020613c588682870161347a565b9250506040613c6986828701613733565b9150509250925092565b613c7c81613b1c565b8114613c8757600080fd5b50565b600081359050613c9981613c73565b92915050565b60008060408385031215613cb657613cb5613427565b5b6000613cc485828601613733565b9250506020613cd585828601613c8a565b9150509250929050565b613ce881613451565b82525050565b6000610160830160008301518482036000860152613d0c8282613a08565b9150506020830151613d216020860182613aa9565b506040830151613d346040860182613af1565b506060830151613d476060860182613b0d565b506080830151613d5a6080860182613b0d565b5060a0830151613d6d60a0860182613b0d565b5060c0830151613d8060c0860182613b0d565b5060e0830151613d9360e0860182613b0d565b50610100830151613da8610100860182613b2a565b50610120830151613dbd610120860182613cdf565b50610140830151848203610140860152613dd78282613a08565b9150508091505092915050565b60006020820190508181036000830152613dfe8184613cee565b905092915050565b600081519050919050565b600082825260208201905092915050565b6000819050602082019050919050565b6000610120830160008301518482036000860152613e508282613a08565b9150506020830151613e656020860182613aa9565b506040830151613e786040860182613af1565b506060830151613e8b6060860182613b0d565b506080830151613e9e6080860182613b0d565b5060a0830151613eb160a0860182613b0d565b5060c0830151613ec460c0860182613b0d565b5060e0830151613ed760e0860182613b0d565b50610100830151613eec610100860182613b2a565b508091505092915050565b6000613f038383613e32565b905092915050565b6000602082019050919050565b6000613f2382613e06565b613f2d8185613e11565b935083602082028501613f3f85613e22565b8060005b85811015613f7b5784840389528151613f5c8582613ef7565b9450613f6783613f0b565b925060208a01995050600181019050613f43565b50829750879550505050505092915050565b60006020820190508181036000830152613fa78184613f18565b905092915050565b613fb88161362b565b8114613fc357600080fd5b50565b600081359050613fd581613faf565b92915050565b60008060408385031215613ff257613ff1613427565b5b60006140008582860161347a565b925050602061401185828601613fc6565b9150509250929050565b600067ffffffffffffffff82111561403657614035613833565b5b61403f826136b0565b9050602081019050919050565b600061405f61405a8461401b565b613893565b90508281526020810184848401111561407b5761407a61382e565b5b6140868482856138df565b509392505050565b600082601f8301126140a3576140a2613829565b5b81356140b384826020860161404c565b91505092915050565b600080600080608085870312156140d6576140d5613427565b5b60006140e48782880161347a565b94505060206140f58782880161347a565b935050604061410687828801613733565b925050606085013567ffffffffffffffff8111156141275761412661342c565b5b6141338782880161408e565b91505092959194509250565b6000806040838503121561415657614155613427565b5b60006141648582860161347a565b92505060206141758582860161347a565b9150509250929050565b6000806040838503121561419657614195613427565b5b60006141a485828601613733565b925050602083013567ffffffffffffffff8111156141c5576141c461342c565b5b6141d185828601613930565b9150509250929050565b7f4e487b7100000000000000000000000000000000000000000000000000000000600052601160045260246000fd5b6000614215826134e8565b91507fffffffffffffffffffffffffffffffffffffffffffffffffffffffffffffffff821415614248576142476141db565b5b600182019050919050565b7f4e487b7100000000000000000000000000000000000000000000000000000000600052603260045260246000fd5b7f4e487b7100000000000000000000000000000000000000000000000000000000600052602260045260246000fd5b600060028204905060018216806142c957607f821691505b602082108114156142dd576142dc614282565b5b50919050565b7f4552433732313a20617070726f76656420717565727920666f72206e6f6e657860008201527f697374656e7420746f6b656e0000000000000000000000000000000000000000602082015250565b600061433f602c8361366c565b915061434a826142e3565b604082019050919050565b6000602082019050818103600083015261436e81614332565b9050919050565b7f4552433732313a20617070726f76616c20746f2063757272656e74206f776e6560008201527f7200000000000000000000000000000000000000000000000000000000000000602082015250565b60006143d160218361366c565b91506143dc82614375565b604082019050919050565b60006020820190508181036000830152614400816143c4565b9050919050565b7f4552433732313a20617070726f76652063616c6c6572206973206e6f74206f7760008201527f6e6572206e6f7220617070726f76656420666f7220616c6c0000000000000000602082015250565b600061446360388361366c565b915061446e82614407565b604082019050919050565b6000602082019050818103600083015261449281614456565b9050919050565b7f4f776e61626c653a2063616c6c6572206973206e6f7420746865206f776e6572600082015250565b60006144cf60208361366c565b91506144da82614499565b602082019050919050565b600060208201905081810360008301526144fe816144c2565b9050919050565b600061451082613b00565b915061451b83613b00565b92508282101561452e5761452d6141db565b5b828203905092915050565b6000614544826134e8565b915061454f836134e8565b9250827fffffffffffffffffffffffffffffffffffffffffffffffffffffffffffffffff03821115614584576145836141db565b5b828201905092915050565b600061459a82613b00565b915060ff8214156145ae576145ad6141db565b5b600182019050919050565b7f4552433732313a207472616e736665722063616c6c6572206973206e6f74206f60008201527f776e6572206e6f7220617070726f766564000000000000000000000000000000602082015250565b600061461560318361366c565b9150614620826145b9565b604082019050919050565b6000602082019050818103600083015261464481614608565b9050919050565b7f4f6e6c79207065726d697474656420616464726573732063616e20657865637560008201527f7465207468697320616374696f6e000000000000000000000000000000000000602082015250565b60006146a7602e8361366c565b91506146b28261464b565b604082019050919050565b600060208201905081810360008301526146d68161469a565b9050919050565b60006146e882613b1c565b91506146f383613b1c565b92508261ffff0382111561470a576147096141db565b5b828201905092915050565b60008160011c9050919050565b6000808291508390505b600185111561476c57808604811115614748576147476141db565b5b60018516156147575780820291505b808102905061476585614715565b945061472c565b94509492505050565b6000826147855760019050614841565b816147935760009050614841565b81600181146147a957600281146147b3576147e2565b6001915050614841565b60ff8411156147c5576147c46141db565b5b8360020a9150848211156147dc576147db6141db565b5b50614841565b5060208310610133831016604e8410600b84101617156148175782820a905083811115614812576148116141db565b5b614841565b6148248484846001614722565b9250905081840481111561483b5761483a6141db565b5b81810290505b9392505050565b6000614853826134e8565b915061485e83613b00565b925061488b7fffffffffffffffffffffffffffffffffffffffffffffffffffffffffffffffff8484614775565b905092915050565b61489c81613b00565b82525050565b6148ab81613b1c565b82525050565b60006060820190506148c66000830186614893565b6148d360208301856148a2565b6148e060408301846139cd565b949350505050565b7f4552433732313a206f776e657220717565727920666f72206e6f6e657869737460008201527f656e7420746f6b656e0000000000000000000000000000000000000000000000602082015250565b600061494460298361366c565b915061494f826148e8565b604082019050919050565b6000602082019050818103600083015261497381614937565b9050919050565b7f4552433732313a2062616c616e636520717565727920666f7220746865207a6560008201527f726f206164647265737300000000000000000000000000000000000000000000602082015250565b60006149d6602a8361366c565b91506149e18261497a565b604082019050919050565b60006020820190508181036000830152614a05816149c9565b9050919050565b7f4552433732313a20617070726f766520746f2063616c6c657200000000000000600082015250565b6000614a4260198361366c565b9150614a4d82614a0c565b602082019050919050565b60006020820190508181036000830152614a7181614a35565b9050919050565b600081905092915050565b60008190508160005260206000209050919050565b60008154614aa5816142b1565b614aaf8186614a78565b94506001821660008114614aca5760018114614adb57614b0e565b60ff19831686528186019350614b0e565b614ae485614a83565b60005b83811015614b0657815481890152600182019150602081019050614ae7565b838801955050505b50505092915050565b6000614b2282613661565b614b2c8185614a78565b9350614b3c81856020860161367d565b80840191505092915050565b6000614b548285614a98565b9150614b608284614b17565b91508190509392505050565b7f4f776e61626c653a206e6577206f776e657220697320746865207a65726f206160008201527f6464726573730000000000000000000000000000000000000000000000000000602082015250565b6000614bc860268361366c565b9150614bd382614b6c565b604082019050919050565b60006020820190508181036000830152614bf781614bbb565b9050919050565b7f4e6f74206f776e65720000000000000000000000000000000000000000000000600082015250565b6000614c3460098361366c565b9150614c3f82614bfe565b602082019050919050565b60006020820190508181036000830152614c6381614c27565b9050919050565b60008160601b9050919050565b6000614c8282614c6a565b9050919050565b6000614c9482614c77565b9050919050565b614cac614ca782613451565b614c89565b82525050565b6000614cbe8284614c9b565b60148201915081905092915050565b7f4e487b7100000000000000000000000000000000000000000000000000000000600052601260045260246000fd5b6000614d07826134e8565b9150614d12836134e8565b925082614d2257614d21614ccd565b5b828204905092915050565b6000614d3882613431565b9050919050565b6000614d4a82614c77565b9050919050565b614d62614d5d82614d2d565b614d3f565b82525050565b6000614d748284614d51565b60148201915081905092915050565b6000819050919050565b614d9e614d99826134e8565b614d83565b82525050565b6000614db08284614d8d565b60208201915081905092915050565b6000614dca82613b00565b9150614dd583613b00565b92508260ff03821115614deb57614dea6141db565b5b828201905092915050565b6000614e01826134e8565b9150614e0c836134e8565b9250817fffffffffffffffffffffffffffffffffffffffffffffffffffffffffffffffff0483118215151615614e4557614e446141db565b5b828202905092915050565b6000614e5b826134e8565b9150614e66836134e8565b925082821015614e7957614e786141db565b5b828203905092915050565b7f45524337323155524953746f726167653a2055524920736574206f66206e6f6e60008201527f6578697374656e7420746f6b656e000000000000000000000000000000000000602082015250565b6000614ee0602e8361366c565b9150614eeb82614e84565b604082019050919050565b60006020820190508181036000830152614f0f81614ed3565b9050919050565b7f4552433732313a206f70657261746f7220717565727920666f72206e6f6e657860008201527f697374656e7420746f6b656e0000000000000000000000000000000000000000602082015250565b6000614f72602c8361366c565b9150614f7d82614f16565b604082019050919050565b60006020820190508181036000830152614fa181614f65565b9050919050565b7f4552433732313a207472616e73666572206f6620746f6b656e2074686174206960008201527f73206e6f74206f776e0000000000000000000000000000000000000000000000602082015250565b600061500460298361366c565b915061500f82614fa8565b604082019050919050565b6000602082019050818103600083015261503381614ff7565b9050919050565b7f4552433732313a207472616e7366657220746f20746865207a65726f2061646460008201527f7265737300000000000000000000000000000000000000000000000000000000602082015250565b600061509660248361366c565b91506150a18261503a565b604082019050919050565b600060208201905081810360008301526150c581615089565b9050919050565b7f4552433732313a207472616e7366657220746f206e6f6e20455243373231526560008201527f63656976657220696d706c656d656e7465720000000000000000000000000000602082015250565b600061512860328361366c565b9150615133826150cc565b604082019050919050565b600060208201905081810360008301526151578161511b565b9050919050565b7f45524337323155524953746f726167653a2055524920717565727920666f722060008201527f6e6f6e6578697374656e7420746f6b656e000000000000000000000000000000602082015250565b60006151ba60318361366c565b91506151c58261515e565b604082019050919050565b600060208201905081810360008301526151e9816151ad565b9050919050565b60006151fc8285614b17565b91506152088284614b17565b91508190509392505050565b600081519050919050565b600082825260208201905092915050565b600061523b82615214565b615245818561521f565b935061525581856020860161367d565b61525e816136b0565b840191505092915050565b600060808201905061527e6000830187613775565b61528b6020830186613775565b61529860408301856139cd565b81810360608301526152aa8184615230565b905095945050505050565b6000815190506152c4816135d2565b92915050565b6000602082840312156152e0576152df613427565b5b60006152ee848285016152b5565b91505092915050565b7f4552433732314d657461646174613a2055524920717565727920666f72206e6f60008201527f6e6578697374656e7420746f6b656e0000000000000000000000000000000000602082015250565b6000615353602f8361366c565b915061535e826152f7565b604082019050919050565b6000602082019050818103600083015261538281615346565b9050919050565b7f4552433732313a206d696e7420746f20746865207a65726f2061646472657373600082015250565b60006153bf60208361366c565b91506153ca82615389565b602082019050919050565b600060208201905081810360008301526153ee816153b2565b9050919050565b7f4552433732313a20746f6b656e20616c7265616479206d696e74656400000000600082015250565b600061542b601c8361366c565b9150615436826153f5565b602082019050919050565b6000602082019050818103600083015261545a8161541e565b9050919050565b600061546c826134e8565b9150615477836134e8565b92508261548757615486614ccd565b5b82820690509291505056fea264697066735822122090a5f01d3d515abf0087a4671c3aa1b3771993f8421986422f5373d141f86f6e64736f6c63430008090033",
  "immutableReferences": {},
  "source": "// SPDX-License-Identifier: MIT\npragma solidity 0.8.9;\n\nimport \"../node_modules/@openzeppelin/contracts/token/ERC721/extensions/ERC721URIStorage.sol\";\nimport \"../node_modules/@openzeppelin/contracts/utils/Counters.sol\";\nimport \"../node_modules/@openzeppelin/contracts/access/Ownable.sol\";\n\ncontract GameToken is ERC721URIStorage, Ownable {\n    event HeroLevelUp(\n        address indexed owner,\n        uint256 indexed tokenId,\n        uint8 level,\n        uint16 currXP,\n        uint256 attribute\n    );\n\n    using Counters for Counters.Counter;\n    Counters.Counter private _currentHeroId;\n\n    mapping(address => bool) private _levelUpPermittedAddress;\n\n    enum HeroType {\n        FIGHTER,\n        ROGUE,\n        MAGE,\n        TANK\n    }\n    enum HeroRarity {\n        COMMON,\n        UNCOMMON,\n        RARE,\n        LEGENDARY\n    }\n\n    struct Hero {\n        string name;\n        HeroType heroType;\n        HeroRarity rarity;\n        uint8 str;\n        uint8 con;\n        uint8 dex;\n        uint8 wis;\n        uint8 level;\n        uint16 currXP;\n    }\n\n    struct HeroDTO {\n        string name;\n        HeroType heroType;\n        HeroRarity rarity;\n        uint8 str;\n        uint8 con;\n        uint8 dex;\n        uint8 wis;\n        uint8 level;\n        uint16 currXP;\n        address owner;\n        string tokenURI;\n    }\n\n    Hero[] private _heroes;\n\n    string private _baseTokenURI;\n\n    mapping(HeroType => uint8[]) private _mapMint;\n\n    constructor(\n        string memory name,\n        string memory symbol,\n        string memory baseTokenURI\n    ) ERC721(name, symbol) {\n        _baseTokenURI = baseTokenURI;\n\n        _mapMint[HeroType.FIGHTER] = [0, 1, 0, 2, 3, 1];\n        _mapMint[HeroType.ROGUE] = [2, 2, 0, 3, 0, 2];\n        _mapMint[HeroType.MAGE] = [3, 3, 2, 1, 0, 3];\n        _mapMint[HeroType.TANK] = [1, 1, 0, 2, 3, 1];\n    }\n\n    function totalSupply() external view returns (uint256) {\n        return _heroes.length;\n    }\n\n    function addLevelUpPermittedAddress(address newAddress) external onlyOwner {\n        _levelUpPermittedAddress[newAddress] = true;\n    }\n\n    function removeLevelUpPermittedAddress(address newAddress)\n        external\n        onlyOwner\n    {\n        delete _levelUpPermittedAddress[newAddress];\n    }\n\n    modifier onlyLevelUpPermittedAddress() {\n        require(\n            _levelUpPermittedAddress[_msgSender()],\n            \"Only permitted address can execute this action\"\n        );\n        _;\n    }\n\n    function getHeroes() external view returns (Hero[] memory) {\n        return _heroes;\n    }\n\n    function getNextHeroId() external view returns (uint256) {\n        return _currentHeroId.current();\n    }\n\n    function mint(\n        HeroType _heroType,\n        HeroRarity _heroRarity,\n        string memory _tokenURI\n    ) public onlyOwner {\n        uint256 newHeroId = _currentHeroId.current();\n\n        _safeMint(msg.sender, newHeroId);\n        _currentHeroId.increment();\n\n        uint8 minAttr;\n        uint8 maxAttr;\n\n        if (_heroRarity == HeroRarity.COMMON) {\n            minAttr = 4;\n            maxAttr = 6;\n        } else if (_heroRarity == HeroRarity.UNCOMMON) {\n            minAttr = 7;\n            maxAttr = 8;\n        } else if (_heroRarity == HeroRarity.RARE) {\n            minAttr = 9;\n            maxAttr = 10;\n        } else {\n            minAttr = 11;\n            maxAttr = 12;\n        }\n\n        uint256 attrsSize = rand(maxAttr - minAttr) + minAttr;\n\n        uint8[] memory attrs = new uint8[](4);\n        attrs[0] = 1;\n        attrs[1] = 1;\n        attrs[2] = 1;\n        attrs[3] = 1;\n        uint8 attrCounter = 0;\n\n        for (uint8 i = 1; i <= attrsSize; i++) {\n            attrs[_mapMint[_heroType][attrCounter]]++;\n            if (attrCounter == 5) {\n                attrCounter = 0;\n            } else {\n                attrCounter++;\n            }\n        }\n\n        _setTokenURI(newHeroId, _tokenURI);\n        _heroes.push(\n            Hero(\n                \"\",\n                _heroType,\n                _heroRarity,\n                attrs[0],\n                attrs[1],\n                attrs[2],\n                attrs[3],\n                1,\n                0\n            )\n        );\n    }\n\n    function getHeroesByAddress(address owner)\n        public\n        view\n        returns (uint256[] memory)\n    {\n        uint256 heroCount = balanceOf(owner);\n\n        if (heroCount == 0) {\n            return new uint256[](0);\n        } else {\n            uint256[] memory ret = new uint256[](heroCount);\n            uint256 i;\n            uint256 curIndex = 0;\n\n            for (i = 0; i < _currentHeroId.current(); i++) {\n                if (ownerOf(i) == owner) {\n                    ret[curIndex++] = i;\n                }\n            }\n\n            return ret;\n        }\n    }\n\n    function getMyHeroes() external view returns (uint256[] memory) {\n        return getHeroesByAddress(msg.sender);\n    }\n\n    function getHero(uint256 _heroId) external view returns (Hero memory) {\n        return _heroes[_heroId];\n    }\n\n    function getHeroComplete(uint256 _heroId)\n        external\n        view\n        returns (HeroDTO memory)\n    {\n        Hero memory h = _heroes[_heroId];\n\n        return\n            HeroDTO(\n                h.name,\n                h.heroType,\n                h.rarity,\n                h.str,\n                h.con,\n                h.dex,\n                h.wis,\n                h.level,\n                h.currXP,\n                ownerOf(_heroId),\n                tokenURI(_heroId)\n            );\n    }\n\n    function setName(uint256 _heroId, string memory _name) external {\n        require(msg.sender == ownerOf(_heroId), \"Not owner\");\n        Hero storage hero = _heroes[_heroId];\n\n        hero.name = _name;\n    }\n\n    function levelUp(uint256 _heroId, uint16 _xp)\n        external\n        onlyLevelUpPermittedAddress\n    {\n        Hero storage hero = _heroes[_heroId];\n\n        hero.currXP += _xp;\n\n        address owner = ownerOf(_heroId);\n\n        uint256 random;\n\n        if (hero.currXP >= 2**hero.level) {\n            hero.level++;\n            hero.currXP = 0;\n\n            random = rand(3);\n\n            if (random == 0) {\n                hero.str++;\n            } else if (random == 1) {\n                hero.con++;\n            } else if (random == 2) {\n                hero.dex++;\n            } else if (random == 3) {\n                hero.wis++;\n            }\n        }\n\n        emit HeroLevelUp(owner, _heroId, hero.level, hero.currXP, random);\n    }\n\n    function rand(uint8 limit) private view returns (uint256) {\n        uint256 seed = uint256(\n            keccak256(\n                abi.encodePacked(\n                    block.timestamp +\n                        block.difficulty +\n                        ((\n                            uint256(keccak256(abi.encodePacked(block.coinbase)))\n                        ) / (block.timestamp)) +\n                        block.gaslimit +\n                        ((uint256(keccak256(abi.encodePacked(msg.sender)))) /\n                            (block.timestamp)) +\n                        block.number\n                )\n            )\n        );\n\n        return (seed - ((seed / (limit + 1)) * (limit + 1)));\n    }\n\n    function tokenURI(uint256 tokenId)\n        public\n        view\n        virtual\n        override\n        returns (string memory)\n    {\n        return string(abi.encodePacked(_baseTokenURI, super.tokenURI(tokenId)));\n    }\n}\n",
  "sourcePath": "/home/rfaita/game/nft-game/contract/contracts/GameToken.sol",
  "compiler": {
    "name": "solc",
    "version": "0.8.9+commit.e5eed63a.Emscripten.clang"
  },
  "schemaVersion": "3.4.3",
  "updatedAt": "2021-12-01T18:38:50.630Z",
  "networkType": "ethereum",
  "devdoc": {
    "kind": "dev",
    "methods": {
      "approve(address,uint256)": {
        "details": "See {IERC721-approve}."
      },
      "balanceOf(address)": {
        "details": "See {IERC721-balanceOf}."
      },
      "getApproved(uint256)": {
        "details": "See {IERC721-getApproved}."
      },
      "isApprovedForAll(address,address)": {
        "details": "See {IERC721-isApprovedForAll}."
      },
      "name()": {
        "details": "See {IERC721Metadata-name}."
      },
      "owner()": {
        "details": "Returns the address of the current owner."
      },
      "ownerOf(uint256)": {
        "details": "See {IERC721-ownerOf}."
      },
      "renounceOwnership()": {
        "details": "Leaves the contract without owner. It will not be possible to call `onlyOwner` functions anymore. Can only be called by the current owner. NOTE: Renouncing ownership will leave the contract without an owner, thereby removing any functionality that is only available to the owner."
      },
      "safeTransferFrom(address,address,uint256)": {
        "details": "See {IERC721-safeTransferFrom}."
      },
      "safeTransferFrom(address,address,uint256,bytes)": {
        "details": "See {IERC721-safeTransferFrom}."
      },
      "setApprovalForAll(address,bool)": {
        "details": "See {IERC721-setApprovalForAll}."
      },
      "supportsInterface(bytes4)": {
        "details": "See {IERC165-supportsInterface}."
      },
      "symbol()": {
        "details": "See {IERC721Metadata-symbol}."
      },
      "tokenURI(uint256)": {
        "details": "See {IERC721Metadata-tokenURI}."
      },
      "transferFrom(address,address,uint256)": {
        "details": "See {IERC721-transferFrom}."
      },
      "transferOwnership(address)": {
        "details": "Transfers ownership of the contract to a new account (`newOwner`). Can only be called by the current owner."
      }
    },
    "version": 1
  },
  "userdoc": {
    "kind": "user",
    "methods": {},
    "version": 1
  }
}