{
  "contractName": "GameToken",
  "abi": [
    {
      "inputs": [
        {
          "internalType": "string",
          "name": "name",
          "type": "string"
        },
        {
          "internalType": "string",
          "name": "symbol",
          "type": "string"
        },
        {
          "internalType": "string",
          "name": "baseTokenURI",
          "type": "string"
        }
      ],
      "stateMutability": "nonpayable",
      "type": "constructor"
    },
    {
      "anonymous": false,
      "inputs": [
        {
          "indexed": true,
          "internalType": "address",
          "name": "owner",
          "type": "address"
        },
        {
          "indexed": true,
          "internalType": "address",
          "name": "approved",
          "type": "address"
        },
        {
          "indexed": true,
          "internalType": "uint256",
          "name": "tokenId",
          "type": "uint256"
        }
      ],
      "name": "Approval",
      "type": "event"
    },
    {
      "anonymous": false,
      "inputs": [
        {
          "indexed": true,
          "internalType": "address",
          "name": "owner",
          "type": "address"
        },
        {
          "indexed": true,
          "internalType": "address",
          "name": "operator",
          "type": "address"
        },
        {
          "indexed": false,
          "internalType": "bool",
          "name": "approved",
          "type": "bool"
        }
      ],
      "name": "ApprovalForAll",
      "type": "event"
    },
    {
      "anonymous": false,
      "inputs": [
        {
          "indexed": true,
          "internalType": "address",
          "name": "owner",
          "type": "address"
        },
        {
          "indexed": true,
          "internalType": "uint256",
          "name": "tokenId",
          "type": "uint256"
        },
        {
          "indexed": false,
          "internalType": "uint8",
          "name": "level",
          "type": "uint8"
        },
        {
          "indexed": false,
          "internalType": "uint256",
          "name": "currXP",
          "type": "uint256"
        },
        {
          "indexed": false,
          "internalType": "uint256",
          "name": "attribute",
          "type": "uint256"
        }
      ],
      "name": "HeroLevelUp",
      "type": "event"
    },
    {
      "anonymous": false,
      "inputs": [
        {
          "indexed": true,
          "internalType": "address",
          "name": "previousOwner",
          "type": "address"
        },
        {
          "indexed": true,
          "internalType": "address",
          "name": "newOwner",
          "type": "address"
        }
      ],
      "name": "OwnershipTransferred",
      "type": "event"
    },
    {
      "anonymous": false,
      "inputs": [
        {
          "indexed": true,
          "internalType": "address",
          "name": "from",
          "type": "address"
        },
        {
          "indexed": true,
          "internalType": "address",
          "name": "to",
          "type": "address"
        },
        {
          "indexed": true,
          "internalType": "uint256",
          "name": "tokenId",
          "type": "uint256"
        }
      ],
      "name": "Transfer",
      "type": "event"
    },
    {
      "inputs": [
        {
          "internalType": "address",
          "name": "to",
          "type": "address"
        },
        {
          "internalType": "uint256",
          "name": "tokenId",
          "type": "uint256"
        }
      ],
      "name": "approve",
      "outputs": [],
      "stateMutability": "nonpayable",
      "type": "function"
    },
    {
      "inputs": [
        {
          "internalType": "address",
          "name": "owner",
          "type": "address"
        }
      ],
      "name": "balanceOf",
      "outputs": [
        {
          "internalType": "uint256",
          "name": "",
          "type": "uint256"
        }
      ],
      "stateMutability": "view",
      "type": "function",
      "constant": true
    },
    {
      "inputs": [
        {
          "internalType": "uint256",
          "name": "tokenId",
          "type": "uint256"
        }
      ],
      "name": "getApproved",
      "outputs": [
        {
          "internalType": "address",
          "name": "",
          "type": "address"
        }
      ],
      "stateMutability": "view",
      "type": "function",
      "constant": true
    },
    {
      "inputs": [
        {
          "internalType": "address",
          "name": "owner",
          "type": "address"
        },
        {
          "internalType": "address",
          "name": "operator",
          "type": "address"
        }
      ],
      "name": "isApprovedForAll",
      "outputs": [
        {
          "internalType": "bool",
          "name": "",
          "type": "bool"
        }
      ],
      "stateMutability": "view",
      "type": "function",
      "constant": true
    },
    {
      "inputs": [],
      "name": "name",
      "outputs": [
        {
          "internalType": "string",
          "name": "",
          "type": "string"
        }
      ],
      "stateMutability": "view",
      "type": "function",
      "constant": true
    },
    {
      "inputs": [],
      "name": "owner",
      "outputs": [
        {
          "internalType": "address",
          "name": "",
          "type": "address"
        }
      ],
      "stateMutability": "view",
      "type": "function",
      "constant": true
    },
    {
      "inputs": [
        {
          "internalType": "uint256",
          "name": "tokenId",
          "type": "uint256"
        }
      ],
      "name": "ownerOf",
      "outputs": [
        {
          "internalType": "address",
          "name": "",
          "type": "address"
        }
      ],
      "stateMutability": "view",
      "type": "function",
      "constant": true
    },
    {
      "inputs": [],
      "name": "renounceOwnership",
      "outputs": [],
      "stateMutability": "nonpayable",
      "type": "function"
    },
    {
      "inputs": [
        {
          "internalType": "address",
          "name": "from",
          "type": "address"
        },
        {
          "internalType": "address",
          "name": "to",
          "type": "address"
        },
        {
          "internalType": "uint256",
          "name": "tokenId",
          "type": "uint256"
        }
      ],
      "name": "safeTransferFrom",
      "outputs": [],
      "stateMutability": "nonpayable",
      "type": "function"
    },
    {
      "inputs": [
        {
          "internalType": "address",
          "name": "from",
          "type": "address"
        },
        {
          "internalType": "address",
          "name": "to",
          "type": "address"
        },
        {
          "internalType": "uint256",
          "name": "tokenId",
          "type": "uint256"
        },
        {
          "internalType": "bytes",
          "name": "_data",
          "type": "bytes"
        }
      ],
      "name": "safeTransferFrom",
      "outputs": [],
      "stateMutability": "nonpayable",
      "type": "function"
    },
    {
      "inputs": [
        {
          "internalType": "address",
          "name": "operator",
          "type": "address"
        },
        {
          "internalType": "bool",
          "name": "approved",
          "type": "bool"
        }
      ],
      "name": "setApprovalForAll",
      "outputs": [],
      "stateMutability": "nonpayable",
      "type": "function"
    },
    {
      "inputs": [
        {
          "internalType": "bytes4",
          "name": "interfaceId",
          "type": "bytes4"
        }
      ],
      "name": "supportsInterface",
      "outputs": [
        {
          "internalType": "bool",
          "name": "",
          "type": "bool"
        }
      ],
      "stateMutability": "view",
      "type": "function",
      "constant": true
    },
    {
      "inputs": [],
      "name": "symbol",
      "outputs": [
        {
          "internalType": "string",
          "name": "",
          "type": "string"
        }
      ],
      "stateMutability": "view",
      "type": "function",
      "constant": true
    },
    {
      "inputs": [
        {
          "internalType": "address",
          "name": "from",
          "type": "address"
        },
        {
          "internalType": "address",
          "name": "to",
          "type": "address"
        },
        {
          "internalType": "uint256",
          "name": "tokenId",
          "type": "uint256"
        }
      ],
      "name": "transferFrom",
      "outputs": [],
      "stateMutability": "nonpayable",
      "type": "function"
    },
    {
      "inputs": [
        {
          "internalType": "address",
          "name": "newOwner",
          "type": "address"
        }
      ],
      "name": "transferOwnership",
      "outputs": [],
      "stateMutability": "nonpayable",
      "type": "function"
    },
    {
      "inputs": [],
      "name": "totalSupply",
      "outputs": [
        {
          "internalType": "uint256",
          "name": "",
          "type": "uint256"
        }
      ],
      "stateMutability": "view",
      "type": "function",
      "constant": true
    },
    {
      "inputs": [
        {
          "internalType": "address",
          "name": "newAddress",
          "type": "address"
        }
      ],
      "name": "addLevelUpPermittedAddress",
      "outputs": [],
      "stateMutability": "nonpayable",
      "type": "function"
    },
    {
      "inputs": [
        {
          "internalType": "address",
          "name": "newAddress",
          "type": "address"
        }
      ],
      "name": "removeLevelUpPermittedAddress",
      "outputs": [],
      "stateMutability": "nonpayable",
      "type": "function"
    },
    {
      "inputs": [],
      "name": "getHeroes",
      "outputs": [
        {
          "components": [
            {
              "internalType": "string",
              "name": "name",
              "type": "string"
            },
            {
              "internalType": "enum GameToken.HeroType",
              "name": "heroType",
              "type": "uint8"
            },
            {
              "internalType": "enum GameToken.HeroRarity",
              "name": "rarity",
              "type": "uint8"
            },
            {
              "internalType": "uint8",
              "name": "str",
              "type": "uint8"
            },
            {
              "internalType": "uint8",
              "name": "con",
              "type": "uint8"
            },
            {
              "internalType": "uint8",
              "name": "dex",
              "type": "uint8"
            },
            {
              "internalType": "uint8",
              "name": "wis",
              "type": "uint8"
            },
            {
              "internalType": "uint8",
              "name": "level",
              "type": "uint8"
            },
            {
              "internalType": "uint8",
              "name": "season",
              "type": "uint8"
            },
            {
              "internalType": "uint256",
              "name": "currXP",
              "type": "uint256"
            }
          ],
          "internalType": "struct GameToken.Hero[]",
          "name": "",
          "type": "tuple[]"
        }
      ],
      "stateMutability": "view",
      "type": "function",
      "constant": true
    },
    {
      "inputs": [],
      "name": "getNextHeroId",
      "outputs": [
        {
          "internalType": "uint256",
          "name": "",
          "type": "uint256"
        }
      ],
      "stateMutability": "view",
      "type": "function",
      "constant": true
    },
    {
      "inputs": [
        {
          "internalType": "uint8",
          "name": "_season",
          "type": "uint8"
        },
        {
          "internalType": "enum GameToken.HeroType",
          "name": "_heroType",
          "type": "uint8"
        },
        {
          "internalType": "enum GameToken.HeroRarity",
          "name": "_heroRarity",
          "type": "uint8"
        },
        {
          "internalType": "string",
          "name": "_tokenURI",
          "type": "string"
        }
      ],
      "name": "mint",
      "outputs": [],
      "stateMutability": "nonpayable",
      "type": "function"
    },
    {
      "inputs": [
        {
          "internalType": "address",
          "name": "owner",
          "type": "address"
        }
      ],
      "name": "getHeroesByAddress",
      "outputs": [
        {
          "internalType": "uint256[]",
          "name": "",
          "type": "uint256[]"
        }
      ],
      "stateMutability": "view",
      "type": "function",
      "constant": true
    },
    {
      "inputs": [],
      "name": "getMyHeroes",
      "outputs": [
        {
          "internalType": "uint256[]",
          "name": "",
          "type": "uint256[]"
        }
      ],
      "stateMutability": "view",
      "type": "function",
      "constant": true
    },
    {
      "inputs": [
        {
          "internalType": "uint256",
          "name": "_heroId",
          "type": "uint256"
        }
      ],
      "name": "getHero",
      "outputs": [
        {
          "components": [
            {
              "internalType": "string",
              "name": "name",
              "type": "string"
            },
            {
              "internalType": "enum GameToken.HeroType",
              "name": "heroType",
              "type": "uint8"
            },
            {
              "internalType": "enum GameToken.HeroRarity",
              "name": "rarity",
              "type": "uint8"
            },
            {
              "internalType": "uint8",
              "name": "str",
              "type": "uint8"
            },
            {
              "internalType": "uint8",
              "name": "con",
              "type": "uint8"
            },
            {
              "internalType": "uint8",
              "name": "dex",
              "type": "uint8"
            },
            {
              "internalType": "uint8",
              "name": "wis",
              "type": "uint8"
            },
            {
              "internalType": "uint8",
              "name": "level",
              "type": "uint8"
            },
            {
              "internalType": "uint8",
              "name": "season",
              "type": "uint8"
            },
            {
              "internalType": "uint256",
              "name": "currXP",
              "type": "uint256"
            }
          ],
          "internalType": "struct GameToken.Hero",
          "name": "",
          "type": "tuple"
        }
      ],
      "stateMutability": "view",
      "type": "function",
      "constant": true
    },
    {
      "inputs": [
        {
          "internalType": "uint256",
          "name": "_heroId",
          "type": "uint256"
        }
      ],
      "name": "getHeroComplete",
      "outputs": [
        {
          "components": [
            {
              "internalType": "string",
              "name": "name",
              "type": "string"
            },
            {
              "internalType": "enum GameToken.HeroType",
              "name": "heroType",
              "type": "uint8"
            },
            {
              "internalType": "enum GameToken.HeroRarity",
              "name": "rarity",
              "type": "uint8"
            },
            {
              "internalType": "uint8",
              "name": "str",
              "type": "uint8"
            },
            {
              "internalType": "uint8",
              "name": "con",
              "type": "uint8"
            },
            {
              "internalType": "uint8",
              "name": "dex",
              "type": "uint8"
            },
            {
              "internalType": "uint8",
              "name": "wis",
              "type": "uint8"
            },
            {
              "internalType": "uint8",
              "name": "level",
              "type": "uint8"
            },
            {
              "internalType": "uint8",
              "name": "season",
              "type": "uint8"
            },
            {
              "internalType": "uint256",
              "name": "currXP",
              "type": "uint256"
            },
            {
              "internalType": "address",
              "name": "owner",
              "type": "address"
            },
            {
              "internalType": "string",
              "name": "tokenURI",
              "type": "string"
            }
          ],
          "internalType": "struct GameToken.HeroDTO",
          "name": "",
          "type": "tuple"
        }
      ],
      "stateMutability": "view",
      "type": "function",
      "constant": true
    },
    {
      "inputs": [
        {
          "internalType": "uint256",
          "name": "_heroId",
          "type": "uint256"
        },
        {
          "internalType": "string",
          "name": "_name",
          "type": "string"
        }
      ],
      "name": "setName",
      "outputs": [],
      "stateMutability": "nonpayable",
      "type": "function"
    },
    {
      "inputs": [
        {
          "internalType": "uint256",
          "name": "_heroId",
          "type": "uint256"
        },
        {
          "internalType": "uint16",
          "name": "_xp",
          "type": "uint16"
        }
      ],
      "name": "levelUp",
      "outputs": [],
      "stateMutability": "nonpayable",
      "type": "function"
    },
    {
      "inputs": [
        {
          "internalType": "uint256",
          "name": "tokenId",
          "type": "uint256"
        }
      ],
      "name": "tokenURI",
      "outputs": [
        {
          "internalType": "string",
          "name": "",
          "type": "string"
        }
      ],
      "stateMutability": "view",
      "type": "function",
      "constant": true
    }
  ],
  "bytecode": "0x60806040523480156200001157600080fd5b5060405162005cfc38038062005cfc8339818101604052810190620000379190620006c6565b8282816000908051906020019062000051929190620003cb565b5080600190805190602001906200006a929190620003cb565b5050506200008d62000081620002fd60201b60201c565b6200030560201b60201c565b80600b9080519060200190620000a5929190620003cb565b506040518060c00160405280600060ff168152602001600160ff168152602001600060ff168152602001600260ff168152602001600360ff168152602001600160ff16815250600c60008060038111156200010557620001046200077f565b5b60038111156200011a57620001196200077f565b5b8152602001908152602001600020906006620001389291906200045c565b506040518060c00160405280600260ff168152602001600260ff168152602001600060ff168152602001600360ff168152602001600060ff168152602001600260ff16815250600c6000600160038111156200019957620001986200077f565b5b6003811115620001ae57620001ad6200077f565b5b8152602001908152602001600020906006620001cc9291906200045c565b506040518060c00160405280600360ff168152602001600360ff168152602001600260ff168152602001600160ff168152602001600060ff168152602001600360ff16815250600c6000600260038111156200022d576200022c6200077f565b5b60038111156200024257620002416200077f565b5b8152602001908152602001600020906006620002609291906200045c565b506040518060c00160405280600160ff168152602001600160ff168152602001600060ff168152602001600260ff168152602001600360ff168152602001600160ff16815250600c6000600380811115620002c057620002bf6200077f565b5b6003811115620002d557620002d46200077f565b5b8152602001908152602001600020906006620002f39291906200045c565b5050505062000813565b600033905090565b6000600760009054906101000a900473ffffffffffffffffffffffffffffffffffffffff16905081600760006101000a81548173ffffffffffffffffffffffffffffffffffffffff021916908373ffffffffffffffffffffffffffffffffffffffff1602179055508173ffffffffffffffffffffffffffffffffffffffff168173ffffffffffffffffffffffffffffffffffffffff167f8be0079c531659141344cd1fd0a4f28419497f9722a3daafe3b4186f6b6457e060405160405180910390a35050565b828054620003d990620007dd565b90600052602060002090601f016020900481019282620003fd576000855562000449565b82601f106200041857805160ff191683800117855562000449565b8280016001018555821562000449579182015b82811115620004485782518255916020019190600101906200042b565b5b5090506200045891906200050a565b5090565b82805482825590600052602060002090601f01602090048101928215620004f75791602002820160005b83821115620004c657835183826101000a81548160ff021916908360ff160217905550926020019260010160208160000104928301926001030262000486565b8015620004f55782816101000a81549060ff0219169055600101602081600001049283019260010302620004c6565b505b5090506200050691906200050a565b5090565b5b80821115620005255760008160009055506001016200050b565b5090565b6000604051905090565b600080fd5b600080fd5b600080fd5b600080fd5b6000601f19601f8301169050919050565b7f4e487b7100000000000000000000000000000000000000000000000000000000600052604160045260246000fd5b620005928262000547565b810181811067ffffffffffffffff82111715620005b457620005b362000558565b5b80604052505050565b6000620005c962000529565b9050620005d7828262000587565b919050565b600067ffffffffffffffff821115620005fa57620005f962000558565b5b620006058262000547565b9050602081019050919050565b60005b838110156200063257808201518184015260208101905062000615565b8381111562000642576000848401525b50505050565b60006200065f6200065984620005dc565b620005bd565b9050828152602081018484840111156200067e576200067d62000542565b5b6200068b84828562000612565b509392505050565b600082601f830112620006ab57620006aa6200053d565b5b8151620006bd84826020860162000648565b91505092915050565b600080600060608486031215620006e257620006e162000533565b5b600084015167ffffffffffffffff81111562000703576200070262000538565b5b620007118682870162000693565b935050602084015167ffffffffffffffff81111562000735576200073462000538565b5b620007438682870162000693565b925050604084015167ffffffffffffffff81111562000767576200076662000538565b5b620007758682870162000693565b9150509250925092565b7f4e487b7100000000000000000000000000000000000000000000000000000000600052602160045260246000fd5b7f4e487b7100000000000000000000000000000000000000000000000000000000600052602260045260246000fd5b60006002820490506001821680620007f657607f821691505b602082108114156200080d576200080c620007ae565b5b50919050565b6154d980620008236000396000f3fe608060405234801561001057600080fd5b50600436106101c35760003560e01c8063715018a6116100f9578063a8b2425011610097578063d46eef2311610071578063d46eef2314610504578063e985e9c514610520578063f2fde38b14610550578063fe55932a1461056c576101c3565b8063a8b242501461049c578063b88d4fde146104b8578063c87b56dd146104d4576101c3565b80638da5cb5b116100d35780638da5cb5b1461042657806395d89b41146104445780639a8d288214610462578063a22cb46514610480576101c3565b8063715018a6146103e0578063806f5283146103ea5780638302adfb14610408576101c3565b806323b872dd11610166578063484a203211610140578063484a203214610334578063503f30ac146103505780636352211e1461038057806370a08231146103b0576101c3565b806323b872dd146102e057806342842e0e146102fc5780634728996114610318576101c3565b8063081812fc116101a2578063081812fc14610246578063095ea7b31461027657806318160ddd1461029257806321d80111146102b0576101c3565b80625597e3146101c857806301ffc9a7146101f857806306fdde0314610228575b600080fd5b6101e260048036038101906101dd9190613477565b610588565b6040516101ef919061356c565b60405180910390f35b610212600480360381019061020d91906135e6565b6106e5565b60405161021f919061362e565b60405180910390f35b6102306107c7565b60405161023d91906136e2565b60405180910390f35b610260600480360381019061025b9190613730565b610859565b60405161026d919061376c565b60405180910390f35b610290600480360381019061028b9190613787565b6108de565b005b61029a6109f6565b6040516102a791906137d6565b60405180910390f35b6102ca60048036038101906102c59190613730565b610a03565b6040516102d791906139f0565b60405180910390f35b6102fa60048036038101906102f59190613a12565b610c00565b005b61031660048036038101906103119190613a12565b610c60565b005b610332600480360381019061032d9190613477565b610c80565b005b61034e60048036038101906103499190613a9f565b610d57565b005b61036a60048036038101906103659190613730565b611045565b6040516103779190613bf9565b60405180910390f35b61039a60048036038101906103959190613730565b61131f565b6040516103a7919061376c565b60405180910390f35b6103ca60048036038101906103c59190613477565b6113d1565b6040516103d791906137d6565b60405180910390f35b6103e8611489565b005b6103f2611511565b6040516103ff919061356c565b60405180910390f35b610410611521565b60405161041d91906137d6565b60405180910390f35b61042e611532565b60405161043b919061376c565b60405180910390f35b61044c61155c565b60405161045991906136e2565b60405180910390f35b61046a6115ee565b6040516104779190613db7565b60405180910390f35b61049a60048036038101906104959190613e05565b61180e565b005b6104b660048036038101906104b19190613477565b61198f565b005b6104d260048036038101906104cd9190613f7a565b611a5d565b005b6104ee60048036038101906104e99190613730565b611abf565b6040516104fb91906136e2565b60405180910390f35b61051e60048036038101906105199190614114565b611af3565b005b61053a60048036038101906105359190614197565b6120de565b604051610547919061362e565b60405180910390f35b61056a60048036038101906105659190613477565b612172565b005b610586600480360381019061058191906141d7565b61226a565b005b60606000610595836113d1565b905060008114156105f257600067ffffffffffffffff8111156105bb576105ba613e4f565b5b6040519080825280602002602001820160405280156105e95781602001602082028036833780820191505090505b509150506106e0565b60008167ffffffffffffffff81111561060e5761060d613e4f565b5b60405190808252806020026020018201604052801561063c5781602001602082028036833780820191505090505b50905060008060009050600091505b6106556008612324565b8210156106d8578573ffffffffffffffffffffffffffffffffffffffff1661067c8361131f565b73ffffffffffffffffffffffffffffffffffffffff1614156106c557818382806106a590614262565b9350815181106106b8576106b76142ab565b5b6020026020010181815250505b81806106d090614262565b92505061064b565b829450505050505b919050565b60007f80ac58cd000000000000000000000000000000000000000000000000000000007bffffffffffffffffffffffffffffffffffffffffffffffffffffffff1916827bffffffffffffffffffffffffffffffffffffffffffffffffffffffff191614806107b057507f5b5e139f000000000000000000000000000000000000000000000000000000007bffffffffffffffffffffffffffffffffffffffffffffffffffffffff1916827bffffffffffffffffffffffffffffffffffffffffffffffffffffffff1916145b806107c057506107bf82612332565b5b9050919050565b6060600080546107d690614309565b80601f016020809104026020016040519081016040528092919081815260200182805461080290614309565b801561084f5780601f106108245761010080835404028352916020019161084f565b820191906000526020600020905b81548152906001019060200180831161083257829003601f168201915b5050505050905090565b60006108648261239c565b6108a3576040517f08c379a000000000000000000000000000000000000000000000000000000000815260040161089a906143ad565b60405180910390fd5b6004600083815260200190815260200160002060009054906101000a900473ffffffffffffffffffffffffffffffffffffffff169050919050565b60006108e98261131f565b90508073ffffffffffffffffffffffffffffffffffffffff168373ffffffffffffffffffffffffffffffffffffffff16141561095a576040517f08c379a00000000000000000000000000000000000000000000000000000000081526004016109519061443f565b60405180910390fd5b8073ffffffffffffffffffffffffffffffffffffffff16610979612408565b73ffffffffffffffffffffffffffffffffffffffff1614806109a857506109a7816109a2612408565b6120de565b5b6109e7576040517f08c379a00000000000000000000000000000000000000000000000000000000081526004016109de906144d1565b60405180910390fd5b6109f18383612410565b505050565b6000600a80549050905090565b610a0b61322c565b600a8281548110610a1f57610a1e6142ab565b5b906000526020600020906003020160405180610140016040529081600082018054610a4990614309565b80601f0160208091040260200160405190810160405280929190818152602001828054610a7590614309565b8015610ac25780601f10610a9757610100808354040283529160200191610ac2565b820191906000526020600020905b815481529060010190602001808311610aa557829003601f168201915b505050505081526020016001820160009054906101000a900460ff166003811115610af057610aef61383b565b5b6003811115610b0257610b0161383b565b5b81526020016001820160019054906101000a900460ff166003811115610b2b57610b2a61383b565b5b6003811115610b3d57610b3c61383b565b5b81526020016001820160029054906101000a900460ff1660ff1660ff1681526020016001820160039054906101000a900460ff1660ff1660ff1681526020016001820160049054906101000a900460ff1660ff1660ff1681526020016001820160059054906101000a900460ff1660ff1660ff1681526020016001820160069054906101000a900460ff1660ff1660ff1681526020016001820160079054906101000a900460ff1660ff1660ff1681526020016002820154815250509050919050565b610c11610c0b612408565b826124c9565b610c50576040517f08c379a0000000000000000000000000000000000000000000000000000000008152600401610c4790614563565b60405180910390fd5b610c5b8383836125a7565b505050565b610c7b83838360405180602001604052806000815250611a5d565b505050565b610c88612408565b73ffffffffffffffffffffffffffffffffffffffff16610ca6611532565b73ffffffffffffffffffffffffffffffffffffffff1614610cfc576040517f08c379a0000000000000000000000000000000000000000000000000000000008152600401610cf3906145cf565b60405180910390fd5b6001600960008373ffffffffffffffffffffffffffffffffffffffff1673ffffffffffffffffffffffffffffffffffffffff16815260200190815260200160002060006101000a81548160ff02191690831515021790555050565b60096000610d63612408565b73ffffffffffffffffffffffffffffffffffffffff1673ffffffffffffffffffffffffffffffffffffffff16815260200190815260200160002060009054906101000a900460ff16610dea576040517f08c379a0000000000000000000000000000000000000000000000000000000008152600401610de190614661565b60405180910390fd5b6000600a8381548110610e0057610dff6142ab565b5b906000526020600020906003020190508161ffff16816002016000828254610e289190614681565b925050819055506000610e3a8461131f565b905060008260010160069054906101000a900460ff166002610e5c919061480a565b836002015410610fd65782600101600681819054906101000a900460ff1680929190610e8790614855565b91906101000a81548160ff021916908360ff1602179055505060008360020181905550610eb46003612803565b90506000811415610efe5782600101600281819054906101000a900460ff1680929190610ee090614855565b91906101000a81548160ff021916908360ff16021790555050610fd5565b6001811415610f465782600101600381819054906101000a900460ff1680929190610f2890614855565b91906101000a81548160ff021916908360ff16021790555050610fd4565b6002811415610f8e5782600101600481819054906101000a900460ff1680929190610f7090614855565b91906101000a81548160ff021916908360ff16021790555050610fd3565b6003811415610fd25782600101600581819054906101000a900460ff1680929190610fb890614855565b91906101000a81548160ff021916908360ff160217905550505b5b5b5b5b848273ffffffffffffffffffffffffffffffffffffffff167f756b3854f86219a3f38542278162f1486bbf6d7c1a7505542d2398a6e13d39188560010160069054906101000a900460ff168660020154856040516110369392919061488e565b60405180910390a35050505050565b61104d6132b5565b6000600a8381548110611063576110626142ab565b5b90600052602060002090600302016040518061014001604052908160008201805461108d90614309565b80601f01602080910402602001604051908101604052809291908181526020018280546110b990614309565b80156111065780601f106110db57610100808354040283529160200191611106565b820191906000526020600020905b8154815290600101906020018083116110e957829003601f168201915b505050505081526020016001820160009054906101000a900460ff1660038111156111345761113361383b565b5b60038111156111465761114561383b565b5b81526020016001820160019054906101000a900460ff16600381111561116f5761116e61383b565b5b60038111156111815761118061383b565b5b81526020016001820160029054906101000a900460ff1660ff1660ff1681526020016001820160039054906101000a900460ff1660ff1660ff1681526020016001820160049054906101000a900460ff1660ff1660ff1681526020016001820160059054906101000a900460ff1660ff1660ff1681526020016001820160069054906101000a900460ff1660ff1660ff1681526020016001820160079054906101000a900460ff1660ff1660ff1681526020016002820154815250509050604051806101800160405280826000015181526020018260200151600381111561126c5761126b61383b565b5b8152602001826040015160038111156112885761128761383b565b5b8152602001826060015160ff168152602001826080015160ff1681526020018260a0015160ff1681526020018260c0015160ff1681526020018260e0015160ff16815260200182610100015160ff16815260200182610120015181526020016112f08561131f565b73ffffffffffffffffffffffffffffffffffffffff16815260200161131485611abf565b815250915050919050565b6000806002600084815260200190815260200160002060009054906101000a900473ffffffffffffffffffffffffffffffffffffffff169050600073ffffffffffffffffffffffffffffffffffffffff168173ffffffffffffffffffffffffffffffffffffffff1614156113c8576040517f08c379a00000000000000000000000000000000000000000000000000000000081526004016113bf90614937565b60405180910390fd5b80915050919050565b60008073ffffffffffffffffffffffffffffffffffffffff168273ffffffffffffffffffffffffffffffffffffffff161415611442576040517f08c379a0000000000000000000000000000000000000000000000000000000008152600401611439906149c9565b60405180910390fd5b600360008373ffffffffffffffffffffffffffffffffffffffff1673ffffffffffffffffffffffffffffffffffffffff168152602001908152602001600020549050919050565b611491612408565b73ffffffffffffffffffffffffffffffffffffffff166114af611532565b73ffffffffffffffffffffffffffffffffffffffff1614611505576040517f08c379a00000000000000000000000000000000000000000000000000000000081526004016114fc906145cf565b60405180910390fd5b61150f6000612919565b565b606061151c33610588565b905090565b600061152d6008612324565b905090565b6000600760009054906101000a900473ffffffffffffffffffffffffffffffffffffffff16905090565b60606001805461156b90614309565b80601f016020809104026020016040519081016040528092919081815260200182805461159790614309565b80156115e45780601f106115b9576101008083540402835291602001916115e4565b820191906000526020600020905b8154815290600101906020018083116115c757829003601f168201915b5050505050905090565b6060600a805480602002602001604051908101604052809291908181526020016000905b8282101561180557838290600052602060002090600302016040518061014001604052908160008201805461164690614309565b80601f016020809104026020016040519081016040528092919081815260200182805461167290614309565b80156116bf5780601f10611694576101008083540402835291602001916116bf565b820191906000526020600020905b8154815290600101906020018083116116a257829003601f168201915b505050505081526020016001820160009054906101000a900460ff1660038111156116ed576116ec61383b565b5b60038111156116ff576116fe61383b565b5b81526020016001820160019054906101000a900460ff1660038111156117285761172761383b565b5b600381111561173a5761173961383b565b5b81526020016001820160029054906101000a900460ff1660ff1660ff1681526020016001820160039054906101000a900460ff1660ff1660ff1681526020016001820160049054906101000a900460ff1660ff1660ff1681526020016001820160059054906101000a900460ff1660ff1660ff1681526020016001820160069054906101000a900460ff1660ff1660ff1681526020016001820160079054906101000a900460ff1660ff1660ff16815260200160028201548152505081526020019060010190611612565b50505050905090565b611816612408565b73ffffffffffffffffffffffffffffffffffffffff168273ffffffffffffffffffffffffffffffffffffffff161415611884576040517f08c379a000000000000000000000000000000000000000000000000000000000815260040161187b90614a35565b60405180910390fd5b8060056000611891612408565b73ffffffffffffffffffffffffffffffffffffffff1673ffffffffffffffffffffffffffffffffffffffff16815260200190815260200160002060008473ffffffffffffffffffffffffffffffffffffffff1673ffffffffffffffffffffffffffffffffffffffff16815260200190815260200160002060006101000a81548160ff0219169083151502179055508173ffffffffffffffffffffffffffffffffffffffff1661193e612408565b73ffffffffffffffffffffffffffffffffffffffff167f17307eab39ab6107e8899845ad3d59bd9653f200f220920489ca2b5937696c3183604051611983919061362e565b60405180910390a35050565b611997612408565b73ffffffffffffffffffffffffffffffffffffffff166119b5611532565b73ffffffffffffffffffffffffffffffffffffffff1614611a0b576040517f08c379a0000000000000000000000000000000000000000000000000000000008152600401611a02906145cf565b60405180910390fd5b600960008273ffffffffffffffffffffffffffffffffffffffff1673ffffffffffffffffffffffffffffffffffffffff16815260200190815260200160002060006101000a81549060ff021916905550565b611a6e611a68612408565b836124c9565b611aad576040517f08c379a0000000000000000000000000000000000000000000000000000000008152600401611aa490614563565b60405180910390fd5b611ab9848484846129df565b50505050565b6060600b611acc83612a3b565b604051602001611add929190614b25565b6040516020818303038152906040529050919050565b611afb612408565b73ffffffffffffffffffffffffffffffffffffffff16611b19611532565b73ffffffffffffffffffffffffffffffffffffffff1614611b6f576040517f08c379a0000000000000000000000000000000000000000000000000000000008152600401611b66906145cf565b60405180910390fd5b6000611b7b6008612324565b9050611b873382612b8d565b611b916008612bab565b60008060006003811115611ba857611ba761383b565b5b856003811115611bbb57611bba61383b565b5b1415611bce576004915060069050611c4d565b60016003811115611be257611be161383b565b5b856003811115611bf557611bf461383b565b5b1415611c08576007915060089050611c4c565b60026003811115611c1c57611c1b61383b565b5b856003811115611c2f57611c2e61383b565b5b1415611c425760099150600a9050611c4b565b600b9150600c90505b5b5b60008260ff16611c678484611c629190614b49565b612803565b611c719190614681565b90506000600467ffffffffffffffff811115611c9057611c8f613e4f565b5b604051908082528060200260200182016040528015611cbe5781602001602082028036833780820191505090505b509050600181600081518110611cd757611cd66142ab565b5b602002602001019060ff16908160ff1681525050600181600181518110611d0157611d006142ab565b5b602002602001019060ff16908160ff1681525050600181600281518110611d2b57611d2a6142ab565b5b602002602001019060ff16908160ff1681525050600181600381518110611d5557611d546142ab565b5b602002602001019060ff16908160ff1681525050600080600190505b838160ff1611611e525782600c60008c6003811115611d9357611d9261383b565b5b6003811115611da557611da461383b565b5b81526020019081526020016000208360ff1681548110611dc857611dc76142ab565b5b90600052602060002090602091828204019190069054906101000a900460ff1660ff1681518110611dfc57611dfb6142ab565b5b602002602001018051809190611e1190614855565b60ff1660ff168152505060058260ff161415611e305760009150611e3f565b8180611e3b90614855565b9250505b8080611e4a90614855565b915050611d71565b50611e5d8688612bc1565b600a6040518061014001604052806040518060200160405280600081525081526020018b6003811115611e9357611e9261383b565b5b81526020018a6003811115611eab57611eaa61383b565b5b815260200184600081518110611ec457611ec36142ab565b5b602002602001015160ff16815260200184600181518110611ee857611ee76142ab565b5b602002602001015160ff16815260200184600281518110611f0c57611f0b6142ab565b5b602002602001015160ff16815260200184600381518110611f3057611f2f6142ab565b5b602002602001015160ff168152602001600160ff1681526020018c60ff168152602001600081525090806001815401808255809150506001900390600052602060002090600302016000909190919091506000820151816000019080519060200190611f9d929190613362565b5060208201518160010160006101000a81548160ff02191690836003811115611fc957611fc861383b565b5b021790555060408201518160010160016101000a81548160ff02191690836003811115611ff957611ff861383b565b5b021790555060608201518160010160026101000a81548160ff021916908360ff16021790555060808201518160010160036101000a81548160ff021916908360ff16021790555060a08201518160010160046101000a81548160ff021916908360ff16021790555060c08201518160010160056101000a81548160ff021916908360ff16021790555060e08201518160010160066101000a81548160ff021916908360ff1602179055506101008201518160010160076101000a81548160ff021916908360ff1602179055506101208201518160020155505050505050505050505050565b6000600560008473ffffffffffffffffffffffffffffffffffffffff1673ffffffffffffffffffffffffffffffffffffffff16815260200190815260200160002060008373ffffffffffffffffffffffffffffffffffffffff1673ffffffffffffffffffffffffffffffffffffffff16815260200190815260200160002060009054906101000a900460ff16905092915050565b61217a612408565b73ffffffffffffffffffffffffffffffffffffffff16612198611532565b73ffffffffffffffffffffffffffffffffffffffff16146121ee576040517f08c379a00000000000000000000000000000000000000000000000000000000081526004016121e5906145cf565b60405180910390fd5b600073ffffffffffffffffffffffffffffffffffffffff168173ffffffffffffffffffffffffffffffffffffffff16141561225e576040517f08c379a000000000000000000000000000000000000000000000000000000000815260040161225590614bef565b60405180910390fd5b61226781612919565b50565b6122738261131f565b73ffffffffffffffffffffffffffffffffffffffff163373ffffffffffffffffffffffffffffffffffffffff16146122e0576040517f08c379a00000000000000000000000000000000000000000000000000000000081526004016122d790614c5b565b60405180910390fd5b6000600a83815481106122f6576122f56142ab565b5b906000526020600020906003020190508181600001908051906020019061231e929190613362565b50505050565b600081600001549050919050565b60007f01ffc9a7000000000000000000000000000000000000000000000000000000007bffffffffffffffffffffffffffffffffffffffffffffffffffffffff1916827bffffffffffffffffffffffffffffffffffffffffffffffffffffffff1916149050919050565b60008073ffffffffffffffffffffffffffffffffffffffff166002600084815260200190815260200160002060009054906101000a900473ffffffffffffffffffffffffffffffffffffffff1673ffffffffffffffffffffffffffffffffffffffff1614159050919050565b600033905090565b816004600083815260200190815260200160002060006101000a81548173ffffffffffffffffffffffffffffffffffffffff021916908373ffffffffffffffffffffffffffffffffffffffff160217905550808273ffffffffffffffffffffffffffffffffffffffff166124838361131f565b73ffffffffffffffffffffffffffffffffffffffff167f8c5be1e5ebec7d5bd14f71427d1e84f3dd0314c0f7b2291e5b200ac8c7c3b92560405160405180910390a45050565b60006124d48261239c565b612513576040517f08c379a000000000000000000000000000000000000000000000000000000000815260040161250a90614ced565b60405180910390fd5b600061251e8361131f565b90508073ffffffffffffffffffffffffffffffffffffffff168473ffffffffffffffffffffffffffffffffffffffff16148061258d57508373ffffffffffffffffffffffffffffffffffffffff1661257584610859565b73ffffffffffffffffffffffffffffffffffffffff16145b8061259e575061259d81856120de565b5b91505092915050565b8273ffffffffffffffffffffffffffffffffffffffff166125c78261131f565b73ffffffffffffffffffffffffffffffffffffffff161461261d576040517f08c379a000000000000000000000000000000000000000000000000000000000815260040161261490614d7f565b60405180910390fd5b600073ffffffffffffffffffffffffffffffffffffffff168273ffffffffffffffffffffffffffffffffffffffff16141561268d576040517f08c379a000000000000000000000000000000000000000000000000000000000815260040161268490614e11565b60405180910390fd5b612698838383612c35565b6126a3600082612410565b6001600360008573ffffffffffffffffffffffffffffffffffffffff1673ffffffffffffffffffffffffffffffffffffffff16815260200190815260200160002060008282546126f39190614e31565b925050819055506001600360008473ffffffffffffffffffffffffffffffffffffffff1673ffffffffffffffffffffffffffffffffffffffff168152602001908152602001600020600082825461274a9190614681565b92505081905550816002600083815260200190815260200160002060006101000a81548173ffffffffffffffffffffffffffffffffffffffff021916908373ffffffffffffffffffffffffffffffffffffffff160217905550808273ffffffffffffffffffffffffffffffffffffffff168473ffffffffffffffffffffffffffffffffffffffff167fddf252ad1be2c89b69c2b068fc378daa952ba7f163c4a11628f55a4df523b3ef60405160405180910390a4505050565b6000804342336040516020016128199190614ead565b6040516020818303038152906040528051906020012060001c61283c9190614ef7565b45424160405160200161284f9190614f63565b6040516020818303038152906040528051906020012060001c6128729190614ef7565b444261287e9190614681565b6128889190614681565b6128929190614681565b61289c9190614681565b6128a69190614681565b6040516020016128b69190614f9f565b6040516020818303038152906040528051906020012060001c90506001836128de9190614fba565b60ff166001846128ee9190614fba565b60ff16826128fc9190614ef7565b6129069190614ff1565b816129119190614e31565b915050919050565b6000600760009054906101000a900473ffffffffffffffffffffffffffffffffffffffff16905081600760006101000a81548173ffffffffffffffffffffffffffffffffffffffff021916908373ffffffffffffffffffffffffffffffffffffffff1602179055508173ffffffffffffffffffffffffffffffffffffffff168173ffffffffffffffffffffffffffffffffffffffff167f8be0079c531659141344cd1fd0a4f28419497f9722a3daafe3b4186f6b6457e060405160405180910390a35050565b6129ea8484846125a7565b6129f684848484612c3a565b612a35576040517f08c379a0000000000000000000000000000000000000000000000000000000008152600401612a2c906150bd565b60405180910390fd5b50505050565b6060612a468261239c565b612a85576040517f08c379a0000000000000000000000000000000000000000000000000000000008152600401612a7c9061514f565b60405180910390fd5b6000600660008481526020019081526020016000208054612aa590614309565b80601f0160208091040260200160405190810160405280929190818152602001828054612ad190614309565b8015612b1e5780601f10612af357610100808354040283529160200191612b1e565b820191906000526020600020905b815481529060010190602001808311612b0157829003601f168201915b505050505090506000612b2f612dd1565b9050600081511415612b45578192505050612b88565b600082511115612b7a578082604051602001612b6292919061516f565b60405160208183030381529060405292505050612b88565b612b8384612de8565b925050505b919050565b612ba7828260405180602001604052806000815250612e8f565b5050565b6001816000016000828254019250508190555050565b612bca8261239c565b612c09576040517f08c379a0000000000000000000000000000000000000000000000000000000008152600401612c0090615205565b60405180910390fd5b80600660008481526020019081526020016000209080519060200190612c30929190613362565b505050565b505050565b6000612c5b8473ffffffffffffffffffffffffffffffffffffffff16612eea565b15612dc4578373ffffffffffffffffffffffffffffffffffffffff1663150b7a02612c84612408565b8786866040518563ffffffff1660e01b8152600401612ca6949392919061527a565b602060405180830381600087803b158015612cc057600080fd5b505af1925050508015612cf157506040513d601f19601f82011682018060405250810190612cee91906152db565b60015b612d74573d8060008114612d21576040519150601f19603f3d011682016040523d82523d6000602084013e612d26565b606091505b50600081511415612d6c576040517f08c379a0000000000000000000000000000000000000000000000000000000008152600401612d63906150bd565b60405180910390fd5b805181602001fd5b63150b7a0260e01b7bffffffffffffffffffffffffffffffffffffffffffffffffffffffff1916817bffffffffffffffffffffffffffffffffffffffffffffffffffffffff191614915050612dc9565b600190505b949350505050565b606060405180602001604052806000815250905090565b6060612df38261239c565b612e32576040517f08c379a0000000000000000000000000000000000000000000000000000000008152600401612e299061537a565b60405180910390fd5b6000612e3c612dd1565b90506000815111612e5c5760405180602001604052806000815250612e87565b80612e6684612efd565b604051602001612e7792919061516f565b6040516020818303038152906040525b915050919050565b612e99838361305e565b612ea66000848484612c3a565b612ee5576040517f08c379a0000000000000000000000000000000000000000000000000000000008152600401612edc906150bd565b60405180910390fd5b505050565b600080823b905060008111915050919050565b60606000821415612f45576040518060400160405280600181526020017f30000000000000000000000000000000000000000000000000000000000000008152509050613059565b600082905060005b60008214612f77578080612f6090614262565b915050600a82612f709190614ef7565b9150612f4d565b60008167ffffffffffffffff811115612f9357612f92613e4f565b5b6040519080825280601f01601f191660200182016040528015612fc55781602001600182028036833780820191505090505b5090505b6000851461305257600182612fde9190614e31565b9150600a85612fed919061539a565b6030612ff99190614681565b60f81b81838151811061300f5761300e6142ab565b5b60200101907effffffffffffffffffffffffffffffffffffffffffffffffffffffffffffff1916908160001a905350600a8561304b9190614ef7565b9450612fc9565b8093505050505b919050565b600073ffffffffffffffffffffffffffffffffffffffff168273ffffffffffffffffffffffffffffffffffffffff1614156130ce576040517f08c379a00000000000000000000000000000000000000000000000000000000081526004016130c590615417565b60405180910390fd5b6130d78161239c565b15613117576040517f08c379a000000000000000000000000000000000000000000000000000000000815260040161310e90615483565b60405180910390fd5b61312360008383612c35565b6001600360008473ffffffffffffffffffffffffffffffffffffffff1673ffffffffffffffffffffffffffffffffffffffff16815260200190815260200160002060008282546131739190614681565b92505081905550816002600083815260200190815260200160002060006101000a81548173ffffffffffffffffffffffffffffffffffffffff021916908373ffffffffffffffffffffffffffffffffffffffff160217905550808273ffffffffffffffffffffffffffffffffffffffff16600073ffffffffffffffffffffffffffffffffffffffff167fddf252ad1be2c89b69c2b068fc378daa952ba7f163c4a11628f55a4df523b3ef60405160405180910390a45050565b60405180610140016040528060608152602001600060038111156132535761325261383b565b5b81526020016000600381111561326c5761326b61383b565b5b8152602001600060ff168152602001600060ff168152602001600060ff168152602001600060ff168152602001600060ff168152602001600060ff168152602001600081525090565b60405180610180016040528060608152602001600060038111156132dc576132db61383b565b5b8152602001600060038111156132f5576132f461383b565b5b8152602001600060ff168152602001600060ff168152602001600060ff168152602001600060ff168152602001600060ff168152602001600060ff16815260200160008152602001600073ffffffffffffffffffffffffffffffffffffffff168152602001606081525090565b82805461336e90614309565b90600052602060002090601f01602090048101928261339057600085556133d7565b82601f106133a957805160ff19168380011785556133d7565b828001600101855582156133d7579182015b828111156133d65782518255916020019190600101906133bb565b5b5090506133e491906133e8565b5090565b5b808211156134015760008160009055506001016133e9565b5090565b6000604051905090565b600080fd5b600080fd5b600073ffffffffffffffffffffffffffffffffffffffff82169050919050565b600061344482613419565b9050919050565b61345481613439565b811461345f57600080fd5b50565b6000813590506134718161344b565b92915050565b60006020828403121561348d5761348c61340f565b5b600061349b84828501613462565b91505092915050565b600081519050919050565b600082825260208201905092915050565b6000819050602082019050919050565b6000819050919050565b6134e3816134d0565b82525050565b60006134f583836134da565b60208301905092915050565b6000602082019050919050565b6000613519826134a4565b61352381856134af565b935061352e836134c0565b8060005b8381101561355f57815161354688826134e9565b975061355183613501565b925050600181019050613532565b5085935050505092915050565b60006020820190508181036000830152613586818461350e565b905092915050565b60007fffffffff0000000000000000000000000000000000000000000000000000000082169050919050565b6135c38161358e565b81146135ce57600080fd5b50565b6000813590506135e0816135ba565b92915050565b6000602082840312156135fc576135fb61340f565b5b600061360a848285016135d1565b91505092915050565b60008115159050919050565b61362881613613565b82525050565b6000602082019050613643600083018461361f565b92915050565b600081519050919050565b600082825260208201905092915050565b60005b83811015613683578082015181840152602081019050613668565b83811115613692576000848401525b50505050565b6000601f19601f8301169050919050565b60006136b482613649565b6136be8185613654565b93506136ce818560208601613665565b6136d781613698565b840191505092915050565b600060208201905081810360008301526136fc81846136a9565b905092915050565b61370d816134d0565b811461371857600080fd5b50565b60008135905061372a81613704565b92915050565b6000602082840312156137465761374561340f565b5b60006137548482850161371b565b91505092915050565b61376681613439565b82525050565b6000602082019050613781600083018461375d565b92915050565b6000806040838503121561379e5761379d61340f565b5b60006137ac85828601613462565b92505060206137bd8582860161371b565b9150509250929050565b6137d0816134d0565b82525050565b60006020820190506137eb60008301846137c7565b92915050565b600082825260208201905092915050565b600061380d82613649565b61381781856137f1565b9350613827818560208601613665565b61383081613698565b840191505092915050565b7f4e487b7100000000000000000000000000000000000000000000000000000000600052602160045260246000fd5b6004811061387b5761387a61383b565b5b50565b600081905061388c8261386a565b919050565b600061389c8261387e565b9050919050565b6138ac81613891565b82525050565b600481106138c3576138c261383b565b5b50565b60008190506138d4826138b2565b919050565b60006138e4826138c6565b9050919050565b6138f4816138d9565b82525050565b600060ff82169050919050565b613910816138fa565b82525050565b60006101408301600083015184820360008601526139348282613802565b915050602083015161394960208601826138a3565b50604083015161395c60408601826138eb565b50606083015161396f6060860182613907565b5060808301516139826080860182613907565b5060a083015161399560a0860182613907565b5060c08301516139a860c0860182613907565b5060e08301516139bb60e0860182613907565b506101008301516139d0610100860182613907565b506101208301516139e56101208601826134da565b508091505092915050565b60006020820190508181036000830152613a0a8184613916565b905092915050565b600080600060608486031215613a2b57613a2a61340f565b5b6000613a3986828701613462565b9350506020613a4a86828701613462565b9250506040613a5b8682870161371b565b9150509250925092565b600061ffff82169050919050565b613a7c81613a65565b8114613a8757600080fd5b50565b600081359050613a9981613a73565b92915050565b60008060408385031215613ab657613ab561340f565b5b6000613ac48582860161371b565b9250506020613ad585828601613a8a565b9150509250929050565b613ae881613439565b82525050565b6000610180830160008301518482036000860152613b0c8282613802565b9150506020830151613b2160208601826138a3565b506040830151613b3460408601826138eb565b506060830151613b476060860182613907565b506080830151613b5a6080860182613907565b5060a0830151613b6d60a0860182613907565b5060c0830151613b8060c0860182613907565b5060e0830151613b9360e0860182613907565b50610100830151613ba8610100860182613907565b50610120830151613bbd6101208601826134da565b50610140830151613bd2610140860182613adf565b50610160830151848203610160860152613bec8282613802565b9150508091505092915050565b60006020820190508181036000830152613c138184613aee565b905092915050565b600081519050919050565b600082825260208201905092915050565b6000819050602082019050919050565b6000610140830160008301518482036000860152613c658282613802565b9150506020830151613c7a60208601826138a3565b506040830151613c8d60408601826138eb565b506060830151613ca06060860182613907565b506080830151613cb36080860182613907565b5060a0830151613cc660a0860182613907565b5060c0830151613cd960c0860182613907565b5060e0830151613cec60e0860182613907565b50610100830151613d01610100860182613907565b50610120830151613d166101208601826134da565b508091505092915050565b6000613d2d8383613c47565b905092915050565b6000602082019050919050565b6000613d4d82613c1b565b613d578185613c26565b935083602082028501613d6985613c37565b8060005b85811015613da55784840389528151613d868582613d21565b9450613d9183613d35565b925060208a01995050600181019050613d6d565b50829750879550505050505092915050565b60006020820190508181036000830152613dd18184613d42565b905092915050565b613de281613613565b8114613ded57600080fd5b50565b600081359050613dff81613dd9565b92915050565b60008060408385031215613e1c57613e1b61340f565b5b6000613e2a85828601613462565b9250506020613e3b85828601613df0565b9150509250929050565b600080fd5b600080fd5b7f4e487b7100000000000000000000000000000000000000000000000000000000600052604160045260246000fd5b613e8782613698565b810181811067ffffffffffffffff82111715613ea657613ea5613e4f565b5b80604052505050565b6000613eb9613405565b9050613ec58282613e7e565b919050565b600067ffffffffffffffff821115613ee557613ee4613e4f565b5b613eee82613698565b9050602081019050919050565b82818337600083830152505050565b6000613f1d613f1884613eca565b613eaf565b905082815260208101848484011115613f3957613f38613e4a565b5b613f44848285613efb565b509392505050565b600082601f830112613f6157613f60613e45565b5b8135613f71848260208601613f0a565b91505092915050565b60008060008060808587031215613f9457613f9361340f565b5b6000613fa287828801613462565b9450506020613fb387828801613462565b9350506040613fc48782880161371b565b925050606085013567ffffffffffffffff811115613fe557613fe4613414565b5b613ff187828801613f4c565b91505092959194509250565b614006816138fa565b811461401157600080fd5b50565b60008135905061402381613ffd565b92915050565b6004811061403657600080fd5b50565b60008135905061404881614029565b92915050565b6004811061405b57600080fd5b50565b60008135905061406d8161404e565b92915050565b600067ffffffffffffffff82111561408e5761408d613e4f565b5b61409782613698565b9050602081019050919050565b60006140b76140b284614073565b613eaf565b9050828152602081018484840111156140d3576140d2613e4a565b5b6140de848285613efb565b509392505050565b600082601f8301126140fb576140fa613e45565b5b813561410b8482602086016140a4565b91505092915050565b6000806000806080858703121561412e5761412d61340f565b5b600061413c87828801614014565b945050602061414d87828801614039565b935050604061415e8782880161405e565b925050606085013567ffffffffffffffff81111561417f5761417e613414565b5b61418b878288016140e6565b91505092959194509250565b600080604083850312156141ae576141ad61340f565b5b60006141bc85828601613462565b92505060206141cd85828601613462565b9150509250929050565b600080604083850312156141ee576141ed61340f565b5b60006141fc8582860161371b565b925050602083013567ffffffffffffffff81111561421d5761421c613414565b5b614229858286016140e6565b9150509250929050565b7f4e487b7100000000000000000000000000000000000000000000000000000000600052601160045260246000fd5b600061426d826134d0565b91507fffffffffffffffffffffffffffffffffffffffffffffffffffffffffffffffff8214156142a05761429f614233565b5b600182019050919050565b7f4e487b7100000000000000000000000000000000000000000000000000000000600052603260045260246000fd5b7f4e487b7100000000000000000000000000000000000000000000000000000000600052602260045260246000fd5b6000600282049050600182168061432157607f821691505b60208210811415614335576143346142da565b5b50919050565b7f4552433732313a20617070726f76656420717565727920666f72206e6f6e657860008201527f697374656e7420746f6b656e0000000000000000000000000000000000000000602082015250565b6000614397602c83613654565b91506143a28261433b565b604082019050919050565b600060208201905081810360008301526143c68161438a565b9050919050565b7f4552433732313a20617070726f76616c20746f2063757272656e74206f776e6560008201527f7200000000000000000000000000000000000000000000000000000000000000602082015250565b6000614429602183613654565b9150614434826143cd565b604082019050919050565b600060208201905081810360008301526144588161441c565b9050919050565b7f4552433732313a20617070726f76652063616c6c6572206973206e6f74206f7760008201527f6e6572206e6f7220617070726f76656420666f7220616c6c0000000000000000602082015250565b60006144bb603883613654565b91506144c68261445f565b604082019050919050565b600060208201905081810360008301526144ea816144ae565b9050919050565b7f4552433732313a207472616e736665722063616c6c6572206973206e6f74206f60008201527f776e6572206e6f7220617070726f766564000000000000000000000000000000602082015250565b600061454d603183613654565b9150614558826144f1565b604082019050919050565b6000602082019050818103600083015261457c81614540565b9050919050565b7f4f776e61626c653a2063616c6c6572206973206e6f7420746865206f776e6572600082015250565b60006145b9602083613654565b91506145c482614583565b602082019050919050565b600060208201905081810360008301526145e8816145ac565b9050919050565b7f4f6e6c79207065726d697474656420616464726573732063616e20657865637560008201527f7465207468697320616374696f6e000000000000000000000000000000000000602082015250565b600061464b602e83613654565b9150614656826145ef565b604082019050919050565b6000602082019050818103600083015261467a8161463e565b9050919050565b600061468c826134d0565b9150614697836134d0565b9250827fffffffffffffffffffffffffffffffffffffffffffffffffffffffffffffffff038211156146cc576146cb614233565b5b828201905092915050565b60008160011c9050919050565b6000808291508390505b600185111561472e5780860481111561470a57614709614233565b5b60018516156147195780820291505b8081029050614727856146d7565b94506146ee565b94509492505050565b6000826147475760019050614803565b816147555760009050614803565b816001811461476b5760028114614775576147a4565b6001915050614803565b60ff84111561478757614786614233565b5b8360020a91508482111561479e5761479d614233565b5b50614803565b5060208310610133831016604e8410600b84101617156147d95782820a9050838111156147d4576147d3614233565b5b614803565b6147e684848460016146e4565b925090508184048111156147fd576147fc614233565b5b81810290505b9392505050565b6000614815826134d0565b9150614820836138fa565b925061484d7fffffffffffffffffffffffffffffffffffffffffffffffffffffffffffffffff8484614737565b905092915050565b6000614860826138fa565b915060ff82141561487457614873614233565b5b600182019050919050565b614888816138fa565b82525050565b60006060820190506148a3600083018661487f565b6148b060208301856137c7565b6148bd60408301846137c7565b949350505050565b7f4552433732313a206f776e657220717565727920666f72206e6f6e657869737460008201527f656e7420746f6b656e0000000000000000000000000000000000000000000000602082015250565b6000614921602983613654565b915061492c826148c5565b604082019050919050565b6000602082019050818103600083015261495081614914565b9050919050565b7f4552433732313a2062616c616e636520717565727920666f7220746865207a6560008201527f726f206164647265737300000000000000000000000000000000000000000000602082015250565b60006149b3602a83613654565b91506149be82614957565b604082019050919050565b600060208201905081810360008301526149e2816149a6565b9050919050565b7f4552433732313a20617070726f766520746f2063616c6c657200000000000000600082015250565b6000614a1f601983613654565b9150614a2a826149e9565b602082019050919050565b60006020820190508181036000830152614a4e81614a12565b9050919050565b600081905092915050565b60008190508160005260206000209050919050565b60008154614a8281614309565b614a8c8186614a55565b94506001821660008114614aa75760018114614ab857614aeb565b60ff19831686528186019350614aeb565b614ac185614a60565b60005b83811015614ae357815481890152600182019150602081019050614ac4565b838801955050505b50505092915050565b6000614aff82613649565b614b098185614a55565b9350614b19818560208601613665565b80840191505092915050565b6000614b318285614a75565b9150614b3d8284614af4565b91508190509392505050565b6000614b54826138fa565b9150614b5f836138fa565b925082821015614b7257614b71614233565b5b828203905092915050565b7f4f776e61626c653a206e6577206f776e657220697320746865207a65726f206160008201527f6464726573730000000000000000000000000000000000000000000000000000602082015250565b6000614bd9602683613654565b9150614be482614b7d565b604082019050919050565b60006020820190508181036000830152614c0881614bcc565b9050919050565b7f4e6f74206f776e65720000000000000000000000000000000000000000000000600082015250565b6000614c45600983613654565b9150614c5082614c0f565b602082019050919050565b60006020820190508181036000830152614c7481614c38565b9050919050565b7f4552433732313a206f70657261746f7220717565727920666f72206e6f6e657860008201527f697374656e7420746f6b656e0000000000000000000000000000000000000000602082015250565b6000614cd7602c83613654565b9150614ce282614c7b565b604082019050919050565b60006020820190508181036000830152614d0681614cca565b9050919050565b7f4552433732313a207472616e73666572206f6620746f6b656e2074686174206960008201527f73206e6f74206f776e0000000000000000000000000000000000000000000000602082015250565b6000614d69602983613654565b9150614d7482614d0d565b604082019050919050565b60006020820190508181036000830152614d9881614d5c565b9050919050565b7f4552433732313a207472616e7366657220746f20746865207a65726f2061646460008201527f7265737300000000000000000000000000000000000000000000000000000000602082015250565b6000614dfb602483613654565b9150614e0682614d9f565b604082019050919050565b60006020820190508181036000830152614e2a81614dee565b9050919050565b6000614e3c826134d0565b9150614e47836134d0565b925082821015614e5a57614e59614233565b5b828203905092915050565b60008160601b9050919050565b6000614e7d82614e65565b9050919050565b6000614e8f82614e72565b9050919050565b614ea7614ea282613439565b614e84565b82525050565b6000614eb98284614e96565b60148201915081905092915050565b7f4e487b7100000000000000000000000000000000000000000000000000000000600052601260045260246000fd5b6000614f02826134d0565b9150614f0d836134d0565b925082614f1d57614f1c614ec8565b5b828204905092915050565b6000614f3382613419565b9050919050565b6000614f4582614e72565b9050919050565b614f5d614f5882614f28565b614f3a565b82525050565b6000614f6f8284614f4c565b60148201915081905092915050565b6000819050919050565b614f99614f94826134d0565b614f7e565b82525050565b6000614fab8284614f88565b60208201915081905092915050565b6000614fc5826138fa565b9150614fd0836138fa565b92508260ff03821115614fe657614fe5614233565b5b828201905092915050565b6000614ffc826134d0565b9150615007836134d0565b9250817fffffffffffffffffffffffffffffffffffffffffffffffffffffffffffffffff04831182151516156150405761503f614233565b5b828202905092915050565b7f4552433732313a207472616e7366657220746f206e6f6e20455243373231526560008201527f63656976657220696d706c656d656e7465720000000000000000000000000000602082015250565b60006150a7603283613654565b91506150b28261504b565b604082019050919050565b600060208201905081810360008301526150d68161509a565b9050919050565b7f45524337323155524953746f726167653a2055524920717565727920666f722060008201527f6e6f6e6578697374656e7420746f6b656e000000000000000000000000000000602082015250565b6000615139603183613654565b9150615144826150dd565b604082019050919050565b600060208201905081810360008301526151688161512c565b9050919050565b600061517b8285614af4565b91506151878284614af4565b91508190509392505050565b7f45524337323155524953746f726167653a2055524920736574206f66206e6f6e60008201527f6578697374656e7420746f6b656e000000000000000000000000000000000000602082015250565b60006151ef602e83613654565b91506151fa82615193565b604082019050919050565b6000602082019050818103600083015261521e816151e2565b9050919050565b600081519050919050565b600082825260208201905092915050565b600061524c82615225565b6152568185615230565b9350615266818560208601613665565b61526f81613698565b840191505092915050565b600060808201905061528f600083018761375d565b61529c602083018661375d565b6152a960408301856137c7565b81810360608301526152bb8184615241565b905095945050505050565b6000815190506152d5816135ba565b92915050565b6000602082840312156152f1576152f061340f565b5b60006152ff848285016152c6565b91505092915050565b7f4552433732314d657461646174613a2055524920717565727920666f72206e6f60008201527f6e6578697374656e7420746f6b656e0000000000000000000000000000000000602082015250565b6000615364602f83613654565b915061536f82615308565b604082019050919050565b6000602082019050818103600083015261539381615357565b9050919050565b60006153a5826134d0565b91506153b0836134d0565b9250826153c0576153bf614ec8565b5b828206905092915050565b7f4552433732313a206d696e7420746f20746865207a65726f2061646472657373600082015250565b6000615401602083613654565b915061540c826153cb565b602082019050919050565b60006020820190508181036000830152615430816153f4565b9050919050565b7f4552433732313a20746f6b656e20616c7265616479206d696e74656400000000600082015250565b600061546d601c83613654565b915061547882615437565b602082019050919050565b6000602082019050818103600083015261549c81615460565b905091905056fea26469706673582212201af6eced7c42c2fb6d0b90de1b29d1196e2e9bc292a7310e2091f03704a0db7564736f6c63430008090033",
  "immutableReferences": {},
  "source": "// SPDX-License-Identifier: MIT\npragma solidity 0.8.9;\n\nimport \"../node_modules/@openzeppelin/contracts/token/ERC721/extensions/ERC721URIStorage.sol\";\nimport \"../node_modules/@openzeppelin/contracts/utils/Counters.sol\";\nimport \"../node_modules/@openzeppelin/contracts/access/Ownable.sol\";\n\ncontract GameToken is ERC721URIStorage, Ownable {\n    event HeroLevelUp(\n        address indexed owner,\n        uint256 indexed tokenId,\n        uint8 level,\n        uint256 currXP,\n        uint256 attribute\n    );\n\n    using Counters for Counters.Counter;\n    Counters.Counter private _currentHeroId;\n\n    mapping(address => bool) private _levelUpPermittedAddress;\n\n    enum HeroType {\n        FIGHTER,\n        ROGUE,\n        MAGE,\n        TANK\n    }\n    enum HeroRarity {\n        COMMON,\n        UNCOMMON,\n        RARE,\n        LEGENDARY\n    }\n\n    struct Hero {\n        string name;\n        HeroType heroType;\n        HeroRarity rarity;\n        uint8 str;\n        uint8 con;\n        uint8 dex;\n        uint8 wis;\n        uint8 level;\n        uint8 season;\n        uint256 currXP;\n    }\n\n    struct HeroDTO {\n        string name;\n        HeroType heroType;\n        HeroRarity rarity;\n        uint8 str;\n        uint8 con;\n        uint8 dex;\n        uint8 wis;\n        uint8 level;\n        uint8 season;\n        uint256 currXP;\n        address owner;\n        string tokenURI;\n    }\n\n    Hero[] private _heroes;\n\n    string private _baseTokenURI;\n\n    mapping(HeroType => uint8[]) private _mapMint;\n\n    constructor(\n        string memory name,\n        string memory symbol,\n        string memory baseTokenURI\n    ) ERC721(name, symbol) {\n        _baseTokenURI = baseTokenURI;\n\n        _mapMint[HeroType.FIGHTER] = [0, 1, 0, 2, 3, 1];\n        _mapMint[HeroType.ROGUE] = [2, 2, 0, 3, 0, 2];\n        _mapMint[HeroType.MAGE] = [3, 3, 2, 1, 0, 3];\n        _mapMint[HeroType.TANK] = [1, 1, 0, 2, 3, 1];\n    }\n\n    function totalSupply() external view returns (uint256) {\n        return _heroes.length;\n    }\n\n    function addLevelUpPermittedAddress(address newAddress) external onlyOwner {\n        _levelUpPermittedAddress[newAddress] = true;\n    }\n\n    function removeLevelUpPermittedAddress(address newAddress)\n        external\n        onlyOwner\n    {\n        delete _levelUpPermittedAddress[newAddress];\n    }\n\n    modifier onlyLevelUpPermittedAddress() {\n        require(\n            _levelUpPermittedAddress[_msgSender()],\n            \"Only permitted address can execute this action\"\n        );\n        _;\n    }\n\n    function getHeroes() external view returns (Hero[] memory) {\n        return _heroes;\n    }\n\n    function getNextHeroId() external view returns (uint256) {\n        return _currentHeroId.current();\n    }\n\n    function mint(\n        uint8 _season,\n        HeroType _heroType,\n        HeroRarity _heroRarity,\n        string memory _tokenURI\n    ) public onlyOwner {\n        uint256 newHeroId = _currentHeroId.current();\n\n        _safeMint(msg.sender, newHeroId);\n        _currentHeroId.increment();\n\n        uint8 minAttr;\n        uint8 maxAttr;\n\n        if (_heroRarity == HeroRarity.COMMON) {\n            minAttr = 4;\n            maxAttr = 6;\n        } else if (_heroRarity == HeroRarity.UNCOMMON) {\n            minAttr = 7;\n            maxAttr = 8;\n        } else if (_heroRarity == HeroRarity.RARE) {\n            minAttr = 9;\n            maxAttr = 10;\n        } else {\n            minAttr = 11;\n            maxAttr = 12;\n        }\n\n        uint256 attrsSize = rand(maxAttr - minAttr) + minAttr;\n\n        uint8[] memory attrs = new uint8[](4);\n        attrs[0] = 1;\n        attrs[1] = 1;\n        attrs[2] = 1;\n        attrs[3] = 1;\n        uint8 attrCounter = 0;\n\n        for (uint8 i = 1; i <= attrsSize; i++) {\n            attrs[_mapMint[_heroType][attrCounter]]++;\n            if (attrCounter == 5) {\n                attrCounter = 0;\n            } else {\n                attrCounter++;\n            }\n        }\n\n        _setTokenURI(newHeroId, _tokenURI);\n        _heroes.push(\n            Hero(\n                \"\",\n                _heroType,\n                _heroRarity,\n                attrs[0],\n                attrs[1],\n                attrs[2],\n                attrs[3],\n                1,\n                _season,\n                0\n            )\n        );\n    }\n\n    function getHeroesByAddress(address owner)\n        public\n        view\n        returns (uint256[] memory)\n    {\n        uint256 heroCount = balanceOf(owner);\n\n        if (heroCount == 0) {\n            return new uint256[](0);\n        } else {\n            uint256[] memory ret = new uint256[](heroCount);\n            uint256 i;\n            uint256 curIndex = 0;\n\n            for (i = 0; i < _currentHeroId.current(); i++) {\n                if (ownerOf(i) == owner) {\n                    ret[curIndex++] = i;\n                }\n            }\n\n            return ret;\n        }\n    }\n\n    function getMyHeroes() external view returns (uint256[] memory) {\n        return getHeroesByAddress(msg.sender);\n    }\n\n    function getHero(uint256 _heroId) external view returns (Hero memory) {\n        return _heroes[_heroId];\n    }\n\n    function getHeroComplete(uint256 _heroId)\n        external\n        view\n        returns (HeroDTO memory)\n    {\n        Hero memory h = _heroes[_heroId];\n\n        return\n            HeroDTO(\n                h.name,\n                h.heroType,\n                h.rarity,\n                h.str,\n                h.con,\n                h.dex,\n                h.wis,\n                h.level,\n                h.season,\n                h.currXP,\n                ownerOf(_heroId),\n                tokenURI(_heroId)\n            );\n    }\n\n    function setName(uint256 _heroId, string memory _name) external {\n        require(msg.sender == ownerOf(_heroId), \"Not owner\");\n        Hero storage hero = _heroes[_heroId];\n\n        hero.name = _name;\n    }\n\n    function levelUp(uint256 _heroId, uint16 _xp)\n        external\n        onlyLevelUpPermittedAddress\n    {\n        Hero storage hero = _heroes[_heroId];\n\n        hero.currXP += _xp;\n\n        address owner = ownerOf(_heroId);\n\n        uint256 random;\n\n        if (hero.currXP >= 2**hero.level) {\n            hero.level++;\n            hero.currXP = 0;\n\n            random = rand(3);\n\n            if (random == 0) {\n                hero.str++;\n            } else if (random == 1) {\n                hero.con++;\n            } else if (random == 2) {\n                hero.dex++;\n            } else if (random == 3) {\n                hero.wis++;\n            }\n        }\n\n        emit HeroLevelUp(owner, _heroId, hero.level, hero.currXP, random);\n    }\n\n    function rand(uint8 limit) private view returns (uint256) {\n        uint256 seed = uint256(\n            keccak256(\n                abi.encodePacked(\n                    block.timestamp +\n                        block.difficulty +\n                        ((\n                            uint256(keccak256(abi.encodePacked(block.coinbase)))\n                        ) / (block.timestamp)) +\n                        block.gaslimit +\n                        ((uint256(keccak256(abi.encodePacked(msg.sender)))) /\n                            (block.timestamp)) +\n                        block.number\n                )\n            )\n        );\n\n        return (seed - ((seed / (limit + 1)) * (limit + 1)));\n    }\n\n    function tokenURI(uint256 tokenId)\n        public\n        view\n        virtual\n        override\n        returns (string memory)\n    {\n        return string(abi.encodePacked(_baseTokenURI, super.tokenURI(tokenId)));\n    }\n}\n",
  "sourcePath": "/home/rfaita/game/nft-game/contract/contracts/GameToken.sol",
  "compiler": {
    "name": "solc",
    "version": "0.8.9+commit.e5eed63a.Emscripten.clang"
  },
  "schemaVersion": "3.4.4",
  "updatedAt": "2021-12-27T19:02:37.832Z",
  "networkType": "ethereum",
  "devdoc": {
    "kind": "dev",
    "methods": {
      "approve(address,uint256)": {
        "details": "See {IERC721-approve}."
      },
      "balanceOf(address)": {
        "details": "See {IERC721-balanceOf}."
      },
      "getApproved(uint256)": {
        "details": "See {IERC721-getApproved}."
      },
      "isApprovedForAll(address,address)": {
        "details": "See {IERC721-isApprovedForAll}."
      },
      "name()": {
        "details": "See {IERC721Metadata-name}."
      },
      "owner()": {
        "details": "Returns the address of the current owner."
      },
      "ownerOf(uint256)": {
        "details": "See {IERC721-ownerOf}."
      },
      "renounceOwnership()": {
        "details": "Leaves the contract without owner. It will not be possible to call `onlyOwner` functions anymore. Can only be called by the current owner. NOTE: Renouncing ownership will leave the contract without an owner, thereby removing any functionality that is only available to the owner."
      },
      "safeTransferFrom(address,address,uint256)": {
        "details": "See {IERC721-safeTransferFrom}."
      },
      "safeTransferFrom(address,address,uint256,bytes)": {
        "details": "See {IERC721-safeTransferFrom}."
      },
      "setApprovalForAll(address,bool)": {
        "details": "See {IERC721-setApprovalForAll}."
      },
      "supportsInterface(bytes4)": {
        "details": "See {IERC165-supportsInterface}."
      },
      "symbol()": {
        "details": "See {IERC721Metadata-symbol}."
      },
      "tokenURI(uint256)": {
        "details": "See {IERC721Metadata-tokenURI}."
      },
      "transferFrom(address,address,uint256)": {
        "details": "See {IERC721-transferFrom}."
      },
      "transferOwnership(address)": {
        "details": "Transfers ownership of the contract to a new account (`newOwner`). Can only be called by the current owner."
      }
    },
    "version": 1
  },
  "userdoc": {
    "kind": "user",
    "methods": {},
    "version": 1
  }
}