{
  "contractName": "GameToken",
  "abi": [
    {
      "inputs": [
        {
          "internalType": "string",
          "name": "name",
          "type": "string"
        },
        {
          "internalType": "string",
          "name": "symbol",
          "type": "string"
        },
        {
          "internalType": "string",
          "name": "baseTokenURI",
          "type": "string"
        }
      ],
      "stateMutability": "nonpayable",
      "type": "constructor"
    },
    {
      "anonymous": false,
      "inputs": [
        {
          "indexed": true,
          "internalType": "address",
          "name": "owner",
          "type": "address"
        },
        {
          "indexed": true,
          "internalType": "address",
          "name": "approved",
          "type": "address"
        },
        {
          "indexed": true,
          "internalType": "uint256",
          "name": "tokenId",
          "type": "uint256"
        }
      ],
      "name": "Approval",
      "type": "event"
    },
    {
      "anonymous": false,
      "inputs": [
        {
          "indexed": true,
          "internalType": "address",
          "name": "owner",
          "type": "address"
        },
        {
          "indexed": true,
          "internalType": "address",
          "name": "operator",
          "type": "address"
        },
        {
          "indexed": false,
          "internalType": "bool",
          "name": "approved",
          "type": "bool"
        }
      ],
      "name": "ApprovalForAll",
      "type": "event"
    },
    {
      "anonymous": false,
      "inputs": [
        {
          "indexed": true,
          "internalType": "uint256",
          "name": "tokenId",
          "type": "uint256"
        },
        {
          "indexed": true,
          "internalType": "uint8",
          "name": "level",
          "type": "uint8"
        }
      ],
      "name": "HeroLevelUp",
      "type": "event"
    },
    {
      "anonymous": false,
      "inputs": [
        {
          "indexed": true,
          "internalType": "uint256",
          "name": "tokenId",
          "type": "uint256"
        },
        {
          "indexed": true,
          "internalType": "uint16",
          "name": "currXP",
          "type": "uint16"
        }
      ],
      "name": "NewCurrXP",
      "type": "event"
    },
    {
      "anonymous": false,
      "inputs": [
        {
          "indexed": true,
          "internalType": "address",
          "name": "previousOwner",
          "type": "address"
        },
        {
          "indexed": true,
          "internalType": "address",
          "name": "newOwner",
          "type": "address"
        }
      ],
      "name": "OwnershipTransferred",
      "type": "event"
    },
    {
      "anonymous": false,
      "inputs": [
        {
          "indexed": true,
          "internalType": "address",
          "name": "from",
          "type": "address"
        },
        {
          "indexed": true,
          "internalType": "address",
          "name": "to",
          "type": "address"
        },
        {
          "indexed": true,
          "internalType": "uint256",
          "name": "tokenId",
          "type": "uint256"
        }
      ],
      "name": "Transfer",
      "type": "event"
    },
    {
      "inputs": [],
      "name": "_battleAddress",
      "outputs": [
        {
          "internalType": "address",
          "name": "",
          "type": "address"
        }
      ],
      "stateMutability": "view",
      "type": "function",
      "constant": true
    },
    {
      "inputs": [],
      "name": "_itemShopAddress",
      "outputs": [
        {
          "internalType": "address",
          "name": "",
          "type": "address"
        }
      ],
      "stateMutability": "view",
      "type": "function",
      "constant": true
    },
    {
      "inputs": [
        {
          "internalType": "address",
          "name": "to",
          "type": "address"
        },
        {
          "internalType": "uint256",
          "name": "tokenId",
          "type": "uint256"
        }
      ],
      "name": "approve",
      "outputs": [],
      "stateMutability": "nonpayable",
      "type": "function"
    },
    {
      "inputs": [
        {
          "internalType": "address",
          "name": "owner",
          "type": "address"
        }
      ],
      "name": "balanceOf",
      "outputs": [
        {
          "internalType": "uint256",
          "name": "",
          "type": "uint256"
        }
      ],
      "stateMutability": "view",
      "type": "function",
      "constant": true
    },
    {
      "inputs": [
        {
          "internalType": "uint256",
          "name": "tokenId",
          "type": "uint256"
        }
      ],
      "name": "getApproved",
      "outputs": [
        {
          "internalType": "address",
          "name": "",
          "type": "address"
        }
      ],
      "stateMutability": "view",
      "type": "function",
      "constant": true
    },
    {
      "inputs": [
        {
          "internalType": "address",
          "name": "owner",
          "type": "address"
        },
        {
          "internalType": "address",
          "name": "operator",
          "type": "address"
        }
      ],
      "name": "isApprovedForAll",
      "outputs": [
        {
          "internalType": "bool",
          "name": "",
          "type": "bool"
        }
      ],
      "stateMutability": "view",
      "type": "function",
      "constant": true
    },
    {
      "inputs": [],
      "name": "name",
      "outputs": [
        {
          "internalType": "string",
          "name": "",
          "type": "string"
        }
      ],
      "stateMutability": "view",
      "type": "function",
      "constant": true
    },
    {
      "inputs": [],
      "name": "owner",
      "outputs": [
        {
          "internalType": "address",
          "name": "",
          "type": "address"
        }
      ],
      "stateMutability": "view",
      "type": "function",
      "constant": true
    },
    {
      "inputs": [
        {
          "internalType": "uint256",
          "name": "tokenId",
          "type": "uint256"
        }
      ],
      "name": "ownerOf",
      "outputs": [
        {
          "internalType": "address",
          "name": "",
          "type": "address"
        }
      ],
      "stateMutability": "view",
      "type": "function",
      "constant": true
    },
    {
      "inputs": [],
      "name": "renounceOwnership",
      "outputs": [],
      "stateMutability": "nonpayable",
      "type": "function"
    },
    {
      "inputs": [
        {
          "internalType": "address",
          "name": "from",
          "type": "address"
        },
        {
          "internalType": "address",
          "name": "to",
          "type": "address"
        },
        {
          "internalType": "uint256",
          "name": "tokenId",
          "type": "uint256"
        }
      ],
      "name": "safeTransferFrom",
      "outputs": [],
      "stateMutability": "nonpayable",
      "type": "function"
    },
    {
      "inputs": [
        {
          "internalType": "address",
          "name": "from",
          "type": "address"
        },
        {
          "internalType": "address",
          "name": "to",
          "type": "address"
        },
        {
          "internalType": "uint256",
          "name": "tokenId",
          "type": "uint256"
        },
        {
          "internalType": "bytes",
          "name": "_data",
          "type": "bytes"
        }
      ],
      "name": "safeTransferFrom",
      "outputs": [],
      "stateMutability": "nonpayable",
      "type": "function"
    },
    {
      "inputs": [
        {
          "internalType": "address",
          "name": "operator",
          "type": "address"
        },
        {
          "internalType": "bool",
          "name": "approved",
          "type": "bool"
        }
      ],
      "name": "setApprovalForAll",
      "outputs": [],
      "stateMutability": "nonpayable",
      "type": "function"
    },
    {
      "inputs": [
        {
          "internalType": "bytes4",
          "name": "interfaceId",
          "type": "bytes4"
        }
      ],
      "name": "supportsInterface",
      "outputs": [
        {
          "internalType": "bool",
          "name": "",
          "type": "bool"
        }
      ],
      "stateMutability": "view",
      "type": "function",
      "constant": true
    },
    {
      "inputs": [],
      "name": "symbol",
      "outputs": [
        {
          "internalType": "string",
          "name": "",
          "type": "string"
        }
      ],
      "stateMutability": "view",
      "type": "function",
      "constant": true
    },
    {
      "inputs": [
        {
          "internalType": "address",
          "name": "from",
          "type": "address"
        },
        {
          "internalType": "address",
          "name": "to",
          "type": "address"
        },
        {
          "internalType": "uint256",
          "name": "tokenId",
          "type": "uint256"
        }
      ],
      "name": "transferFrom",
      "outputs": [],
      "stateMutability": "nonpayable",
      "type": "function"
    },
    {
      "inputs": [
        {
          "internalType": "address",
          "name": "newOwner",
          "type": "address"
        }
      ],
      "name": "transferOwnership",
      "outputs": [],
      "stateMutability": "nonpayable",
      "type": "function"
    },
    {
      "inputs": [
        {
          "internalType": "address",
          "name": "_newBattleAddress",
          "type": "address"
        }
      ],
      "name": "setBattleAddress",
      "outputs": [],
      "stateMutability": "nonpayable",
      "type": "function"
    },
    {
      "inputs": [
        {
          "internalType": "address",
          "name": "_newItemShopAddress",
          "type": "address"
        }
      ],
      "name": "setItemShopAddress",
      "outputs": [],
      "stateMutability": "nonpayable",
      "type": "function"
    },
    {
      "inputs": [],
      "name": "getHeroes",
      "outputs": [
        {
          "components": [
            {
              "internalType": "string",
              "name": "name",
              "type": "string"
            },
            {
              "internalType": "enum GameToken.HeroType",
              "name": "heroType",
              "type": "uint8"
            },
            {
              "internalType": "enum GameToken.HeroRarity",
              "name": "rarity",
              "type": "uint8"
            },
            {
              "internalType": "uint8",
              "name": "str",
              "type": "uint8"
            },
            {
              "internalType": "uint8",
              "name": "con",
              "type": "uint8"
            },
            {
              "internalType": "uint8",
              "name": "dex",
              "type": "uint8"
            },
            {
              "internalType": "uint8",
              "name": "wis",
              "type": "uint8"
            },
            {
              "internalType": "uint8",
              "name": "level",
              "type": "uint8"
            },
            {
              "internalType": "uint16",
              "name": "currXP",
              "type": "uint16"
            }
          ],
          "internalType": "struct GameToken.Hero[]",
          "name": "",
          "type": "tuple[]"
        }
      ],
      "stateMutability": "view",
      "type": "function",
      "constant": true
    },
    {
      "inputs": [],
      "name": "getCurrentHeroId",
      "outputs": [
        {
          "internalType": "uint256",
          "name": "",
          "type": "uint256"
        }
      ],
      "stateMutability": "view",
      "type": "function",
      "constant": true
    },
    {
      "inputs": [
        {
          "internalType": "enum GameToken.HeroType",
          "name": "_heroType",
          "type": "uint8"
        },
        {
          "internalType": "enum GameToken.HeroRarity",
          "name": "_heroRarity",
          "type": "uint8"
        },
        {
          "internalType": "string",
          "name": "_tokenURI",
          "type": "string"
        }
      ],
      "name": "mint",
      "outputs": [],
      "stateMutability": "nonpayable",
      "type": "function"
    },
    {
      "inputs": [
        {
          "internalType": "address",
          "name": "owner",
          "type": "address"
        }
      ],
      "name": "getHeroesByAddress",
      "outputs": [
        {
          "internalType": "uint256[]",
          "name": "",
          "type": "uint256[]"
        }
      ],
      "stateMutability": "view",
      "type": "function",
      "constant": true
    },
    {
      "inputs": [],
      "name": "getMyHeroes",
      "outputs": [
        {
          "internalType": "uint256[]",
          "name": "",
          "type": "uint256[]"
        }
      ],
      "stateMutability": "view",
      "type": "function",
      "constant": true
    },
    {
      "inputs": [
        {
          "internalType": "uint256",
          "name": "_heroId",
          "type": "uint256"
        }
      ],
      "name": "getHero",
      "outputs": [
        {
          "components": [
            {
              "internalType": "string",
              "name": "name",
              "type": "string"
            },
            {
              "internalType": "enum GameToken.HeroType",
              "name": "heroType",
              "type": "uint8"
            },
            {
              "internalType": "enum GameToken.HeroRarity",
              "name": "rarity",
              "type": "uint8"
            },
            {
              "internalType": "uint8",
              "name": "str",
              "type": "uint8"
            },
            {
              "internalType": "uint8",
              "name": "con",
              "type": "uint8"
            },
            {
              "internalType": "uint8",
              "name": "dex",
              "type": "uint8"
            },
            {
              "internalType": "uint8",
              "name": "wis",
              "type": "uint8"
            },
            {
              "internalType": "uint8",
              "name": "level",
              "type": "uint8"
            },
            {
              "internalType": "uint16",
              "name": "currXP",
              "type": "uint16"
            }
          ],
          "internalType": "struct GameToken.Hero",
          "name": "",
          "type": "tuple"
        }
      ],
      "stateMutability": "view",
      "type": "function",
      "constant": true
    },
    {
      "inputs": [
        {
          "internalType": "uint256",
          "name": "_heroId",
          "type": "uint256"
        },
        {
          "internalType": "string",
          "name": "_name",
          "type": "string"
        }
      ],
      "name": "setName",
      "outputs": [],
      "stateMutability": "nonpayable",
      "type": "function"
    },
    {
      "inputs": [
        {
          "internalType": "uint256",
          "name": "_heroId",
          "type": "uint256"
        },
        {
          "internalType": "uint16",
          "name": "_xp",
          "type": "uint16"
        }
      ],
      "name": "levelUp",
      "outputs": [],
      "stateMutability": "nonpayable",
      "type": "function"
    },
    {
      "inputs": [
        {
          "internalType": "uint256",
          "name": "tokenId",
          "type": "uint256"
        }
      ],
      "name": "tokenURI",
      "outputs": [
        {
          "internalType": "string",
          "name": "",
          "type": "string"
        }
      ],
      "stateMutability": "view",
      "type": "function",
      "constant": true
    }
  ],
  "bytecode": "0x60806040523480156200001157600080fd5b506040516200585e3803806200585e8339818101604052810190620000379190620006c6565b8282816000908051906020019062000051929190620003cb565b5080600190805190602001906200006a929190620003cb565b5050506200008d62000081620002fd60201b60201c565b6200030560201b60201c565b80600c9080519060200190620000a5929190620003cb565b506040518060c00160405280600060ff168152602001600160ff168152602001600060ff168152602001600260ff168152602001600360ff168152602001600160ff16815250600d60008060038111156200010557620001046200077f565b5b60038111156200011a57620001196200077f565b5b8152602001908152602001600020906006620001389291906200045c565b506040518060c00160405280600260ff168152602001600260ff168152602001600060ff168152602001600360ff168152602001600060ff168152602001600260ff16815250600d6000600160038111156200019957620001986200077f565b5b6003811115620001ae57620001ad6200077f565b5b8152602001908152602001600020906006620001cc9291906200045c565b506040518060c00160405280600360ff168152602001600360ff168152602001600260ff168152602001600160ff168152602001600060ff168152602001600360ff16815250600d6000600260038111156200022d576200022c6200077f565b5b60038111156200024257620002416200077f565b5b8152602001908152602001600020906006620002609291906200045c565b506040518060c00160405280600160ff168152602001600160ff168152602001600060ff168152602001600260ff168152602001600360ff168152602001600160ff16815250600d6000600380811115620002c057620002bf6200077f565b5b6003811115620002d557620002d46200077f565b5b8152602001908152602001600020906006620002f39291906200045c565b5050505062000813565b600033905090565b6000600760009054906101000a900473ffffffffffffffffffffffffffffffffffffffff16905081600760006101000a81548173ffffffffffffffffffffffffffffffffffffffff021916908373ffffffffffffffffffffffffffffffffffffffff1602179055508173ffffffffffffffffffffffffffffffffffffffff168173ffffffffffffffffffffffffffffffffffffffff167f8be0079c531659141344cd1fd0a4f28419497f9722a3daafe3b4186f6b6457e060405160405180910390a35050565b828054620003d990620007dd565b90600052602060002090601f016020900481019282620003fd576000855562000449565b82601f106200041857805160ff191683800117855562000449565b8280016001018555821562000449579182015b82811115620004485782518255916020019190600101906200042b565b5b5090506200045891906200050a565b5090565b82805482825590600052602060002090601f01602090048101928215620004f75791602002820160005b83821115620004c657835183826101000a81548160ff021916908360ff160217905550926020019260010160208160000104928301926001030262000486565b8015620004f55782816101000a81549060ff0219169055600101602081600001049283019260010302620004c6565b505b5090506200050691906200050a565b5090565b5b80821115620005255760008160009055506001016200050b565b5090565b6000604051905090565b600080fd5b600080fd5b600080fd5b600080fd5b6000601f19601f8301169050919050565b7f4e487b7100000000000000000000000000000000000000000000000000000000600052604160045260246000fd5b620005928262000547565b810181811067ffffffffffffffff82111715620005b457620005b362000558565b5b80604052505050565b6000620005c962000529565b9050620005d7828262000587565b919050565b600067ffffffffffffffff821115620005fa57620005f962000558565b5b620006058262000547565b9050602081019050919050565b60005b838110156200063257808201518184015260208101905062000615565b8381111562000642576000848401525b50505050565b60006200065f6200065984620005dc565b620005bd565b9050828152602081018484840111156200067e576200067d62000542565b5b6200068b84828562000612565b509392505050565b600082601f830112620006ab57620006aa6200053d565b5b8151620006bd84826020860162000648565b91505092915050565b600080600060608486031215620006e257620006e162000533565b5b600084015167ffffffffffffffff81111562000703576200070262000538565b5b620007118682870162000693565b935050602084015167ffffffffffffffff81111562000735576200073462000538565b5b620007438682870162000693565b925050604084015167ffffffffffffffff81111562000767576200076662000538565b5b620007758682870162000693565b9150509250925092565b7f4e487b7100000000000000000000000000000000000000000000000000000000600052602160045260246000fd5b7f4e487b7100000000000000000000000000000000000000000000000000000000600052602260045260246000fd5b60006002820490506001821680620007f657607f821691505b602082108114156200080d576200080c620007ae565b5b50919050565b61503b80620008236000396000f3fe608060405234801561001057600080fd5b50600436106101c35760003560e01c806370a08231116100f9578063a22cb46511610097578063c87b56dd11610071578063c87b56dd146104de578063e985e9c51461050e578063f2fde38b1461053e578063fe55932a1461055a576101c3565b8063a22cb4651461048a578063b88d4fde146104a6578063c721b34b146104c2576101c3565b8063806f5283116100d3578063806f5283146104125780638da5cb5b1461043057806395d89b411461044e5780639a8d28821461046c576101c3565b806370a08231146103ba578063715018a6146103ea57806376139393146103f4576101c3565b806323b872dd11610166578063484a203211610140578063484a203214610334578063518dec2c146103505780636352211e1461036c5780636d8411b01461039c576101c3565b806323b872dd146102de57806329c79449146102fa57806342842e0e14610318576101c3565b8063081812fc116101a2578063081812fc14610246578063095ea7b31461027657806310d44ae01461029257806321d80111146102ae576101c3565b80625597e3146101c857806301ffc9a7146101f857806306fdde0314610228575b600080fd5b6101e260048036038101906101dd919061317e565b610576565b6040516101ef9190613273565b60405180910390f35b610212600480360381019061020d91906132ed565b6106d3565b60405161021f9190613335565b60405180910390f35b6102306107b5565b60405161023d91906133e9565b60405180910390f35b610260600480360381019061025b9190613437565b610847565b60405161026d9190613473565b60405180910390f35b610290600480360381019061028b919061348e565b6108cc565b005b6102ac60048036038101906102a7919061364d565b6109e4565b005b6102c860048036038101906102c39190613437565b610fc0565b6040516102d591906138c3565b60405180910390f35b6102f860048036038101906102f391906138e5565b6111b6565b005b610302611216565b60405161030f9190613473565b60405180910390f35b610332600480360381019061032d91906138e5565b61123c565b005b61034e60048036038101906103499190613964565b61125c565b005b61036a6004803603810190610365919061317e565b6115f3565b005b61038660048036038101906103819190613437565b6116b3565b6040516103939190613473565b60405180910390f35b6103a4611765565b6040516103b191906139b3565b60405180910390f35b6103d460048036038101906103cf919061317e565b611776565b6040516103e191906139b3565b60405180910390f35b6103f261182e565b005b6103fc6118b6565b6040516104099190613473565b60405180910390f35b61041a6118dc565b6040516104279190613273565b60405180910390f35b6104386118ec565b6040516104459190613473565b60405180910390f35b610456611916565b60405161046391906133e9565b60405180910390f35b6104746119a8565b6040516104819190613b55565b60405180910390f35b6104a4600480360381019061049f9190613ba3565b611bc1565b005b6104c060048036038101906104bb9190613c84565b611d42565b005b6104dc60048036038101906104d7919061317e565b611da4565b005b6104f860048036038101906104f39190613437565b611e64565b60405161050591906133e9565b60405180910390f35b61052860048036038101906105239190613d07565b611e98565b6040516105359190613335565b60405180910390f35b6105586004803603810190610553919061317e565b611f2c565b005b610574600480360381019061056f9190613d47565b612024565b005b6060600061058383611776565b905060008114156105e057600067ffffffffffffffff8111156105a9576105a8613522565b5b6040519080825280602002602001820160405280156105d75781602001602082028036833780820191505090505b509150506106ce565b60008167ffffffffffffffff8111156105fc576105fb613522565b5b60405190808252806020026020018201604052801561062a5781602001602082028036833780820191505090505b50905060008060009050600091505b61064360086120de565b8210156106c6578573ffffffffffffffffffffffffffffffffffffffff1661066a836116b3565b73ffffffffffffffffffffffffffffffffffffffff1614156106b3578183828061069390613dd2565b9350815181106106a6576106a5613e1b565b5b6020026020010181815250505b81806106be90613dd2565b925050610639565b829450505050505b919050565b60007f80ac58cd000000000000000000000000000000000000000000000000000000007bffffffffffffffffffffffffffffffffffffffffffffffffffffffff1916827bffffffffffffffffffffffffffffffffffffffffffffffffffffffff1916148061079e57507f5b5e139f000000000000000000000000000000000000000000000000000000007bffffffffffffffffffffffffffffffffffffffffffffffffffffffff1916827bffffffffffffffffffffffffffffffffffffffffffffffffffffffff1916145b806107ae57506107ad826120ec565b5b9050919050565b6060600080546107c490613e79565b80601f01602080910402602001604051908101604052809291908181526020018280546107f090613e79565b801561083d5780601f106108125761010080835404028352916020019161083d565b820191906000526020600020905b81548152906001019060200180831161082057829003601f168201915b5050505050905090565b600061085282612156565b610891576040517f08c379a000000000000000000000000000000000000000000000000000000000815260040161088890613f1d565b60405180910390fd5b6004600083815260200190815260200160002060009054906101000a900473ffffffffffffffffffffffffffffffffffffffff169050919050565b60006108d7826116b3565b90508073ffffffffffffffffffffffffffffffffffffffff168373ffffffffffffffffffffffffffffffffffffffff161415610948576040517f08c379a000000000000000000000000000000000000000000000000000000000815260040161093f90613faf565b60405180910390fd5b8073ffffffffffffffffffffffffffffffffffffffff166109676121c2565b73ffffffffffffffffffffffffffffffffffffffff1614806109965750610995816109906121c2565b611e98565b5b6109d5576040517f08c379a00000000000000000000000000000000000000000000000000000000081526004016109cc90614041565b60405180910390fd5b6109df83836121ca565b505050565b6109ec6121c2565b73ffffffffffffffffffffffffffffffffffffffff16610a0a6118ec565b73ffffffffffffffffffffffffffffffffffffffff1614610a60576040517f08c379a0000000000000000000000000000000000000000000000000000000008152600401610a57906140ad565b60405180910390fd5b6000610a6c60086120de565b905060008060006003811115610a8557610a84613706565b5b856003811115610a9857610a97613706565b5b1415610aab576004915060069050610b2a565b60016003811115610abf57610abe613706565b5b856003811115610ad257610ad1613706565b5b1415610ae5576007915060089050610b29565b60026003811115610af957610af8613706565b5b856003811115610b0c57610b0b613706565b5b1415610b1f5760099150600a9050610b28565b600b9150600c90505b5b5b60008260ff16610b448484610b3f91906140cd565b612283565b610b4e9190614101565b90506000600467ffffffffffffffff811115610b6d57610b6c613522565b5b604051908082528060200260200182016040528015610b9b5781602001602082028036833780820191505090505b509050600181600081518110610bb457610bb3613e1b565b5b602002602001019060ff16908160ff1681525050600181600181518110610bde57610bdd613e1b565b5b602002602001019060ff16908160ff1681525050600181600281518110610c0857610c07613e1b565b5b602002602001019060ff16908160ff1681525050600181600381518110610c3257610c31613e1b565b5b602002602001019060ff16908160ff1681525050600080600190505b838160ff1611610d2f5782600d60008c6003811115610c7057610c6f613706565b5b6003811115610c8257610c81613706565b5b81526020019081526020016000208360ff1681548110610ca557610ca4613e1b565b5b90600052602060002090602091828204019190069054906101000a900460ff1660ff1681518110610cd957610cd8613e1b565b5b602002602001018051809190610cee90614157565b60ff1660ff168152505060058260ff161415610d0d5760009150610d1c565b8180610d1890614157565b9250505b8080610d2790614157565b915050610c4e565b50610d3a3387612399565b610d4486886123b7565b600b6040518061012001604052806040518060200160405280600081525081526020018b6003811115610d7a57610d79613706565b5b81526020018a6003811115610d9257610d91613706565b5b815260200184600081518110610dab57610daa613e1b565b5b602002602001015160ff16815260200184600181518110610dcf57610dce613e1b565b5b602002602001015160ff16815260200184600281518110610df357610df2613e1b565b5b602002602001015160ff16815260200184600381518110610e1757610e16613e1b565b5b602002602001015160ff168152602001600160ff168152602001600061ffff1681525090806001815401808255809150506001900390600052602060002090600202016000909190919091506000820151816000019080519060200190610e7f929190612fe6565b5060208201518160010160006101000a81548160ff02191690836003811115610eab57610eaa613706565b5b021790555060408201518160010160016101000a81548160ff02191690836003811115610edb57610eda613706565b5b021790555060608201518160010160026101000a81548160ff021916908360ff16021790555060808201518160010160036101000a81548160ff021916908360ff16021790555060a08201518160010160046101000a81548160ff021916908360ff16021790555060c08201518160010160056101000a81548160ff021916908360ff16021790555060e08201518160010160066101000a81548160ff021916908360ff1602179055506101008201518160010160076101000a81548161ffff021916908361ffff1602179055505050610fb5600861242b565b505050505050505050565b610fc861306c565b600b8281548110610fdc57610fdb613e1b565b5b90600052602060002090600202016040518061012001604052908160008201805461100690613e79565b80601f016020809104026020016040519081016040528092919081815260200182805461103290613e79565b801561107f5780601f106110545761010080835404028352916020019161107f565b820191906000526020600020905b81548152906001019060200180831161106257829003601f168201915b505050505081526020016001820160009054906101000a900460ff1660038111156110ad576110ac613706565b5b60038111156110bf576110be613706565b5b81526020016001820160019054906101000a900460ff1660038111156110e8576110e7613706565b5b60038111156110fa576110f9613706565b5b81526020016001820160029054906101000a900460ff1660ff1660ff1681526020016001820160039054906101000a900460ff1660ff1660ff1681526020016001820160049054906101000a900460ff1660ff1660ff1681526020016001820160059054906101000a900460ff1660ff1660ff1681526020016001820160069054906101000a900460ff1660ff1660ff1681526020016001820160079054906101000a900461ffff1661ffff1661ffff16815250509050919050565b6111c76111c16121c2565b82612441565b611206576040517f08c379a00000000000000000000000000000000000000000000000000000000081526004016111fd906141f3565b60405180910390fd5b61121183838361251f565b505050565b600a60009054906101000a900473ffffffffffffffffffffffffffffffffffffffff1681565b61125783838360405180602001604052806000815250611d42565b505050565b600960009054906101000a900473ffffffffffffffffffffffffffffffffffffffff1673ffffffffffffffffffffffffffffffffffffffff163373ffffffffffffffffffffffffffffffffffffffff1614806113055750600a60009054906101000a900473ffffffffffffffffffffffffffffffffffffffff1673ffffffffffffffffffffffffffffffffffffffff163373ffffffffffffffffffffffffffffffffffffffff16145b611344576040517f08c379a000000000000000000000000000000000000000000000000000000000815260040161133b90614285565b60405180910390fd5b6000600b838154811061135a57611359613e1b565b5b90600052602060002090600202019050818160010160078282829054906101000a900461ffff1661138b91906142a5565b92506101000a81548161ffff021916908361ffff1602179055508060010160079054906101000a900461ffff1661ffff16837f5e4984a28872a040fc1a681e4330b49cbce17ae15a7202ad2fa0e330aa3654d960405160405180910390a38060010160069054906101000a900460ff1660026114079190614410565b8160010160079054906101000a900461ffff1661ffff16106115ee5780600101600681819054906101000a900460ff168092919061144490614157565b91906101000a81548160ff021916908360ff1602179055505060008160010160076101000a81548161ffff021916908361ffff16021790555060006114896003612283565b905060008114156114d35781600101600281819054906101000a900460ff16809291906114b590614157565b91906101000a81548160ff021916908360ff160217905550506115aa565b600181141561151b5781600101600381819054906101000a900460ff16809291906114fd90614157565b91906101000a81548160ff021916908360ff160217905550506115a9565b60028114156115635781600101600481819054906101000a900460ff168092919061154590614157565b91906101000a81548160ff021916908360ff160217905550506115a8565b60038114156115a75781600101600581819054906101000a900460ff168092919061158d90614157565b91906101000a81548160ff021916908360ff160217905550505b5b5b5b8160010160069054906101000a900460ff1660ff16847fad739759ba8930019bd1c3be6ed5fcd01b01d8281b167965f3268c8995a69c6160405160405180910390a3505b505050565b6115fb6121c2565b73ffffffffffffffffffffffffffffffffffffffff166116196118ec565b73ffffffffffffffffffffffffffffffffffffffff161461166f576040517f08c379a0000000000000000000000000000000000000000000000000000000008152600401611666906140ad565b60405180910390fd5b80600a60006101000a81548173ffffffffffffffffffffffffffffffffffffffff021916908373ffffffffffffffffffffffffffffffffffffffff16021790555050565b6000806002600084815260200190815260200160002060009054906101000a900473ffffffffffffffffffffffffffffffffffffffff169050600073ffffffffffffffffffffffffffffffffffffffff168173ffffffffffffffffffffffffffffffffffffffff16141561175c576040517f08c379a0000000000000000000000000000000000000000000000000000000008152600401611753906144cd565b60405180910390fd5b80915050919050565b600061177160086120de565b905090565b60008073ffffffffffffffffffffffffffffffffffffffff168273ffffffffffffffffffffffffffffffffffffffff1614156117e7576040517f08c379a00000000000000000000000000000000000000000000000000000000081526004016117de9061455f565b60405180910390fd5b600360008373ffffffffffffffffffffffffffffffffffffffff1673ffffffffffffffffffffffffffffffffffffffff168152602001908152602001600020549050919050565b6118366121c2565b73ffffffffffffffffffffffffffffffffffffffff166118546118ec565b73ffffffffffffffffffffffffffffffffffffffff16146118aa576040517f08c379a00000000000000000000000000000000000000000000000000000000081526004016118a1906140ad565b60405180910390fd5b6118b4600061277b565b565b600960009054906101000a900473ffffffffffffffffffffffffffffffffffffffff1681565b60606118e733610576565b905090565b6000600760009054906101000a900473ffffffffffffffffffffffffffffffffffffffff16905090565b60606001805461192590613e79565b80601f016020809104026020016040519081016040528092919081815260200182805461195190613e79565b801561199e5780601f106119735761010080835404028352916020019161199e565b820191906000526020600020905b81548152906001019060200180831161198157829003601f168201915b5050505050905090565b6060600b805480602002602001604051908101604052809291908181526020016000905b82821015611bb8578382906000526020600020906002020160405180610120016040529081600082018054611a0090613e79565b80601f0160208091040260200160405190810160405280929190818152602001828054611a2c90613e79565b8015611a795780601f10611a4e57610100808354040283529160200191611a79565b820191906000526020600020905b815481529060010190602001808311611a5c57829003601f168201915b505050505081526020016001820160009054906101000a900460ff166003811115611aa757611aa6613706565b5b6003811115611ab957611ab8613706565b5b81526020016001820160019054906101000a900460ff166003811115611ae257611ae1613706565b5b6003811115611af457611af3613706565b5b81526020016001820160029054906101000a900460ff1660ff1660ff1681526020016001820160039054906101000a900460ff1660ff1660ff1681526020016001820160049054906101000a900460ff1660ff1660ff1681526020016001820160059054906101000a900460ff1660ff1660ff1681526020016001820160069054906101000a900460ff1660ff1660ff1681526020016001820160079054906101000a900461ffff1661ffff1661ffff1681525050815260200190600101906119cc565b50505050905090565b611bc96121c2565b73ffffffffffffffffffffffffffffffffffffffff168273ffffffffffffffffffffffffffffffffffffffff161415611c37576040517f08c379a0000000000000000000000000000000000000000000000000000000008152600401611c2e906145cb565b60405180910390fd5b8060056000611c446121c2565b73ffffffffffffffffffffffffffffffffffffffff1673ffffffffffffffffffffffffffffffffffffffff16815260200190815260200160002060008473ffffffffffffffffffffffffffffffffffffffff1673ffffffffffffffffffffffffffffffffffffffff16815260200190815260200160002060006101000a81548160ff0219169083151502179055508173ffffffffffffffffffffffffffffffffffffffff16611cf16121c2565b73ffffffffffffffffffffffffffffffffffffffff167f17307eab39ab6107e8899845ad3d59bd9653f200f220920489ca2b5937696c3183604051611d369190613335565b60405180910390a35050565b611d53611d4d6121c2565b83612441565b611d92576040517f08c379a0000000000000000000000000000000000000000000000000000000008152600401611d89906141f3565b60405180910390fd5b611d9e84848484612841565b50505050565b611dac6121c2565b73ffffffffffffffffffffffffffffffffffffffff16611dca6118ec565b73ffffffffffffffffffffffffffffffffffffffff1614611e20576040517f08c379a0000000000000000000000000000000000000000000000000000000008152600401611e17906140ad565b60405180910390fd5b80600960006101000a81548173ffffffffffffffffffffffffffffffffffffffff021916908373ffffffffffffffffffffffffffffffffffffffff16021790555050565b6060600c611e718361289d565b604051602001611e829291906146bb565b6040516020818303038152906040529050919050565b6000600560008473ffffffffffffffffffffffffffffffffffffffff1673ffffffffffffffffffffffffffffffffffffffff16815260200190815260200160002060008373ffffffffffffffffffffffffffffffffffffffff1673ffffffffffffffffffffffffffffffffffffffff16815260200190815260200160002060009054906101000a900460ff16905092915050565b611f346121c2565b73ffffffffffffffffffffffffffffffffffffffff16611f526118ec565b73ffffffffffffffffffffffffffffffffffffffff1614611fa8576040517f08c379a0000000000000000000000000000000000000000000000000000000008152600401611f9f906140ad565b60405180910390fd5b600073ffffffffffffffffffffffffffffffffffffffff168173ffffffffffffffffffffffffffffffffffffffff161415612018576040517f08c379a000000000000000000000000000000000000000000000000000000000815260040161200f90614751565b60405180910390fd5b6120218161277b565b50565b61202d826116b3565b73ffffffffffffffffffffffffffffffffffffffff163373ffffffffffffffffffffffffffffffffffffffff161461209a576040517f08c379a0000000000000000000000000000000000000000000000000000000008152600401612091906147bd565b60405180910390fd5b6000600b83815481106120b0576120af613e1b565b5b90600052602060002090600202019050818160000190805190602001906120d8929190612fe6565b50505050565b600081600001549050919050565b60007f01ffc9a7000000000000000000000000000000000000000000000000000000007bffffffffffffffffffffffffffffffffffffffffffffffffffffffff1916827bffffffffffffffffffffffffffffffffffffffffffffffffffffffff1916149050919050565b60008073ffffffffffffffffffffffffffffffffffffffff166002600084815260200190815260200160002060009054906101000a900473ffffffffffffffffffffffffffffffffffffffff1673ffffffffffffffffffffffffffffffffffffffff1614159050919050565b600033905090565b816004600083815260200190815260200160002060006101000a81548173ffffffffffffffffffffffffffffffffffffffff021916908373ffffffffffffffffffffffffffffffffffffffff160217905550808273ffffffffffffffffffffffffffffffffffffffff1661223d836116b3565b73ffffffffffffffffffffffffffffffffffffffff167f8c5be1e5ebec7d5bd14f71427d1e84f3dd0314c0f7b2291e5b200ac8c7c3b92560405160405180910390a45050565b6000804342336040516020016122999190614825565b6040516020818303038152906040528051906020012060001c6122bc919061486f565b4542416040516020016122cf91906148db565b6040516020818303038152906040528051906020012060001c6122f2919061486f565b44426122fe9190614101565b6123089190614101565b6123129190614101565b61231c9190614101565b6123269190614101565b6040516020016123369190614917565b6040516020818303038152906040528051906020012060001c905060018361235e9190614932565b60ff1660018461236e9190614932565b60ff168261237c919061486f565b6123869190614969565b8161239191906149c3565b915050919050565b6123b38282604051806020016040528060008152506129ef565b5050565b6123c082612156565b6123ff576040517f08c379a00000000000000000000000000000000000000000000000000000000081526004016123f690614a69565b60405180910390fd5b80600660008481526020019081526020016000209080519060200190612426929190612fe6565b505050565b6001816000016000828254019250508190555050565b600061244c82612156565b61248b576040517f08c379a000000000000000000000000000000000000000000000000000000000815260040161248290614afb565b60405180910390fd5b6000612496836116b3565b90508073ffffffffffffffffffffffffffffffffffffffff168473ffffffffffffffffffffffffffffffffffffffff16148061250557508373ffffffffffffffffffffffffffffffffffffffff166124ed84610847565b73ffffffffffffffffffffffffffffffffffffffff16145b8061251657506125158185611e98565b5b91505092915050565b8273ffffffffffffffffffffffffffffffffffffffff1661253f826116b3565b73ffffffffffffffffffffffffffffffffffffffff1614612595576040517f08c379a000000000000000000000000000000000000000000000000000000000815260040161258c90614b8d565b60405180910390fd5b600073ffffffffffffffffffffffffffffffffffffffff168273ffffffffffffffffffffffffffffffffffffffff161415612605576040517f08c379a00000000000000000000000000000000000000000000000000000000081526004016125fc90614c1f565b60405180910390fd5b612610838383612a4a565b61261b6000826121ca565b6001600360008573ffffffffffffffffffffffffffffffffffffffff1673ffffffffffffffffffffffffffffffffffffffff168152602001908152602001600020600082825461266b91906149c3565b925050819055506001600360008473ffffffffffffffffffffffffffffffffffffffff1673ffffffffffffffffffffffffffffffffffffffff16815260200190815260200160002060008282546126c29190614101565b92505081905550816002600083815260200190815260200160002060006101000a81548173ffffffffffffffffffffffffffffffffffffffff021916908373ffffffffffffffffffffffffffffffffffffffff160217905550808273ffffffffffffffffffffffffffffffffffffffff168473ffffffffffffffffffffffffffffffffffffffff167fddf252ad1be2c89b69c2b068fc378daa952ba7f163c4a11628f55a4df523b3ef60405160405180910390a4505050565b6000600760009054906101000a900473ffffffffffffffffffffffffffffffffffffffff16905081600760006101000a81548173ffffffffffffffffffffffffffffffffffffffff021916908373ffffffffffffffffffffffffffffffffffffffff1602179055508173ffffffffffffffffffffffffffffffffffffffff168173ffffffffffffffffffffffffffffffffffffffff167f8be0079c531659141344cd1fd0a4f28419497f9722a3daafe3b4186f6b6457e060405160405180910390a35050565b61284c84848461251f565b61285884848484612a4f565b612897576040517f08c379a000000000000000000000000000000000000000000000000000000000815260040161288e90614cb1565b60405180910390fd5b50505050565b60606128a882612156565b6128e7576040517f08c379a00000000000000000000000000000000000000000000000000000000081526004016128de90614d43565b60405180910390fd5b600060066000848152602001908152602001600020805461290790613e79565b80601f016020809104026020016040519081016040528092919081815260200182805461293390613e79565b80156129805780601f1061295557610100808354040283529160200191612980565b820191906000526020600020905b81548152906001019060200180831161296357829003601f168201915b505050505090506000612991612be6565b90506000815114156129a75781925050506129ea565b6000825111156129dc5780826040516020016129c4929190614d63565b604051602081830303815290604052925050506129ea565b6129e584612bfd565b925050505b919050565b6129f98383612ca4565b612a066000848484612a4f565b612a45576040517f08c379a0000000000000000000000000000000000000000000000000000000008152600401612a3c90614cb1565b60405180910390fd5b505050565b505050565b6000612a708473ffffffffffffffffffffffffffffffffffffffff16612e72565b15612bd9578373ffffffffffffffffffffffffffffffffffffffff1663150b7a02612a996121c2565b8786866040518563ffffffff1660e01b8152600401612abb9493929190614ddc565b602060405180830381600087803b158015612ad557600080fd5b505af1925050508015612b0657506040513d601f19601f82011682018060405250810190612b039190614e3d565b60015b612b89573d8060008114612b36576040519150601f19603f3d011682016040523d82523d6000602084013e612b3b565b606091505b50600081511415612b81576040517f08c379a0000000000000000000000000000000000000000000000000000000008152600401612b7890614cb1565b60405180910390fd5b805181602001fd5b63150b7a0260e01b7bffffffffffffffffffffffffffffffffffffffffffffffffffffffff1916817bffffffffffffffffffffffffffffffffffffffffffffffffffffffff191614915050612bde565b600190505b949350505050565b606060405180602001604052806000815250905090565b6060612c0882612156565b612c47576040517f08c379a0000000000000000000000000000000000000000000000000000000008152600401612c3e90614edc565b60405180910390fd5b6000612c51612be6565b90506000815111612c715760405180602001604052806000815250612c9c565b80612c7b84612e85565b604051602001612c8c929190614d63565b6040516020818303038152906040525b915050919050565b600073ffffffffffffffffffffffffffffffffffffffff168273ffffffffffffffffffffffffffffffffffffffff161415612d14576040517f08c379a0000000000000000000000000000000000000000000000000000000008152600401612d0b90614f48565b60405180910390fd5b612d1d81612156565b15612d5d576040517f08c379a0000000000000000000000000000000000000000000000000000000008152600401612d5490614fb4565b60405180910390fd5b612d6960008383612a4a565b6001600360008473ffffffffffffffffffffffffffffffffffffffff1673ffffffffffffffffffffffffffffffffffffffff1681526020019081526020016000206000828254612db99190614101565b92505081905550816002600083815260200190815260200160002060006101000a81548173ffffffffffffffffffffffffffffffffffffffff021916908373ffffffffffffffffffffffffffffffffffffffff160217905550808273ffffffffffffffffffffffffffffffffffffffff16600073ffffffffffffffffffffffffffffffffffffffff167fddf252ad1be2c89b69c2b068fc378daa952ba7f163c4a11628f55a4df523b3ef60405160405180910390a45050565b600080823b905060008111915050919050565b60606000821415612ecd576040518060400160405280600181526020017f30000000000000000000000000000000000000000000000000000000000000008152509050612fe1565b600082905060005b60008214612eff578080612ee890613dd2565b915050600a82612ef8919061486f565b9150612ed5565b60008167ffffffffffffffff811115612f1b57612f1a613522565b5b6040519080825280601f01601f191660200182016040528015612f4d5781602001600182028036833780820191505090505b5090505b60008514612fda57600182612f6691906149c3565b9150600a85612f759190614fd4565b6030612f819190614101565b60f81b818381518110612f9757612f96613e1b565b5b60200101907effffffffffffffffffffffffffffffffffffffffffffffffffffffffffffff1916908160001a905350600a85612fd3919061486f565b9450612f51565b8093505050505b919050565b828054612ff290613e79565b90600052602060002090601f016020900481019282613014576000855561305b565b82601f1061302d57805160ff191683800117855561305b565b8280016001018555821561305b579182015b8281111561305a57825182559160200191906001019061303f565b5b50905061306891906130ef565b5090565b604051806101200160405280606081526020016000600381111561309357613092613706565b5b8152602001600060038111156130ac576130ab613706565b5b8152602001600060ff168152602001600060ff168152602001600060ff168152602001600060ff168152602001600060ff168152602001600061ffff1681525090565b5b808211156131085760008160009055506001016130f0565b5090565b6000604051905090565b600080fd5b600080fd5b600073ffffffffffffffffffffffffffffffffffffffff82169050919050565b600061314b82613120565b9050919050565b61315b81613140565b811461316657600080fd5b50565b60008135905061317881613152565b92915050565b60006020828403121561319457613193613116565b5b60006131a284828501613169565b91505092915050565b600081519050919050565b600082825260208201905092915050565b6000819050602082019050919050565b6000819050919050565b6131ea816131d7565b82525050565b60006131fc83836131e1565b60208301905092915050565b6000602082019050919050565b6000613220826131ab565b61322a81856131b6565b9350613235836131c7565b8060005b8381101561326657815161324d88826131f0565b975061325883613208565b925050600181019050613239565b5085935050505092915050565b6000602082019050818103600083015261328d8184613215565b905092915050565b60007fffffffff0000000000000000000000000000000000000000000000000000000082169050919050565b6132ca81613295565b81146132d557600080fd5b50565b6000813590506132e7816132c1565b92915050565b60006020828403121561330357613302613116565b5b6000613311848285016132d8565b91505092915050565b60008115159050919050565b61332f8161331a565b82525050565b600060208201905061334a6000830184613326565b92915050565b600081519050919050565b600082825260208201905092915050565b60005b8381101561338a57808201518184015260208101905061336f565b83811115613399576000848401525b50505050565b6000601f19601f8301169050919050565b60006133bb82613350565b6133c5818561335b565b93506133d581856020860161336c565b6133de8161339f565b840191505092915050565b6000602082019050818103600083015261340381846133b0565b905092915050565b613414816131d7565b811461341f57600080fd5b50565b6000813590506134318161340b565b92915050565b60006020828403121561344d5761344c613116565b5b600061345b84828501613422565b91505092915050565b61346d81613140565b82525050565b60006020820190506134886000830184613464565b92915050565b600080604083850312156134a5576134a4613116565b5b60006134b385828601613169565b92505060206134c485828601613422565b9150509250929050565b600481106134db57600080fd5b50565b6000813590506134ed816134ce565b92915050565b6004811061350057600080fd5b50565b600081359050613512816134f3565b92915050565b600080fd5b600080fd5b7f4e487b7100000000000000000000000000000000000000000000000000000000600052604160045260246000fd5b61355a8261339f565b810181811067ffffffffffffffff8211171561357957613578613522565b5b80604052505050565b600061358c61310c565b90506135988282613551565b919050565b600067ffffffffffffffff8211156135b8576135b7613522565b5b6135c18261339f565b9050602081019050919050565b82818337600083830152505050565b60006135f06135eb8461359d565b613582565b90508281526020810184848401111561360c5761360b61351d565b5b6136178482856135ce565b509392505050565b600082601f83011261363457613633613518565b5b81356136448482602086016135dd565b91505092915050565b60008060006060848603121561366657613665613116565b5b6000613674868287016134de565b935050602061368586828701613503565b925050604084013567ffffffffffffffff8111156136a6576136a561311b565b5b6136b28682870161361f565b9150509250925092565b600082825260208201905092915050565b60006136d882613350565b6136e281856136bc565b93506136f281856020860161336c565b6136fb8161339f565b840191505092915050565b7f4e487b7100000000000000000000000000000000000000000000000000000000600052602160045260246000fd5b6004811061374657613745613706565b5b50565b600081905061375782613735565b919050565b600061376782613749565b9050919050565b6137778161375c565b82525050565b6004811061378e5761378d613706565b5b50565b600081905061379f8261377d565b919050565b60006137af82613791565b9050919050565b6137bf816137a4565b82525050565b600060ff82169050919050565b6137db816137c5565b82525050565b600061ffff82169050919050565b6137f8816137e1565b82525050565b600061012083016000830151848203600086015261381c82826136cd565b9150506020830151613831602086018261376e565b50604083015161384460408601826137b6565b50606083015161385760608601826137d2565b50608083015161386a60808601826137d2565b5060a083015161387d60a08601826137d2565b5060c083015161389060c08601826137d2565b5060e08301516138a360e08601826137d2565b506101008301516138b86101008601826137ef565b508091505092915050565b600060208201905081810360008301526138dd81846137fe565b905092915050565b6000806000606084860312156138fe576138fd613116565b5b600061390c86828701613169565b935050602061391d86828701613169565b925050604061392e86828701613422565b9150509250925092565b613941816137e1565b811461394c57600080fd5b50565b60008135905061395e81613938565b92915050565b6000806040838503121561397b5761397a613116565b5b600061398985828601613422565b925050602061399a8582860161394f565b9150509250929050565b6139ad816131d7565b82525050565b60006020820190506139c860008301846139a4565b92915050565b600081519050919050565b600082825260208201905092915050565b6000819050602082019050919050565b6000610120830160008301518482036000860152613a1882826136cd565b9150506020830151613a2d602086018261376e565b506040830151613a4060408601826137b6565b506060830151613a5360608601826137d2565b506080830151613a6660808601826137d2565b5060a0830151613a7960a08601826137d2565b5060c0830151613a8c60c08601826137d2565b5060e0830151613a9f60e08601826137d2565b50610100830151613ab46101008601826137ef565b508091505092915050565b6000613acb83836139fa565b905092915050565b6000602082019050919050565b6000613aeb826139ce565b613af581856139d9565b935083602082028501613b07856139ea565b8060005b85811015613b435784840389528151613b248582613abf565b9450613b2f83613ad3565b925060208a01995050600181019050613b0b565b50829750879550505050505092915050565b60006020820190508181036000830152613b6f8184613ae0565b905092915050565b613b808161331a565b8114613b8b57600080fd5b50565b600081359050613b9d81613b77565b92915050565b60008060408385031215613bba57613bb9613116565b5b6000613bc885828601613169565b9250506020613bd985828601613b8e565b9150509250929050565b600067ffffffffffffffff821115613bfe57613bfd613522565b5b613c078261339f565b9050602081019050919050565b6000613c27613c2284613be3565b613582565b905082815260208101848484011115613c4357613c4261351d565b5b613c4e8482856135ce565b509392505050565b600082601f830112613c6b57613c6a613518565b5b8135613c7b848260208601613c14565b91505092915050565b60008060008060808587031215613c9e57613c9d613116565b5b6000613cac87828801613169565b9450506020613cbd87828801613169565b9350506040613cce87828801613422565b925050606085013567ffffffffffffffff811115613cef57613cee61311b565b5b613cfb87828801613c56565b91505092959194509250565b60008060408385031215613d1e57613d1d613116565b5b6000613d2c85828601613169565b9250506020613d3d85828601613169565b9150509250929050565b60008060408385031215613d5e57613d5d613116565b5b6000613d6c85828601613422565b925050602083013567ffffffffffffffff811115613d8d57613d8c61311b565b5b613d998582860161361f565b9150509250929050565b7f4e487b7100000000000000000000000000000000000000000000000000000000600052601160045260246000fd5b6000613ddd826131d7565b91507fffffffffffffffffffffffffffffffffffffffffffffffffffffffffffffffff821415613e1057613e0f613da3565b5b600182019050919050565b7f4e487b7100000000000000000000000000000000000000000000000000000000600052603260045260246000fd5b7f4e487b7100000000000000000000000000000000000000000000000000000000600052602260045260246000fd5b60006002820490506001821680613e9157607f821691505b60208210811415613ea557613ea4613e4a565b5b50919050565b7f4552433732313a20617070726f76656420717565727920666f72206e6f6e657860008201527f697374656e7420746f6b656e0000000000000000000000000000000000000000602082015250565b6000613f07602c8361335b565b9150613f1282613eab565b604082019050919050565b60006020820190508181036000830152613f3681613efa565b9050919050565b7f4552433732313a20617070726f76616c20746f2063757272656e74206f776e6560008201527f7200000000000000000000000000000000000000000000000000000000000000602082015250565b6000613f9960218361335b565b9150613fa482613f3d565b604082019050919050565b60006020820190508181036000830152613fc881613f8c565b9050919050565b7f4552433732313a20617070726f76652063616c6c6572206973206e6f74206f7760008201527f6e6572206e6f7220617070726f76656420666f7220616c6c0000000000000000602082015250565b600061402b60388361335b565b915061403682613fcf565b604082019050919050565b6000602082019050818103600083015261405a8161401e565b9050919050565b7f4f776e61626c653a2063616c6c6572206973206e6f7420746865206f776e6572600082015250565b600061409760208361335b565b91506140a282614061565b602082019050919050565b600060208201905081810360008301526140c68161408a565b9050919050565b60006140d8826137c5565b91506140e3836137c5565b9250828210156140f6576140f5613da3565b5b828203905092915050565b600061410c826131d7565b9150614117836131d7565b9250827fffffffffffffffffffffffffffffffffffffffffffffffffffffffffffffffff0382111561414c5761414b613da3565b5b828201905092915050565b6000614162826137c5565b915060ff82141561417657614175613da3565b5b600182019050919050565b7f4552433732313a207472616e736665722063616c6c6572206973206e6f74206f60008201527f776e6572206e6f7220617070726f766564000000000000000000000000000000602082015250565b60006141dd60318361335b565b91506141e882614181565b604082019050919050565b6000602082019050818103600083015261420c816141d0565b9050919050565b7f4f6e6c7920626174746c65206f72206974656d2073686f7020636f6e7472616360008201527f742063616e206578656375746520697400000000000000000000000000000000602082015250565b600061426f60308361335b565b915061427a82614213565b604082019050919050565b6000602082019050818103600083015261429e81614262565b9050919050565b60006142b0826137e1565b91506142bb836137e1565b92508261ffff038211156142d2576142d1613da3565b5b828201905092915050565b60008160011c9050919050565b6000808291508390505b6001851115614334578086048111156143105761430f613da3565b5b600185161561431f5780820291505b808102905061432d856142dd565b94506142f4565b94509492505050565b60008261434d5760019050614409565b8161435b5760009050614409565b8160018114614371576002811461437b576143aa565b6001915050614409565b60ff84111561438d5761438c613da3565b5b8360020a9150848211156143a4576143a3613da3565b5b50614409565b5060208310610133831016604e8410600b84101617156143df5782820a9050838111156143da576143d9613da3565b5b614409565b6143ec84848460016142ea565b9250905081840481111561440357614402613da3565b5b81810290505b9392505050565b600061441b826131d7565b9150614426836137c5565b92506144537fffffffffffffffffffffffffffffffffffffffffffffffffffffffffffffffff848461433d565b905092915050565b7f4552433732313a206f776e657220717565727920666f72206e6f6e657869737460008201527f656e7420746f6b656e0000000000000000000000000000000000000000000000602082015250565b60006144b760298361335b565b91506144c28261445b565b604082019050919050565b600060208201905081810360008301526144e6816144aa565b9050919050565b7f4552433732313a2062616c616e636520717565727920666f7220746865207a6560008201527f726f206164647265737300000000000000000000000000000000000000000000602082015250565b6000614549602a8361335b565b9150614554826144ed565b604082019050919050565b600060208201905081810360008301526145788161453c565b9050919050565b7f4552433732313a20617070726f766520746f2063616c6c657200000000000000600082015250565b60006145b560198361335b565b91506145c08261457f565b602082019050919050565b600060208201905081810360008301526145e4816145a8565b9050919050565b600081905092915050565b60008190508160005260206000209050919050565b6000815461461881613e79565b61462281866145eb565b9450600182166000811461463d576001811461464e57614681565b60ff19831686528186019350614681565b614657856145f6565b60005b838110156146795781548189015260018201915060208101905061465a565b838801955050505b50505092915050565b600061469582613350565b61469f81856145eb565b93506146af81856020860161336c565b80840191505092915050565b60006146c7828561460b565b91506146d3828461468a565b91508190509392505050565b7f4f776e61626c653a206e6577206f776e657220697320746865207a65726f206160008201527f6464726573730000000000000000000000000000000000000000000000000000602082015250565b600061473b60268361335b565b9150614746826146df565b604082019050919050565b6000602082019050818103600083015261476a8161472e565b9050919050565b7f4e6f74206f776e65720000000000000000000000000000000000000000000000600082015250565b60006147a760098361335b565b91506147b282614771565b602082019050919050565b600060208201905081810360008301526147d68161479a565b9050919050565b60008160601b9050919050565b60006147f5826147dd565b9050919050565b6000614807826147ea565b9050919050565b61481f61481a82613140565b6147fc565b82525050565b6000614831828461480e565b60148201915081905092915050565b7f4e487b7100000000000000000000000000000000000000000000000000000000600052601260045260246000fd5b600061487a826131d7565b9150614885836131d7565b92508261489557614894614840565b5b828204905092915050565b60006148ab82613120565b9050919050565b60006148bd826147ea565b9050919050565b6148d56148d0826148a0565b6148b2565b82525050565b60006148e782846148c4565b60148201915081905092915050565b6000819050919050565b61491161490c826131d7565b6148f6565b82525050565b60006149238284614900565b60208201915081905092915050565b600061493d826137c5565b9150614948836137c5565b92508260ff0382111561495e5761495d613da3565b5b828201905092915050565b6000614974826131d7565b915061497f836131d7565b9250817fffffffffffffffffffffffffffffffffffffffffffffffffffffffffffffffff04831182151516156149b8576149b7613da3565b5b828202905092915050565b60006149ce826131d7565b91506149d9836131d7565b9250828210156149ec576149eb613da3565b5b828203905092915050565b7f45524337323155524953746f726167653a2055524920736574206f66206e6f6e60008201527f6578697374656e7420746f6b656e000000000000000000000000000000000000602082015250565b6000614a53602e8361335b565b9150614a5e826149f7565b604082019050919050565b60006020820190508181036000830152614a8281614a46565b9050919050565b7f4552433732313a206f70657261746f7220717565727920666f72206e6f6e657860008201527f697374656e7420746f6b656e0000000000000000000000000000000000000000602082015250565b6000614ae5602c8361335b565b9150614af082614a89565b604082019050919050565b60006020820190508181036000830152614b1481614ad8565b9050919050565b7f4552433732313a207472616e73666572206f6620746f6b656e2074686174206960008201527f73206e6f74206f776e0000000000000000000000000000000000000000000000602082015250565b6000614b7760298361335b565b9150614b8282614b1b565b604082019050919050565b60006020820190508181036000830152614ba681614b6a565b9050919050565b7f4552433732313a207472616e7366657220746f20746865207a65726f2061646460008201527f7265737300000000000000000000000000000000000000000000000000000000602082015250565b6000614c0960248361335b565b9150614c1482614bad565b604082019050919050565b60006020820190508181036000830152614c3881614bfc565b9050919050565b7f4552433732313a207472616e7366657220746f206e6f6e20455243373231526560008201527f63656976657220696d706c656d656e7465720000000000000000000000000000602082015250565b6000614c9b60328361335b565b9150614ca682614c3f565b604082019050919050565b60006020820190508181036000830152614cca81614c8e565b9050919050565b7f45524337323155524953746f726167653a2055524920717565727920666f722060008201527f6e6f6e6578697374656e7420746f6b656e000000000000000000000000000000602082015250565b6000614d2d60318361335b565b9150614d3882614cd1565b604082019050919050565b60006020820190508181036000830152614d5c81614d20565b9050919050565b6000614d6f828561468a565b9150614d7b828461468a565b91508190509392505050565b600081519050919050565b600082825260208201905092915050565b6000614dae82614d87565b614db88185614d92565b9350614dc881856020860161336c565b614dd18161339f565b840191505092915050565b6000608082019050614df16000830187613464565b614dfe6020830186613464565b614e0b60408301856139a4565b8181036060830152614e1d8184614da3565b905095945050505050565b600081519050614e37816132c1565b92915050565b600060208284031215614e5357614e52613116565b5b6000614e6184828501614e28565b91505092915050565b7f4552433732314d657461646174613a2055524920717565727920666f72206e6f60008201527f6e6578697374656e7420746f6b656e0000000000000000000000000000000000602082015250565b6000614ec6602f8361335b565b9150614ed182614e6a565b604082019050919050565b60006020820190508181036000830152614ef581614eb9565b9050919050565b7f4552433732313a206d696e7420746f20746865207a65726f2061646472657373600082015250565b6000614f3260208361335b565b9150614f3d82614efc565b602082019050919050565b60006020820190508181036000830152614f6181614f25565b9050919050565b7f4552433732313a20746f6b656e20616c7265616479206d696e74656400000000600082015250565b6000614f9e601c8361335b565b9150614fa982614f68565b602082019050919050565b60006020820190508181036000830152614fcd81614f91565b9050919050565b6000614fdf826131d7565b9150614fea836131d7565b925082614ffa57614ff9614840565b5b82820690509291505056fea26469706673582212202c6c0c063cc87ad425003f7f613582ac1be352144bbe213bb5830d4f62c7a08364736f6c63430008090033",
  "immutableReferences": {},
  "source": "pragma solidity 0.8.9;\n\nimport \"../node_modules/@openzeppelin/contracts/token/ERC721/extensions/ERC721URIStorage.sol\";\nimport \"../node_modules/@openzeppelin/contracts/utils/Counters.sol\";\nimport \"../node_modules/@openzeppelin/contracts/access/Ownable.sol\";\n\ncontract GameToken is ERC721URIStorage, Ownable {\n    event HeroLevelUp(uint256 indexed tokenId, uint8 indexed level);\n    event NewCurrXP(uint256 indexed tokenId, uint16 indexed currXP);\n\n    using Counters for Counters.Counter;\n    Counters.Counter private _currentHeroId;\n\n    address public _battleAddress;\n    address public _itemShopAddress;\n\n    enum HeroType {\n        FIGHTER,\n        ROGUE,\n        MAGE,\n        TANK\n    }\n    enum HeroRarity {\n        COMMON,\n        UNCOMMON,\n        RARE,\n        LEGENDARY\n    }\n\n    struct Hero {\n        string name;\n        HeroType heroType;\n        HeroRarity rarity;\n        uint8 str;\n        uint8 con;\n        uint8 dex;\n        uint8 wis;\n        uint8 level;\n        uint16 currXP;\n    }\n\n    Hero[] private _heroes;\n\n    string private _baseTokenURI;\n\n    mapping(HeroType => uint8[]) private _mapMint;\n\n    constructor(\n        string memory name,\n        string memory symbol,\n        string memory baseTokenURI\n    ) ERC721(name, symbol) {\n        _baseTokenURI = baseTokenURI;\n\n        _mapMint[HeroType.FIGHTER] = [0, 1, 0, 2, 3, 1];\n        _mapMint[HeroType.ROGUE] = [2, 2, 0, 3, 0, 2];\n        _mapMint[HeroType.MAGE] = [3, 3, 2, 1, 0, 3];\n        _mapMint[HeroType.TANK] = [1, 1, 0, 2, 3, 1];\n    }\n\n    function setBattleAddress(address _newBattleAddress) public onlyOwner {\n        _battleAddress = _newBattleAddress;\n    }\n\n    function setItemShopAddress(address _newItemShopAddress) public onlyOwner {\n        _itemShopAddress = _newItemShopAddress;\n    }\n\n    function getHeroes() external view returns (Hero[] memory) {\n        return _heroes;\n    }\n\n    function getCurrentHeroId() external view returns (uint256) {\n        return _currentHeroId.current();\n    }\n\n    function mint(\n        HeroType _heroType,\n        HeroRarity _heroRarity,\n        string memory _tokenURI\n    ) public onlyOwner {\n        uint256 newHeroId = _currentHeroId.current();\n\n        uint8 minAttr;\n        uint8 maxAttr;\n\n        if (_heroRarity == HeroRarity.COMMON) {\n            minAttr = 4;\n            maxAttr = 6;\n        } else if (_heroRarity == HeroRarity.UNCOMMON) {\n            minAttr = 7;\n            maxAttr = 8;\n        } else if (_heroRarity == HeroRarity.RARE) {\n            minAttr = 9;\n            maxAttr = 10;\n        } else {\n            minAttr = 11;\n            maxAttr = 12;\n        }\n\n        uint256 attrsSize = rand(maxAttr - minAttr) + minAttr;\n\n        uint8[] memory attrs = new uint8[](4);\n        attrs[0] = 1;\n        attrs[1] = 1;\n        attrs[2] = 1;\n        attrs[3] = 1;\n        uint8 attrCounter = 0;\n\n        for (uint8 i = 1; i <= attrsSize; i++) {\n            attrs[_mapMint[_heroType][attrCounter]]++;\n            if (attrCounter == 5) {\n                attrCounter = 0;\n            } else {\n                attrCounter++;\n            }\n        }\n\n        _safeMint(msg.sender, newHeroId);\n        _setTokenURI(newHeroId, _tokenURI);\n        _heroes.push(\n            Hero(\n                \"\",\n                _heroType,\n                _heroRarity,\n                attrs[0],\n                attrs[1],\n                attrs[2],\n                attrs[3],\n                1,\n                0\n            )\n        );\n\n        _currentHeroId.increment();\n    }\n\n    function getHeroesByAddress(address owner)\n        public\n        view\n        returns (uint256[] memory)\n    {\n        uint256 heroCount = balanceOf(owner);\n\n        if (heroCount == 0) {\n            return new uint256[](0);\n        } else {\n            uint256[] memory ret = new uint256[](heroCount);\n            uint256 i;\n            uint256 curIndex = 0;\n\n            for (i = 0; i < _currentHeroId.current(); i++) {\n                if (ownerOf(i) == owner) {\n                    ret[curIndex++] = i;\n                }\n            }\n\n            return ret;\n        }\n    }\n\n    function getMyHeroes() external view returns (uint256[] memory) {\n        return getHeroesByAddress(msg.sender);\n    }\n\n    function getHero(uint256 _heroId) external view returns (Hero memory) {\n        return _heroes[_heroId];\n    }\n\n    function setName(uint256 _heroId, string memory _name) external {\n        require(msg.sender == ownerOf(_heroId), \"Not owner\");\n        Hero storage hero = _heroes[_heroId];\n\n        hero.name = _name;\n    }\n\n    function levelUp(uint256 _heroId, uint16 _xp) external {\n        require(\n            msg.sender == _battleAddress || msg.sender == _itemShopAddress,\n            \"Only battle or item shop contract can execute it\"\n        );\n\n        Hero storage hero = _heroes[_heroId];\n\n        hero.currXP += _xp;\n\n        emit NewCurrXP(_heroId, hero.currXP);\n\n        if (hero.currXP >= 2**hero.level) {\n            hero.level++;\n            hero.currXP = 0;\n\n            uint256 random = rand(3);\n\n            if (random == 0) {\n                hero.str++;\n            } else if (random == 1) {\n                hero.con++;\n            } else if (random == 2) {\n                hero.dex++;\n            } else if (random == 3) {\n                hero.wis++;\n            }\n\n            emit HeroLevelUp(_heroId, hero.level);\n        }\n    }\n\n    function rand(uint8 limit) private view returns (uint256) {\n        uint256 seed = uint256(\n            keccak256(\n                abi.encodePacked(\n                    block.timestamp +\n                        block.difficulty +\n                        ((\n                            uint256(keccak256(abi.encodePacked(block.coinbase)))\n                        ) / (block.timestamp)) +\n                        block.gaslimit +\n                        ((uint256(keccak256(abi.encodePacked(msg.sender)))) /\n                            (block.timestamp)) +\n                        block.number\n                )\n            )\n        );\n\n        return (seed - ((seed / (limit + 1)) * (limit + 1)));\n    }\n\n    function tokenURI(uint256 tokenId)\n        public\n        view\n        virtual\n        override\n        returns (string memory)\n    {\n        return string(abi.encodePacked(_baseTokenURI, super.tokenURI(tokenId)));\n    }\n}\n",
  "sourcePath": "/home/rfaita/game/nft-game/contract/contracts/GameToken.sol",
  "compiler": {
    "name": "solc",
    "version": "0.8.9+commit.e5eed63a.Emscripten.clang"
  },
  "schemaVersion": "3.4.3",
  "updatedAt": "2021-11-18T19:43:21.277Z",
  "networkType": "ethereum",
  "devdoc": {
    "kind": "dev",
    "methods": {
      "approve(address,uint256)": {
        "details": "See {IERC721-approve}."
      },
      "balanceOf(address)": {
        "details": "See {IERC721-balanceOf}."
      },
      "getApproved(uint256)": {
        "details": "See {IERC721-getApproved}."
      },
      "isApprovedForAll(address,address)": {
        "details": "See {IERC721-isApprovedForAll}."
      },
      "name()": {
        "details": "See {IERC721Metadata-name}."
      },
      "owner()": {
        "details": "Returns the address of the current owner."
      },
      "ownerOf(uint256)": {
        "details": "See {IERC721-ownerOf}."
      },
      "renounceOwnership()": {
        "details": "Leaves the contract without owner. It will not be possible to call `onlyOwner` functions anymore. Can only be called by the current owner. NOTE: Renouncing ownership will leave the contract without an owner, thereby removing any functionality that is only available to the owner."
      },
      "safeTransferFrom(address,address,uint256)": {
        "details": "See {IERC721-safeTransferFrom}."
      },
      "safeTransferFrom(address,address,uint256,bytes)": {
        "details": "See {IERC721-safeTransferFrom}."
      },
      "setApprovalForAll(address,bool)": {
        "details": "See {IERC721-setApprovalForAll}."
      },
      "supportsInterface(bytes4)": {
        "details": "See {IERC165-supportsInterface}."
      },
      "symbol()": {
        "details": "See {IERC721Metadata-symbol}."
      },
      "tokenURI(uint256)": {
        "details": "See {IERC721Metadata-tokenURI}."
      },
      "transferFrom(address,address,uint256)": {
        "details": "See {IERC721-transferFrom}."
      },
      "transferOwnership(address)": {
        "details": "Transfers ownership of the contract to a new account (`newOwner`). Can only be called by the current owner."
      }
    },
    "version": 1
  },
  "userdoc": {
    "kind": "user",
    "methods": {},
    "version": 1
  }
}