{
  "contractName": "GameToken",
  "abi": [
    {
      "inputs": [
        {
          "internalType": "string",
          "name": "name",
          "type": "string"
        },
        {
          "internalType": "string",
          "name": "symbol",
          "type": "string"
        }
      ],
      "stateMutability": "nonpayable",
      "type": "constructor"
    },
    {
      "anonymous": false,
      "inputs": [
        {
          "indexed": true,
          "internalType": "address",
          "name": "owner",
          "type": "address"
        },
        {
          "indexed": true,
          "internalType": "address",
          "name": "approved",
          "type": "address"
        },
        {
          "indexed": true,
          "internalType": "uint256",
          "name": "tokenId",
          "type": "uint256"
        }
      ],
      "name": "Approval",
      "type": "event"
    },
    {
      "anonymous": false,
      "inputs": [
        {
          "indexed": true,
          "internalType": "address",
          "name": "owner",
          "type": "address"
        },
        {
          "indexed": true,
          "internalType": "address",
          "name": "operator",
          "type": "address"
        },
        {
          "indexed": false,
          "internalType": "bool",
          "name": "approved",
          "type": "bool"
        }
      ],
      "name": "ApprovalForAll",
      "type": "event"
    },
    {
      "anonymous": false,
      "inputs": [
        {
          "indexed": true,
          "internalType": "address",
          "name": "previousOwner",
          "type": "address"
        },
        {
          "indexed": true,
          "internalType": "address",
          "name": "newOwner",
          "type": "address"
        }
      ],
      "name": "OwnershipTransferred",
      "type": "event"
    },
    {
      "anonymous": false,
      "inputs": [
        {
          "indexed": true,
          "internalType": "address",
          "name": "from",
          "type": "address"
        },
        {
          "indexed": true,
          "internalType": "address",
          "name": "to",
          "type": "address"
        },
        {
          "indexed": true,
          "internalType": "uint256",
          "name": "tokenId",
          "type": "uint256"
        }
      ],
      "name": "Transfer",
      "type": "event"
    },
    {
      "inputs": [
        {
          "internalType": "address",
          "name": "to",
          "type": "address"
        },
        {
          "internalType": "uint256",
          "name": "tokenId",
          "type": "uint256"
        }
      ],
      "name": "approve",
      "outputs": [],
      "stateMutability": "nonpayable",
      "type": "function"
    },
    {
      "inputs": [
        {
          "internalType": "address",
          "name": "owner",
          "type": "address"
        }
      ],
      "name": "balanceOf",
      "outputs": [
        {
          "internalType": "uint256",
          "name": "",
          "type": "uint256"
        }
      ],
      "stateMutability": "view",
      "type": "function",
      "constant": true
    },
    {
      "inputs": [
        {
          "internalType": "uint256",
          "name": "tokenId",
          "type": "uint256"
        }
      ],
      "name": "getApproved",
      "outputs": [
        {
          "internalType": "address",
          "name": "",
          "type": "address"
        }
      ],
      "stateMutability": "view",
      "type": "function",
      "constant": true
    },
    {
      "inputs": [
        {
          "internalType": "address",
          "name": "owner",
          "type": "address"
        },
        {
          "internalType": "address",
          "name": "operator",
          "type": "address"
        }
      ],
      "name": "isApprovedForAll",
      "outputs": [
        {
          "internalType": "bool",
          "name": "",
          "type": "bool"
        }
      ],
      "stateMutability": "view",
      "type": "function",
      "constant": true
    },
    {
      "inputs": [],
      "name": "name",
      "outputs": [
        {
          "internalType": "string",
          "name": "",
          "type": "string"
        }
      ],
      "stateMutability": "view",
      "type": "function",
      "constant": true
    },
    {
      "inputs": [],
      "name": "owner",
      "outputs": [
        {
          "internalType": "address",
          "name": "",
          "type": "address"
        }
      ],
      "stateMutability": "view",
      "type": "function",
      "constant": true
    },
    {
      "inputs": [
        {
          "internalType": "uint256",
          "name": "tokenId",
          "type": "uint256"
        }
      ],
      "name": "ownerOf",
      "outputs": [
        {
          "internalType": "address",
          "name": "",
          "type": "address"
        }
      ],
      "stateMutability": "view",
      "type": "function",
      "constant": true
    },
    {
      "inputs": [],
      "name": "renounceOwnership",
      "outputs": [],
      "stateMutability": "nonpayable",
      "type": "function"
    },
    {
      "inputs": [
        {
          "internalType": "address",
          "name": "from",
          "type": "address"
        },
        {
          "internalType": "address",
          "name": "to",
          "type": "address"
        },
        {
          "internalType": "uint256",
          "name": "tokenId",
          "type": "uint256"
        }
      ],
      "name": "safeTransferFrom",
      "outputs": [],
      "stateMutability": "nonpayable",
      "type": "function"
    },
    {
      "inputs": [
        {
          "internalType": "address",
          "name": "from",
          "type": "address"
        },
        {
          "internalType": "address",
          "name": "to",
          "type": "address"
        },
        {
          "internalType": "uint256",
          "name": "tokenId",
          "type": "uint256"
        },
        {
          "internalType": "bytes",
          "name": "_data",
          "type": "bytes"
        }
      ],
      "name": "safeTransferFrom",
      "outputs": [],
      "stateMutability": "nonpayable",
      "type": "function"
    },
    {
      "inputs": [
        {
          "internalType": "address",
          "name": "operator",
          "type": "address"
        },
        {
          "internalType": "bool",
          "name": "approved",
          "type": "bool"
        }
      ],
      "name": "setApprovalForAll",
      "outputs": [],
      "stateMutability": "nonpayable",
      "type": "function"
    },
    {
      "inputs": [
        {
          "internalType": "bytes4",
          "name": "interfaceId",
          "type": "bytes4"
        }
      ],
      "name": "supportsInterface",
      "outputs": [
        {
          "internalType": "bool",
          "name": "",
          "type": "bool"
        }
      ],
      "stateMutability": "view",
      "type": "function",
      "constant": true
    },
    {
      "inputs": [],
      "name": "symbol",
      "outputs": [
        {
          "internalType": "string",
          "name": "",
          "type": "string"
        }
      ],
      "stateMutability": "view",
      "type": "function",
      "constant": true
    },
    {
      "inputs": [
        {
          "internalType": "uint256",
          "name": "tokenId",
          "type": "uint256"
        }
      ],
      "name": "tokenURI",
      "outputs": [
        {
          "internalType": "string",
          "name": "",
          "type": "string"
        }
      ],
      "stateMutability": "view",
      "type": "function",
      "constant": true
    },
    {
      "inputs": [
        {
          "internalType": "address",
          "name": "from",
          "type": "address"
        },
        {
          "internalType": "address",
          "name": "to",
          "type": "address"
        },
        {
          "internalType": "uint256",
          "name": "tokenId",
          "type": "uint256"
        }
      ],
      "name": "transferFrom",
      "outputs": [],
      "stateMutability": "nonpayable",
      "type": "function"
    },
    {
      "inputs": [
        {
          "internalType": "address",
          "name": "newOwner",
          "type": "address"
        }
      ],
      "name": "transferOwnership",
      "outputs": [],
      "stateMutability": "nonpayable",
      "type": "function"
    },
    {
      "inputs": [
        {
          "internalType": "enum GameToken.HeroType",
          "name": "heroType",
          "type": "uint8"
        }
      ],
      "name": "mint",
      "outputs": [],
      "stateMutability": "nonpayable",
      "type": "function"
    },
    {
      "inputs": [
        {
          "internalType": "address",
          "name": "owner",
          "type": "address"
        }
      ],
      "name": "getHeroesByAddress",
      "outputs": [
        {
          "internalType": "uint256[]",
          "name": "",
          "type": "uint256[]"
        }
      ],
      "stateMutability": "view",
      "type": "function",
      "constant": true
    },
    {
      "inputs": [],
      "name": "getMyHeroes",
      "outputs": [
        {
          "internalType": "uint256[]",
          "name": "",
          "type": "uint256[]"
        }
      ],
      "stateMutability": "view",
      "type": "function",
      "constant": true
    },
    {
      "inputs": [
        {
          "internalType": "uint256",
          "name": "_heroId",
          "type": "uint256"
        }
      ],
      "name": "getHero",
      "outputs": [
        {
          "components": [
            {
              "internalType": "string",
              "name": "name",
              "type": "string"
            },
            {
              "internalType": "enum GameToken.HeroType",
              "name": "heroType",
              "type": "uint8"
            },
            {
              "internalType": "enum GameToken.HeroRarity",
              "name": "rarity",
              "type": "uint8"
            },
            {
              "internalType": "uint8",
              "name": "str",
              "type": "uint8"
            },
            {
              "internalType": "uint8",
              "name": "con",
              "type": "uint8"
            },
            {
              "internalType": "uint8",
              "name": "dex",
              "type": "uint8"
            },
            {
              "internalType": "uint8",
              "name": "inte",
              "type": "uint8"
            },
            {
              "internalType": "uint8",
              "name": "level",
              "type": "uint8"
            }
          ],
          "internalType": "struct GameToken.Hero",
          "name": "",
          "type": "tuple"
        }
      ],
      "stateMutability": "view",
      "type": "function",
      "constant": true
    },
    {
      "inputs": [
        {
          "internalType": "uint256",
          "name": "_heroId",
          "type": "uint256"
        }
      ],
      "name": "levelUp",
      "outputs": [],
      "stateMutability": "nonpayable",
      "type": "function"
    },
    {
      "inputs": [
        {
          "internalType": "uint256",
          "name": "_heroId",
          "type": "uint256"
        },
        {
          "internalType": "uint256",
          "name": "_price",
          "type": "uint256"
        }
      ],
      "name": "allowBuy",
      "outputs": [],
      "stateMutability": "nonpayable",
      "type": "function"
    },
    {
      "inputs": [
        {
          "internalType": "uint256",
          "name": "_heroId",
          "type": "uint256"
        }
      ],
      "name": "disallowBuy",
      "outputs": [],
      "stateMutability": "nonpayable",
      "type": "function"
    },
    {
      "inputs": [
        {
          "internalType": "uint256",
          "name": "_heroId",
          "type": "uint256"
        }
      ],
      "name": "buy",
      "outputs": [],
      "stateMutability": "payable",
      "type": "function",
      "payable": true
    }
  ],
  "bytecode": "0x60806040523480156200001157600080fd5b5060405162004ea038038062004ea08339818101604052810190620000379190620006ac565b8181816000908051906020019062000051929190620003b1565b5080600190805190602001906200006a929190620003b1565b5050506200008d62000081620002e360201b60201c565b620002eb60201b60201c565b6040518060c00160405280600060ff168152602001600160ff168152602001600060ff168152602001600260ff168152602001600360ff168152602001600160ff16815250600b6000806003811115620000ec57620000eb62000731565b5b600381111562000101576200010062000731565b5b81526020019081526020016000209060066200011f92919062000442565b506040518060c00160405280600260ff168152602001600260ff168152602001600060ff168152602001600360ff168152602001600060ff168152602001600260ff16815250600b60006001600381111562000180576200017f62000731565b5b600381111562000195576200019462000731565b5b8152602001908152602001600020906006620001b392919062000442565b506040518060c00160405280600360ff168152602001600360ff168152602001600260ff168152602001600160ff168152602001600060ff168152602001600360ff16815250600b60006002600381111562000214576200021362000731565b5b600381111562000229576200022862000731565b5b81526020019081526020016000209060066200024792919062000442565b506040518060c00160405280600160ff168152602001600160ff168152602001600060ff168152602001600260ff168152602001600360ff168152602001600160ff16815250600b6000600380811115620002a757620002a662000731565b5b6003811115620002bc57620002bb62000731565b5b8152602001908152602001600020906006620002da92919062000442565b505050620007c5565b600033905090565b6000600760009054906101000a900473ffffffffffffffffffffffffffffffffffffffff16905081600760006101000a81548173ffffffffffffffffffffffffffffffffffffffff021916908373ffffffffffffffffffffffffffffffffffffffff1602179055508173ffffffffffffffffffffffffffffffffffffffff168173ffffffffffffffffffffffffffffffffffffffff167f8be0079c531659141344cd1fd0a4f28419497f9722a3daafe3b4186f6b6457e060405160405180910390a35050565b828054620003bf906200078f565b90600052602060002090601f016020900481019282620003e357600085556200042f565b82601f10620003fe57805160ff19168380011785556200042f565b828001600101855582156200042f579182015b828111156200042e57825182559160200191906001019062000411565b5b5090506200043e9190620004f0565b5090565b82805482825590600052602060002090601f01602090048101928215620004dd5791602002820160005b83821115620004ac57835183826101000a81548160ff021916908360ff16021790555092602001926001016020816000010492830192600103026200046c565b8015620004db5782816101000a81549060ff0219169055600101602081600001049283019260010302620004ac565b505b509050620004ec9190620004f0565b5090565b5b808211156200050b576000816000905550600101620004f1565b5090565b6000604051905090565b600080fd5b600080fd5b600080fd5b600080fd5b6000601f19601f8301169050919050565b7f4e487b7100000000000000000000000000000000000000000000000000000000600052604160045260246000fd5b62000578826200052d565b810181811067ffffffffffffffff821117156200059a57620005996200053e565b5b80604052505050565b6000620005af6200050f565b9050620005bd82826200056d565b919050565b600067ffffffffffffffff821115620005e057620005df6200053e565b5b620005eb826200052d565b9050602081019050919050565b60005b8381101562000618578082015181840152602081019050620005fb565b8381111562000628576000848401525b50505050565b6000620006456200063f84620005c2565b620005a3565b90508281526020810184848401111562000664576200066362000528565b5b62000671848285620005f8565b509392505050565b600082601f83011262000691576200069062000523565b5b8151620006a38482602086016200062e565b91505092915050565b60008060408385031215620006c657620006c562000519565b5b600083015167ffffffffffffffff811115620006e757620006e66200051e565b5b620006f58582860162000679565b925050602083015167ffffffffffffffff8111156200071957620007186200051e565b5b620007278582860162000679565b9150509250929050565b7f4e487b7100000000000000000000000000000000000000000000000000000000600052602160045260246000fd5b7f4e487b7100000000000000000000000000000000000000000000000000000000600052602260045260246000fd5b60006002820490506001821680620007a857607f821691505b60208210811415620007bf57620007be62000760565b5b50919050565b6146cb80620007d56000396000f3fe60806040526004361061014a5760003560e01c8063715018a6116100b6578063bbb5e8d31161006f578063bbb5e8d31461049f578063c87b56dd146104c8578063d499131214610505578063d96a094a1461052e578063e985e9c51461054a578063f2fde38b146105875761014a565b8063715018a6146103b5578063806f5283146103cc5780638da5cb5b146103f757806395d89b4114610422578063a22cb4651461044d578063b88d4fde146104765761014a565b806321d801111161010857806321d801111461028357806323b872dd146102c057806342842e0e146102e95780636352211e146103125780636ecd23061461034f57806370a08231146103785761014a565b80625597e31461014f57806301ffc9a71461018c57806306fdde03146101c9578063081812fc146101f4578063095ea7b3146102315780630ce90ec21461025a575b600080fd5b34801561015b57600080fd5b5061017660048036038101906101719190612d35565b6105b0565b6040516101839190612e2a565b60405180910390f35b34801561019857600080fd5b506101b360048036038101906101ae9190612ea4565b610701565b6040516101c09190612eec565b60405180910390f35b3480156101d557600080fd5b506101de6107e3565b6040516101eb9190612fa0565b60405180910390f35b34801561020057600080fd5b5061021b60048036038101906102169190612fee565b610875565b604051610228919061302a565b60405180910390f35b34801561023d57600080fd5b5061025860048036038101906102539190613045565b6108fa565b005b34801561026657600080fd5b50610281600480360381019061027c9190612fee565b610a12565b005b34801561028f57600080fd5b506102aa60048036038101906102a59190612fee565b610c0b565b6040516102b7919061325a565b60405180910390f35b3480156102cc57600080fd5b506102e760048036038101906102e2919061327c565b610dd2565b005b3480156102f557600080fd5b50610310600480360381019061030b919061327c565b610e32565b005b34801561031e57600080fd5b5061033960048036038101906103349190612fee565b610e52565b604051610346919061302a565b60405180910390f35b34801561035b57600080fd5b50610376600480360381019061037191906132f4565b610f04565b005b34801561038457600080fd5b5061039f600480360381019061039a9190612d35565b611494565b6040516103ac9190613330565b60405180910390f35b3480156103c157600080fd5b506103ca61154c565b005b3480156103d857600080fd5b506103e16115d4565b6040516103ee9190612e2a565b60405180910390f35b34801561040357600080fd5b5061040c6115e4565b604051610419919061302a565b60405180910390f35b34801561042e57600080fd5b5061043761160e565b6040516104449190612fa0565b60405180910390f35b34801561045957600080fd5b50610474600480360381019061046f9190613377565b6116a0565b005b34801561048257600080fd5b5061049d600480360381019061049891906134ec565b611821565b005b3480156104ab57600080fd5b506104c660048036038101906104c1919061356f565b611883565b005b3480156104d457600080fd5b506104ef60048036038101906104ea9190612fee565b611958565b6040516104fc9190612fa0565b60405180910390f35b34801561051157600080fd5b5061052c60048036038101906105279190612fee565b611aaa565b005b61054860048036038101906105439190612fee565b611b3c565b005b34801561055657600080fd5b50610571600480360381019061056c91906135af565b611c66565b60405161057e9190612eec565b60405180910390f35b34801561059357600080fd5b506105ae60048036038101906105a99190612d35565b611cfa565b005b606060006105bd83611494565b9050600081141561061a57600067ffffffffffffffff8111156105e3576105e26133c1565b5b6040519080825280602002602001820160405280156106115781602001602082028036833780820191505090505b509150506106fc565b60008167ffffffffffffffff811115610636576106356133c1565b5b6040519080825280602002602001820160405280156106645781602001602082028036833780820191505090505b50905060008060009050600091505b61067d6008611df2565b8210156106f4578573ffffffffffffffffffffffffffffffffffffffff166106a483610e52565b73ffffffffffffffffffffffffffffffffffffffff1614156106e157818382815181106106d4576106d36135ef565b5b6020026020010181815250505b81806106ec9061364d565b925050610673565b829450505050505b919050565b60007f80ac58cd000000000000000000000000000000000000000000000000000000007bffffffffffffffffffffffffffffffffffffffffffffffffffffffff1916827bffffffffffffffffffffffffffffffffffffffffffffffffffffffff191614806107cc57507f5b5e139f000000000000000000000000000000000000000000000000000000007bffffffffffffffffffffffffffffffffffffffffffffffffffffffff1916827bffffffffffffffffffffffffffffffffffffffffffffffffffffffff1916145b806107dc57506107db82611e00565b5b9050919050565b6060600080546107f2906136c5565b80601f016020809104026020016040519081016040528092919081815260200182805461081e906136c5565b801561086b5780601f106108405761010080835404028352916020019161086b565b820191906000526020600020905b81548152906001019060200180831161084e57829003601f168201915b5050505050905090565b600061088082611e6a565b6108bf576040517f08c379a00000000000000000000000000000000000000000000000000000000081526004016108b690613769565b60405180910390fd5b6004600083815260200190815260200160002060009054906101000a900473ffffffffffffffffffffffffffffffffffffffff169050919050565b600061090582610e52565b90508073ffffffffffffffffffffffffffffffffffffffff168373ffffffffffffffffffffffffffffffffffffffff161415610976576040517f08c379a000000000000000000000000000000000000000000000000000000000815260040161096d906137fb565b60405180910390fd5b8073ffffffffffffffffffffffffffffffffffffffff16610995611ed6565b73ffffffffffffffffffffffffffffffffffffffff1614806109c457506109c3816109be611ed6565b611c66565b5b610a03576040517f08c379a00000000000000000000000000000000000000000000000000000000081526004016109fa9061388d565b60405180910390fd5b610a0d8383611ede565b505050565b610a1b81610e52565b73ffffffffffffffffffffffffffffffffffffffff163373ffffffffffffffffffffffffffffffffffffffff1614610a88576040517f08c379a0000000000000000000000000000000000000000000000000000000008152600401610a7f906138f9565b60405180910390fd5b600060096000838152602001908152602001600020905080600101600681819054906101000a900460ff1680929190610ac090613919565b91906101000a81548160ff021916908360ff160217905550506000610ae56003611f97565b90506000811415610b2f5781600101600281819054906101000a900460ff1680929190610b1190613919565b91906101000a81548160ff021916908360ff16021790555050610c06565b6001811415610b775781600101600381819054906101000a900460ff1680929190610b5990613919565b91906101000a81548160ff021916908360ff16021790555050610c05565b6002811415610bbf5781600101600481819054906101000a900460ff1680929190610ba190613919565b91906101000a81548160ff021916908360ff16021790555050610c04565b6003811415610c035781600101600581819054906101000a900460ff1680929190610be990613919565b91906101000a81548160ff021916908360ff160217905550505b5b5b5b505050565b610c13612ba8565b6009600083815260200190815260200160002060405180610100016040529081600082018054610c42906136c5565b80601f0160208091040260200160405190810160405280929190818152602001828054610c6e906136c5565b8015610cbb5780601f10610c9057610100808354040283529160200191610cbb565b820191906000526020600020905b815481529060010190602001808311610c9e57829003601f168201915b505050505081526020016001820160009054906101000a900460ff166003811115610ce957610ce86130cf565b5b6003811115610cfb57610cfa6130cf565b5b81526020016001820160019054906101000a900460ff166003811115610d2457610d236130cf565b5b6003811115610d3657610d356130cf565b5b81526020016001820160029054906101000a900460ff1660ff1660ff1681526020016001820160039054906101000a900460ff1660ff1660ff1681526020016001820160049054906101000a900460ff1660ff1660ff1681526020016001820160059054906101000a900460ff1660ff1660ff1681526020016001820160069054906101000a900460ff1660ff1660ff16815250509050919050565b610de3610ddd611ed6565b826120ad565b610e22576040517f08c379a0000000000000000000000000000000000000000000000000000000008152600401610e19906139b5565b60405180910390fd5b610e2d83838361218b565b505050565b610e4d83838360405180602001604052806000815250611821565b505050565b6000806002600084815260200190815260200160002060009054906101000a900473ffffffffffffffffffffffffffffffffffffffff169050600073ffffffffffffffffffffffffffffffffffffffff168173ffffffffffffffffffffffffffffffffffffffff161415610efb576040517f08c379a0000000000000000000000000000000000000000000000000000000008152600401610ef290613a47565b60405180910390fd5b80915050919050565b610f0c611ed6565b73ffffffffffffffffffffffffffffffffffffffff16610f2a6115e4565b73ffffffffffffffffffffffffffffffffffffffff1614610f80576040517f08c379a0000000000000000000000000000000000000000000000000000000008152600401610f7790613ab3565b60405180910390fd5b6000610f8c6008611df2565b905060006001610f9c6064611f97565b610fa69190613ad3565b90506000806000603c8411610fc657600092506004915060069050611007565b60558411610fdf57600192506007915060089050611006565b60638411610ff8576002925060099150600a9050611005565b60039250600b9150600c90505b5b5b600b9150600c905060008260ff1661102984846110249190613b29565b611f97565b6110339190613ad3565b90506000600467ffffffffffffffff811115611052576110516133c1565b5b6040519080825280602002602001820160405280156110805781602001602082028036833780820191505090505b509050600181600081518110611099576110986135ef565b5b602002602001019060ff16908160ff16815250506001816001815181106110c3576110c26135ef565b5b602002602001019060ff16908160ff16815250506001816002815181106110ed576110ec6135ef565b5b602002602001019060ff16908160ff1681525050600181600381518110611117576111166135ef565b5b602002602001019060ff16908160ff1681525050600080600190505b838160ff16116112145782600b60008c6003811115611155576111546130cf565b5b6003811115611167576111666130cf565b5b81526020019081526020016000208360ff168154811061118a576111896135ef565b5b90600052602060002090602091828204019190069054906101000a900460ff1660ff16815181106111be576111bd6135ef565b5b6020026020010180518091906111d390613919565b60ff1660ff168152505060058260ff1614156111f25760009150611201565b81806111fd90613919565b9250505b808061120c90613919565b915050611133565b5061121f33896123e7565b61125e886040518060400160405280600581526020017f7465737465000000000000000000000000000000000000000000000000000000815250612405565b6040518061010001604052806040518060200160405280600081525081526020018a6003811115611292576112916130cf565b5b81526020018760038111156112aa576112a96130cf565b5b8152602001836000815181106112c3576112c26135ef565b5b602002602001015160ff168152602001836001815181106112e7576112e66135ef565b5b602002602001015160ff1681526020018360028151811061130b5761130a6135ef565b5b602002602001015160ff1681526020018360038151811061132f5761132e6135ef565b5b602002602001015160ff168152602001600160ff16815250600960008a81526020019081526020016000206000820151816000019080519060200190611376929190612c20565b5060208201518160010160006101000a81548160ff021916908360038111156113a2576113a16130cf565b5b021790555060408201518160010160016101000a81548160ff021916908360038111156113d2576113d16130cf565b5b021790555060608201518160010160026101000a81548160ff021916908360ff16021790555060808201518160010160036101000a81548160ff021916908360ff16021790555060a08201518160010160046101000a81548160ff021916908360ff16021790555060c08201518160010160056101000a81548160ff021916908360ff16021790555060e08201518160010160066101000a81548160ff021916908360ff1602179055509050506114896008612479565b505050505050505050565b60008073ffffffffffffffffffffffffffffffffffffffff168273ffffffffffffffffffffffffffffffffffffffff161415611505576040517f08c379a00000000000000000000000000000000000000000000000000000000081526004016114fc90613bcf565b60405180910390fd5b600360008373ffffffffffffffffffffffffffffffffffffffff1673ffffffffffffffffffffffffffffffffffffffff168152602001908152602001600020549050919050565b611554611ed6565b73ffffffffffffffffffffffffffffffffffffffff166115726115e4565b73ffffffffffffffffffffffffffffffffffffffff16146115c8576040517f08c379a00000000000000000000000000000000000000000000000000000000081526004016115bf90613ab3565b60405180910390fd5b6115d2600061248f565b565b60606115df336105b0565b905090565b6000600760009054906101000a900473ffffffffffffffffffffffffffffffffffffffff16905090565b60606001805461161d906136c5565b80601f0160208091040260200160405190810160405280929190818152602001828054611649906136c5565b80156116965780601f1061166b57610100808354040283529160200191611696565b820191906000526020600020905b81548152906001019060200180831161167957829003601f168201915b5050505050905090565b6116a8611ed6565b73ffffffffffffffffffffffffffffffffffffffff168273ffffffffffffffffffffffffffffffffffffffff161415611716576040517f08c379a000000000000000000000000000000000000000000000000000000000815260040161170d90613c3b565b60405180910390fd5b8060056000611723611ed6565b73ffffffffffffffffffffffffffffffffffffffff1673ffffffffffffffffffffffffffffffffffffffff16815260200190815260200160002060008473ffffffffffffffffffffffffffffffffffffffff1673ffffffffffffffffffffffffffffffffffffffff16815260200190815260200160002060006101000a81548160ff0219169083151502179055508173ffffffffffffffffffffffffffffffffffffffff166117d0611ed6565b73ffffffffffffffffffffffffffffffffffffffff167f17307eab39ab6107e8899845ad3d59bd9653f200f220920489ca2b5937696c31836040516118159190612eec565b60405180910390a35050565b61183261182c611ed6565b836120ad565b611871576040517f08c379a0000000000000000000000000000000000000000000000000000000008152600401611868906139b5565b60405180910390fd5b61187d84848484612555565b50505050565b61188c82610e52565b73ffffffffffffffffffffffffffffffffffffffff163373ffffffffffffffffffffffffffffffffffffffff16146118f9576040517f08c379a00000000000000000000000000000000000000000000000000000000081526004016118f0906138f9565b60405180910390fd5b6000811161193c576040517f08c379a000000000000000000000000000000000000000000000000000000000815260040161193390613ca7565b60405180910390fd5b80600a6000848152602001908152602001600020819055505050565b606061196382611e6a565b6119a2576040517f08c379a000000000000000000000000000000000000000000000000000000000815260040161199990613d39565b60405180910390fd5b60006006600084815260200190815260200160002080546119c2906136c5565b80601f01602080910402602001604051908101604052809291908181526020018280546119ee906136c5565b8015611a3b5780601f10611a1057610100808354040283529160200191611a3b565b820191906000526020600020905b815481529060010190602001808311611a1e57829003601f168201915b505050505090506000611a4c6125b1565b9050600081511415611a62578192505050611aa5565b600082511115611a97578082604051602001611a7f929190613d95565b60405160208183030381529060405292505050611aa5565b611aa0846125c8565b925050505b919050565b611ab381610e52565b73ffffffffffffffffffffffffffffffffffffffff163373ffffffffffffffffffffffffffffffffffffffff1614611b20576040517f08c379a0000000000000000000000000000000000000000000000000000000008152600401611b17906138f9565b60405180910390fd5b6000600a60008381526020019081526020016000208190555050565b6000600a600083815260200190815260200160002054905060008111611b97576040517f08c379a0000000000000000000000000000000000000000000000000000000008152600401611b8e90613e05565b60405180910390fd5b803414611bd9576040517f08c379a0000000000000000000000000000000000000000000000000000000008152600401611bd090613e71565b60405180910390fd5b6000611be483610e52565b90508073ffffffffffffffffffffffffffffffffffffffff166108fc349081150290604051600060405180830381858888f19350505050158015611c2c573d6000803e3d6000fd5b50611c4881338560405180602001604052806000815250612555565b6000600a600085815260200190815260200160002081905550505050565b6000600560008473ffffffffffffffffffffffffffffffffffffffff1673ffffffffffffffffffffffffffffffffffffffff16815260200190815260200160002060008373ffffffffffffffffffffffffffffffffffffffff1673ffffffffffffffffffffffffffffffffffffffff16815260200190815260200160002060009054906101000a900460ff16905092915050565b611d02611ed6565b73ffffffffffffffffffffffffffffffffffffffff16611d206115e4565b73ffffffffffffffffffffffffffffffffffffffff1614611d76576040517f08c379a0000000000000000000000000000000000000000000000000000000008152600401611d6d90613ab3565b60405180910390fd5b600073ffffffffffffffffffffffffffffffffffffffff168173ffffffffffffffffffffffffffffffffffffffff161415611de6576040517f08c379a0000000000000000000000000000000000000000000000000000000008152600401611ddd90613f03565b60405180910390fd5b611def8161248f565b50565b600081600001549050919050565b60007f01ffc9a7000000000000000000000000000000000000000000000000000000007bffffffffffffffffffffffffffffffffffffffffffffffffffffffff1916827bffffffffffffffffffffffffffffffffffffffffffffffffffffffff1916149050919050565b60008073ffffffffffffffffffffffffffffffffffffffff166002600084815260200190815260200160002060009054906101000a900473ffffffffffffffffffffffffffffffffffffffff1673ffffffffffffffffffffffffffffffffffffffff1614159050919050565b600033905090565b816004600083815260200190815260200160002060006101000a81548173ffffffffffffffffffffffffffffffffffffffff021916908373ffffffffffffffffffffffffffffffffffffffff160217905550808273ffffffffffffffffffffffffffffffffffffffff16611f5183610e52565b73ffffffffffffffffffffffffffffffffffffffff167f8c5be1e5ebec7d5bd14f71427d1e84f3dd0314c0f7b2291e5b200ac8c7c3b92560405160405180910390a45050565b600080434233604051602001611fad9190613f6b565b6040516020818303038152906040528051906020012060001c611fd09190613fb5565b454241604051602001611fe39190614021565b6040516020818303038152906040528051906020012060001c6120069190613fb5565b44426120129190613ad3565b61201c9190613ad3565b6120269190613ad3565b6120309190613ad3565b61203a9190613ad3565b60405160200161204a919061405d565b6040516020818303038152906040528051906020012060001c90506001836120729190614078565b60ff166001846120829190614078565b60ff16826120909190613fb5565b61209a91906140af565b816120a59190614109565b915050919050565b60006120b882611e6a565b6120f7576040517f08c379a00000000000000000000000000000000000000000000000000000000081526004016120ee906141af565b60405180910390fd5b600061210283610e52565b90508073ffffffffffffffffffffffffffffffffffffffff168473ffffffffffffffffffffffffffffffffffffffff16148061217157508373ffffffffffffffffffffffffffffffffffffffff1661215984610875565b73ffffffffffffffffffffffffffffffffffffffff16145b8061218257506121818185611c66565b5b91505092915050565b8273ffffffffffffffffffffffffffffffffffffffff166121ab82610e52565b73ffffffffffffffffffffffffffffffffffffffff1614612201576040517f08c379a00000000000000000000000000000000000000000000000000000000081526004016121f890614241565b60405180910390fd5b600073ffffffffffffffffffffffffffffffffffffffff168273ffffffffffffffffffffffffffffffffffffffff161415612271576040517f08c379a0000000000000000000000000000000000000000000000000000000008152600401612268906142d3565b60405180910390fd5b61227c83838361266f565b612287600082611ede565b6001600360008573ffffffffffffffffffffffffffffffffffffffff1673ffffffffffffffffffffffffffffffffffffffff16815260200190815260200160002060008282546122d79190614109565b925050819055506001600360008473ffffffffffffffffffffffffffffffffffffffff1673ffffffffffffffffffffffffffffffffffffffff168152602001908152602001600020600082825461232e9190613ad3565b92505081905550816002600083815260200190815260200160002060006101000a81548173ffffffffffffffffffffffffffffffffffffffff021916908373ffffffffffffffffffffffffffffffffffffffff160217905550808273ffffffffffffffffffffffffffffffffffffffff168473ffffffffffffffffffffffffffffffffffffffff167fddf252ad1be2c89b69c2b068fc378daa952ba7f163c4a11628f55a4df523b3ef60405160405180910390a4505050565b612401828260405180602001604052806000815250612674565b5050565b61240e82611e6a565b61244d576040517f08c379a000000000000000000000000000000000000000000000000000000000815260040161244490614365565b60405180910390fd5b80600660008481526020019081526020016000209080519060200190612474929190612c20565b505050565b6001816000016000828254019250508190555050565b6000600760009054906101000a900473ffffffffffffffffffffffffffffffffffffffff16905081600760006101000a81548173ffffffffffffffffffffffffffffffffffffffff021916908373ffffffffffffffffffffffffffffffffffffffff1602179055508173ffffffffffffffffffffffffffffffffffffffff168173ffffffffffffffffffffffffffffffffffffffff167f8be0079c531659141344cd1fd0a4f28419497f9722a3daafe3b4186f6b6457e060405160405180910390a35050565b61256084848461218b565b61256c848484846126cf565b6125ab576040517f08c379a00000000000000000000000000000000000000000000000000000000081526004016125a2906143f7565b60405180910390fd5b50505050565b606060405180602001604052806000815250905090565b60606125d382611e6a565b612612576040517f08c379a000000000000000000000000000000000000000000000000000000000815260040161260990614489565b60405180910390fd5b600061261c6125b1565b9050600081511161263c5760405180602001604052806000815250612667565b8061264684612866565b604051602001612657929190613d95565b6040516020818303038152906040525b915050919050565b505050565b61267e83836129c7565b61268b60008484846126cf565b6126ca576040517f08c379a00000000000000000000000000000000000000000000000000000000081526004016126c1906143f7565b60405180910390fd5b505050565b60006126f08473ffffffffffffffffffffffffffffffffffffffff16612b95565b15612859578373ffffffffffffffffffffffffffffffffffffffff1663150b7a02612719611ed6565b8786866040518563ffffffff1660e01b815260040161273b94939291906144fe565b602060405180830381600087803b15801561275557600080fd5b505af192505050801561278657506040513d601f19601f82011682018060405250810190612783919061455f565b60015b612809573d80600081146127b6576040519150601f19603f3d011682016040523d82523d6000602084013e6127bb565b606091505b50600081511415612801576040517f08c379a00000000000000000000000000000000000000000000000000000000081526004016127f8906143f7565b60405180910390fd5b805181602001fd5b63150b7a0260e01b7bffffffffffffffffffffffffffffffffffffffffffffffffffffffff1916817bffffffffffffffffffffffffffffffffffffffffffffffffffffffff19161491505061285e565b600190505b949350505050565b606060008214156128ae576040518060400160405280600181526020017f300000000000000000000000000000000000000000000000000000000000000081525090506129c2565b600082905060005b600082146128e05780806128c99061364d565b915050600a826128d99190613fb5565b91506128b6565b60008167ffffffffffffffff8111156128fc576128fb6133c1565b5b6040519080825280601f01601f19166020018201604052801561292e5781602001600182028036833780820191505090505b5090505b600085146129bb576001826129479190614109565b9150600a85612956919061458c565b60306129629190613ad3565b60f81b818381518110612978576129776135ef565b5b60200101907effffffffffffffffffffffffffffffffffffffffffffffffffffffffffffff1916908160001a905350600a856129b49190613fb5565b9450612932565b8093505050505b919050565b600073ffffffffffffffffffffffffffffffffffffffff168273ffffffffffffffffffffffffffffffffffffffff161415612a37576040517f08c379a0000000000000000000000000000000000000000000000000000000008152600401612a2e90614609565b60405180910390fd5b612a4081611e6a565b15612a80576040517f08c379a0000000000000000000000000000000000000000000000000000000008152600401612a7790614675565b60405180910390fd5b612a8c6000838361266f565b6001600360008473ffffffffffffffffffffffffffffffffffffffff1673ffffffffffffffffffffffffffffffffffffffff1681526020019081526020016000206000828254612adc9190613ad3565b92505081905550816002600083815260200190815260200160002060006101000a81548173ffffffffffffffffffffffffffffffffffffffff021916908373ffffffffffffffffffffffffffffffffffffffff160217905550808273ffffffffffffffffffffffffffffffffffffffff16600073ffffffffffffffffffffffffffffffffffffffff167fddf252ad1be2c89b69c2b068fc378daa952ba7f163c4a11628f55a4df523b3ef60405160405180910390a45050565b600080823b905060008111915050919050565b6040518061010001604052806060815260200160006003811115612bcf57612bce6130cf565b5b815260200160006003811115612be857612be76130cf565b5b8152602001600060ff168152602001600060ff168152602001600060ff168152602001600060ff168152602001600060ff1681525090565b828054612c2c906136c5565b90600052602060002090601f016020900481019282612c4e5760008555612c95565b82601f10612c6757805160ff1916838001178555612c95565b82800160010185558215612c95579182015b82811115612c94578251825591602001919060010190612c79565b5b509050612ca29190612ca6565b5090565b5b80821115612cbf576000816000905550600101612ca7565b5090565b6000604051905090565b600080fd5b600080fd5b600073ffffffffffffffffffffffffffffffffffffffff82169050919050565b6000612d0282612cd7565b9050919050565b612d1281612cf7565b8114612d1d57600080fd5b50565b600081359050612d2f81612d09565b92915050565b600060208284031215612d4b57612d4a612ccd565b5b6000612d5984828501612d20565b91505092915050565b600081519050919050565b600082825260208201905092915050565b6000819050602082019050919050565b6000819050919050565b612da181612d8e565b82525050565b6000612db38383612d98565b60208301905092915050565b6000602082019050919050565b6000612dd782612d62565b612de18185612d6d565b9350612dec83612d7e565b8060005b83811015612e1d578151612e048882612da7565b9750612e0f83612dbf565b925050600181019050612df0565b5085935050505092915050565b60006020820190508181036000830152612e448184612dcc565b905092915050565b60007fffffffff0000000000000000000000000000000000000000000000000000000082169050919050565b612e8181612e4c565b8114612e8c57600080fd5b50565b600081359050612e9e81612e78565b92915050565b600060208284031215612eba57612eb9612ccd565b5b6000612ec884828501612e8f565b91505092915050565b60008115159050919050565b612ee681612ed1565b82525050565b6000602082019050612f016000830184612edd565b92915050565b600081519050919050565b600082825260208201905092915050565b60005b83811015612f41578082015181840152602081019050612f26565b83811115612f50576000848401525b50505050565b6000601f19601f8301169050919050565b6000612f7282612f07565b612f7c8185612f12565b9350612f8c818560208601612f23565b612f9581612f56565b840191505092915050565b60006020820190508181036000830152612fba8184612f67565b905092915050565b612fcb81612d8e565b8114612fd657600080fd5b50565b600081359050612fe881612fc2565b92915050565b60006020828403121561300457613003612ccd565b5b600061301284828501612fd9565b91505092915050565b61302481612cf7565b82525050565b600060208201905061303f600083018461301b565b92915050565b6000806040838503121561305c5761305b612ccd565b5b600061306a85828601612d20565b925050602061307b85828601612fd9565b9150509250929050565b600082825260208201905092915050565b60006130a182612f07565b6130ab8185613085565b93506130bb818560208601612f23565b6130c481612f56565b840191505092915050565b7f4e487b7100000000000000000000000000000000000000000000000000000000600052602160045260246000fd5b6004811061310f5761310e6130cf565b5b50565b6000819050613120826130fe565b919050565b600061313082613112565b9050919050565b61314081613125565b82525050565b60048110613157576131566130cf565b5b50565b600081905061316882613146565b919050565b60006131788261315a565b9050919050565b6131888161316d565b82525050565b600060ff82169050919050565b6131a48161318e565b82525050565b60006101008301600083015184820360008601526131c88282613096565b91505060208301516131dd6020860182613137565b5060408301516131f0604086018261317f565b506060830151613203606086018261319b565b506080830151613216608086018261319b565b5060a083015161322960a086018261319b565b5060c083015161323c60c086018261319b565b5060e083015161324f60e086018261319b565b508091505092915050565b6000602082019050818103600083015261327481846131aa565b905092915050565b60008060006060848603121561329557613294612ccd565b5b60006132a386828701612d20565b93505060206132b486828701612d20565b92505060406132c586828701612fd9565b9150509250925092565b600481106132dc57600080fd5b50565b6000813590506132ee816132cf565b92915050565b60006020828403121561330a57613309612ccd565b5b6000613318848285016132df565b91505092915050565b61332a81612d8e565b82525050565b60006020820190506133456000830184613321565b92915050565b61335481612ed1565b811461335f57600080fd5b50565b6000813590506133718161334b565b92915050565b6000806040838503121561338e5761338d612ccd565b5b600061339c85828601612d20565b92505060206133ad85828601613362565b9150509250929050565b600080fd5b600080fd5b7f4e487b7100000000000000000000000000000000000000000000000000000000600052604160045260246000fd5b6133f982612f56565b810181811067ffffffffffffffff82111715613418576134176133c1565b5b80604052505050565b600061342b612cc3565b905061343782826133f0565b919050565b600067ffffffffffffffff821115613457576134566133c1565b5b61346082612f56565b9050602081019050919050565b82818337600083830152505050565b600061348f61348a8461343c565b613421565b9050828152602081018484840111156134ab576134aa6133bc565b5b6134b684828561346d565b509392505050565b600082601f8301126134d3576134d26133b7565b5b81356134e384826020860161347c565b91505092915050565b6000806000806080858703121561350657613505612ccd565b5b600061351487828801612d20565b945050602061352587828801612d20565b935050604061353687828801612fd9565b925050606085013567ffffffffffffffff81111561355757613556612cd2565b5b613563878288016134be565b91505092959194509250565b6000806040838503121561358657613585612ccd565b5b600061359485828601612fd9565b92505060206135a585828601612fd9565b9150509250929050565b600080604083850312156135c6576135c5612ccd565b5b60006135d485828601612d20565b92505060206135e585828601612d20565b9150509250929050565b7f4e487b7100000000000000000000000000000000000000000000000000000000600052603260045260246000fd5b7f4e487b7100000000000000000000000000000000000000000000000000000000600052601160045260246000fd5b600061365882612d8e565b91507fffffffffffffffffffffffffffffffffffffffffffffffffffffffffffffffff82141561368b5761368a61361e565b5b600182019050919050565b7f4e487b7100000000000000000000000000000000000000000000000000000000600052602260045260246000fd5b600060028204905060018216806136dd57607f821691505b602082108114156136f1576136f0613696565b5b50919050565b7f4552433732313a20617070726f76656420717565727920666f72206e6f6e657860008201527f697374656e7420746f6b656e0000000000000000000000000000000000000000602082015250565b6000613753602c83612f12565b915061375e826136f7565b604082019050919050565b6000602082019050818103600083015261378281613746565b9050919050565b7f4552433732313a20617070726f76616c20746f2063757272656e74206f776e6560008201527f7200000000000000000000000000000000000000000000000000000000000000602082015250565b60006137e5602183612f12565b91506137f082613789565b604082019050919050565b60006020820190508181036000830152613814816137d8565b9050919050565b7f4552433732313a20617070726f76652063616c6c6572206973206e6f74206f7760008201527f6e6572206e6f7220617070726f76656420666f7220616c6c0000000000000000602082015250565b6000613877603883612f12565b91506138828261381b565b604082019050919050565b600060208201905081810360008301526138a68161386a565b9050919050565b7f4e6f74206f776e6572206f662074686973206865726f00000000000000000000600082015250565b60006138e3601683612f12565b91506138ee826138ad565b602082019050919050565b60006020820190508181036000830152613912816138d6565b9050919050565b60006139248261318e565b915060ff8214156139385761393761361e565b5b600182019050919050565b7f4552433732313a207472616e736665722063616c6c6572206973206e6f74206f60008201527f776e6572206e6f7220617070726f766564000000000000000000000000000000602082015250565b600061399f603183612f12565b91506139aa82613943565b604082019050919050565b600060208201905081810360008301526139ce81613992565b9050919050565b7f4552433732313a206f776e657220717565727920666f72206e6f6e657869737460008201527f656e7420746f6b656e0000000000000000000000000000000000000000000000602082015250565b6000613a31602983612f12565b9150613a3c826139d5565b604082019050919050565b60006020820190508181036000830152613a6081613a24565b9050919050565b7f4f776e61626c653a2063616c6c6572206973206e6f7420746865206f776e6572600082015250565b6000613a9d602083612f12565b9150613aa882613a67565b602082019050919050565b60006020820190508181036000830152613acc81613a90565b9050919050565b6000613ade82612d8e565b9150613ae983612d8e565b9250827fffffffffffffffffffffffffffffffffffffffffffffffffffffffffffffffff03821115613b1e57613b1d61361e565b5b828201905092915050565b6000613b348261318e565b9150613b3f8361318e565b925082821015613b5257613b5161361e565b5b828203905092915050565b7f4552433732313a2062616c616e636520717565727920666f7220746865207a6560008201527f726f206164647265737300000000000000000000000000000000000000000000602082015250565b6000613bb9602a83612f12565b9150613bc482613b5d565b604082019050919050565b60006020820190508181036000830152613be881613bac565b9050919050565b7f4552433732313a20617070726f766520746f2063616c6c657200000000000000600082015250565b6000613c25601983612f12565b9150613c3082613bef565b602082019050919050565b60006020820190508181036000830152613c5481613c18565b9050919050565b7f5072696365207a65726f00000000000000000000000000000000000000000000600082015250565b6000613c91600a83612f12565b9150613c9c82613c5b565b602082019050919050565b60006020820190508181036000830152613cc081613c84565b9050919050565b7f45524337323155524953746f726167653a2055524920717565727920666f722060008201527f6e6f6e6578697374656e7420746f6b656e000000000000000000000000000000602082015250565b6000613d23603183612f12565b9150613d2e82613cc7565b604082019050919050565b60006020820190508181036000830152613d5281613d16565b9050919050565b600081905092915050565b6000613d6f82612f07565b613d798185613d59565b9350613d89818560208601612f23565b80840191505092915050565b6000613da18285613d64565b9150613dad8284613d64565b91508190509392505050565b7f54686973206865726f206973206e6f7420666f722073616c6500000000000000600082015250565b6000613def601983612f12565b9150613dfa82613db9565b602082019050919050565b60006020820190508181036000830152613e1e81613de2565b9050919050565b7f496e636f72726563742076616c75650000000000000000000000000000000000600082015250565b6000613e5b600f83612f12565b9150613e6682613e25565b602082019050919050565b60006020820190508181036000830152613e8a81613e4e565b9050919050565b7f4f776e61626c653a206e6577206f776e657220697320746865207a65726f206160008201527f6464726573730000000000000000000000000000000000000000000000000000602082015250565b6000613eed602683612f12565b9150613ef882613e91565b604082019050919050565b60006020820190508181036000830152613f1c81613ee0565b9050919050565b60008160601b9050919050565b6000613f3b82613f23565b9050919050565b6000613f4d82613f30565b9050919050565b613f65613f6082612cf7565b613f42565b82525050565b6000613f778284613f54565b60148201915081905092915050565b7f4e487b7100000000000000000000000000000000000000000000000000000000600052601260045260246000fd5b6000613fc082612d8e565b9150613fcb83612d8e565b925082613fdb57613fda613f86565b5b828204905092915050565b6000613ff182612cd7565b9050919050565b600061400382613f30565b9050919050565b61401b61401682613fe6565b613ff8565b82525050565b600061402d828461400a565b60148201915081905092915050565b6000819050919050565b61405761405282612d8e565b61403c565b82525050565b60006140698284614046565b60208201915081905092915050565b60006140838261318e565b915061408e8361318e565b92508260ff038211156140a4576140a361361e565b5b828201905092915050565b60006140ba82612d8e565b91506140c583612d8e565b9250817fffffffffffffffffffffffffffffffffffffffffffffffffffffffffffffffff04831182151516156140fe576140fd61361e565b5b828202905092915050565b600061411482612d8e565b915061411f83612d8e565b9250828210156141325761413161361e565b5b828203905092915050565b7f4552433732313a206f70657261746f7220717565727920666f72206e6f6e657860008201527f697374656e7420746f6b656e0000000000000000000000000000000000000000602082015250565b6000614199602c83612f12565b91506141a48261413d565b604082019050919050565b600060208201905081810360008301526141c88161418c565b9050919050565b7f4552433732313a207472616e73666572206f6620746f6b656e2074686174206960008201527f73206e6f74206f776e0000000000000000000000000000000000000000000000602082015250565b600061422b602983612f12565b9150614236826141cf565b604082019050919050565b6000602082019050818103600083015261425a8161421e565b9050919050565b7f4552433732313a207472616e7366657220746f20746865207a65726f2061646460008201527f7265737300000000000000000000000000000000000000000000000000000000602082015250565b60006142bd602483612f12565b91506142c882614261565b604082019050919050565b600060208201905081810360008301526142ec816142b0565b9050919050565b7f45524337323155524953746f726167653a2055524920736574206f66206e6f6e60008201527f6578697374656e7420746f6b656e000000000000000000000000000000000000602082015250565b600061434f602e83612f12565b915061435a826142f3565b604082019050919050565b6000602082019050818103600083015261437e81614342565b9050919050565b7f4552433732313a207472616e7366657220746f206e6f6e20455243373231526560008201527f63656976657220696d706c656d656e7465720000000000000000000000000000602082015250565b60006143e1603283612f12565b91506143ec82614385565b604082019050919050565b60006020820190508181036000830152614410816143d4565b9050919050565b7f4552433732314d657461646174613a2055524920717565727920666f72206e6f60008201527f6e6578697374656e7420746f6b656e0000000000000000000000000000000000602082015250565b6000614473602f83612f12565b915061447e82614417565b604082019050919050565b600060208201905081810360008301526144a281614466565b9050919050565b600081519050919050565b600082825260208201905092915050565b60006144d0826144a9565b6144da81856144b4565b93506144ea818560208601612f23565b6144f381612f56565b840191505092915050565b6000608082019050614513600083018761301b565b614520602083018661301b565b61452d6040830185613321565b818103606083015261453f81846144c5565b905095945050505050565b60008151905061455981612e78565b92915050565b60006020828403121561457557614574612ccd565b5b60006145838482850161454a565b91505092915050565b600061459782612d8e565b91506145a283612d8e565b9250826145b2576145b1613f86565b5b828206905092915050565b7f4552433732313a206d696e7420746f20746865207a65726f2061646472657373600082015250565b60006145f3602083612f12565b91506145fe826145bd565b602082019050919050565b60006020820190508181036000830152614622816145e6565b9050919050565b7f4552433732313a20746f6b656e20616c7265616479206d696e74656400000000600082015250565b600061465f601c83612f12565b915061466a82614629565b602082019050919050565b6000602082019050818103600083015261468e81614652565b905091905056fea26469706673582212207fd98e0a64f7911b30933a729ebb087cf7c5cfb7744891bcd6ffb5afb6fd38aa64736f6c63430008090033",
  "immutableReferences": {},
  "source": "pragma solidity 0.8.9;\n\nimport \"../node_modules/@openzeppelin/contracts/token/ERC721/extensions/ERC721URIStorage.sol\";\nimport \"../node_modules/@openzeppelin/contracts/utils/Counters.sol\";\nimport \"../node_modules/@openzeppelin/contracts/access/Ownable.sol\";\n\ncontract GameToken is ERC721URIStorage, Ownable {\n    using Counters for Counters.Counter;\n    Counters.Counter private _currentHeroId;\n\n    enum HeroType {\n        FIGHTER,\n        ROGUE,\n        MAGE,\n        TANK\n    }\n    enum HeroRarity {\n        COMMON,\n        UNCOMMON,\n        RARE,\n        LEGENDARY\n    }\n\n    struct Hero {\n        string name;\n        HeroType heroType;\n        HeroRarity rarity;\n        uint8 str;\n        uint8 con;\n        uint8 dex;\n        uint8 inte;\n        uint8 level;\n    }\n\n    mapping(uint256 => Hero) private _heroes;\n    mapping(uint256 => uint256) private _sellingHeroes;\n\n    mapping(HeroType => uint8[]) private _mapMint;\n\n    constructor(string memory name, string memory symbol) ERC721(name, symbol) {\n        _mapMint[HeroType.FIGHTER] = [0, 1, 0, 2, 3, 1];\n        _mapMint[HeroType.ROGUE] = [2, 2, 0, 3, 0, 2];\n        _mapMint[HeroType.MAGE] = [3, 3, 2, 1, 0, 3];\n        _mapMint[HeroType.TANK] = [1, 1, 0, 2, 3, 1];\n    }\n\n    function mint(HeroType heroType) public onlyOwner {\n        uint256 newHeroId = _currentHeroId.current();\n\n        uint256 rarity = rand(100) + 1;\n\n        HeroRarity heroRarity;\n        uint8 minAttr;\n        uint8 maxAttr;\n\n        if (rarity <= 60) {\n            heroRarity = HeroRarity.COMMON;\n            minAttr = 4;\n            maxAttr = 6;\n        } else if (rarity <= 85) {\n            heroRarity = HeroRarity.UNCOMMON;\n            minAttr = 7;\n            maxAttr = 8;\n        } else if (rarity <= 99) {\n            heroRarity = HeroRarity.RARE;\n            minAttr = 9;\n            maxAttr = 10;\n        } else {\n            heroRarity = HeroRarity.LEGENDARY;\n            minAttr = 11;\n            maxAttr = 12;\n        }\n\n        minAttr = 11;\n        maxAttr = 12;\n\n        uint256 attrsSize = rand(maxAttr - minAttr) + minAttr;\n\n        uint8[] memory attrs = new uint8[](4);\n        attrs[0] = 1;\n        attrs[1] = 1;\n        attrs[2] = 1;\n        attrs[3] = 1;\n        uint8 attrCounter = 0;\n\n        for (uint8 i = 1; i <= attrsSize; i++) {\n            attrs[_mapMint[heroType][attrCounter]]++;\n            if (attrCounter == 5) {\n                attrCounter = 0;\n            } else {\n                attrCounter++;\n            }\n        }\n\n        _safeMint(msg.sender, newHeroId);\n        _setTokenURI(newHeroId, \"teste\");\n        _heroes[newHeroId] = Hero(\n            \"\",\n            heroType,\n            heroRarity,\n            attrs[0],\n            attrs[1],\n            attrs[2],\n            attrs[3],\n            1\n        );\n\n        _currentHeroId.increment();\n    }\n\n    function getHeroesByAddress(address owner)\n        public\n        view\n        returns (uint256[] memory)\n    {\n        uint256 heroCount = balanceOf(owner);\n\n        if (heroCount == 0) {\n            return new uint256[](0);\n        } else {\n            uint256[] memory ret = new uint256[](heroCount);\n            uint256 i;\n            uint256 curIndex = 0;\n\n            for (i = 0; i < _currentHeroId.current(); i++) {\n                if (ownerOf(i) == owner) {\n                    ret[curIndex] = i;\n                }\n            }\n\n            return ret;\n        }\n    }\n\n    function getMyHeroes() external view returns (uint256[] memory) {\n        return getHeroesByAddress(msg.sender);\n    }\n\n    function getHero(uint256 _heroId) external view returns (Hero memory) {\n        return _heroes[_heroId];\n    }\n\n    function levelUp(uint256 _heroId) external {\n        require(msg.sender == ownerOf(_heroId), \"Not owner of this hero\");\n\n        Hero storage hero = _heroes[_heroId];\n\n        hero.level++;\n\n        uint256 random = rand(3);\n\n        if (random == 0) {\n            hero.str++;\n        } else if (random == 1) {\n            hero.con++;\n        } else if (random == 2) {\n            hero.dex++;\n        } else if (random == 3) {\n            hero.inte++;\n        }\n    }\n\n    function allowBuy(uint256 _heroId, uint256 _price) external {\n        require(msg.sender == ownerOf(_heroId), \"Not owner of this hero\");\n        require(_price > 0, \"Price zero\");\n        _sellingHeroes[_heroId] = _price;\n    }\n\n    function disallowBuy(uint256 _heroId) external {\n        require(msg.sender == ownerOf(_heroId), \"Not owner of this hero\");\n        _sellingHeroes[_heroId] = 0;\n    }\n\n    function buy(uint256 _heroId) external payable {\n        uint256 price = _sellingHeroes[_heroId];\n        require(price > 0, \"This hero is not for sale\");\n        require(msg.value == price, \"Incorrect value\");\n\n        address seller = ownerOf(_heroId);\n\n        payable(seller).transfer(msg.value);\n\n        _safeTransfer(seller, msg.sender, _heroId, \"\");\n        _sellingHeroes[_heroId] = 0;\n    }\n\n    function rand(uint8 limit) private view returns (uint256) {\n        uint256 seed = uint256(\n            keccak256(\n                abi.encodePacked(\n                    block.timestamp +\n                        block.difficulty +\n                        ((\n                            uint256(keccak256(abi.encodePacked(block.coinbase)))\n                        ) / (block.timestamp)) +\n                        block.gaslimit +\n                        ((uint256(keccak256(abi.encodePacked(msg.sender)))) /\n                            (block.timestamp)) +\n                        block.number\n                )\n            )\n        );\n\n        return (seed - ((seed / (limit + 1)) * (limit + 1)));\n    }\n}\n",
  "sourcePath": "/home/rfaita/game/nft-game/contract/contracts/GameToken.sol",
  "compiler": {
    "name": "solc",
    "version": "0.8.9+commit.e5eed63a.Emscripten.clang"
  },
  "schemaVersion": "3.4.3",
  "updatedAt": "2021-11-08T15:07:32.495Z",
  "networkType": "ethereum",
  "devdoc": {
    "kind": "dev",
    "methods": {
      "approve(address,uint256)": {
        "details": "See {IERC721-approve}."
      },
      "balanceOf(address)": {
        "details": "See {IERC721-balanceOf}."
      },
      "getApproved(uint256)": {
        "details": "See {IERC721-getApproved}."
      },
      "isApprovedForAll(address,address)": {
        "details": "See {IERC721-isApprovedForAll}."
      },
      "name()": {
        "details": "See {IERC721Metadata-name}."
      },
      "owner()": {
        "details": "Returns the address of the current owner."
      },
      "ownerOf(uint256)": {
        "details": "See {IERC721-ownerOf}."
      },
      "renounceOwnership()": {
        "details": "Leaves the contract without owner. It will not be possible to call `onlyOwner` functions anymore. Can only be called by the current owner. NOTE: Renouncing ownership will leave the contract without an owner, thereby removing any functionality that is only available to the owner."
      },
      "safeTransferFrom(address,address,uint256)": {
        "details": "See {IERC721-safeTransferFrom}."
      },
      "safeTransferFrom(address,address,uint256,bytes)": {
        "details": "See {IERC721-safeTransferFrom}."
      },
      "setApprovalForAll(address,bool)": {
        "details": "See {IERC721-setApprovalForAll}."
      },
      "supportsInterface(bytes4)": {
        "details": "See {IERC165-supportsInterface}."
      },
      "symbol()": {
        "details": "See {IERC721Metadata-symbol}."
      },
      "tokenURI(uint256)": {
        "details": "See {IERC721Metadata-tokenURI}."
      },
      "transferFrom(address,address,uint256)": {
        "details": "See {IERC721-transferFrom}."
      },
      "transferOwnership(address)": {
        "details": "Transfers ownership of the contract to a new account (`newOwner`). Can only be called by the current owner."
      }
    },
    "version": 1
  },
  "userdoc": {
    "kind": "user",
    "methods": {},
    "version": 1
  }
}