{
  "contractName": "GameToken",
  "abi": [
    {
      "inputs": [
        {
          "internalType": "string",
          "name": "name",
          "type": "string"
        },
        {
          "internalType": "string",
          "name": "symbol",
          "type": "string"
        }
      ],
      "stateMutability": "nonpayable",
      "type": "constructor"
    },
    {
      "anonymous": false,
      "inputs": [
        {
          "indexed": true,
          "internalType": "address",
          "name": "owner",
          "type": "address"
        },
        {
          "indexed": true,
          "internalType": "address",
          "name": "approved",
          "type": "address"
        },
        {
          "indexed": true,
          "internalType": "uint256",
          "name": "tokenId",
          "type": "uint256"
        }
      ],
      "name": "Approval",
      "type": "event"
    },
    {
      "anonymous": false,
      "inputs": [
        {
          "indexed": true,
          "internalType": "address",
          "name": "owner",
          "type": "address"
        },
        {
          "indexed": true,
          "internalType": "address",
          "name": "operator",
          "type": "address"
        },
        {
          "indexed": false,
          "internalType": "bool",
          "name": "approved",
          "type": "bool"
        }
      ],
      "name": "ApprovalForAll",
      "type": "event"
    },
    {
      "anonymous": false,
      "inputs": [
        {
          "indexed": true,
          "internalType": "address",
          "name": "previousOwner",
          "type": "address"
        },
        {
          "indexed": true,
          "internalType": "address",
          "name": "newOwner",
          "type": "address"
        }
      ],
      "name": "OwnershipTransferred",
      "type": "event"
    },
    {
      "anonymous": false,
      "inputs": [
        {
          "indexed": true,
          "internalType": "address",
          "name": "from",
          "type": "address"
        },
        {
          "indexed": true,
          "internalType": "address",
          "name": "to",
          "type": "address"
        },
        {
          "indexed": true,
          "internalType": "uint256",
          "name": "tokenId",
          "type": "uint256"
        }
      ],
      "name": "Transfer",
      "type": "event"
    },
    {
      "inputs": [
        {
          "internalType": "address",
          "name": "to",
          "type": "address"
        },
        {
          "internalType": "uint256",
          "name": "tokenId",
          "type": "uint256"
        }
      ],
      "name": "approve",
      "outputs": [],
      "stateMutability": "nonpayable",
      "type": "function"
    },
    {
      "inputs": [
        {
          "internalType": "address",
          "name": "owner",
          "type": "address"
        }
      ],
      "name": "balanceOf",
      "outputs": [
        {
          "internalType": "uint256",
          "name": "",
          "type": "uint256"
        }
      ],
      "stateMutability": "view",
      "type": "function",
      "constant": true
    },
    {
      "inputs": [
        {
          "internalType": "uint256",
          "name": "tokenId",
          "type": "uint256"
        }
      ],
      "name": "getApproved",
      "outputs": [
        {
          "internalType": "address",
          "name": "",
          "type": "address"
        }
      ],
      "stateMutability": "view",
      "type": "function",
      "constant": true
    },
    {
      "inputs": [
        {
          "internalType": "address",
          "name": "owner",
          "type": "address"
        },
        {
          "internalType": "address",
          "name": "operator",
          "type": "address"
        }
      ],
      "name": "isApprovedForAll",
      "outputs": [
        {
          "internalType": "bool",
          "name": "",
          "type": "bool"
        }
      ],
      "stateMutability": "view",
      "type": "function",
      "constant": true
    },
    {
      "inputs": [],
      "name": "name",
      "outputs": [
        {
          "internalType": "string",
          "name": "",
          "type": "string"
        }
      ],
      "stateMutability": "view",
      "type": "function",
      "constant": true
    },
    {
      "inputs": [],
      "name": "owner",
      "outputs": [
        {
          "internalType": "address",
          "name": "",
          "type": "address"
        }
      ],
      "stateMutability": "view",
      "type": "function",
      "constant": true
    },
    {
      "inputs": [
        {
          "internalType": "uint256",
          "name": "tokenId",
          "type": "uint256"
        }
      ],
      "name": "ownerOf",
      "outputs": [
        {
          "internalType": "address",
          "name": "",
          "type": "address"
        }
      ],
      "stateMutability": "view",
      "type": "function",
      "constant": true
    },
    {
      "inputs": [],
      "name": "renounceOwnership",
      "outputs": [],
      "stateMutability": "nonpayable",
      "type": "function"
    },
    {
      "inputs": [
        {
          "internalType": "address",
          "name": "from",
          "type": "address"
        },
        {
          "internalType": "address",
          "name": "to",
          "type": "address"
        },
        {
          "internalType": "uint256",
          "name": "tokenId",
          "type": "uint256"
        }
      ],
      "name": "safeTransferFrom",
      "outputs": [],
      "stateMutability": "nonpayable",
      "type": "function"
    },
    {
      "inputs": [
        {
          "internalType": "address",
          "name": "from",
          "type": "address"
        },
        {
          "internalType": "address",
          "name": "to",
          "type": "address"
        },
        {
          "internalType": "uint256",
          "name": "tokenId",
          "type": "uint256"
        },
        {
          "internalType": "bytes",
          "name": "_data",
          "type": "bytes"
        }
      ],
      "name": "safeTransferFrom",
      "outputs": [],
      "stateMutability": "nonpayable",
      "type": "function"
    },
    {
      "inputs": [
        {
          "internalType": "address",
          "name": "operator",
          "type": "address"
        },
        {
          "internalType": "bool",
          "name": "approved",
          "type": "bool"
        }
      ],
      "name": "setApprovalForAll",
      "outputs": [],
      "stateMutability": "nonpayable",
      "type": "function"
    },
    {
      "inputs": [
        {
          "internalType": "bytes4",
          "name": "interfaceId",
          "type": "bytes4"
        }
      ],
      "name": "supportsInterface",
      "outputs": [
        {
          "internalType": "bool",
          "name": "",
          "type": "bool"
        }
      ],
      "stateMutability": "view",
      "type": "function",
      "constant": true
    },
    {
      "inputs": [],
      "name": "symbol",
      "outputs": [
        {
          "internalType": "string",
          "name": "",
          "type": "string"
        }
      ],
      "stateMutability": "view",
      "type": "function",
      "constant": true
    },
    {
      "inputs": [
        {
          "internalType": "uint256",
          "name": "tokenId",
          "type": "uint256"
        }
      ],
      "name": "tokenURI",
      "outputs": [
        {
          "internalType": "string",
          "name": "",
          "type": "string"
        }
      ],
      "stateMutability": "view",
      "type": "function",
      "constant": true
    },
    {
      "inputs": [
        {
          "internalType": "address",
          "name": "from",
          "type": "address"
        },
        {
          "internalType": "address",
          "name": "to",
          "type": "address"
        },
        {
          "internalType": "uint256",
          "name": "tokenId",
          "type": "uint256"
        }
      ],
      "name": "transferFrom",
      "outputs": [],
      "stateMutability": "nonpayable",
      "type": "function"
    },
    {
      "inputs": [
        {
          "internalType": "address",
          "name": "newOwner",
          "type": "address"
        }
      ],
      "name": "transferOwnership",
      "outputs": [],
      "stateMutability": "nonpayable",
      "type": "function"
    },
    {
      "inputs": [
        {
          "internalType": "uint16",
          "name": "_newMinBidIncrement",
          "type": "uint16"
        }
      ],
      "name": "setMinBidIncrement",
      "outputs": [],
      "stateMutability": "nonpayable",
      "type": "function"
    },
    {
      "inputs": [
        {
          "internalType": "uint16",
          "name": "_newMinAuctionTime",
          "type": "uint16"
        }
      ],
      "name": "setMinAuctionTime",
      "outputs": [],
      "stateMutability": "nonpayable",
      "type": "function"
    },
    {
      "inputs": [],
      "name": "getHeroes",
      "outputs": [
        {
          "components": [
            {
              "internalType": "string",
              "name": "name",
              "type": "string"
            },
            {
              "internalType": "enum GameToken.HeroType",
              "name": "heroType",
              "type": "uint8"
            },
            {
              "internalType": "enum GameToken.HeroRarity",
              "name": "rarity",
              "type": "uint8"
            },
            {
              "internalType": "uint8",
              "name": "str",
              "type": "uint8"
            },
            {
              "internalType": "uint8",
              "name": "con",
              "type": "uint8"
            },
            {
              "internalType": "uint8",
              "name": "dex",
              "type": "uint8"
            },
            {
              "internalType": "uint8",
              "name": "inte",
              "type": "uint8"
            },
            {
              "internalType": "uint8",
              "name": "level",
              "type": "uint8"
            }
          ],
          "internalType": "struct GameToken.Hero[]",
          "name": "",
          "type": "tuple[]"
        }
      ],
      "stateMutability": "view",
      "type": "function",
      "constant": true
    },
    {
      "inputs": [
        {
          "internalType": "enum GameToken.HeroType",
          "name": "_heroType",
          "type": "uint8"
        },
        {
          "internalType": "enum GameToken.HeroRarity",
          "name": "_heroRarity",
          "type": "uint8"
        }
      ],
      "name": "mint",
      "outputs": [],
      "stateMutability": "nonpayable",
      "type": "function"
    },
    {
      "inputs": [
        {
          "internalType": "address",
          "name": "owner",
          "type": "address"
        }
      ],
      "name": "getHeroesByAddress",
      "outputs": [
        {
          "internalType": "uint256[]",
          "name": "",
          "type": "uint256[]"
        }
      ],
      "stateMutability": "view",
      "type": "function",
      "constant": true
    },
    {
      "inputs": [],
      "name": "getMyHeroes",
      "outputs": [
        {
          "internalType": "uint256[]",
          "name": "",
          "type": "uint256[]"
        }
      ],
      "stateMutability": "view",
      "type": "function",
      "constant": true
    },
    {
      "inputs": [
        {
          "internalType": "uint256",
          "name": "_heroId",
          "type": "uint256"
        }
      ],
      "name": "getHero",
      "outputs": [
        {
          "components": [
            {
              "internalType": "string",
              "name": "name",
              "type": "string"
            },
            {
              "internalType": "enum GameToken.HeroType",
              "name": "heroType",
              "type": "uint8"
            },
            {
              "internalType": "enum GameToken.HeroRarity",
              "name": "rarity",
              "type": "uint8"
            },
            {
              "internalType": "uint8",
              "name": "str",
              "type": "uint8"
            },
            {
              "internalType": "uint8",
              "name": "con",
              "type": "uint8"
            },
            {
              "internalType": "uint8",
              "name": "dex",
              "type": "uint8"
            },
            {
              "internalType": "uint8",
              "name": "inte",
              "type": "uint8"
            },
            {
              "internalType": "uint8",
              "name": "level",
              "type": "uint8"
            }
          ],
          "internalType": "struct GameToken.Hero",
          "name": "",
          "type": "tuple"
        }
      ],
      "stateMutability": "view",
      "type": "function",
      "constant": true
    },
    {
      "inputs": [
        {
          "internalType": "uint256",
          "name": "_heroId",
          "type": "uint256"
        }
      ],
      "name": "getSelling",
      "outputs": [
        {
          "internalType": "uint256",
          "name": "",
          "type": "uint256"
        }
      ],
      "stateMutability": "view",
      "type": "function",
      "constant": true
    },
    {
      "inputs": [
        {
          "internalType": "uint256",
          "name": "_heroId",
          "type": "uint256"
        }
      ],
      "name": "getAuction",
      "outputs": [
        {
          "components": [
            {
              "internalType": "uint256",
              "name": "endTime",
              "type": "uint256"
            },
            {
              "internalType": "uint256",
              "name": "minValue",
              "type": "uint256"
            },
            {
              "internalType": "uint256",
              "name": "currValue",
              "type": "uint256"
            },
            {
              "internalType": "address",
              "name": "lastBidAddress",
              "type": "address"
            }
          ],
          "internalType": "struct GameToken.Auction",
          "name": "",
          "type": "tuple"
        }
      ],
      "stateMutability": "view",
      "type": "function",
      "constant": true
    },
    {
      "inputs": [
        {
          "internalType": "uint256",
          "name": "_heroId",
          "type": "uint256"
        },
        {
          "internalType": "string",
          "name": "_name",
          "type": "string"
        }
      ],
      "name": "setName",
      "outputs": [],
      "stateMutability": "nonpayable",
      "type": "function"
    },
    {
      "inputs": [
        {
          "internalType": "uint256",
          "name": "_heroId",
          "type": "uint256"
        }
      ],
      "name": "levelUp",
      "outputs": [],
      "stateMutability": "nonpayable",
      "type": "function"
    },
    {
      "inputs": [
        {
          "internalType": "uint256",
          "name": "_heroId",
          "type": "uint256"
        },
        {
          "internalType": "uint256",
          "name": "_price",
          "type": "uint256"
        }
      ],
      "name": "allowBuy",
      "outputs": [],
      "stateMutability": "nonpayable",
      "type": "function"
    },
    {
      "inputs": [
        {
          "internalType": "uint256",
          "name": "_heroId",
          "type": "uint256"
        }
      ],
      "name": "disallowBuy",
      "outputs": [],
      "stateMutability": "nonpayable",
      "type": "function"
    },
    {
      "inputs": [
        {
          "internalType": "uint256",
          "name": "_heroId",
          "type": "uint256"
        }
      ],
      "name": "buy",
      "outputs": [],
      "stateMutability": "payable",
      "type": "function",
      "payable": true
    },
    {
      "inputs": [
        {
          "internalType": "uint256",
          "name": "_heroId",
          "type": "uint256"
        },
        {
          "internalType": "uint256",
          "name": "_endTime",
          "type": "uint256"
        },
        {
          "internalType": "uint256",
          "name": "_minPrice",
          "type": "uint256"
        }
      ],
      "name": "createAuction",
      "outputs": [],
      "stateMutability": "nonpayable",
      "type": "function"
    },
    {
      "inputs": [
        {
          "internalType": "uint256",
          "name": "_heroId",
          "type": "uint256"
        }
      ],
      "name": "cancelAuction",
      "outputs": [],
      "stateMutability": "nonpayable",
      "type": "function"
    },
    {
      "inputs": [
        {
          "internalType": "uint256",
          "name": "_heroId",
          "type": "uint256"
        }
      ],
      "name": "bid",
      "outputs": [],
      "stateMutability": "payable",
      "type": "function",
      "payable": true
    },
    {
      "inputs": [
        {
          "internalType": "uint256",
          "name": "_heroId",
          "type": "uint256"
        }
      ],
      "name": "finishAuction",
      "outputs": [],
      "stateMutability": "nonpayable",
      "type": "function"
    },
    {
      "inputs": [],
      "name": "receiver",
      "outputs": [],
      "stateMutability": "payable",
      "type": "function",
      "payable": true
    }
  ],
  "bytecode": "0x6080604052606e600c60006101000a81548161ffff021916908361ffff160217905550603c600c60026101000a81548161ffff021916908361ffff1602179055503480156200004d57600080fd5b5060405162006790380380620067908339818101604052810190620000739190620006e8565b818181600090805190602001906200008d929190620003ed565b508060019080519060200190620000a6929190620003ed565b505050620000c9620000bd6200031f60201b60201c565b6200032760201b60201c565b6040518060c00160405280600060ff168152602001600160ff168152602001600060ff168152602001600260ff168152602001600360ff168152602001600160ff16815250600d60008060038111156200012857620001276200076d565b5b60038111156200013d576200013c6200076d565b5b81526020019081526020016000209060066200015b9291906200047e565b506040518060c00160405280600260ff168152602001600260ff168152602001600060ff168152602001600360ff168152602001600060ff168152602001600260ff16815250600d600060016003811115620001bc57620001bb6200076d565b5b6003811115620001d157620001d06200076d565b5b8152602001908152602001600020906006620001ef9291906200047e565b506040518060c00160405280600360ff168152602001600360ff168152602001600260ff168152602001600160ff168152602001600060ff168152602001600360ff16815250600d60006002600381111562000250576200024f6200076d565b5b60038111156200026557620002646200076d565b5b8152602001908152602001600020906006620002839291906200047e565b506040518060c00160405280600160ff168152602001600160ff168152602001600060ff168152602001600260ff168152602001600360ff168152602001600160ff16815250600d6000600380811115620002e357620002e26200076d565b5b6003811115620002f857620002f76200076d565b5b8152602001908152602001600020906006620003169291906200047e565b50505062000801565b600033905090565b6000600760009054906101000a900473ffffffffffffffffffffffffffffffffffffffff16905081600760006101000a81548173ffffffffffffffffffffffffffffffffffffffff021916908373ffffffffffffffffffffffffffffffffffffffff1602179055508173ffffffffffffffffffffffffffffffffffffffff168173ffffffffffffffffffffffffffffffffffffffff167f8be0079c531659141344cd1fd0a4f28419497f9722a3daafe3b4186f6b6457e060405160405180910390a35050565b828054620003fb90620007cb565b90600052602060002090601f0160209004810192826200041f57600085556200046b565b82601f106200043a57805160ff19168380011785556200046b565b828001600101855582156200046b579182015b828111156200046a5782518255916020019190600101906200044d565b5b5090506200047a91906200052c565b5090565b82805482825590600052602060002090601f01602090048101928215620005195791602002820160005b83821115620004e857835183826101000a81548160ff021916908360ff1602179055509260200192600101602081600001049283019260010302620004a8565b8015620005175782816101000a81549060ff0219169055600101602081600001049283019260010302620004e8565b505b5090506200052891906200052c565b5090565b5b80821115620005475760008160009055506001016200052d565b5090565b6000604051905090565b600080fd5b600080fd5b600080fd5b600080fd5b6000601f19601f8301169050919050565b7f4e487b7100000000000000000000000000000000000000000000000000000000600052604160045260246000fd5b620005b48262000569565b810181811067ffffffffffffffff82111715620005d657620005d56200057a565b5b80604052505050565b6000620005eb6200054b565b9050620005f98282620005a9565b919050565b600067ffffffffffffffff8211156200061c576200061b6200057a565b5b620006278262000569565b9050602081019050919050565b60005b838110156200065457808201518184015260208101905062000637565b8381111562000664576000848401525b50505050565b6000620006816200067b84620005fe565b620005df565b905082815260208101848484011115620006a0576200069f62000564565b5b620006ad84828562000634565b509392505050565b600082601f830112620006cd57620006cc6200055f565b5b8151620006df8482602086016200066a565b91505092915050565b6000806040838503121562000702576200070162000555565b5b600083015167ffffffffffffffff8111156200072357620007226200055a565b5b6200073185828601620006b5565b925050602083015167ffffffffffffffff8111156200075557620007546200055a565b5b6200076385828601620006b5565b9150509250929050565b7f4e487b7100000000000000000000000000000000000000000000000000000000600052602160045260246000fd5b7f4e487b7100000000000000000000000000000000000000000000000000000000600052602260045260246000fd5b60006002820490506001821680620007e457607f821691505b60208210811415620007fb57620007fa6200079c565b5b50919050565b615f7f80620008116000396000f3fe6080604052600436106102035760003560e01c8063806f528311610118578063c87b56dd116100a0578063d96a094a1161006f578063d96a094a14610775578063e985e9c514610791578063f2fde38b146107ce578063f7260d3e146107f7578063fe55932a1461080157610203565b8063c87b56dd146106bd578063cda4beef146106fa578063cf266ed014610723578063d49913121461074c57610203565b80639a8d2882116100e75780639a8d2882146105da578063a22cb46514610605578063b364acd61461062e578063b88d4fde1461066b578063bbb5e8d31461069457610203565b8063806f5283146105305780638da5cb5b1461055b57806395d89b411461058657806396b5a755146105b157610203565b806322f535a71161019b578063454a2ab31161016a578063454a2ab3146104465780636352211e1461046257806370a082311461049f578063715018a6146104dc57806378bd7935146104f357610203565b806322f535a7146103a257806323b872dd146103cb57806329a0eee8146103f457806342842e0e1461041d57610203565b8063095ea7b3116101d7578063095ea7b3146102ea5780630ce90ec214610313578063145c0cc21461033c57806321d801111461036557610203565b80625597e31461020857806301ffc9a71461024557806306fdde0314610282578063081812fc146102ad575b600080fd5b34801561021457600080fd5b5061022f600480360381019061022a9190613e1b565b61082a565b60405161023c9190613f10565b60405180910390f35b34801561025157600080fd5b5061026c60048036038101906102679190613f8a565b610987565b6040516102799190613fd2565b60405180910390f35b34801561028e57600080fd5b50610297610a69565b6040516102a49190614086565b60405180910390f35b3480156102b957600080fd5b506102d460048036038101906102cf91906140d4565b610afb565b6040516102e19190614110565b60405180910390f35b3480156102f657600080fd5b50610311600480360381019061030c919061412b565b610b80565b005b34801561031f57600080fd5b5061033a600480360381019061033591906140d4565b610c98565b005b34801561034857600080fd5b50610363600480360381019061035e91906141a5565b610ea0565b005b34801561037157600080fd5b5061038c600480360381019061038791906140d4565b610f3c565b60405161039991906143a7565b60405180910390f35b3480156103ae57600080fd5b506103c960048036038101906103c491906141a5565b611112565b005b3480156103d757600080fd5b506103f260048036038101906103ed91906143c9565b6111ae565b005b34801561040057600080fd5b5061041b60048036038101906104169190614466565b61120e565b005b34801561042957600080fd5b50610444600480360381019061043f91906143c9565b6117ef565b005b610460600480360381019061045b91906140d4565b61180f565b005b34801561046e57600080fd5b50610489600480360381019061048491906140d4565b611a5c565b6040516104969190614110565b60405180910390f35b3480156104ab57600080fd5b506104c660048036038101906104c19190613e1b565b611b0e565b6040516104d391906144b5565b60405180910390f35b3480156104e857600080fd5b506104f1611bc6565b005b3480156104ff57600080fd5b5061051a600480360381019061051591906140d4565b611c4e565b6040516105279190614534565b60405180910390f35b34801561053c57600080fd5b50610545611cef565b6040516105529190613f10565b60405180910390f35b34801561056757600080fd5b50610570611cff565b60405161057d9190614110565b60405180910390f35b34801561059257600080fd5b5061059b611d29565b6040516105a89190614086565b60405180910390f35b3480156105bd57600080fd5b506105d860048036038101906105d391906140d4565b611dbb565b005b3480156105e657600080fd5b506105ef611f68565b6040516105fc91906146c1565b60405180910390f35b34801561061157600080fd5b5061062c6004803603810190610627919061470f565b612161565b005b34801561063a57600080fd5b50610655600480360381019061065091906140d4565b6122e2565b60405161066291906144b5565b60405180910390f35b34801561067757600080fd5b50610692600480360381019061068d9190614884565b6122ff565b005b3480156106a057600080fd5b506106bb60048036038101906106b69190614907565b612361565b005b3480156106c957600080fd5b506106e460048036038101906106df91906140d4565b612490565b6040516106f19190614086565b60405180910390f35b34801561070657600080fd5b50610721600480360381019061071c9190614947565b6125e2565b005b34801561072f57600080fd5b5061074a600480360381019061074591906140d4565b612874565b005b34801561075857600080fd5b50610773600480360381019061076e91906140d4565b612a96565b005b61078f600480360381019061078a91906140d4565b612b28565b005b34801561079d57600080fd5b506107b860048036038101906107b3919061499a565b612c52565b6040516107c59190613fd2565b60405180910390f35b3480156107da57600080fd5b506107f560048036038101906107f09190613e1b565b612ce6565b005b6107ff612dde565b005b34801561080d57600080fd5b5061082860048036038101906108239190614a7b565b612de0565b005b6060600061083783611b0e565b9050600081141561089457600067ffffffffffffffff81111561085d5761085c614759565b5b60405190808252806020026020018201604052801561088b5781602001602082028036833780820191505090505b50915050610982565b60008167ffffffffffffffff8111156108b0576108af614759565b5b6040519080825280602002602001820160405280156108de5781602001602082028036833780820191505090505b50905060008060009050600091505b6108f76008612e9a565b82101561097a578573ffffffffffffffffffffffffffffffffffffffff1661091e83611a5c565b73ffffffffffffffffffffffffffffffffffffffff161415610967578183828061094790614b06565b93508151811061095a57610959614b4f565b5b6020026020010181815250505b818061097290614b06565b9250506108ed565b829450505050505b919050565b60007f80ac58cd000000000000000000000000000000000000000000000000000000007bffffffffffffffffffffffffffffffffffffffffffffffffffffffff1916827bffffffffffffffffffffffffffffffffffffffffffffffffffffffff19161480610a5257507f5b5e139f000000000000000000000000000000000000000000000000000000007bffffffffffffffffffffffffffffffffffffffffffffffffffffffff1916827bffffffffffffffffffffffffffffffffffffffffffffffffffffffff1916145b80610a625750610a6182612ea8565b5b9050919050565b606060008054610a7890614bad565b80601f0160208091040260200160405190810160405280929190818152602001828054610aa490614bad565b8015610af15780601f10610ac657610100808354040283529160200191610af1565b820191906000526020600020905b815481529060010190602001808311610ad457829003601f168201915b5050505050905090565b6000610b0682612f12565b610b45576040517f08c379a0000000000000000000000000000000000000000000000000000000008152600401610b3c90614c51565b60405180910390fd5b6004600083815260200190815260200160002060009054906101000a900473ffffffffffffffffffffffffffffffffffffffff169050919050565b6000610b8b82611a5c565b90508073ffffffffffffffffffffffffffffffffffffffff168373ffffffffffffffffffffffffffffffffffffffff161415610bfc576040517f08c379a0000000000000000000000000000000000000000000000000000000008152600401610bf390614ce3565b60405180910390fd5b8073ffffffffffffffffffffffffffffffffffffffff16610c1b612f7e565b73ffffffffffffffffffffffffffffffffffffffff161480610c4a5750610c4981610c44612f7e565b612c52565b5b610c89576040517f08c379a0000000000000000000000000000000000000000000000000000000008152600401610c8090614d75565b60405180910390fd5b610c938383612f86565b505050565b610ca181611a5c565b73ffffffffffffffffffffffffffffffffffffffff163373ffffffffffffffffffffffffffffffffffffffff1614610d0e576040517f08c379a0000000000000000000000000000000000000000000000000000000008152600401610d0590614de1565b60405180910390fd5b600060098281548110610d2457610d23614b4f565b5b9060005260206000209060020201905080600101600681819054906101000a900460ff1680929190610d5590614e01565b91906101000a81548160ff021916908360ff160217905550506000610d7a600361303f565b90506000811415610dc45781600101600281819054906101000a900460ff1680929190610da690614e01565b91906101000a81548160ff021916908360ff16021790555050610e9b565b6001811415610e0c5781600101600381819054906101000a900460ff1680929190610dee90614e01565b91906101000a81548160ff021916908360ff16021790555050610e9a565b6002811415610e545781600101600481819054906101000a900460ff1680929190610e3690614e01565b91906101000a81548160ff021916908360ff16021790555050610e99565b6003811415610e985781600101600581819054906101000a900460ff1680929190610e7e90614e01565b91906101000a81548160ff021916908360ff160217905550505b5b5b5b505050565b610ea8612f7e565b73ffffffffffffffffffffffffffffffffffffffff16610ec6611cff565b73ffffffffffffffffffffffffffffffffffffffff1614610f1c576040517f08c379a0000000000000000000000000000000000000000000000000000000008152600401610f1390614e77565b60405180910390fd5b80600c60006101000a81548161ffff021916908361ffff16021790555050565b610f44613c50565b60098281548110610f5857610f57614b4f565b5b906000526020600020906002020160405180610100016040529081600082018054610f8290614bad565b80601f0160208091040260200160405190810160405280929190818152602001828054610fae90614bad565b8015610ffb5780601f10610fd057610100808354040283529160200191610ffb565b820191906000526020600020905b815481529060010190602001808311610fde57829003601f168201915b505050505081526020016001820160009054906101000a900460ff1660038111156110295761102861421c565b5b600381111561103b5761103a61421c565b5b81526020016001820160019054906101000a900460ff1660038111156110645761106361421c565b5b60038111156110765761107561421c565b5b81526020016001820160029054906101000a900460ff1660ff1660ff1681526020016001820160039054906101000a900460ff1660ff1660ff1681526020016001820160049054906101000a900460ff1660ff1660ff1681526020016001820160059054906101000a900460ff1660ff1660ff1681526020016001820160069054906101000a900460ff1660ff1660ff16815250509050919050565b61111a612f7e565b73ffffffffffffffffffffffffffffffffffffffff16611138611cff565b73ffffffffffffffffffffffffffffffffffffffff161461118e576040517f08c379a000000000000000000000000000000000000000000000000000000000815260040161118590614e77565b60405180910390fd5b80600c60026101000a81548161ffff021916908361ffff16021790555050565b6111bf6111b9612f7e565b82613155565b6111fe576040517f08c379a00000000000000000000000000000000000000000000000000000000081526004016111f590614f09565b60405180910390fd5b611209838383613233565b505050565b611216612f7e565b73ffffffffffffffffffffffffffffffffffffffff16611234611cff565b73ffffffffffffffffffffffffffffffffffffffff161461128a576040517f08c379a000000000000000000000000000000000000000000000000000000000815260040161128190614e77565b60405180910390fd5b60006112966008612e9a565b9050600080600060038111156112af576112ae61421c565b5b8460038111156112c2576112c161421c565b5b14156112d5576004915060069050611354565b600160038111156112e9576112e861421c565b5b8460038111156112fc576112fb61421c565b5b141561130f576007915060089050611353565b600260038111156113235761132261421c565b5b8460038111156113365761133561421c565b5b14156113495760099150600a9050611352565b600b9150600c90505b5b5b60008260ff1661136e84846113699190614f29565b61303f565b6113789190614f5d565b90506000600467ffffffffffffffff81111561139757611396614759565b5b6040519080825280602002602001820160405280156113c55781602001602082028036833780820191505090505b5090506001816000815181106113de576113dd614b4f565b5b602002602001019060ff16908160ff168152505060018160018151811061140857611407614b4f565b5b602002602001019060ff16908160ff168152505060018160028151811061143257611431614b4f565b5b602002602001019060ff16908160ff168152505060018160038151811061145c5761145b614b4f565b5b602002602001019060ff16908160ff1681525050600080600190505b838160ff16116115595782600d60008b600381111561149a5761149961421c565b5b60038111156114ac576114ab61421c565b5b81526020019081526020016000208360ff16815481106114cf576114ce614b4f565b5b90600052602060002090602091828204019190069054906101000a900460ff1660ff168151811061150357611502614b4f565b5b60200260200101805180919061151890614e01565b60ff1660ff168152505060058260ff1614156115375760009150611546565b818061154290614e01565b9250505b808061155190614e01565b915050611478565b50611564338761348f565b6115a3866040518060400160405280600581526020017f74657374650000000000000000000000000000000000000000000000000000008152506134ad565b60096040518061010001604052806040518060200160405280600081525081526020018a60038111156115d9576115d861421c565b5b81526020018960038111156115f1576115f061421c565b5b81526020018460008151811061160a57611609614b4f565b5b602002602001015160ff1681526020018460018151811061162e5761162d614b4f565b5b602002602001015160ff1681526020018460028151811061165257611651614b4f565b5b602002602001015160ff1681526020018460038151811061167657611675614b4f565b5b602002602001015160ff168152602001600160ff16815250908060018154018082558091505060019003906000526020600020906002020160009091909190915060008201518160000190805190602001906116d3929190613cc8565b5060208201518160010160006101000a81548160ff021916908360038111156116ff576116fe61421c565b5b021790555060408201518160010160016101000a81548160ff0219169083600381111561172f5761172e61421c565b5b021790555060608201518160010160026101000a81548160ff021916908360ff16021790555060808201518160010160036101000a81548160ff021916908360ff16021790555060a08201518160010160046101000a81548160ff021916908360ff16021790555060c08201518160010160056101000a81548160ff021916908360ff16021790555060e08201518160010160066101000a81548160ff021916908360ff16021790555050506117e56008613521565b5050505050505050565b61180a838383604051806020016040528060008152506122ff565b505050565b6000600b600083815260200190815260200160002090506000600b6000848152602001908152602001600020600001541161187f576040517f08c379a000000000000000000000000000000000000000000000000000000000815260040161187690614fff565b60405180910390fd5b6103e84261188d919061501f565b8160000154116118d2576040517f08c379a00000000000000000000000000000000000000000000000000000000081526004016118c9906150c5565b60405180910390fd5b6064600c60009054906101000a900461ffff1661ffff1682600201546118f8919061501f565b6119029190615114565b341015611944576040517f08c379a000000000000000000000000000000000000000000000000000000000815260040161193b90615191565b60405180910390fd5b600073ffffffffffffffffffffffffffffffffffffffff168160030160009054906101000a900473ffffffffffffffffffffffffffffffffffffffff1673ffffffffffffffffffffffffffffffffffffffff1614611a0c578060030160009054906101000a900473ffffffffffffffffffffffffffffffffffffffff1673ffffffffffffffffffffffffffffffffffffffff166108fc82600201549081150290604051600060405180830381858888f19350505050158015611a0a573d6000803e3d6000fd5b505b348160020181905550338160030160006101000a81548173ffffffffffffffffffffffffffffffffffffffff021916908373ffffffffffffffffffffffffffffffffffffffff1602179055505050565b6000806002600084815260200190815260200160002060009054906101000a900473ffffffffffffffffffffffffffffffffffffffff169050600073ffffffffffffffffffffffffffffffffffffffff168173ffffffffffffffffffffffffffffffffffffffff161415611b05576040517f08c379a0000000000000000000000000000000000000000000000000000000008152600401611afc90615223565b60405180910390fd5b80915050919050565b60008073ffffffffffffffffffffffffffffffffffffffff168273ffffffffffffffffffffffffffffffffffffffff161415611b7f576040517f08c379a0000000000000000000000000000000000000000000000000000000008152600401611b76906152b5565b60405180910390fd5b600360008373ffffffffffffffffffffffffffffffffffffffff1673ffffffffffffffffffffffffffffffffffffffff168152602001908152602001600020549050919050565b611bce612f7e565b73ffffffffffffffffffffffffffffffffffffffff16611bec611cff565b73ffffffffffffffffffffffffffffffffffffffff1614611c42576040517f08c379a0000000000000000000000000000000000000000000000000000000008152600401611c3990614e77565b60405180910390fd5b611c4c6000613537565b565b611c56613d4e565b600b60008381526020019081526020016000206040518060800160405290816000820154815260200160018201548152602001600282015481526020016003820160009054906101000a900473ffffffffffffffffffffffffffffffffffffffff1673ffffffffffffffffffffffffffffffffffffffff1673ffffffffffffffffffffffffffffffffffffffff16815250509050919050565b6060611cfa3361082a565b905090565b6000600760009054906101000a900473ffffffffffffffffffffffffffffffffffffffff16905090565b606060018054611d3890614bad565b80601f0160208091040260200160405190810160405280929190818152602001828054611d6490614bad565b8015611db15780601f10611d8657610100808354040283529160200191611db1565b820191906000526020600020905b815481529060010190602001808311611d9457829003601f168201915b5050505050905090565b611dc481611a5c565b73ffffffffffffffffffffffffffffffffffffffff163373ffffffffffffffffffffffffffffffffffffffff1614611e31576040517f08c379a0000000000000000000000000000000000000000000000000000000008152600401611e2890614de1565b60405180910390fd5b6000600b60008381526020019081526020016000206040518060800160405290816000820154815260200160018201548152602001600282015481526020016003820160009054906101000a900473ffffffffffffffffffffffffffffffffffffffff1673ffffffffffffffffffffffffffffffffffffffff1673ffffffffffffffffffffffffffffffffffffffff16815250509050600081604001511115611f0f576040517f08c379a0000000000000000000000000000000000000000000000000000000008152600401611f0690615321565b60405180910390fd5b600b6000838152602001908152602001600020600080820160009055600182016000905560028201600090556003820160006101000a81549073ffffffffffffffffffffffffffffffffffffffff021916905550505050565b60606009805480602002602001604051908101604052809291908181526020016000905b82821015612158578382906000526020600020906002020160405180610100016040529081600082018054611fc090614bad565b80601f0160208091040260200160405190810160405280929190818152602001828054611fec90614bad565b80156120395780601f1061200e57610100808354040283529160200191612039565b820191906000526020600020905b81548152906001019060200180831161201c57829003601f168201915b505050505081526020016001820160009054906101000a900460ff1660038111156120675761206661421c565b5b60038111156120795761207861421c565b5b81526020016001820160019054906101000a900460ff1660038111156120a2576120a161421c565b5b60038111156120b4576120b361421c565b5b81526020016001820160029054906101000a900460ff1660ff1660ff1681526020016001820160039054906101000a900460ff1660ff1660ff1681526020016001820160049054906101000a900460ff1660ff1660ff1681526020016001820160059054906101000a900460ff1660ff1660ff1681526020016001820160069054906101000a900460ff1660ff1660ff168152505081526020019060010190611f8c565b50505050905090565b612169612f7e565b73ffffffffffffffffffffffffffffffffffffffff168273ffffffffffffffffffffffffffffffffffffffff1614156121d7576040517f08c379a00000000000000000000000000000000000000000000000000000000081526004016121ce9061538d565b60405180910390fd5b80600560006121e4612f7e565b73ffffffffffffffffffffffffffffffffffffffff1673ffffffffffffffffffffffffffffffffffffffff16815260200190815260200160002060008473ffffffffffffffffffffffffffffffffffffffff1673ffffffffffffffffffffffffffffffffffffffff16815260200190815260200160002060006101000a81548160ff0219169083151502179055508173ffffffffffffffffffffffffffffffffffffffff16612291612f7e565b73ffffffffffffffffffffffffffffffffffffffff167f17307eab39ab6107e8899845ad3d59bd9653f200f220920489ca2b5937696c31836040516122d69190613fd2565b60405180910390a35050565b6000600a6000838152602001908152602001600020549050919050565b61231061230a612f7e565b83613155565b61234f576040517f08c379a000000000000000000000000000000000000000000000000000000000815260040161234690614f09565b60405180910390fd5b61235b848484846135fd565b50505050565b61236a82611a5c565b73ffffffffffffffffffffffffffffffffffffffff163373ffffffffffffffffffffffffffffffffffffffff16146123d7576040517f08c379a00000000000000000000000000000000000000000000000000000000081526004016123ce90614de1565b60405180910390fd5b6000811161241a576040517f08c379a0000000000000000000000000000000000000000000000000000000008152600401612411906153f9565b60405180910390fd5b6000600b6000848152602001908152602001600020600001541115612474576040517f08c379a000000000000000000000000000000000000000000000000000000000815260040161246b90615465565b60405180910390fd5b80600a6000848152602001908152602001600020819055505050565b606061249b82612f12565b6124da576040517f08c379a00000000000000000000000000000000000000000000000000000000081526004016124d1906154f7565b60405180910390fd5b60006006600084815260200190815260200160002080546124fa90614bad565b80601f016020809104026020016040519081016040528092919081815260200182805461252690614bad565b80156125735780601f1061254857610100808354040283529160200191612573565b820191906000526020600020905b81548152906001019060200180831161255657829003601f168201915b505050505090506000612584613659565b905060008151141561259a5781925050506125dd565b6000825111156125cf5780826040516020016125b7929190615553565b604051602081830303815290604052925050506125dd565b6125d884613670565b925050505b919050565b6125eb83611a5c565b73ffffffffffffffffffffffffffffffffffffffff163373ffffffffffffffffffffffffffffffffffffffff1614612658576040517f08c379a000000000000000000000000000000000000000000000000000000000815260040161264f90614de1565b60405180910390fd5b6103e8600c60029054906101000a900461ffff1661ffff164261267b9190614f5d565b612685919061501f565b8210156126c7576040517f08c379a00000000000000000000000000000000000000000000000000000000081526004016126be906155c3565b60405180910390fd5b6000811161270a576040517f08c379a00000000000000000000000000000000000000000000000000000000081526004016127019061562f565b60405180910390fd5b6000600b6000858152602001908152602001600020600001541115612764576040517f08c379a000000000000000000000000000000000000000000000000000000000815260040161275b9061569b565b60405180910390fd5b6000600a60008581526020019081526020016000205411156127bb576040517f08c379a00000000000000000000000000000000000000000000000000000000081526004016127b290615707565b60405180910390fd5b604051806080016040528083815260200182815260200160008152602001600073ffffffffffffffffffffffffffffffffffffffff16815250600b600085815260200190815260200160002060008201518160000155602082015181600101556040820151816002015560608201518160030160006101000a81548173ffffffffffffffffffffffffffffffffffffffff021916908373ffffffffffffffffffffffffffffffffffffffff160217905550905050505050565b6000600b60008381526020019081526020016000206040518060800160405290816000820154815260200160018201548152602001600282015481526020016003820160009054906101000a900473ffffffffffffffffffffffffffffffffffffffff1673ffffffffffffffffffffffffffffffffffffffff1673ffffffffffffffffffffffffffffffffffffffff168152505090506000600b60008481526020019081526020016000206000015411612963576040517f08c379a000000000000000000000000000000000000000000000000000000000815260040161295a90614fff565b60405180910390fd5b6103e842612971919061501f565b816000015111156129b7576040517f08c379a00000000000000000000000000000000000000000000000000000000081526004016129ae90615773565b60405180910390fd5b600081604001511115612a3d5760006129cf83611a5c565b90508073ffffffffffffffffffffffffffffffffffffffff166108fc83604001519081150290604051600060405180830381858888f19350505050158015612a1b573d6000803e3d6000fd5b50612a3b81836060015185604051806020016040528060008152506135fd565b505b600b6000838152602001908152602001600020600080820160009055600182016000905560028201600090556003820160006101000a81549073ffffffffffffffffffffffffffffffffffffffff021916905550505050565b612a9f81611a5c565b73ffffffffffffffffffffffffffffffffffffffff163373ffffffffffffffffffffffffffffffffffffffff1614612b0c576040517f08c379a0000000000000000000000000000000000000000000000000000000008152600401612b0390614de1565b60405180910390fd5b6000600a60008381526020019081526020016000208190555050565b6000600a600083815260200190815260200160002054905060008111612b83576040517f08c379a0000000000000000000000000000000000000000000000000000000008152600401612b7a906157df565b60405180910390fd5b803414612bc5576040517f08c379a0000000000000000000000000000000000000000000000000000000008152600401612bbc90615191565b60405180910390fd5b6000612bd083611a5c565b90508073ffffffffffffffffffffffffffffffffffffffff166108fc349081150290604051600060405180830381858888f19350505050158015612c18573d6000803e3d6000fd5b50612c34813385604051806020016040528060008152506135fd565b6000600a600085815260200190815260200160002081905550505050565b6000600560008473ffffffffffffffffffffffffffffffffffffffff1673ffffffffffffffffffffffffffffffffffffffff16815260200190815260200160002060008373ffffffffffffffffffffffffffffffffffffffff1673ffffffffffffffffffffffffffffffffffffffff16815260200190815260200160002060009054906101000a900460ff16905092915050565b612cee612f7e565b73ffffffffffffffffffffffffffffffffffffffff16612d0c611cff565b73ffffffffffffffffffffffffffffffffffffffff1614612d62576040517f08c379a0000000000000000000000000000000000000000000000000000000008152600401612d5990614e77565b60405180910390fd5b600073ffffffffffffffffffffffffffffffffffffffff168173ffffffffffffffffffffffffffffffffffffffff161415612dd2576040517f08c379a0000000000000000000000000000000000000000000000000000000008152600401612dc990615871565b60405180910390fd5b612ddb81613537565b50565b565b612de982611a5c565b73ffffffffffffffffffffffffffffffffffffffff163373ffffffffffffffffffffffffffffffffffffffff1614612e56576040517f08c379a0000000000000000000000000000000000000000000000000000000008152600401612e4d90614de1565b60405180910390fd5b600060098381548110612e6c57612e6b614b4f565b5b9060005260206000209060020201905081816000019080519060200190612e94929190613cc8565b50505050565b600081600001549050919050565b60007f01ffc9a7000000000000000000000000000000000000000000000000000000007bffffffffffffffffffffffffffffffffffffffffffffffffffffffff1916827bffffffffffffffffffffffffffffffffffffffffffffffffffffffff1916149050919050565b60008073ffffffffffffffffffffffffffffffffffffffff166002600084815260200190815260200160002060009054906101000a900473ffffffffffffffffffffffffffffffffffffffff1673ffffffffffffffffffffffffffffffffffffffff1614159050919050565b600033905090565b816004600083815260200190815260200160002060006101000a81548173ffffffffffffffffffffffffffffffffffffffff021916908373ffffffffffffffffffffffffffffffffffffffff160217905550808273ffffffffffffffffffffffffffffffffffffffff16612ff983611a5c565b73ffffffffffffffffffffffffffffffffffffffff167f8c5be1e5ebec7d5bd14f71427d1e84f3dd0314c0f7b2291e5b200ac8c7c3b92560405160405180910390a45050565b60008043423360405160200161305591906158d9565b6040516020818303038152906040528051906020012060001c6130789190615114565b45424160405160200161308b919061592f565b6040516020818303038152906040528051906020012060001c6130ae9190615114565b44426130ba9190614f5d565b6130c49190614f5d565b6130ce9190614f5d565b6130d89190614f5d565b6130e29190614f5d565b6040516020016130f2919061596b565b6040516020818303038152906040528051906020012060001c905060018361311a9190615986565b60ff1660018461312a9190615986565b60ff16826131389190615114565b613142919061501f565b8161314d91906159bd565b915050919050565b600061316082612f12565b61319f576040517f08c379a000000000000000000000000000000000000000000000000000000000815260040161319690615a63565b60405180910390fd5b60006131aa83611a5c565b90508073ffffffffffffffffffffffffffffffffffffffff168473ffffffffffffffffffffffffffffffffffffffff16148061321957508373ffffffffffffffffffffffffffffffffffffffff1661320184610afb565b73ffffffffffffffffffffffffffffffffffffffff16145b8061322a57506132298185612c52565b5b91505092915050565b8273ffffffffffffffffffffffffffffffffffffffff1661325382611a5c565b73ffffffffffffffffffffffffffffffffffffffff16146132a9576040517f08c379a00000000000000000000000000000000000000000000000000000000081526004016132a090615af5565b60405180910390fd5b600073ffffffffffffffffffffffffffffffffffffffff168273ffffffffffffffffffffffffffffffffffffffff161415613319576040517f08c379a000000000000000000000000000000000000000000000000000000000815260040161331090615b87565b60405180910390fd5b613324838383613717565b61332f600082612f86565b6001600360008573ffffffffffffffffffffffffffffffffffffffff1673ffffffffffffffffffffffffffffffffffffffff168152602001908152602001600020600082825461337f91906159bd565b925050819055506001600360008473ffffffffffffffffffffffffffffffffffffffff1673ffffffffffffffffffffffffffffffffffffffff16815260200190815260200160002060008282546133d69190614f5d565b92505081905550816002600083815260200190815260200160002060006101000a81548173ffffffffffffffffffffffffffffffffffffffff021916908373ffffffffffffffffffffffffffffffffffffffff160217905550808273ffffffffffffffffffffffffffffffffffffffff168473ffffffffffffffffffffffffffffffffffffffff167fddf252ad1be2c89b69c2b068fc378daa952ba7f163c4a11628f55a4df523b3ef60405160405180910390a4505050565b6134a982826040518060200160405280600081525061371c565b5050565b6134b682612f12565b6134f5576040517f08c379a00000000000000000000000000000000000000000000000000000000081526004016134ec90615c19565b60405180910390fd5b8060066000848152602001908152602001600020908051906020019061351c929190613cc8565b505050565b6001816000016000828254019250508190555050565b6000600760009054906101000a900473ffffffffffffffffffffffffffffffffffffffff16905081600760006101000a81548173ffffffffffffffffffffffffffffffffffffffff021916908373ffffffffffffffffffffffffffffffffffffffff1602179055508173ffffffffffffffffffffffffffffffffffffffff168173ffffffffffffffffffffffffffffffffffffffff167f8be0079c531659141344cd1fd0a4f28419497f9722a3daafe3b4186f6b6457e060405160405180910390a35050565b613608848484613233565b61361484848484613777565b613653576040517f08c379a000000000000000000000000000000000000000000000000000000000815260040161364a90615cab565b60405180910390fd5b50505050565b606060405180602001604052806000815250905090565b606061367b82612f12565b6136ba576040517f08c379a00000000000000000000000000000000000000000000000000000000081526004016136b190615d3d565b60405180910390fd5b60006136c4613659565b905060008151116136e4576040518060200160405280600081525061370f565b806136ee8461390e565b6040516020016136ff929190615553565b6040516020818303038152906040525b915050919050565b505050565b6137268383613a6f565b6137336000848484613777565b613772576040517f08c379a000000000000000000000000000000000000000000000000000000000815260040161376990615cab565b60405180910390fd5b505050565b60006137988473ffffffffffffffffffffffffffffffffffffffff16613c3d565b15613901578373ffffffffffffffffffffffffffffffffffffffff1663150b7a026137c1612f7e565b8786866040518563ffffffff1660e01b81526004016137e39493929190615db2565b602060405180830381600087803b1580156137fd57600080fd5b505af192505050801561382e57506040513d601f19601f8201168201806040525081019061382b9190615e13565b60015b6138b1573d806000811461385e576040519150601f19603f3d011682016040523d82523d6000602084013e613863565b606091505b506000815114156138a9576040517f08c379a00000000000000000000000000000000000000000000000000000000081526004016138a090615cab565b60405180910390fd5b805181602001fd5b63150b7a0260e01b7bffffffffffffffffffffffffffffffffffffffffffffffffffffffff1916817bffffffffffffffffffffffffffffffffffffffffffffffffffffffff191614915050613906565b600190505b949350505050565b60606000821415613956576040518060400160405280600181526020017f30000000000000000000000000000000000000000000000000000000000000008152509050613a6a565b600082905060005b6000821461398857808061397190614b06565b915050600a826139819190615114565b915061395e565b60008167ffffffffffffffff8111156139a4576139a3614759565b5b6040519080825280601f01601f1916602001820160405280156139d65781602001600182028036833780820191505090505b5090505b60008514613a63576001826139ef91906159bd565b9150600a856139fe9190615e40565b6030613a0a9190614f5d565b60f81b818381518110613a2057613a1f614b4f565b5b60200101907effffffffffffffffffffffffffffffffffffffffffffffffffffffffffffff1916908160001a905350600a85613a5c9190615114565b94506139da565b8093505050505b919050565b600073ffffffffffffffffffffffffffffffffffffffff168273ffffffffffffffffffffffffffffffffffffffff161415613adf576040517f08c379a0000000000000000000000000000000000000000000000000000000008152600401613ad690615ebd565b60405180910390fd5b613ae881612f12565b15613b28576040517f08c379a0000000000000000000000000000000000000000000000000000000008152600401613b1f90615f29565b60405180910390fd5b613b3460008383613717565b6001600360008473ffffffffffffffffffffffffffffffffffffffff1673ffffffffffffffffffffffffffffffffffffffff1681526020019081526020016000206000828254613b849190614f5d565b92505081905550816002600083815260200190815260200160002060006101000a81548173ffffffffffffffffffffffffffffffffffffffff021916908373ffffffffffffffffffffffffffffffffffffffff160217905550808273ffffffffffffffffffffffffffffffffffffffff16600073ffffffffffffffffffffffffffffffffffffffff167fddf252ad1be2c89b69c2b068fc378daa952ba7f163c4a11628f55a4df523b3ef60405160405180910390a45050565b600080823b905060008111915050919050565b6040518061010001604052806060815260200160006003811115613c7757613c7661421c565b5b815260200160006003811115613c9057613c8f61421c565b5b8152602001600060ff168152602001600060ff168152602001600060ff168152602001600060ff168152602001600060ff1681525090565b828054613cd490614bad565b90600052602060002090601f016020900481019282613cf65760008555613d3d565b82601f10613d0f57805160ff1916838001178555613d3d565b82800160010185558215613d3d579182015b82811115613d3c578251825591602001919060010190613d21565b5b509050613d4a9190613d8c565b5090565b6040518060800160405280600081526020016000815260200160008152602001600073ffffffffffffffffffffffffffffffffffffffff1681525090565b5b80821115613da5576000816000905550600101613d8d565b5090565b6000604051905090565b600080fd5b600080fd5b600073ffffffffffffffffffffffffffffffffffffffff82169050919050565b6000613de882613dbd565b9050919050565b613df881613ddd565b8114613e0357600080fd5b50565b600081359050613e1581613def565b92915050565b600060208284031215613e3157613e30613db3565b5b6000613e3f84828501613e06565b91505092915050565b600081519050919050565b600082825260208201905092915050565b6000819050602082019050919050565b6000819050919050565b613e8781613e74565b82525050565b6000613e998383613e7e565b60208301905092915050565b6000602082019050919050565b6000613ebd82613e48565b613ec78185613e53565b9350613ed283613e64565b8060005b83811015613f03578151613eea8882613e8d565b9750613ef583613ea5565b925050600181019050613ed6565b5085935050505092915050565b60006020820190508181036000830152613f2a8184613eb2565b905092915050565b60007fffffffff0000000000000000000000000000000000000000000000000000000082169050919050565b613f6781613f32565b8114613f7257600080fd5b50565b600081359050613f8481613f5e565b92915050565b600060208284031215613fa057613f9f613db3565b5b6000613fae84828501613f75565b91505092915050565b60008115159050919050565b613fcc81613fb7565b82525050565b6000602082019050613fe76000830184613fc3565b92915050565b600081519050919050565b600082825260208201905092915050565b60005b8381101561402757808201518184015260208101905061400c565b83811115614036576000848401525b50505050565b6000601f19601f8301169050919050565b600061405882613fed565b6140628185613ff8565b9350614072818560208601614009565b61407b8161403c565b840191505092915050565b600060208201905081810360008301526140a0818461404d565b905092915050565b6140b181613e74565b81146140bc57600080fd5b50565b6000813590506140ce816140a8565b92915050565b6000602082840312156140ea576140e9613db3565b5b60006140f8848285016140bf565b91505092915050565b61410a81613ddd565b82525050565b60006020820190506141256000830184614101565b92915050565b6000806040838503121561414257614141613db3565b5b600061415085828601613e06565b9250506020614161858286016140bf565b9150509250929050565b600061ffff82169050919050565b6141828161416b565b811461418d57600080fd5b50565b60008135905061419f81614179565b92915050565b6000602082840312156141bb576141ba613db3565b5b60006141c984828501614190565b91505092915050565b600082825260208201905092915050565b60006141ee82613fed565b6141f881856141d2565b9350614208818560208601614009565b6142118161403c565b840191505092915050565b7f4e487b7100000000000000000000000000000000000000000000000000000000600052602160045260246000fd5b6004811061425c5761425b61421c565b5b50565b600081905061426d8261424b565b919050565b600061427d8261425f565b9050919050565b61428d81614272565b82525050565b600481106142a4576142a361421c565b5b50565b60008190506142b582614293565b919050565b60006142c5826142a7565b9050919050565b6142d5816142ba565b82525050565b600060ff82169050919050565b6142f1816142db565b82525050565b600061010083016000830151848203600086015261431582826141e3565b915050602083015161432a6020860182614284565b50604083015161433d60408601826142cc565b50606083015161435060608601826142e8565b50608083015161436360808601826142e8565b5060a083015161437660a08601826142e8565b5060c083015161438960c08601826142e8565b5060e083015161439c60e08601826142e8565b508091505092915050565b600060208201905081810360008301526143c181846142f7565b905092915050565b6000806000606084860312156143e2576143e1613db3565b5b60006143f086828701613e06565b935050602061440186828701613e06565b9250506040614412868287016140bf565b9150509250925092565b6004811061442957600080fd5b50565b60008135905061443b8161441c565b92915050565b6004811061444e57600080fd5b50565b60008135905061446081614441565b92915050565b6000806040838503121561447d5761447c613db3565b5b600061448b8582860161442c565b925050602061449c85828601614451565b9150509250929050565b6144af81613e74565b82525050565b60006020820190506144ca60008301846144a6565b92915050565b6144d981613ddd565b82525050565b6080820160008201516144f56000850182613e7e565b5060208201516145086020850182613e7e565b50604082015161451b6040850182613e7e565b50606082015161452e60608501826144d0565b50505050565b600060808201905061454960008301846144df565b92915050565b600081519050919050565b600082825260208201905092915050565b6000819050602082019050919050565b600061010083016000830151848203600086015261459982826141e3565b91505060208301516145ae6020860182614284565b5060408301516145c160408601826142cc565b5060608301516145d460608601826142e8565b5060808301516145e760808601826142e8565b5060a08301516145fa60a08601826142e8565b5060c083015161460d60c08601826142e8565b5060e083015161462060e08601826142e8565b508091505092915050565b6000614637838361457b565b905092915050565b6000602082019050919050565b60006146578261454f565b614661818561455a565b9350836020820285016146738561456b565b8060005b858110156146af5784840389528151614690858261462b565b945061469b8361463f565b925060208a01995050600181019050614677565b50829750879550505050505092915050565b600060208201905081810360008301526146db818461464c565b905092915050565b6146ec81613fb7565b81146146f757600080fd5b50565b600081359050614709816146e3565b92915050565b6000806040838503121561472657614725613db3565b5b600061473485828601613e06565b9250506020614745858286016146fa565b9150509250929050565b600080fd5b600080fd5b7f4e487b7100000000000000000000000000000000000000000000000000000000600052604160045260246000fd5b6147918261403c565b810181811067ffffffffffffffff821117156147b0576147af614759565b5b80604052505050565b60006147c3613da9565b90506147cf8282614788565b919050565b600067ffffffffffffffff8211156147ef576147ee614759565b5b6147f88261403c565b9050602081019050919050565b82818337600083830152505050565b6000614827614822846147d4565b6147b9565b90508281526020810184848401111561484357614842614754565b5b61484e848285614805565b509392505050565b600082601f83011261486b5761486a61474f565b5b813561487b848260208601614814565b91505092915050565b6000806000806080858703121561489e5761489d613db3565b5b60006148ac87828801613e06565b94505060206148bd87828801613e06565b93505060406148ce878288016140bf565b925050606085013567ffffffffffffffff8111156148ef576148ee613db8565b5b6148fb87828801614856565b91505092959194509250565b6000806040838503121561491e5761491d613db3565b5b600061492c858286016140bf565b925050602061493d858286016140bf565b9150509250929050565b6000806000606084860312156149605761495f613db3565b5b600061496e868287016140bf565b935050602061497f868287016140bf565b9250506040614990868287016140bf565b9150509250925092565b600080604083850312156149b1576149b0613db3565b5b60006149bf85828601613e06565b92505060206149d085828601613e06565b9150509250929050565b600067ffffffffffffffff8211156149f5576149f4614759565b5b6149fe8261403c565b9050602081019050919050565b6000614a1e614a19846149da565b6147b9565b905082815260208101848484011115614a3a57614a39614754565b5b614a45848285614805565b509392505050565b600082601f830112614a6257614a6161474f565b5b8135614a72848260208601614a0b565b91505092915050565b60008060408385031215614a9257614a91613db3565b5b6000614aa0858286016140bf565b925050602083013567ffffffffffffffff811115614ac157614ac0613db8565b5b614acd85828601614a4d565b9150509250929050565b7f4e487b7100000000000000000000000000000000000000000000000000000000600052601160045260246000fd5b6000614b1182613e74565b91507fffffffffffffffffffffffffffffffffffffffffffffffffffffffffffffffff821415614b4457614b43614ad7565b5b600182019050919050565b7f4e487b7100000000000000000000000000000000000000000000000000000000600052603260045260246000fd5b7f4e487b7100000000000000000000000000000000000000000000000000000000600052602260045260246000fd5b60006002820490506001821680614bc557607f821691505b60208210811415614bd957614bd8614b7e565b5b50919050565b7f4552433732313a20617070726f76656420717565727920666f72206e6f6e657860008201527f697374656e7420746f6b656e0000000000000000000000000000000000000000602082015250565b6000614c3b602c83613ff8565b9150614c4682614bdf565b604082019050919050565b60006020820190508181036000830152614c6a81614c2e565b9050919050565b7f4552433732313a20617070726f76616c20746f2063757272656e74206f776e6560008201527f7200000000000000000000000000000000000000000000000000000000000000602082015250565b6000614ccd602183613ff8565b9150614cd882614c71565b604082019050919050565b60006020820190508181036000830152614cfc81614cc0565b9050919050565b7f4552433732313a20617070726f76652063616c6c6572206973206e6f74206f7760008201527f6e6572206e6f7220617070726f76656420666f7220616c6c0000000000000000602082015250565b6000614d5f603883613ff8565b9150614d6a82614d03565b604082019050919050565b60006020820190508181036000830152614d8e81614d52565b9050919050565b7f4e6f74206f776e65720000000000000000000000000000000000000000000000600082015250565b6000614dcb600983613ff8565b9150614dd682614d95565b602082019050919050565b60006020820190508181036000830152614dfa81614dbe565b9050919050565b6000614e0c826142db565b915060ff821415614e2057614e1f614ad7565b5b600182019050919050565b7f4f776e61626c653a2063616c6c6572206973206e6f7420746865206f776e6572600082015250565b6000614e61602083613ff8565b9150614e6c82614e2b565b602082019050919050565b60006020820190508181036000830152614e9081614e54565b9050919050565b7f4552433732313a207472616e736665722063616c6c6572206973206e6f74206f60008201527f776e6572206e6f7220617070726f766564000000000000000000000000000000602082015250565b6000614ef3603183613ff8565b9150614efe82614e97565b604082019050919050565b60006020820190508181036000830152614f2281614ee6565b9050919050565b6000614f34826142db565b9150614f3f836142db565b925082821015614f5257614f51614ad7565b5b828203905092915050565b6000614f6882613e74565b9150614f7383613e74565b9250827fffffffffffffffffffffffffffffffffffffffffffffffffffffffffffffffff03821115614fa857614fa7614ad7565b5b828201905092915050565b7f41756374696f6e206e6f7420666f756e64000000000000000000000000000000600082015250565b6000614fe9601183613ff8565b9150614ff482614fb3565b602082019050919050565b6000602082019050818103600083015261501881614fdc565b9050919050565b600061502a82613e74565b915061503583613e74565b9250817fffffffffffffffffffffffffffffffffffffffffffffffffffffffffffffffff048311821515161561506e5761506d614ad7565b5b828202905092915050565b7f41756374696f6e20656e64656400000000000000000000000000000000000000600082015250565b60006150af600d83613ff8565b91506150ba82615079565b602082019050919050565b600060208201905081810360008301526150de816150a2565b9050919050565b7f4e487b7100000000000000000000000000000000000000000000000000000000600052601260045260246000fd5b600061511f82613e74565b915061512a83613e74565b92508261513a576151396150e5565b5b828204905092915050565b7f496e636f72726563742076616c75650000000000000000000000000000000000600082015250565b600061517b600f83613ff8565b915061518682615145565b602082019050919050565b600060208201905081810360008301526151aa8161516e565b9050919050565b7f4552433732313a206f776e657220717565727920666f72206e6f6e657869737460008201527f656e7420746f6b656e0000000000000000000000000000000000000000000000602082015250565b600061520d602983613ff8565b9150615218826151b1565b604082019050919050565b6000602082019050818103600083015261523c81615200565b9050919050565b7f4552433732313a2062616c616e636520717565727920666f7220746865207a6560008201527f726f206164647265737300000000000000000000000000000000000000000000602082015250565b600061529f602a83613ff8565b91506152aa82615243565b604082019050919050565b600060208201905081810360008301526152ce81615292565b9050919050565b7f43616e27742063616e63656c20746869732061756374696f6e00000000000000600082015250565b600061530b601983613ff8565b9150615316826152d5565b602082019050919050565b6000602082019050818103600083015261533a816152fe565b9050919050565b7f4552433732313a20617070726f766520746f2063616c6c657200000000000000600082015250565b6000615377601983613ff8565b915061538282615341565b602082019050919050565b600060208201905081810360008301526153a68161536a565b9050919050565b7f5072696365207a65726f00000000000000000000000000000000000000000000600082015250565b60006153e3600a83613ff8565b91506153ee826153ad565b602082019050919050565b60006020820190508181036000830152615412816153d6565b9050919050565b7f54686572652069732061206163746976652061756374696f6e00000000000000600082015250565b600061544f601983613ff8565b915061545a82615419565b602082019050919050565b6000602082019050818103600083015261547e81615442565b9050919050565b7f45524337323155524953746f726167653a2055524920717565727920666f722060008201527f6e6f6e6578697374656e7420746f6b656e000000000000000000000000000000602082015250565b60006154e1603183613ff8565b91506154ec82615485565b604082019050919050565b60006020820190508181036000830152615510816154d4565b9050919050565b600081905092915050565b600061552d82613fed565b6155378185615517565b9350615547818560208601614009565b80840191505092915050565b600061555f8285615522565b915061556b8284615522565b91508190509392505050565b7f41756374696f6e206d757374206861766520656e642074696d65000000000000600082015250565b60006155ad601a83613ff8565b91506155b882615577565b602082019050919050565b600060208201905081810360008301526155dc816155a0565b9050919050565b7f4d696e696d756d20507269636500000000000000000000000000000000000000600082015250565b6000615619600d83613ff8565b9150615624826155e3565b602082019050919050565b600060208201905081810360008301526156488161560c565b9050919050565b7f41756374696f6e20616c72656164792063726561746564000000000000000000600082015250565b6000615685601783613ff8565b91506156908261564f565b602082019050919050565b600060208201905081810360008301526156b481615678565b9050919050565b7f4865726f2069732073656c6c696e670000000000000000000000000000000000600082015250565b60006156f1600f83613ff8565b91506156fc826156bb565b602082019050919050565b60006020820190508181036000830152615720816156e4565b9050919050565b7f41756374696f6e206e6f7420656e646564000000000000000000000000000000600082015250565b600061575d601183613ff8565b915061576882615727565b602082019050919050565b6000602082019050818103600083015261578c81615750565b9050919050565b7f4865726f206e6f7420666f722073616c65000000000000000000000000000000600082015250565b60006157c9601183613ff8565b91506157d482615793565b602082019050919050565b600060208201905081810360008301526157f8816157bc565b9050919050565b7f4f776e61626c653a206e6577206f776e657220697320746865207a65726f206160008201527f6464726573730000000000000000000000000000000000000000000000000000602082015250565b600061585b602683613ff8565b9150615866826157ff565b604082019050919050565b6000602082019050818103600083015261588a8161584e565b9050919050565b60008160601b9050919050565b60006158a982615891565b9050919050565b60006158bb8261589e565b9050919050565b6158d36158ce82613ddd565b6158b0565b82525050565b60006158e582846158c2565b60148201915081905092915050565b60006158ff82613dbd565b9050919050565b60006159118261589e565b9050919050565b615929615924826158f4565b615906565b82525050565b600061593b8284615918565b60148201915081905092915050565b6000819050919050565b61596561596082613e74565b61594a565b82525050565b60006159778284615954565b60208201915081905092915050565b6000615991826142db565b915061599c836142db565b92508260ff038211156159b2576159b1614ad7565b5b828201905092915050565b60006159c882613e74565b91506159d383613e74565b9250828210156159e6576159e5614ad7565b5b828203905092915050565b7f4552433732313a206f70657261746f7220717565727920666f72206e6f6e657860008201527f697374656e7420746f6b656e0000000000000000000000000000000000000000602082015250565b6000615a4d602c83613ff8565b9150615a58826159f1565b604082019050919050565b60006020820190508181036000830152615a7c81615a40565b9050919050565b7f4552433732313a207472616e73666572206f6620746f6b656e2074686174206960008201527f73206e6f74206f776e0000000000000000000000000000000000000000000000602082015250565b6000615adf602983613ff8565b9150615aea82615a83565b604082019050919050565b60006020820190508181036000830152615b0e81615ad2565b9050919050565b7f4552433732313a207472616e7366657220746f20746865207a65726f2061646460008201527f7265737300000000000000000000000000000000000000000000000000000000602082015250565b6000615b71602483613ff8565b9150615b7c82615b15565b604082019050919050565b60006020820190508181036000830152615ba081615b64565b9050919050565b7f45524337323155524953746f726167653a2055524920736574206f66206e6f6e60008201527f6578697374656e7420746f6b656e000000000000000000000000000000000000602082015250565b6000615c03602e83613ff8565b9150615c0e82615ba7565b604082019050919050565b60006020820190508181036000830152615c3281615bf6565b9050919050565b7f4552433732313a207472616e7366657220746f206e6f6e20455243373231526560008201527f63656976657220696d706c656d656e7465720000000000000000000000000000602082015250565b6000615c95603283613ff8565b9150615ca082615c39565b604082019050919050565b60006020820190508181036000830152615cc481615c88565b9050919050565b7f4552433732314d657461646174613a2055524920717565727920666f72206e6f60008201527f6e6578697374656e7420746f6b656e0000000000000000000000000000000000602082015250565b6000615d27602f83613ff8565b9150615d3282615ccb565b604082019050919050565b60006020820190508181036000830152615d5681615d1a565b9050919050565b600081519050919050565b600082825260208201905092915050565b6000615d8482615d5d565b615d8e8185615d68565b9350615d9e818560208601614009565b615da78161403c565b840191505092915050565b6000608082019050615dc76000830187614101565b615dd46020830186614101565b615de160408301856144a6565b8181036060830152615df38184615d79565b905095945050505050565b600081519050615e0d81613f5e565b92915050565b600060208284031215615e2957615e28613db3565b5b6000615e3784828501615dfe565b91505092915050565b6000615e4b82613e74565b9150615e5683613e74565b925082615e6657615e656150e5565b5b828206905092915050565b7f4552433732313a206d696e7420746f20746865207a65726f2061646472657373600082015250565b6000615ea7602083613ff8565b9150615eb282615e71565b602082019050919050565b60006020820190508181036000830152615ed681615e9a565b9050919050565b7f4552433732313a20746f6b656e20616c7265616479206d696e74656400000000600082015250565b6000615f13601c83613ff8565b9150615f1e82615edd565b602082019050919050565b60006020820190508181036000830152615f4281615f06565b905091905056fea2646970667358221220794a0aa08237a6d008e0fbaf227597a30f0cc62b6638f77a5cc92bea8d7bc80764736f6c63430008090033",
  "immutableReferences": {},
  "source": "pragma solidity 0.8.9;\n\nimport \"../node_modules/@openzeppelin/contracts/token/ERC721/extensions/ERC721URIStorage.sol\";\nimport \"../node_modules/@openzeppelin/contracts/utils/Counters.sol\";\nimport \"../node_modules/@openzeppelin/contracts/access/Ownable.sol\";\n\ncontract GameToken is ERC721URIStorage, Ownable {\n    using Counters for Counters.Counter;\n    Counters.Counter private _currentHeroId;\n\n    enum HeroType {\n        FIGHTER,\n        ROGUE,\n        MAGE,\n        TANK\n    }\n    enum HeroRarity {\n        COMMON,\n        UNCOMMON,\n        RARE,\n        LEGENDARY\n    }\n\n    struct Hero {\n        string name;\n        HeroType heroType;\n        HeroRarity rarity;\n        uint8 str;\n        uint8 con;\n        uint8 dex;\n        uint8 inte;\n        uint8 level;\n    }\n\n    struct Auction {\n        uint256 endTime;\n        uint256 minValue;\n        uint256 currValue;\n        address lastBidAddress;\n    }\n\n    Hero[] private _heroes;\n    mapping(uint256 => uint256) private _sellingHeroes;\n    mapping(uint256 => Auction) private _sellingHeroesAuction;\n\n    uint16 private _minBidIncrement = 110;\n    uint16 private _minAuctionTime = 60;\n\n    //static final\n    mapping(HeroType => uint8[]) private _mapMint;\n\n    constructor(string memory name, string memory symbol) ERC721(name, symbol) {\n        _mapMint[HeroType.FIGHTER] = [0, 1, 0, 2, 3, 1];\n        _mapMint[HeroType.ROGUE] = [2, 2, 0, 3, 0, 2];\n        _mapMint[HeroType.MAGE] = [3, 3, 2, 1, 0, 3];\n        _mapMint[HeroType.TANK] = [1, 1, 0, 2, 3, 1];\n    }\n\n    function setMinBidIncrement(uint16 _newMinBidIncrement) public onlyOwner {\n        _minBidIncrement = _newMinBidIncrement;\n    }\n\n    function setMinAuctionTime(uint16 _newMinAuctionTime) public onlyOwner {\n        _minAuctionTime = _newMinAuctionTime;\n    }\n\n    function getHeroes() external view returns (Hero[] memory) {\n        return _heroes;\n    }\n\n    function mint(HeroType _heroType, HeroRarity _heroRarity) public onlyOwner {\n        uint256 newHeroId = _currentHeroId.current();\n\n        uint8 minAttr;\n        uint8 maxAttr;\n\n        if (_heroRarity == HeroRarity.COMMON) {\n            minAttr = 4;\n            maxAttr = 6;\n        } else if (_heroRarity == HeroRarity.UNCOMMON) {\n            minAttr = 7;\n            maxAttr = 8;\n        } else if (_heroRarity == HeroRarity.RARE) {\n            minAttr = 9;\n            maxAttr = 10;\n        } else {\n            minAttr = 11;\n            maxAttr = 12;\n        }\n\n        uint256 attrsSize = rand(maxAttr - minAttr) + minAttr;\n\n        uint8[] memory attrs = new uint8[](4);\n        attrs[0] = 1;\n        attrs[1] = 1;\n        attrs[2] = 1;\n        attrs[3] = 1;\n        uint8 attrCounter = 0;\n\n        for (uint8 i = 1; i <= attrsSize; i++) {\n            attrs[_mapMint[_heroType][attrCounter]]++;\n            if (attrCounter == 5) {\n                attrCounter = 0;\n            } else {\n                attrCounter++;\n            }\n        }\n\n        _safeMint(msg.sender, newHeroId);\n        _setTokenURI(newHeroId, \"teste\");\n        _heroes.push(\n            Hero(\n                \"\",\n                _heroType,\n                _heroRarity,\n                attrs[0],\n                attrs[1],\n                attrs[2],\n                attrs[3],\n                1\n            )\n        );\n\n        _currentHeroId.increment();\n    }\n\n    function getHeroesByAddress(address owner)\n        public\n        view\n        returns (uint256[] memory)\n    {\n        uint256 heroCount = balanceOf(owner);\n\n        if (heroCount == 0) {\n            return new uint256[](0);\n        } else {\n            uint256[] memory ret = new uint256[](heroCount);\n            uint256 i;\n            uint256 curIndex = 0;\n\n            for (i = 0; i < _currentHeroId.current(); i++) {\n                if (ownerOf(i) == owner) {\n                    ret[curIndex++] = i;\n                }\n            }\n\n            return ret;\n        }\n    }\n\n    function getMyHeroes() external view returns (uint256[] memory) {\n        return getHeroesByAddress(msg.sender);\n    }\n\n    function getHero(uint256 _heroId) external view returns (Hero memory) {\n        return _heroes[_heroId];\n    }\n\n    function getSelling(uint256 _heroId)\n        external\n        view\n        returns (uint256)\n    {\n        return _sellingHeroes[_heroId];\n    }\n\n\n    function getAuction(uint256 _heroId)\n        external\n        view\n        returns (Auction memory)\n    {\n        return _sellingHeroesAuction[_heroId];\n    }\n\n    function setName(uint256 _heroId, string memory _name) external {\n        require(msg.sender == ownerOf(_heroId), \"Not owner\");\n        Hero storage hero = _heroes[_heroId];\n\n        hero.name = _name;\n    }\n\n    function levelUp(uint256 _heroId) external {\n        require(msg.sender == ownerOf(_heroId), \"Not owner\");\n\n        Hero storage hero = _heroes[_heroId];\n\n        hero.level++;\n\n        uint256 random = rand(3);\n\n        if (random == 0) {\n            hero.str++;\n        } else if (random == 1) {\n            hero.con++;\n        } else if (random == 2) {\n            hero.dex++;\n        } else if (random == 3) {\n            hero.inte++;\n        }\n    }\n\n    function allowBuy(uint256 _heroId, uint256 _price) external {\n        require(msg.sender == ownerOf(_heroId), \"Not owner\");\n        require(_price > 0, \"Price zero\");\n\n        require(\n            _sellingHeroesAuction[_heroId].endTime <= 0,\n            \"There is a active auction\"\n        );\n\n        _sellingHeroes[_heroId] = _price;\n    }\n\n    function disallowBuy(uint256 _heroId) external {\n        require(msg.sender == ownerOf(_heroId), \"Not owner\");\n        _sellingHeroes[_heroId] = 0;\n    }\n\n    function buy(uint256 _heroId) external payable {\n        uint256 price = _sellingHeroes[_heroId];\n        require(price > 0, \"Hero not for sale\");\n        require(msg.value == price, \"Incorrect value\");\n\n        address seller = ownerOf(_heroId);\n\n        payable(seller).transfer(msg.value);\n\n        _safeTransfer(seller, msg.sender, _heroId, \"\");\n        _sellingHeroes[_heroId] = 0;\n    }\n\n    function createAuction(\n        uint256 _heroId,\n        uint256 _endTime,\n        uint256 _minPrice\n    ) external {\n        require(msg.sender == ownerOf(_heroId), \"Not owner\");\n        require(\n            _endTime >= (block.timestamp + _minAuctionTime) * 1_000,\n            \"Auction must have end time\"\n        );\n        require(_minPrice > 0, \"Minimum Price\");\n        require(\n            _sellingHeroesAuction[_heroId].endTime <= 0,\n            \"Auction already created\"\n        );\n        require(_sellingHeroes[_heroId] <= 0, \"Hero is selling\");\n\n        _sellingHeroesAuction[_heroId] = Auction(\n            _endTime,\n            _minPrice,\n            0,\n            address(0)\n        );\n    }\n\n    function cancelAuction(uint256 _heroId) external {\n        require(msg.sender == ownerOf(_heroId), \"Not owner\");\n\n        Auction memory auction = _sellingHeroesAuction[_heroId];\n\n        require(\n            auction.currValue <= 0,\n            \"Can't cancel this auction\"\n        );\n\n        delete _sellingHeroesAuction[_heroId];\n    }\n\n    function bid(uint256 _heroId) external payable {\n        Auction storage auction = _sellingHeroesAuction[_heroId];\n        require(\n            _sellingHeroesAuction[_heroId].endTime > 0,\n            \"Auction not found\"\n        );\n        require(auction.endTime > block.timestamp * 1_000, \"Auction ended\");\n        require(\n            msg.value >= uint256((auction.currValue * _minBidIncrement) / 100),\n            \"Incorrect value\"\n        );\n\n        //payable(address(this)).transfer(msg.value);\n\n        if (auction.lastBidAddress != address(0)) {\n            payable(auction.lastBidAddress).transfer(auction.currValue);\n        }\n\n        auction.currValue = msg.value;\n        auction.lastBidAddress = msg.sender;\n    }\n\n    function finishAuction(uint256 _heroId) external {\n        Auction memory auction = _sellingHeroesAuction[_heroId];\n\n        require(\n            _sellingHeroesAuction[_heroId].endTime > 0,\n            \"Auction not found\"\n        );\n        require(\n            auction.endTime <= block.timestamp * 1_000,\n            \"Auction not ended\"\n        );\n\n        if (auction.currValue > 0) {\n            address seller = ownerOf(_heroId);\n\n            payable(seller).transfer(auction.currValue);\n            _safeTransfer(seller, auction.lastBidAddress, _heroId, \"\");\n        }\n\n        delete _sellingHeroesAuction[_heroId];\n    }\n\n    function rand(uint8 limit) private view returns (uint256) {\n        uint256 seed = uint256(\n            keccak256(\n                abi.encodePacked(\n                    block.timestamp +\n                        block.difficulty +\n                        ((\n                            uint256(keccak256(abi.encodePacked(block.coinbase)))\n                        ) / (block.timestamp)) +\n                        block.gaslimit +\n                        ((uint256(keccak256(abi.encodePacked(msg.sender)))) /\n                            (block.timestamp)) +\n                        block.number\n                )\n            )\n        );\n\n        return (seed - ((seed / (limit + 1)) * (limit + 1)));\n    }\n\n    function receiver() external payable {}\n}\n",
  "sourcePath": "/home/rfaita/game/nft-game/contract/contracts/GameToken.sol",
  "compiler": {
    "name": "solc",
    "version": "0.8.9+commit.e5eed63a.Emscripten.clang"
  },
  "schemaVersion": "3.4.3",
  "updatedAt": "2021-11-11T13:54:38.068Z",
  "networkType": "ethereum",
  "devdoc": {
    "kind": "dev",
    "methods": {
      "approve(address,uint256)": {
        "details": "See {IERC721-approve}."
      },
      "balanceOf(address)": {
        "details": "See {IERC721-balanceOf}."
      },
      "getApproved(uint256)": {
        "details": "See {IERC721-getApproved}."
      },
      "isApprovedForAll(address,address)": {
        "details": "See {IERC721-isApprovedForAll}."
      },
      "name()": {
        "details": "See {IERC721Metadata-name}."
      },
      "owner()": {
        "details": "Returns the address of the current owner."
      },
      "ownerOf(uint256)": {
        "details": "See {IERC721-ownerOf}."
      },
      "renounceOwnership()": {
        "details": "Leaves the contract without owner. It will not be possible to call `onlyOwner` functions anymore. Can only be called by the current owner. NOTE: Renouncing ownership will leave the contract without an owner, thereby removing any functionality that is only available to the owner."
      },
      "safeTransferFrom(address,address,uint256)": {
        "details": "See {IERC721-safeTransferFrom}."
      },
      "safeTransferFrom(address,address,uint256,bytes)": {
        "details": "See {IERC721-safeTransferFrom}."
      },
      "setApprovalForAll(address,bool)": {
        "details": "See {IERC721-setApprovalForAll}."
      },
      "supportsInterface(bytes4)": {
        "details": "See {IERC165-supportsInterface}."
      },
      "symbol()": {
        "details": "See {IERC721Metadata-symbol}."
      },
      "tokenURI(uint256)": {
        "details": "See {IERC721Metadata-tokenURI}."
      },
      "transferFrom(address,address,uint256)": {
        "details": "See {IERC721-transferFrom}."
      },
      "transferOwnership(address)": {
        "details": "Transfers ownership of the contract to a new account (`newOwner`). Can only be called by the current owner."
      }
    },
    "version": 1
  },
  "userdoc": {
    "kind": "user",
    "methods": {},
    "version": 1
  }
}