{
  "contractName": "GameToken",
  "abi": [
    {
      "inputs": [
        {
          "internalType": "string",
          "name": "name",
          "type": "string"
        },
        {
          "internalType": "string",
          "name": "symbol",
          "type": "string"
        }
      ],
      "stateMutability": "nonpayable",
      "type": "constructor"
    },
    {
      "anonymous": false,
      "inputs": [
        {
          "indexed": true,
          "internalType": "address",
          "name": "owner",
          "type": "address"
        },
        {
          "indexed": true,
          "internalType": "address",
          "name": "approved",
          "type": "address"
        },
        {
          "indexed": true,
          "internalType": "uint256",
          "name": "tokenId",
          "type": "uint256"
        }
      ],
      "name": "Approval",
      "type": "event"
    },
    {
      "anonymous": false,
      "inputs": [
        {
          "indexed": true,
          "internalType": "address",
          "name": "owner",
          "type": "address"
        },
        {
          "indexed": true,
          "internalType": "address",
          "name": "operator",
          "type": "address"
        },
        {
          "indexed": false,
          "internalType": "bool",
          "name": "approved",
          "type": "bool"
        }
      ],
      "name": "ApprovalForAll",
      "type": "event"
    },
    {
      "anonymous": false,
      "inputs": [
        {
          "indexed": true,
          "internalType": "address",
          "name": "previousOwner",
          "type": "address"
        },
        {
          "indexed": true,
          "internalType": "address",
          "name": "newOwner",
          "type": "address"
        }
      ],
      "name": "OwnershipTransferred",
      "type": "event"
    },
    {
      "anonymous": false,
      "inputs": [
        {
          "indexed": true,
          "internalType": "address",
          "name": "from",
          "type": "address"
        },
        {
          "indexed": true,
          "internalType": "address",
          "name": "to",
          "type": "address"
        },
        {
          "indexed": true,
          "internalType": "uint256",
          "name": "tokenId",
          "type": "uint256"
        }
      ],
      "name": "Transfer",
      "type": "event"
    },
    {
      "inputs": [
        {
          "internalType": "address",
          "name": "to",
          "type": "address"
        },
        {
          "internalType": "uint256",
          "name": "tokenId",
          "type": "uint256"
        }
      ],
      "name": "approve",
      "outputs": [],
      "stateMutability": "nonpayable",
      "type": "function"
    },
    {
      "inputs": [
        {
          "internalType": "address",
          "name": "owner",
          "type": "address"
        }
      ],
      "name": "balanceOf",
      "outputs": [
        {
          "internalType": "uint256",
          "name": "",
          "type": "uint256"
        }
      ],
      "stateMutability": "view",
      "type": "function",
      "constant": true
    },
    {
      "inputs": [
        {
          "internalType": "uint256",
          "name": "tokenId",
          "type": "uint256"
        }
      ],
      "name": "getApproved",
      "outputs": [
        {
          "internalType": "address",
          "name": "",
          "type": "address"
        }
      ],
      "stateMutability": "view",
      "type": "function",
      "constant": true
    },
    {
      "inputs": [
        {
          "internalType": "address",
          "name": "owner",
          "type": "address"
        },
        {
          "internalType": "address",
          "name": "operator",
          "type": "address"
        }
      ],
      "name": "isApprovedForAll",
      "outputs": [
        {
          "internalType": "bool",
          "name": "",
          "type": "bool"
        }
      ],
      "stateMutability": "view",
      "type": "function",
      "constant": true
    },
    {
      "inputs": [],
      "name": "name",
      "outputs": [
        {
          "internalType": "string",
          "name": "",
          "type": "string"
        }
      ],
      "stateMutability": "view",
      "type": "function",
      "constant": true
    },
    {
      "inputs": [],
      "name": "owner",
      "outputs": [
        {
          "internalType": "address",
          "name": "",
          "type": "address"
        }
      ],
      "stateMutability": "view",
      "type": "function",
      "constant": true
    },
    {
      "inputs": [
        {
          "internalType": "uint256",
          "name": "tokenId",
          "type": "uint256"
        }
      ],
      "name": "ownerOf",
      "outputs": [
        {
          "internalType": "address",
          "name": "",
          "type": "address"
        }
      ],
      "stateMutability": "view",
      "type": "function",
      "constant": true
    },
    {
      "inputs": [],
      "name": "renounceOwnership",
      "outputs": [],
      "stateMutability": "nonpayable",
      "type": "function"
    },
    {
      "inputs": [
        {
          "internalType": "address",
          "name": "from",
          "type": "address"
        },
        {
          "internalType": "address",
          "name": "to",
          "type": "address"
        },
        {
          "internalType": "uint256",
          "name": "tokenId",
          "type": "uint256"
        }
      ],
      "name": "safeTransferFrom",
      "outputs": [],
      "stateMutability": "nonpayable",
      "type": "function"
    },
    {
      "inputs": [
        {
          "internalType": "address",
          "name": "from",
          "type": "address"
        },
        {
          "internalType": "address",
          "name": "to",
          "type": "address"
        },
        {
          "internalType": "uint256",
          "name": "tokenId",
          "type": "uint256"
        },
        {
          "internalType": "bytes",
          "name": "_data",
          "type": "bytes"
        }
      ],
      "name": "safeTransferFrom",
      "outputs": [],
      "stateMutability": "nonpayable",
      "type": "function"
    },
    {
      "inputs": [
        {
          "internalType": "address",
          "name": "operator",
          "type": "address"
        },
        {
          "internalType": "bool",
          "name": "approved",
          "type": "bool"
        }
      ],
      "name": "setApprovalForAll",
      "outputs": [],
      "stateMutability": "nonpayable",
      "type": "function"
    },
    {
      "inputs": [
        {
          "internalType": "bytes4",
          "name": "interfaceId",
          "type": "bytes4"
        }
      ],
      "name": "supportsInterface",
      "outputs": [
        {
          "internalType": "bool",
          "name": "",
          "type": "bool"
        }
      ],
      "stateMutability": "view",
      "type": "function",
      "constant": true
    },
    {
      "inputs": [],
      "name": "symbol",
      "outputs": [
        {
          "internalType": "string",
          "name": "",
          "type": "string"
        }
      ],
      "stateMutability": "view",
      "type": "function",
      "constant": true
    },
    {
      "inputs": [
        {
          "internalType": "uint256",
          "name": "tokenId",
          "type": "uint256"
        }
      ],
      "name": "tokenURI",
      "outputs": [
        {
          "internalType": "string",
          "name": "",
          "type": "string"
        }
      ],
      "stateMutability": "view",
      "type": "function",
      "constant": true
    },
    {
      "inputs": [
        {
          "internalType": "address",
          "name": "from",
          "type": "address"
        },
        {
          "internalType": "address",
          "name": "to",
          "type": "address"
        },
        {
          "internalType": "uint256",
          "name": "tokenId",
          "type": "uint256"
        }
      ],
      "name": "transferFrom",
      "outputs": [],
      "stateMutability": "nonpayable",
      "type": "function"
    },
    {
      "inputs": [
        {
          "internalType": "address",
          "name": "newOwner",
          "type": "address"
        }
      ],
      "name": "transferOwnership",
      "outputs": [],
      "stateMutability": "nonpayable",
      "type": "function"
    },
    {
      "inputs": [
        {
          "internalType": "uint16",
          "name": "_newMinBidIncrement",
          "type": "uint16"
        }
      ],
      "name": "setMinBidIncrement",
      "outputs": [],
      "stateMutability": "nonpayable",
      "type": "function"
    },
    {
      "inputs": [
        {
          "internalType": "uint16",
          "name": "_newMinAuctionTime",
          "type": "uint16"
        }
      ],
      "name": "setMinAuctionTime",
      "outputs": [],
      "stateMutability": "nonpayable",
      "type": "function"
    },
    {
      "inputs": [],
      "name": "getHeroes",
      "outputs": [
        {
          "components": [
            {
              "internalType": "string",
              "name": "name",
              "type": "string"
            },
            {
              "internalType": "enum GameToken.HeroType",
              "name": "heroType",
              "type": "uint8"
            },
            {
              "internalType": "enum GameToken.HeroRarity",
              "name": "rarity",
              "type": "uint8"
            },
            {
              "internalType": "uint8",
              "name": "str",
              "type": "uint8"
            },
            {
              "internalType": "uint8",
              "name": "con",
              "type": "uint8"
            },
            {
              "internalType": "uint8",
              "name": "dex",
              "type": "uint8"
            },
            {
              "internalType": "uint8",
              "name": "inte",
              "type": "uint8"
            },
            {
              "internalType": "uint8",
              "name": "level",
              "type": "uint8"
            }
          ],
          "internalType": "struct GameToken.Hero[]",
          "name": "",
          "type": "tuple[]"
        }
      ],
      "stateMutability": "view",
      "type": "function",
      "constant": true
    },
    {
      "inputs": [
        {
          "internalType": "enum GameToken.HeroType",
          "name": "_heroType",
          "type": "uint8"
        },
        {
          "internalType": "enum GameToken.HeroRarity",
          "name": "_heroRarity",
          "type": "uint8"
        }
      ],
      "name": "mint",
      "outputs": [],
      "stateMutability": "nonpayable",
      "type": "function"
    },
    {
      "inputs": [
        {
          "internalType": "address",
          "name": "owner",
          "type": "address"
        }
      ],
      "name": "getHeroesByAddress",
      "outputs": [
        {
          "internalType": "uint256[]",
          "name": "",
          "type": "uint256[]"
        }
      ],
      "stateMutability": "view",
      "type": "function",
      "constant": true
    },
    {
      "inputs": [],
      "name": "getMyHeroes",
      "outputs": [
        {
          "internalType": "uint256[]",
          "name": "",
          "type": "uint256[]"
        }
      ],
      "stateMutability": "view",
      "type": "function",
      "constant": true
    },
    {
      "inputs": [
        {
          "internalType": "uint256",
          "name": "_heroId",
          "type": "uint256"
        }
      ],
      "name": "getHero",
      "outputs": [
        {
          "components": [
            {
              "internalType": "string",
              "name": "name",
              "type": "string"
            },
            {
              "internalType": "enum GameToken.HeroType",
              "name": "heroType",
              "type": "uint8"
            },
            {
              "internalType": "enum GameToken.HeroRarity",
              "name": "rarity",
              "type": "uint8"
            },
            {
              "internalType": "uint8",
              "name": "str",
              "type": "uint8"
            },
            {
              "internalType": "uint8",
              "name": "con",
              "type": "uint8"
            },
            {
              "internalType": "uint8",
              "name": "dex",
              "type": "uint8"
            },
            {
              "internalType": "uint8",
              "name": "inte",
              "type": "uint8"
            },
            {
              "internalType": "uint8",
              "name": "level",
              "type": "uint8"
            }
          ],
          "internalType": "struct GameToken.Hero",
          "name": "",
          "type": "tuple"
        }
      ],
      "stateMutability": "view",
      "type": "function",
      "constant": true
    },
    {
      "inputs": [
        {
          "internalType": "uint256",
          "name": "_heroId",
          "type": "uint256"
        }
      ],
      "name": "getSelling",
      "outputs": [
        {
          "internalType": "uint256",
          "name": "",
          "type": "uint256"
        }
      ],
      "stateMutability": "view",
      "type": "function",
      "constant": true
    },
    {
      "inputs": [
        {
          "internalType": "uint256",
          "name": "_heroId",
          "type": "uint256"
        }
      ],
      "name": "getAuction",
      "outputs": [
        {
          "components": [
            {
              "internalType": "uint256",
              "name": "endTime",
              "type": "uint256"
            },
            {
              "internalType": "uint256",
              "name": "minValue",
              "type": "uint256"
            },
            {
              "internalType": "uint256",
              "name": "currValue",
              "type": "uint256"
            },
            {
              "internalType": "address",
              "name": "lastBidAddress",
              "type": "address"
            }
          ],
          "internalType": "struct GameToken.Auction",
          "name": "",
          "type": "tuple"
        }
      ],
      "stateMutability": "view",
      "type": "function",
      "constant": true
    },
    {
      "inputs": [
        {
          "internalType": "uint256",
          "name": "_heroId",
          "type": "uint256"
        },
        {
          "internalType": "string",
          "name": "_name",
          "type": "string"
        }
      ],
      "name": "setName",
      "outputs": [],
      "stateMutability": "nonpayable",
      "type": "function"
    },
    {
      "inputs": [
        {
          "internalType": "uint256",
          "name": "_heroId",
          "type": "uint256"
        }
      ],
      "name": "levelUp",
      "outputs": [],
      "stateMutability": "nonpayable",
      "type": "function"
    },
    {
      "inputs": [
        {
          "internalType": "uint256",
          "name": "_heroId",
          "type": "uint256"
        },
        {
          "internalType": "uint256",
          "name": "_price",
          "type": "uint256"
        }
      ],
      "name": "allowBuy",
      "outputs": [],
      "stateMutability": "nonpayable",
      "type": "function"
    },
    {
      "inputs": [
        {
          "internalType": "uint256",
          "name": "_heroId",
          "type": "uint256"
        }
      ],
      "name": "disallowBuy",
      "outputs": [],
      "stateMutability": "nonpayable",
      "type": "function"
    },
    {
      "inputs": [
        {
          "internalType": "uint256",
          "name": "_heroId",
          "type": "uint256"
        }
      ],
      "name": "buy",
      "outputs": [],
      "stateMutability": "payable",
      "type": "function",
      "payable": true
    },
    {
      "inputs": [
        {
          "internalType": "uint256",
          "name": "_heroId",
          "type": "uint256"
        },
        {
          "internalType": "uint256",
          "name": "_endTime",
          "type": "uint256"
        },
        {
          "internalType": "uint256",
          "name": "_minPrice",
          "type": "uint256"
        }
      ],
      "name": "createAuction",
      "outputs": [],
      "stateMutability": "nonpayable",
      "type": "function"
    },
    {
      "inputs": [
        {
          "internalType": "uint256",
          "name": "_heroId",
          "type": "uint256"
        }
      ],
      "name": "cancelAuction",
      "outputs": [],
      "stateMutability": "nonpayable",
      "type": "function"
    },
    {
      "inputs": [
        {
          "internalType": "uint256",
          "name": "_heroId",
          "type": "uint256"
        }
      ],
      "name": "bid",
      "outputs": [],
      "stateMutability": "payable",
      "type": "function",
      "payable": true
    },
    {
      "inputs": [
        {
          "internalType": "uint256",
          "name": "_heroId",
          "type": "uint256"
        }
      ],
      "name": "finishAuction",
      "outputs": [],
      "stateMutability": "nonpayable",
      "type": "function"
    },
    {
      "inputs": [],
      "name": "receiver",
      "outputs": [],
      "stateMutability": "payable",
      "type": "function",
      "payable": true
    }
  ],
  "bytecode": "0x6080604052606e600c60006101000a81548161ffff021916908361ffff160217905550603c600c60026101000a81548161ffff021916908361ffff1602179055503480156200004d57600080fd5b5060405162006783380380620067838339818101604052810190620000739190620006e8565b818181600090805190602001906200008d929190620003ed565b508060019080519060200190620000a6929190620003ed565b505050620000c9620000bd6200031f60201b60201c565b6200032760201b60201c565b6040518060c00160405280600060ff168152602001600160ff168152602001600060ff168152602001600260ff168152602001600360ff168152602001600160ff16815250600d60008060038111156200012857620001276200076d565b5b60038111156200013d576200013c6200076d565b5b81526020019081526020016000209060066200015b9291906200047e565b506040518060c00160405280600260ff168152602001600260ff168152602001600060ff168152602001600360ff168152602001600060ff168152602001600260ff16815250600d600060016003811115620001bc57620001bb6200076d565b5b6003811115620001d157620001d06200076d565b5b8152602001908152602001600020906006620001ef9291906200047e565b506040518060c00160405280600360ff168152602001600360ff168152602001600260ff168152602001600160ff168152602001600060ff168152602001600360ff16815250600d60006002600381111562000250576200024f6200076d565b5b60038111156200026557620002646200076d565b5b8152602001908152602001600020906006620002839291906200047e565b506040518060c00160405280600160ff168152602001600160ff168152602001600060ff168152602001600260ff168152602001600360ff168152602001600160ff16815250600d6000600380811115620002e357620002e26200076d565b5b6003811115620002f857620002f76200076d565b5b8152602001908152602001600020906006620003169291906200047e565b50505062000801565b600033905090565b6000600760009054906101000a900473ffffffffffffffffffffffffffffffffffffffff16905081600760006101000a81548173ffffffffffffffffffffffffffffffffffffffff021916908373ffffffffffffffffffffffffffffffffffffffff1602179055508173ffffffffffffffffffffffffffffffffffffffff168173ffffffffffffffffffffffffffffffffffffffff167f8be0079c531659141344cd1fd0a4f28419497f9722a3daafe3b4186f6b6457e060405160405180910390a35050565b828054620003fb90620007cb565b90600052602060002090601f0160209004810192826200041f57600085556200046b565b82601f106200043a57805160ff19168380011785556200046b565b828001600101855582156200046b579182015b828111156200046a5782518255916020019190600101906200044d565b5b5090506200047a91906200052c565b5090565b82805482825590600052602060002090601f01602090048101928215620005195791602002820160005b83821115620004e857835183826101000a81548160ff021916908360ff1602179055509260200192600101602081600001049283019260010302620004a8565b8015620005175782816101000a81549060ff0219169055600101602081600001049283019260010302620004e8565b505b5090506200052891906200052c565b5090565b5b80821115620005475760008160009055506001016200052d565b5090565b6000604051905090565b600080fd5b600080fd5b600080fd5b600080fd5b6000601f19601f8301169050919050565b7f4e487b7100000000000000000000000000000000000000000000000000000000600052604160045260246000fd5b620005b48262000569565b810181811067ffffffffffffffff82111715620005d657620005d56200057a565b5b80604052505050565b6000620005eb6200054b565b9050620005f98282620005a9565b919050565b600067ffffffffffffffff8211156200061c576200061b6200057a565b5b620006278262000569565b9050602081019050919050565b60005b838110156200065457808201518184015260208101905062000637565b8381111562000664576000848401525b50505050565b6000620006816200067b84620005fe565b620005df565b905082815260208101848484011115620006a0576200069f62000564565b5b620006ad84828562000634565b509392505050565b600082601f830112620006cd57620006cc6200055f565b5b8151620006df8482602086016200066a565b91505092915050565b6000806040838503121562000702576200070162000555565b5b600083015167ffffffffffffffff8111156200072357620007226200055a565b5b6200073185828601620006b5565b925050602083015167ffffffffffffffff8111156200075557620007546200055a565b5b6200076385828601620006b5565b9150509250929050565b7f4e487b7100000000000000000000000000000000000000000000000000000000600052602160045260246000fd5b7f4e487b7100000000000000000000000000000000000000000000000000000000600052602260045260246000fd5b60006002820490506001821680620007e457607f821691505b60208210811415620007fb57620007fa6200079c565b5b50919050565b615f7280620008116000396000f3fe6080604052600436106102035760003560e01c8063806f528311610118578063c87b56dd116100a0578063d96a094a1161006f578063d96a094a14610775578063e985e9c514610791578063f2fde38b146107ce578063f7260d3e146107f7578063fe55932a1461080157610203565b8063c87b56dd146106bd578063cda4beef146106fa578063cf266ed014610723578063d49913121461074c57610203565b80639a8d2882116100e75780639a8d2882146105da578063a22cb46514610605578063b364acd61461062e578063b88d4fde1461066b578063bbb5e8d31461069457610203565b8063806f5283146105305780638da5cb5b1461055b57806395d89b411461058657806396b5a755146105b157610203565b806322f535a71161019b578063454a2ab31161016a578063454a2ab3146104465780636352211e1461046257806370a082311461049f578063715018a6146104dc57806378bd7935146104f357610203565b806322f535a7146103a257806323b872dd146103cb57806329a0eee8146103f457806342842e0e1461041d57610203565b8063095ea7b3116101d7578063095ea7b3146102ea5780630ce90ec214610313578063145c0cc21461033c57806321d801111461036557610203565b80625597e31461020857806301ffc9a71461024557806306fdde0314610282578063081812fc146102ad575b600080fd5b34801561021457600080fd5b5061022f600480360381019061022a9190613e0e565b61082a565b60405161023c9190613f03565b60405180910390f35b34801561025157600080fd5b5061026c60048036038101906102679190613f7d565b610987565b6040516102799190613fc5565b60405180910390f35b34801561028e57600080fd5b50610297610a69565b6040516102a49190614079565b60405180910390f35b3480156102b957600080fd5b506102d460048036038101906102cf91906140c7565b610afb565b6040516102e19190614103565b60405180910390f35b3480156102f657600080fd5b50610311600480360381019061030c919061411e565b610b80565b005b34801561031f57600080fd5b5061033a600480360381019061033591906140c7565b610c98565b005b34801561034857600080fd5b50610363600480360381019061035e9190614198565b610ea0565b005b34801561037157600080fd5b5061038c600480360381019061038791906140c7565b610f3c565b604051610399919061439a565b60405180910390f35b3480156103ae57600080fd5b506103c960048036038101906103c49190614198565b611112565b005b3480156103d757600080fd5b506103f260048036038101906103ed91906143bc565b6111ae565b005b34801561040057600080fd5b5061041b60048036038101906104169190614459565b61120e565b005b34801561042957600080fd5b50610444600480360381019061043f91906143bc565b6117ef565b005b610460600480360381019061045b91906140c7565b61180f565b005b34801561046e57600080fd5b50610489600480360381019061048491906140c7565b611a4f565b6040516104969190614103565b60405180910390f35b3480156104ab57600080fd5b506104c660048036038101906104c19190613e0e565b611b01565b6040516104d391906144a8565b60405180910390f35b3480156104e857600080fd5b506104f1611bb9565b005b3480156104ff57600080fd5b5061051a600480360381019061051591906140c7565b611c41565b6040516105279190614527565b60405180910390f35b34801561053c57600080fd5b50610545611ce2565b6040516105529190613f03565b60405180910390f35b34801561056757600080fd5b50610570611cf2565b60405161057d9190614103565b60405180910390f35b34801561059257600080fd5b5061059b611d1c565b6040516105a89190614079565b60405180910390f35b3480156105bd57600080fd5b506105d860048036038101906105d391906140c7565b611dae565b005b3480156105e657600080fd5b506105ef611f5b565b6040516105fc91906146b4565b60405180910390f35b34801561061157600080fd5b5061062c60048036038101906106279190614702565b612154565b005b34801561063a57600080fd5b50610655600480360381019061065091906140c7565b6122d5565b60405161066291906144a8565b60405180910390f35b34801561067757600080fd5b50610692600480360381019061068d9190614877565b6122f2565b005b3480156106a057600080fd5b506106bb60048036038101906106b691906148fa565b612354565b005b3480156106c957600080fd5b506106e460048036038101906106df91906140c7565b612483565b6040516106f19190614079565b60405180910390f35b34801561070657600080fd5b50610721600480360381019061071c919061493a565b6125d5565b005b34801561072f57600080fd5b5061074a600480360381019061074591906140c7565b612867565b005b34801561075857600080fd5b50610773600480360381019061076e91906140c7565b612a89565b005b61078f600480360381019061078a91906140c7565b612b1b565b005b34801561079d57600080fd5b506107b860048036038101906107b3919061498d565b612c45565b6040516107c59190613fc5565b60405180910390f35b3480156107da57600080fd5b506107f560048036038101906107f09190613e0e565b612cd9565b005b6107ff612dd1565b005b34801561080d57600080fd5b5061082860048036038101906108239190614a6e565b612dd3565b005b6060600061083783611b01565b9050600081141561089457600067ffffffffffffffff81111561085d5761085c61474c565b5b60405190808252806020026020018201604052801561088b5781602001602082028036833780820191505090505b50915050610982565b60008167ffffffffffffffff8111156108b0576108af61474c565b5b6040519080825280602002602001820160405280156108de5781602001602082028036833780820191505090505b50905060008060009050600091505b6108f76008612e8d565b82101561097a578573ffffffffffffffffffffffffffffffffffffffff1661091e83611a4f565b73ffffffffffffffffffffffffffffffffffffffff161415610967578183828061094790614af9565b93508151811061095a57610959614b42565b5b6020026020010181815250505b818061097290614af9565b9250506108ed565b829450505050505b919050565b60007f80ac58cd000000000000000000000000000000000000000000000000000000007bffffffffffffffffffffffffffffffffffffffffffffffffffffffff1916827bffffffffffffffffffffffffffffffffffffffffffffffffffffffff19161480610a5257507f5b5e139f000000000000000000000000000000000000000000000000000000007bffffffffffffffffffffffffffffffffffffffffffffffffffffffff1916827bffffffffffffffffffffffffffffffffffffffffffffffffffffffff1916145b80610a625750610a6182612e9b565b5b9050919050565b606060008054610a7890614ba0565b80601f0160208091040260200160405190810160405280929190818152602001828054610aa490614ba0565b8015610af15780601f10610ac657610100808354040283529160200191610af1565b820191906000526020600020905b815481529060010190602001808311610ad457829003601f168201915b5050505050905090565b6000610b0682612f05565b610b45576040517f08c379a0000000000000000000000000000000000000000000000000000000008152600401610b3c90614c44565b60405180910390fd5b6004600083815260200190815260200160002060009054906101000a900473ffffffffffffffffffffffffffffffffffffffff169050919050565b6000610b8b82611a4f565b90508073ffffffffffffffffffffffffffffffffffffffff168373ffffffffffffffffffffffffffffffffffffffff161415610bfc576040517f08c379a0000000000000000000000000000000000000000000000000000000008152600401610bf390614cd6565b60405180910390fd5b8073ffffffffffffffffffffffffffffffffffffffff16610c1b612f71565b73ffffffffffffffffffffffffffffffffffffffff161480610c4a5750610c4981610c44612f71565b612c45565b5b610c89576040517f08c379a0000000000000000000000000000000000000000000000000000000008152600401610c8090614d68565b60405180910390fd5b610c938383612f79565b505050565b610ca181611a4f565b73ffffffffffffffffffffffffffffffffffffffff163373ffffffffffffffffffffffffffffffffffffffff1614610d0e576040517f08c379a0000000000000000000000000000000000000000000000000000000008152600401610d0590614dd4565b60405180910390fd5b600060098281548110610d2457610d23614b42565b5b9060005260206000209060020201905080600101600681819054906101000a900460ff1680929190610d5590614df4565b91906101000a81548160ff021916908360ff160217905550506000610d7a6003613032565b90506000811415610dc45781600101600281819054906101000a900460ff1680929190610da690614df4565b91906101000a81548160ff021916908360ff16021790555050610e9b565b6001811415610e0c5781600101600381819054906101000a900460ff1680929190610dee90614df4565b91906101000a81548160ff021916908360ff16021790555050610e9a565b6002811415610e545781600101600481819054906101000a900460ff1680929190610e3690614df4565b91906101000a81548160ff021916908360ff16021790555050610e99565b6003811415610e985781600101600581819054906101000a900460ff1680929190610e7e90614df4565b91906101000a81548160ff021916908360ff160217905550505b5b5b5b505050565b610ea8612f71565b73ffffffffffffffffffffffffffffffffffffffff16610ec6611cf2565b73ffffffffffffffffffffffffffffffffffffffff1614610f1c576040517f08c379a0000000000000000000000000000000000000000000000000000000008152600401610f1390614e6a565b60405180910390fd5b80600c60006101000a81548161ffff021916908361ffff16021790555050565b610f44613c43565b60098281548110610f5857610f57614b42565b5b906000526020600020906002020160405180610100016040529081600082018054610f8290614ba0565b80601f0160208091040260200160405190810160405280929190818152602001828054610fae90614ba0565b8015610ffb5780601f10610fd057610100808354040283529160200191610ffb565b820191906000526020600020905b815481529060010190602001808311610fde57829003601f168201915b505050505081526020016001820160009054906101000a900460ff1660038111156110295761102861420f565b5b600381111561103b5761103a61420f565b5b81526020016001820160019054906101000a900460ff1660038111156110645761106361420f565b5b60038111156110765761107561420f565b5b81526020016001820160029054906101000a900460ff1660ff1660ff1681526020016001820160039054906101000a900460ff1660ff1660ff1681526020016001820160049054906101000a900460ff1660ff1660ff1681526020016001820160059054906101000a900460ff1660ff1660ff1681526020016001820160069054906101000a900460ff1660ff1660ff16815250509050919050565b61111a612f71565b73ffffffffffffffffffffffffffffffffffffffff16611138611cf2565b73ffffffffffffffffffffffffffffffffffffffff161461118e576040517f08c379a000000000000000000000000000000000000000000000000000000000815260040161118590614e6a565b60405180910390fd5b80600c60026101000a81548161ffff021916908361ffff16021790555050565b6111bf6111b9612f71565b82613148565b6111fe576040517f08c379a00000000000000000000000000000000000000000000000000000000081526004016111f590614efc565b60405180910390fd5b611209838383613226565b505050565b611216612f71565b73ffffffffffffffffffffffffffffffffffffffff16611234611cf2565b73ffffffffffffffffffffffffffffffffffffffff161461128a576040517f08c379a000000000000000000000000000000000000000000000000000000000815260040161128190614e6a565b60405180910390fd5b60006112966008612e8d565b9050600080600060038111156112af576112ae61420f565b5b8460038111156112c2576112c161420f565b5b14156112d5576004915060069050611354565b600160038111156112e9576112e861420f565b5b8460038111156112fc576112fb61420f565b5b141561130f576007915060089050611353565b600260038111156113235761132261420f565b5b8460038111156113365761133561420f565b5b14156113495760099150600a9050611352565b600b9150600c90505b5b5b60008260ff1661136e84846113699190614f1c565b613032565b6113789190614f50565b90506000600467ffffffffffffffff8111156113975761139661474c565b5b6040519080825280602002602001820160405280156113c55781602001602082028036833780820191505090505b5090506001816000815181106113de576113dd614b42565b5b602002602001019060ff16908160ff168152505060018160018151811061140857611407614b42565b5b602002602001019060ff16908160ff168152505060018160028151811061143257611431614b42565b5b602002602001019060ff16908160ff168152505060018160038151811061145c5761145b614b42565b5b602002602001019060ff16908160ff1681525050600080600190505b838160ff16116115595782600d60008b600381111561149a5761149961420f565b5b60038111156114ac576114ab61420f565b5b81526020019081526020016000208360ff16815481106114cf576114ce614b42565b5b90600052602060002090602091828204019190069054906101000a900460ff1660ff168151811061150357611502614b42565b5b60200260200101805180919061151890614df4565b60ff1660ff168152505060058260ff1614156115375760009150611546565b818061154290614df4565b9250505b808061155190614df4565b915050611478565b506115643387613482565b6115a3866040518060400160405280600581526020017f74657374650000000000000000000000000000000000000000000000000000008152506134a0565b60096040518061010001604052806040518060200160405280600081525081526020018a60038111156115d9576115d861420f565b5b81526020018960038111156115f1576115f061420f565b5b81526020018460008151811061160a57611609614b42565b5b602002602001015160ff1681526020018460018151811061162e5761162d614b42565b5b602002602001015160ff1681526020018460028151811061165257611651614b42565b5b602002602001015160ff1681526020018460038151811061167657611675614b42565b5b602002602001015160ff168152602001600160ff16815250908060018154018082558091505060019003906000526020600020906002020160009091909190915060008201518160000190805190602001906116d3929190613cbb565b5060208201518160010160006101000a81548160ff021916908360038111156116ff576116fe61420f565b5b021790555060408201518160010160016101000a81548160ff0219169083600381111561172f5761172e61420f565b5b021790555060608201518160010160026101000a81548160ff021916908360ff16021790555060808201518160010160036101000a81548160ff021916908360ff16021790555060a08201518160010160046101000a81548160ff021916908360ff16021790555060c08201518160010160056101000a81548160ff021916908360ff16021790555060e08201518160010160066101000a81548160ff021916908360ff16021790555050506117e56008613514565b5050505050505050565b61180a838383604051806020016040528060008152506122f2565b505050565b6000600b600083815260200190815260200160002090506000600b6000848152602001908152602001600020600001541161187f576040517f08c379a000000000000000000000000000000000000000000000000000000000815260040161187690614ff2565b60405180910390fd5b428160000154116118c5576040517f08c379a00000000000000000000000000000000000000000000000000000000081526004016118bc9061505e565b60405180910390fd5b6064600c60009054906101000a900461ffff1661ffff1682600201546118eb919061507e565b6118f59190615107565b341015611937576040517f08c379a000000000000000000000000000000000000000000000000000000000815260040161192e90615184565b60405180910390fd5b600073ffffffffffffffffffffffffffffffffffffffff168160030160009054906101000a900473ffffffffffffffffffffffffffffffffffffffff1673ffffffffffffffffffffffffffffffffffffffff16146119ff578060030160009054906101000a900473ffffffffffffffffffffffffffffffffffffffff1673ffffffffffffffffffffffffffffffffffffffff166108fc82600201549081150290604051600060405180830381858888f193505050501580156119fd573d6000803e3d6000fd5b505b348160020181905550338160030160006101000a81548173ffffffffffffffffffffffffffffffffffffffff021916908373ffffffffffffffffffffffffffffffffffffffff1602179055505050565b6000806002600084815260200190815260200160002060009054906101000a900473ffffffffffffffffffffffffffffffffffffffff169050600073ffffffffffffffffffffffffffffffffffffffff168173ffffffffffffffffffffffffffffffffffffffff161415611af8576040517f08c379a0000000000000000000000000000000000000000000000000000000008152600401611aef90615216565b60405180910390fd5b80915050919050565b60008073ffffffffffffffffffffffffffffffffffffffff168273ffffffffffffffffffffffffffffffffffffffff161415611b72576040517f08c379a0000000000000000000000000000000000000000000000000000000008152600401611b69906152a8565b60405180910390fd5b600360008373ffffffffffffffffffffffffffffffffffffffff1673ffffffffffffffffffffffffffffffffffffffff168152602001908152602001600020549050919050565b611bc1612f71565b73ffffffffffffffffffffffffffffffffffffffff16611bdf611cf2565b73ffffffffffffffffffffffffffffffffffffffff1614611c35576040517f08c379a0000000000000000000000000000000000000000000000000000000008152600401611c2c90614e6a565b60405180910390fd5b611c3f600061352a565b565b611c49613d41565b600b60008381526020019081526020016000206040518060800160405290816000820154815260200160018201548152602001600282015481526020016003820160009054906101000a900473ffffffffffffffffffffffffffffffffffffffff1673ffffffffffffffffffffffffffffffffffffffff1673ffffffffffffffffffffffffffffffffffffffff16815250509050919050565b6060611ced3361082a565b905090565b6000600760009054906101000a900473ffffffffffffffffffffffffffffffffffffffff16905090565b606060018054611d2b90614ba0565b80601f0160208091040260200160405190810160405280929190818152602001828054611d5790614ba0565b8015611da45780601f10611d7957610100808354040283529160200191611da4565b820191906000526020600020905b815481529060010190602001808311611d8757829003601f168201915b5050505050905090565b611db781611a4f565b73ffffffffffffffffffffffffffffffffffffffff163373ffffffffffffffffffffffffffffffffffffffff1614611e24576040517f08c379a0000000000000000000000000000000000000000000000000000000008152600401611e1b90614dd4565b60405180910390fd5b6000600b60008381526020019081526020016000206040518060800160405290816000820154815260200160018201548152602001600282015481526020016003820160009054906101000a900473ffffffffffffffffffffffffffffffffffffffff1673ffffffffffffffffffffffffffffffffffffffff1673ffffffffffffffffffffffffffffffffffffffff16815250509050600081604001511115611f02576040517f08c379a0000000000000000000000000000000000000000000000000000000008152600401611ef990615314565b60405180910390fd5b600b6000838152602001908152602001600020600080820160009055600182016000905560028201600090556003820160006101000a81549073ffffffffffffffffffffffffffffffffffffffff021916905550505050565b60606009805480602002602001604051908101604052809291908181526020016000905b8282101561214b578382906000526020600020906002020160405180610100016040529081600082018054611fb390614ba0565b80601f0160208091040260200160405190810160405280929190818152602001828054611fdf90614ba0565b801561202c5780601f106120015761010080835404028352916020019161202c565b820191906000526020600020905b81548152906001019060200180831161200f57829003601f168201915b505050505081526020016001820160009054906101000a900460ff16600381111561205a5761205961420f565b5b600381111561206c5761206b61420f565b5b81526020016001820160019054906101000a900460ff1660038111156120955761209461420f565b5b60038111156120a7576120a661420f565b5b81526020016001820160029054906101000a900460ff1660ff1660ff1681526020016001820160039054906101000a900460ff1660ff1660ff1681526020016001820160049054906101000a900460ff1660ff1660ff1681526020016001820160059054906101000a900460ff1660ff1660ff1681526020016001820160069054906101000a900460ff1660ff1660ff168152505081526020019060010190611f7f565b50505050905090565b61215c612f71565b73ffffffffffffffffffffffffffffffffffffffff168273ffffffffffffffffffffffffffffffffffffffff1614156121ca576040517f08c379a00000000000000000000000000000000000000000000000000000000081526004016121c190615380565b60405180910390fd5b80600560006121d7612f71565b73ffffffffffffffffffffffffffffffffffffffff1673ffffffffffffffffffffffffffffffffffffffff16815260200190815260200160002060008473ffffffffffffffffffffffffffffffffffffffff1673ffffffffffffffffffffffffffffffffffffffff16815260200190815260200160002060006101000a81548160ff0219169083151502179055508173ffffffffffffffffffffffffffffffffffffffff16612284612f71565b73ffffffffffffffffffffffffffffffffffffffff167f17307eab39ab6107e8899845ad3d59bd9653f200f220920489ca2b5937696c31836040516122c99190613fc5565b60405180910390a35050565b6000600a6000838152602001908152602001600020549050919050565b6123036122fd612f71565b83613148565b612342576040517f08c379a000000000000000000000000000000000000000000000000000000000815260040161233990614efc565b60405180910390fd5b61234e848484846135f0565b50505050565b61235d82611a4f565b73ffffffffffffffffffffffffffffffffffffffff163373ffffffffffffffffffffffffffffffffffffffff16146123ca576040517f08c379a00000000000000000000000000000000000000000000000000000000081526004016123c190614dd4565b60405180910390fd5b6000811161240d576040517f08c379a0000000000000000000000000000000000000000000000000000000008152600401612404906153ec565b60405180910390fd5b6000600b6000848152602001908152602001600020600001541115612467576040517f08c379a000000000000000000000000000000000000000000000000000000000815260040161245e90615458565b60405180910390fd5b80600a6000848152602001908152602001600020819055505050565b606061248e82612f05565b6124cd576040517f08c379a00000000000000000000000000000000000000000000000000000000081526004016124c4906154ea565b60405180910390fd5b60006006600084815260200190815260200160002080546124ed90614ba0565b80601f016020809104026020016040519081016040528092919081815260200182805461251990614ba0565b80156125665780601f1061253b57610100808354040283529160200191612566565b820191906000526020600020905b81548152906001019060200180831161254957829003601f168201915b50505050509050600061257761364c565b905060008151141561258d5781925050506125d0565b6000825111156125c25780826040516020016125aa929190615546565b604051602081830303815290604052925050506125d0565b6125cb84613663565b925050505b919050565b6125de83611a4f565b73ffffffffffffffffffffffffffffffffffffffff163373ffffffffffffffffffffffffffffffffffffffff161461264b576040517f08c379a000000000000000000000000000000000000000000000000000000000815260040161264290614dd4565b60405180910390fd5b6103e8600c60029054906101000a900461ffff1661ffff164261266e9190614f50565b612678919061507e565b8210156126ba576040517f08c379a00000000000000000000000000000000000000000000000000000000081526004016126b1906155b6565b60405180910390fd5b600081116126fd576040517f08c379a00000000000000000000000000000000000000000000000000000000081526004016126f490615622565b60405180910390fd5b6000600b6000858152602001908152602001600020600001541115612757576040517f08c379a000000000000000000000000000000000000000000000000000000000815260040161274e9061568e565b60405180910390fd5b6000600a60008581526020019081526020016000205411156127ae576040517f08c379a00000000000000000000000000000000000000000000000000000000081526004016127a5906156fa565b60405180910390fd5b604051806080016040528083815260200182815260200160008152602001600073ffffffffffffffffffffffffffffffffffffffff16815250600b600085815260200190815260200160002060008201518160000155602082015181600101556040820151816002015560608201518160030160006101000a81548173ffffffffffffffffffffffffffffffffffffffff021916908373ffffffffffffffffffffffffffffffffffffffff160217905550905050505050565b6000600b60008381526020019081526020016000206040518060800160405290816000820154815260200160018201548152602001600282015481526020016003820160009054906101000a900473ffffffffffffffffffffffffffffffffffffffff1673ffffffffffffffffffffffffffffffffffffffff1673ffffffffffffffffffffffffffffffffffffffff168152505090506000600b60008481526020019081526020016000206000015411612956576040517f08c379a000000000000000000000000000000000000000000000000000000000815260040161294d90614ff2565b60405180910390fd5b6103e842612964919061507e565b816000015111156129aa576040517f08c379a00000000000000000000000000000000000000000000000000000000081526004016129a190615766565b60405180910390fd5b600081604001511115612a305760006129c283611a4f565b90508073ffffffffffffffffffffffffffffffffffffffff166108fc83604001519081150290604051600060405180830381858888f19350505050158015612a0e573d6000803e3d6000fd5b50612a2e81836060015185604051806020016040528060008152506135f0565b505b600b6000838152602001908152602001600020600080820160009055600182016000905560028201600090556003820160006101000a81549073ffffffffffffffffffffffffffffffffffffffff021916905550505050565b612a9281611a4f565b73ffffffffffffffffffffffffffffffffffffffff163373ffffffffffffffffffffffffffffffffffffffff1614612aff576040517f08c379a0000000000000000000000000000000000000000000000000000000008152600401612af690614dd4565b60405180910390fd5b6000600a60008381526020019081526020016000208190555050565b6000600a600083815260200190815260200160002054905060008111612b76576040517f08c379a0000000000000000000000000000000000000000000000000000000008152600401612b6d906157d2565b60405180910390fd5b803414612bb8576040517f08c379a0000000000000000000000000000000000000000000000000000000008152600401612baf90615184565b60405180910390fd5b6000612bc383611a4f565b90508073ffffffffffffffffffffffffffffffffffffffff166108fc349081150290604051600060405180830381858888f19350505050158015612c0b573d6000803e3d6000fd5b50612c27813385604051806020016040528060008152506135f0565b6000600a600085815260200190815260200160002081905550505050565b6000600560008473ffffffffffffffffffffffffffffffffffffffff1673ffffffffffffffffffffffffffffffffffffffff16815260200190815260200160002060008373ffffffffffffffffffffffffffffffffffffffff1673ffffffffffffffffffffffffffffffffffffffff16815260200190815260200160002060009054906101000a900460ff16905092915050565b612ce1612f71565b73ffffffffffffffffffffffffffffffffffffffff16612cff611cf2565b73ffffffffffffffffffffffffffffffffffffffff1614612d55576040517f08c379a0000000000000000000000000000000000000000000000000000000008152600401612d4c90614e6a565b60405180910390fd5b600073ffffffffffffffffffffffffffffffffffffffff168173ffffffffffffffffffffffffffffffffffffffff161415612dc5576040517f08c379a0000000000000000000000000000000000000000000000000000000008152600401612dbc90615864565b60405180910390fd5b612dce8161352a565b50565b565b612ddc82611a4f565b73ffffffffffffffffffffffffffffffffffffffff163373ffffffffffffffffffffffffffffffffffffffff1614612e49576040517f08c379a0000000000000000000000000000000000000000000000000000000008152600401612e4090614dd4565b60405180910390fd5b600060098381548110612e5f57612e5e614b42565b5b9060005260206000209060020201905081816000019080519060200190612e87929190613cbb565b50505050565b600081600001549050919050565b60007f01ffc9a7000000000000000000000000000000000000000000000000000000007bffffffffffffffffffffffffffffffffffffffffffffffffffffffff1916827bffffffffffffffffffffffffffffffffffffffffffffffffffffffff1916149050919050565b60008073ffffffffffffffffffffffffffffffffffffffff166002600084815260200190815260200160002060009054906101000a900473ffffffffffffffffffffffffffffffffffffffff1673ffffffffffffffffffffffffffffffffffffffff1614159050919050565b600033905090565b816004600083815260200190815260200160002060006101000a81548173ffffffffffffffffffffffffffffffffffffffff021916908373ffffffffffffffffffffffffffffffffffffffff160217905550808273ffffffffffffffffffffffffffffffffffffffff16612fec83611a4f565b73ffffffffffffffffffffffffffffffffffffffff167f8c5be1e5ebec7d5bd14f71427d1e84f3dd0314c0f7b2291e5b200ac8c7c3b92560405160405180910390a45050565b60008043423360405160200161304891906158cc565b6040516020818303038152906040528051906020012060001c61306b9190615107565b45424160405160200161307e9190615922565b6040516020818303038152906040528051906020012060001c6130a19190615107565b44426130ad9190614f50565b6130b79190614f50565b6130c19190614f50565b6130cb9190614f50565b6130d59190614f50565b6040516020016130e5919061595e565b6040516020818303038152906040528051906020012060001c905060018361310d9190615979565b60ff1660018461311d9190615979565b60ff168261312b9190615107565b613135919061507e565b8161314091906159b0565b915050919050565b600061315382612f05565b613192576040517f08c379a000000000000000000000000000000000000000000000000000000000815260040161318990615a56565b60405180910390fd5b600061319d83611a4f565b90508073ffffffffffffffffffffffffffffffffffffffff168473ffffffffffffffffffffffffffffffffffffffff16148061320c57508373ffffffffffffffffffffffffffffffffffffffff166131f484610afb565b73ffffffffffffffffffffffffffffffffffffffff16145b8061321d575061321c8185612c45565b5b91505092915050565b8273ffffffffffffffffffffffffffffffffffffffff1661324682611a4f565b73ffffffffffffffffffffffffffffffffffffffff161461329c576040517f08c379a000000000000000000000000000000000000000000000000000000000815260040161329390615ae8565b60405180910390fd5b600073ffffffffffffffffffffffffffffffffffffffff168273ffffffffffffffffffffffffffffffffffffffff16141561330c576040517f08c379a000000000000000000000000000000000000000000000000000000000815260040161330390615b7a565b60405180910390fd5b61331783838361370a565b613322600082612f79565b6001600360008573ffffffffffffffffffffffffffffffffffffffff1673ffffffffffffffffffffffffffffffffffffffff168152602001908152602001600020600082825461337291906159b0565b925050819055506001600360008473ffffffffffffffffffffffffffffffffffffffff1673ffffffffffffffffffffffffffffffffffffffff16815260200190815260200160002060008282546133c99190614f50565b92505081905550816002600083815260200190815260200160002060006101000a81548173ffffffffffffffffffffffffffffffffffffffff021916908373ffffffffffffffffffffffffffffffffffffffff160217905550808273ffffffffffffffffffffffffffffffffffffffff168473ffffffffffffffffffffffffffffffffffffffff167fddf252ad1be2c89b69c2b068fc378daa952ba7f163c4a11628f55a4df523b3ef60405160405180910390a4505050565b61349c82826040518060200160405280600081525061370f565b5050565b6134a982612f05565b6134e8576040517f08c379a00000000000000000000000000000000000000000000000000000000081526004016134df90615c0c565b60405180910390fd5b8060066000848152602001908152602001600020908051906020019061350f929190613cbb565b505050565b6001816000016000828254019250508190555050565b6000600760009054906101000a900473ffffffffffffffffffffffffffffffffffffffff16905081600760006101000a81548173ffffffffffffffffffffffffffffffffffffffff021916908373ffffffffffffffffffffffffffffffffffffffff1602179055508173ffffffffffffffffffffffffffffffffffffffff168173ffffffffffffffffffffffffffffffffffffffff167f8be0079c531659141344cd1fd0a4f28419497f9722a3daafe3b4186f6b6457e060405160405180910390a35050565b6135fb848484613226565b6136078484848461376a565b613646576040517f08c379a000000000000000000000000000000000000000000000000000000000815260040161363d90615c9e565b60405180910390fd5b50505050565b606060405180602001604052806000815250905090565b606061366e82612f05565b6136ad576040517f08c379a00000000000000000000000000000000000000000000000000000000081526004016136a490615d30565b60405180910390fd5b60006136b761364c565b905060008151116136d75760405180602001604052806000815250613702565b806136e184613901565b6040516020016136f2929190615546565b6040516020818303038152906040525b915050919050565b505050565b6137198383613a62565b613726600084848461376a565b613765576040517f08c379a000000000000000000000000000000000000000000000000000000000815260040161375c90615c9e565b60405180910390fd5b505050565b600061378b8473ffffffffffffffffffffffffffffffffffffffff16613c30565b156138f4578373ffffffffffffffffffffffffffffffffffffffff1663150b7a026137b4612f71565b8786866040518563ffffffff1660e01b81526004016137d69493929190615da5565b602060405180830381600087803b1580156137f057600080fd5b505af192505050801561382157506040513d601f19601f8201168201806040525081019061381e9190615e06565b60015b6138a4573d8060008114613851576040519150601f19603f3d011682016040523d82523d6000602084013e613856565b606091505b5060008151141561389c576040517f08c379a000000000000000000000000000000000000000000000000000000000815260040161389390615c9e565b60405180910390fd5b805181602001fd5b63150b7a0260e01b7bffffffffffffffffffffffffffffffffffffffffffffffffffffffff1916817bffffffffffffffffffffffffffffffffffffffffffffffffffffffff1916149150506138f9565b600190505b949350505050565b60606000821415613949576040518060400160405280600181526020017f30000000000000000000000000000000000000000000000000000000000000008152509050613a5d565b600082905060005b6000821461397b57808061396490614af9565b915050600a826139749190615107565b9150613951565b60008167ffffffffffffffff8111156139975761399661474c565b5b6040519080825280601f01601f1916602001820160405280156139c95781602001600182028036833780820191505090505b5090505b60008514613a56576001826139e291906159b0565b9150600a856139f19190615e33565b60306139fd9190614f50565b60f81b818381518110613a1357613a12614b42565b5b60200101907effffffffffffffffffffffffffffffffffffffffffffffffffffffffffffff1916908160001a905350600a85613a4f9190615107565b94506139cd565b8093505050505b919050565b600073ffffffffffffffffffffffffffffffffffffffff168273ffffffffffffffffffffffffffffffffffffffff161415613ad2576040517f08c379a0000000000000000000000000000000000000000000000000000000008152600401613ac990615eb0565b60405180910390fd5b613adb81612f05565b15613b1b576040517f08c379a0000000000000000000000000000000000000000000000000000000008152600401613b1290615f1c565b60405180910390fd5b613b276000838361370a565b6001600360008473ffffffffffffffffffffffffffffffffffffffff1673ffffffffffffffffffffffffffffffffffffffff1681526020019081526020016000206000828254613b779190614f50565b92505081905550816002600083815260200190815260200160002060006101000a81548173ffffffffffffffffffffffffffffffffffffffff021916908373ffffffffffffffffffffffffffffffffffffffff160217905550808273ffffffffffffffffffffffffffffffffffffffff16600073ffffffffffffffffffffffffffffffffffffffff167fddf252ad1be2c89b69c2b068fc378daa952ba7f163c4a11628f55a4df523b3ef60405160405180910390a45050565b600080823b905060008111915050919050565b6040518061010001604052806060815260200160006003811115613c6a57613c6961420f565b5b815260200160006003811115613c8357613c8261420f565b5b8152602001600060ff168152602001600060ff168152602001600060ff168152602001600060ff168152602001600060ff1681525090565b828054613cc790614ba0565b90600052602060002090601f016020900481019282613ce95760008555613d30565b82601f10613d0257805160ff1916838001178555613d30565b82800160010185558215613d30579182015b82811115613d2f578251825591602001919060010190613d14565b5b509050613d3d9190613d7f565b5090565b6040518060800160405280600081526020016000815260200160008152602001600073ffffffffffffffffffffffffffffffffffffffff1681525090565b5b80821115613d98576000816000905550600101613d80565b5090565b6000604051905090565b600080fd5b600080fd5b600073ffffffffffffffffffffffffffffffffffffffff82169050919050565b6000613ddb82613db0565b9050919050565b613deb81613dd0565b8114613df657600080fd5b50565b600081359050613e0881613de2565b92915050565b600060208284031215613e2457613e23613da6565b5b6000613e3284828501613df9565b91505092915050565b600081519050919050565b600082825260208201905092915050565b6000819050602082019050919050565b6000819050919050565b613e7a81613e67565b82525050565b6000613e8c8383613e71565b60208301905092915050565b6000602082019050919050565b6000613eb082613e3b565b613eba8185613e46565b9350613ec583613e57565b8060005b83811015613ef6578151613edd8882613e80565b9750613ee883613e98565b925050600181019050613ec9565b5085935050505092915050565b60006020820190508181036000830152613f1d8184613ea5565b905092915050565b60007fffffffff0000000000000000000000000000000000000000000000000000000082169050919050565b613f5a81613f25565b8114613f6557600080fd5b50565b600081359050613f7781613f51565b92915050565b600060208284031215613f9357613f92613da6565b5b6000613fa184828501613f68565b91505092915050565b60008115159050919050565b613fbf81613faa565b82525050565b6000602082019050613fda6000830184613fb6565b92915050565b600081519050919050565b600082825260208201905092915050565b60005b8381101561401a578082015181840152602081019050613fff565b83811115614029576000848401525b50505050565b6000601f19601f8301169050919050565b600061404b82613fe0565b6140558185613feb565b9350614065818560208601613ffc565b61406e8161402f565b840191505092915050565b600060208201905081810360008301526140938184614040565b905092915050565b6140a481613e67565b81146140af57600080fd5b50565b6000813590506140c18161409b565b92915050565b6000602082840312156140dd576140dc613da6565b5b60006140eb848285016140b2565b91505092915050565b6140fd81613dd0565b82525050565b600060208201905061411860008301846140f4565b92915050565b6000806040838503121561413557614134613da6565b5b600061414385828601613df9565b9250506020614154858286016140b2565b9150509250929050565b600061ffff82169050919050565b6141758161415e565b811461418057600080fd5b50565b6000813590506141928161416c565b92915050565b6000602082840312156141ae576141ad613da6565b5b60006141bc84828501614183565b91505092915050565b600082825260208201905092915050565b60006141e182613fe0565b6141eb81856141c5565b93506141fb818560208601613ffc565b6142048161402f565b840191505092915050565b7f4e487b7100000000000000000000000000000000000000000000000000000000600052602160045260246000fd5b6004811061424f5761424e61420f565b5b50565b60008190506142608261423e565b919050565b600061427082614252565b9050919050565b61428081614265565b82525050565b600481106142975761429661420f565b5b50565b60008190506142a882614286565b919050565b60006142b88261429a565b9050919050565b6142c8816142ad565b82525050565b600060ff82169050919050565b6142e4816142ce565b82525050565b600061010083016000830151848203600086015261430882826141d6565b915050602083015161431d6020860182614277565b50604083015161433060408601826142bf565b50606083015161434360608601826142db565b50608083015161435660808601826142db565b5060a083015161436960a08601826142db565b5060c083015161437c60c08601826142db565b5060e083015161438f60e08601826142db565b508091505092915050565b600060208201905081810360008301526143b481846142ea565b905092915050565b6000806000606084860312156143d5576143d4613da6565b5b60006143e386828701613df9565b93505060206143f486828701613df9565b9250506040614405868287016140b2565b9150509250925092565b6004811061441c57600080fd5b50565b60008135905061442e8161440f565b92915050565b6004811061444157600080fd5b50565b60008135905061445381614434565b92915050565b600080604083850312156144705761446f613da6565b5b600061447e8582860161441f565b925050602061448f85828601614444565b9150509250929050565b6144a281613e67565b82525050565b60006020820190506144bd6000830184614499565b92915050565b6144cc81613dd0565b82525050565b6080820160008201516144e86000850182613e71565b5060208201516144fb6020850182613e71565b50604082015161450e6040850182613e71565b50606082015161452160608501826144c3565b50505050565b600060808201905061453c60008301846144d2565b92915050565b600081519050919050565b600082825260208201905092915050565b6000819050602082019050919050565b600061010083016000830151848203600086015261458c82826141d6565b91505060208301516145a16020860182614277565b5060408301516145b460408601826142bf565b5060608301516145c760608601826142db565b5060808301516145da60808601826142db565b5060a08301516145ed60a08601826142db565b5060c083015161460060c08601826142db565b5060e083015161461360e08601826142db565b508091505092915050565b600061462a838361456e565b905092915050565b6000602082019050919050565b600061464a82614542565b614654818561454d565b9350836020820285016146668561455e565b8060005b858110156146a25784840389528151614683858261461e565b945061468e83614632565b925060208a0199505060018101905061466a565b50829750879550505050505092915050565b600060208201905081810360008301526146ce818461463f565b905092915050565b6146df81613faa565b81146146ea57600080fd5b50565b6000813590506146fc816146d6565b92915050565b6000806040838503121561471957614718613da6565b5b600061472785828601613df9565b9250506020614738858286016146ed565b9150509250929050565b600080fd5b600080fd5b7f4e487b7100000000000000000000000000000000000000000000000000000000600052604160045260246000fd5b6147848261402f565b810181811067ffffffffffffffff821117156147a3576147a261474c565b5b80604052505050565b60006147b6613d9c565b90506147c2828261477b565b919050565b600067ffffffffffffffff8211156147e2576147e161474c565b5b6147eb8261402f565b9050602081019050919050565b82818337600083830152505050565b600061481a614815846147c7565b6147ac565b90508281526020810184848401111561483657614835614747565b5b6148418482856147f8565b509392505050565b600082601f83011261485e5761485d614742565b5b813561486e848260208601614807565b91505092915050565b6000806000806080858703121561489157614890613da6565b5b600061489f87828801613df9565b94505060206148b087828801613df9565b93505060406148c1878288016140b2565b925050606085013567ffffffffffffffff8111156148e2576148e1613dab565b5b6148ee87828801614849565b91505092959194509250565b6000806040838503121561491157614910613da6565b5b600061491f858286016140b2565b9250506020614930858286016140b2565b9150509250929050565b60008060006060848603121561495357614952613da6565b5b6000614961868287016140b2565b9350506020614972868287016140b2565b9250506040614983868287016140b2565b9150509250925092565b600080604083850312156149a4576149a3613da6565b5b60006149b285828601613df9565b92505060206149c385828601613df9565b9150509250929050565b600067ffffffffffffffff8211156149e8576149e761474c565b5b6149f18261402f565b9050602081019050919050565b6000614a11614a0c846149cd565b6147ac565b905082815260208101848484011115614a2d57614a2c614747565b5b614a388482856147f8565b509392505050565b600082601f830112614a5557614a54614742565b5b8135614a658482602086016149fe565b91505092915050565b60008060408385031215614a8557614a84613da6565b5b6000614a93858286016140b2565b925050602083013567ffffffffffffffff811115614ab457614ab3613dab565b5b614ac085828601614a40565b9150509250929050565b7f4e487b7100000000000000000000000000000000000000000000000000000000600052601160045260246000fd5b6000614b0482613e67565b91507fffffffffffffffffffffffffffffffffffffffffffffffffffffffffffffffff821415614b3757614b36614aca565b5b600182019050919050565b7f4e487b7100000000000000000000000000000000000000000000000000000000600052603260045260246000fd5b7f4e487b7100000000000000000000000000000000000000000000000000000000600052602260045260246000fd5b60006002820490506001821680614bb857607f821691505b60208210811415614bcc57614bcb614b71565b5b50919050565b7f4552433732313a20617070726f76656420717565727920666f72206e6f6e657860008201527f697374656e7420746f6b656e0000000000000000000000000000000000000000602082015250565b6000614c2e602c83613feb565b9150614c3982614bd2565b604082019050919050565b60006020820190508181036000830152614c5d81614c21565b9050919050565b7f4552433732313a20617070726f76616c20746f2063757272656e74206f776e6560008201527f7200000000000000000000000000000000000000000000000000000000000000602082015250565b6000614cc0602183613feb565b9150614ccb82614c64565b604082019050919050565b60006020820190508181036000830152614cef81614cb3565b9050919050565b7f4552433732313a20617070726f76652063616c6c6572206973206e6f74206f7760008201527f6e6572206e6f7220617070726f76656420666f7220616c6c0000000000000000602082015250565b6000614d52603883613feb565b9150614d5d82614cf6565b604082019050919050565b60006020820190508181036000830152614d8181614d45565b9050919050565b7f4e6f74206f776e65720000000000000000000000000000000000000000000000600082015250565b6000614dbe600983613feb565b9150614dc982614d88565b602082019050919050565b60006020820190508181036000830152614ded81614db1565b9050919050565b6000614dff826142ce565b915060ff821415614e1357614e12614aca565b5b600182019050919050565b7f4f776e61626c653a2063616c6c6572206973206e6f7420746865206f776e6572600082015250565b6000614e54602083613feb565b9150614e5f82614e1e565b602082019050919050565b60006020820190508181036000830152614e8381614e47565b9050919050565b7f4552433732313a207472616e736665722063616c6c6572206973206e6f74206f60008201527f776e6572206e6f7220617070726f766564000000000000000000000000000000602082015250565b6000614ee6603183613feb565b9150614ef182614e8a565b604082019050919050565b60006020820190508181036000830152614f1581614ed9565b9050919050565b6000614f27826142ce565b9150614f32836142ce565b925082821015614f4557614f44614aca565b5b828203905092915050565b6000614f5b82613e67565b9150614f6683613e67565b9250827fffffffffffffffffffffffffffffffffffffffffffffffffffffffffffffffff03821115614f9b57614f9a614aca565b5b828201905092915050565b7f41756374696f6e206e6f7420666f756e64000000000000000000000000000000600082015250565b6000614fdc601183613feb565b9150614fe782614fa6565b602082019050919050565b6000602082019050818103600083015261500b81614fcf565b9050919050565b7f41756374696f6e20656e64656400000000000000000000000000000000000000600082015250565b6000615048600d83613feb565b915061505382615012565b602082019050919050565b600060208201905081810360008301526150778161503b565b9050919050565b600061508982613e67565b915061509483613e67565b9250817fffffffffffffffffffffffffffffffffffffffffffffffffffffffffffffffff04831182151516156150cd576150cc614aca565b5b828202905092915050565b7f4e487b7100000000000000000000000000000000000000000000000000000000600052601260045260246000fd5b600061511282613e67565b915061511d83613e67565b92508261512d5761512c6150d8565b5b828204905092915050565b7f496e636f72726563742076616c75650000000000000000000000000000000000600082015250565b600061516e600f83613feb565b915061517982615138565b602082019050919050565b6000602082019050818103600083015261519d81615161565b9050919050565b7f4552433732313a206f776e657220717565727920666f72206e6f6e657869737460008201527f656e7420746f6b656e0000000000000000000000000000000000000000000000602082015250565b6000615200602983613feb565b915061520b826151a4565b604082019050919050565b6000602082019050818103600083015261522f816151f3565b9050919050565b7f4552433732313a2062616c616e636520717565727920666f7220746865207a6560008201527f726f206164647265737300000000000000000000000000000000000000000000602082015250565b6000615292602a83613feb565b915061529d82615236565b604082019050919050565b600060208201905081810360008301526152c181615285565b9050919050565b7f43616e206e6f742063616e63656c20746869732061756374696f6e0000000000600082015250565b60006152fe601b83613feb565b9150615309826152c8565b602082019050919050565b6000602082019050818103600083015261532d816152f1565b9050919050565b7f4552433732313a20617070726f766520746f2063616c6c657200000000000000600082015250565b600061536a601983613feb565b915061537582615334565b602082019050919050565b600060208201905081810360008301526153998161535d565b9050919050565b7f5072696365207a65726f00000000000000000000000000000000000000000000600082015250565b60006153d6600a83613feb565b91506153e1826153a0565b602082019050919050565b60006020820190508181036000830152615405816153c9565b9050919050565b7f54686572652069732061206163746976652061756374696f6e00000000000000600082015250565b6000615442601983613feb565b915061544d8261540c565b602082019050919050565b6000602082019050818103600083015261547181615435565b9050919050565b7f45524337323155524953746f726167653a2055524920717565727920666f722060008201527f6e6f6e6578697374656e7420746f6b656e000000000000000000000000000000602082015250565b60006154d4603183613feb565b91506154df82615478565b604082019050919050565b60006020820190508181036000830152615503816154c7565b9050919050565b600081905092915050565b600061552082613fe0565b61552a818561550a565b935061553a818560208601613ffc565b80840191505092915050565b60006155528285615515565b915061555e8284615515565b91508190509392505050565b7f41756374696f6e206d757374206861766520656e642074696d65000000000000600082015250565b60006155a0601a83613feb565b91506155ab8261556a565b602082019050919050565b600060208201905081810360008301526155cf81615593565b9050919050565b7f4d696e696d756d20507269636500000000000000000000000000000000000000600082015250565b600061560c600d83613feb565b9150615617826155d6565b602082019050919050565b6000602082019050818103600083015261563b816155ff565b9050919050565b7f41756374696f6e20616c72656164792063726561746564000000000000000000600082015250565b6000615678601783613feb565b915061568382615642565b602082019050919050565b600060208201905081810360008301526156a78161566b565b9050919050565b7f4865726f2069732073657474656420746f2073656c6c00000000000000000000600082015250565b60006156e4601683613feb565b91506156ef826156ae565b602082019050919050565b60006020820190508181036000830152615713816156d7565b9050919050565b7f41756374696f6e206e6f7420656e646564000000000000000000000000000000600082015250565b6000615750601183613feb565b915061575b8261571a565b602082019050919050565b6000602082019050818103600083015261577f81615743565b9050919050565b7f4865726f206e6f7420666f722073616c65000000000000000000000000000000600082015250565b60006157bc601183613feb565b91506157c782615786565b602082019050919050565b600060208201905081810360008301526157eb816157af565b9050919050565b7f4f776e61626c653a206e6577206f776e657220697320746865207a65726f206160008201527f6464726573730000000000000000000000000000000000000000000000000000602082015250565b600061584e602683613feb565b9150615859826157f2565b604082019050919050565b6000602082019050818103600083015261587d81615841565b9050919050565b60008160601b9050919050565b600061589c82615884565b9050919050565b60006158ae82615891565b9050919050565b6158c66158c182613dd0565b6158a3565b82525050565b60006158d882846158b5565b60148201915081905092915050565b60006158f282613db0565b9050919050565b600061590482615891565b9050919050565b61591c615917826158e7565b6158f9565b82525050565b600061592e828461590b565b60148201915081905092915050565b6000819050919050565b61595861595382613e67565b61593d565b82525050565b600061596a8284615947565b60208201915081905092915050565b6000615984826142ce565b915061598f836142ce565b92508260ff038211156159a5576159a4614aca565b5b828201905092915050565b60006159bb82613e67565b91506159c683613e67565b9250828210156159d9576159d8614aca565b5b828203905092915050565b7f4552433732313a206f70657261746f7220717565727920666f72206e6f6e657860008201527f697374656e7420746f6b656e0000000000000000000000000000000000000000602082015250565b6000615a40602c83613feb565b9150615a4b826159e4565b604082019050919050565b60006020820190508181036000830152615a6f81615a33565b9050919050565b7f4552433732313a207472616e73666572206f6620746f6b656e2074686174206960008201527f73206e6f74206f776e0000000000000000000000000000000000000000000000602082015250565b6000615ad2602983613feb565b9150615add82615a76565b604082019050919050565b60006020820190508181036000830152615b0181615ac5565b9050919050565b7f4552433732313a207472616e7366657220746f20746865207a65726f2061646460008201527f7265737300000000000000000000000000000000000000000000000000000000602082015250565b6000615b64602483613feb565b9150615b6f82615b08565b604082019050919050565b60006020820190508181036000830152615b9381615b57565b9050919050565b7f45524337323155524953746f726167653a2055524920736574206f66206e6f6e60008201527f6578697374656e7420746f6b656e000000000000000000000000000000000000602082015250565b6000615bf6602e83613feb565b9150615c0182615b9a565b604082019050919050565b60006020820190508181036000830152615c2581615be9565b9050919050565b7f4552433732313a207472616e7366657220746f206e6f6e20455243373231526560008201527f63656976657220696d706c656d656e7465720000000000000000000000000000602082015250565b6000615c88603283613feb565b9150615c9382615c2c565b604082019050919050565b60006020820190508181036000830152615cb781615c7b565b9050919050565b7f4552433732314d657461646174613a2055524920717565727920666f72206e6f60008201527f6e6578697374656e7420746f6b656e0000000000000000000000000000000000602082015250565b6000615d1a602f83613feb565b9150615d2582615cbe565b604082019050919050565b60006020820190508181036000830152615d4981615d0d565b9050919050565b600081519050919050565b600082825260208201905092915050565b6000615d7782615d50565b615d818185615d5b565b9350615d91818560208601613ffc565b615d9a8161402f565b840191505092915050565b6000608082019050615dba60008301876140f4565b615dc760208301866140f4565b615dd46040830185614499565b8181036060830152615de68184615d6c565b905095945050505050565b600081519050615e0081613f51565b92915050565b600060208284031215615e1c57615e1b613da6565b5b6000615e2a84828501615df1565b91505092915050565b6000615e3e82613e67565b9150615e4983613e67565b925082615e5957615e586150d8565b5b828206905092915050565b7f4552433732313a206d696e7420746f20746865207a65726f2061646472657373600082015250565b6000615e9a602083613feb565b9150615ea582615e64565b602082019050919050565b60006020820190508181036000830152615ec981615e8d565b9050919050565b7f4552433732313a20746f6b656e20616c7265616479206d696e74656400000000600082015250565b6000615f06601c83613feb565b9150615f1182615ed0565b602082019050919050565b60006020820190508181036000830152615f3581615ef9565b905091905056fea26469706673582212202213b08ddd09dd9704890a524d244beb546a44618669c54f5e86d48b185eeac564736f6c63430008090033",
  "immutableReferences": {},
  "source": "pragma solidity 0.8.9;\n\nimport \"../node_modules/@openzeppelin/contracts/token/ERC721/extensions/ERC721URIStorage.sol\";\nimport \"../node_modules/@openzeppelin/contracts/utils/Counters.sol\";\nimport \"../node_modules/@openzeppelin/contracts/access/Ownable.sol\";\n\ncontract GameToken is ERC721URIStorage, Ownable {\n    using Counters for Counters.Counter;\n    Counters.Counter private _currentHeroId;\n\n    enum HeroType {\n        FIGHTER,\n        ROGUE,\n        MAGE,\n        TANK\n    }\n    enum HeroRarity {\n        COMMON,\n        UNCOMMON,\n        RARE,\n        LEGENDARY\n    }\n\n    struct Hero {\n        string name;\n        HeroType heroType;\n        HeroRarity rarity;\n        uint8 str;\n        uint8 con;\n        uint8 dex;\n        uint8 inte;\n        uint8 level;\n    }\n\n    struct Auction {\n        uint256 endTime;\n        uint256 minValue;\n        uint256 currValue;\n        address lastBidAddress;\n    }\n\n    Hero[] private _heroes;\n    mapping(uint256 => uint256) private _sellingHeroes;\n\n    mapping(uint256 => Auction) private _sellingHeroesAuction;\n\n    uint16 private _minBidIncrement = 110;\n    uint16 private _minAuctionTime = 60;\n\n    //static final\n    mapping(HeroType => uint8[]) private _mapMint;\n\n    constructor(string memory name, string memory symbol) ERC721(name, symbol) {\n        _mapMint[HeroType.FIGHTER] = [0, 1, 0, 2, 3, 1];\n        _mapMint[HeroType.ROGUE] = [2, 2, 0, 3, 0, 2];\n        _mapMint[HeroType.MAGE] = [3, 3, 2, 1, 0, 3];\n        _mapMint[HeroType.TANK] = [1, 1, 0, 2, 3, 1];\n    }\n\n    function setMinBidIncrement(uint16 _newMinBidIncrement) public onlyOwner {\n        _minBidIncrement = _newMinBidIncrement;\n    }\n\n    function setMinAuctionTime(uint16 _newMinAuctionTime) public onlyOwner {\n        _minAuctionTime = _newMinAuctionTime;\n    }\n\n    function getHeroes() external view returns (Hero[] memory) {\n        return _heroes;\n    }\n\n    function mint(HeroType _heroType, HeroRarity _heroRarity) public onlyOwner {\n        uint256 newHeroId = _currentHeroId.current();\n\n        uint8 minAttr;\n        uint8 maxAttr;\n\n        if (_heroRarity == HeroRarity.COMMON) {\n            minAttr = 4;\n            maxAttr = 6;\n        } else if (_heroRarity == HeroRarity.UNCOMMON) {\n            minAttr = 7;\n            maxAttr = 8;\n        } else if (_heroRarity == HeroRarity.RARE) {\n            minAttr = 9;\n            maxAttr = 10;\n        } else {\n            minAttr = 11;\n            maxAttr = 12;\n        }\n\n        uint256 attrsSize = rand(maxAttr - minAttr) + minAttr;\n\n        uint8[] memory attrs = new uint8[](4);\n        attrs[0] = 1;\n        attrs[1] = 1;\n        attrs[2] = 1;\n        attrs[3] = 1;\n        uint8 attrCounter = 0;\n\n        for (uint8 i = 1; i <= attrsSize; i++) {\n            attrs[_mapMint[_heroType][attrCounter]]++;\n            if (attrCounter == 5) {\n                attrCounter = 0;\n            } else {\n                attrCounter++;\n            }\n        }\n\n        _safeMint(msg.sender, newHeroId);\n        _setTokenURI(newHeroId, \"teste\");\n        _heroes.push(\n            Hero(\n                \"\",\n                _heroType,\n                _heroRarity,\n                attrs[0],\n                attrs[1],\n                attrs[2],\n                attrs[3],\n                1\n            )\n        );\n\n        _currentHeroId.increment();\n    }\n\n    function getHeroesByAddress(address owner)\n        public\n        view\n        returns (uint256[] memory)\n    {\n        uint256 heroCount = balanceOf(owner);\n\n        if (heroCount == 0) {\n            return new uint256[](0);\n        } else {\n            uint256[] memory ret = new uint256[](heroCount);\n            uint256 i;\n            uint256 curIndex = 0;\n\n            for (i = 0; i < _currentHeroId.current(); i++) {\n                if (ownerOf(i) == owner) {\n                    ret[curIndex++] = i;\n                }\n            }\n\n            return ret;\n        }\n    }\n\n    function getMyHeroes() external view returns (uint256[] memory) {\n        return getHeroesByAddress(msg.sender);\n    }\n\n    function getHero(uint256 _heroId) external view returns (Hero memory) {\n        return _heroes[_heroId];\n    }\n\n    function getSelling(uint256 _heroId)\n        external\n        view\n        returns (uint256)\n    {\n        return _sellingHeroes[_heroId];\n    }\n\n\n    function getAuction(uint256 _heroId)\n        external\n        view\n        returns (Auction memory)\n    {\n        return _sellingHeroesAuction[_heroId];\n    }\n\n    function setName(uint256 _heroId, string memory _name) external {\n        require(msg.sender == ownerOf(_heroId), \"Not owner\");\n        Hero storage hero = _heroes[_heroId];\n\n        hero.name = _name;\n    }\n\n    function levelUp(uint256 _heroId) external {\n        require(msg.sender == ownerOf(_heroId), \"Not owner\");\n\n        Hero storage hero = _heroes[_heroId];\n\n        hero.level++;\n\n        uint256 random = rand(3);\n\n        if (random == 0) {\n            hero.str++;\n        } else if (random == 1) {\n            hero.con++;\n        } else if (random == 2) {\n            hero.dex++;\n        } else if (random == 3) {\n            hero.inte++;\n        }\n    }\n\n    function allowBuy(uint256 _heroId, uint256 _price) external {\n        require(msg.sender == ownerOf(_heroId), \"Not owner\");\n        require(_price > 0, \"Price zero\");\n\n        require(\n            _sellingHeroesAuction[_heroId].endTime <= 0,\n            \"There is a active auction\"\n        );\n\n        _sellingHeroes[_heroId] = _price;\n    }\n\n    function disallowBuy(uint256 _heroId) external {\n        require(msg.sender == ownerOf(_heroId), \"Not owner\");\n        _sellingHeroes[_heroId] = 0;\n    }\n\n    function buy(uint256 _heroId) external payable {\n        uint256 price = _sellingHeroes[_heroId];\n        require(price > 0, \"Hero not for sale\");\n        require(msg.value == price, \"Incorrect value\");\n\n        address seller = ownerOf(_heroId);\n\n        payable(seller).transfer(msg.value);\n\n        _safeTransfer(seller, msg.sender, _heroId, \"\");\n        _sellingHeroes[_heroId] = 0;\n    }\n\n    function createAuction(\n        uint256 _heroId,\n        uint256 _endTime,\n        uint256 _minPrice\n    ) external {\n        require(msg.sender == ownerOf(_heroId), \"Not owner\");\n        require(\n            _endTime >= (block.timestamp + _minAuctionTime) * 1_000,\n            \"Auction must have end time\"\n        );\n        require(_minPrice > 0, \"Minimum Price\");\n        require(\n            _sellingHeroesAuction[_heroId].endTime <= 0,\n            \"Auction already created\"\n        );\n        require(_sellingHeroes[_heroId] <= 0, \"Hero is setted to sell\");\n\n        _sellingHeroesAuction[_heroId] = Auction(\n            _endTime,\n            _minPrice,\n            0,\n            address(0)\n        );\n    }\n\n    function cancelAuction(uint256 _heroId) external {\n        require(msg.sender == ownerOf(_heroId), \"Not owner\");\n\n        Auction memory auction = _sellingHeroesAuction[_heroId];\n\n        require(\n            auction.currValue <= 0,\n            \"Can not cancel this auction\"\n        );\n\n        delete _sellingHeroesAuction[_heroId];\n    }\n\n    function bid(uint256 _heroId) external payable {\n        Auction storage auction = _sellingHeroesAuction[_heroId];\n        require(\n            _sellingHeroesAuction[_heroId].endTime > 0,\n            \"Auction not found\"\n        );\n        require(auction.endTime > block.timestamp, \"Auction ended\");\n        require(\n            msg.value >= uint256((auction.currValue * _minBidIncrement) / 100),\n            \"Incorrect value\"\n        );\n\n        //payable(address(this)).transfer(msg.value);\n\n        if (auction.lastBidAddress != address(0)) {\n            payable(auction.lastBidAddress).transfer(auction.currValue);\n        }\n\n        auction.currValue = msg.value;\n        auction.lastBidAddress = msg.sender;\n    }\n\n    function finishAuction(uint256 _heroId) external {\n        Auction memory auction = _sellingHeroesAuction[_heroId];\n\n        require(\n            _sellingHeroesAuction[_heroId].endTime > 0,\n            \"Auction not found\"\n        );\n        require(\n            auction.endTime <= block.timestamp * 1_000,\n            \"Auction not ended\"\n        );\n\n        if (auction.currValue > 0) {\n            address seller = ownerOf(_heroId);\n\n            payable(seller).transfer(auction.currValue);\n            _safeTransfer(seller, auction.lastBidAddress, _heroId, \"\");\n        }\n\n        delete _sellingHeroesAuction[_heroId];\n    }\n\n    function rand(uint8 limit) private view returns (uint256) {\n        uint256 seed = uint256(\n            keccak256(\n                abi.encodePacked(\n                    block.timestamp +\n                        block.difficulty +\n                        ((\n                            uint256(keccak256(abi.encodePacked(block.coinbase)))\n                        ) / (block.timestamp)) +\n                        block.gaslimit +\n                        ((uint256(keccak256(abi.encodePacked(msg.sender)))) /\n                            (block.timestamp)) +\n                        block.number\n                )\n            )\n        );\n\n        return (seed - ((seed / (limit + 1)) * (limit + 1)));\n    }\n\n    function receiver() external payable {}\n}\n",
  "sourcePath": "/home/rfaita/game/nft-game/contract/contracts/GameToken.sol",
  "compiler": {
    "name": "solc",
    "version": "0.8.9+commit.e5eed63a.Emscripten.clang"
  },
  "schemaVersion": "3.4.3",
  "updatedAt": "2021-11-10T19:27:50.681Z",
  "networkType": "ethereum",
  "devdoc": {
    "kind": "dev",
    "methods": {
      "approve(address,uint256)": {
        "details": "See {IERC721-approve}."
      },
      "balanceOf(address)": {
        "details": "See {IERC721-balanceOf}."
      },
      "getApproved(uint256)": {
        "details": "See {IERC721-getApproved}."
      },
      "isApprovedForAll(address,address)": {
        "details": "See {IERC721-isApprovedForAll}."
      },
      "name()": {
        "details": "See {IERC721Metadata-name}."
      },
      "owner()": {
        "details": "Returns the address of the current owner."
      },
      "ownerOf(uint256)": {
        "details": "See {IERC721-ownerOf}."
      },
      "renounceOwnership()": {
        "details": "Leaves the contract without owner. It will not be possible to call `onlyOwner` functions anymore. Can only be called by the current owner. NOTE: Renouncing ownership will leave the contract without an owner, thereby removing any functionality that is only available to the owner."
      },
      "safeTransferFrom(address,address,uint256)": {
        "details": "See {IERC721-safeTransferFrom}."
      },
      "safeTransferFrom(address,address,uint256,bytes)": {
        "details": "See {IERC721-safeTransferFrom}."
      },
      "setApprovalForAll(address,bool)": {
        "details": "See {IERC721-setApprovalForAll}."
      },
      "supportsInterface(bytes4)": {
        "details": "See {IERC165-supportsInterface}."
      },
      "symbol()": {
        "details": "See {IERC721Metadata-symbol}."
      },
      "tokenURI(uint256)": {
        "details": "See {IERC721Metadata-tokenURI}."
      },
      "transferFrom(address,address,uint256)": {
        "details": "See {IERC721-transferFrom}."
      },
      "transferOwnership(address)": {
        "details": "Transfers ownership of the contract to a new account (`newOwner`). Can only be called by the current owner."
      }
    },
    "version": 1
  },
  "userdoc": {
    "kind": "user",
    "methods": {},
    "version": 1
  }
}