{
  "contractName": "Market",
  "abi": [
    {
      "inputs": [
        {
          "internalType": "address",
          "name": "gameTokenAddress",
          "type": "address"
        }
      ],
      "stateMutability": "nonpayable",
      "type": "constructor"
    },
    {
      "anonymous": false,
      "inputs": [
        {
          "indexed": true,
          "internalType": "address",
          "name": "previousOwner",
          "type": "address"
        },
        {
          "indexed": true,
          "internalType": "address",
          "name": "newOwner",
          "type": "address"
        }
      ],
      "name": "OwnershipTransferred",
      "type": "event"
    },
    {
      "inputs": [],
      "name": "owner",
      "outputs": [
        {
          "internalType": "address",
          "name": "",
          "type": "address"
        }
      ],
      "stateMutability": "view",
      "type": "function",
      "constant": true
    },
    {
      "inputs": [],
      "name": "renounceOwnership",
      "outputs": [],
      "stateMutability": "nonpayable",
      "type": "function"
    },
    {
      "inputs": [
        {
          "internalType": "address",
          "name": "newOwner",
          "type": "address"
        }
      ],
      "name": "transferOwnership",
      "outputs": [],
      "stateMutability": "nonpayable",
      "type": "function"
    },
    {
      "inputs": [
        {
          "internalType": "uint16",
          "name": "_newMinBidIncrement",
          "type": "uint16"
        }
      ],
      "name": "setMinBidIncrement",
      "outputs": [],
      "stateMutability": "nonpayable",
      "type": "function"
    },
    {
      "inputs": [
        {
          "internalType": "uint16",
          "name": "_newMinAuctionTime",
          "type": "uint16"
        }
      ],
      "name": "setMinAuctionTime",
      "outputs": [],
      "stateMutability": "nonpayable",
      "type": "function"
    },
    {
      "inputs": [
        {
          "internalType": "uint256",
          "name": "_heroId",
          "type": "uint256"
        }
      ],
      "name": "getAuction",
      "outputs": [
        {
          "components": [
            {
              "internalType": "uint256",
              "name": "endTime",
              "type": "uint256"
            },
            {
              "internalType": "uint256",
              "name": "minValue",
              "type": "uint256"
            },
            {
              "internalType": "uint256",
              "name": "currValue",
              "type": "uint256"
            },
            {
              "internalType": "address",
              "name": "seller",
              "type": "address"
            },
            {
              "internalType": "address",
              "name": "lastBidAddress",
              "type": "address"
            }
          ],
          "internalType": "struct Market.Auction",
          "name": "",
          "type": "tuple"
        }
      ],
      "stateMutability": "view",
      "type": "function",
      "constant": true
    },
    {
      "inputs": [
        {
          "internalType": "uint256",
          "name": "_heroId",
          "type": "uint256"
        }
      ],
      "name": "getSelling",
      "outputs": [
        {
          "components": [
            {
              "internalType": "uint256",
              "name": "value",
              "type": "uint256"
            },
            {
              "internalType": "address",
              "name": "seller",
              "type": "address"
            }
          ],
          "internalType": "struct Market.SellItem",
          "name": "",
          "type": "tuple"
        }
      ],
      "stateMutability": "view",
      "type": "function",
      "constant": true
    },
    {
      "inputs": [
        {
          "internalType": "uint256",
          "name": "_heroId",
          "type": "uint256"
        },
        {
          "internalType": "uint256",
          "name": "_price",
          "type": "uint256"
        }
      ],
      "name": "allowBuy",
      "outputs": [],
      "stateMutability": "nonpayable",
      "type": "function"
    },
    {
      "inputs": [
        {
          "internalType": "uint256",
          "name": "_heroId",
          "type": "uint256"
        }
      ],
      "name": "disallowBuy",
      "outputs": [],
      "stateMutability": "nonpayable",
      "type": "function"
    },
    {
      "inputs": [
        {
          "internalType": "uint256",
          "name": "_heroId",
          "type": "uint256"
        }
      ],
      "name": "buy",
      "outputs": [],
      "stateMutability": "payable",
      "type": "function",
      "payable": true
    },
    {
      "inputs": [
        {
          "internalType": "uint256",
          "name": "_heroId",
          "type": "uint256"
        },
        {
          "internalType": "uint256",
          "name": "_endTime",
          "type": "uint256"
        },
        {
          "internalType": "uint256",
          "name": "_minPrice",
          "type": "uint256"
        }
      ],
      "name": "createAuction",
      "outputs": [],
      "stateMutability": "nonpayable",
      "type": "function"
    },
    {
      "inputs": [
        {
          "internalType": "uint256",
          "name": "_heroId",
          "type": "uint256"
        }
      ],
      "name": "cancelAuction",
      "outputs": [],
      "stateMutability": "nonpayable",
      "type": "function"
    },
    {
      "inputs": [
        {
          "internalType": "uint256",
          "name": "_heroId",
          "type": "uint256"
        }
      ],
      "name": "bid",
      "outputs": [],
      "stateMutability": "payable",
      "type": "function",
      "payable": true
    },
    {
      "inputs": [
        {
          "internalType": "uint256",
          "name": "_heroId",
          "type": "uint256"
        }
      ],
      "name": "finishAuction",
      "outputs": [],
      "stateMutability": "nonpayable",
      "type": "function"
    }
  ],
  "bytecode": "0x6080604052606e600460006101000a81548161ffff021916908361ffff160217905550603c600460026101000a81548161ffff021916908361ffff1602179055503480156200004d57600080fd5b506040516200287038038062002870833981810160405281019062000073919062000211565b6200009362000087620000db60201b60201c565b620000e360201b60201c565b80600160006101000a81548173ffffffffffffffffffffffffffffffffffffffff021916908373ffffffffffffffffffffffffffffffffffffffff1602179055505062000243565b600033905090565b60008060009054906101000a900473ffffffffffffffffffffffffffffffffffffffff169050816000806101000a81548173ffffffffffffffffffffffffffffffffffffffff021916908373ffffffffffffffffffffffffffffffffffffffff1602179055508173ffffffffffffffffffffffffffffffffffffffff168173ffffffffffffffffffffffffffffffffffffffff167f8be0079c531659141344cd1fd0a4f28419497f9722a3daafe3b4186f6b6457e060405160405180910390a35050565b600080fd5b600073ffffffffffffffffffffffffffffffffffffffff82169050919050565b6000620001d982620001ac565b9050919050565b620001eb81620001cc565b8114620001f757600080fd5b50565b6000815190506200020b81620001e0565b92915050565b6000602082840312156200022a5762000229620001a7565b5b60006200023a84828501620001fa565b91505092915050565b61261d80620002536000396000f3fe6080604052600436106100dd5760003560e01c8063b364acd61161007f578063cf266ed011610059578063cf266ed014610287578063d4991312146102b0578063d96a094a146102d9578063f2fde38b146102f5576100dd565b8063b364acd6146101f8578063bbb5e8d314610235578063cda4beef1461025e576100dd565b8063715018a6116100bb578063715018a61461015057806378bd7935146101675780638da5cb5b146101a457806396b5a755146101cf576100dd565b8063145c0cc2146100e257806322f535a71461010b578063454a2ab314610134575b600080fd5b3480156100ee57600080fd5b5061010960048036038101906101049190611ab7565b61031e565b005b34801561011757600080fd5b50610132600480360381019061012d9190611ab7565b6103ba565b005b61014e60048036038101906101499190611b1a565b610456565b005b34801561015c57600080fd5b506101656106a3565b005b34801561017357600080fd5b5061018e60048036038101906101899190611b1a565b61072b565b60405161019b9190611bff565b60405180910390f35b3480156101b057600080fd5b506101b9610822565b6040516101c69190611c29565b60405180910390f35b3480156101db57600080fd5b506101f660048036038101906101f19190611b1a565b61084b565b005b34801561020457600080fd5b5061021f600480360381019061021a9190611b1a565b610a59565b60405161022c9190611c73565b60405180910390f35b34801561024157600080fd5b5061025c60048036038101906102579190611c8e565b610ae6565b005b34801561026a57600080fd5b5061028560048036038101906102809190611cce565b610dc2565b005b34801561029357600080fd5b506102ae60048036038101906102a99190611b1a565b6111ed565b005b3480156102bc57600080fd5b506102d760048036038101906102d29190611b1a565b6114a5565b005b6102f360048036038101906102ee9190611b1a565b611622565b005b34801561030157600080fd5b5061031c60048036038101906103179190611d4d565b611829565b005b610326611921565b73ffffffffffffffffffffffffffffffffffffffff16610344610822565b73ffffffffffffffffffffffffffffffffffffffff161461039a576040517f08c379a000000000000000000000000000000000000000000000000000000000815260040161039190611dd7565b60405180910390fd5b80600460006101000a81548161ffff021916908361ffff16021790555050565b6103c2611921565b73ffffffffffffffffffffffffffffffffffffffff166103e0610822565b73ffffffffffffffffffffffffffffffffffffffff1614610436576040517f08c379a000000000000000000000000000000000000000000000000000000000815260040161042d90611dd7565b60405180910390fd5b80600460026101000a81548161ffff021916908361ffff16021790555050565b600060036000838152602001908152602001600020905060006003600084815260200190815260200160002060000154116104c6576040517f08c379a00000000000000000000000000000000000000000000000000000000081526004016104bd90611e43565b60405180910390fd5b6103e8426104d49190611e92565b816000015411610519576040517f08c379a000000000000000000000000000000000000000000000000000000000815260040161051090611f38565b60405180910390fd5b6064600460009054906101000a900461ffff1661ffff16826002015461053f9190611e92565b6105499190611f87565b34101561058b576040517f08c379a000000000000000000000000000000000000000000000000000000000815260040161058290612004565b60405180910390fd5b600073ffffffffffffffffffffffffffffffffffffffff168160040160009054906101000a900473ffffffffffffffffffffffffffffffffffffffff1673ffffffffffffffffffffffffffffffffffffffff1614610653578060040160009054906101000a900473ffffffffffffffffffffffffffffffffffffffff1673ffffffffffffffffffffffffffffffffffffffff166108fc82600201549081150290604051600060405180830381858888f19350505050158015610651573d6000803e3d6000fd5b505b348160020181905550338160040160006101000a81548173ffffffffffffffffffffffffffffffffffffffff021916908373ffffffffffffffffffffffffffffffffffffffff1602179055505050565b6106ab611921565b73ffffffffffffffffffffffffffffffffffffffff166106c9610822565b73ffffffffffffffffffffffffffffffffffffffff161461071f576040517f08c379a000000000000000000000000000000000000000000000000000000000815260040161071690611dd7565b60405180910390fd5b6107296000611929565b565b6107336119ed565b600360008381526020019081526020016000206040518060a00160405290816000820154815260200160018201548152602001600282015481526020016003820160009054906101000a900473ffffffffffffffffffffffffffffffffffffffff1673ffffffffffffffffffffffffffffffffffffffff1673ffffffffffffffffffffffffffffffffffffffff1681526020016004820160009054906101000a900473ffffffffffffffffffffffffffffffffffffffff1673ffffffffffffffffffffffffffffffffffffffff1673ffffffffffffffffffffffffffffffffffffffff16815250509050919050565b60008060009054906101000a900473ffffffffffffffffffffffffffffffffffffffff16905090565b3373ffffffffffffffffffffffffffffffffffffffff166003600083815260200190815260200160002060030160009054906101000a900473ffffffffffffffffffffffffffffffffffffffff1673ffffffffffffffffffffffffffffffffffffffff16146108ef576040517f08c379a00000000000000000000000000000000000000000000000000000000081526004016108e690612070565b60405180910390fd5b600060036000838152602001908152602001600020600201541115610949576040517f08c379a0000000000000000000000000000000000000000000000000000000008152600401610940906120dc565b60405180910390fd5b600160009054906101000a900473ffffffffffffffffffffffffffffffffffffffff1673ffffffffffffffffffffffffffffffffffffffff166323b872dd3033846040518463ffffffff1660e01b81526004016109a89392919061210b565b600060405180830381600087803b1580156109c257600080fd5b505af11580156109d6573d6000803e3d6000fd5b5050505060036000828152602001908152602001600020600080820160009055600182016000905560028201600090556003820160006101000a81549073ffffffffffffffffffffffffffffffffffffffff02191690556004820160006101000a81549073ffffffffffffffffffffffffffffffffffffffff0219169055505050565b610a61611a48565b60026000838152602001908152602001600020604051806040016040529081600082015481526020016001820160009054906101000a900473ffffffffffffffffffffffffffffffffffffffff1673ffffffffffffffffffffffffffffffffffffffff1673ffffffffffffffffffffffffffffffffffffffff16815250509050919050565b600160009054906101000a900473ffffffffffffffffffffffffffffffffffffffff1673ffffffffffffffffffffffffffffffffffffffff16636352211e836040518263ffffffff1660e01b8152600401610b419190612142565b60206040518083038186803b158015610b5957600080fd5b505afa158015610b6d573d6000803e3d6000fd5b505050506040513d601f19601f82011682018060405250810190610b919190612172565b73ffffffffffffffffffffffffffffffffffffffff163373ffffffffffffffffffffffffffffffffffffffff1614610bfe576040517f08c379a0000000000000000000000000000000000000000000000000000000008152600401610bf590612070565b60405180910390fd5b60008111610c41576040517f08c379a0000000000000000000000000000000000000000000000000000000008152600401610c38906121eb565b60405180910390fd5b600060036000848152602001908152602001600020600001541115610c9b576040517f08c379a0000000000000000000000000000000000000000000000000000000008152600401610c9290612257565b60405180910390fd5b600160009054906101000a900473ffffffffffffffffffffffffffffffffffffffff1673ffffffffffffffffffffffffffffffffffffffff166323b872dd3330856040518463ffffffff1660e01b8152600401610cfa9392919061210b565b600060405180830381600087803b158015610d1457600080fd5b505af1158015610d28573d6000803e3d6000fd5b5050505060405180604001604052808281526020013373ffffffffffffffffffffffffffffffffffffffff16815250600260008481526020019081526020016000206000820151816000015560208201518160010160006101000a81548173ffffffffffffffffffffffffffffffffffffffff021916908373ffffffffffffffffffffffffffffffffffffffff1602179055509050505050565b600160009054906101000a900473ffffffffffffffffffffffffffffffffffffffff1673ffffffffffffffffffffffffffffffffffffffff16636352211e846040518263ffffffff1660e01b8152600401610e1d9190612142565b60206040518083038186803b158015610e3557600080fd5b505afa158015610e49573d6000803e3d6000fd5b505050506040513d601f19601f82011682018060405250810190610e6d9190612172565b73ffffffffffffffffffffffffffffffffffffffff163373ffffffffffffffffffffffffffffffffffffffff1614610eda576040517f08c379a0000000000000000000000000000000000000000000000000000000008152600401610ed190612070565b60405180910390fd5b6103e8600460029054906101000a900461ffff1661ffff1642610efd9190612277565b610f079190611e92565b821015610f49576040517f08c379a0000000000000000000000000000000000000000000000000000000008152600401610f4090612319565b60405180910390fd5b60008111610f8c576040517f08c379a0000000000000000000000000000000000000000000000000000000008152600401610f8390612385565b60405180910390fd5b600060036000858152602001908152602001600020600001541115610fe6576040517f08c379a0000000000000000000000000000000000000000000000000000000008152600401610fdd906123f1565b60405180910390fd5b600060026000858152602001908152602001600020600001541115611040576040517f08c379a00000000000000000000000000000000000000000000000000000000081526004016110379061245d565b60405180910390fd5b600160009054906101000a900473ffffffffffffffffffffffffffffffffffffffff1673ffffffffffffffffffffffffffffffffffffffff166323b872dd3330866040518463ffffffff1660e01b815260040161109f9392919061210b565b600060405180830381600087803b1580156110b957600080fd5b505af11580156110cd573d6000803e3d6000fd5b505050506040518060a00160405280838152602001828152602001600081526020013373ffffffffffffffffffffffffffffffffffffffff168152602001600073ffffffffffffffffffffffffffffffffffffffff168152506003600085815260200190815260200160002060008201518160000155602082015181600101556040820151816002015560608201518160030160006101000a81548173ffffffffffffffffffffffffffffffffffffffff021916908373ffffffffffffffffffffffffffffffffffffffff16021790555060808201518160040160006101000a81548173ffffffffffffffffffffffffffffffffffffffff021916908373ffffffffffffffffffffffffffffffffffffffff160217905550905050505050565b6000600360008381526020019081526020016000206000015411611246576040517f08c379a000000000000000000000000000000000000000000000000000000000815260040161123d90611e43565b60405180910390fd5b6103e8426112549190611e92565b600360008381526020019081526020016000206000015411156112ac576040517f08c379a00000000000000000000000000000000000000000000000000000000081526004016112a3906124c9565b60405180910390fd5b600060036000838152602001908152602001600020600201541115611426576003600082815260200190815260200160002060030160009054906101000a900473ffffffffffffffffffffffffffffffffffffffff1673ffffffffffffffffffffffffffffffffffffffff166108fc60036000848152602001908152602001600020600201549081150290604051600060405180830381858888f1935050505015801561135d573d6000803e3d6000fd5b50600160009054906101000a900473ffffffffffffffffffffffffffffffffffffffff1673ffffffffffffffffffffffffffffffffffffffff166323b872dd306003600085815260200190815260200160002060040160009054906101000a900473ffffffffffffffffffffffffffffffffffffffff16846040518463ffffffff1660e01b81526004016113f39392919061210b565b600060405180830381600087803b15801561140d57600080fd5b505af1158015611421573d6000803e3d6000fd5b505050505b60036000828152602001908152602001600020600080820160009055600182016000905560028201600090556003820160006101000a81549073ffffffffffffffffffffffffffffffffffffffff02191690556004820160006101000a81549073ffffffffffffffffffffffffffffffffffffffff0219169055505050565b3373ffffffffffffffffffffffffffffffffffffffff166002600083815260200190815260200160002060010160009054906101000a900473ffffffffffffffffffffffffffffffffffffffff1673ffffffffffffffffffffffffffffffffffffffff1614611549576040517f08c379a000000000000000000000000000000000000000000000000000000000815260040161154090612070565b60405180910390fd5b600160009054906101000a900473ffffffffffffffffffffffffffffffffffffffff1673ffffffffffffffffffffffffffffffffffffffff166323b872dd3033846040518463ffffffff1660e01b81526004016115a89392919061210b565b600060405180830381600087803b1580156115c257600080fd5b505af11580156115d6573d6000803e3d6000fd5b50505050600260008281526020019081526020016000206000808201600090556001820160006101000a81549073ffffffffffffffffffffffffffffffffffffffff0219169055505050565b600060026000838152602001908152602001600020600001541161167b576040517f08c379a000000000000000000000000000000000000000000000000000000000815260040161167290612535565b60405180910390fd5b346002600083815260200190815260200160002060000154146116d3576040517f08c379a00000000000000000000000000000000000000000000000000000000081526004016116ca90612004565b60405180910390fd5b6002600082815260200190815260200160002060010160009054906101000a900473ffffffffffffffffffffffffffffffffffffffff1673ffffffffffffffffffffffffffffffffffffffff166108fc349081150290604051600060405180830381858888f1935050505015801561174f573d6000803e3d6000fd5b50600160009054906101000a900473ffffffffffffffffffffffffffffffffffffffff1673ffffffffffffffffffffffffffffffffffffffff166323b872dd3033846040518463ffffffff1660e01b81526004016117af9392919061210b565b600060405180830381600087803b1580156117c957600080fd5b505af11580156117dd573d6000803e3d6000fd5b50505050600260008281526020019081526020016000206000808201600090556001820160006101000a81549073ffffffffffffffffffffffffffffffffffffffff0219169055505050565b611831611921565b73ffffffffffffffffffffffffffffffffffffffff1661184f610822565b73ffffffffffffffffffffffffffffffffffffffff16146118a5576040517f08c379a000000000000000000000000000000000000000000000000000000000815260040161189c90611dd7565b60405180910390fd5b600073ffffffffffffffffffffffffffffffffffffffff168173ffffffffffffffffffffffffffffffffffffffff161415611915576040517f08c379a000000000000000000000000000000000000000000000000000000000815260040161190c906125c7565b60405180910390fd5b61191e81611929565b50565b600033905090565b60008060009054906101000a900473ffffffffffffffffffffffffffffffffffffffff169050816000806101000a81548173ffffffffffffffffffffffffffffffffffffffff021916908373ffffffffffffffffffffffffffffffffffffffff1602179055508173ffffffffffffffffffffffffffffffffffffffff168173ffffffffffffffffffffffffffffffffffffffff167f8be0079c531659141344cd1fd0a4f28419497f9722a3daafe3b4186f6b6457e060405160405180910390a35050565b6040518060a00160405280600081526020016000815260200160008152602001600073ffffffffffffffffffffffffffffffffffffffff168152602001600073ffffffffffffffffffffffffffffffffffffffff1681525090565b604051806040016040528060008152602001600073ffffffffffffffffffffffffffffffffffffffff1681525090565b600080fd5b600061ffff82169050919050565b611a9481611a7d565b8114611a9f57600080fd5b50565b600081359050611ab181611a8b565b92915050565b600060208284031215611acd57611acc611a78565b5b6000611adb84828501611aa2565b91505092915050565b6000819050919050565b611af781611ae4565b8114611b0257600080fd5b50565b600081359050611b1481611aee565b92915050565b600060208284031215611b3057611b2f611a78565b5b6000611b3e84828501611b05565b91505092915050565b611b5081611ae4565b82525050565b600073ffffffffffffffffffffffffffffffffffffffff82169050919050565b6000611b8182611b56565b9050919050565b611b9181611b76565b82525050565b60a082016000820151611bad6000850182611b47565b506020820151611bc06020850182611b47565b506040820151611bd36040850182611b47565b506060820151611be66060850182611b88565b506080820151611bf96080850182611b88565b50505050565b600060a082019050611c146000830184611b97565b92915050565b611c2381611b76565b82525050565b6000602082019050611c3e6000830184611c1a565b92915050565b604082016000820151611c5a6000850182611b47565b506020820151611c6d6020850182611b88565b50505050565b6000604082019050611c886000830184611c44565b92915050565b60008060408385031215611ca557611ca4611a78565b5b6000611cb385828601611b05565b9250506020611cc485828601611b05565b9150509250929050565b600080600060608486031215611ce757611ce6611a78565b5b6000611cf586828701611b05565b9350506020611d0686828701611b05565b9250506040611d1786828701611b05565b9150509250925092565b611d2a81611b76565b8114611d3557600080fd5b50565b600081359050611d4781611d21565b92915050565b600060208284031215611d6357611d62611a78565b5b6000611d7184828501611d38565b91505092915050565b600082825260208201905092915050565b7f4f776e61626c653a2063616c6c6572206973206e6f7420746865206f776e6572600082015250565b6000611dc1602083611d7a565b9150611dcc82611d8b565b602082019050919050565b60006020820190508181036000830152611df081611db4565b9050919050565b7f41756374696f6e206e6f7420666f756e64000000000000000000000000000000600082015250565b6000611e2d601183611d7a565b9150611e3882611df7565b602082019050919050565b60006020820190508181036000830152611e5c81611e20565b9050919050565b7f4e487b7100000000000000000000000000000000000000000000000000000000600052601160045260246000fd5b6000611e9d82611ae4565b9150611ea883611ae4565b9250817fffffffffffffffffffffffffffffffffffffffffffffffffffffffffffffffff0483118215151615611ee157611ee0611e63565b5b828202905092915050565b7f41756374696f6e20656e64656400000000000000000000000000000000000000600082015250565b6000611f22600d83611d7a565b9150611f2d82611eec565b602082019050919050565b60006020820190508181036000830152611f5181611f15565b9050919050565b7f4e487b7100000000000000000000000000000000000000000000000000000000600052601260045260246000fd5b6000611f9282611ae4565b9150611f9d83611ae4565b925082611fad57611fac611f58565b5b828204905092915050565b7f496e636f72726563742076616c75650000000000000000000000000000000000600082015250565b6000611fee600f83611d7a565b9150611ff982611fb8565b602082019050919050565b6000602082019050818103600083015261201d81611fe1565b9050919050565b7f4e6f74206f776e65720000000000000000000000000000000000000000000000600082015250565b600061205a600983611d7a565b915061206582612024565b602082019050919050565b600060208201905081810360008301526120898161204d565b9050919050565b7f43616e27742063616e63656c20746869732061756374696f6e00000000000000600082015250565b60006120c6601983611d7a565b91506120d182612090565b602082019050919050565b600060208201905081810360008301526120f5816120b9565b9050919050565b61210581611ae4565b82525050565b60006060820190506121206000830186611c1a565b61212d6020830185611c1a565b61213a60408301846120fc565b949350505050565b600060208201905061215760008301846120fc565b92915050565b60008151905061216c81611d21565b92915050565b60006020828403121561218857612187611a78565b5b60006121968482850161215d565b91505092915050565b7f5072696365207a65726f00000000000000000000000000000000000000000000600082015250565b60006121d5600a83611d7a565b91506121e08261219f565b602082019050919050565b60006020820190508181036000830152612204816121c8565b9050919050565b7f54686572652069732061206163746976652061756374696f6e00000000000000600082015250565b6000612241601983611d7a565b915061224c8261220b565b602082019050919050565b6000602082019050818103600083015261227081612234565b9050919050565b600061228282611ae4565b915061228d83611ae4565b9250827fffffffffffffffffffffffffffffffffffffffffffffffffffffffffffffffff038211156122c2576122c1611e63565b5b828201905092915050565b7f41756374696f6e206d757374206861766520656e642074696d65000000000000600082015250565b6000612303601a83611d7a565b915061230e826122cd565b602082019050919050565b60006020820190508181036000830152612332816122f6565b9050919050565b7f4d696e696d756d20507269636500000000000000000000000000000000000000600082015250565b600061236f600d83611d7a565b915061237a82612339565b602082019050919050565b6000602082019050818103600083015261239e81612362565b9050919050565b7f41756374696f6e20616c72656164792063726561746564000000000000000000600082015250565b60006123db601783611d7a565b91506123e6826123a5565b602082019050919050565b6000602082019050818103600083015261240a816123ce565b9050919050565b7f4865726f2069732073656c6c696e670000000000000000000000000000000000600082015250565b6000612447600f83611d7a565b915061245282612411565b602082019050919050565b600060208201905081810360008301526124768161243a565b9050919050565b7f41756374696f6e206e6f7420656e646564000000000000000000000000000000600082015250565b60006124b3601183611d7a565b91506124be8261247d565b602082019050919050565b600060208201905081810360008301526124e2816124a6565b9050919050565b7f4865726f206e6f7420666f722073616c65000000000000000000000000000000600082015250565b600061251f601183611d7a565b915061252a826124e9565b602082019050919050565b6000602082019050818103600083015261254e81612512565b9050919050565b7f4f776e61626c653a206e6577206f776e657220697320746865207a65726f206160008201527f6464726573730000000000000000000000000000000000000000000000000000602082015250565b60006125b1602683611d7a565b91506125bc82612555565b604082019050919050565b600060208201905081810360008301526125e0816125a4565b905091905056fea2646970667358221220afd2abf19dd9416248b59958de5912266cd6c1926b291ecb20de62a80d2b963464736f6c63430008090033",
  "immutableReferences": {},
  "source": "pragma solidity 0.8.9;\n\nimport \"../node_modules/@openzeppelin/contracts/access/Ownable.sol\";\nimport \"../node_modules/@openzeppelin/contracts/token/ERC721/IERC721.sol\";\n\ncontract Market is Ownable {\n    address private _gameTokenAddress;\n\n    struct Auction {\n        uint256 endTime;\n        uint256 minValue;\n        uint256 currValue;\n        address seller;\n        address lastBidAddress;\n    }\n\n    struct SellItem {\n        uint256 value;\n        address seller;\n    }\n\n    mapping(uint256 => SellItem) private _sellingHeroes;\n    mapping(uint256 => Auction) private _sellingHeroesAuction;\n\n    uint16 private _minBidIncrement = 110;\n    uint16 private _minAuctionTime = 60;\n\n    constructor(address gameTokenAddress) {\n        _gameTokenAddress = gameTokenAddress;\n    }\n\n    function setMinBidIncrement(uint16 _newMinBidIncrement) public onlyOwner {\n        _minBidIncrement = _newMinBidIncrement;\n    }\n\n    function setMinAuctionTime(uint16 _newMinAuctionTime) public onlyOwner {\n        _minAuctionTime = _newMinAuctionTime;\n    }\n\n    function getAuction(uint256 _heroId)\n        external\n        view\n        returns (Auction memory)\n    {\n        return _sellingHeroesAuction[_heroId];\n    }\n\n    function getSelling(uint256 _heroId)\n        external\n        view\n        returns (SellItem memory)\n    {\n        return _sellingHeroes[_heroId];\n    }\n\n    function allowBuy(uint256 _heroId, uint256 _price) external {\n        require(msg.sender == IERC721(_gameTokenAddress).ownerOf(_heroId), \"Not owner\");\n        require(_price > 0, \"Price zero\");\n\n        require(\n            _sellingHeroesAuction[_heroId].endTime <= 0,\n            \"There is a active auction\"\n        );\n\n        IERC721(_gameTokenAddress).transferFrom(msg.sender, address(this), _heroId);\n\n        _sellingHeroes[_heroId] = SellItem(_price, msg.sender);\n    }\n\n    function disallowBuy(uint256 _heroId) external {\n        require(_sellingHeroes[_heroId].seller == msg.sender, \"Not owner\");\n\n        IERC721(_gameTokenAddress).transferFrom(address(this), msg.sender, _heroId);\n\n        delete _sellingHeroes[_heroId];\n    }\n\n    function buy(uint256 _heroId) external payable {\n        require(_sellingHeroes[_heroId].value > 0, \"Hero not for sale\");\n        require(_sellingHeroes[_heroId].value == msg.value, \"Incorrect value\");\n\n        payable(_sellingHeroes[_heroId].seller).transfer(msg.value);\n\n        IERC721(_gameTokenAddress).transferFrom(address(this), msg.sender, _heroId);\n\n        delete _sellingHeroes[_heroId];\n    }\n\n    function createAuction(\n        uint256 _heroId,\n        uint256 _endTime,\n        uint256 _minPrice\n    ) external {\n        require(msg.sender == IERC721(_gameTokenAddress).ownerOf(_heroId), \"Not owner\");\n        require(\n            _endTime >= (block.timestamp + _minAuctionTime) * 1_000,\n            \"Auction must have end time\"\n        );\n        require(_minPrice > 0, \"Minimum Price\");\n        require(\n            _sellingHeroesAuction[_heroId].endTime <= 0,\n            \"Auction already created\"\n        );\n        require(_sellingHeroes[_heroId].value <= 0, \"Hero is selling\");\n\n        IERC721(_gameTokenAddress).transferFrom(msg.sender, address(this), _heroId);\n\n        _sellingHeroesAuction[_heroId] = Auction(\n            _endTime,\n            _minPrice,\n            0,\n            msg.sender,\n            address(0)\n        );\n    }\n\n    function cancelAuction(uint256 _heroId) external {\n        require(\n            _sellingHeroesAuction[_heroId].seller == msg.sender,\n            \"Not owner\"\n        );\n\n        require(\n            _sellingHeroesAuction[_heroId].currValue <= 0,\n            \"Can't cancel this auction\"\n        );\n\n        IERC721(_gameTokenAddress).transferFrom(address(this), msg.sender, _heroId);\n\n        delete _sellingHeroesAuction[_heroId];\n    }\n\n    function bid(uint256 _heroId) external payable {\n        Auction storage auction = _sellingHeroesAuction[_heroId];\n        require(\n            _sellingHeroesAuction[_heroId].endTime > 0,\n            \"Auction not found\"\n        );\n        require(auction.endTime > block.timestamp * 1_000, \"Auction ended\");\n        require(\n            msg.value >= uint256((auction.currValue * _minBidIncrement) / 100),\n            \"Incorrect value\"\n        );\n\n        //payable(address(this)).transfer(msg.value);\n\n        if (auction.lastBidAddress != address(0)) {\n            payable(auction.lastBidAddress).transfer(auction.currValue);\n        }\n\n        auction.currValue = msg.value;\n        auction.lastBidAddress = msg.sender;\n    }\n\n    function finishAuction(uint256 _heroId) external {\n        require(\n            _sellingHeroesAuction[_heroId].endTime > 0,\n            \"Auction not found\"\n        );\n        require(\n            _sellingHeroesAuction[_heroId].endTime <= block.timestamp * 1_000,\n            \"Auction not ended\"\n        );\n\n        if (_sellingHeroesAuction[_heroId].currValue > 0) {\n            payable(_sellingHeroesAuction[_heroId].seller).transfer(\n                _sellingHeroesAuction[_heroId].currValue\n            );\n            IERC721(_gameTokenAddress).transferFrom(\n                address(this),\n                _sellingHeroesAuction[_heroId].lastBidAddress,\n                _heroId\n            );\n        }\n\n        delete _sellingHeroesAuction[_heroId];\n    }\n}\n",
  "sourcePath": "/home/rfaita/game/nft-game/contract/contracts/Market.sol",
  "compiler": {
    "name": "solc",
    "version": "0.8.9+commit.e5eed63a.Emscripten.clang"
  },
  "schemaVersion": "3.4.3",
  "updatedAt": "2021-11-12T19:34:16.903Z",
  "networkType": "ethereum",
  "devdoc": {
    "kind": "dev",
    "methods": {
      "owner()": {
        "details": "Returns the address of the current owner."
      },
      "renounceOwnership()": {
        "details": "Leaves the contract without owner. It will not be possible to call `onlyOwner` functions anymore. Can only be called by the current owner. NOTE: Renouncing ownership will leave the contract without an owner, thereby removing any functionality that is only available to the owner."
      },
      "transferOwnership(address)": {
        "details": "Transfers ownership of the contract to a new account (`newOwner`). Can only be called by the current owner."
      }
    },
    "version": 1
  },
  "userdoc": {
    "kind": "user",
    "methods": {},
    "version": 1
  }
}