{
  "contractName": "Market",
  "abi": [
    {
      "inputs": [
        {
          "internalType": "address",
          "name": "gameTokenAddress",
          "type": "address"
        }
      ],
      "stateMutability": "nonpayable",
      "type": "constructor"
    },
    {
      "anonymous": false,
      "inputs": [
        {
          "indexed": true,
          "internalType": "uint256",
          "name": "tokenId",
          "type": "uint256"
        },
        {
          "indexed": true,
          "internalType": "uint256",
          "name": "currValue",
          "type": "uint256"
        }
      ],
      "name": "AuctionEnded",
      "type": "event"
    },
    {
      "anonymous": false,
      "inputs": [
        {
          "indexed": true,
          "internalType": "uint256",
          "name": "tokenId",
          "type": "uint256"
        }
      ],
      "name": "CancelAuction",
      "type": "event"
    },
    {
      "anonymous": false,
      "inputs": [
        {
          "indexed": true,
          "internalType": "uint256",
          "name": "tokenId",
          "type": "uint256"
        }
      ],
      "name": "CancelSellingItem",
      "type": "event"
    },
    {
      "anonymous": false,
      "inputs": [
        {
          "indexed": true,
          "internalType": "uint256",
          "name": "tokenId",
          "type": "uint256"
        },
        {
          "indexed": true,
          "internalType": "uint256",
          "name": "value",
          "type": "uint256"
        }
      ],
      "name": "ItemBought",
      "type": "event"
    },
    {
      "anonymous": false,
      "inputs": [
        {
          "indexed": true,
          "internalType": "uint256",
          "name": "tokenId",
          "type": "uint256"
        },
        {
          "indexed": true,
          "internalType": "uint256",
          "name": "endTime",
          "type": "uint256"
        },
        {
          "indexed": true,
          "internalType": "uint256",
          "name": "minValue",
          "type": "uint256"
        }
      ],
      "name": "NewAuction",
      "type": "event"
    },
    {
      "anonymous": false,
      "inputs": [
        {
          "indexed": true,
          "internalType": "uint256",
          "name": "tokenId",
          "type": "uint256"
        },
        {
          "indexed": true,
          "internalType": "uint256",
          "name": "value",
          "type": "uint256"
        }
      ],
      "name": "NewBid",
      "type": "event"
    },
    {
      "anonymous": false,
      "inputs": [
        {
          "indexed": true,
          "internalType": "uint256",
          "name": "tokenId",
          "type": "uint256"
        },
        {
          "indexed": true,
          "internalType": "uint256",
          "name": "value",
          "type": "uint256"
        }
      ],
      "name": "NewSellingItem",
      "type": "event"
    },
    {
      "anonymous": false,
      "inputs": [
        {
          "indexed": true,
          "internalType": "address",
          "name": "previousOwner",
          "type": "address"
        },
        {
          "indexed": true,
          "internalType": "address",
          "name": "newOwner",
          "type": "address"
        }
      ],
      "name": "OwnershipTransferred",
      "type": "event"
    },
    {
      "inputs": [],
      "name": "owner",
      "outputs": [
        {
          "internalType": "address",
          "name": "",
          "type": "address"
        }
      ],
      "stateMutability": "view",
      "type": "function",
      "constant": true
    },
    {
      "inputs": [],
      "name": "renounceOwnership",
      "outputs": [],
      "stateMutability": "nonpayable",
      "type": "function"
    },
    {
      "inputs": [
        {
          "internalType": "address",
          "name": "newOwner",
          "type": "address"
        }
      ],
      "name": "transferOwnership",
      "outputs": [],
      "stateMutability": "nonpayable",
      "type": "function"
    },
    {
      "inputs": [
        {
          "internalType": "uint16",
          "name": "_newMinBidIncrement",
          "type": "uint16"
        }
      ],
      "name": "setMinBidIncrement",
      "outputs": [],
      "stateMutability": "nonpayable",
      "type": "function"
    },
    {
      "inputs": [
        {
          "internalType": "uint16",
          "name": "_newMinAuctionTime",
          "type": "uint16"
        }
      ],
      "name": "setMinAuctionTime",
      "outputs": [],
      "stateMutability": "nonpayable",
      "type": "function"
    },
    {
      "inputs": [],
      "name": "getSellingHeroesIds",
      "outputs": [
        {
          "internalType": "uint256[]",
          "name": "",
          "type": "uint256[]"
        }
      ],
      "stateMutability": "view",
      "type": "function",
      "constant": true
    },
    {
      "inputs": [
        {
          "internalType": "uint256",
          "name": "_heroId",
          "type": "uint256"
        }
      ],
      "name": "getAuction",
      "outputs": [
        {
          "components": [
            {
              "internalType": "uint256",
              "name": "endTime",
              "type": "uint256"
            },
            {
              "internalType": "uint256",
              "name": "minValue",
              "type": "uint256"
            },
            {
              "internalType": "uint256",
              "name": "currValue",
              "type": "uint256"
            },
            {
              "internalType": "address",
              "name": "seller",
              "type": "address"
            },
            {
              "internalType": "address",
              "name": "lastBidAddress",
              "type": "address"
            }
          ],
          "internalType": "struct Market.Auction",
          "name": "",
          "type": "tuple"
        }
      ],
      "stateMutability": "view",
      "type": "function",
      "constant": true
    },
    {
      "inputs": [
        {
          "internalType": "uint256",
          "name": "_heroId",
          "type": "uint256"
        }
      ],
      "name": "getSelling",
      "outputs": [
        {
          "components": [
            {
              "internalType": "uint256",
              "name": "value",
              "type": "uint256"
            },
            {
              "internalType": "address",
              "name": "seller",
              "type": "address"
            }
          ],
          "internalType": "struct Market.SellItem",
          "name": "",
          "type": "tuple"
        }
      ],
      "stateMutability": "view",
      "type": "function",
      "constant": true
    },
    {
      "inputs": [
        {
          "internalType": "uint256",
          "name": "_heroId",
          "type": "uint256"
        },
        {
          "internalType": "uint256",
          "name": "_price",
          "type": "uint256"
        }
      ],
      "name": "allowBuy",
      "outputs": [],
      "stateMutability": "nonpayable",
      "type": "function"
    },
    {
      "inputs": [
        {
          "internalType": "uint256",
          "name": "_heroId",
          "type": "uint256"
        }
      ],
      "name": "disallowBuy",
      "outputs": [],
      "stateMutability": "nonpayable",
      "type": "function"
    },
    {
      "inputs": [
        {
          "internalType": "uint256",
          "name": "_heroId",
          "type": "uint256"
        }
      ],
      "name": "buy",
      "outputs": [],
      "stateMutability": "payable",
      "type": "function",
      "payable": true
    },
    {
      "inputs": [
        {
          "internalType": "uint256",
          "name": "_heroId",
          "type": "uint256"
        },
        {
          "internalType": "uint256",
          "name": "_endTime",
          "type": "uint256"
        },
        {
          "internalType": "uint256",
          "name": "_minPrice",
          "type": "uint256"
        }
      ],
      "name": "createAuction",
      "outputs": [],
      "stateMutability": "nonpayable",
      "type": "function"
    },
    {
      "inputs": [
        {
          "internalType": "uint256",
          "name": "_heroId",
          "type": "uint256"
        }
      ],
      "name": "cancelAuction",
      "outputs": [],
      "stateMutability": "nonpayable",
      "type": "function"
    },
    {
      "inputs": [
        {
          "internalType": "uint256",
          "name": "_heroId",
          "type": "uint256"
        }
      ],
      "name": "bid",
      "outputs": [],
      "stateMutability": "payable",
      "type": "function",
      "payable": true
    },
    {
      "inputs": [
        {
          "internalType": "uint256",
          "name": "_heroId",
          "type": "uint256"
        }
      ],
      "name": "finishAuction",
      "outputs": [],
      "stateMutability": "nonpayable",
      "type": "function"
    },
    {
      "inputs": [],
      "name": "receiver",
      "outputs": [],
      "stateMutability": "payable",
      "type": "function",
      "payable": true
    }
  ],
  "bytecode": "0x6080604052606e600560006101000a81548161ffff021916908361ffff160217905550603c600560026101000a81548161ffff021916908361ffff1602179055503480156200004d57600080fd5b5060405162002d9038038062002d90833981810160405281019062000073919062000211565b6200009362000087620000db60201b60201c565b620000e360201b60201c565b80600160006101000a81548173ffffffffffffffffffffffffffffffffffffffff021916908373ffffffffffffffffffffffffffffffffffffffff1602179055505062000243565b600033905090565b60008060009054906101000a900473ffffffffffffffffffffffffffffffffffffffff169050816000806101000a81548173ffffffffffffffffffffffffffffffffffffffff021916908373ffffffffffffffffffffffffffffffffffffffff1602179055508173ffffffffffffffffffffffffffffffffffffffff168173ffffffffffffffffffffffffffffffffffffffff167f8be0079c531659141344cd1fd0a4f28419497f9722a3daafe3b4186f6b6457e060405160405180910390a35050565b600080fd5b600073ffffffffffffffffffffffffffffffffffffffff82169050919050565b6000620001d982620001ac565b9050919050565b620001eb81620001cc565b8114620001f757600080fd5b50565b6000815190506200020b81620001e0565b92915050565b6000602082840312156200022a5762000229620001a7565b5b60006200023a84828501620001fa565b91505092915050565b612b3d80620002536000396000f3fe6080604052600436106100f35760003560e01c8063b364acd61161008a578063d499131211610059578063d4991312146102f1578063d96a094a1461031a578063f2fde38b14610336578063f7260d3e1461035f576100f3565b8063b364acd614610239578063bbb5e8d314610276578063cda4beef1461029f578063cf266ed0146102c8576100f3565b8063715018a6116100c6578063715018a61461019157806378bd7935146101a85780638da5cb5b146101e557806396b5a75514610210576100f3565b806311518d40146100f8578063145c0cc21461012357806322f535a71461014c578063454a2ab314610175575b600080fd5b34801561010457600080fd5b5061010d610369565b60405161011a9190611eb4565b60405180910390f35b34801561012f57600080fd5b5061014a60048036038101906101459190611f15565b6103c1565b005b34801561015857600080fd5b50610173600480360381019061016e9190611f15565b61045d565b005b61018f600480360381019061018a9190611f6e565b6104f9565b005b34801561019d57600080fd5b506101a6610774565b005b3480156101b457600080fd5b506101cf60048036038101906101ca9190611f6e565b6107fc565b6040516101dc9190612044565b60405180910390f35b3480156101f157600080fd5b506101fa6108f3565b604051610207919061206e565b60405180910390f35b34801561021c57600080fd5b5061023760048036038101906102329190611f6e565b61091c565b005b34801561024557600080fd5b50610260600480360381019061025b9190611f6e565b610b60565b60405161026d91906120b8565b60405180910390f35b34801561028257600080fd5b5061029d600480360381019061029891906120d3565b610bed565b005b3480156102ab57600080fd5b506102c660048036038101906102c19190612113565b610f20565b005b3480156102d457600080fd5b506102ef60048036038101906102ea9190611f6e565b6113a3565b005b3480156102fd57600080fd5b5061031860048036038101906103139190611f6e565b6116a8565b005b610334600480360381019061032f9190611f6e565b61185b565b005b34801561034257600080fd5b5061035d60048036038101906103589190612192565b611a99565b005b610367611b91565b005b606060048054806020026020016040519081016040528092919081815260200182805480156103b757602002820191906000526020600020905b8154815260200190600101908083116103a3575b5050505050905090565b6103c9611b93565b73ffffffffffffffffffffffffffffffffffffffff166103e76108f3565b73ffffffffffffffffffffffffffffffffffffffff161461043d576040517f08c379a00000000000000000000000000000000000000000000000000000000081526004016104349061221c565b60405180910390fd5b80600560006101000a81548161ffff021916908361ffff16021790555050565b610465611b93565b73ffffffffffffffffffffffffffffffffffffffff166104836108f3565b73ffffffffffffffffffffffffffffffffffffffff16146104d9576040517f08c379a00000000000000000000000000000000000000000000000000000000081526004016104d09061221c565b60405180910390fd5b80600560026101000a81548161ffff021916908361ffff16021790555050565b60006003600083815260200190815260200160002090506000600360008481526020019081526020016000206000015411610569576040517f08c379a000000000000000000000000000000000000000000000000000000000815260040161056090612288565b60405180910390fd5b6103e84261057791906122d7565b8160000154116105bc576040517f08c379a00000000000000000000000000000000000000000000000000000000081526004016105b39061237d565b60405180910390fd5b6064600560009054906101000a900461ffff1661ffff1682600201546105e291906122d7565b6105ec91906123cc565b34101561062e576040517f08c379a000000000000000000000000000000000000000000000000000000000815260040161062590612449565b60405180910390fd5b600073ffffffffffffffffffffffffffffffffffffffff168160040160009054906101000a900473ffffffffffffffffffffffffffffffffffffffff1673ffffffffffffffffffffffffffffffffffffffff16146106f6578060040160009054906101000a900473ffffffffffffffffffffffffffffffffffffffff1673ffffffffffffffffffffffffffffffffffffffff166108fc82600201549081150290604051600060405180830381858888f193505050501580156106f4573d6000803e3d6000fd5b505b348160020181905550338160040160006101000a81548173ffffffffffffffffffffffffffffffffffffffff021916908373ffffffffffffffffffffffffffffffffffffffff16021790555034827f632f5622fa7b1e8ef1a95c87de56ccc3584d8bc0f17283a3ad0ff221aa4cc61260405160405180910390a35050565b61077c611b93565b73ffffffffffffffffffffffffffffffffffffffff1661079a6108f3565b73ffffffffffffffffffffffffffffffffffffffff16146107f0576040517f08c379a00000000000000000000000000000000000000000000000000000000081526004016107e79061221c565b60405180910390fd5b6107fa6000611b9b565b565b610804611d61565b600360008381526020019081526020016000206040518060a00160405290816000820154815260200160018201548152602001600282015481526020016003820160009054906101000a900473ffffffffffffffffffffffffffffffffffffffff1673ffffffffffffffffffffffffffffffffffffffff1673ffffffffffffffffffffffffffffffffffffffff1681526020016004820160009054906101000a900473ffffffffffffffffffffffffffffffffffffffff1673ffffffffffffffffffffffffffffffffffffffff1673ffffffffffffffffffffffffffffffffffffffff16815250509050919050565b60008060009054906101000a900473ffffffffffffffffffffffffffffffffffffffff16905090565b3373ffffffffffffffffffffffffffffffffffffffff166003600083815260200190815260200160002060030160009054906101000a900473ffffffffffffffffffffffffffffffffffffffff1673ffffffffffffffffffffffffffffffffffffffff16146109c0576040517f08c379a00000000000000000000000000000000000000000000000000000000081526004016109b7906124b5565b60405180910390fd5b600060036000838152602001908152602001600020600201541115610a1a576040517f08c379a0000000000000000000000000000000000000000000000000000000008152600401610a1190612521565b60405180910390fd5b600160009054906101000a900473ffffffffffffffffffffffffffffffffffffffff1673ffffffffffffffffffffffffffffffffffffffff166323b872dd3033846040518463ffffffff1660e01b8152600401610a7993929190612550565b600060405180830381600087803b158015610a9357600080fd5b505af1158015610aa7573d6000803e3d6000fd5b5050505060036000828152602001908152602001600020600080820160009055600182016000905560028201600090556003820160006101000a81549073ffffffffffffffffffffffffffffffffffffffff02191690556004820160006101000a81549073ffffffffffffffffffffffffffffffffffffffff02191690555050610b3081611c5f565b807fbea0e66c2d42b9131695ceea7d1aaa21b37e93070cde19c9b5fbd686a325929260405160405180910390a250565b610b68611dbc565b60026000838152602001908152602001600020604051806040016040529081600082015481526020016001820160009054906101000a900473ffffffffffffffffffffffffffffffffffffffff1673ffffffffffffffffffffffffffffffffffffffff1673ffffffffffffffffffffffffffffffffffffffff16815250509050919050565b600160009054906101000a900473ffffffffffffffffffffffffffffffffffffffff1673ffffffffffffffffffffffffffffffffffffffff16636352211e836040518263ffffffff1660e01b8152600401610c489190612587565b60206040518083038186803b158015610c6057600080fd5b505afa158015610c74573d6000803e3d6000fd5b505050506040513d601f19601f82011682018060405250810190610c9891906125b7565b73ffffffffffffffffffffffffffffffffffffffff163373ffffffffffffffffffffffffffffffffffffffff1614610d05576040517f08c379a0000000000000000000000000000000000000000000000000000000008152600401610cfc906124b5565b60405180910390fd5b60008111610d48576040517f08c379a0000000000000000000000000000000000000000000000000000000008152600401610d3f90612630565b60405180910390fd5b600060036000848152602001908152602001600020600001541115610da2576040517f08c379a0000000000000000000000000000000000000000000000000000000008152600401610d999061269c565b60405180910390fd5b600160009054906101000a900473ffffffffffffffffffffffffffffffffffffffff1673ffffffffffffffffffffffffffffffffffffffff166323b872dd3330856040518463ffffffff1660e01b8152600401610e0193929190612550565b600060405180830381600087803b158015610e1b57600080fd5b505af1158015610e2f573d6000803e3d6000fd5b5050505060405180604001604052808281526020013373ffffffffffffffffffffffffffffffffffffffff16815250600260008481526020019081526020016000206000820151816000015560208201518160010160006101000a81548173ffffffffffffffffffffffffffffffffffffffff021916908373ffffffffffffffffffffffffffffffffffffffff160217905550905050600482908060018154018082558091505060019003906000526020600020016000909190919091505580827f488b7a9271b350774f50741b22753664e5df7b2279599136d22a55021dd6b08860405160405180910390a35050565b600160009054906101000a900473ffffffffffffffffffffffffffffffffffffffff1673ffffffffffffffffffffffffffffffffffffffff16636352211e846040518263ffffffff1660e01b8152600401610f7b9190612587565b60206040518083038186803b158015610f9357600080fd5b505afa158015610fa7573d6000803e3d6000fd5b505050506040513d601f19601f82011682018060405250810190610fcb91906125b7565b73ffffffffffffffffffffffffffffffffffffffff163373ffffffffffffffffffffffffffffffffffffffff1614611038576040517f08c379a000000000000000000000000000000000000000000000000000000000815260040161102f906124b5565b60405180910390fd5b6103e8600560029054906101000a900461ffff1661ffff164261105b91906126bc565b61106591906122d7565b8210156110a7576040517f08c379a000000000000000000000000000000000000000000000000000000000815260040161109e9061275e565b60405180910390fd5b600081116110ea576040517f08c379a00000000000000000000000000000000000000000000000000000000081526004016110e1906127ca565b60405180910390fd5b600060036000858152602001908152602001600020600001541115611144576040517f08c379a000000000000000000000000000000000000000000000000000000000815260040161113b90612836565b60405180910390fd5b60006002600085815260200190815260200160002060000154111561119e576040517f08c379a0000000000000000000000000000000000000000000000000000000008152600401611195906128a2565b60405180910390fd5b600160009054906101000a900473ffffffffffffffffffffffffffffffffffffffff1673ffffffffffffffffffffffffffffffffffffffff166323b872dd3330866040518463ffffffff1660e01b81526004016111fd93929190612550565b600060405180830381600087803b15801561121757600080fd5b505af115801561122b573d6000803e3d6000fd5b505050506040518060a00160405280838152602001828152602001600081526020013373ffffffffffffffffffffffffffffffffffffffff168152602001600073ffffffffffffffffffffffffffffffffffffffff168152506003600085815260200190815260200160002060008201518160000155602082015181600101556040820151816002015560608201518160030160006101000a81548173ffffffffffffffffffffffffffffffffffffffff021916908373ffffffffffffffffffffffffffffffffffffffff16021790555060808201518160040160006101000a81548173ffffffffffffffffffffffffffffffffffffffff021916908373ffffffffffffffffffffffffffffffffffffffff16021790555090505060048390806001815401808255809150506001900390600052602060002001600090919091909150558082847f0114aab713235b737f82de882833e128d244e12c1b0967b9c49748c123a6f4b160405160405180910390a4505050565b60006003600083815260200190815260200160002060000154116113fc576040517f08c379a00000000000000000000000000000000000000000000000000000000081526004016113f390612288565b60405180910390fd5b6103e84261140a91906122d7565b60036000838152602001908152602001600020600001541115611462576040517f08c379a00000000000000000000000000000000000000000000000000000000081526004016114599061290e565b60405180910390fd5b6000600360008381526020019081526020016000206002015411156115dc576003600082815260200190815260200160002060030160009054906101000a900473ffffffffffffffffffffffffffffffffffffffff1673ffffffffffffffffffffffffffffffffffffffff166108fc60036000848152602001908152602001600020600201549081150290604051600060405180830381858888f19350505050158015611513573d6000803e3d6000fd5b50600160009054906101000a900473ffffffffffffffffffffffffffffffffffffffff1673ffffffffffffffffffffffffffffffffffffffff166323b872dd306003600085815260200190815260200160002060040160009054906101000a900473ffffffffffffffffffffffffffffffffffffffff16846040518463ffffffff1660e01b81526004016115a993929190612550565b600060405180830381600087803b1580156115c357600080fd5b505af11580156115d7573d6000803e3d6000fd5b505050505b60036000828152602001908152602001600020600080820160009055600182016000905560028201600090556003820160006101000a81549073ffffffffffffffffffffffffffffffffffffffff02191690556004820160006101000a81549073ffffffffffffffffffffffffffffffffffffffff0219169055505061166181611c5f565b6003600082815260200190815260200160002060020154817fe536ac546f86787f3ea4069f79235c6b5a681e87d051300a3ed19a6ebb0db71c60405160405180910390a350565b3373ffffffffffffffffffffffffffffffffffffffff166002600083815260200190815260200160002060010160009054906101000a900473ffffffffffffffffffffffffffffffffffffffff1673ffffffffffffffffffffffffffffffffffffffff161461174c576040517f08c379a0000000000000000000000000000000000000000000000000000000008152600401611743906124b5565b60405180910390fd5b600160009054906101000a900473ffffffffffffffffffffffffffffffffffffffff1673ffffffffffffffffffffffffffffffffffffffff166323b872dd3033846040518463ffffffff1660e01b81526004016117ab93929190612550565b600060405180830381600087803b1580156117c557600080fd5b505af11580156117d9573d6000803e3d6000fd5b50505050600260008281526020019081526020016000206000808201600090556001820160006101000a81549073ffffffffffffffffffffffffffffffffffffffff0219169055505061182b81611c5f565b807fe63f23b0335abb68fd5dc1458f74895721b44def603349328bf42b77e57c554660405160405180910390a250565b60006002600083815260200190815260200160002060000154116118b4576040517f08c379a00000000000000000000000000000000000000000000000000000000081526004016118ab9061297a565b60405180910390fd5b3460026000838152602001908152602001600020600001541461190c576040517f08c379a000000000000000000000000000000000000000000000000000000000815260040161190390612449565b60405180910390fd5b6002600082815260200190815260200160002060010160009054906101000a900473ffffffffffffffffffffffffffffffffffffffff1673ffffffffffffffffffffffffffffffffffffffff166108fc349081150290604051600060405180830381858888f19350505050158015611988573d6000803e3d6000fd5b50600160009054906101000a900473ffffffffffffffffffffffffffffffffffffffff1673ffffffffffffffffffffffffffffffffffffffff166323b872dd3033846040518463ffffffff1660e01b81526004016119e893929190612550565b600060405180830381600087803b158015611a0257600080fd5b505af1158015611a16573d6000803e3d6000fd5b50505050600260008281526020019081526020016000206000808201600090556001820160006101000a81549073ffffffffffffffffffffffffffffffffffffffff02191690555050611a6881611c5f565b34817f6b976c255adc246807437c13d292d99f451c487fa3030acdcd671e99a7caae7560405160405180910390a350565b611aa1611b93565b73ffffffffffffffffffffffffffffffffffffffff16611abf6108f3565b73ffffffffffffffffffffffffffffffffffffffff1614611b15576040517f08c379a0000000000000000000000000000000000000000000000000000000008152600401611b0c9061221c565b60405180910390fd5b600073ffffffffffffffffffffffffffffffffffffffff168173ffffffffffffffffffffffffffffffffffffffff161415611b85576040517f08c379a0000000000000000000000000000000000000000000000000000000008152600401611b7c90612a0c565b60405180910390fd5b611b8e81611b9b565b50565b565b600033905090565b60008060009054906101000a900473ffffffffffffffffffffffffffffffffffffffff169050816000806101000a81548173ffffffffffffffffffffffffffffffffffffffff021916908373ffffffffffffffffffffffffffffffffffffffff1602179055508173ffffffffffffffffffffffffffffffffffffffff168173ffffffffffffffffffffffffffffffffffffffff167f8be0079c531659141344cd1fd0a4f28419497f9722a3daafe3b4186f6b6457e060405160405180910390a35050565b6000611c6a82611cfb565b90506004805490508110611c7d57600080fd5b60046001600480549050611c919190612a2c565b81548110611ca257611ca1612a60565b5b906000526020600020015460048281548110611cc157611cc0612a60565b5b90600052602060002001819055506004805480611ce157611ce0612a8f565b5b600190038181906000526020600020016000905590555050565b600080600090505b600480549050811015611d525760048181548110611d2457611d23612a60565b5b9060005260206000200154831415611d3f5780915050611d5c565b8080611d4a90612abe565b915050611d03565b5060048054905090505b919050565b6040518060a00160405280600081526020016000815260200160008152602001600073ffffffffffffffffffffffffffffffffffffffff168152602001600073ffffffffffffffffffffffffffffffffffffffff1681525090565b604051806040016040528060008152602001600073ffffffffffffffffffffffffffffffffffffffff1681525090565b600081519050919050565b600082825260208201905092915050565b6000819050602082019050919050565b6000819050919050565b611e2b81611e18565b82525050565b6000611e3d8383611e22565b60208301905092915050565b6000602082019050919050565b6000611e6182611dec565b611e6b8185611df7565b9350611e7683611e08565b8060005b83811015611ea7578151611e8e8882611e31565b9750611e9983611e49565b925050600181019050611e7a565b5085935050505092915050565b60006020820190508181036000830152611ece8184611e56565b905092915050565b600080fd5b600061ffff82169050919050565b611ef281611edb565b8114611efd57600080fd5b50565b600081359050611f0f81611ee9565b92915050565b600060208284031215611f2b57611f2a611ed6565b5b6000611f3984828501611f00565b91505092915050565b611f4b81611e18565b8114611f5657600080fd5b50565b600081359050611f6881611f42565b92915050565b600060208284031215611f8457611f83611ed6565b5b6000611f9284828501611f59565b91505092915050565b600073ffffffffffffffffffffffffffffffffffffffff82169050919050565b6000611fc682611f9b565b9050919050565b611fd681611fbb565b82525050565b60a082016000820151611ff26000850182611e22565b5060208201516120056020850182611e22565b5060408201516120186040850182611e22565b50606082015161202b6060850182611fcd565b50608082015161203e6080850182611fcd565b50505050565b600060a0820190506120596000830184611fdc565b92915050565b61206881611fbb565b82525050565b6000602082019050612083600083018461205f565b92915050565b60408201600082015161209f6000850182611e22565b5060208201516120b26020850182611fcd565b50505050565b60006040820190506120cd6000830184612089565b92915050565b600080604083850312156120ea576120e9611ed6565b5b60006120f885828601611f59565b925050602061210985828601611f59565b9150509250929050565b60008060006060848603121561212c5761212b611ed6565b5b600061213a86828701611f59565b935050602061214b86828701611f59565b925050604061215c86828701611f59565b9150509250925092565b61216f81611fbb565b811461217a57600080fd5b50565b60008135905061218c81612166565b92915050565b6000602082840312156121a8576121a7611ed6565b5b60006121b68482850161217d565b91505092915050565b600082825260208201905092915050565b7f4f776e61626c653a2063616c6c6572206973206e6f7420746865206f776e6572600082015250565b60006122066020836121bf565b9150612211826121d0565b602082019050919050565b60006020820190508181036000830152612235816121f9565b9050919050565b7f41756374696f6e206e6f7420666f756e64000000000000000000000000000000600082015250565b60006122726011836121bf565b915061227d8261223c565b602082019050919050565b600060208201905081810360008301526122a181612265565b9050919050565b7f4e487b7100000000000000000000000000000000000000000000000000000000600052601160045260246000fd5b60006122e282611e18565b91506122ed83611e18565b9250817fffffffffffffffffffffffffffffffffffffffffffffffffffffffffffffffff0483118215151615612326576123256122a8565b5b828202905092915050565b7f41756374696f6e20656e64656400000000000000000000000000000000000000600082015250565b6000612367600d836121bf565b915061237282612331565b602082019050919050565b600060208201905081810360008301526123968161235a565b9050919050565b7f4e487b7100000000000000000000000000000000000000000000000000000000600052601260045260246000fd5b60006123d782611e18565b91506123e283611e18565b9250826123f2576123f161239d565b5b828204905092915050565b7f496e636f72726563742076616c75650000000000000000000000000000000000600082015250565b6000612433600f836121bf565b915061243e826123fd565b602082019050919050565b6000602082019050818103600083015261246281612426565b9050919050565b7f4e6f74206f776e65720000000000000000000000000000000000000000000000600082015250565b600061249f6009836121bf565b91506124aa82612469565b602082019050919050565b600060208201905081810360008301526124ce81612492565b9050919050565b7f43616e27742063616e63656c20746869732061756374696f6e00000000000000600082015250565b600061250b6019836121bf565b9150612516826124d5565b602082019050919050565b6000602082019050818103600083015261253a816124fe565b9050919050565b61254a81611e18565b82525050565b6000606082019050612565600083018661205f565b612572602083018561205f565b61257f6040830184612541565b949350505050565b600060208201905061259c6000830184612541565b92915050565b6000815190506125b181612166565b92915050565b6000602082840312156125cd576125cc611ed6565b5b60006125db848285016125a2565b91505092915050565b7f5072696365207a65726f00000000000000000000000000000000000000000000600082015250565b600061261a600a836121bf565b9150612625826125e4565b602082019050919050565b600060208201905081810360008301526126498161260d565b9050919050565b7f54686572652069732061206163746976652061756374696f6e00000000000000600082015250565b60006126866019836121bf565b915061269182612650565b602082019050919050565b600060208201905081810360008301526126b581612679565b9050919050565b60006126c782611e18565b91506126d283611e18565b9250827fffffffffffffffffffffffffffffffffffffffffffffffffffffffffffffffff03821115612707576127066122a8565b5b828201905092915050565b7f41756374696f6e206d757374206861766520656e642074696d65000000000000600082015250565b6000612748601a836121bf565b915061275382612712565b602082019050919050565b600060208201905081810360008301526127778161273b565b9050919050565b7f4d696e696d756d20507269636500000000000000000000000000000000000000600082015250565b60006127b4600d836121bf565b91506127bf8261277e565b602082019050919050565b600060208201905081810360008301526127e3816127a7565b9050919050565b7f41756374696f6e20616c72656164792063726561746564000000000000000000600082015250565b60006128206017836121bf565b915061282b826127ea565b602082019050919050565b6000602082019050818103600083015261284f81612813565b9050919050565b7f4865726f2069732073656c6c696e670000000000000000000000000000000000600082015250565b600061288c600f836121bf565b915061289782612856565b602082019050919050565b600060208201905081810360008301526128bb8161287f565b9050919050565b7f41756374696f6e206e6f7420656e646564000000000000000000000000000000600082015250565b60006128f86011836121bf565b9150612903826128c2565b602082019050919050565b60006020820190508181036000830152612927816128eb565b9050919050565b7f4865726f206e6f7420666f722073616c65000000000000000000000000000000600082015250565b60006129646011836121bf565b915061296f8261292e565b602082019050919050565b6000602082019050818103600083015261299381612957565b9050919050565b7f4f776e61626c653a206e6577206f776e657220697320746865207a65726f206160008201527f6464726573730000000000000000000000000000000000000000000000000000602082015250565b60006129f66026836121bf565b9150612a018261299a565b604082019050919050565b60006020820190508181036000830152612a25816129e9565b9050919050565b6000612a3782611e18565b9150612a4283611e18565b925082821015612a5557612a546122a8565b5b828203905092915050565b7f4e487b7100000000000000000000000000000000000000000000000000000000600052603260045260246000fd5b7f4e487b7100000000000000000000000000000000000000000000000000000000600052603160045260246000fd5b6000612ac982611e18565b91507fffffffffffffffffffffffffffffffffffffffffffffffffffffffffffffffff821415612afc57612afb6122a8565b5b60018201905091905056fea26469706673582212200d7ecec7cbd5a4f64b2c7593289000246ee8857168071d1f894d6ae1c2693a9064736f6c63430008090033",
  "immutableReferences": {},
  "source": "// SPDX-License-Identifier: MIT\npragma solidity 0.8.9;\n\nimport \"../node_modules/@openzeppelin/contracts/access/Ownable.sol\";\nimport \"../node_modules/@openzeppelin/contracts/token/ERC721/IERC721.sol\";\n\ncontract Market is Ownable {\n    event NewAuction(\n        uint256 indexed tokenId,\n        uint256 indexed endTime,\n        uint256 indexed minValue\n    );\n    event NewBid(uint256 indexed tokenId, uint256 indexed value);\n    event CancelAuction(uint256 indexed tokenId);\n    event AuctionEnded(uint256 indexed tokenId, uint256 indexed currValue);\n\n    event NewSellingItem(uint256 indexed tokenId, uint256 indexed value);\n    event CancelSellingItem(uint256 indexed tokenId);\n    event ItemBought(uint256 indexed tokenId, uint256 indexed value);\n\n    address private _gameTokenAddress;\n\n    struct Auction {\n        uint256 endTime;\n        uint256 minValue;\n        uint256 currValue;\n        address seller;\n        address lastBidAddress;\n    }\n\n    struct SellItem {\n        uint256 value;\n        address seller;\n    }\n\n    mapping(uint256 => SellItem) private _sellingHeroes;\n    mapping(uint256 => Auction) private _sellingHeroesAuction;\n\n    uint256[] private _sellingHeroesIds;\n\n    uint16 private _minBidIncrement = 110;\n    uint16 private _minAuctionTime = 60;\n\n    constructor(address gameTokenAddress) {\n        _gameTokenAddress = gameTokenAddress;\n    }\n\n    function setMinBidIncrement(uint16 _newMinBidIncrement) public onlyOwner {\n        _minBidIncrement = _newMinBidIncrement;\n    }\n\n    function setMinAuctionTime(uint16 _newMinAuctionTime) public onlyOwner {\n        _minAuctionTime = _newMinAuctionTime;\n    }\n\n    function getSellingHeroesIds() public view returns (uint256[] memory) {\n        return _sellingHeroesIds;\n    }\n\n    function getAuction(uint256 _heroId)\n        external\n        view\n        returns (Auction memory)\n    {\n        return _sellingHeroesAuction[_heroId];\n    }\n\n    function getSelling(uint256 _heroId)\n        external\n        view\n        returns (SellItem memory)\n    {\n        return _sellingHeroes[_heroId];\n    }\n\n    function allowBuy(uint256 _heroId, uint256 _price) external {\n        require(\n            msg.sender == IERC721(_gameTokenAddress).ownerOf(_heroId),\n            \"Not owner\"\n        );\n        require(_price > 0, \"Price zero\");\n\n        require(\n            _sellingHeroesAuction[_heroId].endTime <= 0,\n            \"There is a active auction\"\n        );\n\n        IERC721(_gameTokenAddress).transferFrom(\n            msg.sender,\n            address(this),\n            _heroId\n        );\n\n        _sellingHeroes[_heroId] = SellItem(_price, msg.sender);\n        _sellingHeroesIds.push(_heroId);\n\n        emit NewSellingItem(_heroId, _price);\n    }\n\n    function disallowBuy(uint256 _heroId) external {\n        require(_sellingHeroes[_heroId].seller == msg.sender, \"Not owner\");\n\n        IERC721(_gameTokenAddress).transferFrom(\n            address(this),\n            msg.sender,\n            _heroId\n        );\n\n        delete _sellingHeroes[_heroId];\n        _removeSellingHeroesIds(_heroId);\n\n        emit CancelSellingItem(_heroId);\n    }\n\n    function buy(uint256 _heroId) external payable {\n        require(_sellingHeroes[_heroId].value > 0, \"Hero not for sale\");\n        require(_sellingHeroes[_heroId].value == msg.value, \"Incorrect value\");\n\n        payable(_sellingHeroes[_heroId].seller).transfer(msg.value);\n\n        IERC721(_gameTokenAddress).transferFrom(\n            address(this),\n            msg.sender,\n            _heroId\n        );\n\n        delete _sellingHeroes[_heroId];\n        _removeSellingHeroesIds(_heroId);\n\n        emit ItemBought(_heroId, msg.value);\n    }\n\n    function createAuction(\n        uint256 _heroId,\n        uint256 _endTime,\n        uint256 _minPrice\n    ) external {\n        require(\n            msg.sender == IERC721(_gameTokenAddress).ownerOf(_heroId),\n            \"Not owner\"\n        );\n        require(\n            _endTime >= (block.timestamp + _minAuctionTime) * 1_000,\n            \"Auction must have end time\"\n        );\n        require(_minPrice > 0, \"Minimum Price\");\n        require(\n            _sellingHeroesAuction[_heroId].endTime <= 0,\n            \"Auction already created\"\n        );\n        require(_sellingHeroes[_heroId].value <= 0, \"Hero is selling\");\n\n        IERC721(_gameTokenAddress).transferFrom(\n            msg.sender,\n            address(this),\n            _heroId\n        );\n\n        _sellingHeroesAuction[_heroId] = Auction(\n            _endTime,\n            _minPrice,\n            0,\n            msg.sender,\n            address(0)\n        );\n        _sellingHeroesIds.push(_heroId);\n\n        emit NewAuction(_heroId, _endTime, _minPrice);\n    }\n\n    function cancelAuction(uint256 _heroId) external {\n        require(\n            _sellingHeroesAuction[_heroId].seller == msg.sender,\n            \"Not owner\"\n        );\n\n        require(\n            _sellingHeroesAuction[_heroId].currValue <= 0,\n            \"Can't cancel this auction\"\n        );\n\n        IERC721(_gameTokenAddress).transferFrom(\n            address(this),\n            msg.sender,\n            _heroId\n        );\n\n        delete _sellingHeroesAuction[_heroId];\n        _removeSellingHeroesIds(_heroId);\n\n        emit CancelAuction(_heroId);\n    }\n\n    function bid(uint256 _heroId) external payable {\n        Auction storage auction = _sellingHeroesAuction[_heroId];\n        require(\n            _sellingHeroesAuction[_heroId].endTime > 0,\n            \"Auction not found\"\n        );\n        require(auction.endTime > block.timestamp * 1_000, \"Auction ended\");\n        require(\n            msg.value >= uint256((auction.currValue * _minBidIncrement) / 100),\n            \"Incorrect value\"\n        );\n\n        //payable(address(this)).transfer(msg.value);\n\n        if (auction.lastBidAddress != address(0)) {\n            payable(auction.lastBidAddress).transfer(auction.currValue);\n        }\n\n        auction.currValue = msg.value;\n        auction.lastBidAddress = msg.sender;\n\n        emit NewBid(_heroId, msg.value);\n    }\n\n    function finishAuction(uint256 _heroId) external {\n        require(\n            _sellingHeroesAuction[_heroId].endTime > 0,\n            \"Auction not found\"\n        );\n        require(\n            _sellingHeroesAuction[_heroId].endTime <= block.timestamp * 1_000,\n            \"Auction not ended\"\n        );\n\n        if (_sellingHeroesAuction[_heroId].currValue > 0) {\n            payable(_sellingHeroesAuction[_heroId].seller).transfer(\n                _sellingHeroesAuction[_heroId].currValue\n            );\n            IERC721(_gameTokenAddress).transferFrom(\n                address(this),\n                _sellingHeroesAuction[_heroId].lastBidAddress,\n                _heroId\n            );\n        }\n\n        delete _sellingHeroesAuction[_heroId];\n        _removeSellingHeroesIds(_heroId);\n\n        emit AuctionEnded(_heroId, _sellingHeroesAuction[_heroId].currValue);\n    }\n\n    function _removeSellingHeroesIds(uint256 _heroId) internal {\n        uint256 index = _getIndexSellingHeroesIds(_heroId);\n\n        require(index < _sellingHeroesIds.length);\n        _sellingHeroesIds[index] = _sellingHeroesIds[\n            _sellingHeroesIds.length - 1\n        ];\n        _sellingHeroesIds.pop();\n    }\n\n    function _getIndexSellingHeroesIds(uint256 _heroId)\n        internal view\n        returns (uint256)\n    {\n        for (uint256 i = 0; i < _sellingHeroesIds.length; i++) {\n            if (_heroId == _sellingHeroesIds[i]) {\n                return i;\n            }\n        }\n        return _sellingHeroesIds.length;\n    }\n\n    function receiver() external payable {}\n}\n",
  "sourcePath": "/home/rfaita/game/nft-game/contract/contracts/Market.sol",
  "compiler": {
    "name": "solc",
    "version": "0.8.9+commit.e5eed63a.Emscripten.clang"
  },
  "schemaVersion": "3.4.3",
  "updatedAt": "2021-11-29T17:29:03.091Z",
  "networkType": "ethereum",
  "devdoc": {
    "kind": "dev",
    "methods": {
      "owner()": {
        "details": "Returns the address of the current owner."
      },
      "renounceOwnership()": {
        "details": "Leaves the contract without owner. It will not be possible to call `onlyOwner` functions anymore. Can only be called by the current owner. NOTE: Renouncing ownership will leave the contract without an owner, thereby removing any functionality that is only available to the owner."
      },
      "transferOwnership(address)": {
        "details": "Transfers ownership of the contract to a new account (`newOwner`). Can only be called by the current owner."
      }
    },
    "version": 1
  },
  "userdoc": {
    "kind": "user",
    "methods": {},
    "version": 1
  }
}