{
  "contractName": "Market",
  "abi": [
    {
      "inputs": [
        {
          "internalType": "address",
          "name": "gameTokenAddress",
          "type": "address"
        }
      ],
      "stateMutability": "nonpayable",
      "type": "constructor"
    },
    {
      "anonymous": false,
      "inputs": [
        {
          "indexed": true,
          "internalType": "uint256",
          "name": "tokenId",
          "type": "uint256"
        },
        {
          "indexed": false,
          "internalType": "uint256",
          "name": "currValue",
          "type": "uint256"
        },
        {
          "indexed": false,
          "internalType": "address",
          "name": "newOwner",
          "type": "address"
        }
      ],
      "name": "AuctionEnded",
      "type": "event"
    },
    {
      "anonymous": false,
      "inputs": [
        {
          "indexed": true,
          "internalType": "uint256",
          "name": "tokenId",
          "type": "uint256"
        },
        {
          "indexed": false,
          "internalType": "address",
          "name": "newOwner",
          "type": "address"
        }
      ],
      "name": "CancelAuction",
      "type": "event"
    },
    {
      "anonymous": false,
      "inputs": [
        {
          "indexed": true,
          "internalType": "uint256",
          "name": "tokenId",
          "type": "uint256"
        },
        {
          "indexed": false,
          "internalType": "address",
          "name": "newOwner",
          "type": "address"
        }
      ],
      "name": "CancelSellingItem",
      "type": "event"
    },
    {
      "anonymous": false,
      "inputs": [
        {
          "indexed": true,
          "internalType": "uint256",
          "name": "tokenId",
          "type": "uint256"
        },
        {
          "indexed": false,
          "internalType": "uint256",
          "name": "value",
          "type": "uint256"
        },
        {
          "indexed": false,
          "internalType": "address",
          "name": "newOwner",
          "type": "address"
        }
      ],
      "name": "ItemBought",
      "type": "event"
    },
    {
      "anonymous": false,
      "inputs": [
        {
          "indexed": true,
          "internalType": "uint256",
          "name": "tokenId",
          "type": "uint256"
        },
        {
          "indexed": false,
          "internalType": "uint256",
          "name": "endTime",
          "type": "uint256"
        },
        {
          "indexed": false,
          "internalType": "uint256",
          "name": "minValue",
          "type": "uint256"
        },
        {
          "indexed": false,
          "internalType": "address",
          "name": "seller",
          "type": "address"
        },
        {
          "indexed": false,
          "internalType": "address",
          "name": "newOwner",
          "type": "address"
        }
      ],
      "name": "NewAuction",
      "type": "event"
    },
    {
      "anonymous": false,
      "inputs": [
        {
          "indexed": true,
          "internalType": "uint256",
          "name": "tokenId",
          "type": "uint256"
        },
        {
          "indexed": false,
          "internalType": "uint256",
          "name": "value",
          "type": "uint256"
        },
        {
          "indexed": false,
          "internalType": "address",
          "name": "bidder",
          "type": "address"
        }
      ],
      "name": "NewBid",
      "type": "event"
    },
    {
      "anonymous": false,
      "inputs": [
        {
          "indexed": true,
          "internalType": "uint256",
          "name": "tokenId",
          "type": "uint256"
        },
        {
          "indexed": false,
          "internalType": "uint256",
          "name": "value",
          "type": "uint256"
        },
        {
          "indexed": false,
          "internalType": "address",
          "name": "seller",
          "type": "address"
        },
        {
          "indexed": false,
          "internalType": "address",
          "name": "newOwner",
          "type": "address"
        }
      ],
      "name": "NewSellingItem",
      "type": "event"
    },
    {
      "anonymous": false,
      "inputs": [
        {
          "indexed": true,
          "internalType": "address",
          "name": "previousOwner",
          "type": "address"
        },
        {
          "indexed": true,
          "internalType": "address",
          "name": "newOwner",
          "type": "address"
        }
      ],
      "name": "OwnershipTransferred",
      "type": "event"
    },
    {
      "inputs": [],
      "name": "owner",
      "outputs": [
        {
          "internalType": "address",
          "name": "",
          "type": "address"
        }
      ],
      "stateMutability": "view",
      "type": "function",
      "constant": true
    },
    {
      "inputs": [],
      "name": "renounceOwnership",
      "outputs": [],
      "stateMutability": "nonpayable",
      "type": "function"
    },
    {
      "inputs": [
        {
          "internalType": "address",
          "name": "newOwner",
          "type": "address"
        }
      ],
      "name": "transferOwnership",
      "outputs": [],
      "stateMutability": "nonpayable",
      "type": "function"
    },
    {
      "inputs": [
        {
          "internalType": "uint16",
          "name": "_newMinBidIncrement",
          "type": "uint16"
        }
      ],
      "name": "setMinBidIncrement",
      "outputs": [],
      "stateMutability": "nonpayable",
      "type": "function"
    },
    {
      "inputs": [
        {
          "internalType": "uint16",
          "name": "_newMinAuctionTime",
          "type": "uint16"
        }
      ],
      "name": "setMinAuctionTime",
      "outputs": [],
      "stateMutability": "nonpayable",
      "type": "function"
    },
    {
      "inputs": [],
      "name": "getSellingHeroesIds",
      "outputs": [
        {
          "internalType": "uint256[]",
          "name": "",
          "type": "uint256[]"
        }
      ],
      "stateMutability": "view",
      "type": "function",
      "constant": true
    },
    {
      "inputs": [
        {
          "internalType": "uint256",
          "name": "_heroId",
          "type": "uint256"
        }
      ],
      "name": "getAuction",
      "outputs": [
        {
          "components": [
            {
              "internalType": "uint256",
              "name": "endTime",
              "type": "uint256"
            },
            {
              "internalType": "uint256",
              "name": "minValue",
              "type": "uint256"
            },
            {
              "internalType": "uint256",
              "name": "currValue",
              "type": "uint256"
            },
            {
              "internalType": "address",
              "name": "seller",
              "type": "address"
            },
            {
              "internalType": "address",
              "name": "lastBidAddress",
              "type": "address"
            }
          ],
          "internalType": "struct Market.Auction",
          "name": "",
          "type": "tuple"
        }
      ],
      "stateMutability": "view",
      "type": "function",
      "constant": true
    },
    {
      "inputs": [
        {
          "internalType": "uint256",
          "name": "_heroId",
          "type": "uint256"
        }
      ],
      "name": "getSelling",
      "outputs": [
        {
          "components": [
            {
              "internalType": "uint256",
              "name": "value",
              "type": "uint256"
            },
            {
              "internalType": "address",
              "name": "seller",
              "type": "address"
            }
          ],
          "internalType": "struct Market.SellItem",
          "name": "",
          "type": "tuple"
        }
      ],
      "stateMutability": "view",
      "type": "function",
      "constant": true
    },
    {
      "inputs": [
        {
          "internalType": "uint256",
          "name": "seed",
          "type": "uint256"
        }
      ],
      "name": "getRandomSelling",
      "outputs": [
        {
          "internalType": "uint256",
          "name": "",
          "type": "uint256"
        }
      ],
      "stateMutability": "view",
      "type": "function",
      "constant": true
    },
    {
      "inputs": [],
      "name": "getLowestSelling",
      "outputs": [
        {
          "internalType": "uint256",
          "name": "",
          "type": "uint256"
        }
      ],
      "stateMutability": "view",
      "type": "function",
      "constant": true
    },
    {
      "inputs": [
        {
          "internalType": "uint256",
          "name": "_heroId",
          "type": "uint256"
        },
        {
          "internalType": "uint256",
          "name": "_price",
          "type": "uint256"
        }
      ],
      "name": "allowBuy",
      "outputs": [],
      "stateMutability": "nonpayable",
      "type": "function"
    },
    {
      "inputs": [
        {
          "internalType": "uint256",
          "name": "_heroId",
          "type": "uint256"
        }
      ],
      "name": "disallowBuy",
      "outputs": [],
      "stateMutability": "nonpayable",
      "type": "function"
    },
    {
      "inputs": [
        {
          "internalType": "uint256",
          "name": "_heroId",
          "type": "uint256"
        }
      ],
      "name": "buy",
      "outputs": [],
      "stateMutability": "payable",
      "type": "function",
      "payable": true
    },
    {
      "inputs": [
        {
          "internalType": "uint256",
          "name": "_heroId",
          "type": "uint256"
        },
        {
          "internalType": "uint256",
          "name": "_endTime",
          "type": "uint256"
        },
        {
          "internalType": "uint256",
          "name": "_minPrice",
          "type": "uint256"
        }
      ],
      "name": "createAuction",
      "outputs": [],
      "stateMutability": "nonpayable",
      "type": "function"
    },
    {
      "inputs": [
        {
          "internalType": "uint256",
          "name": "_heroId",
          "type": "uint256"
        }
      ],
      "name": "cancelAuction",
      "outputs": [],
      "stateMutability": "nonpayable",
      "type": "function"
    },
    {
      "inputs": [
        {
          "internalType": "uint256",
          "name": "_heroId",
          "type": "uint256"
        }
      ],
      "name": "bid",
      "outputs": [],
      "stateMutability": "payable",
      "type": "function",
      "payable": true
    },
    {
      "inputs": [
        {
          "internalType": "uint256",
          "name": "_heroId",
          "type": "uint256"
        }
      ],
      "name": "finishAuction",
      "outputs": [],
      "stateMutability": "nonpayable",
      "type": "function"
    },
    {
      "inputs": [],
      "name": "receiver",
      "outputs": [],
      "stateMutability": "payable",
      "type": "function",
      "payable": true
    }
  ],
  "bytecode": "0x6080604052606e600560006101000a81548161ffff021916908361ffff160217905550603c600560026101000a81548161ffff021916908361ffff1602179055503480156200004d57600080fd5b50604051620034bf380380620034bf833981810160405281019062000073919062000211565b6200009362000087620000db60201b60201c565b620000e360201b60201c565b80600160006101000a81548173ffffffffffffffffffffffffffffffffffffffff021916908373ffffffffffffffffffffffffffffffffffffffff1602179055505062000243565b600033905090565b60008060009054906101000a900473ffffffffffffffffffffffffffffffffffffffff169050816000806101000a81548173ffffffffffffffffffffffffffffffffffffffff021916908373ffffffffffffffffffffffffffffffffffffffff1602179055508173ffffffffffffffffffffffffffffffffffffffff168173ffffffffffffffffffffffffffffffffffffffff167f8be0079c531659141344cd1fd0a4f28419497f9722a3daafe3b4186f6b6457e060405160405180910390a35050565b600080fd5b600073ffffffffffffffffffffffffffffffffffffffff82169050919050565b6000620001d982620001ac565b9050919050565b620001eb81620001cc565b8114620001f757600080fd5b50565b6000815190506200020b81620001e0565b92915050565b6000602082840312156200022a5762000229620001a7565b5b60006200023a84828501620001fa565b91505092915050565b61326c80620002536000396000f3fe6080604052600436106101095760003560e01c806396b5a75511610095578063cf266ed011610064578063cf266ed014610346578063d49913121461036f578063d96a094a14610398578063f2fde38b146103b4578063f7260d3e146103dd57610109565b806396b5a7551461028e578063b364acd6146102b7578063bbb5e8d3146102f4578063cda4beef1461031d57610109565b8063587d8f1d116100dc578063587d8f1d146101a7578063715018a6146101d257806378bd7935146101e957806386046c38146102265780638da5cb5b1461026357610109565b806311518d401461010e578063145c0cc21461013957806322f535a714610162578063454a2ab31461018b575b600080fd5b34801561011a57600080fd5b506101236103e7565b60405161013091906123db565b60405180910390f35b34801561014557600080fd5b50610160600480360381019061015b919061243c565b61043f565b005b34801561016e57600080fd5b506101896004803603810190610184919061243c565b6104db565b005b6101a560048036038101906101a09190612495565b610577565b005b3480156101b357600080fd5b506101bc6107fe565b6040516101c991906124d1565b60405180910390f35b3480156101de57600080fd5b506101e761094d565b005b3480156101f557600080fd5b50610210600480360381019061020b9190612495565b6109d5565b60405161021d9190612595565b60405180910390f35b34801561023257600080fd5b5061024d60048036038101906102489190612495565b610acc565b60405161025a91906124d1565b60405180910390f35b34801561026f57600080fd5b50610278610b0f565b60405161028591906125bf565b60405180910390f35b34801561029a57600080fd5b506102b560048036038101906102b09190612495565b610b38565b005b3480156102c357600080fd5b506102de60048036038101906102d99190612495565b610d87565b6040516102eb9190612609565b60405180910390f35b34801561030057600080fd5b5061031b60048036038101906103169190612624565b610e14565b005b34801561032957600080fd5b50610344600480360381019061033f9190612664565b611155565b005b34801561035257600080fd5b5061036d60048036038101906103689190612495565b6115e7565b005b34801561037b57600080fd5b5061039660048036038101906103919190612495565b611a90565b005b6103b260048036038101906103ad9190612495565b611c4e565b005b3480156103c057600080fd5b506103db60048036038101906103d691906126e3565b611e98565b005b6103e5611f90565b005b6060600480548060200260200160405190810160405280929190818152602001828054801561043557602002820191906000526020600020905b815481526020019060010190808311610421575b5050505050905090565b610447611f92565b73ffffffffffffffffffffffffffffffffffffffff16610465610b0f565b73ffffffffffffffffffffffffffffffffffffffff16146104bb576040517f08c379a00000000000000000000000000000000000000000000000000000000081526004016104b29061276d565b60405180910390fd5b80600560006101000a81548161ffff021916908361ffff16021790555050565b6104e3611f92565b73ffffffffffffffffffffffffffffffffffffffff16610501610b0f565b73ffffffffffffffffffffffffffffffffffffffff1614610557576040517f08c379a000000000000000000000000000000000000000000000000000000000815260040161054e9061276d565b60405180910390fd5b80600560026101000a81548161ffff021916908361ffff16021790555050565b600060036000838152602001908152602001600020905060006003600084815260200190815260200160002060000154116105e7576040517f08c379a00000000000000000000000000000000000000000000000000000000081526004016105de906127d9565b60405180910390fd5b6103e8426105f59190612828565b81600001541161063a576040517f08c379a0000000000000000000000000000000000000000000000000000000008152600401610631906128ce565b60405180910390fd5b6064600560009054906101000a900461ffff1661ffff1682600201546106609190612828565b61066a919061291d565b3410156106ac576040517f08c379a00000000000000000000000000000000000000000000000000000000081526004016106a39061299a565b60405180910390fd5b600073ffffffffffffffffffffffffffffffffffffffff168160040160009054906101000a900473ffffffffffffffffffffffffffffffffffffffff1673ffffffffffffffffffffffffffffffffffffffff1614610774578060040160009054906101000a900473ffffffffffffffffffffffffffffffffffffffff1673ffffffffffffffffffffffffffffffffffffffff166108fc82600201549081150290604051600060405180830381858888f19350505050158015610772573d6000803e3d6000fd5b505b348160020181905550338160040160006101000a81548173ffffffffffffffffffffffffffffffffffffffff021916908373ffffffffffffffffffffffffffffffffffffffff160217905550817f0b946a7d9cbd47da0dd592970ef1259349c40f44b231f11da4babeb56c07dd2d34336040516107f29291906129ba565b60405180910390a25050565b6000806000805b600480549050811015610944576000600260006004848154811061082c5761082b6129e3565b5b90600052602060002001548152602001908152602001600020604051806040016040529081600082015481526020016001820160009054906101000a900473ffffffffffffffffffffffffffffffffffffffff1673ffffffffffffffffffffffffffffffffffffffff1673ffffffffffffffffffffffffffffffffffffffff1681525050905060008314806109025750600073ffffffffffffffffffffffffffffffffffffffff16816020015173ffffffffffffffffffffffffffffffffffffffff1614158015610901575082816000015111155b5b15610930576004828154811061091b5761091a6129e3565b5b90600052602060002001549350806000015192505b50808061093c90612a12565b915050610805565b50819250505090565b610955611f92565b73ffffffffffffffffffffffffffffffffffffffff16610973610b0f565b73ffffffffffffffffffffffffffffffffffffffff16146109c9576040517f08c379a00000000000000000000000000000000000000000000000000000000081526004016109c09061276d565b60405180910390fd5b6109d36000611f9a565b565b6109dd612288565b600360008381526020019081526020016000206040518060a00160405290816000820154815260200160018201548152602001600282015481526020016003820160009054906101000a900473ffffffffffffffffffffffffffffffffffffffff1673ffffffffffffffffffffffffffffffffffffffff1673ffffffffffffffffffffffffffffffffffffffff1681526020016004820160009054906101000a900473ffffffffffffffffffffffffffffffffffffffff1673ffffffffffffffffffffffffffffffffffffffff1673ffffffffffffffffffffffffffffffffffffffff16815250509050919050565b60006004610aec83846001600480549050610ae79190612a5b565b61205e565b81548110610afd57610afc6129e3565b5b90600052602060002001549050919050565b60008060009054906101000a900473ffffffffffffffffffffffffffffffffffffffff16905090565b3373ffffffffffffffffffffffffffffffffffffffff166003600083815260200190815260200160002060030160009054906101000a900473ffffffffffffffffffffffffffffffffffffffff1673ffffffffffffffffffffffffffffffffffffffff1614610bdc576040517f08c379a0000000000000000000000000000000000000000000000000000000008152600401610bd390612adb565b60405180910390fd5b600060036000838152602001908152602001600020600201541115610c36576040517f08c379a0000000000000000000000000000000000000000000000000000000008152600401610c2d90612b47565b60405180910390fd5b600160009054906101000a900473ffffffffffffffffffffffffffffffffffffffff1673ffffffffffffffffffffffffffffffffffffffff166323b872dd3033846040518463ffffffff1660e01b8152600401610c9593929190612b67565b600060405180830381600087803b158015610caf57600080fd5b505af1158015610cc3573d6000803e3d6000fd5b5050505060036000828152602001908152602001600020600080820160009055600182016000905560028201600090556003820160006101000a81549073ffffffffffffffffffffffffffffffffffffffff02191690556004820160006101000a81549073ffffffffffffffffffffffffffffffffffffffff02191690555050610d4c81612186565b807f2a6445a420b30cbabfffd85287bfa6c0c8f9b5f65d48637922da74abf357e52b33604051610d7c91906125bf565b60405180910390a250565b610d8f6122e3565b60026000838152602001908152602001600020604051806040016040529081600082015481526020016001820160009054906101000a900473ffffffffffffffffffffffffffffffffffffffff1673ffffffffffffffffffffffffffffffffffffffff1673ffffffffffffffffffffffffffffffffffffffff16815250509050919050565b600160009054906101000a900473ffffffffffffffffffffffffffffffffffffffff1673ffffffffffffffffffffffffffffffffffffffff16636352211e836040518263ffffffff1660e01b8152600401610e6f91906124d1565b60206040518083038186803b158015610e8757600080fd5b505afa158015610e9b573d6000803e3d6000fd5b505050506040513d601f19601f82011682018060405250810190610ebf9190612bb3565b73ffffffffffffffffffffffffffffffffffffffff163373ffffffffffffffffffffffffffffffffffffffff1614610f2c576040517f08c379a0000000000000000000000000000000000000000000000000000000008152600401610f2390612adb565b60405180910390fd5b60008111610f6f576040517f08c379a0000000000000000000000000000000000000000000000000000000008152600401610f6690612c2c565b60405180910390fd5b600060036000848152602001908152602001600020600001541115610fc9576040517f08c379a0000000000000000000000000000000000000000000000000000000008152600401610fc090612c98565b60405180910390fd5b600160009054906101000a900473ffffffffffffffffffffffffffffffffffffffff1673ffffffffffffffffffffffffffffffffffffffff166323b872dd3330856040518463ffffffff1660e01b815260040161102893929190612b67565b600060405180830381600087803b15801561104257600080fd5b505af1158015611056573d6000803e3d6000fd5b5050505060405180604001604052808281526020013373ffffffffffffffffffffffffffffffffffffffff16815250600260008481526020019081526020016000206000820151816000015560208201518160010160006101000a81548173ffffffffffffffffffffffffffffffffffffffff021916908373ffffffffffffffffffffffffffffffffffffffff1602179055509050506004829080600181540180825580915050600190039060005260206000200160009091909190915055817f24f40284e7e6448fb589dd2b1be11aeb210a043eba67f63b2991bf8d09d31c5b82333060405161114993929190612cb8565b60405180910390a25050565b600160009054906101000a900473ffffffffffffffffffffffffffffffffffffffff1673ffffffffffffffffffffffffffffffffffffffff16636352211e846040518263ffffffff1660e01b81526004016111b091906124d1565b60206040518083038186803b1580156111c857600080fd5b505afa1580156111dc573d6000803e3d6000fd5b505050506040513d601f19601f820116820180604052508101906112009190612bb3565b73ffffffffffffffffffffffffffffffffffffffff163373ffffffffffffffffffffffffffffffffffffffff161461126d576040517f08c379a000000000000000000000000000000000000000000000000000000000815260040161126490612adb565b60405180910390fd5b6103e8600560029054906101000a900461ffff1661ffff16426112909190612cef565b61129a9190612828565b8210156112dc576040517f08c379a00000000000000000000000000000000000000000000000000000000081526004016112d390612d91565b60405180910390fd5b6000811161131f576040517f08c379a000000000000000000000000000000000000000000000000000000000815260040161131690612dfd565b60405180910390fd5b600060036000858152602001908152602001600020600001541115611379576040517f08c379a000000000000000000000000000000000000000000000000000000000815260040161137090612e69565b60405180910390fd5b6000600260008581526020019081526020016000206000015411156113d3576040517f08c379a00000000000000000000000000000000000000000000000000000000081526004016113ca90612ed5565b60405180910390fd5b600160009054906101000a900473ffffffffffffffffffffffffffffffffffffffff1673ffffffffffffffffffffffffffffffffffffffff166323b872dd3330866040518463ffffffff1660e01b815260040161143293929190612b67565b600060405180830381600087803b15801561144c57600080fd5b505af1158015611460573d6000803e3d6000fd5b505050506040518060a00160405280838152602001828152602001600081526020013373ffffffffffffffffffffffffffffffffffffffff168152602001600073ffffffffffffffffffffffffffffffffffffffff168152506003600085815260200190815260200160002060008201518160000155602082015181600101556040820151816002015560608201518160030160006101000a81548173ffffffffffffffffffffffffffffffffffffffff021916908373ffffffffffffffffffffffffffffffffffffffff16021790555060808201518160040160006101000a81548173ffffffffffffffffffffffffffffffffffffffff021916908373ffffffffffffffffffffffffffffffffffffffff1602179055509050506004839080600181540180825580915050600190039060005260206000200160009091909190915055827f4e00e398b232c6dab64fde12b186632f7125e3d8433531e7c7c84cd4bccea0d7838333306040516115da9493929190612ef5565b60405180910390a2505050565b6000600360008381526020019081526020016000206000015411611640576040517f08c379a0000000000000000000000000000000000000000000000000000000008152600401611637906127d9565b60405180910390fd5b6103e84261164e9190612828565b600360008381526020019081526020016000206000015411156116a6576040517f08c379a000000000000000000000000000000000000000000000000000000000815260040161169d90612f86565b60405180910390fd5b600060036000838152602001908152602001600020600201541115611824576003600082815260200190815260200160002060030160009054906101000a900473ffffffffffffffffffffffffffffffffffffffff1673ffffffffffffffffffffffffffffffffffffffff166108fc60036000848152602001908152602001600020600201549081150290604051600060405180830381858888f19350505050158015611757573d6000803e3d6000fd5b50600160009054906101000a900473ffffffffffffffffffffffffffffffffffffffff1673ffffffffffffffffffffffffffffffffffffffff166323b872dd306003600085815260200190815260200160002060040160009054906101000a900473ffffffffffffffffffffffffffffffffffffffff16846040518463ffffffff1660e01b81526004016117ed93929190612b67565b600060405180830381600087803b15801561180757600080fd5b505af115801561181b573d6000803e3d6000fd5b505050506118ec565b600160009054906101000a900473ffffffffffffffffffffffffffffffffffffffff1673ffffffffffffffffffffffffffffffffffffffff166323b872dd306003600085815260200190815260200160002060030160009054906101000a900473ffffffffffffffffffffffffffffffffffffffff16846040518463ffffffff1660e01b81526004016118b993929190612b67565b600060405180830381600087803b1580156118d357600080fd5b505af11580156118e7573d6000803e3d6000fd5b505050505b6118f581612186565b60006003600083815260200190815260200160002060020154111561199f57807fbafc4bda865d4d1f8d5b16f883e996fde0fe71112fac81503876d3537569440060036000848152602001908152602001600020600201546003600085815260200190815260200160002060040160009054906101000a900473ffffffffffffffffffffffffffffffffffffffff166040516119929291906129ba565b60405180910390a2611a11565b807fbafc4bda865d4d1f8d5b16f883e996fde0fe71112fac81503876d3537569440060006003600085815260200190815260200160002060030160009054906101000a900473ffffffffffffffffffffffffffffffffffffffff16604051611a08929190612feb565b60405180910390a25b60036000828152602001908152602001600020600080820160009055600182016000905560028201600090556003820160006101000a81549073ffffffffffffffffffffffffffffffffffffffff02191690556004820160006101000a81549073ffffffffffffffffffffffffffffffffffffffff0219169055505050565b3373ffffffffffffffffffffffffffffffffffffffff166002600083815260200190815260200160002060010160009054906101000a900473ffffffffffffffffffffffffffffffffffffffff1673ffffffffffffffffffffffffffffffffffffffff1614611b34576040517f08c379a0000000000000000000000000000000000000000000000000000000008152600401611b2b90612adb565b60405180910390fd5b600160009054906101000a900473ffffffffffffffffffffffffffffffffffffffff1673ffffffffffffffffffffffffffffffffffffffff166323b872dd3033846040518463ffffffff1660e01b8152600401611b9393929190612b67565b600060405180830381600087803b158015611bad57600080fd5b505af1158015611bc1573d6000803e3d6000fd5b50505050600260008281526020019081526020016000206000808201600090556001820160006101000a81549073ffffffffffffffffffffffffffffffffffffffff02191690555050611c1381612186565b807fcdb4ed929faf0da238b0538e592ae5b3cafbf97cfada279f4b84861d2070042033604051611c4391906125bf565b60405180910390a250565b6000600260008381526020019081526020016000206000015411611ca7576040517f08c379a0000000000000000000000000000000000000000000000000000000008152600401611c9e90613060565b60405180910390fd5b34600260008381526020019081526020016000206000015414611cff576040517f08c379a0000000000000000000000000000000000000000000000000000000008152600401611cf69061299a565b60405180910390fd5b6002600082815260200190815260200160002060010160009054906101000a900473ffffffffffffffffffffffffffffffffffffffff1673ffffffffffffffffffffffffffffffffffffffff166108fc349081150290604051600060405180830381858888f19350505050158015611d7b573d6000803e3d6000fd5b50600160009054906101000a900473ffffffffffffffffffffffffffffffffffffffff1673ffffffffffffffffffffffffffffffffffffffff166323b872dd3033846040518463ffffffff1660e01b8152600401611ddb93929190612b67565b600060405180830381600087803b158015611df557600080fd5b505af1158015611e09573d6000803e3d6000fd5b50505050600260008281526020019081526020016000206000808201600090556001820160006101000a81549073ffffffffffffffffffffffffffffffffffffffff02191690555050611e5b81612186565b807f39cd056bcfc4b6e195eb99b09c74b00815a367bca4e86f70ecf2e0140401bd5e3433604051611e8d9291906129ba565b60405180910390a250565b611ea0611f92565b73ffffffffffffffffffffffffffffffffffffffff16611ebe610b0f565b73ffffffffffffffffffffffffffffffffffffffff1614611f14576040517f08c379a0000000000000000000000000000000000000000000000000000000008152600401611f0b9061276d565b60405180910390fd5b600073ffffffffffffffffffffffffffffffffffffffff168173ffffffffffffffffffffffffffffffffffffffff161415611f84576040517f08c379a0000000000000000000000000000000000000000000000000000000008152600401611f7b906130f2565b60405180910390fd5b611f8d81611f9a565b50565b565b600033905090565b60008060009054906101000a900473ffffffffffffffffffffffffffffffffffffffff169050816000806101000a81548173ffffffffffffffffffffffffffffffffffffffff021916908373ffffffffffffffffffffffffffffffffffffffff1602179055508173ffffffffffffffffffffffffffffffffffffffff168173ffffffffffffffffffffffffffffffffffffffff167f8be0079c531659141344cd1fd0a4f28419497f9722a3daafe3b4186f6b6457e060405160405180910390a35050565b600080434233604051602001612074919061315a565b6040516020818303038152906040528051906020012060001c612097919061291d565b4542416040516020016120aa91906131b0565b6040516020818303038152906040528051906020012060001c6120cd919061291d565b878944426120db9190612cef565b6120e59190612cef565b6120ef9190612cef565b6120f99190612cef565b6121039190612cef565b61210d9190612cef565b6121179190612cef565b60405160200161212791906131ec565b6040516020818303038152906040528051906020012060001c905060018361214f9190612cef565b60018461215c9190612cef565b82612167919061291d565b6121719190612828565b8161217c9190612a5b565b9150509392505050565b600061219182612222565b905060048054905081106121a457600080fd5b600460016004805490506121b89190612a5b565b815481106121c9576121c86129e3565b5b9060005260206000200154600482815481106121e8576121e76129e3565b5b9060005260206000200181905550600480548061220857612207613207565b5b600190038181906000526020600020016000905590555050565b600080600090505b600480549050811015612279576004818154811061224b5761224a6129e3565b5b90600052602060002001548314156122665780915050612283565b808061227190612a12565b91505061222a565b5060048054905090505b919050565b6040518060a00160405280600081526020016000815260200160008152602001600073ffffffffffffffffffffffffffffffffffffffff168152602001600073ffffffffffffffffffffffffffffffffffffffff1681525090565b604051806040016040528060008152602001600073ffffffffffffffffffffffffffffffffffffffff1681525090565b600081519050919050565b600082825260208201905092915050565b6000819050602082019050919050565b6000819050919050565b6123528161233f565b82525050565b60006123648383612349565b60208301905092915050565b6000602082019050919050565b600061238882612313565b612392818561231e565b935061239d8361232f565b8060005b838110156123ce5781516123b58882612358565b97506123c083612370565b9250506001810190506123a1565b5085935050505092915050565b600060208201905081810360008301526123f5818461237d565b905092915050565b600080fd5b600061ffff82169050919050565b61241981612402565b811461242457600080fd5b50565b60008135905061243681612410565b92915050565b600060208284031215612452576124516123fd565b5b600061246084828501612427565b91505092915050565b6124728161233f565b811461247d57600080fd5b50565b60008135905061248f81612469565b92915050565b6000602082840312156124ab576124aa6123fd565b5b60006124b984828501612480565b91505092915050565b6124cb8161233f565b82525050565b60006020820190506124e660008301846124c2565b92915050565b600073ffffffffffffffffffffffffffffffffffffffff82169050919050565b6000612517826124ec565b9050919050565b6125278161250c565b82525050565b60a0820160008201516125436000850182612349565b5060208201516125566020850182612349565b5060408201516125696040850182612349565b50606082015161257c606085018261251e565b50608082015161258f608085018261251e565b50505050565b600060a0820190506125aa600083018461252d565b92915050565b6125b98161250c565b82525050565b60006020820190506125d460008301846125b0565b92915050565b6040820160008201516125f06000850182612349565b506020820151612603602085018261251e565b50505050565b600060408201905061261e60008301846125da565b92915050565b6000806040838503121561263b5761263a6123fd565b5b600061264985828601612480565b925050602061265a85828601612480565b9150509250929050565b60008060006060848603121561267d5761267c6123fd565b5b600061268b86828701612480565b935050602061269c86828701612480565b92505060406126ad86828701612480565b9150509250925092565b6126c08161250c565b81146126cb57600080fd5b50565b6000813590506126dd816126b7565b92915050565b6000602082840312156126f9576126f86123fd565b5b6000612707848285016126ce565b91505092915050565b600082825260208201905092915050565b7f4f776e61626c653a2063616c6c6572206973206e6f7420746865206f776e6572600082015250565b6000612757602083612710565b915061276282612721565b602082019050919050565b600060208201905081810360008301526127868161274a565b9050919050565b7f41756374696f6e206e6f7420666f756e64000000000000000000000000000000600082015250565b60006127c3601183612710565b91506127ce8261278d565b602082019050919050565b600060208201905081810360008301526127f2816127b6565b9050919050565b7f4e487b7100000000000000000000000000000000000000000000000000000000600052601160045260246000fd5b60006128338261233f565b915061283e8361233f565b9250817fffffffffffffffffffffffffffffffffffffffffffffffffffffffffffffffff0483118215151615612877576128766127f9565b5b828202905092915050565b7f41756374696f6e20656e64656400000000000000000000000000000000000000600082015250565b60006128b8600d83612710565b91506128c382612882565b602082019050919050565b600060208201905081810360008301526128e7816128ab565b9050919050565b7f4e487b7100000000000000000000000000000000000000000000000000000000600052601260045260246000fd5b60006129288261233f565b91506129338361233f565b925082612943576129426128ee565b5b828204905092915050565b7f496e636f72726563742076616c75650000000000000000000000000000000000600082015250565b6000612984600f83612710565b915061298f8261294e565b602082019050919050565b600060208201905081810360008301526129b381612977565b9050919050565b60006040820190506129cf60008301856124c2565b6129dc60208301846125b0565b9392505050565b7f4e487b7100000000000000000000000000000000000000000000000000000000600052603260045260246000fd5b6000612a1d8261233f565b91507fffffffffffffffffffffffffffffffffffffffffffffffffffffffffffffffff821415612a5057612a4f6127f9565b5b600182019050919050565b6000612a668261233f565b9150612a718361233f565b925082821015612a8457612a836127f9565b5b828203905092915050565b7f4e6f74206f776e65720000000000000000000000000000000000000000000000600082015250565b6000612ac5600983612710565b9150612ad082612a8f565b602082019050919050565b60006020820190508181036000830152612af481612ab8565b9050919050565b7f43616e27742063616e63656c20746869732061756374696f6e00000000000000600082015250565b6000612b31601983612710565b9150612b3c82612afb565b602082019050919050565b60006020820190508181036000830152612b6081612b24565b9050919050565b6000606082019050612b7c60008301866125b0565b612b8960208301856125b0565b612b9660408301846124c2565b949350505050565b600081519050612bad816126b7565b92915050565b600060208284031215612bc957612bc86123fd565b5b6000612bd784828501612b9e565b91505092915050565b7f5072696365207a65726f00000000000000000000000000000000000000000000600082015250565b6000612c16600a83612710565b9150612c2182612be0565b602082019050919050565b60006020820190508181036000830152612c4581612c09565b9050919050565b7f54686572652069732061206163746976652061756374696f6e00000000000000600082015250565b6000612c82601983612710565b9150612c8d82612c4c565b602082019050919050565b60006020820190508181036000830152612cb181612c75565b9050919050565b6000606082019050612ccd60008301866124c2565b612cda60208301856125b0565b612ce760408301846125b0565b949350505050565b6000612cfa8261233f565b9150612d058361233f565b9250827fffffffffffffffffffffffffffffffffffffffffffffffffffffffffffffffff03821115612d3a57612d396127f9565b5b828201905092915050565b7f41756374696f6e206d757374206861766520656e642074696d65000000000000600082015250565b6000612d7b601a83612710565b9150612d8682612d45565b602082019050919050565b60006020820190508181036000830152612daa81612d6e565b9050919050565b7f4d696e696d756d20507269636500000000000000000000000000000000000000600082015250565b6000612de7600d83612710565b9150612df282612db1565b602082019050919050565b60006020820190508181036000830152612e1681612dda565b9050919050565b7f41756374696f6e20616c72656164792063726561746564000000000000000000600082015250565b6000612e53601783612710565b9150612e5e82612e1d565b602082019050919050565b60006020820190508181036000830152612e8281612e46565b9050919050565b7f4865726f2069732073656c6c696e670000000000000000000000000000000000600082015250565b6000612ebf600f83612710565b9150612eca82612e89565b602082019050919050565b60006020820190508181036000830152612eee81612eb2565b9050919050565b6000608082019050612f0a60008301876124c2565b612f1760208301866124c2565b612f2460408301856125b0565b612f3160608301846125b0565b95945050505050565b7f41756374696f6e206e6f7420656e646564000000000000000000000000000000600082015250565b6000612f70601183612710565b9150612f7b82612f3a565b602082019050919050565b60006020820190508181036000830152612f9f81612f63565b9050919050565b6000819050919050565b6000819050919050565b6000612fd5612fd0612fcb84612fa6565b612fb0565b61233f565b9050919050565b612fe581612fba565b82525050565b60006040820190506130006000830185612fdc565b61300d60208301846125b0565b9392505050565b7f4865726f206e6f7420666f722073616c65000000000000000000000000000000600082015250565b600061304a601183612710565b915061305582613014565b602082019050919050565b600060208201905081810360008301526130798161303d565b9050919050565b7f4f776e61626c653a206e6577206f776e657220697320746865207a65726f206160008201527f6464726573730000000000000000000000000000000000000000000000000000602082015250565b60006130dc602683612710565b91506130e782613080565b604082019050919050565b6000602082019050818103600083015261310b816130cf565b9050919050565b60008160601b9050919050565b600061312a82613112565b9050919050565b600061313c8261311f565b9050919050565b61315461314f8261250c565b613131565b82525050565b60006131668284613143565b60148201915081905092915050565b6000613180826124ec565b9050919050565b60006131928261311f565b9050919050565b6131aa6131a582613175565b613187565b82525050565b60006131bc8284613199565b60148201915081905092915050565b6000819050919050565b6131e66131e18261233f565b6131cb565b82525050565b60006131f882846131d5565b60208201915081905092915050565b7f4e487b7100000000000000000000000000000000000000000000000000000000600052603160045260246000fdfea26469706673582212205d4633a7b362598e997909ddca045e180eed6729f86057c3294cd731c84efe4064736f6c63430008090033",
  "immutableReferences": {},
  "source": "// SPDX-License-Identifier: MIT\npragma solidity 0.8.9;\n\nimport \"../node_modules/@openzeppelin/contracts/access/Ownable.sol\";\nimport \"../node_modules/@openzeppelin/contracts/token/ERC721/IERC721.sol\";\n\ncontract Market is Ownable {\n    event NewAuction(\n        uint256 indexed tokenId,\n        uint256 endTime,\n        uint256 minValue,\n        address seller,\n        address newOwner\n    );\n    event NewBid(uint256 indexed tokenId, uint256 value, address bidder);\n    event CancelAuction(uint256 indexed tokenId, address newOwner);\n    event AuctionEnded(\n        uint256 indexed tokenId,\n        uint256 currValue,\n        address newOwner\n    );\n\n    event NewSellingItem(\n        uint256 indexed tokenId,\n        uint256 value,\n        address seller,\n        address newOwner\n    );\n    event CancelSellingItem(uint256 indexed tokenId, address newOwner);\n    event ItemBought(uint256 indexed tokenId, uint256 value, address newOwner);\n\n    address private _gameTokenAddress;\n\n    struct Auction {\n        uint256 endTime;\n        uint256 minValue;\n        uint256 currValue;\n        address seller;\n        address lastBidAddress;\n    }\n\n    struct SellItem {\n        uint256 value;\n        address seller;\n    }\n\n    mapping(uint256 => SellItem) private _sellingHeroes;\n    mapping(uint256 => Auction) private _sellingHeroesAuction;\n\n    uint256[] private _sellingHeroesIds;\n\n    uint16 private _minBidIncrement = 110;\n    uint16 private _minAuctionTime = 60;\n\n    constructor(address gameTokenAddress) {\n        _gameTokenAddress = gameTokenAddress;\n    }\n\n    function setMinBidIncrement(uint16 _newMinBidIncrement) public onlyOwner {\n        _minBidIncrement = _newMinBidIncrement;\n    }\n\n    function setMinAuctionTime(uint16 _newMinAuctionTime) public onlyOwner {\n        _minAuctionTime = _newMinAuctionTime;\n    }\n\n    function getSellingHeroesIds() public view returns (uint256[] memory) {\n        return _sellingHeroesIds;\n    }\n\n    function getAuction(uint256 _heroId)\n        external\n        view\n        returns (Auction memory)\n    {\n        return _sellingHeroesAuction[_heroId];\n    }\n\n    function getSelling(uint256 _heroId)\n        external\n        view\n        returns (SellItem memory)\n    {\n        return _sellingHeroes[_heroId];\n    }\n\n    function getRandomSelling(uint256 seed) external view returns (uint256) {\n        return\n            _sellingHeroesIds[rand(seed, seed, _sellingHeroesIds.length - 1)];\n    }\n\n    function getLowestSelling() external view returns (uint256) {\n        uint256 lowestId;\n        uint256 value = 0;\n        for (uint256 i = 0; i < _sellingHeroesIds.length; i++) {\n            SellItem memory currentSellItem = _sellingHeroes[\n                _sellingHeroesIds[i]\n            ];\n            if (\n                value == 0 ||\n                (currentSellItem.seller != address(0) &&\n                    currentSellItem.value <= value)\n            ) {\n                lowestId = _sellingHeroesIds[i];\n                value = currentSellItem.value;\n            }\n        }\n\n        return lowestId;\n    }\n\n    function allowBuy(uint256 _heroId, uint256 _price) external {\n        require(\n            msg.sender == IERC721(_gameTokenAddress).ownerOf(_heroId),\n            \"Not owner\"\n        );\n        require(_price > 0, \"Price zero\");\n\n        require(\n            _sellingHeroesAuction[_heroId].endTime <= 0,\n            \"There is a active auction\"\n        );\n\n        IERC721(_gameTokenAddress).transferFrom(\n            msg.sender,\n            address(this),\n            _heroId\n        );\n\n        _sellingHeroes[_heroId] = SellItem(_price, msg.sender);\n        _sellingHeroesIds.push(_heroId);\n\n        emit NewSellingItem(_heroId, _price, msg.sender, address(this));\n    }\n\n    function disallowBuy(uint256 _heroId) external {\n        require(_sellingHeroes[_heroId].seller == msg.sender, \"Not owner\");\n\n        IERC721(_gameTokenAddress).transferFrom(\n            address(this),\n            msg.sender,\n            _heroId\n        );\n\n        delete _sellingHeroes[_heroId];\n        _removeSellingHeroesIds(_heroId);\n\n        emit CancelSellingItem(_heroId, msg.sender);\n    }\n\n    function buy(uint256 _heroId) external payable {\n        require(_sellingHeroes[_heroId].value > 0, \"Hero not for sale\");\n        require(_sellingHeroes[_heroId].value == msg.value, \"Incorrect value\");\n\n        payable(_sellingHeroes[_heroId].seller).transfer(msg.value);\n\n        IERC721(_gameTokenAddress).transferFrom(\n            address(this),\n            msg.sender,\n            _heroId\n        );\n\n        delete _sellingHeroes[_heroId];\n        _removeSellingHeroesIds(_heroId);\n\n        emit ItemBought(_heroId, msg.value, msg.sender);\n    }\n\n    function createAuction(\n        uint256 _heroId,\n        uint256 _endTime,\n        uint256 _minPrice\n    ) external {\n        require(\n            msg.sender == IERC721(_gameTokenAddress).ownerOf(_heroId),\n            \"Not owner\"\n        );\n        require(\n            _endTime >= (block.timestamp + _minAuctionTime) * 1_000,\n            \"Auction must have end time\"\n        );\n        require(_minPrice > 0, \"Minimum Price\");\n        require(\n            _sellingHeroesAuction[_heroId].endTime <= 0,\n            \"Auction already created\"\n        );\n        require(_sellingHeroes[_heroId].value <= 0, \"Hero is selling\");\n\n        IERC721(_gameTokenAddress).transferFrom(\n            msg.sender,\n            address(this),\n            _heroId\n        );\n\n        _sellingHeroesAuction[_heroId] = Auction(\n            _endTime,\n            _minPrice,\n            0,\n            msg.sender,\n            address(0)\n        );\n        _sellingHeroesIds.push(_heroId);\n\n        emit NewAuction(\n            _heroId,\n            _endTime,\n            _minPrice,\n            msg.sender,\n            address(this)\n        );\n    }\n\n    function cancelAuction(uint256 _heroId) external {\n        require(\n            _sellingHeroesAuction[_heroId].seller == msg.sender,\n            \"Not owner\"\n        );\n\n        require(\n            _sellingHeroesAuction[_heroId].currValue <= 0,\n            \"Can't cancel this auction\"\n        );\n\n        IERC721(_gameTokenAddress).transferFrom(\n            address(this),\n            msg.sender,\n            _heroId\n        );\n\n        delete _sellingHeroesAuction[_heroId];\n        _removeSellingHeroesIds(_heroId);\n\n        emit CancelAuction(_heroId, msg.sender);\n    }\n\n    function bid(uint256 _heroId) external payable {\n        Auction storage auction = _sellingHeroesAuction[_heroId];\n        require(\n            _sellingHeroesAuction[_heroId].endTime > 0,\n            \"Auction not found\"\n        );\n        require(auction.endTime > block.timestamp * 1_000, \"Auction ended\");\n        require(\n            msg.value >= uint256((auction.currValue * _minBidIncrement) / 100),\n            \"Incorrect value\"\n        );\n\n        //payable(address(this)).transfer(msg.value);\n\n        if (auction.lastBidAddress != address(0)) {\n            payable(auction.lastBidAddress).transfer(auction.currValue);\n        }\n\n        auction.currValue = msg.value;\n        auction.lastBidAddress = msg.sender;\n\n        emit NewBid(_heroId, msg.value, msg.sender);\n    }\n\n    function finishAuction(uint256 _heroId) external {\n        require(\n            _sellingHeroesAuction[_heroId].endTime > 0,\n            \"Auction not found\"\n        );\n        require(\n            _sellingHeroesAuction[_heroId].endTime <= block.timestamp * 1_000,\n            \"Auction not ended\"\n        );\n\n        if (_sellingHeroesAuction[_heroId].currValue > 0) {\n            payable(_sellingHeroesAuction[_heroId].seller).transfer(\n                _sellingHeroesAuction[_heroId].currValue\n            );\n            IERC721(_gameTokenAddress).transferFrom(\n                address(this),\n                _sellingHeroesAuction[_heroId].lastBidAddress,\n                _heroId\n            );\n        } else {\n            IERC721(_gameTokenAddress).transferFrom(\n                address(this),\n                _sellingHeroesAuction[_heroId].seller,\n                _heroId\n            );\n        }\n\n        _removeSellingHeroesIds(_heroId);\n\n        if (_sellingHeroesAuction[_heroId].currValue > 0) {\n            emit AuctionEnded(\n                _heroId,\n                _sellingHeroesAuction[_heroId].currValue,\n                _sellingHeroesAuction[_heroId].lastBidAddress\n            );\n        } else {\n            emit AuctionEnded(\n                _heroId,\n                0,\n                _sellingHeroesAuction[_heroId].seller\n            );\n        }\n\n        delete _sellingHeroesAuction[_heroId];\n    }\n\n    function _removeSellingHeroesIds(uint256 _heroId) internal {\n        uint256 index = _getIndexSellingHeroesIds(_heroId);\n\n        require(index < _sellingHeroesIds.length);\n        _sellingHeroesIds[index] = _sellingHeroesIds[\n            _sellingHeroesIds.length - 1\n        ];\n        _sellingHeroesIds.pop();\n    }\n\n    function _getIndexSellingHeroesIds(uint256 _heroId)\n        internal\n        view\n        returns (uint256)\n    {\n        for (uint256 i = 0; i < _sellingHeroesIds.length; i++) {\n            if (_heroId == _sellingHeroesIds[i]) {\n                return i;\n            }\n        }\n        return _sellingHeroesIds.length;\n    }\n\n    function rand(\n        uint256 seed1,\n        uint256 seed2,\n        uint256 limit\n    ) private view returns (uint256) {\n        uint256 seed = uint256(\n            keccak256(\n                abi.encodePacked(\n                    block.timestamp +\n                        block.difficulty +\n                        seed1 +\n                        seed2 +\n                        ((\n                            uint256(keccak256(abi.encodePacked(block.coinbase)))\n                        ) / (block.timestamp)) +\n                        block.gaslimit +\n                        ((uint256(keccak256(abi.encodePacked(msg.sender)))) /\n                            (block.timestamp)) +\n                        block.number\n                )\n            )\n        );\n\n        return (seed - ((seed / (limit + 1)) * (limit + 1)));\n    }\n\n    function receiver() external payable {}\n}\n",
  "sourcePath": "/home/rfaita/game/nft-game/contract/contracts/Market.sol",
  "compiler": {
    "name": "solc",
    "version": "0.8.9+commit.e5eed63a.Emscripten.clang"
  },
  "schemaVersion": "3.4.4",
  "updatedAt": "2022-03-21T13:30:13.621Z",
  "networkType": "ethereum",
  "devdoc": {
    "kind": "dev",
    "methods": {
      "owner()": {
        "details": "Returns the address of the current owner."
      },
      "renounceOwnership()": {
        "details": "Leaves the contract without owner. It will not be possible to call `onlyOwner` functions anymore. Can only be called by the current owner. NOTE: Renouncing ownership will leave the contract without an owner, thereby removing any functionality that is only available to the owner."
      },
      "transferOwnership(address)": {
        "details": "Transfers ownership of the contract to a new account (`newOwner`). Can only be called by the current owner."
      }
    },
    "version": 1
  },
  "userdoc": {
    "kind": "user",
    "methods": {},
    "version": 1
  }
}