{
  "contractName": "Market",
  "abi": [
    {
      "inputs": [
        {
          "internalType": "address",
          "name": "gameTokenAddress",
          "type": "address"
        }
      ],
      "stateMutability": "nonpayable",
      "type": "constructor"
    },
    {
      "anonymous": false,
      "inputs": [
        {
          "indexed": true,
          "internalType": "uint256",
          "name": "tokenId",
          "type": "uint256"
        },
        {
          "indexed": false,
          "internalType": "uint256",
          "name": "currValue",
          "type": "uint256"
        },
        {
          "indexed": false,
          "internalType": "address",
          "name": "newOwner",
          "type": "address"
        }
      ],
      "name": "AuctionEnded",
      "type": "event"
    },
    {
      "anonymous": false,
      "inputs": [
        {
          "indexed": true,
          "internalType": "uint256",
          "name": "tokenId",
          "type": "uint256"
        },
        {
          "indexed": false,
          "internalType": "address",
          "name": "newOwner",
          "type": "address"
        }
      ],
      "name": "CancelAuction",
      "type": "event"
    },
    {
      "anonymous": false,
      "inputs": [
        {
          "indexed": true,
          "internalType": "uint256",
          "name": "tokenId",
          "type": "uint256"
        },
        {
          "indexed": false,
          "internalType": "address",
          "name": "newOwner",
          "type": "address"
        }
      ],
      "name": "CancelSellingItem",
      "type": "event"
    },
    {
      "anonymous": false,
      "inputs": [
        {
          "indexed": true,
          "internalType": "uint256",
          "name": "tokenId",
          "type": "uint256"
        },
        {
          "indexed": false,
          "internalType": "uint256",
          "name": "value",
          "type": "uint256"
        },
        {
          "indexed": false,
          "internalType": "address",
          "name": "newOwner",
          "type": "address"
        }
      ],
      "name": "ItemBought",
      "type": "event"
    },
    {
      "anonymous": false,
      "inputs": [
        {
          "indexed": true,
          "internalType": "uint256",
          "name": "tokenId",
          "type": "uint256"
        },
        {
          "indexed": false,
          "internalType": "uint256",
          "name": "endTime",
          "type": "uint256"
        },
        {
          "indexed": false,
          "internalType": "uint256",
          "name": "minValue",
          "type": "uint256"
        },
        {
          "indexed": false,
          "internalType": "address",
          "name": "seller",
          "type": "address"
        },
        {
          "indexed": false,
          "internalType": "address",
          "name": "newOwner",
          "type": "address"
        }
      ],
      "name": "NewAuction",
      "type": "event"
    },
    {
      "anonymous": false,
      "inputs": [
        {
          "indexed": true,
          "internalType": "uint256",
          "name": "tokenId",
          "type": "uint256"
        },
        {
          "indexed": false,
          "internalType": "uint256",
          "name": "value",
          "type": "uint256"
        },
        {
          "indexed": false,
          "internalType": "address",
          "name": "bidder",
          "type": "address"
        }
      ],
      "name": "NewBid",
      "type": "event"
    },
    {
      "anonymous": false,
      "inputs": [
        {
          "indexed": true,
          "internalType": "uint256",
          "name": "tokenId",
          "type": "uint256"
        },
        {
          "indexed": false,
          "internalType": "uint256",
          "name": "value",
          "type": "uint256"
        },
        {
          "indexed": false,
          "internalType": "address",
          "name": "seller",
          "type": "address"
        },
        {
          "indexed": false,
          "internalType": "address",
          "name": "newOwner",
          "type": "address"
        }
      ],
      "name": "NewSellingItem",
      "type": "event"
    },
    {
      "anonymous": false,
      "inputs": [
        {
          "indexed": true,
          "internalType": "address",
          "name": "previousOwner",
          "type": "address"
        },
        {
          "indexed": true,
          "internalType": "address",
          "name": "newOwner",
          "type": "address"
        }
      ],
      "name": "OwnershipTransferred",
      "type": "event"
    },
    {
      "inputs": [],
      "name": "owner",
      "outputs": [
        {
          "internalType": "address",
          "name": "",
          "type": "address"
        }
      ],
      "stateMutability": "view",
      "type": "function",
      "constant": true
    },
    {
      "inputs": [],
      "name": "renounceOwnership",
      "outputs": [],
      "stateMutability": "nonpayable",
      "type": "function"
    },
    {
      "inputs": [
        {
          "internalType": "address",
          "name": "newOwner",
          "type": "address"
        }
      ],
      "name": "transferOwnership",
      "outputs": [],
      "stateMutability": "nonpayable",
      "type": "function"
    },
    {
      "inputs": [
        {
          "internalType": "uint16",
          "name": "_newMinBidIncrement",
          "type": "uint16"
        }
      ],
      "name": "setMinBidIncrement",
      "outputs": [],
      "stateMutability": "nonpayable",
      "type": "function"
    },
    {
      "inputs": [
        {
          "internalType": "uint16",
          "name": "_newMinAuctionTime",
          "type": "uint16"
        }
      ],
      "name": "setMinAuctionTime",
      "outputs": [],
      "stateMutability": "nonpayable",
      "type": "function"
    },
    {
      "inputs": [],
      "name": "getSellingHeroesIds",
      "outputs": [
        {
          "internalType": "uint256[]",
          "name": "",
          "type": "uint256[]"
        }
      ],
      "stateMutability": "view",
      "type": "function",
      "constant": true
    },
    {
      "inputs": [
        {
          "internalType": "uint256",
          "name": "_heroId",
          "type": "uint256"
        }
      ],
      "name": "getAuction",
      "outputs": [
        {
          "components": [
            {
              "internalType": "uint256",
              "name": "endTime",
              "type": "uint256"
            },
            {
              "internalType": "uint256",
              "name": "minValue",
              "type": "uint256"
            },
            {
              "internalType": "uint256",
              "name": "currValue",
              "type": "uint256"
            },
            {
              "internalType": "address",
              "name": "seller",
              "type": "address"
            },
            {
              "internalType": "address",
              "name": "lastBidAddress",
              "type": "address"
            }
          ],
          "internalType": "struct Market.Auction",
          "name": "",
          "type": "tuple"
        }
      ],
      "stateMutability": "view",
      "type": "function",
      "constant": true
    },
    {
      "inputs": [
        {
          "internalType": "uint256",
          "name": "_heroId",
          "type": "uint256"
        }
      ],
      "name": "getSelling",
      "outputs": [
        {
          "components": [
            {
              "internalType": "uint256",
              "name": "value",
              "type": "uint256"
            },
            {
              "internalType": "address",
              "name": "seller",
              "type": "address"
            }
          ],
          "internalType": "struct Market.SellItem",
          "name": "",
          "type": "tuple"
        }
      ],
      "stateMutability": "view",
      "type": "function",
      "constant": true
    },
    {
      "inputs": [
        {
          "internalType": "uint256",
          "name": "_heroId",
          "type": "uint256"
        },
        {
          "internalType": "uint256",
          "name": "_price",
          "type": "uint256"
        }
      ],
      "name": "allowBuy",
      "outputs": [],
      "stateMutability": "nonpayable",
      "type": "function"
    },
    {
      "inputs": [
        {
          "internalType": "uint256",
          "name": "_heroId",
          "type": "uint256"
        }
      ],
      "name": "disallowBuy",
      "outputs": [],
      "stateMutability": "nonpayable",
      "type": "function"
    },
    {
      "inputs": [
        {
          "internalType": "uint256",
          "name": "_heroId",
          "type": "uint256"
        }
      ],
      "name": "buy",
      "outputs": [],
      "stateMutability": "payable",
      "type": "function",
      "payable": true
    },
    {
      "inputs": [
        {
          "internalType": "uint256",
          "name": "_heroId",
          "type": "uint256"
        },
        {
          "internalType": "uint256",
          "name": "_endTime",
          "type": "uint256"
        },
        {
          "internalType": "uint256",
          "name": "_minPrice",
          "type": "uint256"
        }
      ],
      "name": "createAuction",
      "outputs": [],
      "stateMutability": "nonpayable",
      "type": "function"
    },
    {
      "inputs": [
        {
          "internalType": "uint256",
          "name": "_heroId",
          "type": "uint256"
        }
      ],
      "name": "cancelAuction",
      "outputs": [],
      "stateMutability": "nonpayable",
      "type": "function"
    },
    {
      "inputs": [
        {
          "internalType": "uint256",
          "name": "_heroId",
          "type": "uint256"
        }
      ],
      "name": "bid",
      "outputs": [],
      "stateMutability": "payable",
      "type": "function",
      "payable": true
    },
    {
      "inputs": [
        {
          "internalType": "uint256",
          "name": "_heroId",
          "type": "uint256"
        }
      ],
      "name": "finishAuction",
      "outputs": [],
      "stateMutability": "nonpayable",
      "type": "function"
    },
    {
      "inputs": [],
      "name": "receiver",
      "outputs": [],
      "stateMutability": "payable",
      "type": "function",
      "payable": true
    }
  ],
  "bytecode": "0x6080604052606e600560006101000a81548161ffff021916908361ffff160217905550603c600560026101000a81548161ffff021916908361ffff1602179055503480156200004d57600080fd5b506040516200309238038062003092833981810160405281019062000073919062000211565b6200009362000087620000db60201b60201c565b620000e360201b60201c565b80600160006101000a81548173ffffffffffffffffffffffffffffffffffffffff021916908373ffffffffffffffffffffffffffffffffffffffff1602179055505062000243565b600033905090565b60008060009054906101000a900473ffffffffffffffffffffffffffffffffffffffff169050816000806101000a81548173ffffffffffffffffffffffffffffffffffffffff021916908373ffffffffffffffffffffffffffffffffffffffff1602179055508173ffffffffffffffffffffffffffffffffffffffff168173ffffffffffffffffffffffffffffffffffffffff167f8be0079c531659141344cd1fd0a4f28419497f9722a3daafe3b4186f6b6457e060405160405180910390a35050565b600080fd5b600073ffffffffffffffffffffffffffffffffffffffff82169050919050565b6000620001d982620001ac565b9050919050565b620001eb81620001cc565b8114620001f757600080fd5b50565b6000815190506200020b81620001e0565b92915050565b6000602082840312156200022a5762000229620001a7565b5b60006200023a84828501620001fa565b91505092915050565b612e3f80620002536000396000f3fe6080604052600436106100f35760003560e01c8063b364acd61161008a578063d499131211610059578063d4991312146102f1578063d96a094a1461031a578063f2fde38b14610336578063f7260d3e1461035f576100f3565b8063b364acd614610239578063bbb5e8d314610276578063cda4beef1461029f578063cf266ed0146102c8576100f3565b8063715018a6116100c6578063715018a61461019157806378bd7935146101a85780638da5cb5b146101e557806396b5a75514610210576100f3565b806311518d40146100f8578063145c0cc21461012357806322f535a71461014c578063454a2ab314610175575b600080fd5b34801561010457600080fd5b5061010d610369565b60405161011a91906120a3565b60405180910390f35b34801561012f57600080fd5b5061014a60048036038101906101459190612104565b6103c1565b005b34801561015857600080fd5b50610173600480360381019061016e9190612104565b61045d565b005b61018f600480360381019061018a919061215d565b6104f9565b005b34801561019d57600080fd5b506101a6610780565b005b3480156101b457600080fd5b506101cf60048036038101906101ca919061215d565b610808565b6040516101dc9190612233565b60405180910390f35b3480156101f157600080fd5b506101fa6108ff565b604051610207919061225d565b60405180910390f35b34801561021c57600080fd5b506102376004803603810190610232919061215d565b610928565b005b34801561024557600080fd5b50610260600480360381019061025b919061215d565b610b77565b60405161026d91906122a7565b60405180910390f35b34801561028257600080fd5b5061029d600480360381019061029891906122c2565b610c04565b005b3480156102ab57600080fd5b506102c660048036038101906102c19190612302565b610f45565b005b3480156102d457600080fd5b506102ef60048036038101906102ea919061215d565b6113d7565b005b3480156102fd57600080fd5b506103186004803603810190610313919061215d565b611880565b005b610334600480360381019061032f919061215d565b611a3e565b005b34801561034257600080fd5b5061035d60048036038101906103589190612381565b611c88565b005b610367611d80565b005b606060048054806020026020016040519081016040528092919081815260200182805480156103b757602002820191906000526020600020905b8154815260200190600101908083116103a3575b5050505050905090565b6103c9611d82565b73ffffffffffffffffffffffffffffffffffffffff166103e76108ff565b73ffffffffffffffffffffffffffffffffffffffff161461043d576040517f08c379a00000000000000000000000000000000000000000000000000000000081526004016104349061240b565b60405180910390fd5b80600560006101000a81548161ffff021916908361ffff16021790555050565b610465611d82565b73ffffffffffffffffffffffffffffffffffffffff166104836108ff565b73ffffffffffffffffffffffffffffffffffffffff16146104d9576040517f08c379a00000000000000000000000000000000000000000000000000000000081526004016104d09061240b565b60405180910390fd5b80600560026101000a81548161ffff021916908361ffff16021790555050565b60006003600083815260200190815260200160002090506000600360008481526020019081526020016000206000015411610569576040517f08c379a000000000000000000000000000000000000000000000000000000000815260040161056090612477565b60405180910390fd5b6103e84261057791906124c6565b8160000154116105bc576040517f08c379a00000000000000000000000000000000000000000000000000000000081526004016105b39061256c565b60405180910390fd5b6064600560009054906101000a900461ffff1661ffff1682600201546105e291906124c6565b6105ec91906125bb565b34101561062e576040517f08c379a000000000000000000000000000000000000000000000000000000000815260040161062590612638565b60405180910390fd5b600073ffffffffffffffffffffffffffffffffffffffff168160040160009054906101000a900473ffffffffffffffffffffffffffffffffffffffff1673ffffffffffffffffffffffffffffffffffffffff16146106f6578060040160009054906101000a900473ffffffffffffffffffffffffffffffffffffffff1673ffffffffffffffffffffffffffffffffffffffff166108fc82600201549081150290604051600060405180830381858888f193505050501580156106f4573d6000803e3d6000fd5b505b348160020181905550338160040160006101000a81548173ffffffffffffffffffffffffffffffffffffffff021916908373ffffffffffffffffffffffffffffffffffffffff160217905550817f0b946a7d9cbd47da0dd592970ef1259349c40f44b231f11da4babeb56c07dd2d3433604051610774929190612667565b60405180910390a25050565b610788611d82565b73ffffffffffffffffffffffffffffffffffffffff166107a66108ff565b73ffffffffffffffffffffffffffffffffffffffff16146107fc576040517f08c379a00000000000000000000000000000000000000000000000000000000081526004016107f39061240b565b60405180910390fd5b6108066000611d8a565b565b610810611f50565b600360008381526020019081526020016000206040518060a00160405290816000820154815260200160018201548152602001600282015481526020016003820160009054906101000a900473ffffffffffffffffffffffffffffffffffffffff1673ffffffffffffffffffffffffffffffffffffffff1673ffffffffffffffffffffffffffffffffffffffff1681526020016004820160009054906101000a900473ffffffffffffffffffffffffffffffffffffffff1673ffffffffffffffffffffffffffffffffffffffff1673ffffffffffffffffffffffffffffffffffffffff16815250509050919050565b60008060009054906101000a900473ffffffffffffffffffffffffffffffffffffffff16905090565b3373ffffffffffffffffffffffffffffffffffffffff166003600083815260200190815260200160002060030160009054906101000a900473ffffffffffffffffffffffffffffffffffffffff1673ffffffffffffffffffffffffffffffffffffffff16146109cc576040517f08c379a00000000000000000000000000000000000000000000000000000000081526004016109c3906126dc565b60405180910390fd5b600060036000838152602001908152602001600020600201541115610a26576040517f08c379a0000000000000000000000000000000000000000000000000000000008152600401610a1d90612748565b60405180910390fd5b600160009054906101000a900473ffffffffffffffffffffffffffffffffffffffff1673ffffffffffffffffffffffffffffffffffffffff166323b872dd3033846040518463ffffffff1660e01b8152600401610a8593929190612768565b600060405180830381600087803b158015610a9f57600080fd5b505af1158015610ab3573d6000803e3d6000fd5b5050505060036000828152602001908152602001600020600080820160009055600182016000905560028201600090556003820160006101000a81549073ffffffffffffffffffffffffffffffffffffffff02191690556004820160006101000a81549073ffffffffffffffffffffffffffffffffffffffff02191690555050610b3c81611e4e565b807f2a6445a420b30cbabfffd85287bfa6c0c8f9b5f65d48637922da74abf357e52b33604051610b6c919061225d565b60405180910390a250565b610b7f611fab565b60026000838152602001908152602001600020604051806040016040529081600082015481526020016001820160009054906101000a900473ffffffffffffffffffffffffffffffffffffffff1673ffffffffffffffffffffffffffffffffffffffff1673ffffffffffffffffffffffffffffffffffffffff16815250509050919050565b600160009054906101000a900473ffffffffffffffffffffffffffffffffffffffff1673ffffffffffffffffffffffffffffffffffffffff16636352211e836040518263ffffffff1660e01b8152600401610c5f919061279f565b60206040518083038186803b158015610c7757600080fd5b505afa158015610c8b573d6000803e3d6000fd5b505050506040513d601f19601f82011682018060405250810190610caf91906127cf565b73ffffffffffffffffffffffffffffffffffffffff163373ffffffffffffffffffffffffffffffffffffffff1614610d1c576040517f08c379a0000000000000000000000000000000000000000000000000000000008152600401610d13906126dc565b60405180910390fd5b60008111610d5f576040517f08c379a0000000000000000000000000000000000000000000000000000000008152600401610d5690612848565b60405180910390fd5b600060036000848152602001908152602001600020600001541115610db9576040517f08c379a0000000000000000000000000000000000000000000000000000000008152600401610db0906128b4565b60405180910390fd5b600160009054906101000a900473ffffffffffffffffffffffffffffffffffffffff1673ffffffffffffffffffffffffffffffffffffffff166323b872dd3330856040518463ffffffff1660e01b8152600401610e1893929190612768565b600060405180830381600087803b158015610e3257600080fd5b505af1158015610e46573d6000803e3d6000fd5b5050505060405180604001604052808281526020013373ffffffffffffffffffffffffffffffffffffffff16815250600260008481526020019081526020016000206000820151816000015560208201518160010160006101000a81548173ffffffffffffffffffffffffffffffffffffffff021916908373ffffffffffffffffffffffffffffffffffffffff1602179055509050506004829080600181540180825580915050600190039060005260206000200160009091909190915055817f24f40284e7e6448fb589dd2b1be11aeb210a043eba67f63b2991bf8d09d31c5b823330604051610f39939291906128d4565b60405180910390a25050565b600160009054906101000a900473ffffffffffffffffffffffffffffffffffffffff1673ffffffffffffffffffffffffffffffffffffffff16636352211e846040518263ffffffff1660e01b8152600401610fa0919061279f565b60206040518083038186803b158015610fb857600080fd5b505afa158015610fcc573d6000803e3d6000fd5b505050506040513d601f19601f82011682018060405250810190610ff091906127cf565b73ffffffffffffffffffffffffffffffffffffffff163373ffffffffffffffffffffffffffffffffffffffff161461105d576040517f08c379a0000000000000000000000000000000000000000000000000000000008152600401611054906126dc565b60405180910390fd5b6103e8600560029054906101000a900461ffff1661ffff1642611080919061290b565b61108a91906124c6565b8210156110cc576040517f08c379a00000000000000000000000000000000000000000000000000000000081526004016110c3906129ad565b60405180910390fd5b6000811161110f576040517f08c379a000000000000000000000000000000000000000000000000000000000815260040161110690612a19565b60405180910390fd5b600060036000858152602001908152602001600020600001541115611169576040517f08c379a000000000000000000000000000000000000000000000000000000000815260040161116090612a85565b60405180910390fd5b6000600260008581526020019081526020016000206000015411156111c3576040517f08c379a00000000000000000000000000000000000000000000000000000000081526004016111ba90612af1565b60405180910390fd5b600160009054906101000a900473ffffffffffffffffffffffffffffffffffffffff1673ffffffffffffffffffffffffffffffffffffffff166323b872dd3330866040518463ffffffff1660e01b815260040161122293929190612768565b600060405180830381600087803b15801561123c57600080fd5b505af1158015611250573d6000803e3d6000fd5b505050506040518060a00160405280838152602001828152602001600081526020013373ffffffffffffffffffffffffffffffffffffffff168152602001600073ffffffffffffffffffffffffffffffffffffffff168152506003600085815260200190815260200160002060008201518160000155602082015181600101556040820151816002015560608201518160030160006101000a81548173ffffffffffffffffffffffffffffffffffffffff021916908373ffffffffffffffffffffffffffffffffffffffff16021790555060808201518160040160006101000a81548173ffffffffffffffffffffffffffffffffffffffff021916908373ffffffffffffffffffffffffffffffffffffffff1602179055509050506004839080600181540180825580915050600190039060005260206000200160009091909190915055827f4e00e398b232c6dab64fde12b186632f7125e3d8433531e7c7c84cd4bccea0d7838333306040516113ca9493929190612b11565b60405180910390a2505050565b6000600360008381526020019081526020016000206000015411611430576040517f08c379a000000000000000000000000000000000000000000000000000000000815260040161142790612477565b60405180910390fd5b6103e84261143e91906124c6565b60036000838152602001908152602001600020600001541115611496576040517f08c379a000000000000000000000000000000000000000000000000000000000815260040161148d90612ba2565b60405180910390fd5b600060036000838152602001908152602001600020600201541115611614576003600082815260200190815260200160002060030160009054906101000a900473ffffffffffffffffffffffffffffffffffffffff1673ffffffffffffffffffffffffffffffffffffffff166108fc60036000848152602001908152602001600020600201549081150290604051600060405180830381858888f19350505050158015611547573d6000803e3d6000fd5b50600160009054906101000a900473ffffffffffffffffffffffffffffffffffffffff1673ffffffffffffffffffffffffffffffffffffffff166323b872dd306003600085815260200190815260200160002060040160009054906101000a900473ffffffffffffffffffffffffffffffffffffffff16846040518463ffffffff1660e01b81526004016115dd93929190612768565b600060405180830381600087803b1580156115f757600080fd5b505af115801561160b573d6000803e3d6000fd5b505050506116dc565b600160009054906101000a900473ffffffffffffffffffffffffffffffffffffffff1673ffffffffffffffffffffffffffffffffffffffff166323b872dd306003600085815260200190815260200160002060030160009054906101000a900473ffffffffffffffffffffffffffffffffffffffff16846040518463ffffffff1660e01b81526004016116a993929190612768565b600060405180830381600087803b1580156116c357600080fd5b505af11580156116d7573d6000803e3d6000fd5b505050505b6116e581611e4e565b60006003600083815260200190815260200160002060020154111561178f57807fbafc4bda865d4d1f8d5b16f883e996fde0fe71112fac81503876d3537569440060036000848152602001908152602001600020600201546003600085815260200190815260200160002060040160009054906101000a900473ffffffffffffffffffffffffffffffffffffffff16604051611782929190612667565b60405180910390a2611801565b807fbafc4bda865d4d1f8d5b16f883e996fde0fe71112fac81503876d3537569440060006003600085815260200190815260200160002060030160009054906101000a900473ffffffffffffffffffffffffffffffffffffffff166040516117f8929190612c07565b60405180910390a25b60036000828152602001908152602001600020600080820160009055600182016000905560028201600090556003820160006101000a81549073ffffffffffffffffffffffffffffffffffffffff02191690556004820160006101000a81549073ffffffffffffffffffffffffffffffffffffffff0219169055505050565b3373ffffffffffffffffffffffffffffffffffffffff166002600083815260200190815260200160002060010160009054906101000a900473ffffffffffffffffffffffffffffffffffffffff1673ffffffffffffffffffffffffffffffffffffffff1614611924576040517f08c379a000000000000000000000000000000000000000000000000000000000815260040161191b906126dc565b60405180910390fd5b600160009054906101000a900473ffffffffffffffffffffffffffffffffffffffff1673ffffffffffffffffffffffffffffffffffffffff166323b872dd3033846040518463ffffffff1660e01b815260040161198393929190612768565b600060405180830381600087803b15801561199d57600080fd5b505af11580156119b1573d6000803e3d6000fd5b50505050600260008281526020019081526020016000206000808201600090556001820160006101000a81549073ffffffffffffffffffffffffffffffffffffffff02191690555050611a0381611e4e565b807fcdb4ed929faf0da238b0538e592ae5b3cafbf97cfada279f4b84861d2070042033604051611a33919061225d565b60405180910390a250565b6000600260008381526020019081526020016000206000015411611a97576040517f08c379a0000000000000000000000000000000000000000000000000000000008152600401611a8e90612c7c565b60405180910390fd5b34600260008381526020019081526020016000206000015414611aef576040517f08c379a0000000000000000000000000000000000000000000000000000000008152600401611ae690612638565b60405180910390fd5b6002600082815260200190815260200160002060010160009054906101000a900473ffffffffffffffffffffffffffffffffffffffff1673ffffffffffffffffffffffffffffffffffffffff166108fc349081150290604051600060405180830381858888f19350505050158015611b6b573d6000803e3d6000fd5b50600160009054906101000a900473ffffffffffffffffffffffffffffffffffffffff1673ffffffffffffffffffffffffffffffffffffffff166323b872dd3033846040518463ffffffff1660e01b8152600401611bcb93929190612768565b600060405180830381600087803b158015611be557600080fd5b505af1158015611bf9573d6000803e3d6000fd5b50505050600260008281526020019081526020016000206000808201600090556001820160006101000a81549073ffffffffffffffffffffffffffffffffffffffff02191690555050611c4b81611e4e565b807f39cd056bcfc4b6e195eb99b09c74b00815a367bca4e86f70ecf2e0140401bd5e3433604051611c7d929190612667565b60405180910390a250565b611c90611d82565b73ffffffffffffffffffffffffffffffffffffffff16611cae6108ff565b73ffffffffffffffffffffffffffffffffffffffff1614611d04576040517f08c379a0000000000000000000000000000000000000000000000000000000008152600401611cfb9061240b565b60405180910390fd5b600073ffffffffffffffffffffffffffffffffffffffff168173ffffffffffffffffffffffffffffffffffffffff161415611d74576040517f08c379a0000000000000000000000000000000000000000000000000000000008152600401611d6b90612d0e565b60405180910390fd5b611d7d81611d8a565b50565b565b600033905090565b60008060009054906101000a900473ffffffffffffffffffffffffffffffffffffffff169050816000806101000a81548173ffffffffffffffffffffffffffffffffffffffff021916908373ffffffffffffffffffffffffffffffffffffffff1602179055508173ffffffffffffffffffffffffffffffffffffffff168173ffffffffffffffffffffffffffffffffffffffff167f8be0079c531659141344cd1fd0a4f28419497f9722a3daafe3b4186f6b6457e060405160405180910390a35050565b6000611e5982611eea565b90506004805490508110611e6c57600080fd5b60046001600480549050611e809190612d2e565b81548110611e9157611e90612d62565b5b906000526020600020015460048281548110611eb057611eaf612d62565b5b90600052602060002001819055506004805480611ed057611ecf612d91565b5b600190038181906000526020600020016000905590555050565b600080600090505b600480549050811015611f415760048181548110611f1357611f12612d62565b5b9060005260206000200154831415611f2e5780915050611f4b565b8080611f3990612dc0565b915050611ef2565b5060048054905090505b919050565b6040518060a00160405280600081526020016000815260200160008152602001600073ffffffffffffffffffffffffffffffffffffffff168152602001600073ffffffffffffffffffffffffffffffffffffffff1681525090565b604051806040016040528060008152602001600073ffffffffffffffffffffffffffffffffffffffff1681525090565b600081519050919050565b600082825260208201905092915050565b6000819050602082019050919050565b6000819050919050565b61201a81612007565b82525050565b600061202c8383612011565b60208301905092915050565b6000602082019050919050565b600061205082611fdb565b61205a8185611fe6565b935061206583611ff7565b8060005b8381101561209657815161207d8882612020565b975061208883612038565b925050600181019050612069565b5085935050505092915050565b600060208201905081810360008301526120bd8184612045565b905092915050565b600080fd5b600061ffff82169050919050565b6120e1816120ca565b81146120ec57600080fd5b50565b6000813590506120fe816120d8565b92915050565b60006020828403121561211a576121196120c5565b5b6000612128848285016120ef565b91505092915050565b61213a81612007565b811461214557600080fd5b50565b60008135905061215781612131565b92915050565b600060208284031215612173576121726120c5565b5b600061218184828501612148565b91505092915050565b600073ffffffffffffffffffffffffffffffffffffffff82169050919050565b60006121b58261218a565b9050919050565b6121c5816121aa565b82525050565b60a0820160008201516121e16000850182612011565b5060208201516121f46020850182612011565b5060408201516122076040850182612011565b50606082015161221a60608501826121bc565b50608082015161222d60808501826121bc565b50505050565b600060a08201905061224860008301846121cb565b92915050565b612257816121aa565b82525050565b6000602082019050612272600083018461224e565b92915050565b60408201600082015161228e6000850182612011565b5060208201516122a160208501826121bc565b50505050565b60006040820190506122bc6000830184612278565b92915050565b600080604083850312156122d9576122d86120c5565b5b60006122e785828601612148565b92505060206122f885828601612148565b9150509250929050565b60008060006060848603121561231b5761231a6120c5565b5b600061232986828701612148565b935050602061233a86828701612148565b925050604061234b86828701612148565b9150509250925092565b61235e816121aa565b811461236957600080fd5b50565b60008135905061237b81612355565b92915050565b600060208284031215612397576123966120c5565b5b60006123a58482850161236c565b91505092915050565b600082825260208201905092915050565b7f4f776e61626c653a2063616c6c6572206973206e6f7420746865206f776e6572600082015250565b60006123f56020836123ae565b9150612400826123bf565b602082019050919050565b60006020820190508181036000830152612424816123e8565b9050919050565b7f41756374696f6e206e6f7420666f756e64000000000000000000000000000000600082015250565b60006124616011836123ae565b915061246c8261242b565b602082019050919050565b6000602082019050818103600083015261249081612454565b9050919050565b7f4e487b7100000000000000000000000000000000000000000000000000000000600052601160045260246000fd5b60006124d182612007565b91506124dc83612007565b9250817fffffffffffffffffffffffffffffffffffffffffffffffffffffffffffffffff048311821515161561251557612514612497565b5b828202905092915050565b7f41756374696f6e20656e64656400000000000000000000000000000000000000600082015250565b6000612556600d836123ae565b915061256182612520565b602082019050919050565b6000602082019050818103600083015261258581612549565b9050919050565b7f4e487b7100000000000000000000000000000000000000000000000000000000600052601260045260246000fd5b60006125c682612007565b91506125d183612007565b9250826125e1576125e061258c565b5b828204905092915050565b7f496e636f72726563742076616c75650000000000000000000000000000000000600082015250565b6000612622600f836123ae565b915061262d826125ec565b602082019050919050565b6000602082019050818103600083015261265181612615565b9050919050565b61266181612007565b82525050565b600060408201905061267c6000830185612658565b612689602083018461224e565b9392505050565b7f4e6f74206f776e65720000000000000000000000000000000000000000000000600082015250565b60006126c66009836123ae565b91506126d182612690565b602082019050919050565b600060208201905081810360008301526126f5816126b9565b9050919050565b7f43616e27742063616e63656c20746869732061756374696f6e00000000000000600082015250565b60006127326019836123ae565b915061273d826126fc565b602082019050919050565b6000602082019050818103600083015261276181612725565b9050919050565b600060608201905061277d600083018661224e565b61278a602083018561224e565b6127976040830184612658565b949350505050565b60006020820190506127b46000830184612658565b92915050565b6000815190506127c981612355565b92915050565b6000602082840312156127e5576127e46120c5565b5b60006127f3848285016127ba565b91505092915050565b7f5072696365207a65726f00000000000000000000000000000000000000000000600082015250565b6000612832600a836123ae565b915061283d826127fc565b602082019050919050565b6000602082019050818103600083015261286181612825565b9050919050565b7f54686572652069732061206163746976652061756374696f6e00000000000000600082015250565b600061289e6019836123ae565b91506128a982612868565b602082019050919050565b600060208201905081810360008301526128cd81612891565b9050919050565b60006060820190506128e96000830186612658565b6128f6602083018561224e565b612903604083018461224e565b949350505050565b600061291682612007565b915061292183612007565b9250827fffffffffffffffffffffffffffffffffffffffffffffffffffffffffffffffff0382111561295657612955612497565b5b828201905092915050565b7f41756374696f6e206d757374206861766520656e642074696d65000000000000600082015250565b6000612997601a836123ae565b91506129a282612961565b602082019050919050565b600060208201905081810360008301526129c68161298a565b9050919050565b7f4d696e696d756d20507269636500000000000000000000000000000000000000600082015250565b6000612a03600d836123ae565b9150612a0e826129cd565b602082019050919050565b60006020820190508181036000830152612a32816129f6565b9050919050565b7f41756374696f6e20616c72656164792063726561746564000000000000000000600082015250565b6000612a6f6017836123ae565b9150612a7a82612a39565b602082019050919050565b60006020820190508181036000830152612a9e81612a62565b9050919050565b7f4865726f2069732073656c6c696e670000000000000000000000000000000000600082015250565b6000612adb600f836123ae565b9150612ae682612aa5565b602082019050919050565b60006020820190508181036000830152612b0a81612ace565b9050919050565b6000608082019050612b266000830187612658565b612b336020830186612658565b612b40604083018561224e565b612b4d606083018461224e565b95945050505050565b7f41756374696f6e206e6f7420656e646564000000000000000000000000000000600082015250565b6000612b8c6011836123ae565b9150612b9782612b56565b602082019050919050565b60006020820190508181036000830152612bbb81612b7f565b9050919050565b6000819050919050565b6000819050919050565b6000612bf1612bec612be784612bc2565b612bcc565b612007565b9050919050565b612c0181612bd6565b82525050565b6000604082019050612c1c6000830185612bf8565b612c29602083018461224e565b9392505050565b7f4865726f206e6f7420666f722073616c65000000000000000000000000000000600082015250565b6000612c666011836123ae565b9150612c7182612c30565b602082019050919050565b60006020820190508181036000830152612c9581612c59565b9050919050565b7f4f776e61626c653a206e6577206f776e657220697320746865207a65726f206160008201527f6464726573730000000000000000000000000000000000000000000000000000602082015250565b6000612cf86026836123ae565b9150612d0382612c9c565b604082019050919050565b60006020820190508181036000830152612d2781612ceb565b9050919050565b6000612d3982612007565b9150612d4483612007565b925082821015612d5757612d56612497565b5b828203905092915050565b7f4e487b7100000000000000000000000000000000000000000000000000000000600052603260045260246000fd5b7f4e487b7100000000000000000000000000000000000000000000000000000000600052603160045260246000fd5b6000612dcb82612007565b91507fffffffffffffffffffffffffffffffffffffffffffffffffffffffffffffffff821415612dfe57612dfd612497565b5b60018201905091905056fea2646970667358221220ed647b963aa99ae03e5633e10e71d6b9d07635e8aec1bb0722dab621e7d4938f64736f6c63430008090033",
  "immutableReferences": {},
  "source": "// SPDX-License-Identifier: MIT\npragma solidity 0.8.9;\n\nimport \"../node_modules/@openzeppelin/contracts/access/Ownable.sol\";\nimport \"../node_modules/@openzeppelin/contracts/token/ERC721/IERC721.sol\";\n\ncontract Market is Ownable {\n    event NewAuction(\n        uint256 indexed tokenId,\n        uint256 endTime,\n        uint256 minValue,\n        address seller,\n        address newOwner\n    );\n    event NewBid(uint256 indexed tokenId, uint256 value, address bidder);\n    event CancelAuction(uint256 indexed tokenId, address newOwner);\n    event AuctionEnded(uint256 indexed tokenId, uint256 currValue, address newOwner);\n\n    event NewSellingItem(uint256 indexed tokenId, uint256 value, address seller, address newOwner);\n    event CancelSellingItem(uint256 indexed tokenId, address newOwner);\n    event ItemBought(uint256 indexed tokenId, uint256 value, address newOwner);\n\n    address private _gameTokenAddress;\n\n    struct Auction {\n        uint256 endTime;\n        uint256 minValue;\n        uint256 currValue;\n        address seller;\n        address lastBidAddress;\n    }\n\n    struct SellItem {\n        uint256 value;\n        address seller;\n    }\n\n    mapping(uint256 => SellItem) private _sellingHeroes;\n    mapping(uint256 => Auction) private _sellingHeroesAuction;\n\n    uint256[] private _sellingHeroesIds;\n\n    uint16 private _minBidIncrement = 110;\n    uint16 private _minAuctionTime = 60;\n\n    constructor(address gameTokenAddress) {\n        _gameTokenAddress = gameTokenAddress;\n    }\n\n    function setMinBidIncrement(uint16 _newMinBidIncrement) public onlyOwner {\n        _minBidIncrement = _newMinBidIncrement;\n    }\n\n    function setMinAuctionTime(uint16 _newMinAuctionTime) public onlyOwner {\n        _minAuctionTime = _newMinAuctionTime;\n    }\n\n    function getSellingHeroesIds() public view returns (uint256[] memory) {\n        return _sellingHeroesIds;\n    }\n\n    function getAuction(uint256 _heroId)\n        external\n        view\n        returns (Auction memory)\n    {\n        return _sellingHeroesAuction[_heroId];\n    }\n\n    function getSelling(uint256 _heroId)\n        external\n        view\n        returns (SellItem memory)\n    {\n        return _sellingHeroes[_heroId];\n    }\n\n    function allowBuy(uint256 _heroId, uint256 _price) external {\n        require(\n            msg.sender == IERC721(_gameTokenAddress).ownerOf(_heroId),\n            \"Not owner\"\n        );\n        require(_price > 0, \"Price zero\");\n\n        require(\n            _sellingHeroesAuction[_heroId].endTime <= 0,\n            \"There is a active auction\"\n        );\n\n        IERC721(_gameTokenAddress).transferFrom(\n            msg.sender,\n            address(this),\n            _heroId\n        );\n\n        _sellingHeroes[_heroId] = SellItem(_price, msg.sender);\n        _sellingHeroesIds.push(_heroId);\n\n        emit NewSellingItem(_heroId, _price, msg.sender, address(this));\n    }\n\n    function disallowBuy(uint256 _heroId) external {\n        require(_sellingHeroes[_heroId].seller == msg.sender, \"Not owner\");\n\n        IERC721(_gameTokenAddress).transferFrom(\n            address(this),\n            msg.sender,\n            _heroId\n        );\n\n        delete _sellingHeroes[_heroId];\n        _removeSellingHeroesIds(_heroId);\n\n        emit CancelSellingItem(_heroId, msg.sender);\n    }\n\n    function buy(uint256 _heroId) external payable {\n        require(_sellingHeroes[_heroId].value > 0, \"Hero not for sale\");\n        require(_sellingHeroes[_heroId].value == msg.value, \"Incorrect value\");\n\n        payable(_sellingHeroes[_heroId].seller).transfer(msg.value);\n\n        IERC721(_gameTokenAddress).transferFrom(\n            address(this),\n            msg.sender,\n            _heroId\n        );\n\n        delete _sellingHeroes[_heroId];\n        _removeSellingHeroesIds(_heroId);\n\n        emit ItemBought(_heroId, msg.value, msg.sender);\n    }\n\n    function createAuction(\n        uint256 _heroId,\n        uint256 _endTime,\n        uint256 _minPrice\n    ) external {\n        require(\n            msg.sender == IERC721(_gameTokenAddress).ownerOf(_heroId),\n            \"Not owner\"\n        );\n        require(\n            _endTime >= (block.timestamp + _minAuctionTime) * 1_000,\n            \"Auction must have end time\"\n        );\n        require(_minPrice > 0, \"Minimum Price\");\n        require(\n            _sellingHeroesAuction[_heroId].endTime <= 0,\n            \"Auction already created\"\n        );\n        require(_sellingHeroes[_heroId].value <= 0, \"Hero is selling\");\n\n        IERC721(_gameTokenAddress).transferFrom(\n            msg.sender,\n            address(this),\n            _heroId\n        );\n\n        _sellingHeroesAuction[_heroId] = Auction(\n            _endTime,\n            _minPrice,\n            0,\n            msg.sender,\n            address(0)\n        );\n        _sellingHeroesIds.push(_heroId);\n\n        emit NewAuction(_heroId, _endTime, _minPrice, msg.sender, address(this));\n    }\n\n    function cancelAuction(uint256 _heroId) external {\n        require(\n            _sellingHeroesAuction[_heroId].seller == msg.sender,\n            \"Not owner\"\n        );\n\n        require(\n            _sellingHeroesAuction[_heroId].currValue <= 0,\n            \"Can't cancel this auction\"\n        );\n\n        IERC721(_gameTokenAddress).transferFrom(\n            address(this),\n            msg.sender,\n            _heroId\n        );\n\n        delete _sellingHeroesAuction[_heroId];\n        _removeSellingHeroesIds(_heroId);\n\n        emit CancelAuction(_heroId, msg.sender);\n    }\n\n    function bid(uint256 _heroId) external payable {\n        Auction storage auction = _sellingHeroesAuction[_heroId];\n        require(\n            _sellingHeroesAuction[_heroId].endTime > 0,\n            \"Auction not found\"\n        );\n        require(auction.endTime > block.timestamp * 1_000, \"Auction ended\");\n        require(\n            msg.value >= uint256((auction.currValue * _minBidIncrement) / 100),\n            \"Incorrect value\"\n        );\n\n        //payable(address(this)).transfer(msg.value);\n\n        if (auction.lastBidAddress != address(0)) {\n            payable(auction.lastBidAddress).transfer(auction.currValue);\n        }\n\n        auction.currValue = msg.value;\n        auction.lastBidAddress = msg.sender;\n\n        emit NewBid(_heroId, msg.value, msg.sender);\n    }\n\n    function finishAuction(uint256 _heroId) external {\n        require(\n            _sellingHeroesAuction[_heroId].endTime > 0,\n            \"Auction not found\"\n        );\n        require(\n            _sellingHeroesAuction[_heroId].endTime <= block.timestamp * 1_000,\n            \"Auction not ended\"\n        );\n\n        if (_sellingHeroesAuction[_heroId].currValue > 0) {\n            payable(_sellingHeroesAuction[_heroId].seller).transfer(\n                _sellingHeroesAuction[_heroId].currValue\n            );\n            IERC721(_gameTokenAddress).transferFrom(\n                address(this),\n                _sellingHeroesAuction[_heroId].lastBidAddress,\n                _heroId\n            );\n        } else {\n            IERC721(_gameTokenAddress).transferFrom(\n                address(this),\n                _sellingHeroesAuction[_heroId].seller,\n                _heroId\n            );\n        }\n\n        _removeSellingHeroesIds(_heroId);\n\n        if (_sellingHeroesAuction[_heroId].currValue > 0) {\n            emit AuctionEnded(_heroId, _sellingHeroesAuction[_heroId].currValue, _sellingHeroesAuction[_heroId].lastBidAddress);\n        } else {\n            emit AuctionEnded(_heroId, 0, _sellingHeroesAuction[_heroId].seller);\n        }\n\n        delete _sellingHeroesAuction[_heroId];\n    }\n\n    function _removeSellingHeroesIds(uint256 _heroId) internal {\n        uint256 index = _getIndexSellingHeroesIds(_heroId);\n\n        require(index < _sellingHeroesIds.length);\n        _sellingHeroesIds[index] = _sellingHeroesIds[\n            _sellingHeroesIds.length - 1\n        ];\n        _sellingHeroesIds.pop();\n    }\n\n    function _getIndexSellingHeroesIds(uint256 _heroId)\n        internal view\n        returns (uint256)\n    {\n        for (uint256 i = 0; i < _sellingHeroesIds.length; i++) {\n            if (_heroId == _sellingHeroesIds[i]) {\n                return i;\n            }\n        }\n        return _sellingHeroesIds.length;\n    }\n\n    function receiver() external payable {}\n}\n",
  "sourcePath": "/home/rfaita/game/nft-game/contract/contracts/Market.sol",
  "compiler": {
    "name": "solc",
    "version": "0.8.9+commit.e5eed63a.Emscripten.clang"
  },
  "schemaVersion": "3.4.4",
  "updatedAt": "2022-03-07T14:42:55.930Z",
  "networkType": "ethereum",
  "devdoc": {
    "kind": "dev",
    "methods": {
      "owner()": {
        "details": "Returns the address of the current owner."
      },
      "renounceOwnership()": {
        "details": "Leaves the contract without owner. It will not be possible to call `onlyOwner` functions anymore. Can only be called by the current owner. NOTE: Renouncing ownership will leave the contract without an owner, thereby removing any functionality that is only available to the owner."
      },
      "transferOwnership(address)": {
        "details": "Transfers ownership of the contract to a new account (`newOwner`). Can only be called by the current owner."
      }
    },
    "version": 1
  },
  "userdoc": {
    "kind": "user",
    "methods": {},
    "version": 1
  }
}