{
  "contractName": "Market",
  "abi": [
    {
      "inputs": [
        {
          "internalType": "address",
          "name": "gameTokenAddress",
          "type": "address"
        }
      ],
      "stateMutability": "nonpayable",
      "type": "constructor"
    },
    {
      "anonymous": false,
      "inputs": [
        {
          "indexed": true,
          "internalType": "uint256",
          "name": "tokenId",
          "type": "uint256"
        },
        {
          "indexed": true,
          "internalType": "uint256",
          "name": "currValue",
          "type": "uint256"
        }
      ],
      "name": "AuctionEnded",
      "type": "event"
    },
    {
      "anonymous": false,
      "inputs": [
        {
          "indexed": true,
          "internalType": "uint256",
          "name": "tokenId",
          "type": "uint256"
        }
      ],
      "name": "CancelAuction",
      "type": "event"
    },
    {
      "anonymous": false,
      "inputs": [
        {
          "indexed": true,
          "internalType": "uint256",
          "name": "tokenId",
          "type": "uint256"
        }
      ],
      "name": "CancelSellingItem",
      "type": "event"
    },
    {
      "anonymous": false,
      "inputs": [
        {
          "indexed": true,
          "internalType": "uint256",
          "name": "tokenId",
          "type": "uint256"
        },
        {
          "indexed": true,
          "internalType": "uint256",
          "name": "value",
          "type": "uint256"
        }
      ],
      "name": "ItemBought",
      "type": "event"
    },
    {
      "anonymous": false,
      "inputs": [
        {
          "indexed": true,
          "internalType": "uint256",
          "name": "tokenId",
          "type": "uint256"
        },
        {
          "indexed": true,
          "internalType": "uint256",
          "name": "endTime",
          "type": "uint256"
        },
        {
          "indexed": true,
          "internalType": "uint256",
          "name": "minValue",
          "type": "uint256"
        }
      ],
      "name": "NewAuction",
      "type": "event"
    },
    {
      "anonymous": false,
      "inputs": [
        {
          "indexed": true,
          "internalType": "uint256",
          "name": "tokenId",
          "type": "uint256"
        },
        {
          "indexed": true,
          "internalType": "uint256",
          "name": "value",
          "type": "uint256"
        }
      ],
      "name": "NewBid",
      "type": "event"
    },
    {
      "anonymous": false,
      "inputs": [
        {
          "indexed": true,
          "internalType": "uint256",
          "name": "tokenId",
          "type": "uint256"
        },
        {
          "indexed": true,
          "internalType": "uint256",
          "name": "value",
          "type": "uint256"
        }
      ],
      "name": "NewSellingItem",
      "type": "event"
    },
    {
      "anonymous": false,
      "inputs": [
        {
          "indexed": true,
          "internalType": "address",
          "name": "previousOwner",
          "type": "address"
        },
        {
          "indexed": true,
          "internalType": "address",
          "name": "newOwner",
          "type": "address"
        }
      ],
      "name": "OwnershipTransferred",
      "type": "event"
    },
    {
      "inputs": [],
      "name": "owner",
      "outputs": [
        {
          "internalType": "address",
          "name": "",
          "type": "address"
        }
      ],
      "stateMutability": "view",
      "type": "function",
      "constant": true
    },
    {
      "inputs": [],
      "name": "renounceOwnership",
      "outputs": [],
      "stateMutability": "nonpayable",
      "type": "function"
    },
    {
      "inputs": [
        {
          "internalType": "address",
          "name": "newOwner",
          "type": "address"
        }
      ],
      "name": "transferOwnership",
      "outputs": [],
      "stateMutability": "nonpayable",
      "type": "function"
    },
    {
      "inputs": [
        {
          "internalType": "uint16",
          "name": "_newMinBidIncrement",
          "type": "uint16"
        }
      ],
      "name": "setMinBidIncrement",
      "outputs": [],
      "stateMutability": "nonpayable",
      "type": "function"
    },
    {
      "inputs": [
        {
          "internalType": "uint16",
          "name": "_newMinAuctionTime",
          "type": "uint16"
        }
      ],
      "name": "setMinAuctionTime",
      "outputs": [],
      "stateMutability": "nonpayable",
      "type": "function"
    },
    {
      "inputs": [
        {
          "internalType": "uint256",
          "name": "_heroId",
          "type": "uint256"
        }
      ],
      "name": "getAuction",
      "outputs": [
        {
          "components": [
            {
              "internalType": "uint256",
              "name": "endTime",
              "type": "uint256"
            },
            {
              "internalType": "uint256",
              "name": "minValue",
              "type": "uint256"
            },
            {
              "internalType": "uint256",
              "name": "currValue",
              "type": "uint256"
            },
            {
              "internalType": "address",
              "name": "seller",
              "type": "address"
            },
            {
              "internalType": "address",
              "name": "lastBidAddress",
              "type": "address"
            }
          ],
          "internalType": "struct Market.Auction",
          "name": "",
          "type": "tuple"
        }
      ],
      "stateMutability": "view",
      "type": "function",
      "constant": true
    },
    {
      "inputs": [
        {
          "internalType": "uint256",
          "name": "_heroId",
          "type": "uint256"
        }
      ],
      "name": "getSelling",
      "outputs": [
        {
          "components": [
            {
              "internalType": "uint256",
              "name": "value",
              "type": "uint256"
            },
            {
              "internalType": "address",
              "name": "seller",
              "type": "address"
            }
          ],
          "internalType": "struct Market.SellItem",
          "name": "",
          "type": "tuple"
        }
      ],
      "stateMutability": "view",
      "type": "function",
      "constant": true
    },
    {
      "inputs": [
        {
          "internalType": "uint256",
          "name": "_heroId",
          "type": "uint256"
        },
        {
          "internalType": "uint256",
          "name": "_price",
          "type": "uint256"
        }
      ],
      "name": "allowBuy",
      "outputs": [],
      "stateMutability": "nonpayable",
      "type": "function"
    },
    {
      "inputs": [
        {
          "internalType": "uint256",
          "name": "_heroId",
          "type": "uint256"
        }
      ],
      "name": "disallowBuy",
      "outputs": [],
      "stateMutability": "nonpayable",
      "type": "function"
    },
    {
      "inputs": [
        {
          "internalType": "uint256",
          "name": "_heroId",
          "type": "uint256"
        }
      ],
      "name": "buy",
      "outputs": [],
      "stateMutability": "payable",
      "type": "function",
      "payable": true
    },
    {
      "inputs": [
        {
          "internalType": "uint256",
          "name": "_heroId",
          "type": "uint256"
        },
        {
          "internalType": "uint256",
          "name": "_endTime",
          "type": "uint256"
        },
        {
          "internalType": "uint256",
          "name": "_minPrice",
          "type": "uint256"
        }
      ],
      "name": "createAuction",
      "outputs": [],
      "stateMutability": "nonpayable",
      "type": "function"
    },
    {
      "inputs": [
        {
          "internalType": "uint256",
          "name": "_heroId",
          "type": "uint256"
        }
      ],
      "name": "cancelAuction",
      "outputs": [],
      "stateMutability": "nonpayable",
      "type": "function"
    },
    {
      "inputs": [
        {
          "internalType": "uint256",
          "name": "_heroId",
          "type": "uint256"
        }
      ],
      "name": "bid",
      "outputs": [],
      "stateMutability": "payable",
      "type": "function",
      "payable": true
    },
    {
      "inputs": [
        {
          "internalType": "uint256",
          "name": "_heroId",
          "type": "uint256"
        }
      ],
      "name": "finishAuction",
      "outputs": [],
      "stateMutability": "nonpayable",
      "type": "function"
    },
    {
      "inputs": [],
      "name": "receiver",
      "outputs": [],
      "stateMutability": "payable",
      "type": "function",
      "payable": true
    }
  ],
  "bytecode": "0x6080604052606e600460006101000a81548161ffff021916908361ffff160217905550603c600460026101000a81548161ffff021916908361ffff1602179055503480156200004d57600080fd5b50604051620029de380380620029de833981810160405281019062000073919062000211565b6200009362000087620000db60201b60201c565b620000e360201b60201c565b80600160006101000a81548173ffffffffffffffffffffffffffffffffffffffff021916908373ffffffffffffffffffffffffffffffffffffffff1602179055505062000243565b600033905090565b60008060009054906101000a900473ffffffffffffffffffffffffffffffffffffffff169050816000806101000a81548173ffffffffffffffffffffffffffffffffffffffff021916908373ffffffffffffffffffffffffffffffffffffffff1602179055508173ffffffffffffffffffffffffffffffffffffffff168173ffffffffffffffffffffffffffffffffffffffff167f8be0079c531659141344cd1fd0a4f28419497f9722a3daafe3b4186f6b6457e060405160405180910390a35050565b600080fd5b600073ffffffffffffffffffffffffffffffffffffffff82169050919050565b6000620001d982620001ac565b9050919050565b620001eb81620001cc565b8114620001f757600080fd5b50565b6000815190506200020b81620001e0565b92915050565b6000602082840312156200022a5762000229620001a7565b5b60006200023a84828501620001fa565b91505092915050565b61278b80620002536000396000f3fe6080604052600436106100e85760003560e01c8063b364acd61161008a578063d499131211610059578063d4991312146102bb578063d96a094a146102e4578063f2fde38b14610300578063f7260d3e14610329576100e8565b8063b364acd614610203578063bbb5e8d314610240578063cda4beef14610269578063cf266ed014610292576100e8565b8063715018a6116100c6578063715018a61461015b57806378bd7935146101725780638da5cb5b146101af57806396b5a755146101da576100e8565b8063145c0cc2146100ed57806322f535a714610116578063454a2ab31461013f575b600080fd5b3480156100f957600080fd5b50610114600480360381019061010f9190611c25565b610333565b005b34801561012257600080fd5b5061013d60048036038101906101389190611c25565b6103cf565b005b61015960048036038101906101549190611c88565b61046b565b005b34801561016757600080fd5b506101706106e6565b005b34801561017e57600080fd5b5061019960048036038101906101949190611c88565b61076e565b6040516101a69190611d6d565b60405180910390f35b3480156101bb57600080fd5b506101c4610865565b6040516101d19190611d97565b60405180910390f35b3480156101e657600080fd5b5061020160048036038101906101fc9190611c88565b61088e565b005b34801561020f57600080fd5b5061022a60048036038101906102259190611c88565b610ac9565b6040516102379190611de1565b60405180910390f35b34801561024c57600080fd5b5061026760048036038101906102629190611dfc565b610b56565b005b34801561027557600080fd5b50610290600480360381019061028b9190611e3c565b610e60565b005b34801561029e57600080fd5b506102b960048036038101906102b49190611c88565b6112ba565b005b3480156102c757600080fd5b506102e260048036038101906102dd9190611c88565b6115b6565b005b6102fe60048036038101906102f99190611c88565b611760565b005b34801561030c57600080fd5b5061032760048036038101906103229190611ebb565b611995565b005b610331611a8d565b005b61033b611a8f565b73ffffffffffffffffffffffffffffffffffffffff16610359610865565b73ffffffffffffffffffffffffffffffffffffffff16146103af576040517f08c379a00000000000000000000000000000000000000000000000000000000081526004016103a690611f45565b60405180910390fd5b80600460006101000a81548161ffff021916908361ffff16021790555050565b6103d7611a8f565b73ffffffffffffffffffffffffffffffffffffffff166103f5610865565b73ffffffffffffffffffffffffffffffffffffffff161461044b576040517f08c379a000000000000000000000000000000000000000000000000000000000815260040161044290611f45565b60405180910390fd5b80600460026101000a81548161ffff021916908361ffff16021790555050565b600060036000838152602001908152602001600020905060006003600084815260200190815260200160002060000154116104db576040517f08c379a00000000000000000000000000000000000000000000000000000000081526004016104d290611fb1565b60405180910390fd5b6103e8426104e99190612000565b81600001541161052e576040517f08c379a0000000000000000000000000000000000000000000000000000000008152600401610525906120a6565b60405180910390fd5b6064600460009054906101000a900461ffff1661ffff1682600201546105549190612000565b61055e91906120f5565b3410156105a0576040517f08c379a000000000000000000000000000000000000000000000000000000000815260040161059790612172565b60405180910390fd5b600073ffffffffffffffffffffffffffffffffffffffff168160040160009054906101000a900473ffffffffffffffffffffffffffffffffffffffff1673ffffffffffffffffffffffffffffffffffffffff1614610668578060040160009054906101000a900473ffffffffffffffffffffffffffffffffffffffff1673ffffffffffffffffffffffffffffffffffffffff166108fc82600201549081150290604051600060405180830381858888f19350505050158015610666573d6000803e3d6000fd5b505b348160020181905550338160040160006101000a81548173ffffffffffffffffffffffffffffffffffffffff021916908373ffffffffffffffffffffffffffffffffffffffff16021790555034827f632f5622fa7b1e8ef1a95c87de56ccc3584d8bc0f17283a3ad0ff221aa4cc61260405160405180910390a35050565b6106ee611a8f565b73ffffffffffffffffffffffffffffffffffffffff1661070c610865565b73ffffffffffffffffffffffffffffffffffffffff1614610762576040517f08c379a000000000000000000000000000000000000000000000000000000000815260040161075990611f45565b60405180910390fd5b61076c6000611a97565b565b610776611b5b565b600360008381526020019081526020016000206040518060a00160405290816000820154815260200160018201548152602001600282015481526020016003820160009054906101000a900473ffffffffffffffffffffffffffffffffffffffff1673ffffffffffffffffffffffffffffffffffffffff1673ffffffffffffffffffffffffffffffffffffffff1681526020016004820160009054906101000a900473ffffffffffffffffffffffffffffffffffffffff1673ffffffffffffffffffffffffffffffffffffffff1673ffffffffffffffffffffffffffffffffffffffff16815250509050919050565b60008060009054906101000a900473ffffffffffffffffffffffffffffffffffffffff16905090565b3373ffffffffffffffffffffffffffffffffffffffff166003600083815260200190815260200160002060030160009054906101000a900473ffffffffffffffffffffffffffffffffffffffff1673ffffffffffffffffffffffffffffffffffffffff1614610932576040517f08c379a0000000000000000000000000000000000000000000000000000000008152600401610929906121de565b60405180910390fd5b60006003600083815260200190815260200160002060020154111561098c576040517f08c379a00000000000000000000000000000000000000000000000000000000081526004016109839061224a565b60405180910390fd5b600160009054906101000a900473ffffffffffffffffffffffffffffffffffffffff1673ffffffffffffffffffffffffffffffffffffffff166323b872dd3033846040518463ffffffff1660e01b81526004016109eb93929190612279565b600060405180830381600087803b158015610a0557600080fd5b505af1158015610a19573d6000803e3d6000fd5b5050505060036000828152602001908152602001600020600080820160009055600182016000905560028201600090556003820160006101000a81549073ffffffffffffffffffffffffffffffffffffffff02191690556004820160006101000a81549073ffffffffffffffffffffffffffffffffffffffff02191690555050807fbea0e66c2d42b9131695ceea7d1aaa21b37e93070cde19c9b5fbd686a325929260405160405180910390a250565b610ad1611bb6565b60026000838152602001908152602001600020604051806040016040529081600082015481526020016001820160009054906101000a900473ffffffffffffffffffffffffffffffffffffffff1673ffffffffffffffffffffffffffffffffffffffff1673ffffffffffffffffffffffffffffffffffffffff16815250509050919050565b600160009054906101000a900473ffffffffffffffffffffffffffffffffffffffff1673ffffffffffffffffffffffffffffffffffffffff16636352211e836040518263ffffffff1660e01b8152600401610bb191906122b0565b60206040518083038186803b158015610bc957600080fd5b505afa158015610bdd573d6000803e3d6000fd5b505050506040513d601f19601f82011682018060405250810190610c0191906122e0565b73ffffffffffffffffffffffffffffffffffffffff163373ffffffffffffffffffffffffffffffffffffffff1614610c6e576040517f08c379a0000000000000000000000000000000000000000000000000000000008152600401610c65906121de565b60405180910390fd5b60008111610cb1576040517f08c379a0000000000000000000000000000000000000000000000000000000008152600401610ca890612359565b60405180910390fd5b600060036000848152602001908152602001600020600001541115610d0b576040517f08c379a0000000000000000000000000000000000000000000000000000000008152600401610d02906123c5565b60405180910390fd5b600160009054906101000a900473ffffffffffffffffffffffffffffffffffffffff1673ffffffffffffffffffffffffffffffffffffffff166323b872dd3330856040518463ffffffff1660e01b8152600401610d6a93929190612279565b600060405180830381600087803b158015610d8457600080fd5b505af1158015610d98573d6000803e3d6000fd5b5050505060405180604001604052808281526020013373ffffffffffffffffffffffffffffffffffffffff16815250600260008481526020019081526020016000206000820151816000015560208201518160010160006101000a81548173ffffffffffffffffffffffffffffffffffffffff021916908373ffffffffffffffffffffffffffffffffffffffff16021790555090505080827f488b7a9271b350774f50741b22753664e5df7b2279599136d22a55021dd6b08860405160405180910390a35050565b600160009054906101000a900473ffffffffffffffffffffffffffffffffffffffff1673ffffffffffffffffffffffffffffffffffffffff16636352211e846040518263ffffffff1660e01b8152600401610ebb91906122b0565b60206040518083038186803b158015610ed357600080fd5b505afa158015610ee7573d6000803e3d6000fd5b505050506040513d601f19601f82011682018060405250810190610f0b91906122e0565b73ffffffffffffffffffffffffffffffffffffffff163373ffffffffffffffffffffffffffffffffffffffff1614610f78576040517f08c379a0000000000000000000000000000000000000000000000000000000008152600401610f6f906121de565b60405180910390fd5b6103e8600460029054906101000a900461ffff1661ffff1642610f9b91906123e5565b610fa59190612000565b821015610fe7576040517f08c379a0000000000000000000000000000000000000000000000000000000008152600401610fde90612487565b60405180910390fd5b6000811161102a576040517f08c379a0000000000000000000000000000000000000000000000000000000008152600401611021906124f3565b60405180910390fd5b600060036000858152602001908152602001600020600001541115611084576040517f08c379a000000000000000000000000000000000000000000000000000000000815260040161107b9061255f565b60405180910390fd5b6000600260008581526020019081526020016000206000015411156110de576040517f08c379a00000000000000000000000000000000000000000000000000000000081526004016110d5906125cb565b60405180910390fd5b600160009054906101000a900473ffffffffffffffffffffffffffffffffffffffff1673ffffffffffffffffffffffffffffffffffffffff166323b872dd3330866040518463ffffffff1660e01b815260040161113d93929190612279565b600060405180830381600087803b15801561115757600080fd5b505af115801561116b573d6000803e3d6000fd5b505050506040518060a00160405280838152602001828152602001600081526020013373ffffffffffffffffffffffffffffffffffffffff168152602001600073ffffffffffffffffffffffffffffffffffffffff168152506003600085815260200190815260200160002060008201518160000155602082015181600101556040820151816002015560608201518160030160006101000a81548173ffffffffffffffffffffffffffffffffffffffff021916908373ffffffffffffffffffffffffffffffffffffffff16021790555060808201518160040160006101000a81548173ffffffffffffffffffffffffffffffffffffffff021916908373ffffffffffffffffffffffffffffffffffffffff1602179055509050508082847f0114aab713235b737f82de882833e128d244e12c1b0967b9c49748c123a6f4b160405160405180910390a4505050565b6000600360008381526020019081526020016000206000015411611313576040517f08c379a000000000000000000000000000000000000000000000000000000000815260040161130a90611fb1565b60405180910390fd5b6103e8426113219190612000565b60036000838152602001908152602001600020600001541115611379576040517f08c379a000000000000000000000000000000000000000000000000000000000815260040161137090612637565b60405180910390fd5b6000600360008381526020019081526020016000206002015411156114f3576003600082815260200190815260200160002060030160009054906101000a900473ffffffffffffffffffffffffffffffffffffffff1673ffffffffffffffffffffffffffffffffffffffff166108fc60036000848152602001908152602001600020600201549081150290604051600060405180830381858888f1935050505015801561142a573d6000803e3d6000fd5b50600160009054906101000a900473ffffffffffffffffffffffffffffffffffffffff1673ffffffffffffffffffffffffffffffffffffffff166323b872dd306003600085815260200190815260200160002060040160009054906101000a900473ffffffffffffffffffffffffffffffffffffffff16846040518463ffffffff1660e01b81526004016114c093929190612279565b600060405180830381600087803b1580156114da57600080fd5b505af11580156114ee573d6000803e3d6000fd5b505050505b60036000828152602001908152602001600020600080820160009055600182016000905560028201600090556003820160006101000a81549073ffffffffffffffffffffffffffffffffffffffff02191690556004820160006101000a81549073ffffffffffffffffffffffffffffffffffffffff021916905550506003600082815260200190815260200160002060020154817fe536ac546f86787f3ea4069f79235c6b5a681e87d051300a3ed19a6ebb0db71c60405160405180910390a350565b3373ffffffffffffffffffffffffffffffffffffffff166002600083815260200190815260200160002060010160009054906101000a900473ffffffffffffffffffffffffffffffffffffffff1673ffffffffffffffffffffffffffffffffffffffff161461165a576040517f08c379a0000000000000000000000000000000000000000000000000000000008152600401611651906121de565b60405180910390fd5b600160009054906101000a900473ffffffffffffffffffffffffffffffffffffffff1673ffffffffffffffffffffffffffffffffffffffff166323b872dd3033846040518463ffffffff1660e01b81526004016116b993929190612279565b600060405180830381600087803b1580156116d357600080fd5b505af11580156116e7573d6000803e3d6000fd5b50505050600260008281526020019081526020016000206000808201600090556001820160006101000a81549073ffffffffffffffffffffffffffffffffffffffff02191690555050807fe63f23b0335abb68fd5dc1458f74895721b44def603349328bf42b77e57c554660405160405180910390a250565b60006002600083815260200190815260200160002060000154116117b9576040517f08c379a00000000000000000000000000000000000000000000000000000000081526004016117b0906126a3565b60405180910390fd5b34600260008381526020019081526020016000206000015414611811576040517f08c379a000000000000000000000000000000000000000000000000000000000815260040161180890612172565b60405180910390fd5b6002600082815260200190815260200160002060010160009054906101000a900473ffffffffffffffffffffffffffffffffffffffff1673ffffffffffffffffffffffffffffffffffffffff166108fc349081150290604051600060405180830381858888f1935050505015801561188d573d6000803e3d6000fd5b50600160009054906101000a900473ffffffffffffffffffffffffffffffffffffffff1673ffffffffffffffffffffffffffffffffffffffff166323b872dd3033846040518463ffffffff1660e01b81526004016118ed93929190612279565b600060405180830381600087803b15801561190757600080fd5b505af115801561191b573d6000803e3d6000fd5b50505050600260008281526020019081526020016000206000808201600090556001820160006101000a81549073ffffffffffffffffffffffffffffffffffffffff0219169055505034817f6b976c255adc246807437c13d292d99f451c487fa3030acdcd671e99a7caae7560405160405180910390a350565b61199d611a8f565b73ffffffffffffffffffffffffffffffffffffffff166119bb610865565b73ffffffffffffffffffffffffffffffffffffffff1614611a11576040517f08c379a0000000000000000000000000000000000000000000000000000000008152600401611a0890611f45565b60405180910390fd5b600073ffffffffffffffffffffffffffffffffffffffff168173ffffffffffffffffffffffffffffffffffffffff161415611a81576040517f08c379a0000000000000000000000000000000000000000000000000000000008152600401611a7890612735565b60405180910390fd5b611a8a81611a97565b50565b565b600033905090565b60008060009054906101000a900473ffffffffffffffffffffffffffffffffffffffff169050816000806101000a81548173ffffffffffffffffffffffffffffffffffffffff021916908373ffffffffffffffffffffffffffffffffffffffff1602179055508173ffffffffffffffffffffffffffffffffffffffff168173ffffffffffffffffffffffffffffffffffffffff167f8be0079c531659141344cd1fd0a4f28419497f9722a3daafe3b4186f6b6457e060405160405180910390a35050565b6040518060a00160405280600081526020016000815260200160008152602001600073ffffffffffffffffffffffffffffffffffffffff168152602001600073ffffffffffffffffffffffffffffffffffffffff1681525090565b604051806040016040528060008152602001600073ffffffffffffffffffffffffffffffffffffffff1681525090565b600080fd5b600061ffff82169050919050565b611c0281611beb565b8114611c0d57600080fd5b50565b600081359050611c1f81611bf9565b92915050565b600060208284031215611c3b57611c3a611be6565b5b6000611c4984828501611c10565b91505092915050565b6000819050919050565b611c6581611c52565b8114611c7057600080fd5b50565b600081359050611c8281611c5c565b92915050565b600060208284031215611c9e57611c9d611be6565b5b6000611cac84828501611c73565b91505092915050565b611cbe81611c52565b82525050565b600073ffffffffffffffffffffffffffffffffffffffff82169050919050565b6000611cef82611cc4565b9050919050565b611cff81611ce4565b82525050565b60a082016000820151611d1b6000850182611cb5565b506020820151611d2e6020850182611cb5565b506040820151611d416040850182611cb5565b506060820151611d546060850182611cf6565b506080820151611d676080850182611cf6565b50505050565b600060a082019050611d826000830184611d05565b92915050565b611d9181611ce4565b82525050565b6000602082019050611dac6000830184611d88565b92915050565b604082016000820151611dc86000850182611cb5565b506020820151611ddb6020850182611cf6565b50505050565b6000604082019050611df66000830184611db2565b92915050565b60008060408385031215611e1357611e12611be6565b5b6000611e2185828601611c73565b9250506020611e3285828601611c73565b9150509250929050565b600080600060608486031215611e5557611e54611be6565b5b6000611e6386828701611c73565b9350506020611e7486828701611c73565b9250506040611e8586828701611c73565b9150509250925092565b611e9881611ce4565b8114611ea357600080fd5b50565b600081359050611eb581611e8f565b92915050565b600060208284031215611ed157611ed0611be6565b5b6000611edf84828501611ea6565b91505092915050565b600082825260208201905092915050565b7f4f776e61626c653a2063616c6c6572206973206e6f7420746865206f776e6572600082015250565b6000611f2f602083611ee8565b9150611f3a82611ef9565b602082019050919050565b60006020820190508181036000830152611f5e81611f22565b9050919050565b7f41756374696f6e206e6f7420666f756e64000000000000000000000000000000600082015250565b6000611f9b601183611ee8565b9150611fa682611f65565b602082019050919050565b60006020820190508181036000830152611fca81611f8e565b9050919050565b7f4e487b7100000000000000000000000000000000000000000000000000000000600052601160045260246000fd5b600061200b82611c52565b915061201683611c52565b9250817fffffffffffffffffffffffffffffffffffffffffffffffffffffffffffffffff048311821515161561204f5761204e611fd1565b5b828202905092915050565b7f41756374696f6e20656e64656400000000000000000000000000000000000000600082015250565b6000612090600d83611ee8565b915061209b8261205a565b602082019050919050565b600060208201905081810360008301526120bf81612083565b9050919050565b7f4e487b7100000000000000000000000000000000000000000000000000000000600052601260045260246000fd5b600061210082611c52565b915061210b83611c52565b92508261211b5761211a6120c6565b5b828204905092915050565b7f496e636f72726563742076616c75650000000000000000000000000000000000600082015250565b600061215c600f83611ee8565b915061216782612126565b602082019050919050565b6000602082019050818103600083015261218b8161214f565b9050919050565b7f4e6f74206f776e65720000000000000000000000000000000000000000000000600082015250565b60006121c8600983611ee8565b91506121d382612192565b602082019050919050565b600060208201905081810360008301526121f7816121bb565b9050919050565b7f43616e27742063616e63656c20746869732061756374696f6e00000000000000600082015250565b6000612234601983611ee8565b915061223f826121fe565b602082019050919050565b6000602082019050818103600083015261226381612227565b9050919050565b61227381611c52565b82525050565b600060608201905061228e6000830186611d88565b61229b6020830185611d88565b6122a8604083018461226a565b949350505050565b60006020820190506122c5600083018461226a565b92915050565b6000815190506122da81611e8f565b92915050565b6000602082840312156122f6576122f5611be6565b5b6000612304848285016122cb565b91505092915050565b7f5072696365207a65726f00000000000000000000000000000000000000000000600082015250565b6000612343600a83611ee8565b915061234e8261230d565b602082019050919050565b6000602082019050818103600083015261237281612336565b9050919050565b7f54686572652069732061206163746976652061756374696f6e00000000000000600082015250565b60006123af601983611ee8565b91506123ba82612379565b602082019050919050565b600060208201905081810360008301526123de816123a2565b9050919050565b60006123f082611c52565b91506123fb83611c52565b9250827fffffffffffffffffffffffffffffffffffffffffffffffffffffffffffffffff038211156124305761242f611fd1565b5b828201905092915050565b7f41756374696f6e206d757374206861766520656e642074696d65000000000000600082015250565b6000612471601a83611ee8565b915061247c8261243b565b602082019050919050565b600060208201905081810360008301526124a081612464565b9050919050565b7f4d696e696d756d20507269636500000000000000000000000000000000000000600082015250565b60006124dd600d83611ee8565b91506124e8826124a7565b602082019050919050565b6000602082019050818103600083015261250c816124d0565b9050919050565b7f41756374696f6e20616c72656164792063726561746564000000000000000000600082015250565b6000612549601783611ee8565b915061255482612513565b602082019050919050565b600060208201905081810360008301526125788161253c565b9050919050565b7f4865726f2069732073656c6c696e670000000000000000000000000000000000600082015250565b60006125b5600f83611ee8565b91506125c08261257f565b602082019050919050565b600060208201905081810360008301526125e4816125a8565b9050919050565b7f41756374696f6e206e6f7420656e646564000000000000000000000000000000600082015250565b6000612621601183611ee8565b915061262c826125eb565b602082019050919050565b6000602082019050818103600083015261265081612614565b9050919050565b7f4865726f206e6f7420666f722073616c65000000000000000000000000000000600082015250565b600061268d601183611ee8565b915061269882612657565b602082019050919050565b600060208201905081810360008301526126bc81612680565b9050919050565b7f4f776e61626c653a206e6577206f776e657220697320746865207a65726f206160008201527f6464726573730000000000000000000000000000000000000000000000000000602082015250565b600061271f602683611ee8565b915061272a826126c3565b604082019050919050565b6000602082019050818103600083015261274e81612712565b905091905056fea2646970667358221220e3ddef286f5134fef9fe3ca3d42223f5cefa7b1b9526f70b60b7613b2c249e2464736f6c63430008090033",
  "immutableReferences": {},
  "source": "pragma solidity 0.8.9;\n\nimport \"../node_modules/@openzeppelin/contracts/access/Ownable.sol\";\nimport \"../node_modules/@openzeppelin/contracts/token/ERC721/IERC721.sol\";\n\ncontract Market is Ownable {\n\n    event NewAuction(uint256 indexed tokenId, uint256 indexed endTime, uint256 indexed minValue);\n    event NewBid(uint256 indexed tokenId, uint256 indexed value);\n    event CancelAuction(uint256 indexed tokenId);\n    event AuctionEnded(uint256 indexed tokenId, uint256 indexed currValue);\n\n    event NewSellingItem(uint256 indexed tokenId, uint256 indexed value);\n    event CancelSellingItem(uint256 indexed tokenId);\n    event ItemBought(uint256 indexed tokenId, uint256 indexed value);\n\n    address private _gameTokenAddress;\n\n    struct Auction {\n        uint256 endTime;\n        uint256 minValue;\n        uint256 currValue;\n        address seller;\n        address lastBidAddress;\n    }\n\n    struct SellItem {\n        uint256 value;\n        address seller;\n    }\n\n    mapping(uint256 => SellItem) private _sellingHeroes;\n    mapping(uint256 => Auction) private _sellingHeroesAuction;\n\n    uint16 private _minBidIncrement = 110;\n    uint16 private _minAuctionTime = 60;\n\n    constructor(address gameTokenAddress) {\n        _gameTokenAddress = gameTokenAddress;\n    }\n\n    function setMinBidIncrement(uint16 _newMinBidIncrement) public onlyOwner {\n        _minBidIncrement = _newMinBidIncrement;\n    }\n\n    function setMinAuctionTime(uint16 _newMinAuctionTime) public onlyOwner {\n        _minAuctionTime = _newMinAuctionTime;\n    }\n\n    function getAuction(uint256 _heroId)\n        external\n        view\n        returns (Auction memory)\n    {\n        return _sellingHeroesAuction[_heroId];\n    }\n\n    function getSelling(uint256 _heroId)\n        external\n        view\n        returns (SellItem memory)\n    {\n        return _sellingHeroes[_heroId];\n    }\n\n    function allowBuy(uint256 _heroId, uint256 _price) external {\n        require(msg.sender == IERC721(_gameTokenAddress).ownerOf(_heroId), \"Not owner\");\n        require(_price > 0, \"Price zero\");\n\n        require(\n            _sellingHeroesAuction[_heroId].endTime <= 0,\n            \"There is a active auction\"\n        );\n\n        IERC721(_gameTokenAddress).transferFrom(msg.sender, address(this), _heroId);\n\n        _sellingHeroes[_heroId] = SellItem(_price, msg.sender);\n\n        emit NewSellingItem(_heroId, _price);\n    }\n\n    function disallowBuy(uint256 _heroId) external {\n        require(_sellingHeroes[_heroId].seller == msg.sender, \"Not owner\");\n\n        IERC721(_gameTokenAddress).transferFrom(address(this), msg.sender, _heroId);\n\n        delete _sellingHeroes[_heroId];\n\n        emit CancelSellingItem(_heroId);\n    }\n\n    function buy(uint256 _heroId) external payable {\n        require(_sellingHeroes[_heroId].value > 0, \"Hero not for sale\");\n        require(_sellingHeroes[_heroId].value == msg.value, \"Incorrect value\");\n\n        payable(_sellingHeroes[_heroId].seller).transfer(msg.value);\n\n        IERC721(_gameTokenAddress).transferFrom(address(this), msg.sender, _heroId);\n\n        delete _sellingHeroes[_heroId];\n\n        emit ItemBought(_heroId, msg.value);\n    }\n\n    function createAuction(\n        uint256 _heroId,\n        uint256 _endTime,\n        uint256 _minPrice\n    ) external {\n        require(msg.sender == IERC721(_gameTokenAddress).ownerOf(_heroId), \"Not owner\");\n        require(\n            _endTime >= (block.timestamp + _minAuctionTime) * 1_000,\n            \"Auction must have end time\"\n        );\n        require(_minPrice > 0, \"Minimum Price\");\n        require(\n            _sellingHeroesAuction[_heroId].endTime <= 0,\n            \"Auction already created\"\n        );\n        require(_sellingHeroes[_heroId].value <= 0, \"Hero is selling\");\n\n        IERC721(_gameTokenAddress).transferFrom(msg.sender, address(this), _heroId);\n\n        _sellingHeroesAuction[_heroId] = Auction(\n            _endTime,\n            _minPrice,\n            0,\n            msg.sender,\n            address(0)\n        );\n\n        emit NewAuction(_heroId, _endTime, _minPrice);\n    }\n\n    function cancelAuction(uint256 _heroId) external {\n        require(\n            _sellingHeroesAuction[_heroId].seller == msg.sender,\n            \"Not owner\"\n        );\n\n        require(\n            _sellingHeroesAuction[_heroId].currValue <= 0,\n            \"Can't cancel this auction\"\n        );\n\n        IERC721(_gameTokenAddress).transferFrom(address(this), msg.sender, _heroId);\n\n        delete _sellingHeroesAuction[_heroId];\n\n        emit CancelAuction(_heroId);\n    }\n\n    function bid(uint256 _heroId) external payable {\n        Auction storage auction = _sellingHeroesAuction[_heroId];\n        require(\n            _sellingHeroesAuction[_heroId].endTime > 0,\n            \"Auction not found\"\n        );\n        require(auction.endTime > block.timestamp * 1_000, \"Auction ended\");\n        require(\n            msg.value >= uint256((auction.currValue * _minBidIncrement) / 100),\n            \"Incorrect value\"\n        );\n\n        //payable(address(this)).transfer(msg.value);\n\n        if (auction.lastBidAddress != address(0)) {\n            payable(auction.lastBidAddress).transfer(auction.currValue);\n        }\n\n        auction.currValue = msg.value;\n        auction.lastBidAddress = msg.sender;\n\n        emit NewBid(_heroId, msg.value);\n    }\n\n    function finishAuction(uint256 _heroId) external {\n        require(\n            _sellingHeroesAuction[_heroId].endTime > 0,\n            \"Auction not found\"\n        );\n        require(\n            _sellingHeroesAuction[_heroId].endTime <= block.timestamp * 1_000,\n            \"Auction not ended\"\n        );\n\n        if (_sellingHeroesAuction[_heroId].currValue > 0) {\n            payable(_sellingHeroesAuction[_heroId].seller).transfer(\n                _sellingHeroesAuction[_heroId].currValue\n            );\n            IERC721(_gameTokenAddress).transferFrom(\n                address(this),\n                _sellingHeroesAuction[_heroId].lastBidAddress,\n                _heroId\n            );\n        }\n\n        delete _sellingHeroesAuction[_heroId];\n\n        emit AuctionEnded(_heroId, _sellingHeroesAuction[_heroId].currValue);\n    }\n\n    function receiver() external payable {}\n}\n",
  "sourcePath": "/home/rfaita/game/nft-game/contract/contracts/Market.sol",
  "compiler": {
    "name": "solc",
    "version": "0.8.9+commit.e5eed63a.Emscripten.clang"
  },
  "schemaVersion": "3.4.3",
  "updatedAt": "2021-11-25T14:02:56.173Z",
  "networkType": "ethereum",
  "devdoc": {
    "kind": "dev",
    "methods": {
      "owner()": {
        "details": "Returns the address of the current owner."
      },
      "renounceOwnership()": {
        "details": "Leaves the contract without owner. It will not be possible to call `onlyOwner` functions anymore. Can only be called by the current owner. NOTE: Renouncing ownership will leave the contract without an owner, thereby removing any functionality that is only available to the owner."
      },
      "transferOwnership(address)": {
        "details": "Transfers ownership of the contract to a new account (`newOwner`). Can only be called by the current owner."
      }
    },
    "version": 1
  },
  "userdoc": {
    "kind": "user",
    "methods": {},
    "version": 1
  }
}