{
  "contractName": "XPGainConsumableResolver",
  "abi": [
    {
      "inputs": [
        {
          "internalType": "address",
          "name": "gameTokenAddress",
          "type": "address"
        },
        {
          "internalType": "address",
          "name": "consumableAddress",
          "type": "address"
        }
      ],
      "stateMutability": "nonpayable",
      "type": "constructor"
    },
    {
      "anonymous": false,
      "inputs": [
        {
          "indexed": true,
          "internalType": "address",
          "name": "previousOwner",
          "type": "address"
        },
        {
          "indexed": true,
          "internalType": "address",
          "name": "newOwner",
          "type": "address"
        }
      ],
      "name": "OwnershipTransferred",
      "type": "event"
    },
    {
      "inputs": [],
      "name": "owner",
      "outputs": [
        {
          "internalType": "address",
          "name": "",
          "type": "address"
        }
      ],
      "stateMutability": "view",
      "type": "function",
      "constant": true
    },
    {
      "inputs": [],
      "name": "renounceOwnership",
      "outputs": [],
      "stateMutability": "nonpayable",
      "type": "function"
    },
    {
      "inputs": [
        {
          "internalType": "address",
          "name": "newOwner",
          "type": "address"
        }
      ],
      "name": "transferOwnership",
      "outputs": [],
      "stateMutability": "nonpayable",
      "type": "function"
    },
    {
      "inputs": [
        {
          "internalType": "uint256",
          "name": "_token",
          "type": "uint256"
        },
        {
          "components": [
            {
              "internalType": "uint256",
              "name": "id",
              "type": "uint256"
            },
            {
              "internalType": "uint8",
              "name": "percXPGain",
              "type": "uint8"
            },
            {
              "internalType": "uint8",
              "name": "maxXPGain",
              "type": "uint8"
            },
            {
              "internalType": "bool",
              "name": "generateArenaTicket",
              "type": "bool"
            },
            {
              "internalType": "bool",
              "name": "generateEquipment",
              "type": "bool"
            },
            {
              "internalType": "bool",
              "name": "generateMysteriousChest",
              "type": "bool"
            }
          ],
          "internalType": "struct SharedStructs.Consumable",
          "name": "_consumable",
          "type": "tuple"
        }
      ],
      "name": "resolve",
      "outputs": [],
      "stateMutability": "nonpayable",
      "type": "function"
    }
  ],
  "bytecode": "0x60806040523480156200001157600080fd5b50604051620013ba380380620013ba833981810160405281019062000037919062000217565b620000576200004b620000e160201b60201c565b620000e960201b60201c565b81600160006101000a81548173ffffffffffffffffffffffffffffffffffffffff021916908373ffffffffffffffffffffffffffffffffffffffff16021790555080600260006101000a81548173ffffffffffffffffffffffffffffffffffffffff021916908373ffffffffffffffffffffffffffffffffffffffff16021790555050506200025e565b600033905090565b60008060009054906101000a900473ffffffffffffffffffffffffffffffffffffffff169050816000806101000a81548173ffffffffffffffffffffffffffffffffffffffff021916908373ffffffffffffffffffffffffffffffffffffffff1602179055508173ffffffffffffffffffffffffffffffffffffffff168173ffffffffffffffffffffffffffffffffffffffff167f8be0079c531659141344cd1fd0a4f28419497f9722a3daafe3b4186f6b6457e060405160405180910390a35050565b600080fd5b600073ffffffffffffffffffffffffffffffffffffffff82169050919050565b6000620001df82620001b2565b9050919050565b620001f181620001d2565b8114620001fd57600080fd5b50565b6000815190506200021181620001e6565b92915050565b60008060408385031215620002315762000230620001ad565b5b6000620002418582860162000200565b9250506020620002548582860162000200565b9150509250929050565b61114c806200026e6000396000f3fe608060405234801561001057600080fd5b506004361061004c5760003560e01c8063715018a6146100515780638da5cb5b1461005b578063b427489a14610079578063f2fde38b14610095575b600080fd5b6100596100b1565b005b610063610139565b60405161007091906106bb565b60405180910390f35b610093600480360381019061008e91906108c7565b610162565b005b6100af60048036038101906100aa9190610933565b6104b6565b005b6100b96105ae565b73ffffffffffffffffffffffffffffffffffffffff166100d7610139565b73ffffffffffffffffffffffffffffffffffffffff161461012d576040517f08c379a0000000000000000000000000000000000000000000000000000000008152600401610124906109bd565b60405180910390fd5b61013760006105b6565b565b60008060009054906101000a900473ffffffffffffffffffffffffffffffffffffffff16905090565b600260009054906101000a900473ffffffffffffffffffffffffffffffffffffffff1673ffffffffffffffffffffffffffffffffffffffff163373ffffffffffffffffffffffffffffffffffffffff16146101f2576040517f08c379a00000000000000000000000000000000000000000000000000000000081526004016101e990610a4f565b60405180910390fd5b600160009054906101000a900473ffffffffffffffffffffffffffffffffffffffff1673ffffffffffffffffffffffffffffffffffffffff16636352211e836040518263ffffffff1660e01b815260040161024d9190610a7e565b60206040518083038186803b15801561026557600080fd5b505afa158015610279573d6000803e3d6000fd5b505050506040513d601f19601f8201168201806040525081019061029d9190610aae565b73ffffffffffffffffffffffffffffffffffffffff163373ffffffffffffffffffffffffffffffffffffffff161461030a576040517f08c379a000000000000000000000000000000000000000000000000000000000815260040161030190610b27565b60405180910390fd5b6000600160009054906101000a900473ffffffffffffffffffffffffffffffffffffffff1673ffffffffffffffffffffffffffffffffffffffff166321d80111846040518263ffffffff1660e01b81526004016103679190610a7e565b60006040518083038186803b15801561037f57600080fd5b505afa158015610393573d6000803e3d6000fd5b505050506040513d6000823e3d601f19601f820116820180604052508101906103bc9190610dba565b905060006064836020015160ff168360e0015160026103db9190610f65565b6103e59190610fb0565b6103ef919061101b565b9050826040015160ff168161ffff16111561040f57826040015160ff1690505b60008161ffff16141561042157600190505b600160009054906101000a900473ffffffffffffffffffffffffffffffffffffffff1673ffffffffffffffffffffffffffffffffffffffff1663484a203285836040518363ffffffff1660e01b815260040161047e92919061105b565b600060405180830381600087803b15801561049857600080fd5b505af11580156104ac573d6000803e3d6000fd5b5050505050505050565b6104be6105ae565b73ffffffffffffffffffffffffffffffffffffffff166104dc610139565b73ffffffffffffffffffffffffffffffffffffffff1614610532576040517f08c379a0000000000000000000000000000000000000000000000000000000008152600401610529906109bd565b60405180910390fd5b600073ffffffffffffffffffffffffffffffffffffffff168173ffffffffffffffffffffffffffffffffffffffff1614156105a2576040517f08c379a0000000000000000000000000000000000000000000000000000000008152600401610599906110f6565b60405180910390fd5b6105ab816105b6565b50565b600033905090565b60008060009054906101000a900473ffffffffffffffffffffffffffffffffffffffff169050816000806101000a81548173ffffffffffffffffffffffffffffffffffffffff021916908373ffffffffffffffffffffffffffffffffffffffff1602179055508173ffffffffffffffffffffffffffffffffffffffff168173ffffffffffffffffffffffffffffffffffffffff167f8be0079c531659141344cd1fd0a4f28419497f9722a3daafe3b4186f6b6457e060405160405180910390a35050565b600073ffffffffffffffffffffffffffffffffffffffff82169050919050565b60006106a58261067a565b9050919050565b6106b58161069a565b82525050565b60006020820190506106d060008301846106ac565b92915050565b6000604051905090565b600080fd5b600080fd5b6000819050919050565b6106fd816106ea565b811461070857600080fd5b50565b60008135905061071a816106f4565b92915050565b600080fd5b6000601f19601f8301169050919050565b7f4e487b7100000000000000000000000000000000000000000000000000000000600052604160045260246000fd5b61076e82610725565b810181811067ffffffffffffffff8211171561078d5761078c610736565b5b80604052505050565b60006107a06106d6565b90506107ac8282610765565b919050565b600080fd5b600060ff82169050919050565b6107cc816107b6565b81146107d757600080fd5b50565b6000813590506107e9816107c3565b92915050565b60008115159050919050565b610804816107ef565b811461080f57600080fd5b50565b600081359050610821816107fb565b92915050565b600060c0828403121561083d5761083c610720565b5b61084760c0610796565b905060006108578482850161070b565b600083015250602061086b848285016107da565b602083015250604061087f848285016107da565b604083015250606061089384828501610812565b60608301525060806108a784828501610812565b60808301525060a06108bb84828501610812565b60a08301525092915050565b60008060e083850312156108de576108dd6106e0565b5b60006108ec8582860161070b565b92505060206108fd85828601610827565b9150509250929050565b6109108161069a565b811461091b57600080fd5b50565b60008135905061092d81610907565b92915050565b600060208284031215610949576109486106e0565b5b60006109578482850161091e565b91505092915050565b600082825260208201905092915050565b7f4f776e61626c653a2063616c6c6572206973206e6f7420746865206f776e6572600082015250565b60006109a7602083610960565b91506109b282610971565b602082019050919050565b600060208201905081810360008301526109d68161099a565b9050919050565b7f4f6e6c7920636f6e73756d61626c6520636f6e74726163742063616e2063616c60008201527f6c2074686973206d6574686f6400000000000000000000000000000000000000602082015250565b6000610a39602d83610960565b9150610a44826109dd565b604082019050919050565b60006020820190508181036000830152610a6881610a2c565b9050919050565b610a78816106ea565b82525050565b6000602082019050610a936000830184610a6f565b92915050565b600081519050610aa881610907565b92915050565b600060208284031215610ac457610ac36106e0565b5b6000610ad284828501610a99565b91505092915050565b7f4f6e6c79206865726f206f776e65722063616e20616464205850000000000000600082015250565b6000610b11601a83610960565b9150610b1c82610adb565b602082019050919050565b60006020820190508181036000830152610b4081610b04565b9050919050565b600080fd5b600080fd5b600067ffffffffffffffff821115610b6c57610b6b610736565b5b610b7582610725565b9050602081019050919050565b60005b83811015610ba0578082015181840152602081019050610b85565b83811115610baf576000848401525b50505050565b6000610bc8610bc384610b51565b610796565b905082815260208101848484011115610be457610be3610b4c565b5b610bef848285610b82565b509392505050565b600082601f830112610c0c57610c0b610b47565b5b8151610c1c848260208601610bb5565b91505092915050565b60048110610c3257600080fd5b50565b600081519050610c4481610c25565b92915050565b60048110610c5757600080fd5b50565b600081519050610c6981610c4a565b92915050565b600081519050610c7e816107c3565b92915050565b600061ffff82169050919050565b610c9b81610c84565b8114610ca657600080fd5b50565b600081519050610cb881610c92565b92915050565b60006101208284031215610cd557610cd4610720565b5b610ce0610120610796565b9050600082015167ffffffffffffffff811115610d0057610cff6107b1565b5b610d0c84828501610bf7565b6000830152506020610d2084828501610c35565b6020830152506040610d3484828501610c5a565b6040830152506060610d4884828501610c6f565b6060830152506080610d5c84828501610c6f565b60808301525060a0610d7084828501610c6f565b60a08301525060c0610d8484828501610c6f565b60c08301525060e0610d9884828501610c6f565b60e083015250610100610dad84828501610ca9565b6101008301525092915050565b600060208284031215610dd057610dcf6106e0565b5b600082015167ffffffffffffffff811115610dee57610ded6106e5565b5b610dfa84828501610cbe565b91505092915050565b7f4e487b7100000000000000000000000000000000000000000000000000000000600052601160045260246000fd5b60008160011c9050919050565b6000808291508390505b6001851115610e8957808604811115610e6557610e64610e03565b5b6001851615610e745780820291505b8081029050610e8285610e32565b9450610e49565b94509492505050565b600082610ea25760019050610f5e565b81610eb05760009050610f5e565b8160018114610ec65760028114610ed057610eff565b6001915050610f5e565b60ff841115610ee257610ee1610e03565b5b8360020a915084821115610ef957610ef8610e03565b5b50610f5e565b5060208310610133831016604e8410600b8410161715610f345782820a905083811115610f2f57610f2e610e03565b5b610f5e565b610f418484846001610e3f565b92509050818404811115610f5857610f57610e03565b5b81810290505b9392505050565b6000610f70826106ea565b9150610f7b836107b6565b9250610fa87fffffffffffffffffffffffffffffffffffffffffffffffffffffffffffffffff8484610e92565b905092915050565b6000610fbb82610c84565b9150610fc683610c84565b92508161ffff0483118215151615610fe157610fe0610e03565b5b828202905092915050565b7f4e487b7100000000000000000000000000000000000000000000000000000000600052601260045260246000fd5b600061102682610c84565b915061103183610c84565b92508261104157611040610fec565b5b828204905092915050565b61105581610c84565b82525050565b60006040820190506110706000830185610a6f565b61107d602083018461104c565b9392505050565b7f4f776e61626c653a206e6577206f776e657220697320746865207a65726f206160008201527f6464726573730000000000000000000000000000000000000000000000000000602082015250565b60006110e0602683610960565b91506110eb82611084565b604082019050919050565b6000602082019050818103600083015261110f816110d3565b905091905056fea26469706673582212207069a72a13f5183c107a6c1bdb45aec2d2530d067baf4660f671a004013bc2ca64736f6c63430008090033",
  "immutableReferences": {},
  "source": "// SPDX-License-Identifier: MIT\npragma solidity 0.8.9;\n\nimport \"../../node_modules/@openzeppelin/contracts/access/Ownable.sol\";\nimport \"../GameToken.sol\";\nimport \"../interfaces/IConsumableResolver.sol\";\n\ncontract XPGainConsumableResolver is Ownable, IConsumableResolver {\n    address private _gameTokenAddress;\n    address private _consumableAddress;\n\n    constructor(address gameTokenAddress, address consumableAddress) {\n        _gameTokenAddress = gameTokenAddress;\n        _consumableAddress = consumableAddress;\n    }\n\n    function resolve(\n        uint256 _token,\n        SharedStructs.Consumable memory _consumable\n    ) external {\n        require(\n            msg.sender == _consumableAddress,\n            \"Only consumable contract can call this method\"\n        );\n\n        require(\n            msg.sender == GameToken(_gameTokenAddress).ownerOf(_token),\n            \"Only hero owner can add XP\"\n        );\n\n        GameToken.Hero memory hero = GameToken(_gameTokenAddress).getHero(\n            _token\n        );\n\n        uint16 xpGain = (uint16(2**hero.level) * _consumable.percXPGain) / 100;\n\n        if (xpGain > _consumable.maxXPGain) {\n            xpGain = _consumable.maxXPGain;\n        }\n\n        if (xpGain == 0) {\n            xpGain = 1;\n        }\n\n        GameToken(_gameTokenAddress).levelUp(_token, xpGain);\n    }\n}\n",
  "sourcePath": "/home/rfaita/game/nft-game/contract/contracts/resolvers/XPGainConsumableResolver.sol",
  "compiler": {
    "name": "solc",
    "version": "0.8.9+commit.e5eed63a.Emscripten.clang"
  },
  "schemaVersion": "3.4.3",
  "updatedAt": "2021-11-30T14:34:57.968Z",
  "networkType": "ethereum",
  "devdoc": {
    "kind": "dev",
    "methods": {
      "owner()": {
        "details": "Returns the address of the current owner."
      },
      "renounceOwnership()": {
        "details": "Leaves the contract without owner. It will not be possible to call `onlyOwner` functions anymore. Can only be called by the current owner. NOTE: Renouncing ownership will leave the contract without an owner, thereby removing any functionality that is only available to the owner."
      },
      "transferOwnership(address)": {
        "details": "Transfers ownership of the contract to a new account (`newOwner`). Can only be called by the current owner."
      }
    },
    "version": 1
  },
  "userdoc": {
    "kind": "user",
    "methods": {},
    "version": 1
  }
}