{
  "contractName": "XPGainConsumableResolver",
  "abi": [
    {
      "inputs": [
        {
          "internalType": "address",
          "name": "gameTokenAddress",
          "type": "address"
        },
        {
          "internalType": "address",
          "name": "consumableAddress",
          "type": "address"
        }
      ],
      "stateMutability": "nonpayable",
      "type": "constructor"
    },
    {
      "anonymous": false,
      "inputs": [
        {
          "indexed": true,
          "internalType": "address",
          "name": "previousOwner",
          "type": "address"
        },
        {
          "indexed": true,
          "internalType": "address",
          "name": "newOwner",
          "type": "address"
        }
      ],
      "name": "OwnershipTransferred",
      "type": "event"
    },
    {
      "inputs": [],
      "name": "owner",
      "outputs": [
        {
          "internalType": "address",
          "name": "",
          "type": "address"
        }
      ],
      "stateMutability": "view",
      "type": "function",
      "constant": true
    },
    {
      "inputs": [],
      "name": "renounceOwnership",
      "outputs": [],
      "stateMutability": "nonpayable",
      "type": "function"
    },
    {
      "inputs": [
        {
          "internalType": "address",
          "name": "newOwner",
          "type": "address"
        }
      ],
      "name": "transferOwnership",
      "outputs": [],
      "stateMutability": "nonpayable",
      "type": "function"
    },
    {
      "inputs": [
        {
          "internalType": "uint256",
          "name": "_token",
          "type": "uint256"
        },
        {
          "components": [
            {
              "internalType": "uint256",
              "name": "id",
              "type": "uint256"
            },
            {
              "internalType": "uint8",
              "name": "percXPGain",
              "type": "uint8"
            },
            {
              "internalType": "uint8",
              "name": "maxXPGain",
              "type": "uint8"
            },
            {
              "internalType": "bool",
              "name": "generateArenaTicket",
              "type": "bool"
            },
            {
              "internalType": "bool",
              "name": "generateEquipment",
              "type": "bool"
            }
          ],
          "internalType": "struct SharedStructs.Consumable",
          "name": "_consumable",
          "type": "tuple"
        }
      ],
      "name": "resolve",
      "outputs": [],
      "stateMutability": "nonpayable",
      "type": "function"
    }
  ],
  "bytecode": "0x60806040523480156200001157600080fd5b50604051620013a5380380620013a5833981810160405281019062000037919062000217565b620000576200004b620000e160201b60201c565b620000e960201b60201c565b81600160006101000a81548173ffffffffffffffffffffffffffffffffffffffff021916908373ffffffffffffffffffffffffffffffffffffffff16021790555080600260006101000a81548173ffffffffffffffffffffffffffffffffffffffff021916908373ffffffffffffffffffffffffffffffffffffffff16021790555050506200025e565b600033905090565b60008060009054906101000a900473ffffffffffffffffffffffffffffffffffffffff169050816000806101000a81548173ffffffffffffffffffffffffffffffffffffffff021916908373ffffffffffffffffffffffffffffffffffffffff1602179055508173ffffffffffffffffffffffffffffffffffffffff168173ffffffffffffffffffffffffffffffffffffffff167f8be0079c531659141344cd1fd0a4f28419497f9722a3daafe3b4186f6b6457e060405160405180910390a35050565b600080fd5b600073ffffffffffffffffffffffffffffffffffffffff82169050919050565b6000620001df82620001b2565b9050919050565b620001f181620001d2565b8114620001fd57600080fd5b50565b6000815190506200021181620001e6565b92915050565b60008060408385031215620002315762000230620001ad565b5b6000620002418582860162000200565b9250506020620002548582860162000200565b9150509250929050565b611137806200026e6000396000f3fe608060405234801561001057600080fd5b506004361061004c5760003560e01c806351220e6614610051578063715018a61461006d5780638da5cb5b14610077578063f2fde38b14610095575b600080fd5b61006b60048036038101906100669190610857565b6100b1565b005b610075610405565b005b61007f61048d565b60405161008c91906108d8565b60405180910390f35b6100af60048036038101906100aa919061091f565b6104b6565b005b600260009054906101000a900473ffffffffffffffffffffffffffffffffffffffff1673ffffffffffffffffffffffffffffffffffffffff163373ffffffffffffffffffffffffffffffffffffffff1614610141576040517f08c379a0000000000000000000000000000000000000000000000000000000008152600401610138906109cf565b60405180910390fd5b600160009054906101000a900473ffffffffffffffffffffffffffffffffffffffff1673ffffffffffffffffffffffffffffffffffffffff16636352211e836040518263ffffffff1660e01b815260040161019c91906109fe565b60206040518083038186803b1580156101b457600080fd5b505afa1580156101c8573d6000803e3d6000fd5b505050506040513d601f19601f820116820180604052508101906101ec9190610a2e565b73ffffffffffffffffffffffffffffffffffffffff163373ffffffffffffffffffffffffffffffffffffffff1614610259576040517f08c379a000000000000000000000000000000000000000000000000000000000815260040161025090610aa7565b60405180910390fd5b6000600160009054906101000a900473ffffffffffffffffffffffffffffffffffffffff1673ffffffffffffffffffffffffffffffffffffffff166321d80111846040518263ffffffff1660e01b81526004016102b691906109fe565b60006040518083038186803b1580156102ce57600080fd5b505afa1580156102e2573d6000803e3d6000fd5b505050506040513d6000823e3d601f19601f8201168201806040525081019061030b9190610d2b565b905060006064836020015160ff168360e00151600261032a9190610ed6565b6103349190610f2f565b61033e9190610f9a565b9050826040015160ff168161ffff16111561035e57826040015160ff1690505b60008161ffff16141561037057600190505b600160009054906101000a900473ffffffffffffffffffffffffffffffffffffffff1673ffffffffffffffffffffffffffffffffffffffff1663484a203285836040518363ffffffff1660e01b81526004016103cd929190610fda565b600060405180830381600087803b1580156103e757600080fd5b505af11580156103fb573d6000803e3d6000fd5b5050505050505050565b61040d6105ae565b73ffffffffffffffffffffffffffffffffffffffff1661042b61048d565b73ffffffffffffffffffffffffffffffffffffffff1614610481576040517f08c379a00000000000000000000000000000000000000000000000000000000081526004016104789061104f565b60405180910390fd5b61048b60006105b6565b565b60008060009054906101000a900473ffffffffffffffffffffffffffffffffffffffff16905090565b6104be6105ae565b73ffffffffffffffffffffffffffffffffffffffff166104dc61048d565b73ffffffffffffffffffffffffffffffffffffffff1614610532576040517f08c379a00000000000000000000000000000000000000000000000000000000081526004016105299061104f565b60405180910390fd5b600073ffffffffffffffffffffffffffffffffffffffff168173ffffffffffffffffffffffffffffffffffffffff1614156105a2576040517f08c379a0000000000000000000000000000000000000000000000000000000008152600401610599906110e1565b60405180910390fd5b6105ab816105b6565b50565b600033905090565b60008060009054906101000a900473ffffffffffffffffffffffffffffffffffffffff169050816000806101000a81548173ffffffffffffffffffffffffffffffffffffffff021916908373ffffffffffffffffffffffffffffffffffffffff1602179055508173ffffffffffffffffffffffffffffffffffffffff168173ffffffffffffffffffffffffffffffffffffffff167f8be0079c531659141344cd1fd0a4f28419497f9722a3daafe3b4186f6b6457e060405160405180910390a35050565b6000604051905090565b600080fd5b600080fd5b6000819050919050565b6106a18161068e565b81146106ac57600080fd5b50565b6000813590506106be81610698565b92915050565b600080fd5b6000601f19601f8301169050919050565b7f4e487b7100000000000000000000000000000000000000000000000000000000600052604160045260246000fd5b610712826106c9565b810181811067ffffffffffffffff82111715610731576107306106da565b5b80604052505050565b600061074461067a565b90506107508282610709565b919050565b600080fd5b600060ff82169050919050565b6107708161075a565b811461077b57600080fd5b50565b60008135905061078d81610767565b92915050565b60008115159050919050565b6107a881610793565b81146107b357600080fd5b50565b6000813590506107c58161079f565b92915050565b600060a082840312156107e1576107e06106c4565b5b6107eb60a061073a565b905060006107fb848285016106af565b600083015250602061080f8482850161077e565b60208301525060406108238482850161077e565b6040830152506060610837848285016107b6565b606083015250608061084b848285016107b6565b60808301525092915050565b60008060c0838503121561086e5761086d610684565b5b600061087c858286016106af565b925050602061088d858286016107cb565b9150509250929050565b600073ffffffffffffffffffffffffffffffffffffffff82169050919050565b60006108c282610897565b9050919050565b6108d2816108b7565b82525050565b60006020820190506108ed60008301846108c9565b92915050565b6108fc816108b7565b811461090757600080fd5b50565b600081359050610919816108f3565b92915050565b60006020828403121561093557610934610684565b5b60006109438482850161090a565b91505092915050565b600082825260208201905092915050565b7f4f6e6c7920636f6e73756d61626c6520636f6e74726163742063616e2063616c60008201527f6c2074686973206d6574686f6400000000000000000000000000000000000000602082015250565b60006109b9602d8361094c565b91506109c48261095d565b604082019050919050565b600060208201905081810360008301526109e8816109ac565b9050919050565b6109f88161068e565b82525050565b6000602082019050610a1360008301846109ef565b92915050565b600081519050610a28816108f3565b92915050565b600060208284031215610a4457610a43610684565b5b6000610a5284828501610a19565b91505092915050565b7f4f6e6c79206865726f206f776e65722063616e20616464205850000000000000600082015250565b6000610a91601a8361094c565b9150610a9c82610a5b565b602082019050919050565b60006020820190508181036000830152610ac081610a84565b9050919050565b600080fd5b600080fd5b600067ffffffffffffffff821115610aec57610aeb6106da565b5b610af5826106c9565b9050602081019050919050565b60005b83811015610b20578082015181840152602081019050610b05565b83811115610b2f576000848401525b50505050565b6000610b48610b4384610ad1565b61073a565b905082815260208101848484011115610b6457610b63610acc565b5b610b6f848285610b02565b509392505050565b600082601f830112610b8c57610b8b610ac7565b5b8151610b9c848260208601610b35565b91505092915050565b60048110610bb257600080fd5b50565b600081519050610bc481610ba5565b92915050565b60048110610bd757600080fd5b50565b600081519050610be981610bca565b92915050565b600081519050610bfe81610767565b92915050565b600081519050610c1381610698565b92915050565b60006101408284031215610c3057610c2f6106c4565b5b610c3b61014061073a565b9050600082015167ffffffffffffffff811115610c5b57610c5a610755565b5b610c6784828501610b77565b6000830152506020610c7b84828501610bb5565b6020830152506040610c8f84828501610bda565b6040830152506060610ca384828501610bef565b6060830152506080610cb784828501610bef565b60808301525060a0610ccb84828501610bef565b60a08301525060c0610cdf84828501610bef565b60c08301525060e0610cf384828501610bef565b60e083015250610100610d0884828501610bef565b61010083015250610120610d1e84828501610c04565b6101208301525092915050565b600060208284031215610d4157610d40610684565b5b600082015167ffffffffffffffff811115610d5f57610d5e610689565b5b610d6b84828501610c19565b91505092915050565b7f4e487b7100000000000000000000000000000000000000000000000000000000600052601160045260246000fd5b60008160011c9050919050565b6000808291508390505b6001851115610dfa57808604811115610dd657610dd5610d74565b5b6001851615610de55780820291505b8081029050610df385610da3565b9450610dba565b94509492505050565b600082610e135760019050610ecf565b81610e215760009050610ecf565b8160018114610e375760028114610e4157610e70565b6001915050610ecf565b60ff841115610e5357610e52610d74565b5b8360020a915084821115610e6a57610e69610d74565b5b50610ecf565b5060208310610133831016604e8410600b8410161715610ea55782820a905083811115610ea057610e9f610d74565b5b610ecf565b610eb28484846001610db0565b92509050818404811115610ec957610ec8610d74565b5b81810290505b9392505050565b6000610ee18261068e565b9150610eec8361075a565b9250610f197fffffffffffffffffffffffffffffffffffffffffffffffffffffffffffffffff8484610e03565b905092915050565b600061ffff82169050919050565b6000610f3a82610f21565b9150610f4583610f21565b92508161ffff0483118215151615610f6057610f5f610d74565b5b828202905092915050565b7f4e487b7100000000000000000000000000000000000000000000000000000000600052601260045260246000fd5b6000610fa582610f21565b9150610fb083610f21565b925082610fc057610fbf610f6b565b5b828204905092915050565b610fd481610f21565b82525050565b6000604082019050610fef60008301856109ef565b610ffc6020830184610fcb565b9392505050565b7f4f776e61626c653a2063616c6c6572206973206e6f7420746865206f776e6572600082015250565b600061103960208361094c565b915061104482611003565b602082019050919050565b600060208201905081810360008301526110688161102c565b9050919050565b7f4f776e61626c653a206e6577206f776e657220697320746865207a65726f206160008201527f6464726573730000000000000000000000000000000000000000000000000000602082015250565b60006110cb60268361094c565b91506110d68261106f565b604082019050919050565b600060208201905081810360008301526110fa816110be565b905091905056fea264697066735822122088ed829fd7a6a7253ef89f22fe9615be33bef116bb2b9c6bc867cf2366c4dbf564736f6c63430008090033",
  "immutableReferences": {},
  "source": "// SPDX-License-Identifier: MIT\npragma solidity 0.8.9;\n\nimport \"../../node_modules/@openzeppelin/contracts/access/Ownable.sol\";\nimport \"../GameToken.sol\";\nimport \"../interfaces/IConsumableResolver.sol\";\n\ncontract XPGainConsumableResolver is Ownable, IConsumableResolver {\n    address private _gameTokenAddress;\n    address private _consumableAddress;\n\n    constructor(address gameTokenAddress, address consumableAddress) {\n        _gameTokenAddress = gameTokenAddress;\n        _consumableAddress = consumableAddress;\n    }\n\n    function resolve(\n        uint256 _token,\n        SharedStructs.Consumable memory _consumable\n    ) external {\n        require(\n            msg.sender == _consumableAddress,\n            \"Only consumable contract can call this method\"\n        );\n\n        require(\n            msg.sender == GameToken(_gameTokenAddress).ownerOf(_token),\n            \"Only hero owner can add XP\"\n        );\n\n        GameToken.Hero memory hero = GameToken(_gameTokenAddress).getHero(\n            _token\n        );\n\n        uint16 xpGain = (uint16(2**hero.level) * _consumable.percXPGain) / 100;\n\n        if (xpGain > _consumable.maxXPGain) {\n            xpGain = _consumable.maxXPGain;\n        }\n\n        if (xpGain == 0) {\n            xpGain = 1;\n        }\n\n        GameToken(_gameTokenAddress).levelUp(_token, xpGain);\n    }\n}\n",
  "sourcePath": "/home/rfaita/game/nft-game/contract/contracts/resolvers/XPGainConsumableResolver.sol",
  "compiler": {
    "name": "solc",
    "version": "0.8.9+commit.e5eed63a.Emscripten.clang"
  },
  "schemaVersion": "3.4.4",
  "updatedAt": "2021-12-27T12:42:42.936Z",
  "networkType": "ethereum",
  "devdoc": {
    "kind": "dev",
    "methods": {
      "owner()": {
        "details": "Returns the address of the current owner."
      },
      "renounceOwnership()": {
        "details": "Leaves the contract without owner. It will not be possible to call `onlyOwner` functions anymore. Can only be called by the current owner. NOTE: Renouncing ownership will leave the contract without an owner, thereby removing any functionality that is only available to the owner."
      },
      "transferOwnership(address)": {
        "details": "Transfers ownership of the contract to a new account (`newOwner`). Can only be called by the current owner."
      }
    },
    "version": 1
  },
  "userdoc": {
    "kind": "user",
    "methods": {},
    "version": 1
  }
}